{
  "abi": [
    {
      "inputs": [
        {
          "internalType": "address payable",
          "name": "_pool",
          "type": "address"
        },
        {
          "internalType": "address",
          "name": "_addressesProvider",
          "type": "address"
        }
      ],
      "stateMutability": "nonpayable",
      "type": "constructor"
    },
    {
      "anonymous": false,
      "inputs": [
        {
          "indexed": true,
          "internalType": "address",
          "name": "previousOwner",
          "type": "address"
        },
        {
          "indexed": true,
          "internalType": "address",
          "name": "newOwner",
          "type": "address"
        }
      ],
      "name": "OwnershipTransferred",
      "type": "event"
    },
    {
      "anonymous": false,
      "inputs": [
        {
          "indexed": false,
          "internalType": "address",
          "name": "stableToken",
          "type": "address"
        },
        {
          "indexed": false,
          "internalType": "address",
          "name": "variableToken",
          "type": "address"
        }
      ],
      "name": "deployedContracts",
      "type": "event"
    },
    {
      "inputs": [
        {
          "internalType": "address[]",
          "name": "tokens",
          "type": "address[]"
        },
        {
          "internalType": "string[]",
          "name": "symbols",
          "type": "string[]"
        },
        {
          "internalType": "address",
          "name": "incentivesController",
          "type": "address"
        }
      ],
      "name": "initDeployment",
      "outputs": [],
      "stateMutability": "nonpayable",
      "type": "function"
    },
    {
      "inputs": [],
      "name": "owner",
      "outputs": [
        {
          "internalType": "address",
          "name": "",
          "type": "address"
        }
      ],
      "stateMutability": "view",
      "type": "function"
    },
    {
      "inputs": [],
      "name": "renounceOwnership",
      "outputs": [],
      "stateMutability": "nonpayable",
      "type": "function"
    },
    {
      "inputs": [
        {
          "internalType": "address[]",
          "name": "assets",
          "type": "address[]"
        },
        {
          "internalType": "uint256[]",
          "name": "rates",
          "type": "uint256[]"
        },
        {
          "internalType": "address",
          "name": "oracle",
          "type": "address"
        }
      ],
      "name": "setOracleBorrowRates",
      "outputs": [],
      "stateMutability": "nonpayable",
      "type": "function"
    },
    {
      "inputs": [
        {
          "internalType": "address",
          "name": "oracle",
          "type": "address"
        },
        {
          "internalType": "address",
          "name": "admin",
          "type": "address"
        }
      ],
      "name": "setOracleOwnership",
      "outputs": [],
      "stateMutability": "nonpayable",
      "type": "function"
    },
    {
      "inputs": [
        {
          "internalType": "address",
          "name": "newOwner",
          "type": "address"
        }
      ],
      "name": "transferOwnership",
      "outputs": [],
      "stateMutability": "nonpayable",
      "type": "function"
    }
  ],
  "bytecode": {
    "object": "0x608060405234801561001057600080fd5b50604051620047f1380380620047f1833981016040819052610031916100cb565b600061003b6100b6565b600080546001600160a01b0319166001600160a01b0383169081178255604051929350917f8be0079c531659141344cd1fd0a4f28419497f9722a3daafe3b4186f6b6457e0908290a350600180546001600160a01b039384166001600160a01b0319918216179091556002805492909316911617905561012b565b3390565b80516100c581610114565b92915050565b600080604083850312156100dd578182fd5b6100e9848385016100ba565b915060206100f9858286016100ba565b9150509250929050565b60006001600160a01b0382166100c5565b61011d81610103565b811461012857600080fd5b50565b6146b6806200013b6000396000f3fe60806040523480156200001157600080fd5b50600436106200006a5760003560e01c8063563b1cb3146200006f578063715018a614620000885780638da5cb5b1462000092578063b889bec414620000b4578063c2d3032114620000cb578063f2fde38b14620000e2575b600080fd5b6200008662000080366004620008c4565b620000f9565b005b6200008662000273565b6200009c620002f7565b604051620000ab919062000bbf565b60405180910390f35b62000086620000c536600462000901565b62000306565b62000086620000dc36600462000901565b620005fd565b62000086620000f33660046200087d565b6200070c565b62000103620007ca565b6000546001600160a01b039081169116146200013c5760405162461bcd60e51b8152600401620001339062000c83565b60405180910390fd5b6001600160a01b038116620001655760405162461bcd60e51b8152600401620001339062000cb9565b306001600160a01b0316826001600160a01b0316638da5cb5b6040518163ffffffff1660e01b815260040160206040518083038186803b158015620001a957600080fd5b505afa158015620001be573d6000803e3d6000fd5b505050506040513d601f19601f82011682018060405250810190620001e49190620008a4565b6001600160a01b0316146200020d5760405162461bcd60e51b8152600401620001339062000ca7565b60405163f2fde38b60e01b81526001600160a01b0383169063f2fde38b906200023b90849060040162000bbf565b600060405180830381600087803b1580156200025657600080fd5b505af11580156200026b573d6000803e3d6000fd5b505050505050565b6200027d620007ca565b6000546001600160a01b03908116911614620002ad5760405162461bcd60e51b8152600401620001339062000c83565b600080546040516001600160a01b03909116907f8be0079c531659141344cd1fd0a4f28419497f9722a3daafe3b4186f6b6457e0908390a3600080546001600160a01b0319169055565b6000546001600160a01b031690565b62000310620007ca565b6000546001600160a01b03908116911614620003405760405162461bcd60e51b8152600401620001339062000c83565b838214620003625760405162461bcd60e51b8152600401620001339062000ccb565b6001546001600160a01b03166200038d5760405162461bcd60e51b8152600401620001339062000c95565b60005b848110156200026b576001547f1c1768aab1796270c7034dc781c2951065e6afb7a946269746521002443b8ea4906001600160a01b0316878784818110620003d457fe5b9050602002016020810190620003eb91906200087d565b620004816040518060400160405280601981526020017f4161766520737461626c6520646562742062656172696e6720000000000000008152508888878181106200043257fe5b905060200281019062000446919062000cdd565b8080601f016020809104026020016040519081016040528093929190818152602001838380828437600092019190915250620007ce92505050565b620004b56040518060400160405280600a8152602001691cdd18589b195119589d60b21b8152508989888181106200043257fe5b86604051620004c490620007fd565b620004d495949392919062000bcf565b604051809103906000f080158015620004f1573d6000803e3d6000fd5b506001546001600160a01b03168888858181106200050b57fe5b90506020020160208101906200052291906200087d565b620005696040518060400160405280601b81526020017f41617665207661726961626c6520646562742062656172696e672000000000008152508989888181106200043257fe5b6200059f6040518060400160405280600c81526020016b1d985c9a58589b195119589d60a21b8152508a8a898181106200043257fe5b87604051620005ae906200080b565b620005be95949392919062000bcf565b604051809103906000f080158015620005db573d6000803e3d6000fd5b50604051620005ec92919062000c33565b60405180910390a160010162000390565b62000607620007ca565b6000546001600160a01b03908116911614620006375760405162461bcd60e51b8152600401620001339062000c83565b838214620006595760405162461bcd60e51b8152600401620001339062000ccb565b60005b848110156200026b57816001600160a01b03166372eb293d8787848181106200068157fe5b90506020020160208101906200069891906200087d565b868685818110620006a557fe5b905060200201356040518363ffffffff1660e01b8152600401620006cb92919062000c52565b600060405180830381600087803b158015620006e657600080fd5b505af1158015620006fb573d6000803e3d6000fd5b5050600190920191506200065c9050565b62000716620007ca565b6000546001600160a01b03908116911614620007465760405162461bcd60e51b8152600401620001339062000c83565b6001600160a01b0381166200076f5760405162461bcd60e51b8152600401620001339062000c71565b600080546040516001600160a01b03808516939216917f8be0079c531659141344cd1fd0a4f28419497f9722a3daafe3b4186f6b6457e091a3600080546001600160a01b0319166001600160a01b0392909216919091179055565b3390565b60608282604051602001620007e592919062000b9b565b60405160208183030381529060405290505b92915050565b611ebb8062000dbe83390190565b611a088062002c7983390190565b8035620007f78162000da3565b8051620007f78162000da3565b60008083601f84011262000845578182fd5b50813567ffffffffffffffff8111156200085d578182fd5b6020830191508360208202830111156200087657600080fd5b9250929050565b6000602082840312156200088f578081fd5b6200089d8382840162000819565b9392505050565b600060208284031215620008b6578081fd5b6200089d8382840162000826565b60008060408385031215620008d7578081fd5b620008e58482850162000819565b91506020620008f78582860162000819565b9150509250929050565b60008060008060006060868803121562000919578081fd5b8086013567ffffffffffffffff81111562000932578182fd5b620009408882890162000833565b9550955050602086013567ffffffffffffffff8111156200095f578182fd5b6200096d8882890162000833565b93509350506040620009828882890162000819565b9150509295509295909350565b6200099a8162000d52565b82525050565b6200099a8162000d3d565b6000620009b88262000d2b565b620009c4818562000d2f565b9350620009d681856020860162000d66565b620009e18162000d99565b9093019392505050565b6000620009f88262000d2b565b62000a04818562000d38565b935062000a1681856020860162000d66565b9290920192915050565b600062000a2f60268362000d2f565b7f4f776e61626c653a206e6577206f776e657220697320746865207a65726f2061918101919091526564647265737360d01b6020820152604001919050565b600062000a7d60208362000d2f565b7f4f776e61626c653a2063616c6c6572206973206e6f7420746865206f776e657291810191909152602001919050565b600062000abc601c8362000d2f565b7f506f6f6c2063616e206e6f74206265207a65726f20616464726573730000000091810191909152602001919050565b600062000afb60138362000d2f565b723432b63832b91034b9903737ba1037bbb732b960691b91810191909152602001919050565b600062000b3060158362000d2f565b746f776e65722063616e206e6f74206265207a65726f60581b91810191909152602001919050565b600062000b6760168362000d2f565b75082e4e4c2f2e640dcdee840e6c2daca40d8cadccee8d60531b91810191909152602001919050565b6200099a8162000d4f565b600062000ba98285620009eb565b915062000bb78284620009eb565b949350505050565b60208101620007f78284620009a0565b60a0810162000bdf82886200098f565b62000bee6020830187620009a0565b818103604083015262000c028186620009ab565b9050818103606083015262000c188185620009ab565b905062000c296080830184620009a0565b9695505050505050565b6040810162000c438285620009a0565b6200089d6020830184620009a0565b6040810162000c628285620009a0565b6200089d602083018462000b90565b60208082528101620007f78162000a20565b60208082528101620007f78162000a6e565b60208082528101620007f78162000aad565b60208082528101620007f78162000aec565b60208082528101620007f78162000b21565b60208082528101620007f78162000b58565b6000808335601e193685900301811262000cf5578283fd5b8301915050803567ffffffffffffffff81111562000d1257600080fd5b6020820191506001810236038213156200087657600080fd5b5190565b90815260200190565b919050565b60006001600160a01b038216620007f7565b90565b6000620007f7826000620007f78262000d3d565b60005b8381101562000d8357818101518382015260200162000d69565b8381111562000d93576000848401525b50505050565b601f01601f191690565b62000dae8162000d3d565b811462000dba57600080fd5b5056fe60e060405260006006553480156200001657600080fd5b5060405162001ebb38038062001ebb833981810160405260a08110156200003c57600080fd5b815160208301516040808501805191519395929483019291846401000000008211156200006857600080fd5b9083019060208201858111156200007e57600080fd5b82516401000000008111828201881017156200009957600080fd5b82525081516020918201929091019080838360005b83811015620000c8578181015183820152602001620000ae565b50505050905090810190601f168015620000f65780820380516001836020036101000a031916815260200191505b50604052602001805160405193929190846401000000008211156200011a57600080fd5b9083019060208201858111156200013057600080fd5b82516401000000008111828201881017156200014b57600080fd5b82525081516020918201929091019080838360005b838110156200017a57818101518382015260200162000160565b50505050905090810190601f168015620001a85780820380516001836020036101000a031916815260200191505b5060405260200180519060200190929190505050848484848482826012838360039080519060200190620001de92919062000241565b508251620001f490600490602086019062000241565b506005805460ff90931660ff19909316929092179091556001600160601b0319606091821b811660805297811b881660c0529590951b90951660a05250620002dd98505050505050505050565b828054600181600116156101000203166002900490600052602060002090601f016020900481019282601f106200028457805160ff1916838001178555620002b4565b82800160010185558215620002b4579182015b82811115620002b457825182559160200191906001019062000297565b50620002c2929150620002c6565b5090565b5b80821115620002c25760008155600101620002c7565b60805160601c60a05160601c60c05160601c611b8f6200032c600039806109875280610a6a5280610e0f525080610de952806111f252806117f1525080611673528061169a5250611b8f6000f3fe608060405234801561001057600080fd5b506004361061018e5760003560e01c806395d89b41116100de578063b9a7b62211610097578063dd62ed3e11610071578063dd62ed3e14610616578063e748489014610644578063e78c9b3b1461064c578063f731e9be146106725761018e565b8063b9a7b622146105bc578063c04a8a10146105c4578063c634dfaa146105f05761018e565b806395d89b41146105185780639dc29fac14610520578063a457c2d7146103f7578063a9059cbb1461054c578063b16a19de14610578578063b3f1c93d146105805761018e565b8063395093511161014b5780637535d246116101255780637535d24614610477578063797743381461049b57806379ce6b8c146104d057806390f6fcf2146105105761018e565b806339509351146103f75780636bd76d241461042357806370a08231146104515761018e565b806306fdde0314610193578063095ea7b31461021057806318160ddd1461025057806323b872dd1461026a5780633118724e146102a0578063313ce567146103d9575b600080fd5b61019b610693565b6040805160208082528351818301528351919283929083019185019080838360005b838110156101d55781810151838201526020016101bd565b50505050905090810190601f1680156102025780820380516001836020036101000a031916815260200191505b509250505060405180910390f35b61023c6004803603604081101561022657600080fd5b506001600160a01b038135169060200135610729565b604080519115158252519081900360200190f35b610258610771565b60408051918252519081900360200190f35b61023c6004803603606081101561028057600080fd5b506001600160a01b03813581169160208101359091169060400135610783565b6103d7600480360360608110156102b657600080fd5b60ff82351691908101906040810160208201356401000000008111156102db57600080fd5b8201836020820111156102ed57600080fd5b8035906020019184600183028401116401000000008311171561030f57600080fd5b91908080601f016020809104026020016040519081016040528093929190818152602001838380828437600092019190915250929594936020810193503591505064010000000081111561036257600080fd5b82018360208201111561037457600080fd5b8035906020019184600183028401116401000000008311171561039657600080fd5b91908080601f0160208091040260200160405190810160405280939291908181526020018383808284376000920191909152509295506107cb945050505050565b005b6103e1610886565b6040805160ff9092168252519081900360200190f35b61023c6004803603604081101561040d57600080fd5b506001600160a01b03813516906020013561088f565b6102586004803603604081101561043957600080fd5b506001600160a01b03813581169160200135166108de565b6102586004803603602081101561046757600080fd5b50356001600160a01b031661090b565b61047f610985565b604080516001600160a01b039092168252519081900360200190f35b6104a36109a9565b6040805194855260208501939093528383019190915264ffffffffff166060830152519081900360800190f35b6104f6600480360360208110156104e657600080fd5b50356001600160a01b03166109df565b6040805164ffffffffff9092168252519081900360200190f35b610258610a01565b61019b610a07565b6103d76004803603604081101561053657600080fd5b506001600160a01b038135169060200135610a68565b61023c6004803603604081101561056257600080fd5b506001600160a01b038135169060200135610783565b61047f610de7565b61023c6004803603608081101561059657600080fd5b506001600160a01b03813581169160208101359091169060408101359060600135610e0b565b61025861117c565b6103d7600480360360408110156105da57600080fd5b506001600160a01b038135169060200135611181565b6102586004803603602081101561060657600080fd5b50356001600160a01b031661123b565b6102586004803603604081101561062c57600080fd5b506001600160a01b038135811691602001351661088f565b6104f6611246565b6102586004803603602081101561066257600080fd5b50356001600160a01b0316611253565b61067a61126e565b6040805192835260208301919091528051918290030190f35b60038054604080516020601f600260001961010060018816150201909516949094049384018190048102820181019092528281526060939092909183018282801561071f5780601f106106f45761010080835404028352916020019161071f565b820191906000526020600020905b81548152906001019060200180831161070257829003601f168201915b5050505050905090565b6040805162461bcd60e51b81526020600482015260166024820152751054141493d5905317d393d517d4d5541413d495115160521b6044820152905160009181900360640190fd5b600061077e603b54611287565b905090565b6040805162461bcd60e51b81526020600482015260166024820152751514905394d1915497d393d517d4d5541413d495115160521b6044820152905160009181900360640190fd5b60006107d56112cf565b60075490915060ff16806107ec57506107ec6112d4565b806107f8575060065481115b6108335760405162461bcd60e51b815260040180806020018281038252602e815260200180611b2c602e913960400191505060405180910390fd5b60075460ff16158015610853576007805460ff1916600117905560068290555b61085c846112da565b610865836112f1565b61086e85611304565b801561087f576007805460ff191690555b5050505050565b60055460ff1690565b6040805162461bcd60e51b815260206004820152601760248201527f414c4c4f57414e43455f4e4f545f535550504f525445440000000000000000006044820152905160009181900360640190fd5b6001600160a01b038083166000908152603a60209081526040808320938516835292905220545b92915050565b6000806109178361131a565b6001600160a01b0384166000908152603d60205260409020549091508161094357600092505050610980565b6001600160a01b0384166000908152603c602052604081205461096e90839064ffffffffff16611335565b905061097a8382611349565b93505050505b919050565b7f000000000000000000000000000000000000000000000000000000000000000081565b6000806000806000603b5490506109be611407565b6109c782611287565b603e54919790965091945064ffffffffff1692509050565b6001600160a01b03166000908152603c602052604090205464ffffffffff1690565b603b5490565b60048054604080516020601f600260001961010060018816150201909516949094049384018190048102820181019092528281526060939092909183018282801561071f5780601f106106f45761010080835404028352916020019161071f565b7f00000000000000000000000000000000000000000000000000000000000000006001600160a01b0316610a9a61140d565b6001600160a01b03161460405180604001604052806002815260200161323960f01b81525090610b485760405162461bcd60e51b81526004018080602001828103825283818151815260200191508051906020019080838360005b83811015610b0d578181015183820152602001610af5565b50505050905090810190601f168015610b3a5780820380516001836020036101000a031916815260200191505b509250505060405180910390fd5b50600080610b5584611411565b92509250506000610b64610771565b6001600160a01b0386166000908152603d6020526040812054919250908190868411610b99576000603b819055600255610c1b565b610ba3848861146a565b600281905591506000610bc1610bb8866114ac565b603b5490611349565b90506000610bd8610bd18a6114ac565b8490611349565b9050818110610bf45760006002819055603b8190559450610c18565b610c10610c00856114ac565b610c0a848461146a565b9061152a565b603b81905594505b50505b85871415610c59576001600160a01b0388166000908152603d60209081526040808320839055603c9091529020805464ffffffffff19169055610c87565b6001600160a01b0388166000908152603c60205260409020805464ffffffffff19164264ffffffffff161790555b603e805464ffffffffff19164264ffffffffff1617905586851115610d27576000610cb2868961146a565b9050610cbf898287611631565b6040805182815260208101899052808201889052606081018490526080810186905260a0810185905290516001600160a01b038b169182917fc16f4e4ca34d790de4c656c72fd015c667d688f20be64eea360618545c4c530f9181900360c00190a350610d9c565b6000610d33888761146a565b9050610d40898287611736565b6040805182815260208101899052808201889052606081018690526080810185905290516001600160a01b038b16917f44bd20a79e993bdcc7cbedf54a3b4d19fb78490124b6b90d04fe3242eea579e8919081900360a00190a2505b6040805188815290516000916001600160a01b038b16917fddf252ad1be2c89b69c2b068fc378daa952ba7f163c4a11628f55a4df523b3ef9181900360200190a35050505050505050565b7f000000000000000000000000000000000000000000000000000000000000000081565b60007f00000000000000000000000000000000000000000000000000000000000000006001600160a01b0316610e3f61140d565b6001600160a01b03161460405180604001604052806002815260200161323960f01b81525090610eb05760405162461bcd60e51b8152602060048201818152835160248401528351909283926044909101919085019080838360008315610b0d578181015183820152602001610af5565b50610eb9611a48565b846001600160a01b0316866001600160a01b031614610edd57610edd858786611778565b600080610ee987611411565b9250925050610ef6610771565b808452603b546080850152610f0b9087611855565b60028190556020840152610f1e866114ac565b6040840152610f7c610f38610f338489611855565b6114ac565b6040850151610c0a90610f4b9089611349565b610f76610f57876114ac565b6001600160a01b038d166000908152603d602052604090205490611349565b90611855565b60608401819052604080518082019091526002815261373960f01b6020820152906fffffffffffffffffffffffffffffffff1015610ffb5760405162461bcd60e51b8152602060048201818152835160248401528351909283926044909101919085019080838360008315610b0d578181015183820152602001610af5565b5060608301516001600160a01b0388166000908152603d6020908152604080832093909355603c8152919020805464ffffffffff421664ffffffffff199182168117909255603e805490911690911790558301516110919061105c906114ac565b610c0a61107686604001518961134990919063ffffffff16565b610f7661108688600001516114ac565b608089015190611349565b603b81905560808401526110b0876110a98884611855565b8551611631565b6040805187815290516001600160a01b038916916000917fddf252ad1be2c89b69c2b068fc378daa952ba7f163c4a11628f55a4df523b3ef9181900360200190a3866001600160a01b0316886001600160a01b03167fc16f4e4ca34d790de4c656c72fd015c667d688f20be64eea360618545c4c530f888585886060015189608001518a6020015160405180878152602001868152602001858152602001848152602001838152602001828152602001965050505050505060405180910390a350159695505050505050565b600281565b80603a600061118e61140d565b6001600160a01b03908116825260208083019390935260409182016000908120918716808252919093529120919091556111c661140d565b6001600160a01b03167fda919360433220e13b51e8c211e490d148e61a3bd53de8c097194e458b97f3e17f00000000000000000000000000000000000000000000000000000000000000008460405180836001600160a01b031681526020018281526020019250505060405180910390a35050565b60006109058261131a565b603e5464ffffffffff1690565b6001600160a01b03166000908152603d602052604090205490565b603b54600090819061127f81611287565b925090509091565b600080611292611407565b9050806112a3576000915050610980565b603e546000906112bb90859064ffffffffff16611335565b90506112c78282611349565b949350505050565b600290565b303b1590565b80516112ed906003906020840190611a77565b5050565b80516112ed906004906020840190611a77565b6005805460ff191660ff92909216919091179055565b6001600160a01b031660009081526020819052604090205490565b60006113428383426118af565b9392505050565b6000821580611356575081155b1561136357506000610905565b816b019d971e4fe8401e74000000198161137957fe5b0483111560405180604001604052806002815260200161068760f31b815250906113e45760405162461bcd60e51b8152602060048201818152835160248401528351909283926044909101919085019080838360008315610b0d578181015183820152602001610af5565b50506b033b2e3c9fd0803ce800000091026b019d971e4fe8401e74000000010490565b60025490565b3390565b6000806000806114208561131a565b90508061143857600080600093509350935050611463565b600061144d826114478861090b565b9061146a565b90508161145a8183611855565b90955093509150505b9193909250565b600061134283836040518060400160405280601e81526020017f536166654d6174683a207375627472616374696f6e206f766572666c6f770000815250611985565b6000633b9aca0082810290839082041460405180604001604052806002815260200161068760f31b815250906115235760405162461bcd60e51b8152602060048201818152835160248401528351909283926044909101919085019080838360008315610b0d578181015183820152602001610af5565b5092915050565b604080518082019091526002815261035360f41b6020820152600090826115925760405162461bcd60e51b8152602060048201818152835160248401528351909283926044909101919085019080838360008315610b0d578181015183820152602001610af5565b5060408051808201909152600280825261068760f31b60208301528304906b033b2e3c9fd0803ce800000082190485111561160e5760405162461bcd60e51b8152602060048201818152835160248401528351909283926044909101919085019080838360008315610b0d578181015183820152602001610af5565b5082816b033b2e3c9fd0803ce80000008602018161162857fe5b04949350505050565b6001600160a01b0383166000908152602081905260409020546116548184611855565b6001600160a01b038086166000908152602081905260409020919091557f00000000000000000000000000000000000000000000000000000000000000001615611730577f00000000000000000000000000000000000000000000000000000000000000006001600160a01b03166331873e2e8584846040518463ffffffff1660e01b815260040180846001600160a01b031681526020018381526020018281526020019350505050600060405180830381600087803b15801561171757600080fd5b505af115801561172b573d6000803e3d6000fd5b505050505b50505050565b6001600160a01b038316600090815260208181526040918290205482518084019093526002835261038360f41b91830191909152906116549082908590611985565b6040805180820182526002815261353960f01b6020808301919091526001600160a01b038087166000908152603a835284812091871681529152918220546117c1918490611985565b6001600160a01b038086166000818152603a602090815260408083208986168085529083529281902086905580517f000000000000000000000000000000000000000000000000000000000000000090951685529084018590528051949550909391927fda919360433220e13b51e8c211e490d148e61a3bd53de8c097194e458b97f3e1929081900390910190a350505050565b600082820183811015611342576040805162461bcd60e51b815260206004820152601b60248201527f536166654d6174683a206164646974696f6e206f766572666c6f770000000000604482015290519081900360640190fd5b6000806118c38364ffffffffff861661146a565b9050806118da576118d26119df565b915050611342565b60001981016000600283116118f05760006118f5565b600283035b90506301e133808704600061190a8280611349565b905060006119188284611349565b9050600060026119328461192c8a8a6119ef565b906119ef565b8161193957fe5b049050600060066119508461192c89818d8d6119ef565b8161195757fe5b04905061197581610f76848161196d8a8e6119ef565b610f766119df565b9c9b505050505050505050505050565b600081848411156119d75760405162461bcd60e51b8152602060048201818152835160248401528351909283926044909101919085019080838360008315610b0d578181015183820152602001610af5565b505050900390565b6b033b2e3c9fd0803ce800000090565b6000826119fe57506000610905565b82820282848281611a0b57fe5b04146113425760405162461bcd60e51b8152600401808060200182810382526021815260200180611b0b6021913960400191505060405180910390fd5b6040518060a0016040528060008152602001600081526020016000815260200160008152602001600081525090565b828054600181600116156101000203166002900490600052602060002090601f016020900481019282601f10611ab857805160ff1916838001178555611ae5565b82800160010185558215611ae5579182015b82811115611ae5578251825591602001919060010190611aca565b50611af1929150611af5565b5090565b5b80821115611af15760008155600101611af656fe536166654d6174683a206d756c7469706c69636174696f6e206f766572666c6f77436f6e747261637420696e7374616e63652068617320616c7265616479206265656e20696e697469616c697a6564a26469706673582212206551c91e4ddfd964a5969ed65ee991fb81096f2191c5260b51a945e62eaafb4864736f6c634300060c003360e060405260006006553480156200001657600080fd5b5060405162001a0838038062001a08833981810160405260a08110156200003c57600080fd5b815160208301516040808501805191519395929483019291846401000000008211156200006857600080fd5b9083019060208201858111156200007e57600080fd5b82516401000000008111828201881017156200009957600080fd5b82525081516020918201929091019080838360005b83811015620000c8578181015183820152602001620000ae565b50505050905090810190601f168015620000f65780820380516001836020036101000a031916815260200191505b50604052602001805160405193929190846401000000008211156200011a57600080fd5b9083019060208201858111156200013057600080fd5b82516401000000008111828201881017156200014b57600080fd5b82525081516020918201929091019080838360005b838110156200017a57818101518382015260200162000160565b50505050905090810190601f168015620001a85780820380516001836020036101000a031916815260200191505b5060405260200180519060200190929190505050848484848482826012838360039080519060200190620001de92919062000241565b508251620001f490600490602086019062000241565b506005805460ff90931660ff19909316929092179091556001600160601b0319606091821b811660805297811b881660c0529590951b90951660a05250620002dd98505050505050505050565b828054600181600116156101000203166002900490600052602060002090601f016020900481019282601f106200028457805160ff1916838001178555620002b4565b82800160010185558215620002b4579182015b82811115620002b457825182559160200191906001019062000297565b50620002c2929150620002c6565b5090565b5b80821115620002c25760008155600101620002c7565b60805160601c60a05160601c60c05160601c6116c862000340600039806106ca52806109515280610a185280610acd5280610dbc5250806106f952806109805280610a9d5280610d71528061110e525080611332528061135952506116c86000f3fe608060405234801561001057600080fd5b50600436106101425760003560e01c80637535d246116100b8578063b1bf962d1161007c578063b1bf962d146104f0578063b3f1c93d146104f8578063b9a7b62214610534578063c04a8a101461053c578063dd62ed3e14610568578063f5298aca1461059657610142565b80637535d2461461049057806395d89b41146104b4578063a457c2d714610410578063a9059cbb146104bc578063b16a19de146104e857610142565b806323b872dd1161010a57806323b872dd146102835780633118724e146102b9578063313ce567146103f257806339509351146104105780636bd76d241461043c57806370a082311461046a57610142565b806306fdde0314610147578063095ea7b3146101c45780630afbcdc91461020457806318160ddd146102435780631da24f3e1461025d575b600080fd5b61014f6105c8565b6040805160208082528351818301528351919283929083019185019080838360005b83811015610189578181015183820152602001610171565b50505050905090810190601f1680156101b65780820380516001836020036101000a031916815260200191505b509250505060405180910390f35b6101f0600480360360408110156101da57600080fd5b506001600160a01b03813516906020013561065e565b604080519115158252519081900360200190f35b61022a6004803603602081101561021a57600080fd5b50356001600160a01b03166106a6565b6040805192835260208301919091528051918290030190f35b61024b6106c3565b60408051918252519081900360200190f35b61024b6004803603602081101561027357600080fd5b50356001600160a01b0316610794565b6101f06004803603606081101561029957600080fd5b506001600160a01b038135811691602081013590911690604001356107a7565b6103f0600480360360608110156102cf57600080fd5b60ff82351691908101906040810160208201356401000000008111156102f457600080fd5b82018360208201111561030657600080fd5b8035906020019184600183028401116401000000008311171561032857600080fd5b91908080601f016020809104026020016040519081016040528093929190818152602001838380828437600092019190915250929594936020810193503591505064010000000081111561037b57600080fd5b82018360208201111561038d57600080fd5b803590602001918460018302840111640100000000831117156103af57600080fd5b91908080601f0160208091040260200160405190810160405280939291908181526020018383808284376000920191909152509295506107ef945050505050565b005b6103fa6108aa565b6040805160ff9092168252519081900360200190f35b6101f06004803603604081101561042657600080fd5b506001600160a01b0381351690602001356108b3565b61024b6004803603604081101561045257600080fd5b506001600160a01b0381358116916020013516610902565b61024b6004803603602081101561048057600080fd5b50356001600160a01b031661092f565b610498610a16565b604080516001600160a01b039092168252519081900360200190f35b61014f610a3a565b6101f0600480360360408110156104d257600080fd5b506001600160a01b0381351690602001356107a7565b610498610a9b565b61024b610abf565b6101f06004803603608081101561050e57600080fd5b506001600160a01b03813581169160208101359091169060408101359060600135610ac9565b61024b610cfb565b6103f06004803603604081101561055257600080fd5b506001600160a01b038135169060200135610d00565b61024b6004803603604081101561057e57600080fd5b506001600160a01b03813581169160200135166108b3565b6103f0600480360360608110156105ac57600080fd5b506001600160a01b038135169060208101359060400135610dba565b60038054604080516020601f60026000196101006001881615020190951694909404938401819004810282018101909252828152606093909290918301828280156106545780601f1061062957610100808354040283529160200191610654565b820191906000526020600020905b81548152906001019060200180831161063757829003601f168201915b5050505050905090565b6040805162461bcd60e51b81526020600482015260166024820152751054141493d5905317d393d517d4d5541413d495115160521b6044820152905160009181900360640190fd5b6000806106b283610f67565b6106ba610f82565b91509150915091565b600061078f7f00000000000000000000000000000000000000000000000000000000000000006001600160a01b031663386497fd7f00000000000000000000000000000000000000000000000000000000000000006040518263ffffffff1660e01b815260040180826001600160a01b0316815260200191505060206040518083038186803b15801561075557600080fd5b505afa158015610769573d6000803e3d6000fd5b505050506040513d602081101561077f57600080fd5b5051610789610f82565b90610f88565b905090565b600061079f82610f67565b90505b919050565b6040805162461bcd60e51b81526020600482015260166024820152751514905394d1915497d393d517d4d5541413d495115160521b6044820152905160009181900360640190fd5b60006107f9611046565b60075490915060ff1680610810575061081061104b565b8061081c575060065481115b6108575760405162461bcd60e51b815260040180806020018281038252602e815260200180611644602e913960400191505060405180910390fd5b60075460ff16158015610877576007805460ff1916600117905560068290555b61088084611051565b61088983611068565b6108928561107b565b80156108a3576007805460ff191690555b5050505050565b60055460ff1690565b6040805162461bcd60e51b815260206004820152601760248201527f414c4c4f57414e43455f4e4f545f535550504f525445440000000000000000006044820152905160009181900360640190fd5b6001600160a01b038083166000908152603a60209081526040808320938516835292905220545b92915050565b60008061093b83610f67565b90508061094c5760009150506107a2565b610a0f7f00000000000000000000000000000000000000000000000000000000000000006001600160a01b031663386497fd7f00000000000000000000000000000000000000000000000000000000000000006040518263ffffffff1660e01b815260040180826001600160a01b0316815260200191505060206040518083038186803b1580156109dc57600080fd5b505afa1580156109f0573d6000803e3d6000fd5b505050506040513d6020811015610a0657600080fd5b50518290610f88565b9392505050565b7f000000000000000000000000000000000000000000000000000000000000000081565b60048054604080516020601f60026000196101006001881615020190951694909404938401819004810282018101909252828152606093909290918301828280156106545780601f1061062957610100808354040283529160200191610654565b7f000000000000000000000000000000000000000000000000000000000000000081565b600061078f610f82565b60007f00000000000000000000000000000000000000000000000000000000000000006001600160a01b0316610afd611091565b6001600160a01b03161460405180604001604052806002815260200161323960f01b81525090610bab5760405162461bcd60e51b81526004018080602001828103825283818151815260200191508051906020019080838360005b83811015610b70578181015183820152602001610b58565b50505050905090810190601f168015610b9d5780820380516001836020036101000a031916815260200191505b509250505060405180910390fd5b50836001600160a01b0316856001600160a01b031614610bd057610bd0848685611095565b6000610bdb85610f67565b90506000610be98585611172565b6040805180820190915260028152611a9b60f11b602082015290915081610c515760405162461bcd60e51b8152602060048201818152835160248401528351909283926044909101919085019080838360008315610b70578181015183820152602001610b58565b50610c5c8682611279565b6040805186815290516001600160a01b038816916000917fddf252ad1be2c89b69c2b068fc378daa952ba7f163c4a11628f55a4df523b3ef9181900360200190a3856001600160a01b0316876001600160a01b03167f2f00e3cdd69a77be7ed215ec7b2a36784dd158f921fca79ac29deffa353fe6ee8787604051808381526020018281526020019250505060405180910390a3501595945050505050565b600281565b80603a6000610d0d611091565b6001600160a01b0390811682526020808301939093526040918201600090812091871680825291909352912091909155610d45611091565b6001600160a01b03167fda919360433220e13b51e8c211e490d148e61a3bd53de8c097194e458b97f3e17f00000000000000000000000000000000000000000000000000000000000000008460405180836001600160a01b031681526020018281526020019250505060405180910390a35050565b7f00000000000000000000000000000000000000000000000000000000000000006001600160a01b0316610dec611091565b6001600160a01b03161460405180604001604052806002815260200161323960f01b81525090610e5d5760405162461bcd60e51b8152602060048201818152835160248401528351909283926044909101919085019080838360008315610b70578181015183820152602001610b58565b506000610e6a8383611172565b60408051808201909152600281526106a760f31b602082015290915081610ed25760405162461bcd60e51b8152602060048201818152835160248401528351909283926044909101919085019080838360008315610b70578181015183820152602001610b58565b50610edd84826113f5565b6040805184815290516000916001600160a01b038716917fddf252ad1be2c89b69c2b068fc378daa952ba7f163c4a11628f55a4df523b3ef9181900360200190a3604080518481526020810184905281516001600160a01b038716927f49995e5dd6158cf69ad3e9777c46755a1a826a446c6416992167462dad033b2a928290030190a250505050565b6001600160a01b031660009081526020819052604090205490565b60025490565b6000821580610f95575081155b15610fa257506000610929565b816b019d971e4fe8401e740000001981610fb857fe5b0483111560405180604001604052806002815260200161068760f31b815250906110235760405162461bcd60e51b8152602060048201818152835160248401528351909283926044909101919085019080838360008315610b70578181015183820152602001610b58565b50506b033b2e3c9fd0803ce800000091026b019d971e4fe8401e74000000010490565b600290565b303b1590565b805161106490600390602084019061158e565b5050565b805161106490600490602084019061158e565b6005805460ff191660ff92909216919091179055565b3390565b6040805180820182526002815261353960f01b6020808301919091526001600160a01b038087166000908152603a835284812091871681529152918220546110de918490611493565b6001600160a01b038086166000818152603a602090815260408083208986168085529083529281902086905580517f000000000000000000000000000000000000000000000000000000000000000090951685529084018590528051949550909391927fda919360433220e13b51e8c211e490d148e61a3bd53de8c097194e458b97f3e1929081900390910190a350505050565b604080518082019091526002815261035360f41b6020820152600090826111da5760405162461bcd60e51b8152602060048201818152835160248401528351909283926044909101919085019080838360008315610b70578181015183820152602001610b58565b5060408051808201909152600280825261068760f31b60208301528304906b033b2e3c9fd0803ce80000008219048511156112565760405162461bcd60e51b8152602060048201818152835160248401528351909283926044909101919085019080838360008315610b70578181015183820152602001610b58565b5082816b033b2e3c9fd0803ce80000008602018161127057fe5b04949350505050565b6001600160a01b0382166112d4576040805162461bcd60e51b815260206004820152601f60248201527f45524332303a206d696e7420746f20746865207a65726f206164647265737300604482015290519081900360640190fd5b6112e0600083836114ed565b6002546112ed81836114f2565b6002556001600160a01b03831660009081526020819052604090205461131381846114f2565b6001600160a01b038086166000908152602081905260409020919091557f000000000000000000000000000000000000000000000000000000000000000016156113ef577f00000000000000000000000000000000000000000000000000000000000000006001600160a01b03166331873e2e8584846040518463ffffffff1660e01b815260040180846001600160a01b031681526020018381526020018281526020019350505050600060405180830381600087803b1580156113d657600080fd5b505af11580156113ea573d6000803e3d6000fd5b505050505b50505050565b6001600160a01b03821661143a5760405162461bcd60e51b81526004018080602001828103825260218152602001806116726021913960400191505060405180910390fd5b611446826000836114ed565b600254611453818361154c565b6002556001600160a01b03831660009081526020818152604091829020548251606081019093526022808452909261131392869290611622908301398391905b600081848411156114e55760405162461bcd60e51b8152602060048201818152835160248401528351909283926044909101919085019080838360008315610b70578181015183820152602001610b58565b505050900390565b505050565b600082820183811015610a0f576040805162461bcd60e51b815260206004820152601b60248201527f536166654d6174683a206164646974696f6e206f766572666c6f770000000000604482015290519081900360640190fd5b6000610a0f83836040518060400160405280601e81526020017f536166654d6174683a207375627472616374696f6e206f766572666c6f770000815250611493565b828054600181600116156101000203166002900490600052602060002090601f016020900481019282601f106115cf57805160ff19168380011785556115fc565b828001600101855582156115fc579182015b828111156115fc5782518255916020019190600101906115e1565b5061160892915061160c565b5090565b5b80821115611608576000815560010161160d56fe45524332303a206275726e20616d6f756e7420657863656564732062616c616e6365436f6e747261637420696e7374616e63652068617320616c7265616479206265656e20696e697469616c697a656445524332303a206275726e2066726f6d20746865207a65726f2061646472657373a2646970667358221220be593bac963006d1559166170edea45eaacc18db05e622ce00887f7c85a3081864736f6c634300060c0033a2646970667358221220f1f7a92fa18951a8a65de319fc988b32a6ee96d104b8a2bad6db6bb03a295b6864736f6c634300060c0033",
    "linkReferences": {}
  },
  "methodIdentifiers": {
    "initDeployment(address[],string[],address)": "b889bec4",
    "owner()": "8da5cb5b",
    "renounceOwnership()": "715018a6",
    "setOracleBorrowRates(address[],uint256[],address)": "c2d30321",
    "setOracleOwnership(address,address)": "563b1cb3",
    "transferOwnership(address)": "f2fde38b"
  },
  "id": 17
}