{
  "abi": [
    {
      "inputs": [
        {
          "internalType": "contract ILendingPoolAddressesProvider",
          "name": "addressesProvider",
          "type": "address"
        }
      ],
      "stateMutability": "nonpayable",
      "type": "constructor"
    },
    {
      "inputs": [],
      "name": "ADDRESSES_PROVIDER",
      "outputs": [
        {
          "internalType": "contract ILendingPoolAddressesProvider",
          "name": "",
          "type": "address"
        }
      ],
      "stateMutability": "view",
      "type": "function"
    },
    {
      "inputs": [],
      "name": "getAllATokens",
      "outputs": [
        {
          "components": [
            {
              "internalType": "string",
              "name": "symbol",
              "type": "string"
            },
            {
              "internalType": "address",
              "name": "tokenAddress",
              "type": "address"
            }
          ],
          "internalType": "struct AgaveProtocolDataProvider.TokenData[]",
          "name": "",
          "type": "tuple[]"
        }
      ],
      "stateMutability": "view",
      "type": "function"
    },
    {
      "inputs": [],
      "name": "getAllReservesTokens",
      "outputs": [
        {
          "components": [
            {
              "internalType": "string",
              "name": "symbol",
              "type": "string"
            },
            {
              "internalType": "address",
              "name": "tokenAddress",
              "type": "address"
            }
          ],
          "internalType": "struct AgaveProtocolDataProvider.TokenData[]",
          "name": "",
          "type": "tuple[]"
        }
      ],
      "stateMutability": "view",
      "type": "function"
    },
    {
      "inputs": [
        {
          "internalType": "address",
          "name": "asset",
          "type": "address"
        }
      ],
      "name": "getReserveConfigurationData",
      "outputs": [
        {
          "internalType": "uint256",
          "name": "decimals",
          "type": "uint256"
        },
        {
          "internalType": "uint256",
          "name": "ltv",
          "type": "uint256"
        },
        {
          "internalType": "uint256",
          "name": "liquidationThreshold",
          "type": "uint256"
        },
        {
          "internalType": "uint256",
          "name": "liquidationBonus",
          "type": "uint256"
        },
        {
          "internalType": "uint256",
          "name": "reserveFactor",
          "type": "uint256"
        },
        {
          "internalType": "bool",
          "name": "usageAsCollateralEnabled",
          "type": "bool"
        },
        {
          "internalType": "bool",
          "name": "borrowingEnabled",
          "type": "bool"
        },
        {
          "internalType": "bool",
          "name": "stableBorrowRateEnabled",
          "type": "bool"
        },
        {
          "internalType": "bool",
          "name": "isActive",
          "type": "bool"
        },
        {
          "internalType": "bool",
          "name": "isFrozen",
          "type": "bool"
        }
      ],
      "stateMutability": "view",
      "type": "function"
    },
    {
      "inputs": [
        {
          "internalType": "address",
          "name": "asset",
          "type": "address"
        }
      ],
      "name": "getReserveData",
      "outputs": [
        {
          "internalType": "uint256",
          "name": "availableLiquidity",
          "type": "uint256"
        },
        {
          "internalType": "uint256",
          "name": "totalStableDebt",
          "type": "uint256"
        },
        {
          "internalType": "uint256",
          "name": "totalVariableDebt",
          "type": "uint256"
        },
        {
          "internalType": "uint256",
          "name": "liquidityRate",
          "type": "uint256"
        },
        {
          "internalType": "uint256",
          "name": "variableBorrowRate",
          "type": "uint256"
        },
        {
          "internalType": "uint256",
          "name": "stableBorrowRate",
          "type": "uint256"
        },
        {
          "internalType": "uint256",
          "name": "averageStableBorrowRate",
          "type": "uint256"
        },
        {
          "internalType": "uint256",
          "name": "liquidityIndex",
          "type": "uint256"
        },
        {
          "internalType": "uint256",
          "name": "variableBorrowIndex",
          "type": "uint256"
        },
        {
          "internalType": "uint40",
          "name": "lastUpdateTimestamp",
          "type": "uint40"
        }
      ],
      "stateMutability": "view",
      "type": "function"
    },
    {
      "inputs": [
        {
          "internalType": "address",
          "name": "asset",
          "type": "address"
        }
      ],
      "name": "getReserveLimits",
      "outputs": [
        {
          "components": [
            {
              "internalType": "uint256",
              "name": "depositLimit",
              "type": "uint256"
            },
            {
              "internalType": "uint256",
              "name": "borrowLimit",
              "type": "uint256"
            },
            {
              "internalType": "uint256",
              "name": "collateralUsageLimit",
              "type": "uint256"
            }
          ],
          "internalType": "struct DataTypes.ReserveLimits",
          "name": "limits",
          "type": "tuple"
        }
      ],
      "stateMutability": "view",
      "type": "function"
    },
    {
      "inputs": [
        {
          "internalType": "address",
          "name": "asset",
          "type": "address"
        }
      ],
      "name": "getReserveTokensAddresses",
      "outputs": [
        {
          "internalType": "address",
          "name": "aTokenAddress",
          "type": "address"
        },
        {
          "internalType": "address",
          "name": "stableDebtTokenAddress",
          "type": "address"
        },
        {
          "internalType": "address",
          "name": "variableDebtTokenAddress",
          "type": "address"
        }
      ],
      "stateMutability": "view",
      "type": "function"
    },
    {
      "inputs": [
        {
          "internalType": "address",
          "name": "asset",
          "type": "address"
        },
        {
          "internalType": "address",
          "name": "user",
          "type": "address"
        }
      ],
      "name": "getUserReserveData",
      "outputs": [
        {
          "internalType": "uint256",
          "name": "currentATokenBalance",
          "type": "uint256"
        },
        {
          "internalType": "uint256",
          "name": "currentStableDebt",
          "type": "uint256"
        },
        {
          "internalType": "uint256",
          "name": "currentVariableDebt",
          "type": "uint256"
        },
        {
          "internalType": "uint256",
          "name": "principalStableDebt",
          "type": "uint256"
        },
        {
          "internalType": "uint256",
          "name": "scaledVariableDebt",
          "type": "uint256"
        },
        {
          "internalType": "uint256",
          "name": "stableBorrowRate",
          "type": "uint256"
        },
        {
          "internalType": "uint256",
          "name": "liquidityRate",
          "type": "uint256"
        },
        {
          "internalType": "uint40",
          "name": "stableRateLastUpdated",
          "type": "uint40"
        },
        {
          "internalType": "bool",
          "name": "usageAsCollateralEnabled",
          "type": "bool"
        }
      ],
      "stateMutability": "view",
      "type": "function"
    }
  ],
  "bytecode": {
    "object": "0x60a06040523480156200001157600080fd5b506040516200208b3803806200208b83398101604081905262000034916200005d565b60601b6001600160601b031916608052620000c4565b80516200005781620000aa565b92915050565b6000602082840312156200006f578081fd5b6200007d838284016200004a565b9392505050565b600062000057826200009e565b6000620000578262000084565b6001600160a01b031690565b620000b58162000091565b8114620000c157600080fd5b50565b60805160601c611f816200010a6000398061018652806101c052806102d752806107d25280610b565280610caa5280610dc0528061113e528061126e5250611f816000f3fe608060405234801561001057600080fd5b50600436106100885760003560e01c8063845e79bc1161005b578063845e79bc14610125578063b316ff8914610145578063d2493b6c1461015a578063f561ae411461017c57610088565b80630542975c1461008d57806328dd2d01146100ab57806335ea6a75146100d35780633e150141146100fc575b600080fd5b610095610184565b6040516100a29190611c41565b60405180910390f35b6100be6100b9366004611970565b6101a8565b6040516100a299989796959493929190611d89565b6100e66100e136600461192f565b6107b9565b6040516100a29a99989796959493929190611d03565b61010f61010a36600461192f565b610b3d565b6040516100a29a99989796959493929190611c6e565b61013861013336600461192f565b610ca0565b6040516100a29190611c60565b61014d610dba565b6040516100a29190611c30565b61016d61016836600461192f565b61112f565b6040516100a293929190611c08565b61014d611268565b7f000000000000000000000000000000000000000000000000000000000000000081565b60008060008060008060008060006101be6115f7565b7f00000000000000000000000000000000000000000000000000000000000000006001600160a01b0316630261bf8b6040518163ffffffff1660e01b815260040160206040518083038186803b15801561021757600080fd5b505afa15801561022b573d6000803e3d6000fd5b505050506040513d601f19601f8201168201806040525081019061024f9190611953565b6001600160a01b03166335ea6a758d6040518263ffffffff1660e01b815260040161027a9190611bfa565b6101806040518083038186803b15801561029357600080fd5b505afa1580156102a7573d6000803e3d6000fd5b505050506040513d601f19601f820116820180604052508101906102cb9190611a37565b90506102d5611662565b7f00000000000000000000000000000000000000000000000000000000000000006001600160a01b0316630261bf8b6040518163ffffffff1660e01b815260040160206040518083038186803b15801561032e57600080fd5b505afa158015610342573d6000803e3d6000fd5b505050506040513d601f19601f820116820180604052508101906103669190611953565b6001600160a01b0316634417a5838d6040518263ffffffff1660e01b81526004016103919190611bfa565b60206040518083038186803b1580156103a957600080fd5b505afa1580156103bd573d6000803e3d6000fd5b505050506040513d601f19601f820116820180604052508101906103e19190611a1a565b60e08301516040516370a0823160e01b81529192506001600160a01b0316906370a0823190610414908f90600401611bfa565b60206040518083038186803b15801561042c57600080fd5b505afa158015610440573d6000803e3d6000fd5b505050506040513d601f19601f820116820180604052508101906104649190611a72565b6101208301516040516370a0823160e01b8152919c506001600160a01b0316906370a0823190610498908f90600401611bfa565b60206040518083038186803b1580156104b057600080fd5b505afa1580156104c4573d6000803e3d6000fd5b505050506040513d601f19601f820116820180604052508101906104e89190611a72565b6101008301516040516370a0823160e01b8152919a506001600160a01b0316906370a082319061051c908f90600401611bfa565b60206040518083038186803b15801561053457600080fd5b505afa158015610548573d6000803e3d6000fd5b505050506040513d601f19601f8201168201806040525081019061056c9190611a72565b61010083015160405163631a6fd560e11b8152919b506001600160a01b03169063c634dfaa906105a0908f90600401611bfa565b60206040518083038186803b1580156105b857600080fd5b505afa1580156105cc573d6000803e3d6000fd5b505050506040513d601f19601f820116820180604052508101906105f09190611a72565b610120830151604051630ed1279f60e11b81529199506001600160a01b031690631da24f3e90610624908f90600401611bfa565b60206040518083038186803b15801561063c57600080fd5b505afa158015610650573d6000803e3d6000fd5b505050506040513d601f19601f820116820180604052508101906106749190611a72565b965081606001516001600160801b031694508161010001516001600160a01b031663e78c9b3b8d6040518263ffffffff1660e01b81526004016106b79190611bfa565b60206040518083038186803b1580156106cf57600080fd5b505afa1580156106e3573d6000803e3d6000fd5b505050506040513d601f19601f820116820180604052508101906107079190611a72565b610100830151604051631e739ae360e21b81529197506001600160a01b0316906379ce6b8c9061073b908f90600401611bfa565b60206040518083038186803b15801561075357600080fd5b505afa158015610767573d6000803e3d6000fd5b505050506040513d601f19601f8201168201806040525081019061078b9190611a8f565b93506107a882610160015160ff168261152f90919063ffffffff16565b925050509295985092959850929598565b6000806000806000806000806000806107d06115f7565b7f00000000000000000000000000000000000000000000000000000000000000006001600160a01b0316630261bf8b6040518163ffffffff1660e01b815260040160206040518083038186803b15801561082957600080fd5b505afa15801561083d573d6000803e3d6000fd5b505050506040513d601f19601f820116820180604052508101906108619190611953565b6001600160a01b03166335ea6a758d6040518263ffffffff1660e01b815260040161088c9190611bfa565b6101806040518083038186803b1580156108a557600080fd5b505afa1580156108b9573d6000803e3d6000fd5b505050506040513d601f19601f820116820180604052508101906108dd9190611a37565b60e08101516040516370a0823160e01b81529192506001600160a01b038e16916370a082319161090f91600401611bfa565b60206040518083038186803b15801561092757600080fd5b505afa15801561093b573d6000803e3d6000fd5b505050506040513d601f19601f8201168201806040525081019061095f9190611a72565b8161010001516001600160a01b03166318160ddd6040518163ffffffff1660e01b815260040160206040518083038186803b15801561099d57600080fd5b505afa1580156109b1573d6000803e3d6000fd5b505050506040513d601f19601f820116820180604052508101906109d59190611a72565b8261012001516001600160a01b03166318160ddd6040518163ffffffff1660e01b815260040160206040518083038186803b158015610a1357600080fd5b505afa158015610a27573d6000803e3d6000fd5b505050506040513d601f19601f82011682018060405250810190610a4b9190611a72565b836060015184608001518560a001518661010001516001600160a01b03166390f6fcf26040518163ffffffff1660e01b815260040160206040518083038186803b158015610a9857600080fd5b505afa158015610aac573d6000803e3d6000fd5b505050506040513d601f19601f82011682018060405250810190610ad09190611a72565b876020015188604001518960c00151866001600160801b03169650856001600160801b03169550846001600160801b03169450826001600160801b03169250816001600160801b031691509a509a509a509a509a509a509a509a509a509a50509193959799509193959799565b600080600080600080600080600080610b54611662565b7f00000000000000000000000000000000000000000000000000000000000000006001600160a01b0316630261bf8b6040518163ffffffff1660e01b815260040160206040518083038186803b158015610bad57600080fd5b505afa158015610bc1573d6000803e3d6000fd5b505050506040513d601f19601f82011682018060405250810190610be59190611953565b6001600160a01b031663c44b11f78d6040518263ffffffff1660e01b8152600401610c109190611bfa565b60206040518083038186803b158015610c2857600080fd5b505afa158015610c3c573d6000803e3d6000fd5b505050506040513d601f19601f82011682018060405250810190610c609190611a1a565b9050610c6b81611590565b909e50929c50909a5098509650610c81816115bb565b9d9f9c9e509a9c999b989a8d15159a9099909850919650945092505050565b610ca8611675565b7f00000000000000000000000000000000000000000000000000000000000000006001600160a01b0316630261bf8b6040518163ffffffff1660e01b815260040160206040518083038186803b158015610d0157600080fd5b505afa158015610d15573d6000803e3d6000fd5b505050506040513d601f19601f82011682018060405250810190610d399190611953565b6001600160a01b031663845e79bc836040518263ffffffff1660e01b8152600401610d649190611bfa565b60606040518083038186803b158015610d7c57600080fd5b505afa158015610d90573d6000803e3d6000fd5b505050506040513d601f19601f82011682018060405250810190610db49190611a55565b92915050565b606060007f00000000000000000000000000000000000000000000000000000000000000006001600160a01b0316630261bf8b6040518163ffffffff1660e01b815260040160206040518083038186803b158015610e1757600080fd5b505afa158015610e2b573d6000803e3d6000fd5b505050506040513d601f19601f82011682018060405250810190610e4f9190611953565b90506060816001600160a01b031663d1946dbc6040518163ffffffff1660e01b815260040160006040518083038186803b158015610e8c57600080fd5b505afa158015610ea0573d6000803e3d6000fd5b505050506040513d6000823e601f3d908101601f19168201604052610ec891908101906119a8565b90506060815167ffffffffffffffff81118015610ee457600080fd5b50604051908082528060200260200182016040528015610f1e57816020015b610f0b611696565b815260200190600190039081610f035790505b50905060005b825181101561112757739f8f72aa9304c8b593d555f12ef6589cc3a579a26001600160a01b0316838281518110610f5757fe5b60200260200101516001600160a01b03161415610fd65760405180604001604052806040518060400160405280600381526020016226a5a960e91b8152508152602001848381518110610fa657fe5b60200260200101516001600160a01b0316815250828281518110610fc657fe5b602002602001018190525061111f565b73eeeeeeeeeeeeeeeeeeeeeeeeeeeeeeeeeeeeeeee6001600160a01b031683828151811061100057fe5b60200260200101516001600160a01b0316141561104f5760405180604001604052806040518060400160405280600381526020016208aa8960eb1b8152508152602001848381518110610fa657fe5b604051806040016040528084838151811061106657fe5b60200260200101516001600160a01b03166395d89b416040518163ffffffff1660e01b815260040160006040518083038186803b1580156110a657600080fd5b505afa1580156110ba573d6000803e3d6000fd5b505050506040513d6000823e601f3d908101601f191682016040526110e291908101906119e5565b81526020018483815181106110f357fe5b60200260200101516001600160a01b031681525082828151811061111357fe5b60200260200101819052505b600101610f24565b509250505090565b600080600061113c6115f7565b7f00000000000000000000000000000000000000000000000000000000000000006001600160a01b0316630261bf8b6040518163ffffffff1660e01b815260040160206040518083038186803b15801561119557600080fd5b505afa1580156111a9573d6000803e3d6000fd5b505050506040513d601f19601f820116820180604052508101906111cd9190611953565b6001600160a01b03166335ea6a75866040518263ffffffff1660e01b81526004016111f89190611bfa565b6101806040518083038186803b15801561121157600080fd5b505afa158015611225573d6000803e3d6000fd5b505050506040513d601f19601f820116820180604052508101906112499190611a37565b60e0810151610100820151610120909201519097919650945092505050565b606060007f00000000000000000000000000000000000000000000000000000000000000006001600160a01b0316630261bf8b6040518163ffffffff1660e01b815260040160206040518083038186803b1580156112c557600080fd5b505afa1580156112d9573d6000803e3d6000fd5b505050506040513d601f19601f820116820180604052508101906112fd9190611953565b90506060816001600160a01b031663d1946dbc6040518163ffffffff1660e01b815260040160006040518083038186803b15801561133a57600080fd5b505afa15801561134e573d6000803e3d6000fd5b505050506040513d6000823e601f3d908101601f1916820160405261137691908101906119a8565b90506060815167ffffffffffffffff8111801561139257600080fd5b506040519080825280602002602001820160405280156113cc57816020015b6113b9611696565b8152602001906001900390816113b15790505b50905060005b8251811015611127576113e36115f7565b846001600160a01b03166335ea6a758584815181106113fe57fe5b60200260200101516040518263ffffffff1660e01b81526004016114229190611bfa565b6101806040518083038186803b15801561143b57600080fd5b505afa15801561144f573d6000803e3d6000fd5b505050506040513d601f19601f820116820180604052508101906114739190611a37565b905060405180604001604052808260e001516001600160a01b03166395d89b416040518163ffffffff1660e01b815260040160006040518083038186803b1580156114bd57600080fd5b505afa1580156114d1573d6000803e3d6000fd5b505050506040513d6000823e601f3d908101601f191682016040526114f991908101906119e5565b81526020018260e001516001600160a01b031681525083838151811061151b57fe5b6020908102919091010152506001016113d2565b60006080821060405180604001604052806002815260200161373760f01b815250906115775760405162461bcd60e51b815260040161156e9190611c4f565b60405180910390fd5b5050815160016002830281019190911c16151592915050565b5161ffff80821692601083901c821692602081901c831692603082901c60ff169260409290921c1690565b51670100000000000000811615159167020000000000000082161515916704000000000000008116151591670800000000000000909116151590565b60405180610180016040528061160b611662565b815260006020820181905260408201819052606082018190526080820181905260a0820181905260c0820181905260e082018190526101008201819052610120820181905261014082018190526101609091015290565b6040518060200160405280600081525090565b60405180606001604052806000815260200160008152602001600081525090565b60408051808201909152606081526000602082015290565b8035610db481611f10565b8051610db481611f10565b600082601f8301126116d4578081fd5b81516116e76116e282611e36565b611e0f565b9150818183526020840193506020830190508385602084028601111561170c57600080fd5b60005b838110156117365761172187836116b9565b8352602092830192919091019060010161170f565b5050505092915050565b600082601f830112611750578081fd5b815161175e6116e282611e56565b9150808252602083016020830185838301111561177a57600080fd5b611785838284611ed6565b50505092915050565b60006020828403121561179f578081fd5b6117a96020611e0f565b905060006117b7848461190e565b9082015292915050565b600061018082840312156117d3578081fd5b6117de610180611e0f565b905060006117ec848461178e565b9082015260206117fe84848301611903565b90820152604061181084848301611903565b90820152606061182284848301611903565b90820152608061183484848301611903565b9082015260a061184684848301611903565b9082015260c061185884848301611919565b9082015260e061186a848483016116b9565b9082015261010061187d848483016116b9565b90820152610120611890848483016116b9565b908201526101406118a3848483016116b9565b908201526101606117b784848301611924565b6000606082840312156118c7578081fd5b6118d16060611e0f565b905060006118df848461190e565b9082015260206118f18484830161190e565b9082015260406117b78484830161190e565b8051610db481611f27565b8051610db481611f30565b8051610db481611f39565b8051610db481611f42565b600060208284031215611940578081fd5b61194c838284016116ae565b9392505050565b600060208284031215611964578081fd5b61194c838284016116b9565b60008060408385031215611982578081fd5b61198e848285016116ae565b9150602061199e858286016116ae565b9150509250929050565b6000602082840312156119b9578081fd5b8082015167ffffffffffffffff8111156119d1578182fd5b6119dd848285016116c4565b949350505050565b6000602082840312156119f6578081fd5b8082015167ffffffffffffffff811115611a0e578182fd5b6119dd84828501611740565b600060208284031215611a2b578081fd5b61194c8382840161178e565b60006101808284031215611a49578081fd5b61194c838284016117c1565b600060608284031215611a66578081fd5b61194c838284016118b6565b600060208284031215611a83578081fd5b61194c8382840161190e565b600060208284031215611aa0578081fd5b61194c83828401611919565b600061194c8383611bb3565b611ac181611e90565b82525050565b6000611ad282611e83565b611adc8185611e87565b935083602082028501611aee85611e7d565b845b84811015611b265783830388528151611b098482611aac565b935050611b1582611e7d565b602098909801979150600101611af0565b50909695505050505050565b611ac181611e9b565b611ac181611ecb565b6000611b4f82611e83565b611b598185611e87565b9350611b69818560208601611ed6565b611b7281611f06565b9093019392505050565b8051611b888382611be8565b506020810151611b9b6020840182611be8565b506040810151611bae6040840182611be8565b505050565b8051604080845260009190840190611bcb8282611b44565b9150506020830151611be06020860182611ab8565b509392505050565b611ac181611eb8565b611ac181611ebb565b60208101610db48284611ab8565b60608101611c168286611ab8565b611c236020830185611ab8565b6119dd6040830184611ab8565b6020808252810161194c8184611ac7565b60208101610db48284611b3b565b6020808252810161194c8184611b44565b60608101610db48284611b7c565b6101408101611c7d828d611be8565b611c8a602083018c611be8565b611c97604083018b611be8565b611ca4606083018a611be8565b611cb16080830189611be8565b611cbe60a0830188611b32565b611ccb60c0830187611b32565b611cd860e0830186611b32565b611ce6610100830185611b32565b611cf4610120830184611b32565b9b9a5050505050505050505050565b6101408101611d12828d611be8565b611d1f602083018c611be8565b611d2c604083018b611be8565b611d39606083018a611be8565b611d466080830189611be8565b611d5360a0830188611be8565b611d6060c0830187611be8565b611d6d60e0830186611be8565b611d7b610100830185611be8565b611cf4610120830184611bf1565b6101208101611d98828c611be8565b611da5602083018b611be8565b611db2604083018a611be8565b611dbf6060830189611be8565b611dcc6080830188611be8565b611dd960a0830187611be8565b611de660c0830186611be8565b611df360e0830185611bf1565b611e01610100830184611b32565b9a9950505050505050505050565b60405181810167ffffffffffffffff81118282101715611e2e57600080fd5b604052919050565b600067ffffffffffffffff821115611e4c578081fd5b5060209081020190565b600067ffffffffffffffff821115611e6c578081fd5b506020601f91909101601f19160190565b60200190565b5190565b90815260200190565b6000610db482611eac565b151590565b6001600160801b031690565b6001600160a01b031690565b90565b64ffffffffff1690565b60ff1690565b6000610db482611e90565b60005b83811015611ef1578181015183820152602001611ed9565b83811115611f00576000848401525b50505050565b601f01601f191690565b611f1981611e90565b8114611f2457600080fd5b50565b611f1981611ea0565b611f1981611eb8565b611f1981611ebb565b611f1981611ec556fea264697066735822122079223e4a3b898c2fb8769dc64b278c45bd99369b92fb9adba9520640dfb5bc2e64736f6c634300060c0033",
    "linkReferences": {}
  },
  "methodIdentifiers": {
    "ADDRESSES_PROVIDER()": "0542975c",
    "getAllATokens()": "f561ae41",
    "getAllReservesTokens()": "b316ff89",
    "getReserveConfigurationData(address)": "3e150141",
    "getReserveData(address)": "35ea6a75",
    "getReserveLimits(address)": "845e79bc",
    "getReserveTokensAddresses(address)": "d2493b6c",
    "getUserReserveData(address,address)": "28dd2d01"
  },
  "id": 34
}