{
  "abi": [
    {
      "inputs": [
        {
          "internalType": "contract ILendingPool",
          "name": "pool",
          "type": "address"
        },
        {
          "internalType": "address",
          "name": "underlyingAssetAddress",
          "type": "address"
        },
        {
          "internalType": "address",
          "name": "reserveTreasuryAddress",
          "type": "address"
        },
        {
          "internalType": "string",
          "name": "tokenName",
          "type": "string"
        },
        {
          "internalType": "string",
          "name": "tokenSymbol",
          "type": "string"
        },
        {
          "internalType": "address",
          "name": "incentivesController",
          "type": "address"
        }
      ],
      "stateMutability": "nonpayable",
      "type": "constructor"
    },
    {
      "anonymous": false,
      "inputs": [
        {
          "indexed": true,
          "internalType": "address",
          "name": "owner",
          "type": "address"
        },
        {
          "indexed": true,
          "internalType": "address",
          "name": "spender",
          "type": "address"
        },
        {
          "indexed": false,
          "internalType": "uint256",
          "name": "value",
          "type": "uint256"
        }
      ],
      "name": "Approval",
      "type": "event"
    },
    {
      "anonymous": false,
      "inputs": [
        {
          "indexed": true,
          "internalType": "address",
          "name": "from",
          "type": "address"
        },
        {
          "indexed": true,
          "internalType": "address",
          "name": "to",
          "type": "address"
        },
        {
          "indexed": false,
          "internalType": "uint256",
          "name": "value",
          "type": "uint256"
        },
        {
          "indexed": false,
          "internalType": "uint256",
          "name": "index",
          "type": "uint256"
        }
      ],
      "name": "BalanceTransfer",
      "type": "event"
    },
    {
      "anonymous": false,
      "inputs": [
        {
          "indexed": true,
          "internalType": "address",
          "name": "from",
          "type": "address"
        },
        {
          "indexed": true,
          "internalType": "address",
          "name": "target",
          "type": "address"
        },
        {
          "indexed": false,
          "internalType": "uint256",
          "name": "value",
          "type": "uint256"
        },
        {
          "indexed": false,
          "internalType": "uint256",
          "name": "index",
          "type": "uint256"
        }
      ],
      "name": "Burn",
      "type": "event"
    },
    {
      "anonymous": false,
      "inputs": [
        {
          "indexed": true,
          "internalType": "address",
          "name": "from",
          "type": "address"
        },
        {
          "indexed": false,
          "internalType": "uint256",
          "name": "value",
          "type": "uint256"
        },
        {
          "indexed": false,
          "internalType": "uint256",
          "name": "index",
          "type": "uint256"
        }
      ],
      "name": "Mint",
      "type": "event"
    },
    {
      "anonymous": false,
      "inputs": [
        {
          "indexed": true,
          "internalType": "address",
          "name": "from",
          "type": "address"
        },
        {
          "indexed": true,
          "internalType": "address",
          "name": "to",
          "type": "address"
        },
        {
          "indexed": false,
          "internalType": "uint256",
          "name": "value",
          "type": "uint256"
        }
      ],
      "name": "Transfer",
      "type": "event"
    },
    {
      "inputs": [],
      "name": "ATOKEN_REVISION",
      "outputs": [
        {
          "internalType": "uint256",
          "name": "",
          "type": "uint256"
        }
      ],
      "stateMutability": "view",
      "type": "function"
    },
    {
      "inputs": [],
      "name": "DOMAIN_SEPARATOR",
      "outputs": [
        {
          "internalType": "bytes32",
          "name": "",
          "type": "bytes32"
        }
      ],
      "stateMutability": "view",
      "type": "function"
    },
    {
      "inputs": [],
      "name": "EIP712_REVISION",
      "outputs": [
        {
          "internalType": "bytes",
          "name": "",
          "type": "bytes"
        }
      ],
      "stateMutability": "view",
      "type": "function"
    },
    {
      "inputs": [],
      "name": "PERMIT_TYPEHASH",
      "outputs": [
        {
          "internalType": "bytes32",
          "name": "",
          "type": "bytes32"
        }
      ],
      "stateMutability": "view",
      "type": "function"
    },
    {
      "inputs": [],
      "name": "POOL",
      "outputs": [
        {
          "internalType": "contract ILendingPool",
          "name": "",
          "type": "address"
        }
      ],
      "stateMutability": "view",
      "type": "function"
    },
    {
      "inputs": [],
      "name": "RESERVE_TREASURY_ADDRESS",
      "outputs": [
        {
          "internalType": "address",
          "name": "",
          "type": "address"
        }
      ],
      "stateMutability": "view",
      "type": "function"
    },
    {
      "inputs": [],
      "name": "UINT_MAX_VALUE",
      "outputs": [
        {
          "internalType": "uint256",
          "name": "",
          "type": "uint256"
        }
      ],
      "stateMutability": "view",
      "type": "function"
    },
    {
      "inputs": [],
      "name": "UNDERLYING_ASSET_ADDRESS",
      "outputs": [
        {
          "internalType": "address",
          "name": "",
          "type": "address"
        }
      ],
      "stateMutability": "view",
      "type": "function"
    },
    {
      "inputs": [
        {
          "internalType": "address",
          "name": "",
          "type": "address"
        }
      ],
      "name": "_nonces",
      "outputs": [
        {
          "internalType": "uint256",
          "name": "",
          "type": "uint256"
        }
      ],
      "stateMutability": "view",
      "type": "function"
    },
    {
      "inputs": [
        {
          "internalType": "address",
          "name": "owner",
          "type": "address"
        },
        {
          "internalType": "address",
          "name": "spender",
          "type": "address"
        }
      ],
      "name": "allowance",
      "outputs": [
        {
          "internalType": "uint256",
          "name": "",
          "type": "uint256"
        }
      ],
      "stateMutability": "view",
      "type": "function"
    },
    {
      "inputs": [
        {
          "internalType": "address",
          "name": "spender",
          "type": "address"
        },
        {
          "internalType": "uint256",
          "name": "amount",
          "type": "uint256"
        }
      ],
      "name": "approve",
      "outputs": [
        {
          "internalType": "bool",
          "name": "",
          "type": "bool"
        }
      ],
      "stateMutability": "nonpayable",
      "type": "function"
    },
    {
      "inputs": [
        {
          "internalType": "address",
          "name": "user",
          "type": "address"
        }
      ],
      "name": "balanceOf",
      "outputs": [
        {
          "internalType": "uint256",
          "name": "",
          "type": "uint256"
        }
      ],
      "stateMutability": "view",
      "type": "function"
    },
    {
      "inputs": [
        {
          "internalType": "address",
          "name": "user",
          "type": "address"
        },
        {
          "internalType": "address",
          "name": "receiverOfUnderlying",
          "type": "address"
        },
        {
          "internalType": "uint256",
          "name": "amount",
          "type": "uint256"
        },
        {
          "internalType": "uint256",
          "name": "index",
          "type": "uint256"
        }
      ],
      "name": "burn",
      "outputs": [],
      "stateMutability": "nonpayable",
      "type": "function"
    },
    {
      "inputs": [],
      "name": "decimals",
      "outputs": [
        {
          "internalType": "uint8",
          "name": "",
          "type": "uint8"
        }
      ],
      "stateMutability": "view",
      "type": "function"
    },
    {
      "inputs": [
        {
          "internalType": "address",
          "name": "spender",
          "type": "address"
        },
        {
          "internalType": "uint256",
          "name": "subtractedValue",
          "type": "uint256"
        }
      ],
      "name": "decreaseAllowance",
      "outputs": [
        {
          "internalType": "bool",
          "name": "",
          "type": "bool"
        }
      ],
      "stateMutability": "nonpayable",
      "type": "function"
    },
    {
      "inputs": [
        {
          "internalType": "address",
          "name": "user",
          "type": "address"
        }
      ],
      "name": "getScaledUserBalanceAndSupply",
      "outputs": [
        {
          "internalType": "uint256",
          "name": "",
          "type": "uint256"
        },
        {
          "internalType": "uint256",
          "name": "",
          "type": "uint256"
        }
      ],
      "stateMutability": "view",
      "type": "function"
    },
    {
      "inputs": [
        {
          "internalType": "address",
          "name": "spender",
          "type": "address"
        },
        {
          "internalType": "uint256",
          "name": "addedValue",
          "type": "uint256"
        }
      ],
      "name": "increaseAllowance",
      "outputs": [
        {
          "internalType": "bool",
          "name": "",
          "type": "bool"
        }
      ],
      "stateMutability": "nonpayable",
      "type": "function"
    },
    {
      "inputs": [
        {
          "internalType": "uint8",
          "name": "underlyingAssetDecimals",
          "type": "uint8"
        },
        {
          "internalType": "string",
          "name": "tokenName",
          "type": "string"
        },
        {
          "internalType": "string",
          "name": "tokenSymbol",
          "type": "string"
        }
      ],
      "name": "initialize",
      "outputs": [],
      "stateMutability": "nonpayable",
      "type": "function"
    },
    {
      "inputs": [
        {
          "internalType": "address",
          "name": "user",
          "type": "address"
        },
        {
          "internalType": "uint256",
          "name": "amount",
          "type": "uint256"
        },
        {
          "internalType": "uint256",
          "name": "index",
          "type": "uint256"
        }
      ],
      "name": "mint",
      "outputs": [
        {
          "internalType": "bool",
          "name": "",
          "type": "bool"
        }
      ],
      "stateMutability": "nonpayable",
      "type": "function"
    },
    {
      "inputs": [
        {
          "internalType": "uint256",
          "name": "amount",
          "type": "uint256"
        },
        {
          "internalType": "uint256",
          "name": "index",
          "type": "uint256"
        }
      ],
      "name": "mintToTreasury",
      "outputs": [],
      "stateMutability": "nonpayable",
      "type": "function"
    },
    {
      "inputs": [],
      "name": "name",
      "outputs": [
        {
          "internalType": "string",
          "name": "",
          "type": "string"
        }
      ],
      "stateMutability": "view",
      "type": "function"
    },
    {
      "inputs": [
        {
          "internalType": "address",
          "name": "owner",
          "type": "address"
        },
        {
          "internalType": "address",
          "name": "spender",
          "type": "address"
        },
        {
          "internalType": "uint256",
          "name": "value",
          "type": "uint256"
        },
        {
          "internalType": "uint256",
          "name": "deadline",
          "type": "uint256"
        },
        {
          "internalType": "uint8",
          "name": "v",
          "type": "uint8"
        },
        {
          "internalType": "bytes32",
          "name": "r",
          "type": "bytes32"
        },
        {
          "internalType": "bytes32",
          "name": "s",
          "type": "bytes32"
        }
      ],
      "name": "permit",
      "outputs": [],
      "stateMutability": "nonpayable",
      "type": "function"
    },
    {
      "inputs": [
        {
          "internalType": "address",
          "name": "user",
          "type": "address"
        }
      ],
      "name": "scaledBalanceOf",
      "outputs": [
        {
          "internalType": "uint256",
          "name": "",
          "type": "uint256"
        }
      ],
      "stateMutability": "view",
      "type": "function"
    },
    {
      "inputs": [],
      "name": "scaledTotalSupply",
      "outputs": [
        {
          "internalType": "uint256",
          "name": "",
          "type": "uint256"
        }
      ],
      "stateMutability": "view",
      "type": "function"
    },
    {
      "inputs": [],
      "name": "symbol",
      "outputs": [
        {
          "internalType": "string",
          "name": "",
          "type": "string"
        }
      ],
      "stateMutability": "view",
      "type": "function"
    },
    {
      "inputs": [],
      "name": "totalSupply",
      "outputs": [
        {
          "internalType": "uint256",
          "name": "",
          "type": "uint256"
        }
      ],
      "stateMutability": "view",
      "type": "function"
    },
    {
      "inputs": [
        {
          "internalType": "address",
          "name": "recipient",
          "type": "address"
        },
        {
          "internalType": "uint256",
          "name": "amount",
          "type": "uint256"
        }
      ],
      "name": "transfer",
      "outputs": [
        {
          "internalType": "bool",
          "name": "",
          "type": "bool"
        }
      ],
      "stateMutability": "nonpayable",
      "type": "function"
    },
    {
      "inputs": [
        {
          "internalType": "address",
          "name": "sender",
          "type": "address"
        },
        {
          "internalType": "address",
          "name": "recipient",
          "type": "address"
        },
        {
          "internalType": "uint256",
          "name": "amount",
          "type": "uint256"
        }
      ],
      "name": "transferFrom",
      "outputs": [
        {
          "internalType": "bool",
          "name": "",
          "type": "bool"
        }
      ],
      "stateMutability": "nonpayable",
      "type": "function"
    },
    {
      "inputs": [
        {
          "internalType": "address",
          "name": "from",
          "type": "address"
        },
        {
          "internalType": "address",
          "name": "to",
          "type": "address"
        },
        {
          "internalType": "uint256",
          "name": "value",
          "type": "uint256"
        }
      ],
      "name": "transferOnLiquidation",
      "outputs": [],
      "stateMutability": "nonpayable",
      "type": "function"
    },
    {
      "inputs": [
        {
          "internalType": "address",
          "name": "target",
          "type": "address"
        },
        {
          "internalType": "uint256",
          "name": "amount",
          "type": "uint256"
        }
      ],
      "name": "transferUnderlyingTo",
      "outputs": [
        {
          "internalType": "uint256",
          "name": "",
          "type": "uint256"
        }
      ],
      "stateMutability": "nonpayable",
      "type": "function"
    }
  ],
  "bytecode": {
    "object": "0x610100604052600080553480156200001657600080fd5b5060405162002b8438038062002b84833981810160405260c08110156200003c57600080fd5b8151602083015160408085015160608601805192519496939591949391820192846401000000008211156200007057600080fd5b9083019060208201858111156200008657600080fd5b8251640100000000811182820188101715620000a157600080fd5b82525081516020918201929091019080838360005b83811015620000d0578181015183820152602001620000b6565b50505050905090810190601f168015620000fe5780820380516001836020036101000a031916815260200191505b50604052602001805160405193929190846401000000008211156200012257600080fd5b9083019060208201858111156200013857600080fd5b82516401000000008111828201881017156200015357600080fd5b82525081516020918201929091019080838360005b838110156200018257818101518382015260200162000168565b50505050905090810190601f168015620001b05780820380516001836020036101000a031916815260200191505b50604052602090810151855190935085925084916012918591620001da916037918701906200023b565b508251620001f09060389060208601906200023b565b506039805460ff90931660ff19909316929092179091556001600160601b0319606091821b811660805298811b891660e05296871b881660a0525050505050901b1660c052620002d7565b828054600181600116156101000203166002900490600052602060002090601f016020900481019282601f106200027e57805160ff1916838001178555620002ae565b82800160010185558215620002ae579182015b82811115620002ae57825182559160200191906001019062000291565b50620002bc929150620002c0565b5090565b5b80821115620002bc5760008155600101620002c1565b60805160601c60a05160601c60c05160601c60e05160601c6127fd62000387600039806107c652806109ce5280610dc05280610ea35280610f6b5280610fac5280611520528061172b5280611e785280611fd452508061105d528061109e52806110f4528061126a5250806109fd5280610e6f5280610ed2528061128e528061164e5280611ea75280611f85525080611ae95280611b1052806123bf52806123ed528061249d52506127fd6000f3fe608060405234801561001057600080fd5b50600436106101da5760003560e01c80637535d24611610104578063b16a19de116100a2578063d505accf11610071578063d505accf146105fa578063d7020d0a1461064b578063dd62ed3e14610687578063f866c319146106b5576101da565b8063b16a19de146105bc578063b1bf962d146105c4578063b9844d8d146105cc578063d0fc81d2146105f2576101da565b806395d89b41116100de57806395d89b4114610554578063a457c2d71461055c578063a9059cbb14610588578063ae167335146105b4576101da565b80637535d2461461050557806378160376146105295780637df5bd3b14610531576101da565b806323b872dd1161017c5780633644e5151161014b5780633644e5151461047f57806339509351146104875780634efecaa5146104b357806370a08231146104df576101da565b806323b872dd1461035557806330adf81f1461038b5780633118724e14610393578063313ce56714610461576101da565b80630bd7ad3b116101b85780630bd7ad3b146102db578063156e29f6146102f557806318160ddd146103275780631da24f3e1461032f576101da565b806306fdde03146101df578063095ea7b31461025c5780630afbcdc91461029c575b600080fd5b6101e76106eb565b6040805160208082528351818301528351919283929083019185019080838360005b83811015610221578181015183820152602001610209565b50505050905090810190601f16801561024e5780820380516001836020036101000a031916815260200191505b509250505060405180910390f35b6102886004803603604081101561027257600080fd5b506001600160a01b038135169060200135610782565b604080519115158252519081900360200190f35b6102c2600480360360208110156102b257600080fd5b50356001600160a01b03166107a0565b6040805192835260208301919091528051918290030190f35b6102e36107bd565b60408051918252519081900360200190f35b6102886004803603606081101561030b57600080fd5b506001600160a01b0381351690602081013590604001356107c2565b6102e36109ad565b6102e36004803603602081101561034557600080fd5b50356001600160a01b0316610a92565b6102886004803603606081101561036b57600080fd5b506001600160a01b03813581169160208101359091169060400135610a9d565b6102e3610b5d565b61045f600480360360608110156103a957600080fd5b60ff82351691908101906040810160208201356401000000008111156103ce57600080fd5b8201836020820111156103e057600080fd5b8035906020019184600183028401116401000000008311171561040257600080fd5b91939092909160208101903564010000000081111561042057600080fd5b82018360208201111561043257600080fd5b8035906020019184600183028401116401000000008311171561045457600080fd5b509092509050610b81565b005b610469610d5f565b6040805160ff9092168252519081900360200190f35b6102e3610d68565b6102886004803603604081101561049d57600080fd5b506001600160a01b038135169060200135610d6e565b6102e3600480360360408110156104c957600080fd5b506001600160a01b038135169060200135610dbc565b6102e3600480360360208110156104f557600080fd5b50356001600160a01b0316610e9c565b61050d610f69565b604080516001600160a01b039092168252519081900360200190f35b6101e7610f8d565b61045f6004803603604081101561054757600080fd5b5080359060200135610faa565b6101e7611142565b6102886004803603604081101561057257600080fd5b506001600160a01b0381351690602001356111a3565b6102886004803603604081101561059e57600080fd5b506001600160a01b03813516906020013561120b565b61050d611268565b61050d61128c565b6102e36112b0565b6102e3600480360360208110156105e257600080fd5b50356001600160a01b03166112bf565b6102e36112d1565b61045f600480360360e081101561061057600080fd5b506001600160a01b03813581169160208101359091169060408101359060608101359060ff6080820135169060a08101359060c001356112d7565b61045f6004803603608081101561066157600080fd5b506001600160a01b0381358116916020810135909116906040810135906060013561151e565b6102e36004803603604081101561069d57600080fd5b506001600160a01b03813581169160200135166116fe565b61045f600480360360608110156106cb57600080fd5b506001600160a01b03813581169160208101359091169060400135611729565b60378054604080516020601f60026000196101006001881615020190951694909404938401819004810282018101909252828152606093909290918301828280156107775780601f1061074c57610100808354040283529160200191610777565b820191906000526020600020905b81548152906001019060200180831161075a57829003601f168201915b505050505090505b90565b600061079661078f611818565b848461181c565b5060015b92915050565b6000806107ac83611908565b6107b4611923565b91509150915091565b600181565b60007f00000000000000000000000000000000000000000000000000000000000000006001600160a01b03166107f6611818565b6001600160a01b03161460405180604001604052806002815260200161323960f01b815250906108a45760405162461bcd60e51b81526004018080602001828103825283818151815260200191508051906020019080838360005b83811015610869578181015183820152602001610851565b50505050905090810190601f1680156108965780820380516001836020036101000a031916815260200191505b509250505060405180910390fd5b5060006108b085611908565b905060006108be8585611929565b6040805180820190915260028152611a9b60f11b6020820152909150816109265760405162461bcd60e51b8152602060048201818152835160248401528351909283926044909101919085019080838360008315610869578181015183820152602001610851565b506109318682611a30565b6040805186815290516001600160a01b038816916000916000805160206126ef8339815191529181900360200190a3604080518681526020810186905281516001600160a01b038916927f4c209b5fc8ad50758f13e2e1088ba56a560dff690a1c6fef26394f4c03821c4f928290030190a25015949350505050565b6000806109b8611923565b9050806109c957600091505061077f565b610a8c7f00000000000000000000000000000000000000000000000000000000000000006001600160a01b031663d15e00537f00000000000000000000000000000000000000000000000000000000000000006040518263ffffffff1660e01b815260040180826001600160a01b0316815260200191505060206040518083038186803b158015610a5957600080fd5b505afa158015610a6d573d6000803e3d6000fd5b505050506040513d6020811015610a8357600080fd5b50518290611bac565b91505090565b600061079a82611908565b6000610aaa848484611c6a565b610b1a84610ab6611818565b610b1585604051806060016040528060288152602001612699602891396001600160a01b038a16600090815260356020526040812090610af4611818565b6001600160a01b031681526020810191909152604001600020549190611c7c565b61181c565b826001600160a01b0316846001600160a01b03166000805160206126ef833981519152846040518082815260200191505060405180910390a35060019392505050565b7f6e71edae12b1b97f4d1f60370fef10105fa2faae0126114a169c64845d6126c981565b6000610b8b611cd6565b60015490915060ff1680610ba25750610ba2611cdb565b80610bae575060005481115b610be95760405162461bcd60e51b815260040180806020018281038252602e8152602001806126c1602e913960400191505060405180910390fd5b60015460ff16158015610c08576001805460ff19168117905560008290555b60004690507f8b73c3c69bb8fe3d512ecc4cf759cc79239f7b179b0ffacaa9a75d522b39400f87876040518083838082843760408051939091018390038320838201825260018452603160f81b602094850152815180850198909852878201527fc89efdaa54c0f20c7adf612882df0950f5a951637e0307cdcb4c672f298b8bc66060880152608087018890523060a0808901919091528151808903909101815260c08801808352815191850191909120603b5560e0601f8f01859004909402880184019091528c8152610cfc969095508d94508c93508392019050838280828437600092019190915250611ce192505050565b610d3b85858080601f016020809104026020016040519081016040528093929190818152602001838380828437600092019190915250611cf492505050565b610d4488611d07565b508015610d56576001805460ff191690555b50505050505050565b60395460ff1690565b603b5481565b6000610796610d7b611818565b84610b158560356000610d8c611818565b6001600160a01b03908116825260208083019390935260409182016000908120918c168152925290205490611d1d565b60007f00000000000000000000000000000000000000000000000000000000000000006001600160a01b0316610df0611818565b6001600160a01b03161460405180604001604052806002815260200161323960f01b81525090610e615760405162461bcd60e51b8152602060048201818152835160248401528351909283926044909101919085019080838360008315610869578181015183820152602001610851565b50610e966001600160a01b037f0000000000000000000000000000000000000000000000000000000000000000168484611d7e565b50919050565b600061079a7f00000000000000000000000000000000000000000000000000000000000000006001600160a01b031663d15e00537f00000000000000000000000000000000000000000000000000000000000000006040518263ffffffff1660e01b815260040180826001600160a01b0316815260200191505060206040518083038186803b158015610f2e57600080fd5b505afa158015610f42573d6000803e3d6000fd5b505050506040513d6020811015610f5857600080fd5b5051610f6384611908565b90611bac565b7f000000000000000000000000000000000000000000000000000000000000000081565b604051806040016040528060018152602001603160f81b81525081565b7f00000000000000000000000000000000000000000000000000000000000000006001600160a01b0316610fdc611818565b6001600160a01b03161460405180604001604052806002815260200161323960f01b8152509061104d5760405162461bcd60e51b8152602060048201818152835160248401528351909283926044909101919085019080838360008315610869578181015183820152602001610851565b50816110585761113e565b61108b7f00000000000000000000000000000000000000000000000000000000000000006110868484611929565b611a30565b6040805183815290516001600160a01b037f000000000000000000000000000000000000000000000000000000000000000016916000916000805160206126ef8339815191529181900360200190a3604080518381526020810183905281516001600160a01b037f000000000000000000000000000000000000000000000000000000000000000016927f4c209b5fc8ad50758f13e2e1088ba56a560dff690a1c6fef26394f4c03821c4f928290030190a25b5050565b60388054604080516020601f60026000196101006001881615020190951694909404938401819004810282018101909252828152606093909290918301828280156107775780601f1061074c57610100808354040283529160200191610777565b60006107966111b0611818565b84610b15856040518060600160405280602581526020016127a360259139603560006111da611818565b6001600160a01b03908116825260208083019390935260409182016000908120918d16815292529020549190611c7c565b600061121f611218611818565b8484611c6a565b826001600160a01b0316611231611818565b6001600160a01b03166000805160206126ef833981519152846040518082815260200191505060405180910390a350600192915050565b7f000000000000000000000000000000000000000000000000000000000000000081565b7f000000000000000000000000000000000000000000000000000000000000000081565b60006112ba611923565b905090565b603a6020526000908152604090205481565b60001981565b6001600160a01b038716611322576040805162461bcd60e51b815260206004820152600d60248201526c24a72b20a624a22fa7aba722a960991b604482015290519081900360640190fd5b8342111561136c576040805162461bcd60e51b815260206004820152601260248201527124a72b20a624a22fa2ac2824a920aa24a7a760711b604482015290519081900360640190fd5b6001600160a01b038088166000818152603a6020908152604080832054603b5482517f6e71edae12b1b97f4d1f60370fef10105fa2faae0126114a169c64845d6126c98186015280840196909652958c166060860152608085018b905260a0850181905260c08086018b90528251808703909101815260e08601835280519084012061190160f01b6101008701526101028601969096526101228086019690965281518086039096018652610142850180835286519684019690962093909552610162840180825283905260ff88166101828501526101a284018790526101c284018690525191926001926101e28083019392601f198301929081900390910190855afa158015611481573d6000803e3d6000fd5b505050602060405103516001600160a01b0316896001600160a01b0316146114e4576040805162461bcd60e51b8152602060048201526011602482015270494e56414c49445f5349474e415455524560781b604482015290519081900360640190fd5b6114ef826001611d1d565b6001600160a01b038a166000908152603a602052604090205561151389898961181c565b505050505050505050565b7f00000000000000000000000000000000000000000000000000000000000000006001600160a01b0316611550611818565b6001600160a01b03161460405180604001604052806002815260200161323960f01b815250906115c15760405162461bcd60e51b8152602060048201818152835160248401528351909283926044909101919085019080838360008315610869578181015183820152602001610851565b5060006115ce8383611929565b60408051808201909152600281526106a760f31b6020820152909150816116365760405162461bcd60e51b8152602060048201818152835160248401528351909283926044909101919085019080838360008315610869578181015183820152602001610851565b506116418582611dd0565b6116756001600160a01b037f0000000000000000000000000000000000000000000000000000000000000000168585611d7e565b6040805184815290516000916001600160a01b038816916000805160206126ef8339815191529181900360200190a3836001600160a01b0316856001600160a01b03167f5d624aa9c148153ab3446c1b154f660ee7701e549fe9b62dab7171b1c80e6fa28585604051808381526020018281526020019250505060405180910390a35050505050565b6001600160a01b03918216600090815260356020908152604080832093909416825291909152205490565b7f00000000000000000000000000000000000000000000000000000000000000006001600160a01b031661175b611818565b6001600160a01b03161460405180604001604052806002815260200161323960f01b815250906117cc5760405162461bcd60e51b8152602060048201818152835160248401528351909283926044909101919085019080838360008315610869578181015183820152602001610851565b506117da8383836000611e74565b816001600160a01b0316836001600160a01b03166000805160206126ef833981519152836040518082815260200191505060405180910390a3505050565b3390565b6001600160a01b0383166118615760405162461bcd60e51b81526004018080602001828103825260248152602001806127556024913960400191505060405180910390fd5b6001600160a01b0382166118a65760405162461bcd60e51b81526004018080602001828103825260228152602001806126516022913960400191505060405180910390fd5b6001600160a01b03808416600081815260356020908152604080832094871680845294825291829020859055815185815291517f8c5be1e5ebec7d5bd14f71427d1e84f3dd0314c0f7b2291e5b200ac8c7c3b9259281900390910190a3505050565b6001600160a01b031660009081526034602052604090205490565b60365490565b604080518082019091526002815261035360f41b6020820152600090826119915760405162461bcd60e51b8152602060048201818152835160248401528351909283926044909101919085019080838360008315610869578181015183820152602001610851565b5060408051808201909152600280825261068760f31b60208301528304906b033b2e3c9fd0803ce8000000821904851115611a0d5760405162461bcd60e51b8152602060048201818152835160248401528351909283926044909101919085019080838360008315610869578181015183820152602001610851565b5082816b033b2e3c9fd0803ce800000086020181611a2757fe5b04949350505050565b6001600160a01b038216611a8b576040805162461bcd60e51b815260206004820152601f60248201527f45524332303a206d696e7420746f20746865207a65726f206164647265737300604482015290519081900360640190fd5b611a9760008383611c77565b603654611aa48183611d1d565b6036556001600160a01b038316600090815260346020526040902054611aca8184611d1d565b6001600160a01b038086166000908152603460205260409020919091557f00000000000000000000000000000000000000000000000000000000000000001615611ba6577f00000000000000000000000000000000000000000000000000000000000000006001600160a01b03166331873e2e8584846040518463ffffffff1660e01b815260040180846001600160a01b031681526020018381526020018281526020019350505050600060405180830381600087803b158015611b8d57600080fd5b505af1158015611ba1573d6000803e3d6000fd5b505050505b50505050565b6000821580611bb9575081155b15611bc65750600061079a565b816b019d971e4fe8401e740000001981611bdc57fe5b0483111560405180604001604052806002815260200161068760f31b81525090611c475760405162461bcd60e51b8152602060048201818152835160248401528351909283926044909101919085019080838360008315610869578181015183820152602001610851565b50506b033b2e3c9fd0803ce800000091026b019d971e4fe8401e74000000010490565b611c778383836001611e74565b505050565b60008184841115611cce5760405162461bcd60e51b8152602060048201818152835160248401528351909283926044909101919085019080838360008315610869578181015183820152602001610851565b505050900390565b600190565b303b1590565b805161113e906037906020840190612578565b805161113e906038906020840190612578565b6039805460ff191660ff92909216919091179055565b600082820183811015611d77576040805162461bcd60e51b815260206004820152601b60248201527f536166654d6174683a206164646974696f6e206f766572666c6f770000000000604482015290519081900360640190fd5b9392505050565b604080516001600160a01b038416602482015260448082018490528251808303909101815260649091019091526020810180516001600160e01b031663a9059cbb60e01b179052611c77908490612093565b6001600160a01b038216611e155760405162461bcd60e51b815260040180806020018281038252602181526020018061270f6021913960400191505060405180910390fd5b611e2182600083611c77565b603654611e2e818361224b565b6036556001600160a01b0383166000908152603460209081526040918290205482516060810190935260228084529092611aca9286929061262f90830139839190611c7c565b60007f00000000000000000000000000000000000000000000000000000000000000006001600160a01b031663d15e00537f00000000000000000000000000000000000000000000000000000000000000006040518263ffffffff1660e01b815260040180826001600160a01b0316815260200191505060206040518083038186803b158015611f0357600080fd5b505afa158015611f17573d6000803e3d6000fd5b505050506040513d6020811015611f2d57600080fd5b505190506000611f4082610f6388611908565b90506000611f5183610f6388611908565b9050611f678787611f628887611929565b61228d565b8315612037576040805163d5ed393360e01b81526001600160a01b037f00000000000000000000000000000000000000000000000000000000000000008116600483015289811660248301528881166044830152606482018890526084820185905260a4820184905291517f00000000000000000000000000000000000000000000000000000000000000009092169163d5ed39339160c48082019260009290919082900301818387803b15801561201e57600080fd5b505af1158015612032573d6000803e3d6000fd5b505050505b856001600160a01b0316876001600160a01b03167f4beccb90f994c31aced7a23b5611020728a23d8ec5cddd1a3e9d97b96fda86668786604051808381526020018281526020019250505060405180910390a350505050505050565b6120a5826001600160a01b031661253c565b6120f6576040805162461bcd60e51b815260206004820152601f60248201527f5361666545524332303a2063616c6c20746f206e6f6e2d636f6e747261637400604482015290519081900360640190fd5b60006060836001600160a01b0316836040518082805190602001908083835b602083106121345780518252601f199092019160209182019101612115565b6001836020036101000a0380198251168184511680821785525050505050509050019150506000604051808303816000865af19150503d8060008114612196576040519150601f19603f3d011682016040523d82523d6000602084013e61219b565b606091505b5091509150816121f2576040805162461bcd60e51b815260206004820181905260248201527f5361666545524332303a206c6f772d6c6576656c2063616c6c206661696c6564604482015290519081900360640190fd5b805115611ba65780806020019051602081101561220e57600080fd5b5051611ba65760405162461bcd60e51b815260040180806020018281038252602a815260200180612779602a913960400191505060405180910390fd5b6000611d7783836040518060400160405280601e81526020017f536166654d6174683a207375627472616374696f6e206f766572666c6f770000815250611c7c565b6001600160a01b0383166122d25760405162461bcd60e51b81526004018080602001828103825260258152602001806127306025913960400191505060405180910390fd5b6001600160a01b0382166123175760405162461bcd60e51b815260040180806020018281038252602381526020018061260c6023913960400191505060405180910390fd5b612322838383611c77565b600060346000856001600160a01b03166001600160a01b031681526020019081526020016000205490506123718260405180606001604052806026815260200161267360269139839190611c7c565b6001600160a01b0380861660009081526034602052604080822093909355908516815220546123a08184611d1d565b6001600160a01b038086166000908152603460205260409020919091557f0000000000000000000000000000000000000000000000000000000000000000161561253557600060365490507f00000000000000000000000000000000000000000000000000000000000000006001600160a01b03166331873e2e8783866040518463ffffffff1660e01b815260040180846001600160a01b031681526020018381526020018281526020019350505050600060405180830381600087803b15801561246a57600080fd5b505af115801561247e573d6000803e3d6000fd5b50505050846001600160a01b0316866001600160a01b031614612533577f00000000000000000000000000000000000000000000000000000000000000006001600160a01b03166331873e2e8683856040518463ffffffff1660e01b815260040180846001600160a01b031681526020018381526020018281526020019350505050600060405180830381600087803b15801561251a57600080fd5b505af115801561252e573d6000803e3d6000fd5b505050505b505b5050505050565b6000813f7fc5d2460186f7233c927e7db2dcc703c0e500b653ca82273b7bfad8045d85a47081811480159061257057508115155b949350505050565b828054600181600116156101000203166002900490600052602060002090601f016020900481019282601f106125b957805160ff19168380011785556125e6565b828001600101855582156125e6579182015b828111156125e65782518255916020019190600101906125cb565b506125f29291506125f6565b5090565b5b808211156125f257600081556001016125f756fe45524332303a207472616e7366657220746f20746865207a65726f206164647265737345524332303a206275726e20616d6f756e7420657863656564732062616c616e636545524332303a20617070726f766520746f20746865207a65726f206164647265737345524332303a207472616e7366657220616d6f756e7420657863656564732062616c616e636545524332303a207472616e7366657220616d6f756e74206578636565647320616c6c6f77616e6365436f6e747261637420696e7374616e63652068617320616c7265616479206265656e20696e697469616c697a6564ddf252ad1be2c89b69c2b068fc378daa952ba7f163c4a11628f55a4df523b3ef45524332303a206275726e2066726f6d20746865207a65726f206164647265737345524332303a207472616e736665722066726f6d20746865207a65726f206164647265737345524332303a20617070726f76652066726f6d20746865207a65726f20616464726573735361666545524332303a204552433230206f7065726174696f6e20646964206e6f74207375636365656445524332303a2064656372656173656420616c6c6f77616e63652062656c6f77207a65726fa2646970667358221220a0b9f0c9f4b355f951e88cb2f2c65aa928a9f00fee4f9b26594cdf768da2fdac64736f6c634300060c0033",
    "linkReferences": {}
  },
  "methodIdentifiers": {
    "ATOKEN_REVISION()": "0bd7ad3b",
    "DOMAIN_SEPARATOR()": "3644e515",
    "EIP712_REVISION()": "78160376",
    "PERMIT_TYPEHASH()": "30adf81f",
    "POOL()": "7535d246",
    "RESERVE_TREASURY_ADDRESS()": "ae167335",
    "UINT_MAX_VALUE()": "d0fc81d2",
    "UNDERLYING_ASSET_ADDRESS()": "b16a19de",
    "_nonces(address)": "b9844d8d",
    "allowance(address,address)": "dd62ed3e",
    "approve(address,uint256)": "095ea7b3",
    "balanceOf(address)": "70a08231",
    "burn(address,address,uint256,uint256)": "d7020d0a",
    "decimals()": "313ce567",
    "decreaseAllowance(address,uint256)": "a457c2d7",
    "getScaledUserBalanceAndSupply(address)": "0afbcdc9",
    "increaseAllowance(address,uint256)": "39509351",
    "initialize(uint8,string,string)": "3118724e",
    "mint(address,uint256,uint256)": "156e29f6",
    "mintToTreasury(uint256,uint256)": "7df5bd3b",
    "name()": "06fdde03",
    "permit(address,address,uint256,uint256,uint8,bytes32,bytes32)": "d505accf",
    "scaledBalanceOf(address)": "1da24f3e",
    "scaledTotalSupply()": "b1bf962d",
    "symbol()": "95d89b41",
    "totalSupply()": "18160ddd",
    "transfer(address,uint256)": "a9059cbb",
    "transferFrom(address,address,uint256)": "23b872dd",
    "transferOnLiquidation(address,address,uint256)": "f866c319",
    "transferUnderlyingTo(address,uint256)": "4efecaa5"
  },
  "id": 66
}