{
  "abi": [
    {
      "inputs": [
        {
          "internalType": "contract ILendingPoolAddressesProvider",
          "name": "addressesProvider",
          "type": "address"
        },
        {
          "internalType": "contract IUniswapV2Router02",
          "name": "uniswapRouter",
          "type": "address"
        },
        {
          "internalType": "address",
          "name": "wethAddress",
          "type": "address"
        }
      ],
      "stateMutability": "nonpayable",
      "type": "constructor"
    },
    {
      "anonymous": false,
      "inputs": [
        {
          "indexed": true,
          "internalType": "address",
          "name": "previousOwner",
          "type": "address"
        },
        {
          "indexed": true,
          "internalType": "address",
          "name": "newOwner",
          "type": "address"
        }
      ],
      "name": "OwnershipTransferred",
      "type": "event"
    },
    {
      "anonymous": false,
      "inputs": [
        {
          "indexed": false,
          "internalType": "address",
          "name": "fromAsset",
          "type": "address"
        },
        {
          "indexed": false,
          "internalType": "address",
          "name": "toAsset",
          "type": "address"
        },
        {
          "indexed": false,
          "internalType": "uint256",
          "name": "fromAmount",
          "type": "uint256"
        },
        {
          "indexed": false,
          "internalType": "uint256",
          "name": "receivedAmount",
          "type": "uint256"
        }
      ],
      "name": "Swapped",
      "type": "event"
    },
    {
      "inputs": [],
      "name": "ADDRESSES_PROVIDER",
      "outputs": [
        {
          "internalType": "contract ILendingPoolAddressesProvider",
          "name": "",
          "type": "address"
        }
      ],
      "stateMutability": "view",
      "type": "function"
    },
    {
      "inputs": [],
      "name": "FLASHLOAN_PREMIUM_TOTAL",
      "outputs": [
        {
          "internalType": "uint256",
          "name": "",
          "type": "uint256"
        }
      ],
      "stateMutability": "view",
      "type": "function"
    },
    {
      "inputs": [],
      "name": "LENDING_POOL",
      "outputs": [
        {
          "internalType": "contract ILendingPool",
          "name": "",
          "type": "address"
        }
      ],
      "stateMutability": "view",
      "type": "function"
    },
    {
      "inputs": [],
      "name": "MAX_SLIPPAGE_PERCENT",
      "outputs": [
        {
          "internalType": "uint256",
          "name": "",
          "type": "uint256"
        }
      ],
      "stateMutability": "view",
      "type": "function"
    },
    {
      "inputs": [],
      "name": "ORACLE",
      "outputs": [
        {
          "internalType": "contract IPriceOracleGetter",
          "name": "",
          "type": "address"
        }
      ],
      "stateMutability": "view",
      "type": "function"
    },
    {
      "inputs": [],
      "name": "UNISWAP_ROUTER",
      "outputs": [
        {
          "internalType": "contract IUniswapV2Router02",
          "name": "",
          "type": "address"
        }
      ],
      "stateMutability": "view",
      "type": "function"
    },
    {
      "inputs": [],
      "name": "USD_ADDRESS",
      "outputs": [
        {
          "internalType": "address",
          "name": "",
          "type": "address"
        }
      ],
      "stateMutability": "view",
      "type": "function"
    },
    {
      "inputs": [],
      "name": "WETH_ADDRESS",
      "outputs": [
        {
          "internalType": "address",
          "name": "",
          "type": "address"
        }
      ],
      "stateMutability": "view",
      "type": "function"
    },
    {
      "inputs": [
        {
          "internalType": "address[]",
          "name": "assets",
          "type": "address[]"
        },
        {
          "internalType": "uint256[]",
          "name": "amounts",
          "type": "uint256[]"
        },
        {
          "internalType": "uint256[]",
          "name": "premiums",
          "type": "uint256[]"
        },
        {
          "internalType": "address",
          "name": "initiator",
          "type": "address"
        },
        {
          "internalType": "bytes",
          "name": "params",
          "type": "bytes"
        }
      ],
      "name": "executeOperation",
      "outputs": [
        {
          "internalType": "bool",
          "name": "",
          "type": "bool"
        }
      ],
      "stateMutability": "nonpayable",
      "type": "function"
    },
    {
      "inputs": [
        {
          "internalType": "uint256",
          "name": "amountOut",
          "type": "uint256"
        },
        {
          "internalType": "address",
          "name": "reserveIn",
          "type": "address"
        },
        {
          "internalType": "address",
          "name": "reserveOut",
          "type": "address"
        }
      ],
      "name": "getAmountsIn",
      "outputs": [
        {
          "internalType": "uint256",
          "name": "",
          "type": "uint256"
        },
        {
          "internalType": "uint256",
          "name": "",
          "type": "uint256"
        },
        {
          "internalType": "uint256",
          "name": "",
          "type": "uint256"
        },
        {
          "internalType": "uint256",
          "name": "",
          "type": "uint256"
        },
        {
          "internalType": "address[]",
          "name": "",
          "type": "address[]"
        }
      ],
      "stateMutability": "view",
      "type": "function"
    },
    {
      "inputs": [
        {
          "internalType": "uint256",
          "name": "amountIn",
          "type": "uint256"
        },
        {
          "internalType": "address",
          "name": "reserveIn",
          "type": "address"
        },
        {
          "internalType": "address",
          "name": "reserveOut",
          "type": "address"
        }
      ],
      "name": "getAmountsOut",
      "outputs": [
        {
          "internalType": "uint256",
          "name": "",
          "type": "uint256"
        },
        {
          "internalType": "uint256",
          "name": "",
          "type": "uint256"
        },
        {
          "internalType": "uint256",
          "name": "",
          "type": "uint256"
        },
        {
          "internalType": "uint256",
          "name": "",
          "type": "uint256"
        },
        {
          "internalType": "address[]",
          "name": "",
          "type": "address[]"
        }
      ],
      "stateMutability": "view",
      "type": "function"
    },
    {
      "inputs": [],
      "name": "owner",
      "outputs": [
        {
          "internalType": "address",
          "name": "",
          "type": "address"
        }
      ],
      "stateMutability": "view",
      "type": "function"
    },
    {
      "inputs": [],
      "name": "renounceOwnership",
      "outputs": [],
      "stateMutability": "nonpayable",
      "type": "function"
    },
    {
      "inputs": [
        {
          "internalType": "contract IERC20",
          "name": "token",
          "type": "address"
        }
      ],
      "name": "rescueTokens",
      "outputs": [],
      "stateMutability": "nonpayable",
      "type": "function"
    },
    {
      "inputs": [
        {
          "internalType": "address",
          "name": "collateralAsset",
          "type": "address"
        },
        {
          "internalType": "address",
          "name": "debtAsset",
          "type": "address"
        },
        {
          "internalType": "uint256",
          "name": "collateralAmount",
          "type": "uint256"
        },
        {
          "internalType": "uint256",
          "name": "debtRepayAmount",
          "type": "uint256"
        },
        {
          "internalType": "uint256",
          "name": "debtRateMode",
          "type": "uint256"
        },
        {
          "components": [
            {
              "internalType": "uint256",
              "name": "amount",
              "type": "uint256"
            },
            {
              "internalType": "uint256",
              "name": "deadline",
              "type": "uint256"
            },
            {
              "internalType": "uint8",
              "name": "v",
              "type": "uint8"
            },
            {
              "internalType": "bytes32",
              "name": "r",
              "type": "bytes32"
            },
            {
              "internalType": "bytes32",
              "name": "s",
              "type": "bytes32"
            }
          ],
          "internalType": "struct IBaseUniswapAdapter.PermitSignature",
          "name": "permitSignature",
          "type": "tuple"
        },
        {
          "internalType": "bool",
          "name": "useEthPath",
          "type": "bool"
        }
      ],
      "name": "swapAndRepay",
      "outputs": [],
      "stateMutability": "nonpayable",
      "type": "function"
    },
    {
      "inputs": [
        {
          "internalType": "address",
          "name": "newOwner",
          "type": "address"
        }
      ],
      "name": "transferOwnership",
      "outputs": [],
      "stateMutability": "nonpayable",
      "type": "function"
    }
  ],
  "bytecode": {
    "object": "0x6101206040523480156200001257600080fd5b5060405162003ae038038062003ae083398101604081905262000035916200021e565b82828282806001600160a01b03166080816001600160a01b031660601b81525050806001600160a01b0316630261bf8b6040518163ffffffff1660e01b815260040160206040518083038186803b1580156200009057600080fd5b505afa158015620000a5573d6000803e3d6000fd5b505050506040513d601f19601f82011682018060405250810190620000cb9190620001f7565b60601b6001600160601b03191660a052506000620000e8620001d3565b600080546001600160a01b0319166001600160a01b0383169081178255604051929350917f8be0079c531659141344cd1fd0a4f28419497f9722a3daafe3b4186f6b6457e0908290a350826001600160a01b031663fca513a86040518163ffffffff1660e01b815260040160206040518083038186803b1580156200016c57600080fd5b505afa15801562000181573d6000803e3d6000fd5b505050506040513d601f19601f82011682018060405250810190620001a79190620001f7565b6001600160601b0319606091821b811660e05292811b8316610100521b1660c05250620002bb92505050565b3390565b8051620001e48162000296565b92915050565b8051620001e481620002b0565b60006020828403121562000209578081fd5b6200021783828401620001d7565b9392505050565b60008060006060848603121562000233578182fd5b6200024185838601620001ea565b925060206200025386828701620001ea565b92505060406200026686828701620001d7565b9150509250925092565b6000620001e4826200028a565b6000620001e48262000270565b6001600160a01b031690565b620002a18162000270565b8114620002ad57600080fd5b50565b620002a1816200027d565b60805160601c60a05160601c60c05160601c60e05160601c6101005160601c61374a620003966000398061060e52806110e752806111db528061185a5280611ae45280611b195280611cad52806121d552806122c65250806103af528061246752508061035c5280610fc15280610ffe528061106852806117475280611b9752806120af52806120ec528061215652508061046c52806105895280610824528061085952806108955280610ab75280610aec5280610baa5280610dc35280610dee52806115e552806119aa525080610380525061374a6000f3fe608060405234801561001057600080fd5b50600436106100ff5760003560e01c8063920f5c8411610097578063cdf58cd611610066578063cdf58cd6146101d5578063d8264920146101e8578063e6813563146101f0578063f2fde38b14610203576100ff565b8063920f5c84146101815780639d1211bf146101a1578063b4dcfc77146101a9578063baf7fa99146101b1576100ff565b806332e4b286116100d357806332e4b2861461016157806338013f0214610169578063715018a6146101715780638da5cb5b14610179576100ff565b8062ae3bf814610104578063040141e5146101195780630542975c14610137578063074b2e431461014c575b600080fd5b610117610112366004612d9c565b610216565b005b61012161035a565b60405161012e919061327c565b60405180910390f35b61013f61037e565b60405161012e9190613440565b6101546103a2565b60405161012e919061350f565b6101546103a7565b61013f6103ad565b6101176103d1565b610121610450565b61019461018f366004612c68565b61045f565b60405161012e9190613432565b61012161056f565b61013f610587565b6101c46101bf366004612e11565b6105ab565b60405161012e959493929190613586565b6101c46101e3366004612e11565b6105f1565b61013f61060c565b6101176101fe366004612bcc565b610630565b610117610211366004612aed565b610934565b61021e6109ea565b6000546001600160a01b039081169116146102545760405162461bcd60e51b815260040161024b906134bf565b60405180910390fd5b806001600160a01b031663a9059cbb61026b610450565b6040516370a0823160e01b81526001600160a01b038516906370a082319061029790309060040161327c565b60206040518083038186803b1580156102af57600080fd5b505afa1580156102c3573d6000803e3d6000fd5b505050506040513d601f19601f820116820180604052508101906102e79190612df4565b6040518363ffffffff1660e01b8152600401610304929190613378565b602060405180830381600087803b15801561031e57600080fd5b505af1158015610332573d6000803e3d6000fd5b505050506040513d601f19601f820116820180604052508101906103569190612d7f565b5050565b7f000000000000000000000000000000000000000000000000000000000000000081565b7f000000000000000000000000000000000000000000000000000000000000000081565b600981565b610bb881565b7f000000000000000000000000000000000000000000000000000000000000000081565b6103d96109ea565b6000546001600160a01b039081169116146104065760405162461bcd60e51b815260040161024b906134bf565b600080546040516001600160a01b03909116907f8be0079c531659141344cd1fd0a4f28419497f9722a3daafe3b4186f6b6457e0908390a3600080546001600160a01b0319169055565b6000546001600160a01b031690565b6000336001600160a01b037f000000000000000000000000000000000000000000000000000000000000000016146104a95760405162461bcd60e51b815260040161024b9061345f565b6104b16126a8565b6104f084848080601f0160208091040260200160405190810160405280939291908181526020018383808284376000920191909152506109ee92505050565b905061055e81600001518c8c600081811061050757fe5b905060200201602081019061051c9190612aed565b8b8b600081811061052957fe5b90506020020135846020015185604001518a8d8d600081811061054857fe5b9050602002013588606001518960800151610a95565b5060019a9950505050505050505050565b7310f7fc1f91ba351f9c629c5947ad69bd03c05b9681565b7f000000000000000000000000000000000000000000000000000000000000000081565b60008060008060606105bb6126e6565b6105c688888b610e35565b8051602082015160408301516060840151608090940151929d919c509a509198509650945050505050565b60008060008060606106016126e6565b6105c688888b6113ec565b7f000000000000000000000000000000000000000000000000000000000000000081565b610638612715565b610641886115c6565b905061064b612715565b610654886115c6565b90506000600186600281111561066657fe5b600281111561067157fe5b1461068157816101200151610688565b8161010001515b90506000816001600160a01b03166370a08231336040518263ffffffff1660e01b81526004016106b8919061328a565b60206040518083038186803b1580156106d057600080fd5b505afa1580156106e4573d6000803e3d6000fd5b505050506040513d601f19601f820116820180604052508101906107089190612df4565b905060008189111561071a578161071c565b885b90508a6001600160a01b03168c6001600160a01b0316146107f9578989821015610757576107548a61074e8385611671565b906116ab565b90505b60606107658e8e858b6116ed565b9050818160008151811061077557fe5b6020026020010151111561079b5760405162461bcd60e51b815260040161024b906134cf565b6107d08e8860e0015133846000815181106107b257fe5b60200260200101518d8036038101906107cb9190612db9565b6118f1565b6107f18e8e836000815181106107e257fe5b6020026020010151868c611a3d565b505050610815565b6108158c8660e0015133848b8036038101906107cb9190612db9565b61084a6001600160a01b038c167f00000000000000000000000000000000000000000000000000000000000000006000611dd2565b61087e6001600160a01b038c167f000000000000000000000000000000000000000000000000000000000000000083611dd2565b604051633f1eefb960e11b81526001600160a01b037f00000000000000000000000000000000000000000000000000000000000000001690637e3ddf72906108d3908e9085908d9033906000906004016133bb565b602060405180830381600087803b1580156108ed57600080fd5b505af1158015610901573d6000803e3d6000fd5b505050506040513d601f19601f820116820180604052508101906109259190612df4565b50505050505050505050505050565b61093c6109ea565b6000546001600160a01b039081169116146109695760405162461bcd60e51b815260040161024b906134bf565b6001600160a01b03811661098f5760405162461bcd60e51b815260040161024b9061346f565b600080546040516001600160a01b03808516939216917f8be0079c531659141344cd1fd0a4f28419497f9722a3daafe3b4186f6b6457e091a3600080546001600160a01b0319166001600160a01b0392909216919091179055565b3390565b6109f66126a8565b60008060008060008060008060008a806020019051810190610a189190612b0a565b9850985098509850985098509850985098506040518060a001604052808a6001600160a01b031681526020018981526020018881526020016040518060a001604052808981526020018881526020018760ff1681526020018681526020018581525081526020018215158152509950505050505050505050919050565b610a9d612715565b610aa68a6115c6565b9050610add6001600160a01b038a167f00000000000000000000000000000000000000000000000000000000000000006000611dd2565b610b116001600160a01b038a167f00000000000000000000000000000000000000000000000000000000000000008a611dd2565b6040516370a0823160e01b81526000906001600160a01b038b16906370a0823190610b4090309060040161327c565b60206040518083038186803b158015610b5857600080fd5b505afa158015610b6c573d6000803e3d6000fd5b505050506040513d601f19601f82011682018060405250810190610b909190612df4565b604051633f1eefb960e11b81529091506001600160a01b037f00000000000000000000000000000000000000000000000000000000000000001690637e3ddf7290610be8908d908d908c908c906000906004016133fd565b602060405180830381600087803b158015610c0257600080fd5b505af1158015610c16573d6000803e3d6000fd5b505050506040513d601f19601f82011682018060405250810190610c3a9190612df4565b506040516370a0823160e01b8152610cc2906001600160a01b038c16906370a0823190610c6b90309060040161327c565b60206040518083038186803b158015610c8357600080fd5b505afa158015610c97573d6000803e3d6000fd5b505050506040513d601f19601f82011682018060405250810190610cbb9190612df4565b8290611ed1565b9050896001600160a01b03168b6001600160a01b031614610d98578789821015610cf757610cf48a61074e8385611671565b90505b6000610d038388611f13565b90506060610d138e8e84896116ed565b90508281600081518110610d2357fe5b60200260200101511115610d495760405162461bcd60e51b815260040161024b906134cf565b610d6e8e8660e001518b84600081518110610d6057fe5b60200260200101518b6118f1565b610d8f8e8e83600081518110610d8057fe5b6020026020010151858a611a3d565b50505050610db4565b60e0820151610db4908c9088610dae858a611f13565b886118f1565b610de96001600160a01b038b167f00000000000000000000000000000000000000000000000000000000000000006000611dd2565b610e287f0000000000000000000000000000000000000000000000000000000000000000610e178b88611f13565b6001600160a01b038d169190611dd2565b5050505050505050505050565b610e3d6126e6565b6000610e5a610e5361271061074e866009611671565b8490611ed1565b9050836001600160a01b0316856001600160a01b03161415610f26576000610e8186611f38565b60408051600180825281830190925291925060609190602080830190803683370190505090508681600081518110610eb557fe5b6001600160a01b039092166020928302919091018201526040805160a08101909152848152908101610ef38761074e87670de0b6b3a7640000611671565b8152602001610f03898886611fb4565b8152602001610f13898686611fb4565b81526020018281525093505050506113e5565b60408051600280825260608083018452926020830190803683370190505090508581600081518110610f5457fe5b60200260200101906001600160a01b031690816001600160a01b0316815250508481600181518110610f8257fe5b6001600160a01b0392909216602092830291909101820152604080516003808252608082019092526060928392839291820183803683370190505090507f00000000000000000000000000000000000000000000000000000000000000006001600160a01b0316896001600160a01b03161415801561103357507f00000000000000000000000000000000000000000000000000000000000000006001600160a01b0316886001600160a01b031614155b1561119f57888160008151811061104657fe5b60200260200101906001600160a01b031690816001600160a01b0316815250507f00000000000000000000000000000000000000000000000000000000000000008160018151811061109457fe5b60200260200101906001600160a01b031690816001600160a01b03168152505087816002815181106110c257fe5b6001600160a01b03928316602091820292909201015260405163d06ca61f60e01b81527f00000000000000000000000000000000000000000000000000000000000000009091169063d06ca61f90611120908890859060040161351d565b60006040518083038186803b15801561113857600080fd5b505afa92505050801561116d57506040513d6000823e601f3d908101601f1916820160405261116a9190810190612d4a565b60015b6111975760408051600380825260808201909252906020820160608036833701905050915061119a565b91505b6111c1565b6040805160038082526080820190925290602082016060803683370190505091505b60405163d06ca61f60e01b81526000906001600160a01b037f0000000000000000000000000000000000000000000000000000000000000000169063d06ca61f90611212908990899060040161351d565b60006040518083038186803b15801561122a57600080fd5b505afa92505050801561125f57506040513d6000823e601f3d908101601f1916820160405261125c9190810190612d4a565b60015b61129f5760408051600280825260608201835290916020830190803683370190505093508260028151811061129057fe5b60200260200101519050611305565b809450846001815181106112af57fe5b6020026020010151846002815181106112c457fe5b6020026020010151116112eb57846001815181106112de57fe5b6020026020010151611301565b836002815181106112f857fe5b60200260200101515b9150505b60006113108b611f38565b9050600061131d8b611f38565b9050600061135261133285600a86900a611671565b61074e600a85900a61134c8d670de0b6b3a7640000611671565b90611671565b90506040518060a001604052808581526020018281526020016113768f8e87611fb4565b81526020016113868e8786611fb4565b815260200185156113b9578860018151811061139e57fe5b602002602001015186146113b257866113b4565b895b6113d7565b60408051600280825260608201835290916020830190803683375050505b905299505050505050505050505b9392505050565b6113f46126e6565b826001600160a01b0316846001600160a01b031614156114ca57600061142b61142461271061074e866009611671565b8490611f13565b9050600061143886611f38565b6040805160018082528183019092529192506060919060208083019080368337019050509050868160008151811061146c57fe5b6001600160a01b039092166020928302919091018201526040805160a081019091528481529081016114aa8561074e89670de0b6b3a7640000611671565b81526020016114ba898686611fb4565b8152602001610f13898886611fb4565b6060806114d886868661200d565b91509150600061153261150f61271061074e6009876000815181106114f957fe5b602002602001015161167190919063ffffffff16565b8460008151811061151c57fe5b6020026020010151611f1390919063ffffffff16565b9050600061153f88611f38565b9050600061154c88611f38565b9050600061157b61156185600a85900a611671565b61074e600a86900a61134c8c670de0b6b3a7640000611671565b90506040518060a0016040528085815260200182815260200161159f8c8787611fb4565b81526020016115af8b8b86611fb4565b815260200195909552509298975050505050505050565b6115ce612715565b6040516335ea6a7560e01b81526001600160a01b037f000000000000000000000000000000000000000000000000000000000000000016906335ea6a759061161a90859060040161327c565b6101806040518083038186803b15801561163357600080fd5b505afa158015611647573d6000803e3d6000fd5b505050506040513d601f19601f8201168201806040525081019061166b9190612dd6565b92915050565b6000826116805750600061166b565b8282028284828161168d57fe5b04146113e55760405162461bcd60e51b815260040161024b906134af565b60006113e583836040518060400160405280601a81526020017f536166654d6174683a206469766973696f6e206279207a65726f0000000000008152506123ca565b60608082156117c657604080516003808252608082019092529060208201606080368337019050509050858160008151811061172557fe5b60200260200101906001600160a01b031690816001600160a01b0316815250507f00000000000000000000000000000000000000000000000000000000000000008160018151811061177357fe5b60200260200101906001600160a01b031690816001600160a01b03168152505084816002815181106117a157fe5b60200260200101906001600160a01b031690816001600160a01b031681525050611843565b604080516002808252606082018352909160208301908036833701905050905085816000815181106117f457fe5b60200260200101906001600160a01b031690816001600160a01b031681525050848160018151811061182257fe5b60200260200101906001600160a01b031690816001600160a01b0316815250505b6040516307c0329d60e21b81526001600160a01b037f00000000000000000000000000000000000000000000000000000000000000001690631f00ca7490611891908790859060040161351d565b60006040518083038186803b1580156118a957600080fd5b505afa1580156118bd573d6000803e3d6000fd5b505050506040513d6000823e601f3d908101601f191682016040526118e59190810190612d4a565b9150505b949350505050565b6118fa81612401565b1561197e57836001600160a01b031663d505accf8430846000015185602001518660400151876060015188608001516040518863ffffffff1660e01b815260040161194b9796959493929190613310565b600060405180830381600087803b15801561196557600080fd5b505af1158015611979573d6000803e3d6000fd5b505050505b6119936001600160a01b038516843085612426565b604051631a4ca37b60e21b81526001600160a01b037f000000000000000000000000000000000000000000000000000000000000000016906369328dec906119e390889086903090600401613393565b602060405180830381600087803b1580156119fd57600080fd5b505af1158015611a11573d6000803e3d6000fd5b505050506040513d601f19601f82011682018060405250810190611a359190612df4565b505050505050565b600080611a4987611f38565b90506000611a5687611f38565b90506000611a638961244d565b90506000611a708961244d565b90506000611ab4611a85612710610bb8611f13565b611aae611a9686600a89900a611671565b61074e611aa787600a8c900a611671565b8d90611671565b906124ec565b9050808910611ad55760405162461bcd60e51b815260040161024b9061349f565b611b0a6001600160a01b038c167f00000000000000000000000000000000000000000000000000000000000000006000611dd2565b611b3e6001600160a01b038c167f00000000000000000000000000000000000000000000000000000000000000008b611dd2565b60608715611c16576040805160038082526080820190925290602082016060803683370190505090508b81600081518110611b7557fe5b60200260200101906001600160a01b031690816001600160a01b0316815250507f000000000000000000000000000000000000000000000000000000000000000081600181518110611bc357fe5b60200260200101906001600160a01b031690816001600160a01b0316815250508a81600281518110611bf157fe5b60200260200101906001600160a01b031690816001600160a01b031681525050611c93565b60408051600280825260608201835290916020830190803683370190505090508b81600081518110611c4457fe5b60200260200101906001600160a01b031690816001600160a01b0316815250508a81600181518110611c7257fe5b60200260200101906001600160a01b031690816001600160a01b0316815250505b604051634401edf760e11b81526060906001600160a01b037f00000000000000000000000000000000000000000000000000000000000000001690638803dbee90611cea908d908f9087903090429060040161353d565b600060405180830381600087803b158015611d0457600080fd5b505af1158015611d18573d6000803e3d6000fd5b505050506040513d6000823e601f3d908101601f19168201604052611d409190810190612d4a565b90507fa078c4190abe07940190effc1846be0ccf03ad6007bc9e93f9697d0b460befbb8d8d83600081518110611d7257fe5b602002602001015184600186510381518110611d8a57fe5b6020026020010151604051611da294939291906132db565b60405180910390a180600081518110611db757fe5b60200260200101519750505050505050505b95945050505050565b801580611e5a5750604051636eb1769f60e11b81526001600160a01b0384169063dd62ed3e90611e089030908690600401613298565b60206040518083038186803b158015611e2057600080fd5b505afa158015611e34573d6000803e3d6000fd5b505050506040513d601f19601f82011682018060405250810190611e589190612df4565b155b611e765760405162461bcd60e51b815260040161024b906134ef565b611ecc8363095ea7b360e01b8484604051602401611e95929190613378565b60408051601f198184030181529190526020810180516001600160e01b03166001600160e01b03199093169290921790915261255e565b505050565b60006113e583836040518060400160405280601e81526020017f536166654d6174683a207375627472616374696f6e206f766572666c6f770000815250612643565b6000828201838110156113e55760405162461bcd60e51b815260040161024b9061347f565b6000816001600160a01b031663313ce5676040518163ffffffff1660e01b815260040160206040518083038186803b158015611f7357600080fd5b505afa158015611f87573d6000803e3d6000fd5b505050506040513d601f19601f82011682018060405250810190611fab9190612e5c565b60ff1692915050565b600080611fd47310f7fc1f91ba351f9c629c5947ad69bd03c05b9661244d565b90506000611fe18661244d565b9050612003670de0b6b3a764000061074e8461134c600a89900a838b88611671565b9695505050505050565b604080516002808252606082810190935282918291816020016020820280368337019050509050858160008151811061204257fe5b60200260200101906001600160a01b031690816001600160a01b031681525050848160018151811061207057fe5b6001600160a01b0392909216602092830291909101820152604080516003808252608082019092526060928392839291820183803683370190505090507f00000000000000000000000000000000000000000000000000000000000000006001600160a01b0316896001600160a01b03161415801561212157507f00000000000000000000000000000000000000000000000000000000000000006001600160a01b0316886001600160a01b031614155b1561228d57888160008151811061213457fe5b60200260200101906001600160a01b031690816001600160a01b0316815250507f00000000000000000000000000000000000000000000000000000000000000008160018151811061218257fe5b60200260200101906001600160a01b031690816001600160a01b03168152505087816002815181106121b057fe5b6001600160a01b0392831660209182029290920101526040516307c0329d60e21b81527f000000000000000000000000000000000000000000000000000000000000000090911690631f00ca749061220e908a90859060040161351d565b60006040518083038186803b15801561222657600080fd5b505afa92505050801561225b57506040513d6000823e601f3d908101601f191682016040526122589190810190612d4a565b60015b61228557604080516003808252608082019092529060208201606080368337019050509150612288565b91505b6122af565b6040805160038082526080820190925290602082016060803683370190505091505b6040516307c0329d60e21b81526001600160a01b037f00000000000000000000000000000000000000000000000000000000000000001690631f00ca74906122fd908a90889060040161351d565b60006040518083038186803b15801561231557600080fd5b505afa92505050801561234a57506040513d6000823e601f3d908101601f191682016040526123479190810190612d4a565b60015b61235b5790945092506123c2915050565b8093508360008151811061236b57fe5b60200260200101518360008151811061238057fe5b60200260200101511080156123aa57508260008151811061239d57fe5b6020026020010151600014155b6123b55783856123b8565b82825b9650965050505050505b935093915050565b600081836123eb5760405162461bcd60e51b815260040161024b919061344e565b5060008385816123f757fe5b0495945050505050565b6000816040015160ff16826020015114801561241f57506020820151155b1592915050565b612447846323b872dd60e01b858585604051602401611e95939291906132b3565b50505050565b60405163b3596f0760e01b81526000906001600160a01b037f0000000000000000000000000000000000000000000000000000000000000000169063b3596f079061249c90859060040161327c565b60206040518083038186803b1580156124b457600080fd5b505afa1580156124c8573d6000803e3d6000fd5b505050506040513d601f19601f8201168201806040525081019061166b9190612df4565b60008215806124f9575081155b156125065750600061166b565b81611388198161251257fe5b0483111560405180604001604052806002815260200161068760f31b8152509061254f5760405162461bcd60e51b815260040161024b919061344e565b50506127109102611388010490565b612570826001600160a01b031661266f565b61258c5760405162461bcd60e51b815260040161024b906134ff565b60006060836001600160a01b0316836040516125a89190613270565b6000604051808303816000865af19150503d80600081146125e5576040519150601f19603f3d011682016040523d82523d6000602084013e6125ea565b606091505b50915091508161260c5760405162461bcd60e51b815260040161024b9061348f565b80511561244757808060200190518101906126279190612d7f565b6124475760405162461bcd60e51b815260040161024b906134df565b600081848411156126675760405162461bcd60e51b815260040161024b919061344e565b505050900390565b6000813f7fc5d2460186f7233c927e7db2dcc703c0e500b653ca82273b7bfad8045d85a4708181148015906118e9575050151592915050565b6040518060a0016040528060006001600160a01b0316815260200160008152602001600081526020016126d9612780565b8152600060209091015290565b6040518060a0016040528060008152602001600081526020016000815260200160008152602001606081525090565b6040518061018001604052806127296127ae565b815260006020820181905260408201819052606082018190526080820181905260a0820181905260c0820181905260e082018190526101008201819052610120820181905261014082018190526101609091015290565b6040805160a08101825260008082526020820181905291810182905260608101829052608081019190915290565b6040518060200160405280600081525090565b803561166b816136c7565b805161166b816136c7565b60008083601f8401126127e8578182fd5b50813567ffffffffffffffff8111156127ff578182fd5b60208301915083602082028301111561281757600080fd5b9250929050565b600082601f83011261282e578081fd5b815161284161283c826135ff565b6135d8565b9150818183526020840193506020830190508385602084028601111561286657600080fd5b60005b838110156128905761287b87836128bb565b83526020928301929190910190600101612869565b5050505092915050565b803561166b816136de565b805161166b816136de565b803561166b816136e7565b805161166b816136e7565b60008083601f8401126128d7578182fd5b50813567ffffffffffffffff8111156128ee578182fd5b60208301915083600182028301111561281757600080fd5b803561166b816136f0565b600060a08284031215612922578081fd5b50919050565b600060a08284031215612939578081fd5b61294360a06135d8565b9050600061295184846128b0565b908201526020612963848483016128b0565b90820152604061297584848301612ad7565b908201526060612987848483016128b0565b908201526080612999848483016128b0565b9082015292915050565b6000602082840312156129b4578081fd5b6129be60206135d8565b9050600061299984846128bb565b600061018082840312156129de578081fd5b6129e96101806135d8565b905060006129f784846129a3565b908201526020612a0984848301612ac1565b908201526040612a1b84848301612ac1565b908201526060612a2d84848301612ac1565b908201526080612a3f84848301612ac1565b9082015260a0612a5184848301612ac1565b9082015260c0612a6384848301612acc565b9082015260e0612a75848483016127cc565b90820152610100612a88848483016127cc565b90820152610120612a9b848483016127cc565b90820152610140612aae848483016127cc565b9082015261016061299984848301612ae2565b805161166b816136f9565b805161166b81613702565b803561166b8161370b565b805161166b8161370b565b600060208284031215612afe578081fd5b6113e5838284016127c1565b60008060008060008060008060006101208a8c031215612b28578485fd5b612b348b868c016127cc565b98506020612b448c828d016128bb565b9850506040612b558c828d016128bb565b9750506060612b668c828d016128bb565b9650506080612b778c828d016128bb565b95505060a0612b888c828d01612ae2565b94505060c0612b998c828d016128bb565b93505060e0612baa8c828d016128bb565b925050610100612bbc8c828d016128a5565b9150509295985092959850929598565b6000806000806000806000610160888a031215612be7578081fd5b612bf389828a016127c1565b96506020612c038a828b016127c1565b9650506040612c148a828b016128b0565b9550506060612c258a828b016128b0565b9450506080612c368a828b016128b0565b93505060a0612c478a828b01612911565b925050610140612c598a828b0161289a565b91505092959891949750929550565b600080600080600080600080600060a08a8c031215612c85578283fd5b828a013567ffffffffffffffff811115612c9d578384fd5b612ca98c828d016127d7565b995099505060208a013567ffffffffffffffff811115612cc7578384fd5b612cd38c828d016127d7565b975097505060408a013567ffffffffffffffff811115612cf1578384fd5b612cfd8c828d016127d7565b95509550506060612d108c828d016127c1565b93505060808a013567ffffffffffffffff811115612d2c578283fd5b612d388c828d016128c6565b92509250509295985092959850929598565b600060208284031215612d5b578081fd5b8082015167ffffffffffffffff811115612d73578182fd5b6118e98482850161281e565b600060208284031215612d90578081fd5b6113e5838284016128a5565b600060208284031215612dad578081fd5b6113e583828401612906565b600060a08284031215612dca578081fd5b6113e583828401612928565b60006101808284031215612de8578081fd5b6113e5838284016129cc565b600060208284031215612e05578081fd5b6113e5838284016128bb565b600080600060608486031215612e25578081fd5b612e31858286016128b0565b92506020612e41868287016127c1565b9250506040612e52868287016127c1565b9150509250925092565b600060208284031215612e6d578081fd5b6113e583828401612ae2565b6000612e858383612e9c565b505060200190565b612e9681613686565b82525050565b612e9681613637565b6000612eb082613625565b612eba8185613629565b9350612ec58361361f565b825b82811015612ef1578151612edb8782612e79565b965050612ee78261361f565b9150600101612ec7565b5093949350505050565b612e9681613642565b612e9681613647565b6000612f1882613625565b612f228185613632565b9350612f32818560208601613691565b9290920192915050565b612e968161364a565b6000612f5082613625565b612f5a8185613629565b9350612f6a818560208601613691565b612f73816136bd565b9093019392505050565b6000612f8a601b83613629565b7f43414c4c45525f4d5553545f42455f4c454e44494e475f504f4f4c000000000091810191909152602001919050565b6000612fc7602683613629565b7f4f776e61626c653a206e6577206f776e657220697320746865207a65726f2061918101919091526564647265737360d01b6020820152604001919050565b6000613013601b83613629565b7f536166654d6174683a206164646974696f6e206f766572666c6f77000000000091810191909152602001919050565b6000613050602083613629565b7f5361666545524332303a206c6f772d6c6576656c2063616c6c206661696c656491810191909152602001919050565b600061308d602383613629565b7f6d6178416d6f756e74546f5377617020657863656564206d617820736c697070918101919091526261676560e81b6020820152604001919050565b60006130d6602183613629565b7f536166654d6174683a206d756c7469706c69636174696f6e206f766572666c6f91810191909152607760f81b6020820152604001919050565b600061311d602083613629565b7f4f776e61626c653a2063616c6c6572206973206e6f7420746865206f776e657291810191909152602001919050565b600061315a601183613629565b700e6d8d2e0e0c2ceca40e8dede40d0d2ced607b1b91810191909152602001919050565b600061318b602a83613629565b7f5361666545524332303a204552433230206f7065726174696f6e20646964206e91810191909152691bdd081cdd58d8d9595960b21b6020820152604001919050565b60006131db603683613629565b7f5361666545524332303a20617070726f76652066726f6d206e6f6e2d7a65726f918101919091527520746f206e6f6e2d7a65726f20616c6c6f77616e636560501b6020820152604001919050565b6000613237601f83613629565b7f5361666545524332303a2063616c6c20746f206e6f6e2d636f6e74726163740091810191909152602001919050565b612e9681613680565b60006113e58284612f0d565b6020810161166b8284612e9c565b6020810161166b8284612e8d565b604081016132a68285612e9c565b6113e56020830184612e9c565b606081016132c18286612e9c565b6132ce6020830185612e9c565b6118e96040830184612f04565b608081016132e98287612e9c565b6132f66020830186612e9c565b6133036040830185612f04565b611dc96060830184612f04565b60e0810161331e828a612e9c565b61332b6020830189612e9c565b6133386040830188612f04565b6133456060830187612f04565b6133526080830186613267565b61335f60a0830185612f04565b61336c60c0830184612f04565b98975050505050505050565b604081016133868285612e9c565b6113e56020830184612f04565b606081016133a18286612e9c565b6133ae6020830185612f04565b6118e96040830184612e9c565b60a081016133c98288612e9c565b6133d66020830187612f04565b6133e36040830186612f04565b6133f06060830185612e8d565b6120036080830184612efb565b60a0810161340b8288612e9c565b6134186020830187612f04565b6134256040830186612f04565b6133f06060830185612e9c565b6020810161166b8284612efb565b6020810161166b8284612f3c565b602080825281016113e58184612f45565b6020808252810161166b81612f7d565b6020808252810161166b81612fba565b6020808252810161166b81613006565b6020808252810161166b81613043565b6020808252810161166b81613080565b6020808252810161166b816130c9565b6020808252810161166b81613110565b6020808252810161166b8161314d565b6020808252810161166b8161317e565b6020808252810161166b816131ce565b6020808252810161166b8161322a565b6020810161166b8284612f04565b6040810161352b8285612f04565b81810360208301526118e98184612ea5565b60a0810161354b8288612f04565b6135586020830187612f04565b818103604083015261356a8186612ea5565b90506135796060830185612e9c565b6120036080830184612f04565b60a081016135948288612f04565b6135a16020830187612f04565b6135ae6040830186612f04565b6135bb6060830185612f04565b81810360808301526135cd8184612ea5565b979650505050505050565b60405181810167ffffffffffffffff811182821017156135f757600080fd5b604052919050565b600067ffffffffffffffff821115613615578081fd5b5060209081020190565b60200190565b5190565b90815260200190565b919050565b600061166b8261366a565b151590565b90565b600061166b82613637565b6fffffffffffffffffffffffffffffffff1690565b6001600160a01b031690565b64ffffffffff1690565b60ff1690565b600061166b8261364a565b60005b838110156136ac578181015183820152602001613694565b838111156124475750506000910152565b601f01601f191690565b6136d081613637565b81146136db57600080fd5b50565b6136d081613642565b6136d081613647565b6136d08161364a565b6136d081613655565b6136d081613676565b6136d08161368056fea264697066735822122007eed45da72ad5a1621d1c2c3e968eb630cc50d0adda20cc420dcca2730781cb64736f6c634300060c0033",
    "linkReferences": {}
  },
  "methodIdentifiers": {
    "ADDRESSES_PROVIDER()": "0542975c",
    "FLASHLOAN_PREMIUM_TOTAL()": "074b2e43",
    "LENDING_POOL()": "b4dcfc77",
    "MAX_SLIPPAGE_PERCENT()": "32e4b286",
    "ORACLE()": "38013f02",
    "UNISWAP_ROUTER()": "d8264920",
    "USD_ADDRESS()": "9d1211bf",
    "WETH_ADDRESS()": "040141e5",
    "executeOperation(address[],uint256[],uint256[],address,bytes)": "920f5c84",
    "getAmountsIn(uint256,address,address)": "cdf58cd6",
    "getAmountsOut(uint256,address,address)": "baf7fa99",
    "owner()": "8da5cb5b",
    "renounceOwnership()": "715018a6",
    "rescueTokens(address)": "00ae3bf8",
    "swapAndRepay(address,address,uint256,uint256,uint256,(uint256,uint256,uint8,bytes32,bytes32),bool)": "e6813563",
    "transferOwnership(address)": "f2fde38b"
  },
  "id": 3
}