{
  "abi": [
    {
      "inputs": [
        {
          "internalType": "address payable",
          "name": "_pool",
          "type": "address"
        },
        {
          "internalType": "address",
          "name": "_addressesProvider",
          "type": "address"
        },
        {
          "internalType": "address",
          "name": "_poolConfigurator",
          "type": "address"
        }
      ],
      "stateMutability": "nonpayable",
      "type": "constructor"
    },
    {
      "anonymous": false,
      "inputs": [
        {
          "indexed": true,
          "internalType": "address",
          "name": "previousOwner",
          "type": "address"
        },
        {
          "indexed": true,
          "internalType": "address",
          "name": "newOwner",
          "type": "address"
        }
      ],
      "name": "OwnershipTransferred",
      "type": "event"
    },
    {
      "anonymous": false,
      "inputs": [
        {
          "indexed": false,
          "internalType": "address",
          "name": "aToken",
          "type": "address"
        },
        {
          "indexed": false,
          "internalType": "address",
          "name": "strategy",
          "type": "address"
        }
      ],
      "name": "deployedContracts",
      "type": "event"
    },
    {
      "inputs": [
        {
          "internalType": "address[]",
          "name": "assets",
          "type": "address[]"
        },
        {
          "internalType": "uint256[]",
          "name": "baseLTVs",
          "type": "uint256[]"
        },
        {
          "internalType": "uint256[]",
          "name": "liquidationThresholds",
          "type": "uint256[]"
        },
        {
          "internalType": "uint256[]",
          "name": "liquidationBonuses",
          "type": "uint256[]"
        },
        {
          "internalType": "uint256[]",
          "name": "reserveFactors",
          "type": "uint256[]"
        },
        {
          "internalType": "bool[]",
          "name": "stableBorrowingEnabled",
          "type": "bool[]"
        }
      ],
      "name": "configureReserves",
      "outputs": [],
      "stateMutability": "nonpayable",
      "type": "function"
    },
    {
      "inputs": [
        {
          "internalType": "address[]",
          "name": "assets",
          "type": "address[]"
        },
        {
          "internalType": "string[]",
          "name": "symbols",
          "type": "string[]"
        },
        {
          "internalType": "uint256[6][]",
          "name": "rates",
          "type": "uint256[6][]"
        },
        {
          "internalType": "address",
          "name": "treasuryAddress",
          "type": "address"
        },
        {
          "internalType": "address",
          "name": "incentivesController",
          "type": "address"
        }
      ],
      "name": "initDeployment",
      "outputs": [],
      "stateMutability": "nonpayable",
      "type": "function"
    },
    {
      "inputs": [
        {
          "internalType": "address[]",
          "name": "stables",
          "type": "address[]"
        },
        {
          "internalType": "address[]",
          "name": "variables",
          "type": "address[]"
        },
        {
          "internalType": "address[]",
          "name": "aTokens",
          "type": "address[]"
        },
        {
          "internalType": "address[]",
          "name": "strategies",
          "type": "address[]"
        },
        {
          "internalType": "uint8[]",
          "name": "reserveDecimals",
          "type": "uint8[]"
        }
      ],
      "name": "initReserve",
      "outputs": [],
      "stateMutability": "nonpayable",
      "type": "function"
    },
    {
      "inputs": [],
      "name": "owner",
      "outputs": [
        {
          "internalType": "address",
          "name": "",
          "type": "address"
        }
      ],
      "stateMutability": "view",
      "type": "function"
    },
    {
      "inputs": [],
      "name": "renounceOwnership",
      "outputs": [],
      "stateMutability": "nonpayable",
      "type": "function"
    },
    {
      "inputs": [
        {
          "internalType": "address",
          "name": "newOwner",
          "type": "address"
        }
      ],
      "name": "transferOwnership",
      "outputs": [],
      "stateMutability": "nonpayable",
      "type": "function"
    }
  ],
  "bytecode": {
    "object": "0x60806040523480156200001157600080fd5b5060405162004cdd38038062004cdd8339810160408190526200003491620000d1565b600062000040620000cd565b600080546001600160a01b0319166001600160a01b0383169081178255604051929350917f8be0079c531659141344cd1fd0a4f28419497f9722a3daafe3b4186f6b6457e0908290a350600180546001600160a01b039485166001600160a01b0319918216179091556002805493851693821693909317909255600380549190931691161790556200013d565b3390565b600080600060608486031215620000e6578283fd5b8351620000f38162000124565b6020850151909350620001068162000124565b6040850151909250620001198162000124565b809150509250925092565b6001600160a01b03811681146200013a57600080fd5b50565b614b90806200014d6000396000f3fe60806040523480156200001157600080fd5b50600436106200006a5760003560e01c8063715018a6146200006f5780637f11f88d146200007b5780638cd5cc6014620000925780638da5cb5b14620000a9578063f2fde38b14620000cb578063f62be74914620000e2575b600080fd5b62000079620000f9565b005b620000796200008c36600462000cb3565b62000186565b62000079620000a336600462000bbe565b6200043e565b620000b36200076f565b604051620000c2919062000ea8565b60405180910390f35b62000079620000dc36600462000a9e565b6200077e565b62000079620000f336600462000ac3565b6200083c565b62000103620009eb565b6000546001600160a01b039081169116146200013c5760405162461bcd60e51b815260040162000133906200107a565b60405180910390fd5b600080546040516001600160a01b03909116907f8be0079c531659141344cd1fd0a4f28419497f9722a3daafe3b4186f6b6457e0908390a3600080546001600160a01b0319169055565b62000190620009eb565b6000546001600160a01b03908116911614620001c05760405162461bcd60e51b815260040162000133906200107a565b888b14620001cd57600080fd5b868b14620001da57600080fd5b848b14620001e757600080fd5b808b14620001f457600080fd5b828b146200020157600080fd5b6003546001600160a01b031660005b8c8110156200042e57816001600160a01b0316637c4e560b8f8f848181106200023557fe5b90506020020160208101906200024c919062000a9e565b8e8e858181106200025957fe5b905060200201358d8d868181106200026d57fe5b905060200201358c8c878181106200028157fe5b905060200201356040518563ffffffff1660e01b8152600401620002a9949392919062000f3d565b600060405180830381600087803b158015620002c457600080fd5b505af1158015620002d9573d6000803e3d6000fd5b50505050816001600160a01b031663eede87c18f8f84818110620002f957fe5b905060200201602081019062000310919062000a9e565b8686858181106200031d57fe5b905060200201602081019062000334919062000e02565b6040518363ffffffff1660e01b81526004016200035392919062000f09565b600060405180830381600087803b1580156200036e57600080fd5b505af115801562000383573d6000803e3d6000fd5b50505050816001600160a01b0316634b4e67538f8f84818110620003a357fe5b9050602002016020810190620003ba919062000a9e565b888885818110620003c757fe5b905060200201356040518363ffffffff1660e01b8152600401620003ed92919062000f24565b600060405180830381600087803b1580156200040857600080fd5b505af11580156200041d573d6000803e3d6000fd5b505060019092019150620002109050565b5050505050505050505050505050565b62000448620009eb565b6000546001600160a01b03908116911614620004785760405162461bcd60e51b815260040162000133906200107a565b8685146200049a5760405162461bcd60e51b8152600401620001339062001043565b828514620004bc5760405162461bcd60e51b81526004016200013390620010af565b60005b8781101562000764576001547f1c1768aab1796270c7034dc781c2951065e6afb7a946269746521002443b8ea4906001600160a01b03168a8a848181106200050357fe5b90506020020160208101906200051a919062000a9e565b85620005b16040518060400160405280601781526020017f416761766520696e7465726573742062656172696e67200000000000000000008152508c8c888181106200056257fe5b9050602002810190620005769190620010e6565b8080601f016020809104026020016040519081016040528093929190818152602001838380828437600092019190915250620009ef92505050565b620005dd60405180604001604052806002815260200161616760f01b8152508d8d898181106200056257fe5b87604051620005ec9062000a1e565b620005fd9695949392919062000f9e565b604051809103906000f0801580156200061a573d6000803e3d6000fd5b506002546001600160a01b03168787858181106200063457fe5b905060c002016000600681106200064757fe5b60200201358888868181106200065957fe5b905060c002016001600681106200066c57fe5b60200201358989878181106200067e57fe5b905060c002016002600681106200069157fe5b60200201358a8a88818110620006a357fe5b905060c00201600360068110620006b657fe5b60200201358b8b89818110620006c857fe5b905060c00201600460068110620006db57fe5b60200201358c8c8a818110620006ed57fe5b905060c002016005600681106200070057fe5b6020020135604051620007139062000a2c565b62000725979695949392919062000f63565b604051809103906000f08015801562000742573d6000803e3d6000fd5b506040516200075392919062000ebc565b60405180910390a1600101620004bf565b505050505050505050565b6000546001600160a01b031690565b62000788620009eb565b6000546001600160a01b03908116911614620007b85760405162461bcd60e51b815260040162000133906200107a565b6001600160a01b038116620007e15760405162461bcd60e51b8152600401620001339062000ffd565b600080546040516001600160a01b03808516939216917f8be0079c531659141344cd1fd0a4f28419497f9722a3daafe3b4186f6b6457e091a3600080546001600160a01b0319166001600160a01b0392909216919091179055565b62000846620009eb565b6000546001600160a01b03908116911614620008765760405162461bcd60e51b815260040162000133906200107a565b8689146200088357600080fd5b8489146200089057600080fd5b8289146200089d57600080fd5b808914620008aa57600080fd5b60005b89811015620009de576003546001600160a01b0316636e801a71888884818110620008d457fe5b9050602002016020810190620008eb919062000a9e565b8d8d85818110620008f857fe5b90506020020160208101906200090f919062000a9e565b8c8c868181106200091c57fe5b905060200201602081019062000933919062000a9e565b8787878181106200094057fe5b905060200201602081019062000957919062000e24565b8a8a888181106200096457fe5b90506020020160208101906200097b919062000a9e565b6040518663ffffffff1660e01b81526004016200099d95949392919062000ed6565b600060405180830381600087803b158015620009b857600080fd5b505af1158015620009cd573d6000803e3d6000fd5b505060019092019150620008ad9050565b5050505050505050505050565b3390565b6060828260405160200162000a0692919062000e75565b60405160208183030381529060405290505b92915050565b612b84806200116283390190565b610e758062003ce683390190565b80356001600160a01b038116811462000a1857600080fd5b60008083601f84011262000a64578182fd5b50813567ffffffffffffffff81111562000a7c578182fd5b602083019150836020808302850101111562000a9757600080fd5b9250929050565b60006020828403121562000ab0578081fd5b62000abc838362000a3a565b9392505050565b60008060008060008060008060008060a08b8d03121562000ae2578586fd5b8a3567ffffffffffffffff8082111562000afa578788fd5b62000b088e838f0162000a52565b909c509a5060208d013591508082111562000b21578788fd5b62000b2f8e838f0162000a52565b909a50985060408d013591508082111562000b48578788fd5b62000b568e838f0162000a52565b909850965060608d013591508082111562000b6f578586fd5b62000b7d8e838f0162000a52565b909650945060808d013591508082111562000b96578384fd5b5062000ba58d828e0162000a52565b915080935050809150509295989b9194979a5092959850565b60008060008060008060008060a0898b03121562000bda578384fd5b883567ffffffffffffffff8082111562000bf2578586fd5b62000c008c838d0162000a52565b909a50985060208b013591508082111562000c19578586fd5b62000c278c838d0162000a52565b909850965060408b013591508082111562000c40578586fd5b818b0191508b601f83011262000c54578586fd5b81358181111562000c63578687fd5b8c602060c08302850101111562000c78578687fd5b60208301965080955050505062000c938a60608b0162000a3a565b915062000ca48a60808b0162000a3a565b90509295985092959890939650565b60008060008060008060008060008060008060c08d8f03121562000cd5578081fd5b67ffffffffffffffff8d35111562000ceb578081fd5b62000cfa8e8e358f0162000a52565b909c509a5067ffffffffffffffff60208e0135111562000d18578081fd5b62000d2a8e60208f01358f0162000a52565b909a50985067ffffffffffffffff60408e0135111562000d48578081fd5b62000d5a8e60408f01358f0162000a52565b909850965067ffffffffffffffff60608e0135111562000d78578081fd5b62000d8a8e60608f01358f0162000a52565b909650945067ffffffffffffffff60808e0135111562000da8578081fd5b62000dba8e60808f01358f0162000a52565b909450925067ffffffffffffffff60a08e0135111562000dd8578081fd5b62000dea8e60a08f01358f0162000a52565b81935080925050509295989b509295989b509295989b565b60006020828403121562000e14578081fd5b8135801515811462000abc578182fd5b60006020828403121562000e36578081fd5b813560ff8116811462000abc578182fd5b6000815180845262000e618160208601602086016200112e565b601f01601f19169290920160200192915050565b6000835162000e898184602088016200112e565b83519083019062000e9f8183602088016200112e565b01949350505050565b6001600160a01b0391909116815260200190565b6001600160a01b0392831681529116602082015260400190565b6001600160a01b0395861681529385166020850152918416604084015260ff166060830152909116608082015260a00190565b6001600160a01b039290921682521515602082015260400190565b6001600160a01b03929092168252602082015260400190565b6001600160a01b0394909416845260208401929092526040830152606082015260800190565b6001600160a01b03979097168752602087019590955260408601939093526060850191909152608084015260a083015260c082015260e00190565b600060018060a01b0380891683528088166020840152808716604084015260c0606084015262000fd260c084018762000e47565b838103608085015262000fe6818762000e47565b92505080841660a084015250979650505050505050565b60208082526026908201527f4f776e61626c653a206e6577206f776e657220697320746865207a65726f206160408201526564647265737360d01b606082015260800190565b60208082526018908201527f7420417272617973206e6f742073616d65206c656e6774680000000000000000604082015260600190565b6020808252818101527f4f776e61626c653a2063616c6c6572206973206e6f7420746865206f776e6572604082015260600190565b60208082526018908201527f7220417272617973206e6f742073616d65206c656e6774680000000000000000604082015260600190565b6000808335601e19843603018112620010fd578283fd5b83018035915067ffffffffffffffff82111562001118578283fd5b60200191503681900382131562000a9757600080fd5b60005b838110156200114b57818101518382015260200162001131565b838111156200115b576000848401525b5050505056fe610100604052600080553480156200001657600080fd5b5060405162002b8438038062002b84833981810160405260c08110156200003c57600080fd5b8151602083015160408085015160608601805192519496939591949391820192846401000000008211156200007057600080fd5b9083019060208201858111156200008657600080fd5b8251640100000000811182820188101715620000a157600080fd5b82525081516020918201929091019080838360005b83811015620000d0578181015183820152602001620000b6565b50505050905090810190601f168015620000fe5780820380516001836020036101000a031916815260200191505b50604052602001805160405193929190846401000000008211156200012257600080fd5b9083019060208201858111156200013857600080fd5b82516401000000008111828201881017156200015357600080fd5b82525081516020918201929091019080838360005b838110156200018257818101518382015260200162000168565b50505050905090810190601f168015620001b05780820380516001836020036101000a031916815260200191505b50604052602090810151855190935085925084916012918591620001da916037918701906200023b565b508251620001f09060389060208601906200023b565b506039805460ff90931660ff19909316929092179091556001600160601b0319606091821b811660805298811b891660e05296871b881660a0525050505050901b1660c052620002d7565b828054600181600116156101000203166002900490600052602060002090601f016020900481019282601f106200027e57805160ff1916838001178555620002ae565b82800160010185558215620002ae579182015b82811115620002ae57825182559160200191906001019062000291565b50620002bc929150620002c0565b5090565b5b80821115620002bc5760008155600101620002c1565b60805160601c60a05160601c60c05160601c60e05160601c6127fd62000387600039806107c652806109ce5280610dc05280610ea35280610f6b5280610fac5280611520528061172b5280611e785280611fd452508061105d528061109e52806110f4528061126a5250806109fd5280610e6f5280610ed2528061128e528061164e5280611ea75280611f85525080611ae95280611b1052806123bf52806123ed528061249d52506127fd6000f3fe608060405234801561001057600080fd5b50600436106101da5760003560e01c80637535d24611610104578063b16a19de116100a2578063d505accf11610071578063d505accf146105fa578063d7020d0a1461064b578063dd62ed3e14610687578063f866c319146106b5576101da565b8063b16a19de146105bc578063b1bf962d146105c4578063b9844d8d146105cc578063d0fc81d2146105f2576101da565b806395d89b41116100de57806395d89b4114610554578063a457c2d71461055c578063a9059cbb14610588578063ae167335146105b4576101da565b80637535d2461461050557806378160376146105295780637df5bd3b14610531576101da565b806323b872dd1161017c5780633644e5151161014b5780633644e5151461047f57806339509351146104875780634efecaa5146104b357806370a08231146104df576101da565b806323b872dd1461035557806330adf81f1461038b5780633118724e14610393578063313ce56714610461576101da565b80630bd7ad3b116101b85780630bd7ad3b146102db578063156e29f6146102f557806318160ddd146103275780631da24f3e1461032f576101da565b806306fdde03146101df578063095ea7b31461025c5780630afbcdc91461029c575b600080fd5b6101e76106eb565b6040805160208082528351818301528351919283929083019185019080838360005b83811015610221578181015183820152602001610209565b50505050905090810190601f16801561024e5780820380516001836020036101000a031916815260200191505b509250505060405180910390f35b6102886004803603604081101561027257600080fd5b506001600160a01b038135169060200135610782565b604080519115158252519081900360200190f35b6102c2600480360360208110156102b257600080fd5b50356001600160a01b03166107a0565b6040805192835260208301919091528051918290030190f35b6102e36107bd565b60408051918252519081900360200190f35b6102886004803603606081101561030b57600080fd5b506001600160a01b0381351690602081013590604001356107c2565b6102e36109ad565b6102e36004803603602081101561034557600080fd5b50356001600160a01b0316610a92565b6102886004803603606081101561036b57600080fd5b506001600160a01b03813581169160208101359091169060400135610a9d565b6102e3610b5d565b61045f600480360360608110156103a957600080fd5b60ff82351691908101906040810160208201356401000000008111156103ce57600080fd5b8201836020820111156103e057600080fd5b8035906020019184600183028401116401000000008311171561040257600080fd5b91939092909160208101903564010000000081111561042057600080fd5b82018360208201111561043257600080fd5b8035906020019184600183028401116401000000008311171561045457600080fd5b509092509050610b81565b005b610469610d5f565b6040805160ff9092168252519081900360200190f35b6102e3610d68565b6102886004803603604081101561049d57600080fd5b506001600160a01b038135169060200135610d6e565b6102e3600480360360408110156104c957600080fd5b506001600160a01b038135169060200135610dbc565b6102e3600480360360208110156104f557600080fd5b50356001600160a01b0316610e9c565b61050d610f69565b604080516001600160a01b039092168252519081900360200190f35b6101e7610f8d565b61045f6004803603604081101561054757600080fd5b5080359060200135610faa565b6101e7611142565b6102886004803603604081101561057257600080fd5b506001600160a01b0381351690602001356111a3565b6102886004803603604081101561059e57600080fd5b506001600160a01b03813516906020013561120b565b61050d611268565b61050d61128c565b6102e36112b0565b6102e3600480360360208110156105e257600080fd5b50356001600160a01b03166112bf565b6102e36112d1565b61045f600480360360e081101561061057600080fd5b506001600160a01b03813581169160208101359091169060408101359060608101359060ff6080820135169060a08101359060c001356112d7565b61045f6004803603608081101561066157600080fd5b506001600160a01b0381358116916020810135909116906040810135906060013561151e565b6102e36004803603604081101561069d57600080fd5b506001600160a01b03813581169160200135166116fe565b61045f600480360360608110156106cb57600080fd5b506001600160a01b03813581169160208101359091169060400135611729565b60378054604080516020601f60026000196101006001881615020190951694909404938401819004810282018101909252828152606093909290918301828280156107775780601f1061074c57610100808354040283529160200191610777565b820191906000526020600020905b81548152906001019060200180831161075a57829003601f168201915b505050505090505b90565b600061079661078f611818565b848461181c565b5060015b92915050565b6000806107ac83611908565b6107b4611923565b91509150915091565b600181565b60007f00000000000000000000000000000000000000000000000000000000000000006001600160a01b03166107f6611818565b6001600160a01b03161460405180604001604052806002815260200161323960f01b815250906108a45760405162461bcd60e51b81526004018080602001828103825283818151815260200191508051906020019080838360005b83811015610869578181015183820152602001610851565b50505050905090810190601f1680156108965780820380516001836020036101000a031916815260200191505b509250505060405180910390fd5b5060006108b085611908565b905060006108be8585611929565b6040805180820190915260028152611a9b60f11b6020820152909150816109265760405162461bcd60e51b8152602060048201818152835160248401528351909283926044909101919085019080838360008315610869578181015183820152602001610851565b506109318682611a30565b6040805186815290516001600160a01b038816916000916000805160206126ef8339815191529181900360200190a3604080518681526020810186905281516001600160a01b038916927f4c209b5fc8ad50758f13e2e1088ba56a560dff690a1c6fef26394f4c03821c4f928290030190a25015949350505050565b6000806109b8611923565b9050806109c957600091505061077f565b610a8c7f00000000000000000000000000000000000000000000000000000000000000006001600160a01b031663d15e00537f00000000000000000000000000000000000000000000000000000000000000006040518263ffffffff1660e01b815260040180826001600160a01b0316815260200191505060206040518083038186803b158015610a5957600080fd5b505afa158015610a6d573d6000803e3d6000fd5b505050506040513d6020811015610a8357600080fd5b50518290611bac565b91505090565b600061079a82611908565b6000610aaa848484611c6a565b610b1a84610ab6611818565b610b1585604051806060016040528060288152602001612699602891396001600160a01b038a16600090815260356020526040812090610af4611818565b6001600160a01b031681526020810191909152604001600020549190611c7c565b61181c565b826001600160a01b0316846001600160a01b03166000805160206126ef833981519152846040518082815260200191505060405180910390a35060019392505050565b7f6e71edae12b1b97f4d1f60370fef10105fa2faae0126114a169c64845d6126c981565b6000610b8b611cd6565b60015490915060ff1680610ba25750610ba2611cdb565b80610bae575060005481115b610be95760405162461bcd60e51b815260040180806020018281038252602e8152602001806126c1602e913960400191505060405180910390fd5b60015460ff16158015610c08576001805460ff19168117905560008290555b60004690507f8b73c3c69bb8fe3d512ecc4cf759cc79239f7b179b0ffacaa9a75d522b39400f87876040518083838082843760408051939091018390038320838201825260018452603160f81b602094850152815180850198909852878201527fc89efdaa54c0f20c7adf612882df0950f5a951637e0307cdcb4c672f298b8bc66060880152608087018890523060a0808901919091528151808903909101815260c08801808352815191850191909120603b5560e0601f8f01859004909402880184019091528c8152610cfc969095508d94508c93508392019050838280828437600092019190915250611ce192505050565b610d3b85858080601f016020809104026020016040519081016040528093929190818152602001838380828437600092019190915250611cf492505050565b610d4488611d07565b508015610d56576001805460ff191690555b50505050505050565b60395460ff1690565b603b5481565b6000610796610d7b611818565b84610b158560356000610d8c611818565b6001600160a01b03908116825260208083019390935260409182016000908120918c168152925290205490611d1d565b60007f00000000000000000000000000000000000000000000000000000000000000006001600160a01b0316610df0611818565b6001600160a01b03161460405180604001604052806002815260200161323960f01b81525090610e615760405162461bcd60e51b8152602060048201818152835160248401528351909283926044909101919085019080838360008315610869578181015183820152602001610851565b50610e966001600160a01b037f0000000000000000000000000000000000000000000000000000000000000000168484611d7e565b50919050565b600061079a7f00000000000000000000000000000000000000000000000000000000000000006001600160a01b031663d15e00537f00000000000000000000000000000000000000000000000000000000000000006040518263ffffffff1660e01b815260040180826001600160a01b0316815260200191505060206040518083038186803b158015610f2e57600080fd5b505afa158015610f42573d6000803e3d6000fd5b505050506040513d6020811015610f5857600080fd5b5051610f6384611908565b90611bac565b7f000000000000000000000000000000000000000000000000000000000000000081565b604051806040016040528060018152602001603160f81b81525081565b7f00000000000000000000000000000000000000000000000000000000000000006001600160a01b0316610fdc611818565b6001600160a01b03161460405180604001604052806002815260200161323960f01b8152509061104d5760405162461bcd60e51b8152602060048201818152835160248401528351909283926044909101919085019080838360008315610869578181015183820152602001610851565b50816110585761113e565b61108b7f00000000000000000000000000000000000000000000000000000000000000006110868484611929565b611a30565b6040805183815290516001600160a01b037f000000000000000000000000000000000000000000000000000000000000000016916000916000805160206126ef8339815191529181900360200190a3604080518381526020810183905281516001600160a01b037f000000000000000000000000000000000000000000000000000000000000000016927f4c209b5fc8ad50758f13e2e1088ba56a560dff690a1c6fef26394f4c03821c4f928290030190a25b5050565b60388054604080516020601f60026000196101006001881615020190951694909404938401819004810282018101909252828152606093909290918301828280156107775780601f1061074c57610100808354040283529160200191610777565b60006107966111b0611818565b84610b15856040518060600160405280602581526020016127a360259139603560006111da611818565b6001600160a01b03908116825260208083019390935260409182016000908120918d16815292529020549190611c7c565b600061121f611218611818565b8484611c6a565b826001600160a01b0316611231611818565b6001600160a01b03166000805160206126ef833981519152846040518082815260200191505060405180910390a350600192915050565b7f000000000000000000000000000000000000000000000000000000000000000081565b7f000000000000000000000000000000000000000000000000000000000000000081565b60006112ba611923565b905090565b603a6020526000908152604090205481565b60001981565b6001600160a01b038716611322576040805162461bcd60e51b815260206004820152600d60248201526c24a72b20a624a22fa7aba722a960991b604482015290519081900360640190fd5b8342111561136c576040805162461bcd60e51b815260206004820152601260248201527124a72b20a624a22fa2ac2824a920aa24a7a760711b604482015290519081900360640190fd5b6001600160a01b038088166000818152603a6020908152604080832054603b5482517f6e71edae12b1b97f4d1f60370fef10105fa2faae0126114a169c64845d6126c98186015280840196909652958c166060860152608085018b905260a0850181905260c08086018b90528251808703909101815260e08601835280519084012061190160f01b6101008701526101028601969096526101228086019690965281518086039096018652610142850180835286519684019690962093909552610162840180825283905260ff88166101828501526101a284018790526101c284018690525191926001926101e28083019392601f198301929081900390910190855afa158015611481573d6000803e3d6000fd5b505050602060405103516001600160a01b0316896001600160a01b0316146114e4576040805162461bcd60e51b8152602060048201526011602482015270494e56414c49445f5349474e415455524560781b604482015290519081900360640190fd5b6114ef826001611d1d565b6001600160a01b038a166000908152603a602052604090205561151389898961181c565b505050505050505050565b7f00000000000000000000000000000000000000000000000000000000000000006001600160a01b0316611550611818565b6001600160a01b03161460405180604001604052806002815260200161323960f01b815250906115c15760405162461bcd60e51b8152602060048201818152835160248401528351909283926044909101919085019080838360008315610869578181015183820152602001610851565b5060006115ce8383611929565b60408051808201909152600281526106a760f31b6020820152909150816116365760405162461bcd60e51b8152602060048201818152835160248401528351909283926044909101919085019080838360008315610869578181015183820152602001610851565b506116418582611dd0565b6116756001600160a01b037f0000000000000000000000000000000000000000000000000000000000000000168585611d7e565b6040805184815290516000916001600160a01b038816916000805160206126ef8339815191529181900360200190a3836001600160a01b0316856001600160a01b03167f5d624aa9c148153ab3446c1b154f660ee7701e549fe9b62dab7171b1c80e6fa28585604051808381526020018281526020019250505060405180910390a35050505050565b6001600160a01b03918216600090815260356020908152604080832093909416825291909152205490565b7f00000000000000000000000000000000000000000000000000000000000000006001600160a01b031661175b611818565b6001600160a01b03161460405180604001604052806002815260200161323960f01b815250906117cc5760405162461bcd60e51b8152602060048201818152835160248401528351909283926044909101919085019080838360008315610869578181015183820152602001610851565b506117da8383836000611e74565b816001600160a01b0316836001600160a01b03166000805160206126ef833981519152836040518082815260200191505060405180910390a3505050565b3390565b6001600160a01b0383166118615760405162461bcd60e51b81526004018080602001828103825260248152602001806127556024913960400191505060405180910390fd5b6001600160a01b0382166118a65760405162461bcd60e51b81526004018080602001828103825260228152602001806126516022913960400191505060405180910390fd5b6001600160a01b03808416600081815260356020908152604080832094871680845294825291829020859055815185815291517f8c5be1e5ebec7d5bd14f71427d1e84f3dd0314c0f7b2291e5b200ac8c7c3b9259281900390910190a3505050565b6001600160a01b031660009081526034602052604090205490565b60365490565b604080518082019091526002815261035360f41b6020820152600090826119915760405162461bcd60e51b8152602060048201818152835160248401528351909283926044909101919085019080838360008315610869578181015183820152602001610851565b5060408051808201909152600280825261068760f31b60208301528304906b033b2e3c9fd0803ce8000000821904851115611a0d5760405162461bcd60e51b8152602060048201818152835160248401528351909283926044909101919085019080838360008315610869578181015183820152602001610851565b5082816b033b2e3c9fd0803ce800000086020181611a2757fe5b04949350505050565b6001600160a01b038216611a8b576040805162461bcd60e51b815260206004820152601f60248201527f45524332303a206d696e7420746f20746865207a65726f206164647265737300604482015290519081900360640190fd5b611a9760008383611c77565b603654611aa48183611d1d565b6036556001600160a01b038316600090815260346020526040902054611aca8184611d1d565b6001600160a01b038086166000908152603460205260409020919091557f00000000000000000000000000000000000000000000000000000000000000001615611ba6577f00000000000000000000000000000000000000000000000000000000000000006001600160a01b03166331873e2e8584846040518463ffffffff1660e01b815260040180846001600160a01b031681526020018381526020018281526020019350505050600060405180830381600087803b158015611b8d57600080fd5b505af1158015611ba1573d6000803e3d6000fd5b505050505b50505050565b6000821580611bb9575081155b15611bc65750600061079a565b816b019d971e4fe8401e740000001981611bdc57fe5b0483111560405180604001604052806002815260200161068760f31b81525090611c475760405162461bcd60e51b8152602060048201818152835160248401528351909283926044909101919085019080838360008315610869578181015183820152602001610851565b50506b033b2e3c9fd0803ce800000091026b019d971e4fe8401e74000000010490565b611c778383836001611e74565b505050565b60008184841115611cce5760405162461bcd60e51b8152602060048201818152835160248401528351909283926044909101919085019080838360008315610869578181015183820152602001610851565b505050900390565b600190565b303b1590565b805161113e906037906020840190612578565b805161113e906038906020840190612578565b6039805460ff191660ff92909216919091179055565b600082820183811015611d77576040805162461bcd60e51b815260206004820152601b60248201527f536166654d6174683a206164646974696f6e206f766572666c6f770000000000604482015290519081900360640190fd5b9392505050565b604080516001600160a01b038416602482015260448082018490528251808303909101815260649091019091526020810180516001600160e01b031663a9059cbb60e01b179052611c77908490612093565b6001600160a01b038216611e155760405162461bcd60e51b815260040180806020018281038252602181526020018061270f6021913960400191505060405180910390fd5b611e2182600083611c77565b603654611e2e818361224b565b6036556001600160a01b0383166000908152603460209081526040918290205482516060810190935260228084529092611aca9286929061262f90830139839190611c7c565b60007f00000000000000000000000000000000000000000000000000000000000000006001600160a01b031663d15e00537f00000000000000000000000000000000000000000000000000000000000000006040518263ffffffff1660e01b815260040180826001600160a01b0316815260200191505060206040518083038186803b158015611f0357600080fd5b505afa158015611f17573d6000803e3d6000fd5b505050506040513d6020811015611f2d57600080fd5b505190506000611f4082610f6388611908565b90506000611f5183610f6388611908565b9050611f678787611f628887611929565b61228d565b8315612037576040805163d5ed393360e01b81526001600160a01b037f00000000000000000000000000000000000000000000000000000000000000008116600483015289811660248301528881166044830152606482018890526084820185905260a4820184905291517f00000000000000000000000000000000000000000000000000000000000000009092169163d5ed39339160c48082019260009290919082900301818387803b15801561201e57600080fd5b505af1158015612032573d6000803e3d6000fd5b505050505b856001600160a01b0316876001600160a01b03167f4beccb90f994c31aced7a23b5611020728a23d8ec5cddd1a3e9d97b96fda86668786604051808381526020018281526020019250505060405180910390a350505050505050565b6120a5826001600160a01b031661253c565b6120f6576040805162461bcd60e51b815260206004820152601f60248201527f5361666545524332303a2063616c6c20746f206e6f6e2d636f6e747261637400604482015290519081900360640190fd5b60006060836001600160a01b0316836040518082805190602001908083835b602083106121345780518252601f199092019160209182019101612115565b6001836020036101000a0380198251168184511680821785525050505050509050019150506000604051808303816000865af19150503d8060008114612196576040519150601f19603f3d011682016040523d82523d6000602084013e61219b565b606091505b5091509150816121f2576040805162461bcd60e51b815260206004820181905260248201527f5361666545524332303a206c6f772d6c6576656c2063616c6c206661696c6564604482015290519081900360640190fd5b805115611ba65780806020019051602081101561220e57600080fd5b5051611ba65760405162461bcd60e51b815260040180806020018281038252602a815260200180612779602a913960400191505060405180910390fd5b6000611d7783836040518060400160405280601e81526020017f536166654d6174683a207375627472616374696f6e206f766572666c6f770000815250611c7c565b6001600160a01b0383166122d25760405162461bcd60e51b81526004018080602001828103825260258152602001806127306025913960400191505060405180910390fd5b6001600160a01b0382166123175760405162461bcd60e51b815260040180806020018281038252602381526020018061260c6023913960400191505060405180910390fd5b612322838383611c77565b600060346000856001600160a01b03166001600160a01b031681526020019081526020016000205490506123718260405180606001604052806026815260200161267360269139839190611c7c565b6001600160a01b0380861660009081526034602052604080822093909355908516815220546123a08184611d1d565b6001600160a01b038086166000908152603460205260409020919091557f0000000000000000000000000000000000000000000000000000000000000000161561253557600060365490507f00000000000000000000000000000000000000000000000000000000000000006001600160a01b03166331873e2e8783866040518463ffffffff1660e01b815260040180846001600160a01b031681526020018381526020018281526020019350505050600060405180830381600087803b15801561246a57600080fd5b505af115801561247e573d6000803e3d6000fd5b50505050846001600160a01b0316866001600160a01b031614612533577f00000000000000000000000000000000000000000000000000000000000000006001600160a01b03166331873e2e8683856040518463ffffffff1660e01b815260040180846001600160a01b031681526020018381526020018281526020019350505050600060405180830381600087803b15801561251a57600080fd5b505af115801561252e573d6000803e3d6000fd5b505050505b505b5050505050565b6000813f7fc5d2460186f7233c927e7db2dcc703c0e500b653ca82273b7bfad8045d85a47081811480159061257057508115155b949350505050565b828054600181600116156101000203166002900490600052602060002090601f016020900481019282601f106125b957805160ff19168380011785556125e6565b828001600101855582156125e6579182015b828111156125e65782518255916020019190600101906125cb565b506125f29291506125f6565b5090565b5b808211156125f257600081556001016125f756fe45524332303a207472616e7366657220746f20746865207a65726f206164647265737345524332303a206275726e20616d6f756e7420657863656564732062616c616e636545524332303a20617070726f766520746f20746865207a65726f206164647265737345524332303a207472616e7366657220616d6f756e7420657863656564732062616c616e636545524332303a207472616e7366657220616d6f756e74206578636565647320616c6c6f77616e6365436f6e747261637420696e7374616e63652068617320616c7265616479206265656e20696e697469616c697a6564ddf252ad1be2c89b69c2b068fc378daa952ba7f163c4a11628f55a4df523b3ef45524332303a206275726e2066726f6d20746865207a65726f206164647265737345524332303a207472616e736665722066726f6d20746865207a65726f206164647265737345524332303a20617070726f76652066726f6d20746865207a65726f20616464726573735361666545524332303a204552433230206f7065726174696f6e20646964206e6f74207375636365656445524332303a2064656372656173656420616c6c6f77616e63652062656c6f77207a65726fa26469706673582212209dbaf3b9c7c81e875c176db610dbcb1deaac4e9e4e95752fc83c67bffda1d7ed64736f6c634300060c003361018060405234801561001157600080fd5b50604051610e75380380610e75833981810160405260e081101561003457600080fd5b5080516020808301516040840151606085015160808087015160a088015160c0909801519185905295969395929491939161008e90879061007c9061070c6100c3821b17901c565b6100d360201b61071c1790919060201c565b60a05260609690961b6001600160601b03191660c05260e09390935261010091909152610120526101405250610160526101b9565b6b033b2e3c9fd0803ce800000090565b600061011b83836040518060400160405280601e81526020017f536166654d6174683a207375627472616374696f6e206f766572666c6f77000081525061012260201b60201c565b9392505050565b600081848411156101b15760405162461bcd60e51b81526004018080602001828103825283818151815260200191508051906020019080838360005b8381101561017657818101518382015260200161015e565b50505050905090810190601f1680156101a35780820380516001836020036101000a031916815260200191505b509250505060405180910390fd5b505050900390565b60805160a05160c05160601c60e05161010051610120516101405161016051610c0761026e6000398061046852806106ea52508061017d528061049852806105755250806101c5528061021252806104c95250806101e95280610257528061051452806105d752508061023652806104f352806105fd52806106a25250806102e252806106c65250806101a1528061040f5250806103e25280610434528061054f52806105b2528061067e5250610c076000f3fe608060405234801561001057600080fd5b506004361061009e5760003560e01c80639584df28116100665780639584df28146100dd578063a15f30ac1461013f578063b258954414610147578063c72c4d101461014f578063ccab01a3146101735761009e565b80630bdf953f146100a357806317319873146100bd57806365614f81146100c55780637b832f58146100cd57806380031e37146100d5575b600080fd5b6100ab61017b565b60408051918252519081900360200190f35b6100ab61019f565b6100ab6101c3565b6100ab6101e7565b6100ab61020b565b610121600480360360c08110156100f357600080fd5b506001600160a01b038135169060208101359060408101359060608101359060808101359060a00135610286565b60408051938452602084019290925282820152519081900360600190f35b6100ab61067c565b6100ab6106a0565b6101576106c4565b604080516001600160a01b039092168252519081900360200190f35b6100ab6106e8565b7f000000000000000000000000000000000000000000000000000000000000000090565b7f000000000000000000000000000000000000000000000000000000000000000081565b7f000000000000000000000000000000000000000000000000000000000000000090565b7f000000000000000000000000000000000000000000000000000000000000000090565b60006102817f000000000000000000000000000000000000000000000000000000000000000061027b7f00000000000000000000000000000000000000000000000000000000000000007f0000000000000000000000000000000000000000000000000000000000000000610767565b90610767565b905090565b6000806000610293610ba2565b61029d8888610767565b808252600060208301819052604083018190526060830181905290156102db5781516102d6906102ce908c90610767565b8351906107c1565b6102de565b60005b90507f00000000000000000000000000000000000000000000000000000000000000006001600160a01b0316633618abba6040518163ffffffff1660e01b815260040160206040518083038186803b15801561033957600080fd5b505afa15801561034d573d6000803e3d6000fd5b505050506040513d602081101561036357600080fd5b50516040805163bb85c0bb60e01b81526001600160a01b038e811660048301529151919092169163bb85c0bb916024808301926020929190829003018186803b1580156103af57600080fd5b505afa1580156103c3573d6000803e3d6000fd5b505050506040513d60208110156103d957600080fd5b505160408301527f000000000000000000000000000000000000000000000000000000000000000081111561054357600061045e7f0000000000000000000000000000000000000000000000000000000000000000610458847f000000000000000000000000000000000000000000000000000000000000000061071c565b906107c1565b90506104bc61048d7f000000000000000000000000000000000000000000000000000000000000000083610905565b604085015161027b907f0000000000000000000000000000000000000000000000000000000000000000610767565b60408401526105386104ee7f000000000000000000000000000000000000000000000000000000000000000083610905565b61027b7f00000000000000000000000000000000000000000000000000000000000000007f0000000000000000000000000000000000000000000000000000000000000000610767565b602084015250610628565b6105a561059a610573837f00000000000000000000000000000000000000000000000000000000000000006107c1565b7f000000000000000000000000000000000000000000000000000000000000000090610905565b604084015190610767565b60408301526106226105fb7f0000000000000000000000000000000000000000000000000000000000000000610458847f0000000000000000000000000000000000000000000000000000000000000000610905565b7f000000000000000000000000000000000000000000000000000000000000000090610767565b60208301525b6106576106376127108861071c565b6106518361064b8d8d88602001518e6109c6565b90610905565b90610a2d565b606083018190526040830151602090930151909c929b50995090975050505050505050565b7f000000000000000000000000000000000000000000000000000000000000000081565b7f000000000000000000000000000000000000000000000000000000000000000090565b7f000000000000000000000000000000000000000000000000000000000000000081565b7f000000000000000000000000000000000000000000000000000000000000000090565b6b033b2e3c9fd0803ce800000090565b600061075e83836040518060400160405280601e81526020017f536166654d6174683a207375627472616374696f6e206f766572666c6f770000815250610aca565b90505b92915050565b60008282018381101561075e576040805162461bcd60e51b815260206004820152601b60248201527f536166654d6174683a206164646974696f6e206f766572666c6f770000000000604482015290519081900360640190fd5b604080518082019091526002815261035360f41b6020820152600090826108665760405162461bcd60e51b81526004018080602001828103825283818151815260200191508051906020019080838360005b8381101561082b578181015183820152602001610813565b50505050905090810190601f1680156108585780820380516001836020036101000a031916815260200191505b509250505060405180910390fd5b5060408051808201909152600280825261068760f31b60208301528304906b033b2e3c9fd0803ce80000008219048511156108e25760405162461bcd60e51b815260206004820181815283516024840152835190928392604490910191908501908083836000831561082b578181015183820152602001610813565b5082816b033b2e3c9fd0803ce8000000860201816108fc57fe5b04949350505050565b6000821580610912575081155b1561091f57506000610761565b816b019d971e4fe8401e74000000198161093557fe5b0483111560405180604001604052806002815260200161068760f31b815250906109a05760405162461bcd60e51b815260206004820181815283516024840152835190928392604490910191908501908083836000831561082b578181015183820152602001610813565b506b033b2e3c9fd0803ce80000006002815b0483850201816109be57fe5b049392505050565b6000806109d38686610767565b9050806109e4576000915050610a25565b60006109f38561064b88610b24565b90506000610a048561064b8a610b24565b90506000610a1e610a1485610b24565b6104588585610767565b9450505050505b949350505050565b6000821580610a3a575081155b15610a4757506000610761565b816113881981610a5357fe5b0483111560405180604001604052806002815260200161068760f31b81525090610abe5760405162461bcd60e51b815260206004820181815283516024840152835190928392604490910191908501908083836000831561082b578181015183820152602001610813565b506127106002816109b2565b60008184841115610b1c5760405162461bcd60e51b815260206004820181815283516024840152835190928392604490910191908501908083836000831561082b578181015183820152602001610813565b505050900390565b6000633b9aca0082810290839082041460405180604001604052806002815260200161068760f31b81525090610b9b5760405162461bcd60e51b815260206004820181815283516024840152835190928392604490910191908501908083836000831561082b578181015183820152602001610813565b5092915050565b6040518060a001604052806000815260200160008152602001600081526020016000815260200160008152509056fea2646970667358221220c878d38e5a4149512b53ac46bbbc6d3410992cb7c1b58fb00051efe207fe9c4764736f6c634300060c0033a2646970667358221220c8bf4702f623c3adef2b9733234f6bac62bda61cc4b59eae3b91923e6f33c54464736f6c634300060c0033",
    "linkReferences": {}
  },
  "methodIdentifiers": {
    "configureReserves(address[],uint256[],uint256[],uint256[],uint256[],bool[])": "7f11f88d",
    "initDeployment(address[],string[],uint256[6][],address,address)": "8cd5cc60",
    "initReserve(address[],address[],address[],address[],uint8[])": "f62be749",
    "owner()": "8da5cb5b",
    "renounceOwnership()": "715018a6",
    "transferOwnership(address)": "f2fde38b"
  },
  "id": 21
}