{
  "abi": [
    {
      "inputs": [],
      "name": "REBALANCE_UP_LIQUIDITY_RATE_THRESHOLD",
      "outputs": [
        {
          "internalType": "uint256",
          "name": "",
          "type": "uint256"
        }
      ],
      "stateMutability": "view",
      "type": "function"
    },
    {
      "inputs": [],
      "name": "REBALANCE_UP_USAGE_RATIO_THRESHOLD",
      "outputs": [
        {
          "internalType": "uint256",
          "name": "",
          "type": "uint256"
        }
      ],
      "stateMutability": "view",
      "type": "function"
    }
  ],
  "bytecode": {
    "object": "0x6122e7610026600b82828239805160001a60731461001957fe5b30600052607381538281f3fe730000000000000000000000000000000000000000301460806040526004361061009d5760003560e01c80635fa297e5116100705780635fa297e5146100fb578063a8695b1d1461010e578063abfcc86a14610121578063d09db04a14610129578063fa0c21491461013c5761009d565b80630eca322b146100a257806354245e02146100b7578063548cad09146100ca5780635494eb8a146100dd575b600080fd5b6100b56100b0366004611f3a565b61014f565b005b6100b56100c5366004611c61565b610217565b6100b56100d8366004611e61565b610709565b6100e56109ff565b6040516100f291906121d5565b60405180910390f35b6100b5610109366004611e18565b610a0f565b6100b561011c366004611ed4565b610bb4565b6100e5610e4d565b6100b5610137366004611d4d565b610e53565b6100b561014a366004611f72565b610ff1565b60008061015b84611137565b50506040805180820190915260018152603160f81b60208201529193509150836101a15760405162461bcd60e51b815260040161019891906121a4565b60405180910390fd5b506040805180820190915260018152601960f91b6020820152826101d85760405162461bcd60e51b815260040161019891906121a4565b506040805180820190915260018152603360f81b602082015281156102105760405162461bcd60e51b815260040161019891906121a4565b5050505050565b61021f611b18565b6001600160a01b038c16600090815260208790526040902061024081611137565b151561014086015215156101208501521515610100840152151560e083018190526040805180820190915260018152601960f91b6020820152906102975760405162461bcd60e51b815260040161019891906121a4565b5081610100015115604051806040016040528060018152602001603360f81b815250906102d75760405162461bcd60e51b815260040161019891906121a4565b506040805180820190915260018152603160f81b60208201528b61030e5760405162461bcd60e51b815260040161019891906121a4565b50816101200151604051806040016040528060018152602001603760f81b8152509061034d5760405162461bcd60e51b815260040161019891906121a4565b50886002148061035d5750886001145b604051806040016040528060018152602001600760fb1b815250906103955760405162461bcd60e51b815260040161019891906121a4565b506040805160208101909152865481526103b5908d90899088888861116f565b60c08701526020808701919091529085526080850191909152606084018290526040805180820190915260018152603960f81b918101919091529061040d5760405162461bcd60e51b815260040161019891906121a4565b50670de0b6b3a76400008260c001511160405180604001604052806002815260200161031360f41b815250906104565760405162461bcd60e51b815260040161019891906121a4565b5081516080830151610473919061046d908d611636565b90611664565b6040808401829052606084015181518083019092526002825261313160f01b6020830152909111156104b85760405162461bcd60e51b815260040161019891906121a4565b5060018914156106fa5781610140015160405180604001604052806002815260200161189960f11b815250906105015760405162461bcd60e51b815260040161019891906121a4565b50600781015460408051602081019091528754815261052991600160a01b900460ff166116fb565b158061053b575061053981611753565b155b806105d757508060040160009054906101000a90046001600160a01b03166001600160a01b03166370a082318d6040518263ffffffff1660e01b81526004016105849190612111565b60206040518083038186803b15801561059c57600080fd5b505afa1580156105b0573d6000803e3d6000fd5b505050506040513d601f19601f820116820180604052508101906105d49190611ff7565b8b115b60405180604001604052806002815260200161313360f01b815250906106105760405162461bcd60e51b815260040161019891906121a4565b508c6001600160a01b03166370a082318260040160009054906101000a90046001600160a01b03166040518263ffffffff1660e01b81526004016106549190612111565b60206040518083038186803b15801561066c57600080fd5b505afa158015610680573d6000803e3d6000fd5b505050506040513d601f19601f820116820180604052508101906106a49190611ff7565b60a083018190526000906106b8908a61175b565b9050808c1115604051806040016040528060028152602001610c4d60f21b815250906106f75760405162461bcd60e51b815260040161019891906121a4565b50505b50505050505050505050505050565b600061071486611137565b505050905080604051806040016040528060018152602001601960f91b815250906107525760405162461bcd60e51b815260040161019891906121a4565b506000610848610843856001600160a01b03166318160ddd6040518163ffffffff1660e01b815260040160206040518083038186803b15801561079457600080fd5b505afa1580156107a8573d6000803e3d6000fd5b505050506040513d601f19601f820116820180604052508101906107cc9190611ff7565b876001600160a01b03166318160ddd6040518163ffffffff1660e01b815260040160206040518083038186803b15801561080557600080fd5b505afa158015610819573d6000803e3d6000fd5b505050506040513d601f19601f8201168201806040525081019061083d9190611ff7565b90611636565b6117cd565b905060006108cb876001600160a01b03166370a08231866040518263ffffffff1660e01b815260040161087b9190612111565b60206040518083038186803b15801561089357600080fd5b505afa1580156108a7573d6000803e3d6000fd5b505050506040513d601f19601f820116820180604052508101906108439190611ff7565b9050600082156108ee576108e96108e28385611636565b849061181d565b6108f1565b60005b60028a015460078b0154604080516380031e3760e01b815290519394506fffffffffffffffffffffffffffffffff909216926000926001600160a01b03909216916380031e37916004808301926020929190829003018186803b15801561095757600080fd5b505afa15801561096b573d6000803e3d6000fd5b505050506040513d601f19601f8201168201806040525081019061098f9190611ff7565b90506b0311d253316c79d37600000083101580156109b857506109b481610fa061175b565b8211155b60405180604001604052806002815260200161191960f11b815250906109f15760405162461bcd60e51b815260040161019891906121a4565b505050505050505050505050565b6b0311d253316c79d37600000081565b6004808901546040516370a0823160e01b81526000926001600160a01b03909216916370a0823191610a439133910161211f565b60206040518083038186803b158015610a5b57600080fd5b505afa158015610a6f573d6000803e3d6000fd5b505050506040513d601f19601f82011682018060405250810190610a939190611ff7565b90506000811160405180604001604052806002815260200161313960f01b81525090610ad25760405162461bcd60e51b815260040161019891906121a4565b508680610b6f5750604051633985c10960e21b815273__$52a8a86ab43135662ff256bbc95497e8e3$__9063e617042490610b1f908b90339086908c908c908c908c908c9060040161212d565b60206040518083038186803b158015610b3757600080fd5b505af4158015610b4b573d6000803e3d6000fd5b505050506040513d601f19601f82011682018060405250810190610b6f9190611dfb565b60405180604001604052806002815260200161032360f41b81525090610ba85760405162461bcd60e51b815260040161019891906121a4565b50505050505050505050565b60008080610bc188611137565b9350509250925082604051806040016040528060018152602001601960f91b81525090610c015760405162461bcd60e51b815260040161019891906121a4565b506040805180820190915260018152603360f81b60208201528215610c395760405162461bcd60e51b815260040161019891906121a4565b506001846002811115610c4857fe5b1415610c8b57604080518082019091526002815261313760f01b602082015286610c855760405162461bcd60e51b815260040161019891906121a4565b50610e43565b6002846002811115610c9957fe5b1415610e1457604080518082019091526002815261062760f31b602082015285610cd65760405162461bcd60e51b815260040161019891906121a4565b50604080518082019091526002815261189960f11b602082015281610d0e5760405162461bcd60e51b815260040161019891906121a4565b506007880154604080516020810190915288548152610d3691600160a01b900460ff166116fb565b1580610d485750610d4688611753565b155b80610ddb57506004808901546040516370a0823160e01b81526001600160a01b03909116916370a0823191610d7f9133910161211f565b60206040518083038186803b158015610d9757600080fd5b505afa158015610dab573d6000803e3d6000fd5b505050506040513d601f19601f82011682018060405250810190610dcf9190611ff7565b610dd98787611636565b115b60405180604001604052806002815260200161313360f01b81525090610c855760405162461bcd60e51b815260040161019891906121a4565b60408051808201825260018152600760fb1b6020820152905162461bcd60e51b815261019891906004016121a4565b5050505050505050565b610fa081565b6040805180820190915260018152603160f81b602082015287610e895760405162461bcd60e51b815260040161019891906121a4565b506040805180820190915260018152603560f81b602082015286881115610ec35760405162461bcd60e51b815260040161019891906121a4565b506001600160a01b0388166000908152602086905260408120610ee590611137565b505050905080604051806040016040528060018152602001601960f91b81525090610f235760405162461bcd60e51b815260040161019891906121a4565b50604051633985c10960e21b815273__$52a8a86ab43135662ff256bbc95497e8e3$__9063e617042490610f69908c9033908d908c908c908c908c908c9060040161212d565b60206040518083038186803b158015610f8157600080fd5b505af4158015610f95573d6000803e3d6000fd5b505050506040513d601f19601f82011682018060405250810190610fb99190611dfb565b604051806040016040528060018152602001601b60f91b81525090610ba85760405162461bcd60e51b815260040161019891906121a4565b6000610ffc876118bf565b905080604051806040016040528060018152602001601960f91b815250906110375760405162461bcd60e51b815260040161019891906121a4565b506040805180820190915260018152603160f81b60208201528661106e5760405162461bcd60e51b815260040161019891906121a4565b5060008311801561108a5750600185600281111561108857fe5b145b806110ab57506000821180156110ab575060028560028111156110a957fe5b145b60405180604001604052806002815260200161313560f01b815250906110e45760405162461bcd60e51b815260040161019891906121a4565b50600019861415806110fe5750336001600160a01b038516145b60405180604001604052806002815260200161189b60f11b81525090610e435760405162461bcd60e51b815260040161019891906121a4565b54600160381b811615159167020000000000000082161515916704000000000000008116151591670800000000000000909116151590565b600080600080600061117f611b7a565b6111888a6118cb565b156111a6576000806000806000199550955095509550955050611628565b600060e08201525b878160e0015110156115875760e08101516111ca908b906118d0565b6111d357611577565b60e0810151600090815260208a81526040808320546001600160a01b03166101e085018190528352908d9052902061120a81611921565b506080860181905260c08601929092525060a0840191909152600a0a60208301526101e082015160405163b3596f0760e01b81526001600160a01b038a169163b3596f079161125c9190600401612111565b60206040518083038186803b15801561127457600080fd5b505afa158015611288573d6000803e3d6000fd5b505050506040513d601f19601f820116820180604052508101906112ac9190611ff7565b825260c0820151158015906112cc575060e08201516112cc908c906116fb565b156113f0578060040160009054906101000a90046001600160a01b03166001600160a01b03166370a082318e6040518263ffffffff1660e01b81526004016113149190612111565b60206040518083038186803b15801561132c57600080fd5b505afa158015611340573d6000803e3d6000fd5b505050506040513d601f19601f820116820180604052508101906113649190611ff7565b604083018190526020830151835160009261138992916113839161194c565b90611986565b61012084015190915061139c9082611636565b61012084015260a08301516113c2906113b690839061194c565b61016085015190611636565b61016084015260c08301516113e8906113dc90839061194c565b61018085015190611636565b610180840152505b60e0820151611400908c906119c8565b15611575578060050160009054906101000a90046001600160a01b03166001600160a01b03166370a082318e6040518263ffffffff1660e01b81526004016114489190612111565b60206040518083038186803b15801561146057600080fd5b505afa158015611474573d6000803e3d6000fd5b505050506040513d601f19601f820116820180604052508101906114989190611ff7565b8260600181815250506115428160060160009054906101000a90046001600160a01b03166001600160a01b03166370a082318f6040518263ffffffff1660e01b81526004016114e79190612111565b60206040518083038186803b1580156114ff57600080fd5b505afa158015611513573d6000803e3d6000fd5b505050506040513d601f19601f820116820180604052508101906115379190611ff7565b606084015190611636565b606083018190526020830151835161156e9261156292916113839161194c565b61014084015190611636565b6101408301525b505b60e08101805160010190526111ae565b60008161012001511161159b5760006115b0565b6101208101516101608201516115b091611986565b6101608201526101208101516115c75760006115dc565b6101208101516101808201516115dc91611986565b61018082018190526101208201516101408301516115f992611a19565b610100820181905261012082015161014083015161016084015161018090940151919850965091945090925090505b965096509650965096915050565b60008282018381101561165b5760405162461bcd60e51b8152600401610198906121b5565b90505b92915050565b604080518082019091526002815261035360f41b60208201526000908261169e5760405162461bcd60e51b815260040161019891906121a4565b5060408051808201909152600280825261068760f31b60208301528304906127108219048511156116e25760405162461bcd60e51b815260040161019891906121a4565b508281612710860201816116f257fe5b04949350505050565b60006080821060405180604001604052806002815260200161373760f01b8152509061173a5760405162461bcd60e51b815260040161019891906121a4565b5050815160016002830281019190911c16151592915050565b5461ffff1690565b6000821580611768575081155b156117755750600061165e565b81611388198161178157fe5b0483111560405180604001604052806002815260200161068760f31b815250906117be5760405162461bcd60e51b815260040161019891906121a4565b50506127109102611388010490565b6000633b9aca0082810290839082041460405180604001604052806002815260200161068760f31b815250906118165760405162461bcd60e51b815260040161019891906121a4565b5092915050565b604080518082019091526002815261035360f41b6020820152600090826118575760405162461bcd60e51b815260040161019891906121a4565b5060408051808201909152600280825261068760f31b60208301528304906b033b2e3c9fd0803ce80000008219048511156118a55760405162461bcd60e51b815260040161019891906121a4565b5082816b033b2e3c9fd0803ce8000000860201816116f257fe5b54600160381b16151590565b511590565b60006080821060405180604001604052806002815260200161373760f01b8152509061190f5760405162461bcd60e51b815260040161019891906121a4565b50509051600360029092021c16151590565b5461ffff80821692601083901c821692602081901c831692603082901c60ff169260409290921c1690565b60008261195b5750600061165e565b8282028284828161196857fe5b041461165b5760405162461bcd60e51b8152600401610198906121c5565b600061165b83836040518060400160405280601a81526020017f536166654d6174683a206469766973696f6e206279207a65726f000000000000815250611a47565b60006080821060405180604001604052806002815260200161373760f01b81525090611a075760405162461bcd60e51b815260040161019891906121a4565b50509051600160029092021c16151590565b600082611a295750600019611a40565b611a3d83611a37868561175b565b90611a7e565b90505b9392505050565b60008183611a685760405162461bcd60e51b815260040161019891906121a4565b506000838581611a7457fe5b0495945050505050565b604080518082019091526002815261035360f41b602082015260009082611ab85760405162461bcd60e51b815260040161019891906121a4565b5060408051808201909152600280825261068760f31b6020830152830490670de0b6b3a7640000821904851115611b025760405162461bcd60e51b815260040161019891906121a4565b508281670de0b6b3a7640000860201816116f257fe5b604051806101600160405280600081526020016000815260200160008152602001600081526020016000815260200160008152602001600081526020016000151581526020016000151581526020016000151581526020016000151581525090565b604051806102400160405280600081526020016000815260200160008152602001600081526020016000815260200160008152602001600081526020016000815260200160008152602001600081526020016000815260200160008152602001600081526020016000815260200160001515815260200160006001600160a01b031681526020016000151581526020016000151581525090565b803561165e81612272565b803561165e81612289565b805161165e81612289565b803561165e81612292565b803561165e8161229b565b803561165e816122a8565b805161165e816122a8565b60008060008060008060008060008060006101608c8e031215611c82578687fd5b611c8e8d888e01611c14565b9a506020611c9e8e828f01611c14565b9a50506040611caf8e828f01611c4b565b9950506060611cc08e828f01611c4b565b9850506080611cd18e828f01611c4b565b97505060a0611ce28e828f01611c4b565b96505060c0611cf38e828f01611c4b565b95505060e0611d048e828f01611c4b565b945050610100611d168e828f01611c4b565b935050610120611d288e828f01611c4b565b925050610140611d3a8e828f01611c14565b9150509295989b509295989b9093969950565b600080600080600080600080610100898b031215611d69578384fd5b611d758a858b01611c14565b97506020611d858b828c01611c4b565b9750506040611d968b828c01611c4b565b9650506060611da78b828c01611c4b565b9550506080611db88b828c01611c4b565b94505060a0611dc98b828c01611c4b565b93505060c0611dda8b828c01611c4b565b92505060e0611deb8b828c01611c14565b9150509295985092959890939650565b600060208284031215611e0c578081fd5b61165b83828401611c2a565b600080600080600080600080610100898b031215611e34578384fd5b611e408a858b01611c4b565b97506020611e508b828c01611c14565b9750506040611d968b828c01611c1f565b600080600080600060a08688031215611e78578081fd5b611e8487828801611c4b565b94506020611e9488828901611c14565b9450506040611ea588828901611c35565b9350506060611eb688828901611c35565b9250506080611ec788828901611c14565b9150509295509295909350565b600080600080600060a08688031215611eeb578081fd5b611ef787828801611c4b565b94506020611f0788828901611c4b565b9450506040611f1888828901611c4b565b9350506060611f2988828901611c4b565b9250506080611ec788828901611c40565b60008060408385031215611f4c578182fd5b611f5884838501611c4b565b91506020611f6885828601611c4b565b9150509250929050565b60008060008060008060c08789031215611f8a578384fd5b611f9688858901611c4b565b95506020611fa689828a01611c4b565b9550506040611fb789828a01611c40565b9450506060611fc889828a01611c14565b9350506080611fd989828a01611c4b565b92505060a0611fea89828a01611c4b565b9150509295509295509295565b600060208284031215612008578081fd5b61165b83828401611c56565b61201d8161221a565b82525050565b61201d816121f3565b9052565b600061203b826121e3565b61204581856121e7565b9350612055818560208601612225565b61205e81612268565b9093019392505050565b6000612075601b836121e7565b7f536166654d6174683a206164646974696f6e206f766572666c6f77000000000091810191909152602001919050565b60006120b26021836121e7565b7f536166654d6174683a206d756c7469706c69636174696f6e206f766572666c6f91810191909152607760f81b6020820152604001919050565b80546120f781612255565b90506121038382612108565b505050565b61201d816121f0565b6020810161165e8284612023565b6020810161165e8284612014565b610100810161213c828b612023565b612149602083018a612014565b6121566040830189612108565b612163606083018861202c565b61217060808301876120ec565b61217d60a083018661202c565b61218a60c0830185612108565b61219760e0830184612023565b9998505050505050505050565b6020808252810161165b8184612030565b6020808252810161165e81612068565b6020808252810161165e816120a5565b6020810161165e8284612108565b5190565b90815260200190565b90565b600061165e8261220e565b151590565b600061165e826121f3565b6001600160a01b031690565b600061165e82612203565b60005b83811015612240578181015183820152602001612228565b8381111561224f576000848401525b50505050565b600061165e612263836121f0565b6121f0565b601f01601f191690565b61227b816121f3565b811461228657600080fd5b50565b61227b816121fe565b61227b81612203565b6003811061228657600080fd5b61227b816121f056fea26469706673582212208408f027f418338f7d6bcfdac13435c0b0f9241979a388a1eef1cf455b681c2d64736f6c634300060c0033",
    "linkReferences": {
      "contracts/protocol/libraries/logic/GenericLogic.sol": {
        "GenericLogic": [
          {
            "start": 2831,
            "length": 20
          },
          {
            "start": 3929,
            "length": 20
          }
        ]
      }
    }
  },
  "methodIdentifiers": {
    "REBALANCE_UP_LIQUIDITY_RATE_THRESHOLD()": "abfcc86a",
    "REBALANCE_UP_USAGE_RATIO_THRESHOLD()": "5494eb8a",
    "validateBorrow(address,address,uint256,uint256,uint256,uint256,mapping(address => DataTypes.ReserveData) storage,DataTypes.UserConfigurationMap storage,mapping(uint256 => address) storage,uint256,address)": "54245e02",
    "validateDeposit(DataTypes.ReserveData storage,uint256)": "0eca322b",
    "validateRebalanceStableBorrowRate(DataTypes.ReserveData storage,address,IERC20,IERC20,address)": "548cad09",
    "validateRepay(DataTypes.ReserveData storage,uint256,DataTypes.InterestRateMode,address,uint256,uint256)": "fa0c2149",
    "validateSetUseReserveAsCollateral(DataTypes.ReserveData storage,address,bool,mapping(address => DataTypes.ReserveData) storage,DataTypes.UserConfigurationMap storage,mapping(uint256 => address) storage,uint256,address)": "5fa297e5",
    "validateSwapRateMode(DataTypes.ReserveData storage,DataTypes.UserConfigurationMap storage,uint256,uint256,DataTypes.InterestRateMode)": "a8695b1d",
    "validateWithdraw(address,uint256,uint256,mapping(address => DataTypes.ReserveData) storage,DataTypes.UserConfigurationMap storage,mapping(uint256 => address) storage,uint256,address)": "d09db04a"
  },
  "id": 82
}