{
  "abi": [
    {
      "anonymous": false,
      "inputs": [
        {
          "indexed": true,
          "internalType": "address",
          "name": "reserve",
          "type": "address"
        },
        {
          "indexed": false,
          "internalType": "address",
          "name": "user",
          "type": "address"
        },
        {
          "indexed": true,
          "internalType": "address",
          "name": "onBehalfOf",
          "type": "address"
        },
        {
          "indexed": false,
          "internalType": "uint256",
          "name": "amount",
          "type": "uint256"
        },
        {
          "indexed": false,
          "internalType": "uint256",
          "name": "borrowRateMode",
          "type": "uint256"
        },
        {
          "indexed": false,
          "internalType": "uint256",
          "name": "borrowRate",
          "type": "uint256"
        },
        {
          "indexed": true,
          "internalType": "uint16",
          "name": "referral",
          "type": "uint16"
        }
      ],
      "name": "Borrow",
      "type": "event"
    },
    {
      "anonymous": false,
      "inputs": [
        {
          "indexed": true,
          "internalType": "address",
          "name": "reserve",
          "type": "address"
        },
        {
          "indexed": false,
          "internalType": "address",
          "name": "user",
          "type": "address"
        },
        {
          "indexed": true,
          "internalType": "address",
          "name": "onBehalfOf",
          "type": "address"
        },
        {
          "indexed": false,
          "internalType": "uint256",
          "name": "amount",
          "type": "uint256"
        },
        {
          "indexed": true,
          "internalType": "uint16",
          "name": "referral",
          "type": "uint16"
        }
      ],
      "name": "Deposit",
      "type": "event"
    },
    {
      "anonymous": false,
      "inputs": [
        {
          "indexed": true,
          "internalType": "address",
          "name": "target",
          "type": "address"
        },
        {
          "indexed": true,
          "internalType": "address",
          "name": "initiator",
          "type": "address"
        },
        {
          "indexed": true,
          "internalType": "address",
          "name": "asset",
          "type": "address"
        },
        {
          "indexed": false,
          "internalType": "uint256",
          "name": "amount",
          "type": "uint256"
        },
        {
          "indexed": false,
          "internalType": "uint256",
          "name": "premium",
          "type": "uint256"
        },
        {
          "indexed": false,
          "internalType": "uint16",
          "name": "referralCode",
          "type": "uint16"
        }
      ],
      "name": "FlashLoan",
      "type": "event"
    },
    {
      "anonymous": false,
      "inputs": [
        {
          "indexed": true,
          "internalType": "address",
          "name": "collateralAsset",
          "type": "address"
        },
        {
          "indexed": true,
          "internalType": "address",
          "name": "debtAsset",
          "type": "address"
        },
        {
          "indexed": true,
          "internalType": "address",
          "name": "user",
          "type": "address"
        },
        {
          "indexed": false,
          "internalType": "uint256",
          "name": "debtToCover",
          "type": "uint256"
        },
        {
          "indexed": false,
          "internalType": "uint256",
          "name": "liquidatedCollateralAmount",
          "type": "uint256"
        },
        {
          "indexed": false,
          "internalType": "address",
          "name": "liquidator",
          "type": "address"
        },
        {
          "indexed": false,
          "internalType": "bool",
          "name": "receiveAToken",
          "type": "bool"
        },
        {
          "indexed": false,
          "internalType": "bool",
          "name": "useAToken",
          "type": "bool"
        }
      ],
      "name": "LiquidationCall",
      "type": "event"
    },
    {
      "anonymous": false,
      "inputs": [],
      "name": "Paused",
      "type": "event"
    },
    {
      "anonymous": false,
      "inputs": [
        {
          "indexed": true,
          "internalType": "address",
          "name": "reserve",
          "type": "address"
        },
        {
          "indexed": true,
          "internalType": "address",
          "name": "user",
          "type": "address"
        }
      ],
      "name": "RebalanceStableBorrowRate",
      "type": "event"
    },
    {
      "anonymous": false,
      "inputs": [
        {
          "indexed": true,
          "internalType": "address",
          "name": "reserve",
          "type": "address"
        },
        {
          "indexed": true,
          "internalType": "address",
          "name": "user",
          "type": "address"
        },
        {
          "indexed": true,
          "internalType": "address",
          "name": "repayer",
          "type": "address"
        },
        {
          "indexed": false,
          "internalType": "uint256",
          "name": "amount",
          "type": "uint256"
        },
        {
          "indexed": false,
          "internalType": "bool",
          "name": "useAToken",
          "type": "bool"
        }
      ],
      "name": "Repay",
      "type": "event"
    },
    {
      "anonymous": false,
      "inputs": [
        {
          "indexed": true,
          "internalType": "address",
          "name": "reserve",
          "type": "address"
        },
        {
          "indexed": false,
          "internalType": "uint256",
          "name": "liquidityRate",
          "type": "uint256"
        },
        {
          "indexed": false,
          "internalType": "uint256",
          "name": "stableBorrowRate",
          "type": "uint256"
        },
        {
          "indexed": false,
          "internalType": "uint256",
          "name": "variableBorrowRate",
          "type": "uint256"
        },
        {
          "indexed": false,
          "internalType": "uint256",
          "name": "liquidityIndex",
          "type": "uint256"
        },
        {
          "indexed": false,
          "internalType": "uint256",
          "name": "variableBorrowIndex",
          "type": "uint256"
        }
      ],
      "name": "ReserveDataUpdated",
      "type": "event"
    },
    {
      "anonymous": false,
      "inputs": [
        {
          "indexed": true,
          "internalType": "address",
          "name": "reserve",
          "type": "address"
        },
        {
          "indexed": true,
          "internalType": "address",
          "name": "user",
          "type": "address"
        }
      ],
      "name": "ReserveUsedAsCollateralDisabled",
      "type": "event"
    },
    {
      "anonymous": false,
      "inputs": [
        {
          "indexed": true,
          "internalType": "address",
          "name": "reserve",
          "type": "address"
        },
        {
          "indexed": true,
          "internalType": "address",
          "name": "user",
          "type": "address"
        }
      ],
      "name": "ReserveUsedAsCollateralEnabled",
      "type": "event"
    },
    {
      "anonymous": false,
      "inputs": [
        {
          "indexed": true,
          "internalType": "address",
          "name": "asset",
          "type": "address"
        },
        {
          "indexed": false,
          "internalType": "uint256",
          "name": "depositLimit",
          "type": "uint256"
        },
        {
          "indexed": false,
          "internalType": "uint256",
          "name": "borrowLimit",
          "type": "uint256"
        },
        {
          "indexed": false,
          "internalType": "uint256",
          "name": "collateralUsageLimit",
          "type": "uint256"
        }
      ],
      "name": "SetReserveLimits",
      "type": "event"
    },
    {
      "anonymous": false,
      "inputs": [
        {
          "indexed": true,
          "internalType": "address",
          "name": "reserve",
          "type": "address"
        },
        {
          "indexed": true,
          "internalType": "address",
          "name": "user",
          "type": "address"
        },
        {
          "indexed": false,
          "internalType": "uint256",
          "name": "rateMode",
          "type": "uint256"
        }
      ],
      "name": "Swap",
      "type": "event"
    },
    {
      "anonymous": false,
      "inputs": [],
      "name": "Unpaused",
      "type": "event"
    },
    {
      "anonymous": false,
      "inputs": [
        {
          "indexed": true,
          "internalType": "address",
          "name": "reserve",
          "type": "address"
        },
        {
          "indexed": true,
          "internalType": "address",
          "name": "user",
          "type": "address"
        },
        {
          "indexed": true,
          "internalType": "address",
          "name": "to",
          "type": "address"
        },
        {
          "indexed": false,
          "internalType": "uint256",
          "name": "amount",
          "type": "uint256"
        }
      ],
      "name": "Withdraw",
      "type": "event"
    },
    {
      "inputs": [],
      "name": "FLASHLOAN_PREMIUM_TOTAL",
      "outputs": [
        {
          "internalType": "uint256",
          "name": "",
          "type": "uint256"
        }
      ],
      "stateMutability": "view",
      "type": "function"
    },
    {
      "inputs": [],
      "name": "LENDINGPOOL_REVISION",
      "outputs": [
        {
          "internalType": "uint256",
          "name": "",
          "type": "uint256"
        }
      ],
      "stateMutability": "view",
      "type": "function"
    },
    {
      "inputs": [],
      "name": "MAX_NUMBER_RESERVES",
      "outputs": [
        {
          "internalType": "uint256",
          "name": "",
          "type": "uint256"
        }
      ],
      "stateMutability": "view",
      "type": "function"
    },
    {
      "inputs": [],
      "name": "MAX_STABLE_RATE_BORROW_SIZE_PERCENT",
      "outputs": [
        {
          "internalType": "uint256",
          "name": "",
          "type": "uint256"
        }
      ],
      "stateMutability": "view",
      "type": "function"
    },
    {
      "inputs": [
        {
          "internalType": "address",
          "name": "asset",
          "type": "address"
        },
        {
          "internalType": "uint256",
          "name": "amount",
          "type": "uint256"
        },
        {
          "internalType": "uint256",
          "name": "interestRateMode",
          "type": "uint256"
        },
        {
          "internalType": "uint16",
          "name": "referralCode",
          "type": "uint16"
        },
        {
          "internalType": "address",
          "name": "onBehalfOf",
          "type": "address"
        }
      ],
      "name": "borrow",
      "outputs": [],
      "stateMutability": "nonpayable",
      "type": "function"
    },
    {
      "inputs": [
        {
          "internalType": "address",
          "name": "asset",
          "type": "address"
        },
        {
          "internalType": "uint256",
          "name": "amount",
          "type": "uint256"
        },
        {
          "internalType": "address",
          "name": "onBehalfOf",
          "type": "address"
        },
        {
          "internalType": "uint16",
          "name": "referralCode",
          "type": "uint16"
        }
      ],
      "name": "deposit",
      "outputs": [],
      "stateMutability": "nonpayable",
      "type": "function"
    },
    {
      "inputs": [
        {
          "internalType": "address",
          "name": "asset",
          "type": "address"
        },
        {
          "internalType": "address",
          "name": "from",
          "type": "address"
        },
        {
          "internalType": "address",
          "name": "to",
          "type": "address"
        },
        {
          "internalType": "uint256",
          "name": "amount",
          "type": "uint256"
        },
        {
          "internalType": "uint256",
          "name": "balanceFromBefore",
          "type": "uint256"
        },
        {
          "internalType": "uint256",
          "name": "balanceToBefore",
          "type": "uint256"
        }
      ],
      "name": "finalizeTransfer",
      "outputs": [],
      "stateMutability": "nonpayable",
      "type": "function"
    },
    {
      "inputs": [
        {
          "internalType": "address",
          "name": "receiverAddress",
          "type": "address"
        },
        {
          "internalType": "address[]",
          "name": "assets",
          "type": "address[]"
        },
        {
          "internalType": "uint256[]",
          "name": "amounts",
          "type": "uint256[]"
        },
        {
          "internalType": "uint256[]",
          "name": "modes",
          "type": "uint256[]"
        },
        {
          "internalType": "address",
          "name": "onBehalfOf",
          "type": "address"
        },
        {
          "internalType": "bytes",
          "name": "params",
          "type": "bytes"
        },
        {
          "internalType": "uint16",
          "name": "referralCode",
          "type": "uint16"
        }
      ],
      "name": "flashLoan",
      "outputs": [],
      "stateMutability": "nonpayable",
      "type": "function"
    },
    {
      "inputs": [],
      "name": "getAddressesProvider",
      "outputs": [
        {
          "internalType": "contract ILendingPoolAddressesProvider",
          "name": "",
          "type": "address"
        }
      ],
      "stateMutability": "view",
      "type": "function"
    },
    {
      "inputs": [
        {
          "internalType": "address",
          "name": "asset",
          "type": "address"
        }
      ],
      "name": "getConfiguration",
      "outputs": [
        {
          "components": [
            {
              "internalType": "uint256",
              "name": "data",
              "type": "uint256"
            }
          ],
          "internalType": "struct DataTypes.ReserveConfigurationMap",
          "name": "",
          "type": "tuple"
        }
      ],
      "stateMutability": "view",
      "type": "function"
    },
    {
      "inputs": [
        {
          "internalType": "address",
          "name": "asset",
          "type": "address"
        }
      ],
      "name": "getReserveData",
      "outputs": [
        {
          "components": [
            {
              "components": [
                {
                  "internalType": "uint256",
                  "name": "data",
                  "type": "uint256"
                }
              ],
              "internalType": "struct DataTypes.ReserveConfigurationMap",
              "name": "configuration",
              "type": "tuple"
            },
            {
              "internalType": "uint128",
              "name": "liquidityIndex",
              "type": "uint128"
            },
            {
              "internalType": "uint128",
              "name": "variableBorrowIndex",
              "type": "uint128"
            },
            {
              "internalType": "uint128",
              "name": "currentLiquidityRate",
              "type": "uint128"
            },
            {
              "internalType": "uint128",
              "name": "currentVariableBorrowRate",
              "type": "uint128"
            },
            {
              "internalType": "uint128",
              "name": "currentStableBorrowRate",
              "type": "uint128"
            },
            {
              "internalType": "uint40",
              "name": "lastUpdateTimestamp",
              "type": "uint40"
            },
            {
              "internalType": "address",
              "name": "aTokenAddress",
              "type": "address"
            },
            {
              "internalType": "address",
              "name": "stableDebtTokenAddress",
              "type": "address"
            },
            {
              "internalType": "address",
              "name": "variableDebtTokenAddress",
              "type": "address"
            },
            {
              "internalType": "address",
              "name": "interestRateStrategyAddress",
              "type": "address"
            },
            {
              "internalType": "uint8",
              "name": "id",
              "type": "uint8"
            }
          ],
          "internalType": "struct DataTypes.ReserveData",
          "name": "",
          "type": "tuple"
        }
      ],
      "stateMutability": "view",
      "type": "function"
    },
    {
      "inputs": [
        {
          "internalType": "address",
          "name": "asset",
          "type": "address"
        }
      ],
      "name": "getReserveLimits",
      "outputs": [
        {
          "components": [
            {
              "internalType": "uint256",
              "name": "depositLimit",
              "type": "uint256"
            },
            {
              "internalType": "uint256",
              "name": "borrowLimit",
              "type": "uint256"
            },
            {
              "internalType": "uint256",
              "name": "collateralUsageLimit",
              "type": "uint256"
            }
          ],
          "internalType": "struct DataTypes.ReserveLimits",
          "name": "",
          "type": "tuple"
        }
      ],
      "stateMutability": "view",
      "type": "function"
    },
    {
      "inputs": [
        {
          "internalType": "address",
          "name": "asset",
          "type": "address"
        }
      ],
      "name": "getReserveNormalizedIncome",
      "outputs": [
        {
          "internalType": "uint256",
          "name": "",
          "type": "uint256"
        }
      ],
      "stateMutability": "view",
      "type": "function"
    },
    {
      "inputs": [
        {
          "internalType": "address",
          "name": "asset",
          "type": "address"
        }
      ],
      "name": "getReserveNormalizedVariableDebt",
      "outputs": [
        {
          "internalType": "uint256",
          "name": "",
          "type": "uint256"
        }
      ],
      "stateMutability": "view",
      "type": "function"
    },
    {
      "inputs": [],
      "name": "getReservesList",
      "outputs": [
        {
          "internalType": "address[]",
          "name": "",
          "type": "address[]"
        }
      ],
      "stateMutability": "view",
      "type": "function"
    },
    {
      "inputs": [
        {
          "internalType": "address",
          "name": "user",
          "type": "address"
        }
      ],
      "name": "getUserAccountData",
      "outputs": [
        {
          "internalType": "uint256",
          "name": "totalCollateralETH",
          "type": "uint256"
        },
        {
          "internalType": "uint256",
          "name": "totalDebtETH",
          "type": "uint256"
        },
        {
          "internalType": "uint256",
          "name": "availableBorrowsETH",
          "type": "uint256"
        },
        {
          "internalType": "uint256",
          "name": "currentLiquidationThreshold",
          "type": "uint256"
        },
        {
          "internalType": "uint256",
          "name": "ltv",
          "type": "uint256"
        },
        {
          "internalType": "uint256",
          "name": "healthFactor",
          "type": "uint256"
        }
      ],
      "stateMutability": "view",
      "type": "function"
    },
    {
      "inputs": [
        {
          "internalType": "address",
          "name": "user",
          "type": "address"
        }
      ],
      "name": "getUserConfiguration",
      "outputs": [
        {
          "components": [
            {
              "internalType": "uint256",
              "name": "data",
              "type": "uint256"
            }
          ],
          "internalType": "struct DataTypes.UserConfigurationMap",
          "name": "",
          "type": "tuple"
        }
      ],
      "stateMutability": "view",
      "type": "function"
    },
    {
      "inputs": [
        {
          "internalType": "address",
          "name": "asset",
          "type": "address"
        },
        {
          "internalType": "address",
          "name": "aTokenAddress",
          "type": "address"
        },
        {
          "internalType": "address",
          "name": "stableDebtAddress",
          "type": "address"
        },
        {
          "internalType": "address",
          "name": "variableDebtAddress",
          "type": "address"
        },
        {
          "internalType": "address",
          "name": "interestRateStrategyAddress",
          "type": "address"
        }
      ],
      "name": "initReserve",
      "outputs": [],
      "stateMutability": "nonpayable",
      "type": "function"
    },
    {
      "inputs": [
        {
          "internalType": "contract ILendingPoolAddressesProvider",
          "name": "provider",
          "type": "address"
        }
      ],
      "name": "initialize",
      "outputs": [],
      "stateMutability": "nonpayable",
      "type": "function"
    },
    {
      "inputs": [
        {
          "internalType": "address",
          "name": "collateralAsset",
          "type": "address"
        },
        {
          "internalType": "address",
          "name": "debtAsset",
          "type": "address"
        },
        {
          "internalType": "address",
          "name": "user",
          "type": "address"
        },
        {
          "internalType": "uint256",
          "name": "debtToCover",
          "type": "uint256"
        },
        {
          "internalType": "bool",
          "name": "receiveAToken",
          "type": "bool"
        }
      ],
      "name": "liquidationCall",
      "outputs": [],
      "stateMutability": "nonpayable",
      "type": "function"
    },
    {
      "inputs": [
        {
          "internalType": "address",
          "name": "collateralAsset",
          "type": "address"
        },
        {
          "internalType": "address",
          "name": "debtAsset",
          "type": "address"
        },
        {
          "internalType": "address",
          "name": "user",
          "type": "address"
        },
        {
          "internalType": "uint256",
          "name": "debtToCover",
          "type": "uint256"
        },
        {
          "internalType": "bool",
          "name": "receiveAToken",
          "type": "bool"
        }
      ],
      "name": "liquidationCallUsingAgToken",
      "outputs": [],
      "stateMutability": "nonpayable",
      "type": "function"
    },
    {
      "inputs": [],
      "name": "paused",
      "outputs": [
        {
          "internalType": "bool",
          "name": "",
          "type": "bool"
        }
      ],
      "stateMutability": "view",
      "type": "function"
    },
    {
      "inputs": [
        {
          "internalType": "address",
          "name": "asset",
          "type": "address"
        },
        {
          "internalType": "address",
          "name": "user",
          "type": "address"
        }
      ],
      "name": "rebalanceStableBorrowRate",
      "outputs": [],
      "stateMutability": "nonpayable",
      "type": "function"
    },
    {
      "inputs": [
        {
          "internalType": "address",
          "name": "asset",
          "type": "address"
        },
        {
          "internalType": "uint256",
          "name": "amount",
          "type": "uint256"
        },
        {
          "internalType": "uint256",
          "name": "rateMode",
          "type": "uint256"
        },
        {
          "internalType": "address",
          "name": "onBehalfOf",
          "type": "address"
        }
      ],
      "name": "repay",
      "outputs": [
        {
          "internalType": "uint256",
          "name": "",
          "type": "uint256"
        }
      ],
      "stateMutability": "nonpayable",
      "type": "function"
    },
    {
      "inputs": [
        {
          "internalType": "address",
          "name": "asset",
          "type": "address"
        },
        {
          "internalType": "uint256",
          "name": "amount",
          "type": "uint256"
        },
        {
          "internalType": "uint256",
          "name": "rateMode",
          "type": "uint256"
        },
        {
          "internalType": "address",
          "name": "onBehalfOf",
          "type": "address"
        }
      ],
      "name": "repayUsingAgToken",
      "outputs": [
        {
          "internalType": "uint256",
          "name": "",
          "type": "uint256"
        }
      ],
      "stateMutability": "nonpayable",
      "type": "function"
    },
    {
      "inputs": [
        {
          "internalType": "address",
          "name": "asset",
          "type": "address"
        },
        {
          "internalType": "uint256",
          "name": "configuration",
          "type": "uint256"
        }
      ],
      "name": "setConfiguration",
      "outputs": [],
      "stateMutability": "nonpayable",
      "type": "function"
    },
    {
      "inputs": [
        {
          "internalType": "bool",
          "name": "val",
          "type": "bool"
        }
      ],
      "name": "setPause",
      "outputs": [],
      "stateMutability": "nonpayable",
      "type": "function"
    },
    {
      "inputs": [
        {
          "internalType": "address",
          "name": "asset",
          "type": "address"
        },
        {
          "internalType": "address",
          "name": "rateStrategyAddress",
          "type": "address"
        }
      ],
      "name": "setReserveInterestRateStrategyAddress",
      "outputs": [],
      "stateMutability": "nonpayable",
      "type": "function"
    },
    {
      "inputs": [
        {
          "internalType": "address",
          "name": "asset",
          "type": "address"
        },
        {
          "internalType": "uint256",
          "name": "depositLimit",
          "type": "uint256"
        },
        {
          "internalType": "uint256",
          "name": "borrowLimit",
          "type": "uint256"
        },
        {
          "internalType": "uint256",
          "name": "collateralUsageLimit",
          "type": "uint256"
        }
      ],
      "name": "setReserveLimits",
      "outputs": [],
      "stateMutability": "nonpayable",
      "type": "function"
    },
    {
      "inputs": [
        {
          "internalType": "address",
          "name": "asset",
          "type": "address"
        },
        {
          "internalType": "bool",
          "name": "useAsCollateral",
          "type": "bool"
        }
      ],
      "name": "setUserUseReserveAsCollateral",
      "outputs": [],
      "stateMutability": "nonpayable",
      "type": "function"
    },
    {
      "inputs": [
        {
          "internalType": "address",
          "name": "asset",
          "type": "address"
        },
        {
          "internalType": "uint256",
          "name": "rateMode",
          "type": "uint256"
        }
      ],
      "name": "swapBorrowRateMode",
      "outputs": [],
      "stateMutability": "nonpayable",
      "type": "function"
    },
    {
      "inputs": [
        {
          "internalType": "address",
          "name": "asset",
          "type": "address"
        },
        {
          "internalType": "uint256",
          "name": "amount",
          "type": "uint256"
        },
        {
          "internalType": "address",
          "name": "to",
          "type": "address"
        }
      ],
      "name": "withdraw",
      "outputs": [
        {
          "internalType": "uint256",
          "name": "",
          "type": "uint256"
        }
      ],
      "stateMutability": "nonpayable",
      "type": "function"
    }
  ],
  "bytecode": {
    "object": "0x60806040526000805534801561001457600080fd5b50615fe180620000256000396000f3fe608060405234801561001057600080fd5b50600436106101ef5760003560e01c8063ab9c4b5d1161010f578063d15e0053116100a2578063e8bfdd4411610071578063e8bfdd441461043c578063e8eda9df1461044f578063f8119d5114610462578063fe65acfe1461046a576101ef565b8063d15e0053146103f9578063d1946dbc1461040c578063d5ed393314610421578063e82fec2f14610434576101ef565b8063c44b11f7116100de578063c44b11f7146103ad578063c4d66de8146103c0578063c590d0e1146103d3578063cd112382146103e6576101ef565b8063ab9c4b5d1461034f578063b8d2927614610362578063bedb86fb14610375578063bf92857c14610388576101ef565b80635c975abb116101875780638afaff02116101565780638afaff021461030e57806394ba89a214610316578063a415bcad14610329578063a666e8941461033c576101ef565b80635c975abb146102b357806369328dec146102c85780637a708e92146102db578063845e79bc146102ee576101ef565b8063386497fd116101c3578063386497fd1461025a5780634417a5831461026d578063573ade811461028d5780635a3b74b9146102a0576101ef565b8062a718a9146101f4578063074b2e43146102095780631d2118f91461022757806335ea6a751461023a575b600080fd5b610207610202366004614d7d565b61047f565b005b610211610495565b60405161021e9190615d6c565b60405180910390f35b610207610235366004614cd2565b61049a565b61024d610248366004614c98565b6104d3565b60405161021e9190615c20565b610211610268366004614c98565b6105b5565b61028061027b366004614c98565b6105dc565b60405161021e9190615c12565b61021161029b366004615076565b61060f565b6102076102ae366004614f70565b61062a565b6102bb6107ef565b60405161021e9190615b85565b6102116102d6366004614fcc565b6107f8565b6102076102e9366004614d0a565b610b22565b6103016102fc366004614c98565b610c06565b60405161021e9190615d5e565b610211610c50565b610207610324366004614f9e565b610c55565b6102076103373660046150c9565b610fc2565b61021161034a366004615076565b611042565b61020761035d366004614e68565b611052565b610207610370366004614f9e565b611725565b610207610383366004615171565b611749565b61039b610396366004614c98565b6117c4565b60405161021e96959493929190615e28565b6102806103bb366004614c98565b6118c0565b6102076103ce3660046151ab565b6118f3565b6102076103e1366004614d7d565b61198b565b6102076103f4366004614cd2565b61199a565b610211610407366004614c98565b611c20565b610414611c41565b60405161021e9190615b74565b61020761042f366004614de3565b611ce6565b610211611f2f565b61020761044a36600461511e565b611f35565b61020761045d366004615017565b611fa7565b6102116122ad565b6104726122b2565b60405161021e9190615b93565b61048e858585858560006122c1565b5050505050565b600981565b6104a2612492565b6001600160a01b03918216600090815260356020526040902060070180546001600160a01b03191691909216179055565b6104db61492e565b506001600160a01b0381811660009081526035602090815260409182902082516101a08101845281546101808201908152815260018201546001600160801b0380821694830194909452600160801b908190048416948201949094526002820154808416606083015284900483166080820152600382015492831660a08201529290910464ffffffffff1660c08301526004810154831660e0830152600581015483166101008301526006810154831661012083015260070154918216610140820152600160a01b90910460ff166101608201525b919050565b6001600160a01b03811660009081526035602052604081206105d690612551565b92915050565b6105e4614999565b506001600160a01b031660009081526036602090815260409182902082519182019092529054815290565b600061061f8585858560006125c6565b90505b949350505050565b610632612915565b6001600160a01b03808316600090815260356020818152604080842033855260368352938190206038546034548351631f94a27560e31b81529351969773__$de8c0cf1a7d7c36c802af9a64fb9d86036$__97635fa297e5978a978d978d9792969295603795939493169263fca513a892600480840193919291829003018186803b1580156106c057600080fd5b505afa1580156106d4573d6000803e3d6000fd5b505050506040513d601f19601f820116820180604052508101906106f89190614cb5565b6040518963ffffffff1660e01b815260040161071b989796959493929190615c7b565b60006040518083038186803b15801561073357600080fd5b505af4158015610747573d6000803e3d6000fd5b50505050600781015433600090815260366020526040902061077391600160a01b900460ff1684612953565b81156107b35760405133906001600160a01b038516907e058a56ea94653cdf4f152d227ace22d4c00ad99e2a43f58cb7d9e3feb295f290600090a36107ea565b60405133906001600160a01b038516907f44c58d81365b66dd4b1a7f36c25aa97b8c71c361ee4937adc1a00000227db5dd90600090a35b505050565b60395460ff1690565b6000610802612915565b6001600160a01b0380851660009081526035602052604080822060048082015492516370a0823160e01b8152919492909216929183916370a082319161084a91339101615812565b60206040518083038186803b15801561086257600080fd5b505afa158015610876573d6000803e3d6000fd5b505050506040513d601f19601f8201168201806040525081019061089a91906151c8565b9050856000198114156108aa5750805b73__$de8c0cf1a7d7c36c802af9a64fb9d86036$__63d09db04a898385603560366000336001600160a01b03166001600160a01b031681526020019081526020016000206037603854603460009054906101000a90046001600160a01b03166001600160a01b031663fca513a86040518163ffffffff1660e01b815260040160206040518083038186803b15801561094157600080fd5b505afa158015610955573d6000803e3d6000fd5b505050506040513d601f19601f820116820180604052508101906109799190614cb5565b6040518963ffffffff1660e01b815260040161099c989796959493929190615a28565b60006040518083038186803b1580156109b457600080fd5b505af41580156109c8573d6000803e3d6000fd5b505050506109d5846129c9565b6109e3848985600085612a96565b81811415610a4d576007840154336000908152603660205260408120610a16929091600160a01b90910460ff1690612953565b60405133906001600160a01b038a16907f44c58d81365b66dd4b1a7f36c25aa97b8c71c361ee4937adc1a00000227db5dd90600090a35b6001840154604051636b81068560e11b81526001600160a01b0385169163d7020d0a91610a8e9133918b9187916001600160801b0390911690600401615855565b600060405180830381600087803b158015610aa857600080fd5b505af1158015610abc573d6000803e3d6000fd5b50505050856001600160a01b0316336001600160a01b0316896001600160a01b03167f3115d1449a7b732c986cba18244e897a450f61e1bb8d589cd2e69e6c8924f9f784604051610b0d9190615d6c565b60405180910390a493505050505b9392505050565b610b2a612492565b610b3385612e88565b6040518060400160405280600281526020016106e760f31b81525090610b755760405162461bcd60e51b8152600401610b6c9190615ba1565b60405180910390fd5b506001600160a01b038516600090815260356020526040908190209051630acce25f60e21b815273__$22cd43a9dda9ce44e9b92ba393b88fb9ac$__91632b33897c91610bcd91908890889088908890600401615c2f565b60006040518083038186803b158015610be557600080fd5b505af4158015610bf9573d6000803e3d6000fd5b5050505061048e85612ec1565b610c0e6149ac565b506001600160a01b03166000908152603a6020908152604091829020825160608101845281548152600182015492810192909252600201549181019190915290565b600281565b610c5d612915565b6001600160a01b03821660009081526035602052604081209080610c813384612fc8565b915091506000846002811115610c9357fe5b3360009081526036602052604090819020905163a8695b1d60e01b815291925073__$de8c0cf1a7d7c36c802af9a64fb9d86036$__9163a8695b1d91610ce491889190889088908890600401615cd9565b60006040518083038186803b158015610cfc57600080fd5b505af4158015610d10573d6000803e3d6000fd5b50505050610d1d846129c9565b6001816002811115610d2b57fe5b1415610e3b576005840154604051632770a7eb60e21b81526001600160a01b0390911690639dc29fac90610d659033908790600401615870565b600060405180830381600087803b158015610d7f57600080fd5b505af1158015610d93573d6000803e3d6000fd5b505050506006840154600185015460405163b3f1c93d60e01b81526001600160a01b039092169163b3f1c93d91610de391339182918991600160801b90046001600160801b031690600401615820565b602060405180830381600087803b158015610dfd57600080fd5b505af1158015610e11573d6000803e3d6000fd5b505050506040513d601f19601f82011682018060405250810190610e35919061518e565b50610f51565b60068401546001850154604051637a94c56560e11b81526001600160a01b039092169163f5298aca91610e869133918791600160801b9091046001600160801b03169060040161588b565b600060405180830381600087803b158015610ea057600080fd5b505af1158015610eb4573d6000803e3d6000fd5b505050506005840154600385015460405163b3f1c93d60e01b81526001600160a01b039092169163b3f1c93d91610efd913391829188916001600160801b031690600401615820565b602060405180830381600087803b158015610f1757600080fd5b505af1158015610f2b573d6000803e3d6000fd5b505050506040513d601f19601f82011682018060405250810190610f4f919061518e565b505b6004840154610f6f90859088906001600160a01b0316600080612a96565b336001600160a01b0316866001600160a01b03167fea368a40e9570069bb8e6511d668293ad2e1f03b0d982431fd223de9f3b70ca687604051610fb29190615d6c565b60405180910390a3505050505050565b610fca612915565b6001600160a01b038086166000818152603560209081526040918290208251610100810184529384523391840191909152848416918301919091526060820187905260808201869052600481015490921660a082015261ffff841660c0820152600160e082015261103a906130dd565b505050505050565b600061061f8585858560016125c6565b61105a612915565b6110626149cd565b6110cf8b8b8080602002602001604051908101604052809392919081815260200183836020028082843760009201919091525050604080516020808f0282810182019093528e82529093508e92508d91829185019084908082843760009201919091525061371c92505050565b60608a67ffffffffffffffff811180156110e857600080fd5b50604051908082528060200260200182016040528015611112578160200160208202803683370190505b50905060608b67ffffffffffffffff8111801561112e57600080fd5b50604051908082528060200260200182016040528015611158578160200160208202803683370190505b506001600160a01b038f1684526000604085015290505b60408301518c111561131b57603560008e8e866040015181811061118f57fe5b90506020020160208101906111a49190614c98565b6001600160a01b03166001600160a01b0316815260200190815260200160002060040160009054906101000a90046001600160a01b0316828460400151815181106111eb57fe5b60200260200101906001600160a01b031690816001600160a01b03168152505061124161271061123b60098e8e886040015181811061122657fe5b9050602002013561375a90919063ffffffff16565b90613794565b8184604001518151811061125157fe5b6020026020010181815250508183604001518151811061126d57fe5b60200260200101516001600160a01b0316634efecaa58f8d8d876040015181811061129457fe5b905060200201356040518363ffffffff1660e01b81526004016112b8929190615a0c565b602060405180830381600087803b1580156112d257600080fd5b505af11580156112e6573d6000803e3d6000fd5b505050506040513d601f19601f8201168201806040525081019061130a91906151c8565b50604083018051600101905261116f565b82600001516001600160a01b031663920f5c848e8e8e8e86338d8d6040518963ffffffff1660e01b8152600401611359989796959493929190615b09565b602060405180830381600087803b15801561137357600080fd5b505af1158015611387573d6000803e3d6000fd5b505050506040513d601f19601f820116820180604052508101906113ab919061518e565b604051806040016040528060028152602001611b1b60f11b815250906113e45760405162461bcd60e51b8152600401610b6c9190615ba1565b50600060408401525b60408301518c1115611715578c8c846040015181811061140957fe5b905060200201602081019061141e9190614c98565b6001600160a01b0316606084015260408301518b908b9081811061143e57fe5b905060200201358360a00181815250508083604001518151811061145e57fe5b60200260200101518360c00181815250508183604001518151811061147f57fe5b60209081029190910101516001600160a01b0316608084015260c083015160a08401516114ab916137d6565b60e08401526000898985604001518181106114c257fe5b9050602002013560028111156114d457fe5b60028111156114df57fe5b14156116115760608301516001600160a01b0316600090815260356020526040902061150a906129c9565b6115aa83608001516001600160a01b03166318160ddd6040518163ffffffff1660e01b815260040160206040518083038186803b15801561154a57600080fd5b505afa15801561155e573d6000803e3d6000fd5b505050506040513d601f19601f8201168201806040525081019061158291906151c8565b60c085015160608601516001600160a01b0316600090815260356020526040902091906137fb565b6060830151608084015160e08501516001600160a01b03831660009081526035602052604081206115e094909390929091612a96565b61160c8e84608001518560e0015186606001516001600160a01b03166138b8909392919063ffffffff16565b6116a0565b6116a060405180610100016040528085606001516001600160a01b03168152602001336001600160a01b03168152602001896001600160a01b031681526020018560a0015181526020018b8b876040015181811061166b57fe5b90506020020135815260200185608001516001600160a01b031681526020018661ffff168152602001600015158152506130dd565b82606001516001600160a01b0316336001600160a01b03168f6001600160a01b03167f631042c832b07452973831137f2d73e395028b44b250dedc5abb0ee766e168ac8660a001518760c00151896040516116fd93929190615da3565b60405180910390a460408301805160010190526113ed565b5050505050505050505050505050565b61172d612492565b6001600160a01b03909116600090815260356020526040902055565b611751612492565b6039805460ff1916821515179081905560ff1615611797576040517f9e87fac88ff661f02d44f95383c817fece4bce600a3dab7a54406878b965e75290600090a16117c1565b6040517fa45f47fdea8a1efdd9029a5691c7f759c32b7c698632b563573e155625d1693390600090a15b50565b60008060008060008061189d876035603660008b6001600160a01b03166001600160a01b031681526020019081526020016000206040518060200160405290816000820154815250506037603854603460009054906101000a90046001600160a01b03166001600160a01b031663fca513a86040518163ffffffff1660e01b815260040160206040518083038186803b15801561186057600080fd5b505afa158015611874573d6000803e3d6000fd5b505050506040513d601f19601f820116820180604052508101906118989190614cb5565b613916565b939950919750909450925090506118b5868684613dd7565b935091939550919395565b6118c8614999565b506001600160a01b031660009081526035602090815260409182902082519182019092529054815290565b60006118fd613e02565b60015490915060ff16806119145750611914613e07565b80611920575060005481115b61193c5760405162461bcd60e51b8152600401610b6c90615be2565b60015460ff1615801561195b576001805460ff19168117905560008290555b603480546001600160a01b0319166001600160a01b03851617905580156107ea576001805460ff19169055505050565b61048e858585858560016122c1565b6119a2612915565b6001600160a01b03808316600090815260356020526040808220600480820154600583015493516370a0823160e01b81529295908116949316916370a08231916119ee91889101615804565b60206040518083038186803b158015611a0657600080fd5b505afa158015611a1a573d6000803e3d6000fd5b505050506040513d601f19601f82011682018060405250810190611a3e91906151c8565b6005840154600685015460405163548cad0960e01b815292935073__$de8c0cf1a7d7c36c802af9a64fb9d86036$__9263548cad0992611a949288928b926001600160a01b039081169216908990600401615ca4565b60006040518083038186803b158015611aac57600080fd5b505af4158015611ac0573d6000803e3d6000fd5b50505050611acd836129c9565b6005830154604051632770a7eb60e21b81526001600160a01b0390911690639dc29fac90611b019087908590600401615a0c565b600060405180830381600087803b158015611b1b57600080fd5b505af1158015611b2f573d6000803e3d6000fd5b505050506005830154600384015460405163b3f1c93d60e01b81526001600160a01b039092169163b3f1c93d91611b78918891829187916001600160801b031690600401615935565b602060405180830381600087803b158015611b9257600080fd5b505af1158015611ba6573d6000803e3d6000fd5b505050506040513d601f19601f82011682018060405250810190611bca919061518e565b50611bd9838684600080612a96565b836001600160a01b0316856001600160a01b03167f9f439ae0c81e41a04d3fdfe07aed54e6a179fb0db15be7702eb66fa8ef6f530060405160405180910390a35050505050565b6001600160a01b03811660009081526035602052604081206105d690613e0d565b60608060385467ffffffffffffffff81118015611c5d57600080fd5b50604051908082528060200260200182016040528015611c87578160200160208202803683370190505b50905060005b603854811015611ce05760008181526037602052604090205482516001600160a01b0390911690839083908110611cc057fe5b6001600160a01b0390921660209283029190910190910152600101611c8d565b50905090565b611cee612915565b6001600160a01b038681166000908152603560209081526040918290206004015482518084019093526002835261363360f01b918301919091529091163314611d4a5760405162461bcd60e51b8152600401610b6c9190615ba1565b50611e0685603560366000896001600160a01b03166001600160a01b031681526020019081526020016000206037603854603460009054906101000a90046001600160a01b03166001600160a01b031663fca513a86040518163ffffffff1660e01b815260040160206040518083038186803b158015611dc957600080fd5b505afa158015611ddd573d6000803e3d6000fd5b505050506040513d601f19601f82011682018060405250810190611e019190614cb5565b613e6c565b6001600160a01b03868116600090815260356020526040902060070154600160a01b900460ff169085811690871614611f2657611e438385613ee2565b611eaf576001600160a01b038616600090815260366020526040812090611e6d9082908490612953565b866001600160a01b0316886001600160a01b03167f44c58d81365b66dd4b1a7f36c25aa97b8c71c361ee4937adc1a00000227db5dd60405160405180910390a3505b81158015611ebc57508315155b15611f26576001600160a01b0385166000908152603660205260409020611ee581836001612953565b856001600160a01b0316886001600160a01b03167e058a56ea94653cdf4f152d227ace22d4c00ad99e2a43f58cb7d9e3feb295f260405160405180910390a3505b50505050505050565b6109c481565b611f3d612492565b6001600160a01b0384166000818152603a60205260409081902085815560018101859055600201839055517f9024b3426a4e9414d151d7f1c7c15f9093996f60f4c4f3f6f1bb50c9725ce1a490611f9990869086908690615dcb565b60405180910390a250505050565b611faf612915565b6001600160a01b038416600090815260356020526040908190209051630eca322b60e01b815273__$de8c0cf1a7d7c36c802af9a64fb9d86036$__90630eca322b906120019084908890600401615d1b565b60006040518083038186803b15801561201957600080fd5b505af415801561202d573d6000803e3d6000fd5b505050506001600160a01b038581166000908152603a602052604090206004830154815491921690156121175781600001546120da87836001600160a01b03166318160ddd6040518163ffffffff1660e01b815260040160206040518083038186803b15801561209c57600080fd5b505afa1580156120b0573d6000803e3d6000fd5b505050506040513d601f19601f820116820180604052508101906120d491906151c8565b906137d6565b111560405180604001604052806002815260200161383160f01b815250906121155760405162461bcd60e51b8152600401610b6c9190615ba1565b505b612120836129c9565b61212e838883896000612a96565b6121436001600160a01b0388163383896138b8565b6001830154604051630ab714fb60e11b81526000916001600160a01b0384169163156e29f691612185918a918c916001600160801b0390911690600401615a1a565b602060405180830381600087803b15801561219f57600080fd5b505af11580156121b3573d6000803e3d6000fd5b505050506040513d601f19601f820116820180604052508101906121d7919061518e565b905080156122515760078401546001600160a01b038716600090815260366020526040902061221191600160a01b900460ff166001612953565b856001600160a01b0316886001600160a01b03167e058a56ea94653cdf4f152d227ace22d4c00ad99e2a43f58cb7d9e3feb295f260405160405180910390a35b8461ffff16866001600160a01b0316896001600160a01b03167fde6857219544bb5b7746f48ed30be6386fefc61b2f864cacf559893bf50fd951338b60405161229b929190615870565b60405180910390a45050505050505050565b608081565b6034546001600160a01b031690565b6122c9612915565b6034546040805163712d917160e01b815290516000926001600160a01b03169163712d9171916004808301926020929190829003018186803b15801561230e57600080fd5b505afa158015612322573d6000803e3d6000fd5b505050506040513d601f19601f820116820180604052508101906123469190614cb5565b905060006060826001600160a01b0316898989898989604051602401612371969594939291906158b3565b60408051601f198184030181529181526020820180516001600160e01b0316631182c49b60e31b179052516123a691906157f8565b600060405180830381855af49150503d80600081146123e1576040519150601f19603f3d011682016040523d82523d6000602084013e6123e6565b606091505b50915091508160405180604001604052806002815260200161323360f01b815250906124255760405162461bcd60e51b8152600401610b6c9190615ba1565b50600060608280602001905181019061243e91906151e5565b91509150816000148160405160200161245791906157f8565b604051602081830303815290604052906124845760405162461bcd60e51b8152600401610b6c9190615ba1565b505050505050505050505050565b603454604080516385c858b160e01b8152905133926001600160a01b0316916385c858b1916004808301926020929190829003018186803b1580156124d657600080fd5b505afa1580156124ea573d6000803e3d6000fd5b505050506040513d601f19601f8201168201806040525081019061250e9190614cb5565b6001600160a01b03161460405180604001604052806002815260200161323760f01b815250906117c15760405162461bcd60e51b8152600401610b6c9190615ba1565b600381015460009064ffffffffff600160801b909104811690421681141561258f5750506001810154600160801b90046001600160801b03166105b0565b60018301546002840154600091610622916001600160801b03600160801b928390048116926125c092041685613f24565b90613f31565b60006125d0612915565b6001600160a01b038616600090815260356020526040812090806125f48684612fc8565b91509150600087600281111561260657fe5b60405163fa0c214960e01b815290915073__$de8c0cf1a7d7c36c802af9a64fb9d86036$__9063fa0c21499061264a9087908d9086908d908a908a90600401615d29565b60006040518083038186803b15801561266257600080fd5b505af4158015612676573d6000803e3d6000fd5b5060009250600191506126869050565b82600281111561269257fe5b1461269d578261269f565b835b9050808a10156126ac5750885b6126b5856129c9565b60018260028111156126c357fe5b1415612734576005850154604051632770a7eb60e21b81526001600160a01b0390911690639dc29fac906126fd908b908590600401615a0c565b600060405180830381600087803b15801561271757600080fd5b505af115801561272b573d6000803e3d6000fd5b505050506127b2565b60068501546001860154604051637a94c56560e11b81526001600160a01b039092169163f5298aca9161277f918c918691600160801b9091046001600160801b031690600401615a1a565b600060405180830381600087803b15801561279957600080fd5b505af11580156127ad573d6000803e3d6000fd5b505050505b60048501546001600160a01b03166127ce868d83856000612a96565b6127e2826127dc87876137d6565b90613ee2565b61281a5760078601546001600160a01b038a16600090815260366020526040812061281a929091600160a01b90910460ff1690613fc4565b8715612898576001860154604051636b81068560e11b81526001600160a01b0383169163d7020d0a91612861913391869188916001600160801b0390911690600401615855565b600060405180830381600087803b15801561287b57600080fd5b505af115801561288f573d6000803e3d6000fd5b505050506128ad565b6128ad6001600160a01b038d163383856138b8565b336001600160a01b0316896001600160a01b03168d6001600160a01b03167fa534c8dbe71f871f9f3530e97a74601fea17b426cae02e1c5aee42c96c784051858c6040516128fc929190615d7a565b60405180910390a4509450505050505b95945050505050565b6039546040805180820190915260028152610d8d60f21b60208201529060ff16156117c15760405162461bcd60e51b8152600401610b6c9190615ba1565b604080518082019091526002815261373760f01b60208201526080831061298d5760405162461bcd60e51b8152600401610b6c9190615ba1565b5081600202600101816129a15760006129a4565b60015b60ff16901b826002026001016001901b19846000015416178360000181905550505050565b60068101546040805163b1bf962d60e01b815290516000926001600160a01b03169163b1bf962d916004808301926020929190829003018186803b158015612a1057600080fd5b505afa158015612a24573d6000803e3d6000fd5b505050506040513d601f19601f82011682018060405250810190612a4891906151c8565b60018301546003840154919250600160801b8082046001600160801b03908116939216910464ffffffffff16600080612a848787868887614034565b91509150611f26878787858588614191565b612a9e614a19565b60058601546001600160a01b031680825260408051637b98f4df60e11b8152815163f731e9be92600480840193919291829003018186803b158015612ae257600080fd5b505afa158015612af6573d6000803e3d6000fd5b505050506040513d601f19601f82011682018060405250810190612b1a919061522a565b60c083015260408083019190915260018701546006880154825163b1bf962d60e01b81529251612bbf93600160801b9093046001600160801b0316926001600160a01b039092169163b1bf962d916004808301926020929190829003018186803b158015612b8757600080fd5b505afa158015612b9b573d6000803e3d6000fd5b505050506040513d601f19601f820116820180604052508101906125c091906151c8565b60e08201526040516370a0823160e01b81526001600160a01b038616906370a0823190612bf0908790600401615804565b60206040518083038186803b158015612c0857600080fd5b505afa158015612c1c573d6000803e3d6000fd5b505050506040513d601f19601f82011682018060405250810190612c4091906151c8565b6020820181905260078701546001600160a01b031690639584df28908790612c6e9086906127dc90896137d6565b604085015160e086015160c0870151612c868d614361565b6040518763ffffffff1660e01b8152600401612ca796959493929190615aba565b60606040518083038186803b158015612cbf57600080fd5b505afa158015612cd3573d6000803e3d6000fd5b505050506040513d601f19601f82011682018060405250810190612cf79190615258565b60a0840152608083015260608201819052604080518082019091526002815261353360f01b6020820152906001600160801b031015612d495760405162461bcd60e51b8152600401610b6c9190615ba1565b506080810151604080518082019091526002815261353560f01b6020820152906001600160801b031015612d905760405162461bcd60e51b8152600401610b6c9190615ba1565b5060a08101516040805180820190915260028152610d4d60f21b6020820152906001600160801b031015612dd75760405162461bcd60e51b8152600401610b6c9190615ba1565b506060810151600287018054608084015160038a0180546001600160801b03199081166001600160801b038085169190911790925560a08701519316818616178116600160801b84831681029190911790945560018b01546040516001600160a01b038c16967f804c9b842b2748a22bb64b345453a3de7ca54a6ca45ce00d415894979e22897a96612e789691959491938083169391900490911690615de6565b60405180910390a2505050505050565b6000813f7fc5d2460186f7233c927e7db2dcc703c0e500b653ca82273b7bfad8045d85a470818114801590610622575050151592915050565b603854604080518082019091526002815261363560f01b602082015260808210612efe5760405162461bcd60e51b8152600401610b6c9190615ba1565b506001600160a01b038216600090815260356020526040812060070154600160a01b900460ff16151580612f6757506000805260376020527fa0a618d80eda9243166be83cb7421d97e9dab6ddddd3c70ac7a6b4440256e8e7546001600160a01b038481169116145b9050806107ea57506001600160a01b03919091166000818152603560209081526040808320600701805460ff60a01b1916600160a01b60ff8816021790558483526037909152902080546001600160a01b0319169091179055600101603855565b60058101546040516370a0823160e01b815260009182916001600160a01b03909116906370a0823190612fff908790600401615804565b60206040518083038186803b15801561301757600080fd5b505afa15801561302b573d6000803e3d6000fd5b505050506040513d601f19601f8201168201806040525081019061304f91906151c8565b60068401546040516370a0823160e01b81526001600160a01b03909116906370a0823190613081908890600401615804565b60206040518083038186803b15801561309957600080fd5b505afa1580156130ad573d6000803e3d6000fd5b505050506040513d601f19601f820116820180604052508101906130d191906151c8565b915091505b9250929050565b80516001600160a01b0390811660009081526035602090815260408083208186015185168452603683528184206034548351631f94a27560e31b81529351929691959491169263fca513a89260048083019392829003018186803b15801561314457600080fd5b505afa158015613158573d6000803e3d6000fd5b505050506040513d601f19601f8201168201806040525081019061317c9190614cb5565b9050600061321d61318c8561436c565b600a0a61123b8760600151856001600160a01b031663b3596f078a600001516040518263ffffffff1660e01b81526004016131c79190615804565b60206040518083038186803b1580156131df57600080fd5b505afa1580156131f3573d6000803e3d6000fd5b505050506040513d601f19601f8201168201806040525081019061321791906151c8565b9061375a565b905073__$de8c0cf1a7d7c36c802af9a64fb9d86036$__6354245e02866000015187604001518860600151858a608001516109c460358b60376038548d6040518c63ffffffff1660e01b81526004016132809b9a99989796959493929190615978565b60006040518083038186803b15801561329857600080fd5b505af41580156132ac573d6000803e3d6000fd5b505050506132b9846129c9565b84516001600160a01b03166000908152603a602052604081206001810154829190156134045780600101546133c789606001516120d48a60060160009054906101000a90046001600160a01b03166001600160a01b03166318160ddd6040518163ffffffff1660e01b815260040160206040518083038186803b15801561333f57600080fd5b505afa158015613353573d6000803e3d6000fd5b505050506040513d601f19601f8201168201806040525081019061337791906151c8565b8b60050160009054906101000a90046001600160a01b03166001600160a01b03166318160ddd6040518163ffffffff1660e01b815260040160206040518083038186803b15801561209c57600080fd5b1115604051806040016040528060028152602001611c1960f11b815250906134025760405162461bcd60e51b8152600401610b6c9190615ba1565b505b60018860800151600281111561341657fe5b600281111561342157fe5b14156134d6576003870154600588015460208a01516040808c015160608d0151915163b3f1c93d60e01b81526001600160801b0390951697506001600160a01b039093169363b3f1c93d9361347d939290918990600401615943565b602060405180830381600087803b15801561349757600080fd5b505af11580156134ab573d6000803e3d6000fd5b505050506040513d601f19601f820116820180604052508101906134cf919061518e565b9150613585565b600687015460208901516040808b015160608c015160018c0154925163b3f1c93d60e01b81526001600160a01b039095169463b3f1c93d946135309490939291600160801b9091046001600160801b031690600401615935565b602060405180830381600087803b15801561354a57600080fd5b505af115801561355e573d6000803e3d6000fd5b505050506040513d601f19601f82011682018060405250810190613582919061518e565b91505b81156135a75760078701546135a7908790600160a01b900460ff166001613fc4565b6135d688600001518960a0015160008b60e001516135c65760006135cc565b8b606001515b8b93929190612a96565b8760e001511561366e578760a001516001600160a01b0316634efecaa589602001518a606001516040518363ffffffff1660e01b815260040161361a929190615a0c565b602060405180830381600087803b15801561363457600080fd5b505af1158015613648573d6000803e3d6000fd5b505050506040513d601f19601f8201168201806040525081019061366c91906151c8565b505b8760c0015161ffff1688604001516001600160a01b031689600001516001600160a01b03167fc6a898309e823ee50bac64e45ca8adba6690e99e7841c45d754e2a38e9019d9b8b602001518c606001518d60800151600160028111156136d057fe5b8f6080015160028111156136e057fe5b60028111156136eb57fe5b1461370a5760028e0154600160801b90046001600160801b031661370c565b895b60405161229b9493929190615a9f565b805182511460405180604001604052806002815260200161373360f01b815250906107ea5760405162461bcd60e51b8152600401610b6c9190615ba1565b600082613769575060006105d6565b8282028284828161377657fe5b0414610b1b5760405162461bcd60e51b8152600401610b6c90615bd2565b6000610b1b83836040518060400160405280601a81526020017f536166654d6174683a206469766973696f6e206279207a65726f000000000000815250614376565b600082820183811015610b1b5760405162461bcd60e51b8152600401610b6c90615bb2565b6000613818613809846143ad565b613812846143ad565b906143fd565b9050600061382e6138276144a8565b83906137d6565b600186015490915061384a9082906001600160801b0316613f31565b604080518082019091526002815261353160f01b60208201529091506001600160801b0382111561388e5760405162461bcd60e51b8152600401610b6c9190615ba1565b5060019490940180546001600160801b0319166001600160801b0390951694909417909355505050565b613910846323b872dd60e01b8585856040516024016138d99392919061590d565b60408051601f198184030181529190526020810180516001600160e01b03166001600160e01b0319909316929092179091526144b8565b50505050565b6000806000806000613926614a67565b61392f8a61459d565b1561394d576000806000806000199550955095509550955050613dc9565b600060e08201525b878160e001511015613d285760e0810151613971908b906145a2565b61397a57613d18565b60e0810151600090815260208a81526040808320546001600160a01b03166101e085018190528352908d905290206139b1816145f3565b506080860181905260c08601929092525060a0840191909152600a0a60208301526101e082015160405163b3596f0760e01b81526001600160a01b038a169163b3596f0791613a039190600401615804565b60206040518083038186803b158015613a1b57600080fd5b505afa158015613a2f573d6000803e3d6000fd5b505050506040513d601f19601f82011682018060405250810190613a5391906151c8565b825260c082015115801590613a73575060e0820151613a73908c9061461e565b15613b91578060040160009054906101000a90046001600160a01b03166001600160a01b03166370a082318e6040518263ffffffff1660e01b8152600401613abb9190615804565b60206040518083038186803b158015613ad357600080fd5b505afa158015613ae7573d6000803e3d6000fd5b505050506040513d601f19601f82011682018060405250810190613b0b91906151c8565b6040830181905260208301518351600092613b2a929161123b9161375a565b610120840151909150613b3d90826137d6565b61012084015260a0830151613b6390613b5790839061375a565b610160850151906137d6565b61016084015260c0830151613b8990613b7d90839061375a565b610180850151906137d6565b610180840152505b60e0820151613ba1908c90614676565b15613d16578060050160009054906101000a90046001600160a01b03166001600160a01b03166370a082318e6040518263ffffffff1660e01b8152600401613be99190615804565b60206040518083038186803b158015613c0157600080fd5b505afa158015613c15573d6000803e3d6000fd5b505050506040513d601f19601f82011682018060405250810190613c3991906151c8565b826060018181525050613ce38160060160009054906101000a90046001600160a01b03166001600160a01b03166370a082318f6040518263ffffffff1660e01b8152600401613c889190615804565b60206040518083038186803b158015613ca057600080fd5b505afa158015613cb4573d6000803e3d6000fd5b505050506040513d601f19601f82011682018060405250810190613cd891906151c8565b6060840151906137d6565b6060830181905260208301518351613d0f92613d03929161123b9161375a565b610140840151906137d6565b6101408301525b505b60e0810180516001019052613955565b600081610120015111613d3c576000613d51565b610120810151610160820151613d5191613794565b610160820152610120810151613d68576000613d7d565b610120810151610180820151613d7d91613794565b6101808201819052610120820151610140830151613d9a926146c7565b610100820181905261012082015161014083015161016084015161018090940151919850965091945090925090505b965096509650965096915050565b600080613de485846146eb565b905083811015613df8576000915050610b1b565b61290c8185613ee2565b600290565b303b1590565b600381015460009064ffffffffff600160801b9091048116904216811415613e4457505060018101546001600160801b03166105b0565b60018301546002840154600091610622916001600160801b03918216916125c091168561475a565b604080516020810190915284548152600090613e8e9088908890878787613916565b945050505050670de0b6b3a7640000811015604051806040016040528060018152602001601b60f91b81525090613ed85760405162461bcd60e51b8152600401610b6c9190615ba1565b5050505050505050565b6000610b1b83836040518060400160405280601e81526020017f536166654d6174683a207375627472616374696f6e206f766572666c6f770000815250614798565b6000610b1b8383426147c4565b6000821580613f3e575081155b15613f4b575060006105d6565b816b019d971e4fe8401e740000001981613f6157fe5b0483111560405180604001604052806002815260200161068760f31b81525090613f9e5760405162461bcd60e51b8152600401610b6c9190615ba1565b506b033b2e3c9fd0803ce80000006002815b048385020181613fbc57fe5b049392505050565b604080518082019091526002815261373760f01b602082015260808310613ffe5760405162461bcd60e51b8152600401610b6c9190615ba1565b50816002028161400f576000614012565b60015b60ff16901b826002026001901b19846000015416178360000181905550505050565b600285015460009081906001600160801b03168585821561416257600061405b848861475a565b9050614067818a613f31565b604080518082019091526002815261353160f01b60208201529093506001600160801b038411156140ab5760405162461bcd60e51b8152600401610b6c9190615ba1565b5060018b0180546001600160801b0319166001600160801b03851617905589156141605760028b01546000906140f190600160801b90046001600160801b031689613f24565b90506140fd818a613f31565b6040805180820190915260028152611a9960f11b60208201529093506001600160801b038411156141415760405162461bcd60e51b8152600401610b6c9190615ba1565b505060018b0180546001600160801b03808516600160801b0291161790555b505b600399909901805464ffffffffff60801b1916600160801b4264ffffffffff1602179055989650505050505050565b614199614b01565b6141a287614361565b61012082018190526141b4575061103a565b8660050160009054906101000a90046001600160a01b03166001600160a01b031663797743386040518163ffffffff1660e01b815260040160806040518083038186803b15801561420457600080fd5b505afa158015614218573d6000803e3d6000fd5b505050506040513d601f19601f8201168201806040525081019061423c9190615299565b64ffffffffff1661014085015260a08401528252602082015261425f8686613f31565b608082015261426e8684613f31565b606082015260a0810151610140820151614290919064ffffffffff85166147c4565b60c0820181905260208201516142a591613f31565b604082018190526080820151825160608401516142ca93926127dc92909183916137d6565b60e082018190526101208201516142e191906146eb565b610100820181905215611f2657600480880154610100830151604051637df5bd3b60e01b81526001600160a01b0390921692637df5bd3b926143269291899101615d95565b600060405180830381600087803b15801561434057600080fd5b505af1158015614354573d6000803e3d6000fd5b5050505050505050505050565b5460401c61ffff1690565b5460301c60ff1690565b600081836143975760405162461bcd60e51b8152600401610b6c9190615ba1565b5060008385816143a357fe5b0495945050505050565b6000633b9aca0082810290839082041460405180604001604052806002815260200161068760f31b815250906143f65760405162461bcd60e51b8152600401610b6c9190615ba1565b5092915050565b604080518082019091526002815261035360f41b6020820152600090826144375760405162461bcd60e51b8152600401610b6c9190615ba1565b5060408051808201909152600280825261068760f31b60208301528304906b033b2e3c9fd0803ce80000008219048511156144855760405162461bcd60e51b8152600401610b6c9190615ba1565b5082816b033b2e3c9fd0803ce80000008602018161449f57fe5b04949350505050565b6b033b2e3c9fd0803ce800000090565b6144ca826001600160a01b0316612e88565b6144e65760405162461bcd60e51b8152600401610b6c90615c02565b60006060836001600160a01b03168360405161450291906157f8565b6000604051808303816000865af19150503d806000811461453f576040519150601f19603f3d011682016040523d82523d6000602084013e614544565b606091505b5091509150816145665760405162461bcd60e51b8152600401610b6c90615bc2565b8051156139105780806020019051810190614581919061518e565b6139105760405162461bcd60e51b8152600401610b6c90615bf2565b511590565b60006080821060405180604001604052806002815260200161373760f01b815250906145e15760405162461bcd60e51b8152600401610b6c9190615ba1565b50509051600360029092021c16151590565b5461ffff80821692601083901c821692602081901c831692603082901c60ff169260409290921c1690565b60006080821060405180604001604052806002815260200161373760f01b8152509061465d5760405162461bcd60e51b8152600401610b6c9190615ba1565b5050815160016002830281019190911c16151592915050565b60006080821060405180604001604052806002815260200161373760f01b815250906146b55760405162461bcd60e51b8152600401610b6c9190615ba1565b50509051600160029092021c16151590565b6000826146d75750600019610b1b565b610622836146e586856146eb565b90614894565b60008215806146f8575081155b15614705575060006105d6565b81611388198161471157fe5b0483111560405180604001604052806002815260200161068760f31b8152509061474e5760405162461bcd60e51b8152600401610b6c9190615ba1565b50612710600281613fb0565b60008061476e4264ffffffffff8516613ee2565b905061062261477b6144a8565b6301e1338061478a878561375a565b8161479157fe5b04906137d6565b600081848411156147bc5760405162461bcd60e51b8152600401610b6c9190615ba1565b505050900390565b6000806147d88364ffffffffff8616613ee2565b9050806147ef576147e76144a8565b915050610b1b565b600019810160006002831161480557600061480a565b600283035b90506301e133808704600061481f8280613f31565b9050600061482d8284613f31565b905060006002614841846132178a8a61375a565b8161484857fe5b0490506000600661485f8461321789818d8d61375a565b8161486657fe5b049050614884816120d4848161487c8a8e61375a565b6120d46144a8565b9c9b505050505050505050505050565b604080518082019091526002815261035360f41b6020820152600090826148ce5760405162461bcd60e51b8152600401610b6c9190615ba1565b5060408051808201909152600280825261068760f31b6020830152830490670de0b6b3a76400008219048511156149185760405162461bcd60e51b8152600401610b6c9190615ba1565b508281670de0b6b3a76400008602018161449f57fe5b604051806101800160405280614942614999565b815260006020820181905260408201819052606082018190526080820181905260a0820181905260c0820181905260e082018190526101008201819052610120820181905261014082018190526101609091015290565b6040518060200160405280600081525090565b60405180606001604052806000815260200160008152602001600081525090565b6040805161012081018252600080825260208201819052918101829052606081018290526080810182905260a0810182905260c0810182905260e0810182905261010081019190915290565b60405180610100016040528060006001600160a01b03168152602001600081526020016000815260200160008152602001600081526020016000815260200160008152602001600081525090565b604051806102400160405280600081526020016000815260200160008152602001600081526020016000815260200160008152602001600081526020016000815260200160008152602001600081526020016000815260200160008152602001600081526020016000815260200160001515815260200160006001600160a01b031681526020016000151581526020016000151581525090565b60405180610160016040528060008152602001600081526020016000815260200160008152602001600081526020016000815260200160008152602001600081526020016000815260200160008152602001600064ffffffffff1681525090565b80356105d681615f6a565b80516105d681615f6a565b60008083601f840112614b89578182fd5b50813567ffffffffffffffff811115614ba0578182fd5b6020830191508360208202830111156130d657600080fd5b80356105d681615f7e565b80516105d681615f7e565b60008083601f840112614bdf578182fd5b50813567ffffffffffffffff811115614bf6578182fd5b6020830191508360018202830111156130d657600080fd5b80356105d681615f87565b600082601f830112614c29578081fd5b8151614c3c614c3782615e5d565b615e36565b91508082526020830160208301858383011115614c5857600080fd5b614c63838284615f2a565b50505092915050565b80356105d681615f90565b80356105d681615f99565b80516105d681615f99565b80516105d681615fa2565b600060208284031215614ca9578081fd5b610b1b83828401614b62565b600060208284031215614cc6578081fd5b610b1b83828401614b6d565b60008060408385031215614ce4578081fd5b614cf084828501614b62565b91506020614d0085828601614b62565b9150509250929050565b600080600080600060a08688031215614d21578081fd5b614d2d87828801614b62565b94506020614d3d88828901614b62565b9450506040614d4e88828901614b62565b9350506060614d5f88828901614b62565b9250506080614d7088828901614b62565b9150509295509295909350565b600080600080600060a08688031215614d94578081fd5b614da087828801614b62565b94506020614db088828901614b62565b9450506040614dc188828901614b62565b9350506060614dd288828901614c77565b9250506080614d7088828901614bb8565b60008060008060008060c08789031215614dfb578081fd5b614e0788828901614b62565b95506020614e1789828a01614b62565b9550506040614e2889828a01614b62565b9450506060614e3989828a01614c77565b9350506080614e4a89828a01614c77565b92505060a0614e5b89828a01614c77565b9150509295509295509295565b600080600080600080600080600080600060e08c8e031215614e88578485fd5b614e948d868e01614b62565b9a5060208c013567ffffffffffffffff811115614eaf578586fd5b614ebb8e828f01614b78565b9a509a505060408c013567ffffffffffffffff811115614ed9578586fd5b614ee58e828f01614b78565b985098505060608c013567ffffffffffffffff811115614f03578586fd5b614f0f8e828f01614b78565b96509650506080614f228e828f01614b62565b94505060a08c013567ffffffffffffffff811115614f3e578384fd5b614f4a8e828f01614bce565b935093505060c0614f5d8e828f01614c6c565b9150509295989b509295989b9093969950565b60008060408385031215614f82578081fd5b614f8e84828501614b62565b91506020614d0085828601614bb8565b60008060408385031215614fb0578182fd5b614fbc84838501614b62565b91506020614d0085828601614c77565b600080600060608486031215614fe0578081fd5b614fec85828601614b62565b92506020614ffc86828701614c77565b925050604061500d86828701614b62565b9150509250925092565b6000806000806080858703121561502c578182fd5b61503886838701614b62565b9350602061504887828801614c77565b935050604061505987828801614b62565b925050606061506a87828801614c6c565b91505092959194509250565b6000806000806080858703121561508b578182fd5b61509786838701614b62565b935060206150a787828801614c77565b93505060406150b887828801614c77565b925050606061506a87828801614b62565b600080600080600060a086880312156150e0578283fd5b6150ec87848801614b62565b945060206150fc88828901614c77565b945050604061510d88828901614c77565b9350506060614d5f88828901614c6c565b60008060008060808587031215615133578182fd5b61513f86838701614b62565b9350602061514f87828801614c77565b935050604061516087828801614c77565b925050606061506a87828801614c77565b600060208284031215615182578081fd5b610b1b83828401614bb8565b60006020828403121561519f578081fd5b610b1b83828401614bc3565b6000602082840312156151bc578081fd5b610b1b83828401614c0e565b6000602082840312156151d9578081fd5b610b1b83828401614c82565b600080604083850312156151f7578182fd5b61520384838501614c82565b9150602083015167ffffffffffffffff81111561521e578182fd5b614d0085828601614c19565b6000806040838503121561523c578182fd5b61524884838501614c82565b91506020614d0085828601614c82565b60008060006060848603121561526c578081fd5b61527885828601614c82565b9250602061528886828701614c82565b925050604061500d86828701614c82565b600080600080608085870312156152ae578182fd5b6152ba86838701614c82565b935060206152ca87828801614c82565b93505060406152db87828801614c82565b925050606061506a87828801614c8d565b60006152f8838361531b565b505060200190565b60006152f883836157dd565b61531581615efd565b82525050565b61531581615ea9565b60006153308385615e91565b935061533b82615e84565b80825b85811015615370576153508284615e9a565b61535a88826152ec565b97505061536682615e87565b915060010161533e565b509495945050505050565b600061538682615e8d565b6153908185615e91565b935061539b83615e87565b825b828110156153c75781516153b187826152ec565b9650506153bd82615e87565b915060010161539d565b5093949350505050565b60006153dd8385615e91565b93506001600160fb1b038311156153f2578081fd5b602083029250615403838584615f1e565b50500190565b600061541482615e8d565b61541e8185615e91565b935061542983615e87565b825b828110156153c757815161543f8782615300565b96505061544b82615e87565b915060010161542b565b61531581615eb4565b600061546a8385615e91565b9350615477838584615f1e565b61548083615f56565b9093019392505050565b600061549582615e8d565b61549f81856105b0565b93506154af818560208601615f2a565b9290920192915050565b61531581615eb9565b61531581615f08565b9052565b60006154da82615e8d565b6154e48185615e91565b93506154f4818560208601615f2a565b61548081615f56565b600061550a601b83615e91565b7f536166654d6174683a206164646974696f6e206f766572666c6f77000000000091810191909152602001919050565b6000615547602083615e91565b7f5361666545524332303a206c6f772d6c6576656c2063616c6c206661696c656491810191909152602001919050565b6000615584602183615e91565b7f536166654d6174683a206d756c7469706c69636174696f6e206f766572666c6f91810191909152607760f81b6020820152604001919050565b60006155cb602e83615e91565b7f436f6e747261637420696e7374616e63652068617320616c7265616479206265918101919091526d195b881a5b9a5d1a585b1a5e995960921b6020820152604001919050565b600061561f602a83615e91565b7f5361666545524332303a204552433230206f7065726174696f6e20646964206e91810191909152691bdd081cdd58d8d9595960b21b6020820152604001919050565b600061566f601f83615e91565b7f5361666545524332303a2063616c6c20746f206e6f6e2d636f6e74726163740091810191909152602001919050565b80516107ea83826157dd565b80516156b7838261569f565b5060208101516156ca60208401826157c2565b5060408101516156dd60408401826157c2565b5060608101516156f060608401826157c2565b50608081015161570360808401826157c2565b5060a081015161571660a08401826157c2565b5060c081015161572960c08401826157e6565b5060e081015161573c60e084018261531b565b5061010081015161575161010084018261531b565b5061012081015161576661012084018261531b565b5061014081015161577b61014084018261531b565b506101608101516107ea6101608401826157ef565b805161579c83826157dd565b5060208101516157af60208401826157dd565b5060408101516107ea60408401826157dd565b61531581615ece565b61531581615f13565b61531581615eda565b61531581615e84565b61531581615eed565b61531581615ef7565b6000610b1b828461548a565b602081016105d6828461531b565b602081016105d6828461530c565b6080810161582e828761530c565b61583b602083018661530c565b61584860408301856157dd565b61290c60608301846157cb565b60808101615863828761530c565b61583b602083018661531b565b6040810161587e828561530c565b610b1b60208301846157dd565b60608101615899828661530c565b6158a660208301856157dd565b61062260408301846157cb565b60c081016158c1828961531b565b6158ce602083018861531b565b6158db604083018761531b565b6158e860608301866157dd565b6158f56080830185615455565b61590260a0830184615455565b979650505050505050565b6060810161591b828661531b565b615928602083018561531b565b61062260408301846157dd565b60808101615863828761531b565b60808101615951828761531b565b61595e602083018661531b565b61596b60408301856157dd565b61290c60608301846157dd565b6101608101615987828e61531b565b615994602083018d61531b565b6159a1604083018c6157dd565b6159ae606083018b6157dd565b6159bb608083018a6157dd565b6159c860a08301896157dd565b6159d560c08301886154cb565b6159e260e08301876154cb565b6159f06101008301866154cb565b6159fe6101208301856157dd565b61488461014083018461531b565b6040810161587e828561531b565b60608101615899828661531b565b6101008101615a37828b61531b565b615a44602083018a6157dd565b615a5160408301896157dd565b615a5e60608301886154cb565b615a6b60808301876154cb565b615a7860a08301866154cb565b615a8560c08301856157dd565b615a9260e083018461531b565b9998505050505050505050565b60808101615aad828761531b565b61595e60208301866157dd565b60c08101615ac8828961531b565b615ad560208301886157dd565b615ae260408301876157dd565b615aef60608301866157dd565b615afc60808301856157dd565b61590260a08301846157dd565b60a08082528101615b1b818a8c615324565b90508181036020830152615b3081888a6153d1565b90508181036040830152615b448187615409565b9050615b53606083018661530c565b8181036080830152615b6681848661545e565b9a9950505050505050505050565b60208082528101610b1b818461537b565b602081016105d68284615455565b602081016105d682846154b9565b60208082528101610b1b81846154cf565b602080825281016105d6816154fd565b602080825281016105d68161553a565b602080825281016105d681615577565b602080825281016105d6816155be565b602080825281016105d681615612565b602080825281016105d681615662565b602081016105d6828461569f565b61018081016105d682846156ab565b60a08101615c3d82886154cb565b615c4a602083018761531b565b615c57604083018661531b565b615c64606083018561531b565b615c71608083018461531b565b9695505050505050565b6101008101615c8a828b6154cb565b615c97602083018a61531b565b615a516040830189615455565b60a08101615cb282886154cb565b615cbf602083018761531b565b615ccc60408301866154b9565b615c6460608301856154b9565b60a08101615ce782886154cb565b615cf460208301876154cb565b615d0160408301866157dd565b615d0e60608301856157dd565b615c7160808301846154c2565b6040810161587e82856154cb565b60c08101615d3782896154cb565b615d4460208301886157dd565b615d5160408301876154c2565b615aef606083018661531b565b606081016105d68284615790565b602081016105d682846157dd565b60408101615d8882856157dd565b610b1b6020830184615455565b6040810161587e82856157dd565b60608101615db182866157dd565b615dbe60208301856157dd565b61062260408301846157d4565b60608101615dd982866157dd565b61592860208301856157dd565b60a08101615df482886157dd565b615e0160208301876157dd565b615e0e60408301866157dd565b615e1b60608301856157cb565b615c7160808301846157cb565b60c08101615ac882896157dd565b60405181810167ffffffffffffffff81118282101715615e5557600080fd5b604052919050565b600067ffffffffffffffff821115615e73578081fd5b506020601f91909101601f19160190565b90565b60200190565b5190565b90815260200190565b6000610b1b6020840184614b62565b60006105d682615ee1565b151590565b60006105d682615ea9565b806105b081615f60565b6001600160801b031690565b61ffff1690565b6001600160a01b031690565b64ffffffffff1690565b60ff1690565b60006105d682615eb9565b60006105d682615ec4565b60006105d682615ece565b82818337506000910152565b60005b83811015615f45578181015183820152602001615f2d565b838111156139105750506000910152565b601f01601f191690565b600381106117c157fe5b615f7381615ea9565b81146117c157600080fd5b615f7381615eb4565b615f7381615eb9565b615f7381615eda565b615f7381615e84565b615f7381615eed56fea264697066735822122058e5ce91cf3c31fba55d4e7d67c2ec04d1a73e73e205d838846aa27c5686bd9f64736f6c634300060c0033",
    "linkReferences": {
      "contracts/protocol/libraries/logic/ReserveLogic.sol": {
        "ReserveLogic": [
          {
            "start": 3011,
            "length": 20
          }
        ]
      },
      "contracts/protocol/libraries/logic/ValidationLogic.sol": {
        "ValidationLogic": [
          {
            "start": 1686,
            "length": 20
          },
          {
            "start": 2257,
            "length": 20
          },
          {
            "start": 3290,
            "length": 20
          },
          {
            "start": 6783,
            "length": 20
          },
          {
            "start": 8188,
            "length": 20
          },
          {
            "start": 9789,
            "length": 20
          },
          {
            "start": 12870,
            "length": 20
          }
        ]
      }
    }
  },
  "methodIdentifiers": {
    "FLASHLOAN_PREMIUM_TOTAL()": "074b2e43",
    "LENDINGPOOL_REVISION()": "8afaff02",
    "MAX_NUMBER_RESERVES()": "f8119d51",
    "MAX_STABLE_RATE_BORROW_SIZE_PERCENT()": "e82fec2f",
    "borrow(address,uint256,uint256,uint16,address)": "a415bcad",
    "deposit(address,uint256,address,uint16)": "e8eda9df",
    "finalizeTransfer(address,address,address,uint256,uint256,uint256)": "d5ed3933",
    "flashLoan(address,address[],uint256[],uint256[],address,bytes,uint16)": "ab9c4b5d",
    "getAddressesProvider()": "fe65acfe",
    "getConfiguration(address)": "c44b11f7",
    "getReserveData(address)": "35ea6a75",
    "getReserveLimits(address)": "845e79bc",
    "getReserveNormalizedIncome(address)": "d15e0053",
    "getReserveNormalizedVariableDebt(address)": "386497fd",
    "getReservesList()": "d1946dbc",
    "getUserAccountData(address)": "bf92857c",
    "getUserConfiguration(address)": "4417a583",
    "initReserve(address,address,address,address,address)": "7a708e92",
    "initialize(address)": "c4d66de8",
    "liquidationCall(address,address,address,uint256,bool)": "00a718a9",
    "liquidationCallUsingAgToken(address,address,address,uint256,bool)": "c590d0e1",
    "paused()": "5c975abb",
    "rebalanceStableBorrowRate(address,address)": "cd112382",
    "repay(address,uint256,uint256,address)": "573ade81",
    "repayUsingAgToken(address,uint256,uint256,address)": "a666e894",
    "setConfiguration(address,uint256)": "b8d29276",
    "setPause(bool)": "bedb86fb",
    "setReserveInterestRateStrategyAddress(address,address)": "1d2118f9",
    "setReserveLimits(address,uint256,uint256,uint256)": "e8bfdd44",
    "setUserUseReserveAsCollateral(address,bool)": "5a3b74b9",
    "swapBorrowRateMode(address,uint256)": "94ba89a2",
    "withdraw(address,uint256,address)": "69328dec"
  },
  "id": 69
}