{
  "abi": [
    {
      "anonymous": false,
      "inputs": [
        {
          "indexed": true,
          "internalType": "address",
          "name": "reserve",
          "type": "address"
        },
        {
          "indexed": false,
          "internalType": "address",
          "name": "user",
          "type": "address"
        },
        {
          "indexed": true,
          "internalType": "address",
          "name": "onBehalfOf",
          "type": "address"
        },
        {
          "indexed": false,
          "internalType": "uint256",
          "name": "amount",
          "type": "uint256"
        },
        {
          "indexed": false,
          "internalType": "uint256",
          "name": "borrowRateMode",
          "type": "uint256"
        },
        {
          "indexed": false,
          "internalType": "uint256",
          "name": "borrowRate",
          "type": "uint256"
        },
        {
          "indexed": true,
          "internalType": "uint16",
          "name": "referral",
          "type": "uint16"
        }
      ],
      "name": "Borrow",
      "type": "event"
    },
    {
      "anonymous": false,
      "inputs": [
        {
          "indexed": true,
          "internalType": "address",
          "name": "reserve",
          "type": "address"
        },
        {
          "indexed": false,
          "internalType": "address",
          "name": "user",
          "type": "address"
        },
        {
          "indexed": true,
          "internalType": "address",
          "name": "onBehalfOf",
          "type": "address"
        },
        {
          "indexed": false,
          "internalType": "uint256",
          "name": "amount",
          "type": "uint256"
        },
        {
          "indexed": true,
          "internalType": "uint16",
          "name": "referral",
          "type": "uint16"
        }
      ],
      "name": "Deposit",
      "type": "event"
    },
    {
      "anonymous": false,
      "inputs": [
        {
          "indexed": true,
          "internalType": "address",
          "name": "target",
          "type": "address"
        },
        {
          "indexed": true,
          "internalType": "address",
          "name": "initiator",
          "type": "address"
        },
        {
          "indexed": true,
          "internalType": "address",
          "name": "asset",
          "type": "address"
        },
        {
          "indexed": false,
          "internalType": "uint256",
          "name": "amount",
          "type": "uint256"
        },
        {
          "indexed": false,
          "internalType": "uint256",
          "name": "premium",
          "type": "uint256"
        },
        {
          "indexed": false,
          "internalType": "uint16",
          "name": "referralCode",
          "type": "uint16"
        }
      ],
      "name": "FlashLoan",
      "type": "event"
    },
    {
      "anonymous": false,
      "inputs": [
        {
          "indexed": true,
          "internalType": "address",
          "name": "collateralAsset",
          "type": "address"
        },
        {
          "indexed": true,
          "internalType": "address",
          "name": "debtAsset",
          "type": "address"
        },
        {
          "indexed": true,
          "internalType": "address",
          "name": "user",
          "type": "address"
        },
        {
          "indexed": false,
          "internalType": "uint256",
          "name": "debtToCover",
          "type": "uint256"
        },
        {
          "indexed": false,
          "internalType": "uint256",
          "name": "liquidatedCollateralAmount",
          "type": "uint256"
        },
        {
          "indexed": false,
          "internalType": "address",
          "name": "liquidator",
          "type": "address"
        },
        {
          "indexed": false,
          "internalType": "bool",
          "name": "receiveAToken",
          "type": "bool"
        }
      ],
      "name": "LiquidationCall",
      "type": "event"
    },
    {
      "anonymous": false,
      "inputs": [],
      "name": "Paused",
      "type": "event"
    },
    {
      "anonymous": false,
      "inputs": [
        {
          "indexed": true,
          "internalType": "address",
          "name": "reserve",
          "type": "address"
        },
        {
          "indexed": true,
          "internalType": "address",
          "name": "user",
          "type": "address"
        }
      ],
      "name": "RebalanceStableBorrowRate",
      "type": "event"
    },
    {
      "anonymous": false,
      "inputs": [
        {
          "indexed": true,
          "internalType": "address",
          "name": "reserve",
          "type": "address"
        },
        {
          "indexed": true,
          "internalType": "address",
          "name": "user",
          "type": "address"
        },
        {
          "indexed": true,
          "internalType": "address",
          "name": "repayer",
          "type": "address"
        },
        {
          "indexed": false,
          "internalType": "uint256",
          "name": "amount",
          "type": "uint256"
        }
      ],
      "name": "Repay",
      "type": "event"
    },
    {
      "anonymous": false,
      "inputs": [
        {
          "indexed": true,
          "internalType": "address",
          "name": "reserve",
          "type": "address"
        },
        {
          "indexed": false,
          "internalType": "uint256",
          "name": "liquidityRate",
          "type": "uint256"
        },
        {
          "indexed": false,
          "internalType": "uint256",
          "name": "stableBorrowRate",
          "type": "uint256"
        },
        {
          "indexed": false,
          "internalType": "uint256",
          "name": "variableBorrowRate",
          "type": "uint256"
        },
        {
          "indexed": false,
          "internalType": "uint256",
          "name": "liquidityIndex",
          "type": "uint256"
        },
        {
          "indexed": false,
          "internalType": "uint256",
          "name": "variableBorrowIndex",
          "type": "uint256"
        }
      ],
      "name": "ReserveDataUpdated",
      "type": "event"
    },
    {
      "anonymous": false,
      "inputs": [
        {
          "indexed": true,
          "internalType": "address",
          "name": "reserve",
          "type": "address"
        },
        {
          "indexed": true,
          "internalType": "address",
          "name": "user",
          "type": "address"
        }
      ],
      "name": "ReserveUsedAsCollateralDisabled",
      "type": "event"
    },
    {
      "anonymous": false,
      "inputs": [
        {
          "indexed": true,
          "internalType": "address",
          "name": "reserve",
          "type": "address"
        },
        {
          "indexed": true,
          "internalType": "address",
          "name": "user",
          "type": "address"
        }
      ],
      "name": "ReserveUsedAsCollateralEnabled",
      "type": "event"
    },
    {
      "anonymous": false,
      "inputs": [
        {
          "indexed": true,
          "internalType": "address",
          "name": "reserve",
          "type": "address"
        },
        {
          "indexed": true,
          "internalType": "address",
          "name": "user",
          "type": "address"
        },
        {
          "indexed": false,
          "internalType": "uint256",
          "name": "rateMode",
          "type": "uint256"
        }
      ],
      "name": "Swap",
      "type": "event"
    },
    {
      "anonymous": false,
      "inputs": [],
      "name": "Unpaused",
      "type": "event"
    },
    {
      "anonymous": false,
      "inputs": [
        {
          "indexed": true,
          "internalType": "address",
          "name": "reserve",
          "type": "address"
        },
        {
          "indexed": true,
          "internalType": "address",
          "name": "user",
          "type": "address"
        },
        {
          "indexed": true,
          "internalType": "address",
          "name": "to",
          "type": "address"
        },
        {
          "indexed": false,
          "internalType": "uint256",
          "name": "amount",
          "type": "uint256"
        }
      ],
      "name": "Withdraw",
      "type": "event"
    },
    {
      "inputs": [],
      "name": "FLASHLOAN_PREMIUM_TOTAL",
      "outputs": [
        {
          "internalType": "uint256",
          "name": "",
          "type": "uint256"
        }
      ],
      "stateMutability": "view",
      "type": "function"
    },
    {
      "inputs": [],
      "name": "LENDINGPOOL_REVISION",
      "outputs": [
        {
          "internalType": "uint256",
          "name": "",
          "type": "uint256"
        }
      ],
      "stateMutability": "view",
      "type": "function"
    },
    {
      "inputs": [],
      "name": "MAX_NUMBER_RESERVES",
      "outputs": [
        {
          "internalType": "uint256",
          "name": "",
          "type": "uint256"
        }
      ],
      "stateMutability": "view",
      "type": "function"
    },
    {
      "inputs": [],
      "name": "MAX_STABLE_RATE_BORROW_SIZE_PERCENT",
      "outputs": [
        {
          "internalType": "uint256",
          "name": "",
          "type": "uint256"
        }
      ],
      "stateMutability": "view",
      "type": "function"
    },
    {
      "inputs": [
        {
          "internalType": "address",
          "name": "asset",
          "type": "address"
        },
        {
          "internalType": "uint256",
          "name": "amount",
          "type": "uint256"
        },
        {
          "internalType": "uint256",
          "name": "interestRateMode",
          "type": "uint256"
        },
        {
          "internalType": "uint16",
          "name": "referralCode",
          "type": "uint16"
        },
        {
          "internalType": "address",
          "name": "onBehalfOf",
          "type": "address"
        }
      ],
      "name": "borrow",
      "outputs": [],
      "stateMutability": "nonpayable",
      "type": "function"
    },
    {
      "inputs": [
        {
          "internalType": "address",
          "name": "asset",
          "type": "address"
        },
        {
          "internalType": "uint256",
          "name": "amount",
          "type": "uint256"
        },
        {
          "internalType": "address",
          "name": "onBehalfOf",
          "type": "address"
        },
        {
          "internalType": "uint16",
          "name": "referralCode",
          "type": "uint16"
        }
      ],
      "name": "deposit",
      "outputs": [],
      "stateMutability": "nonpayable",
      "type": "function"
    },
    {
      "inputs": [
        {
          "internalType": "address",
          "name": "asset",
          "type": "address"
        },
        {
          "internalType": "address",
          "name": "from",
          "type": "address"
        },
        {
          "internalType": "address",
          "name": "to",
          "type": "address"
        },
        {
          "internalType": "uint256",
          "name": "amount",
          "type": "uint256"
        },
        {
          "internalType": "uint256",
          "name": "balanceFromBefore",
          "type": "uint256"
        },
        {
          "internalType": "uint256",
          "name": "balanceToBefore",
          "type": "uint256"
        }
      ],
      "name": "finalizeTransfer",
      "outputs": [],
      "stateMutability": "nonpayable",
      "type": "function"
    },
    {
      "inputs": [
        {
          "internalType": "address",
          "name": "receiverAddress",
          "type": "address"
        },
        {
          "internalType": "address[]",
          "name": "assets",
          "type": "address[]"
        },
        {
          "internalType": "uint256[]",
          "name": "amounts",
          "type": "uint256[]"
        },
        {
          "internalType": "uint256[]",
          "name": "modes",
          "type": "uint256[]"
        },
        {
          "internalType": "address",
          "name": "onBehalfOf",
          "type": "address"
        },
        {
          "internalType": "bytes",
          "name": "params",
          "type": "bytes"
        },
        {
          "internalType": "uint16",
          "name": "referralCode",
          "type": "uint16"
        }
      ],
      "name": "flashLoan",
      "outputs": [],
      "stateMutability": "nonpayable",
      "type": "function"
    },
    {
      "inputs": [],
      "name": "getAddressesProvider",
      "outputs": [
        {
          "internalType": "contract ILendingPoolAddressesProvider",
          "name": "",
          "type": "address"
        }
      ],
      "stateMutability": "view",
      "type": "function"
    },
    {
      "inputs": [
        {
          "internalType": "address",
          "name": "asset",
          "type": "address"
        }
      ],
      "name": "getConfiguration",
      "outputs": [
        {
          "components": [
            {
              "internalType": "uint256",
              "name": "data",
              "type": "uint256"
            }
          ],
          "internalType": "struct DataTypes.ReserveConfigurationMap",
          "name": "",
          "type": "tuple"
        }
      ],
      "stateMutability": "view",
      "type": "function"
    },
    {
      "inputs": [
        {
          "internalType": "address",
          "name": "asset",
          "type": "address"
        }
      ],
      "name": "getReserveData",
      "outputs": [
        {
          "components": [
            {
              "components": [
                {
                  "internalType": "uint256",
                  "name": "data",
                  "type": "uint256"
                }
              ],
              "internalType": "struct DataTypes.ReserveConfigurationMap",
              "name": "configuration",
              "type": "tuple"
            },
            {
              "internalType": "uint128",
              "name": "liquidityIndex",
              "type": "uint128"
            },
            {
              "internalType": "uint128",
              "name": "variableBorrowIndex",
              "type": "uint128"
            },
            {
              "internalType": "uint128",
              "name": "currentLiquidityRate",
              "type": "uint128"
            },
            {
              "internalType": "uint128",
              "name": "currentVariableBorrowRate",
              "type": "uint128"
            },
            {
              "internalType": "uint128",
              "name": "currentStableBorrowRate",
              "type": "uint128"
            },
            {
              "internalType": "uint40",
              "name": "lastUpdateTimestamp",
              "type": "uint40"
            },
            {
              "internalType": "address",
              "name": "aTokenAddress",
              "type": "address"
            },
            {
              "internalType": "address",
              "name": "stableDebtTokenAddress",
              "type": "address"
            },
            {
              "internalType": "address",
              "name": "variableDebtTokenAddress",
              "type": "address"
            },
            {
              "internalType": "address",
              "name": "interestRateStrategyAddress",
              "type": "address"
            },
            {
              "internalType": "uint8",
              "name": "id",
              "type": "uint8"
            }
          ],
          "internalType": "struct DataTypes.ReserveData",
          "name": "",
          "type": "tuple"
        }
      ],
      "stateMutability": "view",
      "type": "function"
    },
    {
      "inputs": [
        {
          "internalType": "address",
          "name": "asset",
          "type": "address"
        }
      ],
      "name": "getReserveNormalizedIncome",
      "outputs": [
        {
          "internalType": "uint256",
          "name": "",
          "type": "uint256"
        }
      ],
      "stateMutability": "view",
      "type": "function"
    },
    {
      "inputs": [
        {
          "internalType": "address",
          "name": "asset",
          "type": "address"
        }
      ],
      "name": "getReserveNormalizedVariableDebt",
      "outputs": [
        {
          "internalType": "uint256",
          "name": "",
          "type": "uint256"
        }
      ],
      "stateMutability": "view",
      "type": "function"
    },
    {
      "inputs": [],
      "name": "getReservesList",
      "outputs": [
        {
          "internalType": "address[]",
          "name": "",
          "type": "address[]"
        }
      ],
      "stateMutability": "view",
      "type": "function"
    },
    {
      "inputs": [
        {
          "internalType": "address",
          "name": "user",
          "type": "address"
        }
      ],
      "name": "getUserAccountData",
      "outputs": [
        {
          "internalType": "uint256",
          "name": "totalCollateralETH",
          "type": "uint256"
        },
        {
          "internalType": "uint256",
          "name": "totalDebtETH",
          "type": "uint256"
        },
        {
          "internalType": "uint256",
          "name": "availableBorrowsETH",
          "type": "uint256"
        },
        {
          "internalType": "uint256",
          "name": "currentLiquidationThreshold",
          "type": "uint256"
        },
        {
          "internalType": "uint256",
          "name": "ltv",
          "type": "uint256"
        },
        {
          "internalType": "uint256",
          "name": "healthFactor",
          "type": "uint256"
        }
      ],
      "stateMutability": "view",
      "type": "function"
    },
    {
      "inputs": [
        {
          "internalType": "address",
          "name": "user",
          "type": "address"
        }
      ],
      "name": "getUserConfiguration",
      "outputs": [
        {
          "components": [
            {
              "internalType": "uint256",
              "name": "data",
              "type": "uint256"
            }
          ],
          "internalType": "struct DataTypes.UserConfigurationMap",
          "name": "",
          "type": "tuple"
        }
      ],
      "stateMutability": "view",
      "type": "function"
    },
    {
      "inputs": [
        {
          "internalType": "address",
          "name": "asset",
          "type": "address"
        },
        {
          "internalType": "address",
          "name": "aTokenAddress",
          "type": "address"
        },
        {
          "internalType": "address",
          "name": "stableDebtAddress",
          "type": "address"
        },
        {
          "internalType": "address",
          "name": "variableDebtAddress",
          "type": "address"
        },
        {
          "internalType": "address",
          "name": "interestRateStrategyAddress",
          "type": "address"
        }
      ],
      "name": "initReserve",
      "outputs": [],
      "stateMutability": "nonpayable",
      "type": "function"
    },
    {
      "inputs": [
        {
          "internalType": "contract ILendingPoolAddressesProvider",
          "name": "provider",
          "type": "address"
        }
      ],
      "name": "initialize",
      "outputs": [],
      "stateMutability": "nonpayable",
      "type": "function"
    },
    {
      "inputs": [
        {
          "internalType": "address",
          "name": "collateralAsset",
          "type": "address"
        },
        {
          "internalType": "address",
          "name": "debtAsset",
          "type": "address"
        },
        {
          "internalType": "address",
          "name": "user",
          "type": "address"
        },
        {
          "internalType": "uint256",
          "name": "debtToCover",
          "type": "uint256"
        },
        {
          "internalType": "bool",
          "name": "receiveAToken",
          "type": "bool"
        }
      ],
      "name": "liquidationCall",
      "outputs": [],
      "stateMutability": "nonpayable",
      "type": "function"
    },
    {
      "inputs": [],
      "name": "paused",
      "outputs": [
        {
          "internalType": "bool",
          "name": "",
          "type": "bool"
        }
      ],
      "stateMutability": "view",
      "type": "function"
    },
    {
      "inputs": [
        {
          "internalType": "address",
          "name": "asset",
          "type": "address"
        },
        {
          "internalType": "address",
          "name": "user",
          "type": "address"
        }
      ],
      "name": "rebalanceStableBorrowRate",
      "outputs": [],
      "stateMutability": "nonpayable",
      "type": "function"
    },
    {
      "inputs": [
        {
          "internalType": "address",
          "name": "asset",
          "type": "address"
        },
        {
          "internalType": "uint256",
          "name": "amount",
          "type": "uint256"
        },
        {
          "internalType": "uint256",
          "name": "rateMode",
          "type": "uint256"
        },
        {
          "internalType": "address",
          "name": "onBehalfOf",
          "type": "address"
        }
      ],
      "name": "repay",
      "outputs": [
        {
          "internalType": "uint256",
          "name": "",
          "type": "uint256"
        }
      ],
      "stateMutability": "nonpayable",
      "type": "function"
    },
    {
      "inputs": [
        {
          "internalType": "address",
          "name": "asset",
          "type": "address"
        },
        {
          "internalType": "uint256",
          "name": "configuration",
          "type": "uint256"
        }
      ],
      "name": "setConfiguration",
      "outputs": [],
      "stateMutability": "nonpayable",
      "type": "function"
    },
    {
      "inputs": [
        {
          "internalType": "bool",
          "name": "val",
          "type": "bool"
        }
      ],
      "name": "setPause",
      "outputs": [],
      "stateMutability": "nonpayable",
      "type": "function"
    },
    {
      "inputs": [
        {
          "internalType": "address",
          "name": "asset",
          "type": "address"
        },
        {
          "internalType": "address",
          "name": "rateStrategyAddress",
          "type": "address"
        }
      ],
      "name": "setReserveInterestRateStrategyAddress",
      "outputs": [],
      "stateMutability": "nonpayable",
      "type": "function"
    },
    {
      "inputs": [
        {
          "internalType": "address",
          "name": "asset",
          "type": "address"
        },
        {
          "internalType": "bool",
          "name": "useAsCollateral",
          "type": "bool"
        }
      ],
      "name": "setUserUseReserveAsCollateral",
      "outputs": [],
      "stateMutability": "nonpayable",
      "type": "function"
    },
    {
      "inputs": [
        {
          "internalType": "address",
          "name": "asset",
          "type": "address"
        },
        {
          "internalType": "uint256",
          "name": "rateMode",
          "type": "uint256"
        }
      ],
      "name": "swapBorrowRateMode",
      "outputs": [],
      "stateMutability": "nonpayable",
      "type": "function"
    },
    {
      "inputs": [
        {
          "internalType": "address",
          "name": "asset",
          "type": "address"
        },
        {
          "internalType": "uint256",
          "name": "amount",
          "type": "uint256"
        },
        {
          "internalType": "address",
          "name": "to",
          "type": "address"
        }
      ],
      "name": "withdraw",
      "outputs": [
        {
          "internalType": "uint256",
          "name": "",
          "type": "uint256"
        }
      ],
      "stateMutability": "nonpayable",
      "type": "function"
    }
  ],
  "bytecode": {
    "object": "0x60806040526000805534801561001457600080fd5b506155cb80620000256000396000f3fe608060405234801561001057600080fd5b50600436106101c35760003560e01c8063ab9c4b5d116100f9578063d15e005311610097578063e82fec2f11610071578063e82fec2f146103c2578063e8eda9df146103ca578063f8119d51146103dd578063fe65acfe146103e5576101c3565b8063d15e005314610387578063d1946dbc1461039a578063d5ed3933146103af576101c3565b8063bf92857c116100d3578063bf92857c14610329578063c44b11f71461034e578063c4d66de814610361578063cd11238214610374576101c3565b8063ab9c4b5d146102f0578063b8d2927614610303578063bedb86fb14610316576101c3565b80635a3b74b9116101665780637a708e92116101405780637a708e92146102af5780638afaff02146102c257806394ba89a2146102ca578063a415bcad146102dd576101c3565b80635a3b74b9146102745780635c975abb1461028757806369328dec1461029c576101c3565b806335ea6a75116101a257806335ea6a751461020e578063386497fd1461022e5780634417a58314610241578063573ade8114610261576101c3565b8062a718a9146101c8578063074b2e43146101dd5780631d2118f9146101fb575b600080fd5b6101db6101d636600461488a565b6103fa565b005b6101e56105d0565b6040516101f291906154c1565b60405180910390f35b6101db6102093660046147e2565b6105d5565b61022161021c3660046147aa565b61060e565b6040516101f291906152d9565b6101e561023c3660046147aa565b6106f0565b61025461024f3660046147aa565b610717565b6040516101f291906152cf565b6101e561026f366004614b29565b61074a565b6101db610282366004614a3f565b610a16565b61028f610bdb565b6040516101f29190615115565b6101e56102aa366004614a97565b610be4565b6101db6102bd36600461481a565b610f0e565b6101e5610ff0565b6101db6102d8366004614a6c565b610ff5565b6101db6102eb366004614b72565b611362565b6101db6102fe366004614947565b6113e2565b6101db610311366004614a6c565b611ab5565b6101db610324366004614bb1565b611ad9565b61033c6103373660046147aa565b611b54565b6040516101f296959493929190615513565b61025461035c3660046147aa565b611c50565b6101db61036f3660046147aa565b611c83565b6101db6103823660046147e2565b611d1b565b6101e56103953660046147aa565b611f91565b6103a2611fb2565b6040516101f291906150c8565b6101db6103bd3660046148e3565b612057565b6101e56122a0565b6101db6103d8366004614ad8565b6122a6565b6101e56124d3565b6103ed6124d8565b6040516101f29190614df8565b6104026124e7565b6034546040805163712d917160e01b815290516000926001600160a01b03169163712d9171916004808301926020929190829003018186803b15801561044757600080fd5b505afa15801561045b573d6000803e3d6000fd5b505050506040513d601f19601f8201168201806040525081019061047f91906147c6565b905060006060826001600160a01b031688888888886040516024016104a8959493929190614e80565b60408051601f198184030181529181526020820180516001600160e01b031662a718a960e01b179052516104dc9190614ddc565b600060405180830381855af49150503d8060008114610517576040519150601f19603f3d011682016040523d82523d6000602084013e61051c565b606091505b50915091508160405180604001604052806002815260200161323360f01b815250906105645760405162461bcd60e51b815260040161055b9190615120565b60405180910390fd5b50600060608280602001905181019061057d9190614c01565b9150915081600014816040516020016105969190614ddc565b604051602081830303815290604052906105c35760405162461bcd60e51b815260040161055b9190615120565b5050505050505050505050565b600981565b6105dd612525565b6001600160a01b03918216600090815260356020526040902060070180546001600160a01b03191691909216179055565b6106166144f8565b506001600160a01b0381811660009081526035602090815260409182902082516101a08101845281546101808201908152815260018201546001600160801b0380821694830194909452600160801b908190048416948201949094526002820154808416606083015284900483166080820152600382015492831660a08201529290910464ffffffffff1660c08301526004810154831660e0830152600581015483166101008301526006810154831661012083015260070154918216610140820152600160a01b90910460ff166101608201525b919050565b6001600160a01b0381166000908152603560205260408120610711906125e4565b92915050565b61071f614563565b506001600160a01b031660009081526036602090815260409182902082519182019092529054815290565b60006107546124e7565b6001600160a01b038516600090815260356020526040812090806107788584612661565b91509150600086600281111561078a57fe5b60405163fa0c214960e01b815290915073__$de8c0cf1a7d7c36c802af9a64fb9d86036$__9063fa0c2149906107ce9087908c9086908c908a908a9060040161547f565b60006040518083038186803b1580156107e657600080fd5b505af41580156107fa573d6000803e3d6000fd5b50600092506001915061080a9050565b82600281111561081657fe5b146108215782610823565b835b9050808910156108305750875b61083985612776565b600182600281111561084757fe5b14156108b8576005850154604051632770a7eb60e21b81526001600160a01b0390911690639dc29fac90610881908a908590600401614e3d565b600060405180830381600087803b15801561089b57600080fd5b505af11580156108af573d6000803e3d6000fd5b50505050610936565b60068501546001860154604051637a94c56560e11b81526001600160a01b039092169163f5298aca91610903918b918691600160801b9091046001600160801b031690600401614e56565b600060405180830381600087803b15801561091d57600080fd5b505af1158015610931573d6000803e3d6000fd5b505050505b60048501546001600160a01b0316610952868c83856000612843565b610966826109608787612c35565b90612c5a565b61099e5760078601546001600160a01b038916600090815260366020526040812061099e929091600160a01b90910460ff1690612c9c565b6109b36001600160a01b038c16338385612d0c565b336001600160a01b0316886001600160a01b03168c6001600160a01b03167f4cdde6e09bb755c9a5589ebaec640bbfedff1362d4b255ebf8339782b9942faa85604051610a0091906154c1565b60405180910390a4509998505050505050505050565b610a1e6124e7565b6001600160a01b03808316600090815260356020818152604080842033855260368352938190206038546034548351631f94a27560e31b81529351969773__$de8c0cf1a7d7c36c802af9a64fb9d86036$__97635fa297e5978a978d978d9792969295603795939493169263fca513a892600480840193919291829003018186803b158015610aac57600080fd5b505afa158015610ac0573d6000803e3d6000fd5b505050506040513d601f19601f82011682018060405250810190610ae491906147c6565b6040518963ffffffff1660e01b8152600401610b079897969594939291906153fa565b60006040518083038186803b158015610b1f57600080fd5b505af4158015610b33573d6000803e3d6000fd5b505050506007810154336000908152603660205260409020610b5f91600160a01b900460ff1684612d6a565b8115610b9f5760405133906001600160a01b038516907e058a56ea94653cdf4f152d227ace22d4c00ad99e2a43f58cb7d9e3feb295f290600090a3610bd6565b60405133906001600160a01b038516907f44c58d81365b66dd4b1a7f36c25aa97b8c71c361ee4937adc1a00000227db5dd90600090a35b505050565b60395460ff1690565b6000610bee6124e7565b6001600160a01b0380851660009081526035602052604080822060048082015492516370a0823160e01b8152919492909216929183916370a0823191610c3691339101614df8565b60206040518083038186803b158015610c4e57600080fd5b505afa158015610c62573d6000803e3d6000fd5b505050506040513d601f19601f82011682018060405250810190610c869190614be9565b905085600019811415610c965750805b73__$de8c0cf1a7d7c36c802af9a64fb9d86036$__63d09db04a898385603560366000336001600160a01b03166001600160a01b031681526020019081526020016000206037603854603460009054906101000a90046001600160a01b03166001600160a01b031663fca513a86040518163ffffffff1660e01b815260040160206040518083038186803b158015610d2d57600080fd5b505afa158015610d41573d6000803e3d6000fd5b505050506040513d601f19601f82011682018060405250810190610d6591906147c6565b6040518963ffffffff1660e01b8152600401610d88989796959493929190614f65565b60006040518083038186803b158015610da057600080fd5b505af4158015610db4573d6000803e3d6000fd5b50505050610dc184612776565b610dcf848985600085612843565b81811415610e39576007840154336000908152603660205260408120610e02929091600160a01b90910460ff1690612d6a565b60405133906001600160a01b038a16907f44c58d81365b66dd4b1a7f36c25aa97b8c71c361ee4937adc1a00000227db5dd90600090a35b6001840154604051636b81068560e11b81526001600160a01b0385169163d7020d0a91610e7a9133918b9187916001600160801b0390911690600401614e0c565b600060405180830381600087803b158015610e9457600080fd5b505af1158015610ea8573d6000803e3d6000fd5b50505050856001600160a01b0316336001600160a01b0316896001600160a01b03167f3115d1449a7b732c986cba18244e897a450f61e1bb8d589cd2e69e6c8924f9f784604051610ef991906154c1565b60405180910390a493505050505b9392505050565b610f16612525565b610f1f85612de0565b6040518060400160405280600281526020016106e760f31b81525090610f585760405162461bcd60e51b815260040161055b9190615120565b506001600160a01b038516600090815260356020526040908190209051630acce25f60e21b815273__$22cd43a9dda9ce44e9b92ba393b88fb9ac$__91632b33897c91610fb0919088908890889088906004016153cc565b60006040518083038186803b158015610fc857600080fd5b505af4158015610fdc573d6000803e3d6000fd5b50505050610fe985612e19565b5050505050565b600181565b610ffd6124e7565b6001600160a01b038216600090815260356020526040812090806110213384612661565b91509150600084600281111561103357fe5b3360009081526036602052604090819020905163a8695b1d60e01b815291925073__$de8c0cf1a7d7c36c802af9a64fb9d86036$__9163a8695b1d916110849188919088908890889060040161543c565b60006040518083038186803b15801561109c57600080fd5b505af41580156110b0573d6000803e3d6000fd5b505050506110bd84612776565b60018160028111156110cb57fe5b14156111db576005840154604051632770a7eb60e21b81526001600160a01b0390911690639dc29fac906111059033908790600401614e3d565b600060405180830381600087803b15801561111f57600080fd5b505af1158015611133573d6000803e3d6000fd5b505050506006840154600185015460405163b3f1c93d60e01b81526001600160a01b039092169163b3f1c93d9161118391339182918991600160801b90046001600160801b031690600401614e0c565b602060405180830381600087803b15801561119d57600080fd5b505af11580156111b1573d6000803e3d6000fd5b505050506040513d601f19601f820116820180604052508101906111d59190614bcd565b506112f1565b60068401546001850154604051637a94c56560e11b81526001600160a01b039092169163f5298aca916112269133918791600160801b9091046001600160801b031690600401614e56565b600060405180830381600087803b15801561124057600080fd5b505af1158015611254573d6000803e3d6000fd5b505050506005840154600385015460405163b3f1c93d60e01b81526001600160a01b039092169163b3f1c93d9161129d913391829188916001600160801b031690600401614e0c565b602060405180830381600087803b1580156112b757600080fd5b505af11580156112cb573d6000803e3d6000fd5b505050506040513d601f19601f820116820180604052508101906112ef9190614bcd565b505b600484015461130f90859088906001600160a01b0316600080612843565b336001600160a01b0316866001600160a01b03167fea368a40e9570069bb8e6511d668293ad2e1f03b0d982431fd223de9f3b70ca68760405161135291906154c1565b60405180910390a3505050505050565b61136a6124e7565b6001600160a01b038086166000818152603560209081526040918290208251610100810184529384523391840191909152848416918301919091526060820187905260808201869052600481015490921660a082015261ffff841660c0820152600160e08201526113da90612f20565b505050505050565b6113ea6124e7565b6113f2614576565b61145f8b8b8080602002602001604051908101604052809392919081815260200183836020028082843760009201919091525050604080516020808f0282810182019093528e82529093508e92508d91829185019084908082843760009201919091525061341992505050565b60608a67ffffffffffffffff8111801561147857600080fd5b506040519080825280602002602001820160405280156114a2578160200160208202803683370190505b50905060608b67ffffffffffffffff811180156114be57600080fd5b506040519080825280602002602001820160405280156114e8578160200160208202803683370190505b506001600160a01b038f1684526000604085015290505b60408301518c11156116ab57603560008e8e866040015181811061151f57fe5b905060200201602081019061153491906147aa565b6001600160a01b03166001600160a01b0316815260200190815260200160002060040160009054906101000a90046001600160a01b03168284604001518151811061157b57fe5b60200260200101906001600160a01b031690816001600160a01b0316815250506115d16127106115cb60098e8e88604001518181106115b657fe5b9050602002013561345790919063ffffffff16565b90613491565b818460400151815181106115e157fe5b602002602001018181525050818360400151815181106115fd57fe5b60200260200101516001600160a01b0316634efecaa58f8d8d876040015181811061162457fe5b905060200201356040518363ffffffff1660e01b8152600401611648929190614e3d565b602060405180830381600087803b15801561166257600080fd5b505af1158015611676573d6000803e3d6000fd5b505050506040513d601f19601f8201168201806040525081019061169a9190614be9565b5060408301805160010190526114ff565b82600001516001600160a01b031663920f5c848e8e8e8e86338d8d6040518963ffffffff1660e01b81526004016116e9989796959493929190615004565b602060405180830381600087803b15801561170357600080fd5b505af1158015611717573d6000803e3d6000fd5b505050506040513d601f19601f8201168201806040525081019061173b9190614bcd565b604051806040016040528060028152602001611b1b60f11b815250906117745760405162461bcd60e51b815260040161055b9190615120565b50600060408401525b60408301518c1115611aa5578c8c846040015181811061179957fe5b90506020020160208101906117ae91906147aa565b6001600160a01b0316606084015260408301518b908b908181106117ce57fe5b905060200201358360a0018181525050808360400151815181106117ee57fe5b60200260200101518360c00181815250508183604001518151811061180f57fe5b60209081029190910101516001600160a01b0316608084015260c083015160a084015161183b91612c35565b60e084015260008989856040015181811061185257fe5b90506020020135600281111561186457fe5b600281111561186f57fe5b14156119a15760608301516001600160a01b0316600090815260356020526040902061189a90612776565b61193a83608001516001600160a01b03166318160ddd6040518163ffffffff1660e01b815260040160206040518083038186803b1580156118da57600080fd5b505afa1580156118ee573d6000803e3d6000fd5b505050506040513d601f19601f820116820180604052508101906119129190614be9565b60c085015160608601516001600160a01b0316600090815260356020526040902091906134d3565b6060830151608084015160e08501516001600160a01b038316600090815260356020526040812061197094909390929091612843565b61199c8e84608001518560e0015186606001516001600160a01b0316612d0c909392919063ffffffff16565b611a30565b611a3060405180610100016040528085606001516001600160a01b03168152602001336001600160a01b03168152602001896001600160a01b031681526020018560a0015181526020018b8b87604001518181106119fb57fe5b90506020020135815260200185608001516001600160a01b031681526020018661ffff16815260200160001515815250612f20565b82606001516001600160a01b0316336001600160a01b03168f6001600160a01b03167f631042c832b07452973831137f2d73e395028b44b250dedc5abb0ee766e168ac8660a001518760c0015189604051611a8d939291906154ca565b60405180910390a4604083018051600101905261177d565b5050505050505050505050505050565b611abd612525565b6001600160a01b03909116600090815260356020526040902055565b611ae1612525565b6039805460ff1916821515179081905560ff1615611b27576040517f9e87fac88ff661f02d44f95383c817fece4bce600a3dab7a54406878b965e75290600090a1611b51565b6040517fa45f47fdea8a1efdd9029a5691c7f759c32b7c698632b563573e155625d1693390600090a15b50565b600080600080600080611c2d876035603660008b6001600160a01b03166001600160a01b031681526020019081526020016000206040518060200160405290816000820154815250506037603854603460009054906101000a90046001600160a01b03166001600160a01b031663fca513a86040518163ffffffff1660e01b815260040160206040518083038186803b158015611bf057600080fd5b505afa158015611c04573d6000803e3d6000fd5b505050506040513d601f19601f82011682018060405250810190611c2891906147c6565b613590565b93995091975090945092509050611c45868684613a51565b935091939550919395565b611c58614563565b506001600160a01b031660009081526035602090815260409182902082519182019092529054815290565b6000611c8d613a85565b60015490915060ff1680611ca45750611ca4613a8a565b80611cb0575060005481115b611ccc5760405162461bcd60e51b815260040161055b90615200565b60015460ff16158015611ceb576001805460ff19168117905560008290555b603480546001600160a01b0319166001600160a01b0385161790558015610bd6576001805460ff19169055505050565b611d236124e7565b6001600160a01b038083166000908152603560205260408082206005810154600682015460048084015494516370a0823160e01b81529396928316959183169490921692909185916370a0823191611d7d918a9101614df8565b60206040518083038186803b158015611d9557600080fd5b505afa158015611da9573d6000803e3d6000fd5b505050506040513d601f19601f82011682018060405250810190611dcd9190614be9565b60405163548cad0960e01b815290915073__$de8c0cf1a7d7c36c802af9a64fb9d86036$__9063548cad0990611e0f9088908b908990899089906004016153cc565b60006040518083038186803b158015611e2757600080fd5b505af4158015611e3b573d6000803e3d6000fd5b50505050611e4885612776565b604051632770a7eb60e21b81526001600160a01b03851690639dc29fac90611e769089908590600401614e3d565b600060405180830381600087803b158015611e9057600080fd5b505af1158015611ea4573d6000803e3d6000fd5b505050600386015460405163b3f1c93d60e01b81526001600160a01b038716925063b3f1c93d91611ee7918a91829187916001600160801b031690600401614e0c565b602060405180830381600087803b158015611f0157600080fd5b505af1158015611f15573d6000803e3d6000fd5b505050506040513d601f19601f82011682018060405250810190611f399190614bcd565b50611f48858884600080612843565b856001600160a01b0316876001600160a01b03167f9f439ae0c81e41a04d3fdfe07aed54e6a179fb0db15be7702eb66fa8ef6f530060405160405180910390a350505050505050565b6001600160a01b038116600090815260356020526040812061071190613a90565b60608060385467ffffffffffffffff81118015611fce57600080fd5b50604051908082528060200260200182016040528015611ff8578160200160208202803683370190505b50905060005b6038548110156120515760008181526037602052604090205482516001600160a01b039091169083908390811061203157fe5b6001600160a01b0390921660209283029190910190910152600101611ffe565b50905090565b61205f6124e7565b6001600160a01b038681166000908152603560209081526040918290206004015482518084019093526002835261363360f01b9183019190915290911633146120bb5760405162461bcd60e51b815260040161055b9190615120565b5061217785603560366000896001600160a01b03166001600160a01b031681526020019081526020016000206037603854603460009054906101000a90046001600160a01b03166001600160a01b031663fca513a86040518163ffffffff1660e01b815260040160206040518083038186803b15801561213a57600080fd5b505afa15801561214e573d6000803e3d6000fd5b505050506040513d601f19601f8201168201806040525081019061217291906147c6565b613aef565b6001600160a01b03868116600090815260356020526040902060070154600160a01b900460ff169085811690871614612297576121b48385612c5a565b612220576001600160a01b0386166000908152603660205260408120906121de9082908490612d6a565b866001600160a01b0316886001600160a01b03167f44c58d81365b66dd4b1a7f36c25aa97b8c71c361ee4937adc1a00000227db5dd60405160405180910390a3505b8115801561222d57508315155b15612297576001600160a01b038516600090815260366020526040902061225681836001612d6a565b856001600160a01b0316886001600160a01b03167e058a56ea94653cdf4f152d227ace22d4c00ad99e2a43f58cb7d9e3feb295f260405160405180910390a3505b50505050505050565b6109c481565b6122ae6124e7565b6001600160a01b038416600090815260356020526040908190209051630eca322b60e01b815273__$de8c0cf1a7d7c36c802af9a64fb9d86036$__90630eca322b906123009084908890600401615471565b60006040518083038186803b15801561231857600080fd5b505af415801561232c573d6000803e3d6000fd5b5050505060048101546001600160a01b031661234782612776565b612355828783886000612843565b61236a6001600160a01b038716338388612d0c565b6001820154604051630ab714fb60e11b81526000916001600160a01b0384169163156e29f6916123ac9189918b916001600160801b0390911690600401614e56565b602060405180830381600087803b1580156123c657600080fd5b505af11580156123da573d6000803e3d6000fd5b505050506040513d601f19601f820116820180604052508101906123fe9190614bcd565b905080156124785760078301546001600160a01b038616600090815260366020526040902061243891600160a01b900460ff166001612d6a565b846001600160a01b0316876001600160a01b03167e058a56ea94653cdf4f152d227ace22d4c00ad99e2a43f58cb7d9e3feb295f260405160405180910390a35b8361ffff16856001600160a01b0316886001600160a01b03167fde6857219544bb5b7746f48ed30be6386fefc61b2f864cacf559893bf50fd951338a6040516124c2929190614e3d565b60405180910390a450505050505050565b608081565b6034546001600160a01b031690565b6039546040805180820190915260028152610d8d60f21b60208201529060ff1615611b515760405162461bcd60e51b815260040161055b9190615120565b603454604080516385c858b160e01b8152905133926001600160a01b0316916385c858b1916004808301926020929190829003018186803b15801561256957600080fd5b505afa15801561257d573d6000803e3d6000fd5b505050506040513d601f19601f820116820180604052508101906125a191906147c6565b6001600160a01b03161460405180604001604052806002815260200161323760f01b81525090611b515760405162461bcd60e51b815260040161055b9190615120565b600381015460009064ffffffffff600160801b90910481169042168114156126225750506001810154600160801b90046001600160801b03166106eb565b60018301546002840154600091612659916001600160801b03600160801b9283900481169261265392041685613b65565b90613b72565b949350505050565b60058101546040516370a0823160e01b815260009182916001600160a01b03909116906370a0823190612698908790600401614df8565b60206040518083038186803b1580156126b057600080fd5b505afa1580156126c4573d6000803e3d6000fd5b505050506040513d601f19601f820116820180604052508101906126e89190614be9565b60068401546040516370a0823160e01b81526001600160a01b03909116906370a082319061271a908890600401614df8565b60206040518083038186803b15801561273257600080fd5b505afa158015612746573d6000803e3d6000fd5b505050506040513d601f19601f8201168201806040525081019061276a9190614be9565b915091505b9250929050565b60068101546040805163b1bf962d60e01b815290516000926001600160a01b03169163b1bf962d916004808301926020929190829003018186803b1580156127bd57600080fd5b505afa1580156127d1573d6000803e3d6000fd5b505050506040513d601f19601f820116820180604052508101906127f59190614be9565b60018301546003840154919250600160801b8082046001600160801b03908116939216910464ffffffffff166000806128318787868887613c05565b91509150612297878787858588613d62565b61284b6145c2565b60058601546001600160a01b031680825260408051637b98f4df60e11b8152815163f731e9be92600480840193919291829003018186803b15801561288f57600080fd5b505afa1580156128a3573d6000803e3d6000fd5b505050506040513d601f19601f820116820180604052508101906128c79190614ca8565b60c083015260408083019190915260018701546006880154825163b1bf962d60e01b8152925161296c93600160801b9093046001600160801b0316926001600160a01b039092169163b1bf962d916004808301926020929190829003018186803b15801561293457600080fd5b505afa158015612948573d6000803e3d6000fd5b505050506040513d601f19601f820116820180604052508101906126539190614be9565b60e08201526040516370a0823160e01b81526001600160a01b038616906370a082319061299d908790600401614df8565b60206040518083038186803b1580156129b557600080fd5b505afa1580156129c9573d6000803e3d6000fd5b505050506040513d601f19601f820116820180604052508101906129ed9190614be9565b6020820181905260078701546001600160a01b031690639584df28908790612a1b9086906109609089612c35565b604085015160e086015160c0870151612a338d613f25565b6040518763ffffffff1660e01b8152600401612a5496959493929190614fd1565b60606040518083038186803b158015612a6c57600080fd5b505afa158015612a80573d6000803e3d6000fd5b505050506040513d601f19601f82011682018060405250810190612aa49190614ccb565b60a0840152608083015260608201819052604080518082019091526002815261353360f01b6020820152906001600160801b031015612af65760405162461bcd60e51b815260040161055b9190615120565b506080810151604080518082019091526002815261353560f01b6020820152906001600160801b031015612b3d5760405162461bcd60e51b815260040161055b9190615120565b5060a08101516040805180820190915260028152610d4d60f21b6020820152906001600160801b031015612b845760405162461bcd60e51b815260040161055b9190615120565b506060810151600287018054608084015160038a0180546001600160801b03199081166001600160801b038085169190911790925560a08701519316818616178116600160801b84831681029190911790945560018b01546040516001600160a01b038c16967f804c9b842b2748a22bb64b345453a3de7ca54a6ca45ce00d415894979e22897a96612c2596919594919380831693919004909116906154e4565b60405180910390a2505050505050565b600082820183811015610f075760405162461bcd60e51b815260040161055b90615153565b6000610f0783836040518060400160405280601e81526020017f536166654d6174683a207375627472616374696f6e206f766572666c6f770000815250613f30565b604080518082019091526002815261373760f01b602082015260808310612cd65760405162461bcd60e51b815260040161055b9190615120565b508160020281612ce7576000612cea565b60015b60ff16901b826002026001901b19846000015416178360000181905550505050565b612d64846323b872dd60e01b858585604051602401612d2d93929190614eb4565b60408051601f198184030181529190526020810180516001600160e01b03166001600160e01b031990931692909217909152613f5c565b50505050565b604080518082019091526002815261373760f01b602082015260808310612da45760405162461bcd60e51b815260040161055b9190615120565b508160020260010181612db8576000612dbb565b60015b60ff16901b826002026001016001901b19846000015416178360000181905550505050565b6000813f7fc5d2460186f7233c927e7db2dcc703c0e500b653ca82273b7bfad8045d85a470818114801590612659575050151592915050565b603854604080518082019091526002815261363560f01b602082015260808210612e565760405162461bcd60e51b815260040161055b9190615120565b506001600160a01b038216600090815260356020526040812060070154600160a01b900460ff16151580612ebf57506000805260376020527fa0a618d80eda9243166be83cb7421d97e9dab6ddddd3c70ac7a6b4440256e8e7546001600160a01b038481169116145b905080610bd657506001600160a01b03919091166000818152603560209081526040808320600701805460ff60a01b1916600160a01b60ff8816021790558483526037909152902080546001600160a01b0319169091179055600101603855565b80516001600160a01b0390811660009081526035602090815260408083208186015185168452603683528184206034548351631f94a27560e31b81529351929691959491169263fca513a89260048083019392829003018186803b158015612f8757600080fd5b505afa158015612f9b573d6000803e3d6000fd5b505050506040513d601f19601f82011682018060405250810190612fbf91906147c6565b90506000613060612fcf85614041565b600a0a6115cb8760600151856001600160a01b031663b3596f078a600001516040518263ffffffff1660e01b815260040161300a9190614df8565b60206040518083038186803b15801561302257600080fd5b505afa158015613036573d6000803e3d6000fd5b505050506040513d601f19601f8201168201806040525081019061305a9190614be9565b90613457565b905073__$de8c0cf1a7d7c36c802af9a64fb9d86036$__63721a92f986600001518688604001518960600151868b608001516109c460358c60376038548e6040518d63ffffffff1660e01b81526004016130c59c9b9a99989796959493929190614f01565b60006040518083038186803b1580156130dd57600080fd5b505af41580156130f1573d6000803e3d6000fd5b505050506130fe84612776565b60008060018760800151600281111561311357fe5b600281111561311e57fe5b14156131d3576003860154600587015460208901516040808b015160608c0151915163b3f1c93d60e01b81526001600160801b0390951696506001600160a01b039093169363b3f1c93d9361317a939290918890600401614ed8565b602060405180830381600087803b15801561319457600080fd5b505af11580156131a8573d6000803e3d6000fd5b505050506040513d601f19601f820116820180604052508101906131cc9190614bcd565b9050613282565b600686015460208801516040808a015160608b015160018b0154925163b3f1c93d60e01b81526001600160a01b039095169463b3f1c93d9461322d9490939291600160801b9091046001600160801b031690600401614e0c565b602060405180830381600087803b15801561324757600080fd5b505af115801561325b573d6000803e3d6000fd5b505050506040513d601f19601f8201168201806040525081019061327f9190614bcd565b90505b80156132a45760078601546132a4908690600160a01b900460ff166001612c9c565b6132d387600001518860a0015160008a60e001516132c35760006132c9565b8a606001515b8a93929190612843565b8660e001511561336b578660a001516001600160a01b0316634efecaa5886020015189606001516040518363ffffffff1660e01b8152600401613317929190614e3d565b602060405180830381600087803b15801561333157600080fd5b505af1158015613345573d6000803e3d6000fd5b505050506040513d601f19601f820116820180604052508101906133699190614be9565b505b8660c0015161ffff1687604001516001600160a01b031688600001516001600160a01b03167fc6a898309e823ee50bac64e45ca8adba6690e99e7841c45d754e2a38e9019d9b8a602001518b606001518c60800151600160028111156133cd57fe5b8e6080015160028111156133dd57fe5b60028111156133e857fe5b146134075760028d0154600160801b90046001600160801b0316613409565b885b6040516124c29493929190614fab565b805182511460405180604001604052806002815260200161373360f01b81525090610bd65760405162461bcd60e51b815260040161055b9190615120565b60008261346657506000610711565b8282028284828161347357fe5b0414610f075760405162461bcd60e51b815260040161055b906151bf565b6000610f0783836040518060400160405280601a81526020017f536166654d6174683a206469766973696f6e206279207a65726f00000000000081525061404b565b60006134f06134e184614082565b6134ea84614082565b906140d2565b905060006135066134ff61417d565b8390612c35565b60018601549091506135229082906001600160801b0316613b72565b604080518082019091526002815261353160f01b60208201529091506001600160801b038211156135665760405162461bcd60e51b815260040161055b9190615120565b5060019490940180546001600160801b0319166001600160801b0390951694909417909355505050565b60008060008060006135a0614610565b6135a98a61418d565b156135c7576000806000806000199550955095509550955050613a43565b600060e08201525b878160e0015110156139a25760e08101516135eb908b90614192565b6135f457613992565b60e0810151600090815260208a81526040808320546001600160a01b03166101e085018190528352908d9052902061362b816141e3565b506080860181905260c08601929092525060a0840191909152600a0a60208301526101e082015160405163b3596f0760e01b81526001600160a01b038a169163b3596f079161367d9190600401614df8565b60206040518083038186803b15801561369557600080fd5b505afa1580156136a9573d6000803e3d6000fd5b505050506040513d601f19601f820116820180604052508101906136cd9190614be9565b825260c0820151158015906136ed575060e08201516136ed908c9061420e565b1561380b578060040160009054906101000a90046001600160a01b03166001600160a01b03166370a082318e6040518263ffffffff1660e01b81526004016137359190614df8565b60206040518083038186803b15801561374d57600080fd5b505afa158015613761573d6000803e3d6000fd5b505050506040513d601f19601f820116820180604052508101906137859190614be9565b60408301819052602083015183516000926137a492916115cb91613457565b6101208401519091506137b79082612c35565b61012084015260a08301516137dd906137d1908390613457565b61016085015190612c35565b61016084015260c0830151613803906137f7908390613457565b61018085015190612c35565b610180840152505b60e082015161381b908c90614266565b15613990578060050160009054906101000a90046001600160a01b03166001600160a01b03166370a082318e6040518263ffffffff1660e01b81526004016138639190614df8565b60206040518083038186803b15801561387b57600080fd5b505afa15801561388f573d6000803e3d6000fd5b505050506040513d601f19601f820116820180604052508101906138b39190614be9565b82606001818152505061395d8160060160009054906101000a90046001600160a01b03166001600160a01b03166370a082318f6040518263ffffffff1660e01b81526004016139029190614df8565b60206040518083038186803b15801561391a57600080fd5b505afa15801561392e573d6000803e3d6000fd5b505050506040513d601f19601f820116820180604052508101906139529190614be9565b606084015190612c35565b60608301819052602083015183516139899261397d92916115cb91613457565b61014084015190612c35565b6101408301525b505b60e08101805160010190526135cf565b6000816101200151116139b65760006139cb565b6101208101516101608201516139cb91613491565b6101608201526101208101516139e25760006139f7565b6101208101516101808201516139f791613491565b6101808201819052610120820151610140830151613a14926142b7565b610100820181905261012082015161014083015161016084015161018090940151919850965091945090925090505b965096509650965096915050565b600080613a5e85846142db565b905083811015613a72576000915050610f07565b613a7c8185612c5a565b95945050505050565b600190565b303b1590565b600381015460009064ffffffffff600160801b9091048116904216811415613ac757505060018101546001600160801b03166106eb565b60018301546002840154600091612659916001600160801b039182169161265391168561434a565b604080516020810190915284548152600090613b119088908890878787613590565b945050505050670de0b6b3a7640000811015604051806040016040528060018152602001601b60f91b81525090613b5b5760405162461bcd60e51b815260040161055b9190615120565b5050505050505050565b6000610f07838342614388565b6000821580613b7f575081155b15613b8c57506000610711565b816b019d971e4fe8401e740000001981613ba257fe5b0483111560405180604001604052806002815260200161068760f31b81525090613bdf5760405162461bcd60e51b815260040161055b9190615120565b506b033b2e3c9fd0803ce80000006002815b048385020181613bfd57fe5b049392505050565b600285015460009081906001600160801b031685858215613d33576000613c2c848861434a565b9050613c38818a613b72565b604080518082019091526002815261353160f01b60208201529093506001600160801b03841115613c7c5760405162461bcd60e51b815260040161055b9190615120565b5060018b0180546001600160801b0319166001600160801b0385161790558915613d315760028b0154600090613cc290600160801b90046001600160801b031689613b65565b9050613cce818a613b72565b6040805180820190915260028152611a9960f11b60208201529093506001600160801b03841115613d125760405162461bcd60e51b815260040161055b9190615120565b505060018b0180546001600160801b03808516600160801b0291161790555b505b600399909901805464ffffffffff60801b1916600160801b4264ffffffffff1602179055989650505050505050565b613d6a6146aa565b613d7387613f25565b6101208201819052613d8557506113da565b8660050160009054906101000a90046001600160a01b03166001600160a01b031663797743386040518163ffffffff1660e01b815260040160806040518083038186803b158015613dd557600080fd5b505afa158015613de9573d6000803e3d6000fd5b505050506040513d601f19601f82011682018060405250810190613e0d9190614cf8565b64ffffffffff1661014085015260a084015282526020820152613e308686613b72565b6080820152613e3f8684613b72565b606082015260a0810151610140820151613e61919064ffffffffff8516614388565b60c082018190526020820151613e7691613b72565b60408201819052608082015182516060840151613e9b93926109609290918391612c35565b60e08201819052610120820151613eb291906142db565b61010082018190521561229757600480880154610100830151604051637df5bd3b60e01b81526001600160a01b0390921692637df5bd3b92613ef79291899101615471565b600060405180830381600087803b158015613f1157600080fd5b505af11580156105c3573d6000803e3d6000fd5b5460401c61ffff1690565b60008184841115613f545760405162461bcd60e51b815260040161055b9190615120565b505050900390565b613f6e826001600160a01b0316612de0565b613f8a5760405162461bcd60e51b815260040161055b90615298565b60006060836001600160a01b031683604051613fa69190614ddc565b6000604051808303816000865af19150503d8060008114613fe3576040519150601f19603f3d011682016040523d82523d6000602084013e613fe8565b606091505b50915091508161400a5760405162461bcd60e51b815260040161055b9061518a565b805115612d6457808060200190518101906140259190614bcd565b612d645760405162461bcd60e51b815260040161055b9061524e565b5460301c60ff1690565b6000818361406c5760405162461bcd60e51b815260040161055b9190615120565b50600083858161407857fe5b0495945050505050565b6000633b9aca0082810290839082041460405180604001604052806002815260200161068760f31b815250906140cb5760405162461bcd60e51b815260040161055b9190615120565b5092915050565b604080518082019091526002815261035360f41b60208201526000908261410c5760405162461bcd60e51b815260040161055b9190615120565b5060408051808201909152600280825261068760f31b60208301528304906b033b2e3c9fd0803ce800000082190485111561415a5760405162461bcd60e51b815260040161055b9190615120565b5082816b033b2e3c9fd0803ce80000008602018161417457fe5b04949350505050565b6b033b2e3c9fd0803ce800000090565b511590565b60006080821060405180604001604052806002815260200161373760f01b815250906141d15760405162461bcd60e51b815260040161055b9190615120565b50509051600360029092021c16151590565b5461ffff80821692601083901c821692602081901c831692603082901c60ff169260409290921c1690565b60006080821060405180604001604052806002815260200161373760f01b8152509061424d5760405162461bcd60e51b815260040161055b9190615120565b5050815160016002830281019190911c16151592915050565b60006080821060405180604001604052806002815260200161373760f01b815250906142a55760405162461bcd60e51b815260040161055b9190615120565b50509051600160029092021c16151590565b6000826142c75750600019610f07565b612659836142d586856142db565b9061445e565b60008215806142e8575081155b156142f557506000610711565b81611388198161430157fe5b0483111560405180604001604052806002815260200161068760f31b8152509061433e5760405162461bcd60e51b815260040161055b9190615120565b50612710600281613bf1565b60008061435e4264ffffffffff8516612c5a565b905061265961436b61417d565b6301e1338061437a8785613457565b8161438157fe5b0490612c35565b60008061439c8364ffffffffff8616612c5a565b9050806143b3576143ab61417d565b915050610f07565b60001981016000600283116143c95760006143ce565b600283035b90506301e13380870460006143e38280613b72565b905060006143f18284613b72565b9050600060026144058461305a8a8a613457565b8161440c57fe5b049050600060066144238461305a89818d8d613457565b8161442a57fe5b04905061444e8161444884816144408a8e613457565b61444861417d565b90612c35565b9c9b505050505050505050505050565b604080518082019091526002815261035360f41b6020820152600090826144985760405162461bcd60e51b815260040161055b9190615120565b5060408051808201909152600280825261068760f31b6020830152830490670de0b6b3a76400008219048511156144e25760405162461bcd60e51b815260040161055b9190615120565b508281670de0b6b3a76400008602018161417457fe5b60405180610180016040528061450c614563565b815260006020820181905260408201819052606082018190526080820181905260a0820181905260c0820181905260e082018190526101008201819052610120820181905261014082018190526101609091015290565b6040518060200160405280600081525090565b6040805161012081018252600080825260208201819052918101829052606081018290526080810182905260a0810182905260c0810182905260e0810182905261010081019190915290565b60405180610100016040528060006001600160a01b03168152602001600081526020016000815260200160008152602001600081526020016000815260200160008152602001600081525090565b604051806102400160405280600081526020016000815260200160008152602001600081526020016000815260200160008152602001600081526020016000815260200160008152602001600081526020016000815260200160008152602001600081526020016000815260200160001515815260200160006001600160a01b031681526020016000151581526020016000151581525090565b60405180610160016040528060008152602001600081526020016000815260200160008152602001600081526020016000815260200160008152602001600081526020016000815260200160008152602001600064ffffffffff1681525090565b803561071181615572565b60008083601f840112614727578182fd5b50813567ffffffffffffffff81111561473e578182fd5b602083019150836020808302850101111561276f57600080fd5b60008083601f840112614769578182fd5b50813567ffffffffffffffff811115614780578182fd5b60208301915083602082850101111561276f57600080fd5b803561ffff8116811461071157600080fd5b6000602082840312156147bb578081fd5b8135610f0781615572565b6000602082840312156147d7578081fd5b8151610f0781615572565b600080604083850312156147f4578081fd5b82356147ff81615572565b9150602083013561480f81615572565b809150509250929050565b600080600080600060a08688031215614831578081fd5b853561483c81615572565b9450602086013561484c81615572565b9350604086013561485c81615572565b9250606086013561486c81615572565b9150608086013561487c81615572565b809150509295509295909350565b600080600080600060a086880312156148a1578081fd5b85356148ac81615572565b945060208601356148bc81615572565b935060408601356148cc81615572565b925060608601359150608086013561487c81615587565b60008060008060008060c087890312156148fb578081fd5b863561490681615572565b9550602087013561491681615572565b9450604087013561492681615572565b959894975094956060810135955060808101359460a0909101359350915050565b600080600080600080600080600080600060e08c8e031215614967578485fd5b6149718d8d61470b565b9a5067ffffffffffffffff8060208e0135111561498c578586fd5b61499c8e60208f01358f01614716565b909b50995060408d01358110156149b1578586fd5b6149c18e60408f01358f01614716565b909950975060608d01358110156149d6578586fd5b6149e68e60608f01358f01614716565b90975095506149f88e60808f0161470b565b94508060a08e01351115614a0a578384fd5b50614a1b8d60a08e01358e01614758565b9093509150614a2d8d60c08e01614798565b90509295989b509295989b9093969950565b60008060408385031215614a51578081fd5b8235614a5c81615572565b9150602083013561480f81615587565b60008060408385031215614a7e578182fd5b8235614a8981615572565b946020939093013593505050565b600080600060608486031215614aab578081fd5b8335614ab681615572565b9250602084013591506040840135614acd81615572565b809150509250925092565b60008060008060808587031215614aed578182fd5b8435614af881615572565b9350602085013592506040850135614b0f81615572565b9150614b1e8660608701614798565b905092959194509250565b60008060008060808587031215614b3e578182fd5b8435614b4981615572565b935060208501359250604085013591506060850135614b6781615572565b939692955090935050565b600080600080600060a08688031215614b89578283fd5b8535614b9481615572565b9450602086013593506040860135925061486c8760608801614798565b600060208284031215614bc2578081fd5b8135610f0781615587565b600060208284031215614bde578081fd5b8151610f0781615587565b600060208284031215614bfa578081fd5b5051919050565b60008060408385031215614c13578182fd5b82519150602083015167ffffffffffffffff80821115614c31578283fd5b818501915085601f830112614c44578283fd5b815181811115614c52578384fd5b604051601f8201601f191681016020018381118282101715614c72578586fd5b604052818152838201602001881015614c89578485fd5b614c9a826020830160208701615546565b809450505050509250929050565b60008060408385031215614cba578182fd5b505080516020909101519092909150565b600080600060608486031215614cdf578081fd5b8351925060208401519150604084015190509250925092565b60008060008060808587031215614d0d578182fd5b845193506020850151925060408501519150606085015164ffffffffff81168114614b67578182fd5b6001600160a01b0316815260200190565b6001600160a01b03169052565b6000815180845260208085019450808401835b83811015614d8357815187529582019590820190600101614d67565b509495945050505050565b60008284528282602086013780602084860101526020601f19601f85011685010190509392505050565b519052565b6001600160801b03169052565b64ffffffffff169052565b60ff169052565b60008251614dee818460208701615546565b9190910192915050565b6001600160a01b0391909116815260200190565b6001600160a01b03948516815292909316602083015260408201526001600160801b03909116606082015260800190565b6001600160a01b03929092168252602082015260400190565b6001600160a01b0393909316835260208301919091526001600160801b0316604082015260600190565b6001600160a01b03958616815293851660208501529190931660408301526060820192909252901515608082015260a00190565b6001600160a01b039384168152919092166020820152604081019190915260600190565b6001600160a01b0394851681529290931660208301526040820152606081019190915260800190565b6001600160a01b039c8d168152602081019b909b52988b1660408b015260608a0197909752608089019590955260a088019390935260c087019190915260e08601526101008501526101208401526101408301529091166101608201526101800190565b6001600160a01b039889168152602081019790975260408701959095526060860193909352608085019190915260a084015260c083015290911660e08201526101000190565b6001600160a01b0394909416845260208401929092526040830152606082015260800190565b6001600160a01b03969096168652602086019490945260408501929092526060840152608083015260a082015260c00190565b600060a0820160a08352806150198b836154c1565b90508b9150825b8b81101561504c576020830161503f8361503a838761470b565b614d36565b9093509150600101615020565b5083810360208501528881526001600160fb1b0389111561506b578283fd5b602089029150818a602083013701602081810183815284830390910160408501526150968189614d54565b9150506150a66060840187614d47565b82810360808401526150b9818587614d8e565b9b9a5050505050505050505050565b6020808252825182820181905260009190848201906040850190845b818110156151095783516001600160a01b0316835292840192918401916001016150e4565b50909695505050505050565b901515815260200190565b600060208252825180602084015261513f816040850160208701615546565b601f01601f19169190910160400192915050565b6020808252601b908201527f536166654d6174683a206164646974696f6e206f766572666c6f770000000000604082015260600190565b6020808252818101527f5361666545524332303a206c6f772d6c6576656c2063616c6c206661696c6564604082015260600190565b60208082526021908201527f536166654d6174683a206d756c7469706c69636174696f6e206f766572666c6f6040820152607760f81b606082015260800190565b6020808252602e908201527f436f6e747261637420696e7374616e63652068617320616c726561647920626560408201526d195b881a5b9a5d1a585b1a5e995960921b606082015260800190565b6020808252602a908201527f5361666545524332303a204552433230206f7065726174696f6e20646964206e6040820152691bdd081cdd58d8d9595960b21b606082015260800190565b6020808252601f908201527f5361666545524332303a2063616c6c20746f206e6f6e2d636f6e747261637400604082015260600190565b9051815260200190565b6000610180820190506152ed828451614db8565b60208301516152ff6020840182614dbd565b5060408301516153126040840182614dbd565b5060608301516153256060840182614dbd565b5060808301516153386080840182614dbd565b5060a083015161534b60a0840182614dbd565b5060c083015161535e60c0840182614dca565b5060e083015161537160e0840182614d47565b506101008084015161538582850182614d47565b50506101208084015161539a82850182614d47565b5050610140808401516153af82850182614d47565b5050610160808401516153c482850182614dd5565b505092915050565b9485526001600160a01b03938416602086015291831660408501528216606084015216608082015260a00190565b9788526001600160a01b03968716602089015294151560408801526060870193909352608086019190915260a085015260c08401521660e08201526101000190565b600060a0820190508682528560208301528460408301528360608301526154628361553b565b60808301529695505050505050565b918252602082015260400190565b8681526020810186905260c081016154968661553b565b60408301526001600160a01b03949094166060820152608081019290925260a0909101529392505050565b90815260200190565b928352602083019190915261ffff16604082015260600190565b948552602085019390935260408401919091526001600160801b03908116606084015216608082015260a00190565b958652602086019490945260408501929092526060840152608083015260a082015260c00190565b80600381106106eb57fe5b60005b83811015615561578181015183820152602001615549565b83811115612d645750506000910152565b6001600160a01b0381168114611b5157600080fd5b8015158114611b5157600080fdfea26469706673582212203320e1c292c893cc23c8131786b2b7c383eabf960440c1f800863ced7b87b8c464736f6c634300060c0033",
    "linkReferences": {
      "contracts/protocol/libraries/logic/ReserveLogic.sol": {
        "ReserveLogic": [
          {
            "start": 4006,
            "length": 20
          }
        ]
      },
      "contracts/protocol/libraries/logic/ValidationLogic.sol": {
        "ValidationLogic": [
          {
            "start": 1985,
            "length": 20
          },
          {
            "start": 2690,
            "length": 20
          },
          {
            "start": 3261,
            "length": 20
          },
          {
            "start": 4218,
            "length": 20
          },
          {
            "start": 7684,
            "length": 20
          },
          {
            "start": 8955,
            "length": 20
          },
          {
            "start": 12425,
            "length": 20
          }
        ]
      }
    }
  },
  "methodIdentifiers": {
    "FLASHLOAN_PREMIUM_TOTAL()": "074b2e43",
    "LENDINGPOOL_REVISION()": "8afaff02",
    "MAX_NUMBER_RESERVES()": "f8119d51",
    "MAX_STABLE_RATE_BORROW_SIZE_PERCENT()": "e82fec2f",
    "borrow(address,uint256,uint256,uint16,address)": "a415bcad",
    "deposit(address,uint256,address,uint16)": "e8eda9df",
    "finalizeTransfer(address,address,address,uint256,uint256,uint256)": "d5ed3933",
    "flashLoan(address,address[],uint256[],uint256[],address,bytes,uint16)": "ab9c4b5d",
    "getAddressesProvider()": "fe65acfe",
    "getConfiguration(address)": "c44b11f7",
    "getReserveData(address)": "35ea6a75",
    "getReserveNormalizedIncome(address)": "d15e0053",
    "getReserveNormalizedVariableDebt(address)": "386497fd",
    "getReservesList()": "d1946dbc",
    "getUserAccountData(address)": "bf92857c",
    "getUserConfiguration(address)": "4417a583",
    "initReserve(address,address,address,address,address)": "7a708e92",
    "initialize(address)": "c4d66de8",
    "liquidationCall(address,address,address,uint256,bool)": "00a718a9",
    "paused()": "5c975abb",
    "rebalanceStableBorrowRate(address,address)": "cd112382",
    "repay(address,uint256,uint256,address)": "573ade81",
    "setConfiguration(address,uint256)": "b8d29276",
    "setPause(bool)": "bedb86fb",
    "setReserveInterestRateStrategyAddress(address,address)": "1d2118f9",
    "setUserUseReserveAsCollateral(address,bool)": "5a3b74b9",
    "swapBorrowRateMode(address,uint256)": "94ba89a2",
    "withdraw(address,uint256,address)": "69328dec"
  },
  "id": 77
}