{
	"data": {
		"bytecode": {
			"linkReferences": {
				"contracts/protocol/libraries/logic/GenericLogic.sol": {
					"GenericLogic": [
						{
							"length": 20,
							"start": 1565
						},
						{
							"length": 20,
							"start": 3887
						}
					]
				}
			},
			"object": "612055610026600b82828239805160001a60731461001957fe5b30600052607381538281f3fe730000000000000000000000000000000000000000301460806040526004361061009d5760003560e01c8063721a92f911610070578063721a92f9146100fb578063a8695b1d1461010e578063abfcc86a14610121578063d09db04a14610129578063fa0c21491461013c5761009d565b80630eca322b146100a2578063548cad09146100b75780635494eb8a146100ca5780635fa297e5146100e8575b600080fd5b6100b56100b0366004611e2b565b61014f565b005b6100b56100c5366004611d86565b610217565b6100d261050d565b6040516100df9190611fe3565b60405180910390f35b6100b56100f6366004611d1c565b61051d565b6100b5610109366004611bea565b6106c2565b6100b561011c366004611ded565b610b8a565b6100d2610e23565b6100b5610137366004611c8e565b610e29565b6100b561014a366004611e4c565b610fc7565b60008061015b8461110d565b50506040805180820190915260018152603160f81b60208201529193509150836101a15760405162461bcd60e51b81526004016101989190611f18565b60405180910390fd5b506040805180820190915260018152601960f91b6020820152826101d85760405162461bcd60e51b81526004016101989190611f18565b506040805180820190915260018152603360f81b602082015281156102105760405162461bcd60e51b81526004016101989190611f18565b5050505050565b60006102228661110d565b505050905080604051806040016040528060018152602001601960f91b815250906102605760405162461bcd60e51b81526004016101989190611f18565b506000610356610351856001600160a01b03166318160ddd6040518163ffffffff1660e01b815260040160206040518083038186803b1580156102a257600080fd5b505afa1580156102b6573d6000803e3d6000fd5b505050506040513d601f19601f820116820180604052508101906102da9190611ea7565b876001600160a01b03166318160ddd6040518163ffffffff1660e01b815260040160206040518083038186803b15801561031357600080fd5b505afa158015610327573d6000803e3d6000fd5b505050506040513d601f19601f8201168201806040525081019061034b9190611ea7565b90611145565b611173565b905060006103d9876001600160a01b03166370a08231866040518263ffffffff1660e01b81526004016103899190611ebf565b60206040518083038186803b1580156103a157600080fd5b505afa1580156103b5573d6000803e3d6000fd5b505050506040513d601f19601f820116820180604052508101906103519190611ea7565b9050600082156103fc576103f76103f08385611145565b84906111c3565b6103ff565b60005b60028a015460078b0154604080516380031e3760e01b815290519394506fffffffffffffffffffffffffffffffff909216926000926001600160a01b03909216916380031e37916004808301926020929190829003018186803b15801561046557600080fd5b505afa158015610479573d6000803e3d6000fd5b505050506040513d601f19601f8201168201806040525081019061049d9190611ea7565b90506b0311d253316c79d37600000083101580156104c657506104c281610fa061126e565b8211155b60405180604001604052806002815260200161191960f11b815250906104ff5760405162461bcd60e51b81526004016101989190611f18565b505050505050505050505050565b6b0311d253316c79d37600000081565b6004808901546040516370a0823160e01b81526000926001600160a01b03909216916370a082319161055191339101611ebf565b60206040518083038186803b15801561056957600080fd5b505afa15801561057d573d6000803e3d6000fd5b505050506040513d601f19601f820116820180604052508101906105a19190611ea7565b90506000811160405180604001604052806002815260200161313960f01b815250906105e05760405162461bcd60e51b81526004016101989190611f18565b50868061067d5750604051633985c10960e21b815273__$52a8a86ab43135662ff256bbc95497e8e3$__9063e61704249061062d908b90339086908c908c908c908c908c90600401611ed3565b60206040518083038186803b15801561064557600080fd5b505af4158015610659573d6000803e3d6000fd5b505050506040513d601f19601f8201168201806040525081019061067d9190611d00565b60405180604001604052806002815260200161032360f41b815250906106b65760405162461bcd60e51b81526004016101989190611f18565b50505050505050505050565b6106ca611aee565b6106d38c61110d565b151561014085015215156101208401521515610100830152151560e082018190526040805180820190915260018152601960f91b60208201529061072a5760405162461bcd60e51b81526004016101989190611f18565b5080610100015115604051806040016040528060018152602001603360f81b8152509061076a5760405162461bcd60e51b81526004016101989190611f18565b506040805180820190915260018152603160f81b60208201528a6107a15760405162461bcd60e51b81526004016101989190611f18565b50806101200151604051806040016040528060018152602001603760f81b815250906107e05760405162461bcd60e51b81526004016101989190611f18565b5087600214806107f05750876001145b604051806040016040528060018152602001600760fb1b815250906108285760405162461bcd60e51b81526004016101989190611f18565b50604080516020810190915285548152610848908c9088908787876112e0565b60c08601526020808601919091529084526080840191909152606083018290526040805180820190915260018152603960f81b91810191909152906108a05760405162461bcd60e51b81526004016101989190611f18565b50670de0b6b3a76400008160c001511160405180604001604052806002815260200161031360f41b815250906108e95760405162461bcd60e51b81526004016101989190611f18565b50805160808201516109069190610900908c611145565b906117a7565b6040808301829052606083015181518083019092526002825261313160f01b60208301529091111561094b5760405162461bcd60e51b81526004016101989190611f18565b506001881415610b7b5780610140015160405180604001604052806002815260200161189960f11b815250906109945760405162461bcd60e51b81526004016101989190611f18565b5060078c01546040805160208101909152865481526109bc91600160a01b900460ff16611835565b15806109ce57506109cc8c61188d565b155b80610a5857506004808d01546040516370a0823160e01b81526001600160a01b03909116916370a0823191610a05918f9101611ebf565b60206040518083038186803b158015610a1d57600080fd5b505afa158015610a31573d6000803e3d6000fd5b505050506040513d601f19601f82011682018060405250810190610a559190611ea7565b8a115b60405180604001604052806002815260200161313360f01b81525090610a915760405162461bcd60e51b81526004016101989190611f18565b508c6001600160a01b03166370a082318d60040160009054906101000a90046001600160a01b03166040518263ffffffff1660e01b8152600401610ad59190611ebf565b60206040518083038186803b158015610aed57600080fd5b505afa158015610b01573d6000803e3d6000fd5b505050506040513d601f19601f82011682018060405250810190610b259190611ea7565b60a08201819052600090610b39908961126e565b9050808b1115604051806040016040528060028152602001610c4d60f21b81525090610b785760405162461bcd60e51b81526004016101989190611f18565b50505b50505050505050505050505050565b60008080610b978861110d565b9350509250925082604051806040016040528060018152602001601960f91b81525090610bd75760405162461bcd60e51b81526004016101989190611f18565b506040805180820190915260018152603360f81b60208201528215610c0f5760405162461bcd60e51b81526004016101989190611f18565b506001846002811115610c1e57fe5b1415610c6157604080518082019091526002815261313760f01b602082015286610c5b5760405162461bcd60e51b81526004016101989190611f18565b50610e19565b6002846002811115610c6f57fe5b1415610dea57604080518082019091526002815261062760f31b602082015285610cac5760405162461bcd60e51b81526004016101989190611f18565b50604080518082019091526002815261189960f11b602082015281610ce45760405162461bcd60e51b81526004016101989190611f18565b506007880154604080516020810190915288548152610d0c91600160a01b900460ff16611835565b1580610d1e5750610d1c8861188d565b155b80610db157506004808901546040516370a0823160e01b81526001600160a01b03909116916370a0823191610d5591339101611ebf565b60206040518083038186803b158015610d6d57600080fd5b505afa158015610d81573d6000803e3d6000fd5b505050506040513d601f19601f82011682018060405250810190610da59190611ea7565b610daf8787611145565b115b60405180604001604052806002815260200161313360f01b81525090610c5b5760405162461bcd60e51b81526004016101989190611f18565b60408051808201825260018152600760fb1b6020820152905162461bcd60e51b81526101989190600401611f18565b5050505050505050565b610fa081565b6040805180820190915260018152603160f81b602082015287610e5f5760405162461bcd60e51b81526004016101989190611f18565b506040805180820190915260018152603560f81b602082015286881115610e995760405162461bcd60e51b81526004016101989190611f18565b506001600160a01b0388166000908152602086905260408120610ebb9061110d565b505050905080604051806040016040528060018152602001601960f91b81525090610ef95760405162461bcd60e51b81526004016101989190611f18565b50604051633985c10960e21b815273__$52a8a86ab43135662ff256bbc95497e8e3$__9063e617042490610f3f908c9033908d908c908c908c908c908c90600401611ed3565b60206040518083038186803b158015610f5757600080fd5b505af4158015610f6b573d6000803e3d6000fd5b505050506040513d601f19601f82011682018060405250810190610f8f9190611d00565b604051806040016040528060018152602001601b60f91b815250906106b65760405162461bcd60e51b81526004016101989190611f18565b6000610fd287611895565b905080604051806040016040528060018152602001601960f91b8152509061100d5760405162461bcd60e51b81526004016101989190611f18565b506040805180820190915260018152603160f81b6020820152866110445760405162461bcd60e51b81526004016101989190611f18565b506000831180156110605750600185600281111561105e57fe5b145b8061108157506000821180156110815750600285600281111561107f57fe5b145b60405180604001604052806002815260200161313560f01b815250906110ba5760405162461bcd60e51b81526004016101989190611f18565b50600019861415806110d45750336001600160a01b038516145b60405180604001604052806002815260200161189b60f11b81525090610e195760405162461bcd60e51b81526004016101989190611f18565b54600160381b811615159167020000000000000082161515916704000000000000008116151591670800000000000000909116151590565b60008282018381101561116a5760405162461bcd60e51b815260040161019890611f6b565b90505b92915050565b6000633b9aca0082810290839082041460405180604001604052806002815260200161068760f31b815250906111bc5760405162461bcd60e51b81526004016101989190611f18565b5092915050565b604080518082019091526002815261035360f41b6020820152600090826111fd5760405162461bcd60e51b81526004016101989190611f18565b5060408051808201909152600280825261068760f31b60208301528304906b033b2e3c9fd0803ce800000082190485111561124b5760405162461bcd60e51b81526004016101989190611f18565b5082816b033b2e3c9fd0803ce80000008602018161126557fe5b04949350505050565b600082158061127b575081155b156112885750600061116d565b81611388198161129457fe5b0483111560405180604001604052806002815260200161068760f31b815250906112d15760405162461bcd60e51b81526004016101989190611f18565b50506127109102611388010490565b60008060008060006112f0611b50565b6112f98a6118a1565b15611317576000806000806000199550955095509550955050611799565b600060e08201525b878160e0015110156116f85760e081015161133b908b906118a6565b611344576116e8565b60e0810151600090815260208a81526040808320546001600160a01b03166101e085018190528352908d9052902061137b816118f7565b506080860181905260c08601929092525060a0840191909152600a0a60208301526101e082015160405163b3596f0760e01b81526001600160a01b038a169163b3596f07916113cd9190600401611ebf565b60206040518083038186803b1580156113e557600080fd5b505afa1580156113f9573d6000803e3d6000fd5b505050506040513d601f19601f8201168201806040525081019061141d9190611ea7565b825260c08201511580159061143d575060e082015161143d908c90611835565b15611561578060040160009054906101000a90046001600160a01b03166001600160a01b03166370a082318e6040518263ffffffff1660e01b81526004016114859190611ebf565b60206040518083038186803b15801561149d57600080fd5b505afa1580156114b1573d6000803e3d6000fd5b505050506040513d601f19601f820116820180604052508101906114d59190611ea7565b60408301819052602083015183516000926114fa92916114f491611922565b9061195c565b61012084015190915061150d9082611145565b61012084015260a083015161153390611527908390611922565b61016085015190611145565b61016084015260c08301516115599061154d908390611922565b61018085015190611145565b610180840152505b60e0820151611571908c9061199e565b156116e6578060050160009054906101000a90046001600160a01b03166001600160a01b03166370a082318e6040518263ffffffff1660e01b81526004016115b99190611ebf565b60206040518083038186803b1580156115d157600080fd5b505afa1580156115e5573d6000803e3d6000fd5b505050506040513d601f19601f820116820180604052508101906116099190611ea7565b8260600181815250506116b38160060160009054906101000a90046001600160a01b03166001600160a01b03166370a082318f6040518263ffffffff1660e01b81526004016116589190611ebf565b60206040518083038186803b15801561167057600080fd5b505afa158015611684573d6000803e3d6000fd5b505050506040513d601f19601f820116820180604052508101906116a89190611ea7565b606084015190611145565b60608301819052602083015183516116df926116d392916114f491611922565b61014084015190611145565b6101408301525b505b60e081018051600101905261131f565b60008161012001511161170c576000611721565b6101208101516101608201516117219161195c565b61016082015261012081015161173857600061174d565b61012081015161018082015161174d9161195c565b610180820181905261012082015161014083015161176a926119ef565b610100820181905261012082015161014083015161016084015161018090940151919850965091945090925090505b965096509650965096915050565b604080518082019091526002815261035360f41b6020820152600090826117e15760405162461bcd60e51b81526004016101989190611f18565b5060408051808201909152600280825261068760f31b60208301528304906127108219048511156118255760405162461bcd60e51b81526004016101989190611f18565b5082816127108602018161126557fe5b60006080821060405180604001604052806002815260200161373760f01b815250906118745760405162461bcd60e51b81526004016101989190611f18565b5050815160016002830281019190911c16151592915050565b5461ffff1690565b54600160381b16151590565b511590565b60006080821060405180604001604052806002815260200161373760f01b815250906118e55760405162461bcd60e51b81526004016101989190611f18565b50509051600360029092021c16151590565b5461ffff80821692601083901c821692602081901c831692603082901c60ff169260409290921c1690565b6000826119315750600061116d565b8282028284828161193e57fe5b041461116a5760405162461bcd60e51b815260040161019890611fa2565b600061116a83836040518060400160405280601a81526020017f536166654d6174683a206469766973696f6e206279207a65726f000000000000815250611a1d565b60006080821060405180604001604052806002815260200161373760f01b815250906119dd5760405162461bcd60e51b81526004016101989190611f18565b50509051600160029092021c16151590565b6000826119ff5750600019611a16565b611a1383611a0d868561126e565b90611a54565b90505b9392505050565b60008183611a3e5760405162461bcd60e51b81526004016101989190611f18565b506000838581611a4a57fe5b0495945050505050565b604080518082019091526002815261035360f41b602082015260009082611a8e5760405162461bcd60e51b81526004016101989190611f18565b5060408051808201909152600280825261068760f31b6020830152830490670de0b6b3a7640000821904851115611ad85760405162461bcd60e51b81526004016101989190611f18565b508281670de0b6b3a76400008602018161126557fe5b604051806101600160405280600081526020016000815260200160008152602001600081526020016000815260200160008152602001600081526020016000151581526020016000151581526020016000151581526020016000151581525090565b604051806102400160405280600081526020016000815260200160008152602001600081526020016000815260200160008152602001600081526020016000815260200160008152602001600081526020016000815260200160008152602001600081526020016000815260200160001515815260200160006001600160a01b031681526020016000151581526020016000151581525090565b6000806000806000806000806000806000806101808d8f031215611c0c578788fd5b8c35611c1781611fec565b9b5060208d01359a5060408d0135611c2e81611fec565b995060608d0135985060808d0135975060a08d0135965060c08d0135955060e08d013594506101008d013593506101208d013592506101408d013591506101608d0135611c7a81611fec565b809150509295989b509295989b509295989b565b600080600080600080600080610100898b031215611caa578384fd5b8835611cb581611fec565b97506020890135965060408901359550606089013594506080890135935060a0890135925060c0890135915060e0890135611cef81611fec565b809150509295985092959890939650565b600060208284031215611d11578081fd5b815161116a81612004565b600080600080600080600080610100898b031215611d38578384fd5b883597506020890135611d4a81611fec565b96506040890135611d5a81612004565b9550606089013594506080890135935060a0890135925060c0890135915060e0890135611cef81611fec565b600080600080600060a08688031215611d9d578081fd5b853594506020860135611daf81611fec565b93506040860135611dbf81611fec565b92506060860135611dcf81611fec565b91506080860135611ddf81611fec565b809150509295509295909350565b600080600080600060a08688031215611e04578081fd5b853594506020860135935060408601359250606086013591506080860135611ddf81612012565b60008060408385031215611e3d578182fd5b50508035926020909101359150565b60008060008060008060c08789031215611e64578384fd5b86359550602087013594506040870135611e7d81612012565b93506060870135611e8d81611fec565b9598949750929560808101359460a0909101359350915050565b600060208284031215611eb8578081fd5b5051919050565b6001600160a01b0391909116815260200190565b6001600160a01b0398891681529688166020880152604087019590955260608601939093529054608085015260a084015260c083015290911660e08201526101000190565b6000602080835283518082850152825b81811015611f4457858101830151858201604001528201611f28565b81811115611f555783604083870101525b50601f01601f1916929092016040019392505050565b6020808252601b908201527f536166654d6174683a206164646974696f6e206f766572666c6f770000000000604082015260600190565b60208082526021908201527f536166654d6174683a206d756c7469706c69636174696f6e206f766572666c6f6040820152607760f81b606082015260800190565b90815260200190565b6001600160a01b038116811461200157600080fd5b50565b801515811461200157600080fd5b6003811061200157600080fdfea264697066735822122028a1a7ae630585de919b137be72e19cf7e73163cdfdb0b650474c6e53ea79b8e64736f6c634300060c0033",
			"opcodes": "PUSH2 0x2055 PUSH2 0x26 PUSH1 0xB DUP3 DUP3 DUP3 CODECOPY DUP1 MLOAD PUSH1 0x0 BYTE PUSH1 0x73 EQ PUSH2 0x19 JUMPI INVALID JUMPDEST ADDRESS PUSH1 0x0 MSTORE PUSH1 0x73 DUP2 MSTORE8 DUP3 DUP2 RETURN INVALID PUSH20 0x0 ADDRESS EQ PUSH1 0x80 PUSH1 0x40 MSTORE PUSH1 0x4 CALLDATASIZE LT PUSH2 0x9D JUMPI PUSH1 0x0 CALLDATALOAD PUSH1 0xE0 SHR DUP1 PUSH4 0x721A92F9 GT PUSH2 0x70 JUMPI DUP1 PUSH4 0x721A92F9 EQ PUSH2 0xFB JUMPI DUP1 PUSH4 0xA8695B1D EQ PUSH2 0x10E JUMPI DUP1 PUSH4 0xABFCC86A EQ PUSH2 0x121 JUMPI DUP1 PUSH4 0xD09DB04A EQ PUSH2 0x129 JUMPI DUP1 PUSH4 0xFA0C2149 EQ PUSH2 0x13C JUMPI PUSH2 0x9D JUMP JUMPDEST DUP1 PUSH4 0xECA322B EQ PUSH2 0xA2 JUMPI DUP1 PUSH4 0x548CAD09 EQ PUSH2 0xB7 JUMPI DUP1 PUSH4 0x5494EB8A EQ PUSH2 0xCA JUMPI DUP1 PUSH4 0x5FA297E5 EQ PUSH2 0xE8 JUMPI JUMPDEST PUSH1 0x0 DUP1 REVERT JUMPDEST PUSH2 0xB5 PUSH2 0xB0 CALLDATASIZE PUSH1 0x4 PUSH2 0x1E2B JUMP JUMPDEST PUSH2 0x14F JUMP JUMPDEST STOP JUMPDEST PUSH2 0xB5 PUSH2 0xC5 CALLDATASIZE PUSH1 0x4 PUSH2 0x1D86 JUMP JUMPDEST PUSH2 0x217 JUMP JUMPDEST PUSH2 0xD2 PUSH2 0x50D JUMP JUMPDEST PUSH1 0x40 MLOAD PUSH2 0xDF SWAP2 SWAP1 PUSH2 0x1FE3 JUMP JUMPDEST PUSH1 0x40 MLOAD DUP1 SWAP2 SUB SWAP1 RETURN JUMPDEST PUSH2 0xB5 PUSH2 0xF6 CALLDATASIZE PUSH1 0x4 PUSH2 0x1D1C JUMP JUMPDEST PUSH2 0x51D JUMP JUMPDEST PUSH2 0xB5 PUSH2 0x109 CALLDATASIZE PUSH1 0x4 PUSH2 0x1BEA JUMP JUMPDEST PUSH2 0x6C2 JUMP JUMPDEST PUSH2 0xB5 PUSH2 0x11C CALLDATASIZE PUSH1 0x4 PUSH2 0x1DED JUMP JUMPDEST PUSH2 0xB8A JUMP JUMPDEST PUSH2 0xD2 PUSH2 0xE23 JUMP JUMPDEST PUSH2 0xB5 PUSH2 0x137 CALLDATASIZE PUSH1 0x4 PUSH2 0x1C8E JUMP JUMPDEST PUSH2 0xE29 JUMP JUMPDEST PUSH2 0xB5 PUSH2 0x14A CALLDATASIZE PUSH1 0x4 PUSH2 0x1E4C JUMP JUMPDEST PUSH2 0xFC7 JUMP JUMPDEST PUSH1 0x0 DUP1 PUSH2 0x15B DUP5 PUSH2 0x110D JUMP JUMPDEST POP POP PUSH1 0x40 DUP1 MLOAD DUP1 DUP3 ADD SWAP1 SWAP2 MSTORE PUSH1 0x1 DUP2 MSTORE PUSH1 0x31 PUSH1 0xF8 SHL PUSH1 0x20 DUP3 ADD MSTORE SWAP2 SWAP4 POP SWAP2 POP DUP4 PUSH2 0x1A1 JUMPI PUSH1 0x40 MLOAD PUSH3 0x461BCD PUSH1 0xE5 SHL DUP2 MSTORE PUSH1 0x4 ADD PUSH2 0x198 SWAP2 SWAP1 PUSH2 0x1F18 JUMP JUMPDEST PUSH1 0x40 MLOAD DUP1 SWAP2 SUB SWAP1 REVERT JUMPDEST POP PUSH1 0x40 DUP1 MLOAD DUP1 DUP3 ADD SWAP1 SWAP2 MSTORE PUSH1 0x1 DUP2 MSTORE PUSH1 0x19 PUSH1 0xF9 SHL PUSH1 0x20 DUP3 ADD MSTORE DUP3 PUSH2 0x1D8 JUMPI PUSH1 0x40 MLOAD PUSH3 0x461BCD PUSH1 0xE5 SHL DUP2 MSTORE PUSH1 0x4 ADD PUSH2 0x198 SWAP2 SWAP1 PUSH2 0x1F18 JUMP JUMPDEST POP PUSH1 0x40 DUP1 MLOAD DUP1 DUP3 ADD SWAP1 SWAP2 MSTORE PUSH1 0x1 DUP2 MSTORE PUSH1 0x33 PUSH1 0xF8 SHL PUSH1 0x20 DUP3 ADD MSTORE DUP2 ISZERO PUSH2 0x210 JUMPI PUSH1 0x40 MLOAD PUSH3 0x461BCD PUSH1 0xE5 SHL DUP2 MSTORE PUSH1 0x4 ADD PUSH2 0x198 SWAP2 SWAP1 PUSH2 0x1F18 JUMP JUMPDEST POP POP POP POP POP JUMP JUMPDEST PUSH1 0x0 PUSH2 0x222 DUP7 PUSH2 0x110D JUMP JUMPDEST POP POP POP SWAP1 POP DUP1 PUSH1 0x40 MLOAD DUP1 PUSH1 0x40 ADD PUSH1 0x40 MSTORE DUP1 PUSH1 0x1 DUP2 MSTORE PUSH1 0x20 ADD PUSH1 0x19 PUSH1 0xF9 SHL DUP2 MSTORE POP SWAP1 PUSH2 0x260 JUMPI PUSH1 0x40 MLOAD PUSH3 0x461BCD PUSH1 0xE5 SHL DUP2 MSTORE PUSH1 0x4 ADD PUSH2 0x198 SWAP2 SWAP1 PUSH2 0x1F18 JUMP JUMPDEST POP PUSH1 0x0 PUSH2 0x356 PUSH2 0x351 DUP6 PUSH1 0x1 PUSH1 0x1 PUSH1 0xA0 SHL SUB AND PUSH4 0x18160DDD PUSH1 0x40 MLOAD DUP2 PUSH4 0xFFFFFFFF AND PUSH1 0xE0 SHL DUP2 MSTORE PUSH1 0x4 ADD PUSH1 0x20 PUSH1 0x40 MLOAD DUP1 DUP4 SUB DUP2 DUP7 DUP1 EXTCODESIZE ISZERO DUP1 ISZERO PUSH2 0x2A2 JUMPI PUSH1 0x0 DUP1 REVERT JUMPDEST POP GAS STATICCALL ISZERO DUP1 ISZERO PUSH2 0x2B6 JUMPI RETURNDATASIZE PUSH1 0x0 DUP1 RETURNDATACOPY RETURNDATASIZE PUSH1 0x0 REVERT JUMPDEST POP POP POP POP PUSH1 0x40 MLOAD RETURNDATASIZE PUSH1 0x1F NOT PUSH1 0x1F DUP3 ADD AND DUP3 ADD DUP1 PUSH1 0x40 MSTORE POP DUP2 ADD SWAP1 PUSH2 0x2DA SWAP2 SWAP1 PUSH2 0x1EA7 JUMP JUMPDEST DUP8 PUSH1 0x1 PUSH1 0x1 PUSH1 0xA0 SHL SUB AND PUSH4 0x18160DDD PUSH1 0x40 MLOAD DUP2 PUSH4 0xFFFFFFFF AND PUSH1 0xE0 SHL DUP2 MSTORE PUSH1 0x4 ADD PUSH1 0x20 PUSH1 0x40 MLOAD DUP1 DUP4 SUB DUP2 DUP7 DUP1 EXTCODESIZE ISZERO DUP1 ISZERO PUSH2 0x313 JUMPI PUSH1 0x0 DUP1 REVERT JUMPDEST POP GAS STATICCALL ISZERO DUP1 ISZERO PUSH2 0x327 JUMPI RETURNDATASIZE PUSH1 0x0 DUP1 RETURNDATACOPY RETURNDATASIZE PUSH1 0x0 REVERT JUMPDEST POP POP POP POP PUSH1 0x40 MLOAD RETURNDATASIZE PUSH1 0x1F NOT PUSH1 0x1F DUP3 ADD AND DUP3 ADD DUP1 PUSH1 0x40 MSTORE POP DUP2 ADD SWAP1 PUSH2 0x34B SWAP2 SWAP1 PUSH2 0x1EA7 JUMP JUMPDEST SWAP1 PUSH2 0x1145 JUMP JUMPDEST PUSH2 0x1173 JUMP JUMPDEST SWAP1 POP PUSH1 0x0 PUSH2 0x3D9 DUP8 PUSH1 0x1 PUSH1 0x1 PUSH1 0xA0 SHL SUB AND PUSH4 0x70A08231 DUP7 PUSH1 0x40 MLOAD DUP3 PUSH4 0xFFFFFFFF AND PUSH1 0xE0 SHL DUP2 MSTORE PUSH1 0x4 ADD PUSH2 0x389 SWAP2 SWAP1 PUSH2 0x1EBF JUMP JUMPDEST PUSH1 0x20 PUSH1 0x40 MLOAD DUP1 DUP4 SUB DUP2 DUP7 DUP1 EXTCODESIZE ISZERO DUP1 ISZERO PUSH2 0x3A1 JUMPI PUSH1 0x0 DUP1 REVERT JUMPDEST POP GAS STATICCALL ISZERO DUP1 ISZERO PUSH2 0x3B5 JUMPI RETURNDATASIZE PUSH1 0x0 DUP1 RETURNDATACOPY RETURNDATASIZE PUSH1 0x0 REVERT JUMPDEST POP POP POP POP PUSH1 0x40 MLOAD RETURNDATASIZE PUSH1 0x1F NOT PUSH1 0x1F DUP3 ADD AND DUP3 ADD DUP1 PUSH1 0x40 MSTORE POP DUP2 ADD SWAP1 PUSH2 0x351 SWAP2 SWAP1 PUSH2 0x1EA7 JUMP JUMPDEST SWAP1 POP PUSH1 0x0 DUP3 ISZERO PUSH2 0x3FC JUMPI PUSH2 0x3F7 PUSH2 0x3F0 DUP4 DUP6 PUSH2 0x1145 JUMP JUMPDEST DUP5 SWAP1 PUSH2 0x11C3 JUMP JUMPDEST PUSH2 0x3FF JUMP JUMPDEST PUSH1 0x0 JUMPDEST PUSH1 0x2 DUP11 ADD SLOAD PUSH1 0x7 DUP12 ADD SLOAD PUSH1 0x40 DUP1 MLOAD PUSH4 0x80031E37 PUSH1 0xE0 SHL DUP2 MSTORE SWAP1 MLOAD SWAP4 SWAP5 POP PUSH16 0xFFFFFFFFFFFFFFFFFFFFFFFFFFFFFFFF SWAP1 SWAP3 AND SWAP3 PUSH1 0x0 SWAP3 PUSH1 0x1 PUSH1 0x1 PUSH1 0xA0 SHL SUB SWAP1 SWAP3 AND SWAP2 PUSH4 0x80031E37 SWAP2 PUSH1 0x4 DUP1 DUP4 ADD SWAP3 PUSH1 0x20 SWAP3 SWAP2 SWAP1 DUP3 SWAP1 SUB ADD DUP2 DUP7 DUP1 EXTCODESIZE ISZERO DUP1 ISZERO PUSH2 0x465 JUMPI PUSH1 0x0 DUP1 REVERT JUMPDEST POP GAS STATICCALL ISZERO DUP1 ISZERO PUSH2 0x479 JUMPI RETURNDATASIZE PUSH1 0x0 DUP1 RETURNDATACOPY RETURNDATASIZE PUSH1 0x0 REVERT JUMPDEST POP POP POP POP PUSH1 0x40 MLOAD RETURNDATASIZE PUSH1 0x1F NOT PUSH1 0x1F DUP3 ADD AND DUP3 ADD DUP1 PUSH1 0x40 MSTORE POP DUP2 ADD SWAP1 PUSH2 0x49D SWAP2 SWAP1 PUSH2 0x1EA7 JUMP JUMPDEST SWAP1 POP PUSH12 0x311D253316C79D376000000 DUP4 LT ISZERO DUP1 ISZERO PUSH2 0x4C6 JUMPI POP PUSH2 0x4C2 DUP2 PUSH2 0xFA0 PUSH2 0x126E JUMP JUMPDEST DUP3 GT ISZERO JUMPDEST PUSH1 0x40 MLOAD DUP1 PUSH1 0x40 ADD PUSH1 0x40 MSTORE DUP1 PUSH1 0x2 DUP2 MSTORE PUSH1 0x20 ADD PUSH2 0x1919 PUSH1 0xF1 SHL DUP2 MSTORE POP SWAP1 PUSH2 0x4FF JUMPI PUSH1 0x40 MLOAD PUSH3 0x461BCD PUSH1 0xE5 SHL DUP2 MSTORE PUSH1 0x4 ADD PUSH2 0x198 SWAP2 SWAP1 PUSH2 0x1F18 JUMP JUMPDEST POP POP POP POP POP POP POP POP POP POP POP POP JUMP JUMPDEST PUSH12 0x311D253316C79D376000000 DUP2 JUMP JUMPDEST PUSH1 0x4 DUP1 DUP10 ADD SLOAD PUSH1 0x40 MLOAD PUSH4 0x70A08231 PUSH1 0xE0 SHL DUP2 MSTORE PUSH1 0x0 SWAP3 PUSH1 0x1 PUSH1 0x1 PUSH1 0xA0 SHL SUB SWAP1 SWAP3 AND SWAP2 PUSH4 0x70A08231 SWAP2 PUSH2 0x551 SWAP2 CALLER SWAP2 ADD PUSH2 0x1EBF JUMP JUMPDEST PUSH1 0x20 PUSH1 0x40 MLOAD DUP1 DUP4 SUB DUP2 DUP7 DUP1 EXTCODESIZE ISZERO DUP1 ISZERO PUSH2 0x569 JUMPI PUSH1 0x0 DUP1 REVERT JUMPDEST POP GAS STATICCALL ISZERO DUP1 ISZERO PUSH2 0x57D JUMPI RETURNDATASIZE PUSH1 0x0 DUP1 RETURNDATACOPY RETURNDATASIZE PUSH1 0x0 REVERT JUMPDEST POP POP POP POP PUSH1 0x40 MLOAD RETURNDATASIZE PUSH1 0x1F NOT PUSH1 0x1F DUP3 ADD AND DUP3 ADD DUP1 PUSH1 0x40 MSTORE POP DUP2 ADD SWAP1 PUSH2 0x5A1 SWAP2 SWAP1 PUSH2 0x1EA7 JUMP JUMPDEST SWAP1 POP PUSH1 0x0 DUP2 GT PUSH1 0x40 MLOAD DUP1 PUSH1 0x40 ADD PUSH1 0x40 MSTORE DUP1 PUSH1 0x2 DUP2 MSTORE PUSH1 0x20 ADD PUSH2 0x3139 PUSH1 0xF0 SHL DUP2 MSTORE POP SWAP1 PUSH2 0x5E0 JUMPI PUSH1 0x40 MLOAD PUSH3 0x461BCD PUSH1 0xE5 SHL DUP2 MSTORE PUSH1 0x4 ADD PUSH2 0x198 SWAP2 SWAP1 PUSH2 0x1F18 JUMP JUMPDEST POP DUP7 DUP1 PUSH2 0x67D JUMPI POP PUSH1 0x40 MLOAD PUSH4 0x3985C109 PUSH1 0xE2 SHL DUP2 MSTORE PUSH20 0x0 SWAP1 PUSH4 0xE6170424 SWAP1 PUSH2 0x62D SWAP1 DUP12 SWAP1 CALLER SWAP1 DUP7 SWAP1 DUP13 SWAP1 DUP13 SWAP1 DUP13 SWAP1 DUP13 SWAP1 DUP13 SWAP1 PUSH1 0x4 ADD PUSH2 0x1ED3 JUMP JUMPDEST PUSH1 0x20 PUSH1 0x40 MLOAD DUP1 DUP4 SUB DUP2 DUP7 DUP1 EXTCODESIZE ISZERO DUP1 ISZERO PUSH2 0x645 JUMPI PUSH1 0x0 DUP1 REVERT JUMPDEST POP GAS DELEGATECALL ISZERO DUP1 ISZERO PUSH2 0x659 JUMPI RETURNDATASIZE PUSH1 0x0 DUP1 RETURNDATACOPY RETURNDATASIZE PUSH1 0x0 REVERT JUMPDEST POP POP POP POP PUSH1 0x40 MLOAD RETURNDATASIZE PUSH1 0x1F NOT PUSH1 0x1F DUP3 ADD AND DUP3 ADD DUP1 PUSH1 0x40 MSTORE POP DUP2 ADD SWAP1 PUSH2 0x67D SWAP2 SWAP1 PUSH2 0x1D00 JUMP JUMPDEST PUSH1 0x40 MLOAD DUP1 PUSH1 0x40 ADD PUSH1 0x40 MSTORE DUP1 PUSH1 0x2 DUP2 MSTORE PUSH1 0x20 ADD PUSH2 0x323 PUSH1 0xF4 SHL DUP2 MSTORE POP SWAP1 PUSH2 0x6B6 JUMPI PUSH1 0x40 MLOAD PUSH3 0x461BCD PUSH1 0xE5 SHL DUP2 MSTORE PUSH1 0x4 ADD PUSH2 0x198 SWAP2 SWAP1 PUSH2 0x1F18 JUMP JUMPDEST POP POP POP POP POP POP POP POP POP POP JUMP JUMPDEST PUSH2 0x6CA PUSH2 0x1AEE JUMP JUMPDEST PUSH2 0x6D3 DUP13 PUSH2 0x110D JUMP JUMPDEST ISZERO ISZERO PUSH2 0x140 DUP6 ADD MSTORE ISZERO ISZERO PUSH2 0x120 DUP5 ADD MSTORE ISZERO ISZERO PUSH2 0x100 DUP4 ADD MSTORE ISZERO ISZERO PUSH1 0xE0 DUP3 ADD DUP2 SWAP1 MSTORE PUSH1 0x40 DUP1 MLOAD DUP1 DUP3 ADD SWAP1 SWAP2 MSTORE PUSH1 0x1 DUP2 MSTORE PUSH1 0x19 PUSH1 0xF9 SHL PUSH1 0x20 DUP3 ADD MSTORE SWAP1 PUSH2 0x72A JUMPI PUSH1 0x40 MLOAD PUSH3 0x461BCD PUSH1 0xE5 SHL DUP2 MSTORE PUSH1 0x4 ADD PUSH2 0x198 SWAP2 SWAP1 PUSH2 0x1F18 JUMP JUMPDEST POP DUP1 PUSH2 0x100 ADD MLOAD ISZERO PUSH1 0x40 MLOAD DUP1 PUSH1 0x40 ADD PUSH1 0x40 MSTORE DUP1 PUSH1 0x1 DUP2 MSTORE PUSH1 0x20 ADD PUSH1 0x33 PUSH1 0xF8 SHL DUP2 MSTORE POP SWAP1 PUSH2 0x76A JUMPI PUSH1 0x40 MLOAD PUSH3 0x461BCD PUSH1 0xE5 SHL DUP2 MSTORE PUSH1 0x4 ADD PUSH2 0x198 SWAP2 SWAP1 PUSH2 0x1F18 JUMP JUMPDEST POP PUSH1 0x40 DUP1 MLOAD DUP1 DUP3 ADD SWAP1 SWAP2 MSTORE PUSH1 0x1 DUP2 MSTORE PUSH1 0x31 PUSH1 0xF8 SHL PUSH1 0x20 DUP3 ADD MSTORE DUP11 PUSH2 0x7A1 JUMPI PUSH1 0x40 MLOAD PUSH3 0x461BCD PUSH1 0xE5 SHL DUP2 MSTORE PUSH1 0x4 ADD PUSH2 0x198 SWAP2 SWAP1 PUSH2 0x1F18 JUMP JUMPDEST POP DUP1 PUSH2 0x120 ADD MLOAD PUSH1 0x40 MLOAD DUP1 PUSH1 0x40 ADD PUSH1 0x40 MSTORE DUP1 PUSH1 0x1 DUP2 MSTORE PUSH1 0x20 ADD PUSH1 0x37 PUSH1 0xF8 SHL DUP2 MSTORE POP SWAP1 PUSH2 0x7E0 JUMPI PUSH1 0x40 MLOAD PUSH3 0x461BCD PUSH1 0xE5 SHL DUP2 MSTORE PUSH1 0x4 ADD PUSH2 0x198 SWAP2 SWAP1 PUSH2 0x1F18 JUMP JUMPDEST POP DUP8 PUSH1 0x2 EQ DUP1 PUSH2 0x7F0 JUMPI POP DUP8 PUSH1 0x1 EQ JUMPDEST PUSH1 0x40 MLOAD DUP1 PUSH1 0x40 ADD PUSH1 0x40 MSTORE DUP1 PUSH1 0x1 DUP2 MSTORE PUSH1 0x20 ADD PUSH1 0x7 PUSH1 0xFB SHL DUP2 MSTORE POP SWAP1 PUSH2 0x828 JUMPI PUSH1 0x40 MLOAD PUSH3 0x461BCD PUSH1 0xE5 SHL DUP2 MSTORE PUSH1 0x4 ADD PUSH2 0x198 SWAP2 SWAP1 PUSH2 0x1F18 JUMP JUMPDEST POP PUSH1 0x40 DUP1 MLOAD PUSH1 0x20 DUP2 ADD SWAP1 SWAP2 MSTORE DUP6 SLOAD DUP2 MSTORE PUSH2 0x848 SWAP1 DUP13 SWAP1 DUP9 SWAP1 DUP8 DUP8 DUP8 PUSH2 0x12E0 JUMP JUMPDEST PUSH1 0xC0 DUP7 ADD MSTORE PUSH1 0x20 DUP1 DUP7 ADD SWAP2 SWAP1 SWAP2 MSTORE SWAP1 DUP5 MSTORE PUSH1 0x80 DUP5 ADD SWAP2 SWAP1 SWAP2 MSTORE PUSH1 0x60 DUP4 ADD DUP3 SWAP1 MSTORE PUSH1 0x40 DUP1 MLOAD DUP1 DUP3 ADD SWAP1 SWAP2 MSTORE PUSH1 0x1 DUP2 MSTORE PUSH1 0x39 PUSH1 0xF8 SHL SWAP2 DUP2 ADD SWAP2 SWAP1 SWAP2 MSTORE SWAP1 PUSH2 0x8A0 JUMPI PUSH1 0x40 MLOAD PUSH3 0x461BCD PUSH1 0xE5 SHL DUP2 MSTORE PUSH1 0x4 ADD PUSH2 0x198 SWAP2 SWAP1 PUSH2 0x1F18 JUMP JUMPDEST POP PUSH8 0xDE0B6B3A7640000 DUP2 PUSH1 0xC0 ADD MLOAD GT PUSH1 0x40 MLOAD DUP1 PUSH1 0x40 ADD PUSH1 0x40 MSTORE DUP1 PUSH1 0x2 DUP2 MSTORE PUSH1 0x20 ADD PUSH2 0x313 PUSH1 0xF4 SHL DUP2 MSTORE POP SWAP1 PUSH2 0x8E9 JUMPI PUSH1 0x40 MLOAD PUSH3 0x461BCD PUSH1 0xE5 SHL DUP2 MSTORE PUSH1 0x4 ADD PUSH2 0x198 SWAP2 SWAP1 PUSH2 0x1F18 JUMP JUMPDEST POP DUP1 MLOAD PUSH1 0x80 DUP3 ADD MLOAD PUSH2 0x906 SWAP2 SWAP1 PUSH2 0x900 SWAP1 DUP13 PUSH2 0x1145 JUMP JUMPDEST SWAP1 PUSH2 0x17A7 JUMP JUMPDEST PUSH1 0x40 DUP1 DUP4 ADD DUP3 SWAP1 MSTORE PUSH1 0x60 DUP4 ADD MLOAD DUP2 MLOAD DUP1 DUP4 ADD SWAP1 SWAP3 MSTORE PUSH1 0x2 DUP3 MSTORE PUSH2 0x3131 PUSH1 0xF0 SHL PUSH1 0x20 DUP4 ADD MSTORE SWAP1 SWAP2 GT ISZERO PUSH2 0x94B JUMPI PUSH1 0x40 MLOAD PUSH3 0x461BCD PUSH1 0xE5 SHL DUP2 MSTORE PUSH1 0x4 ADD PUSH2 0x198 SWAP2 SWAP1 PUSH2 0x1F18 JUMP JUMPDEST POP PUSH1 0x1 DUP9 EQ ISZERO PUSH2 0xB7B JUMPI DUP1 PUSH2 0x140 ADD MLOAD PUSH1 0x40 MLOAD DUP1 PUSH1 0x40 ADD PUSH1 0x40 MSTORE DUP1 PUSH1 0x2 DUP2 MSTORE PUSH1 0x20 ADD PUSH2 0x1899 PUSH1 0xF1 SHL DUP2 MSTORE POP SWAP1 PUSH2 0x994 JUMPI PUSH1 0x40 MLOAD PUSH3 0x461BCD PUSH1 0xE5 SHL DUP2 MSTORE PUSH1 0x4 ADD PUSH2 0x198 SWAP2 SWAP1 PUSH2 0x1F18 JUMP JUMPDEST POP PUSH1 0x7 DUP13 ADD SLOAD PUSH1 0x40 DUP1 MLOAD PUSH1 0x20 DUP2 ADD SWAP1 SWAP2 MSTORE DUP7 SLOAD DUP2 MSTORE PUSH2 0x9BC SWAP2 PUSH1 0x1 PUSH1 0xA0 SHL SWAP1 DIV PUSH1 0xFF AND PUSH2 0x1835 JUMP JUMPDEST ISZERO DUP1 PUSH2 0x9CE JUMPI POP PUSH2 0x9CC DUP13 PUSH2 0x188D JUMP JUMPDEST ISZERO JUMPDEST DUP1 PUSH2 0xA58 JUMPI POP PUSH1 0x4 DUP1 DUP14 ADD SLOAD PUSH1 0x40 MLOAD PUSH4 0x70A08231 PUSH1 0xE0 SHL DUP2 MSTORE PUSH1 0x1 PUSH1 0x1 PUSH1 0xA0 SHL SUB SWAP1 SWAP2 AND SWAP2 PUSH4 0x70A08231 SWAP2 PUSH2 0xA05 SWAP2 DUP16 SWAP2 ADD PUSH2 0x1EBF JUMP JUMPDEST PUSH1 0x20 PUSH1 0x40 MLOAD DUP1 DUP4 SUB DUP2 DUP7 DUP1 EXTCODESIZE ISZERO DUP1 ISZERO PUSH2 0xA1D JUMPI PUSH1 0x0 DUP1 REVERT JUMPDEST POP GAS STATICCALL ISZERO DUP1 ISZERO PUSH2 0xA31 JUMPI RETURNDATASIZE PUSH1 0x0 DUP1 RETURNDATACOPY RETURNDATASIZE PUSH1 0x0 REVERT JUMPDEST POP POP POP POP PUSH1 0x40 MLOAD RETURNDATASIZE PUSH1 0x1F NOT PUSH1 0x1F DUP3 ADD AND DUP3 ADD DUP1 PUSH1 0x40 MSTORE POP DUP2 ADD SWAP1 PUSH2 0xA55 SWAP2 SWAP1 PUSH2 0x1EA7 JUMP JUMPDEST DUP11 GT JUMPDEST PUSH1 0x40 MLOAD DUP1 PUSH1 0x40 ADD PUSH1 0x40 MSTORE DUP1 PUSH1 0x2 DUP2 MSTORE PUSH1 0x20 ADD PUSH2 0x3133 PUSH1 0xF0 SHL DUP2 MSTORE POP SWAP1 PUSH2 0xA91 JUMPI PUSH1 0x40 MLOAD PUSH3 0x461BCD PUSH1 0xE5 SHL DUP2 MSTORE PUSH1 0x4 ADD PUSH2 0x198 SWAP2 SWAP1 PUSH2 0x1F18 JUMP JUMPDEST POP DUP13 PUSH1 0x1 PUSH1 0x1 PUSH1 0xA0 SHL SUB AND PUSH4 0x70A08231 DUP14 PUSH1 0x4 ADD PUSH1 0x0 SWAP1 SLOAD SWAP1 PUSH2 0x100 EXP SWAP1 DIV PUSH1 0x1 PUSH1 0x1 PUSH1 0xA0 SHL SUB AND PUSH1 0x40 MLOAD DUP3 PUSH4 0xFFFFFFFF AND PUSH1 0xE0 SHL DUP2 MSTORE PUSH1 0x4 ADD PUSH2 0xAD5 SWAP2 SWAP1 PUSH2 0x1EBF JUMP JUMPDEST PUSH1 0x20 PUSH1 0x40 MLOAD DUP1 DUP4 SUB DUP2 DUP7 DUP1 EXTCODESIZE ISZERO DUP1 ISZERO PUSH2 0xAED JUMPI PUSH1 0x0 DUP1 REVERT JUMPDEST POP GAS STATICCALL ISZERO DUP1 ISZERO PUSH2 0xB01 JUMPI RETURNDATASIZE PUSH1 0x0 DUP1 RETURNDATACOPY RETURNDATASIZE PUSH1 0x0 REVERT JUMPDEST POP POP POP POP PUSH1 0x40 MLOAD RETURNDATASIZE PUSH1 0x1F NOT PUSH1 0x1F DUP3 ADD AND DUP3 ADD DUP1 PUSH1 0x40 MSTORE POP DUP2 ADD SWAP1 PUSH2 0xB25 SWAP2 SWAP1 PUSH2 0x1EA7 JUMP JUMPDEST PUSH1 0xA0 DUP3 ADD DUP2 SWAP1 MSTORE PUSH1 0x0 SWAP1 PUSH2 0xB39 SWAP1 DUP10 PUSH2 0x126E JUMP JUMPDEST SWAP1 POP DUP1 DUP12 GT ISZERO PUSH1 0x40 MLOAD DUP1 PUSH1 0x40 ADD PUSH1 0x40 MSTORE DUP1 PUSH1 0x2 DUP2 MSTORE PUSH1 0x20 ADD PUSH2 0xC4D PUSH1 0xF2 SHL DUP2 MSTORE POP SWAP1 PUSH2 0xB78 JUMPI PUSH1 0x40 MLOAD PUSH3 0x461BCD PUSH1 0xE5 SHL DUP2 MSTORE PUSH1 0x4 ADD PUSH2 0x198 SWAP2 SWAP1 PUSH2 0x1F18 JUMP JUMPDEST POP POP JUMPDEST POP POP POP POP POP POP POP POP POP POP POP POP POP JUMP JUMPDEST PUSH1 0x0 DUP1 DUP1 PUSH2 0xB97 DUP9 PUSH2 0x110D JUMP JUMPDEST SWAP4 POP POP SWAP3 POP SWAP3 POP DUP3 PUSH1 0x40 MLOAD DUP1 PUSH1 0x40 ADD PUSH1 0x40 MSTORE DUP1 PUSH1 0x1 DUP2 MSTORE PUSH1 0x20 ADD PUSH1 0x19 PUSH1 0xF9 SHL DUP2 MSTORE POP SWAP1 PUSH2 0xBD7 JUMPI PUSH1 0x40 MLOAD PUSH3 0x461BCD PUSH1 0xE5 SHL DUP2 MSTORE PUSH1 0x4 ADD PUSH2 0x198 SWAP2 SWAP1 PUSH2 0x1F18 JUMP JUMPDEST POP PUSH1 0x40 DUP1 MLOAD DUP1 DUP3 ADD SWAP1 SWAP2 MSTORE PUSH1 0x1 DUP2 MSTORE PUSH1 0x33 PUSH1 0xF8 SHL PUSH1 0x20 DUP3 ADD MSTORE DUP3 ISZERO PUSH2 0xC0F JUMPI PUSH1 0x40 MLOAD PUSH3 0x461BCD PUSH1 0xE5 SHL DUP2 MSTORE PUSH1 0x4 ADD PUSH2 0x198 SWAP2 SWAP1 PUSH2 0x1F18 JUMP JUMPDEST POP PUSH1 0x1 DUP5 PUSH1 0x2 DUP2 GT ISZERO PUSH2 0xC1E JUMPI INVALID JUMPDEST EQ ISZERO PUSH2 0xC61 JUMPI PUSH1 0x40 DUP1 MLOAD DUP1 DUP3 ADD SWAP1 SWAP2 MSTORE PUSH1 0x2 DUP2 MSTORE PUSH2 0x3137 PUSH1 0xF0 SHL PUSH1 0x20 DUP3 ADD MSTORE DUP7 PUSH2 0xC5B JUMPI PUSH1 0x40 MLOAD PUSH3 0x461BCD PUSH1 0xE5 SHL DUP2 MSTORE PUSH1 0x4 ADD PUSH2 0x198 SWAP2 SWAP1 PUSH2 0x1F18 JUMP JUMPDEST POP PUSH2 0xE19 JUMP JUMPDEST PUSH1 0x2 DUP5 PUSH1 0x2 DUP2 GT ISZERO PUSH2 0xC6F JUMPI INVALID JUMPDEST EQ ISZERO PUSH2 0xDEA JUMPI PUSH1 0x40 DUP1 MLOAD DUP1 DUP3 ADD SWAP1 SWAP2 MSTORE PUSH1 0x2 DUP2 MSTORE PUSH2 0x627 PUSH1 0xF3 SHL PUSH1 0x20 DUP3 ADD MSTORE DUP6 PUSH2 0xCAC JUMPI PUSH1 0x40 MLOAD PUSH3 0x461BCD PUSH1 0xE5 SHL DUP2 MSTORE PUSH1 0x4 ADD PUSH2 0x198 SWAP2 SWAP1 PUSH2 0x1F18 JUMP JUMPDEST POP PUSH1 0x40 DUP1 MLOAD DUP1 DUP3 ADD SWAP1 SWAP2 MSTORE PUSH1 0x2 DUP2 MSTORE PUSH2 0x1899 PUSH1 0xF1 SHL PUSH1 0x20 DUP3 ADD MSTORE DUP2 PUSH2 0xCE4 JUMPI PUSH1 0x40 MLOAD PUSH3 0x461BCD PUSH1 0xE5 SHL DUP2 MSTORE PUSH1 0x4 ADD PUSH2 0x198 SWAP2 SWAP1 PUSH2 0x1F18 JUMP JUMPDEST POP PUSH1 0x7 DUP9 ADD SLOAD PUSH1 0x40 DUP1 MLOAD PUSH1 0x20 DUP2 ADD SWAP1 SWAP2 MSTORE DUP9 SLOAD DUP2 MSTORE PUSH2 0xD0C SWAP2 PUSH1 0x1 PUSH1 0xA0 SHL SWAP1 DIV PUSH1 0xFF AND PUSH2 0x1835 JUMP JUMPDEST ISZERO DUP1 PUSH2 0xD1E JUMPI POP PUSH2 0xD1C DUP9 PUSH2 0x188D JUMP JUMPDEST ISZERO JUMPDEST DUP1 PUSH2 0xDB1 JUMPI POP PUSH1 0x4 DUP1 DUP10 ADD SLOAD PUSH1 0x40 MLOAD PUSH4 0x70A08231 PUSH1 0xE0 SHL DUP2 MSTORE PUSH1 0x1 PUSH1 0x1 PUSH1 0xA0 SHL SUB SWAP1 SWAP2 AND SWAP2 PUSH4 0x70A08231 SWAP2 PUSH2 0xD55 SWAP2 CALLER SWAP2 ADD PUSH2 0x1EBF JUMP JUMPDEST PUSH1 0x20 PUSH1 0x40 MLOAD DUP1 DUP4 SUB DUP2 DUP7 DUP1 EXTCODESIZE ISZERO DUP1 ISZERO PUSH2 0xD6D JUMPI PUSH1 0x0 DUP1 REVERT JUMPDEST POP GAS STATICCALL ISZERO DUP1 ISZERO PUSH2 0xD81 JUMPI RETURNDATASIZE PUSH1 0x0 DUP1 RETURNDATACOPY RETURNDATASIZE PUSH1 0x0 REVERT JUMPDEST POP POP POP POP PUSH1 0x40 MLOAD RETURNDATASIZE PUSH1 0x1F NOT PUSH1 0x1F DUP3 ADD AND DUP3 ADD DUP1 PUSH1 0x40 MSTORE POP DUP2 ADD SWAP1 PUSH2 0xDA5 SWAP2 SWAP1 PUSH2 0x1EA7 JUMP JUMPDEST PUSH2 0xDAF DUP8 DUP8 PUSH2 0x1145 JUMP JUMPDEST GT JUMPDEST PUSH1 0x40 MLOAD DUP1 PUSH1 0x40 ADD PUSH1 0x40 MSTORE DUP1 PUSH1 0x2 DUP2 MSTORE PUSH1 0x20 ADD PUSH2 0x3133 PUSH1 0xF0 SHL DUP2 MSTORE POP SWAP1 PUSH2 0xC5B JUMPI PUSH1 0x40 MLOAD PUSH3 0x461BCD PUSH1 0xE5 SHL DUP2 MSTORE PUSH1 0x4 ADD PUSH2 0x198 SWAP2 SWAP1 PUSH2 0x1F18 JUMP JUMPDEST PUSH1 0x40 DUP1 MLOAD DUP1 DUP3 ADD DUP3 MSTORE PUSH1 0x1 DUP2 MSTORE PUSH1 0x7 PUSH1 0xFB SHL PUSH1 0x20 DUP3 ADD MSTORE SWAP1 MLOAD PUSH3 0x461BCD PUSH1 0xE5 SHL DUP2 MSTORE PUSH2 0x198 SWAP2 SWAP1 PUSH1 0x4 ADD PUSH2 0x1F18 JUMP JUMPDEST POP POP POP POP POP POP POP POP JUMP JUMPDEST PUSH2 0xFA0 DUP2 JUMP JUMPDEST PUSH1 0x40 DUP1 MLOAD DUP1 DUP3 ADD SWAP1 SWAP2 MSTORE PUSH1 0x1 DUP2 MSTORE PUSH1 0x31 PUSH1 0xF8 SHL PUSH1 0x20 DUP3 ADD MSTORE DUP8 PUSH2 0xE5F JUMPI PUSH1 0x40 MLOAD PUSH3 0x461BCD PUSH1 0xE5 SHL DUP2 MSTORE PUSH1 0x4 ADD PUSH2 0x198 SWAP2 SWAP1 PUSH2 0x1F18 JUMP JUMPDEST POP PUSH1 0x40 DUP1 MLOAD DUP1 DUP3 ADD SWAP1 SWAP2 MSTORE PUSH1 0x1 DUP2 MSTORE PUSH1 0x35 PUSH1 0xF8 SHL PUSH1 0x20 DUP3 ADD MSTORE DUP7 DUP9 GT ISZERO PUSH2 0xE99 JUMPI PUSH1 0x40 MLOAD PUSH3 0x461BCD PUSH1 0xE5 SHL DUP2 MSTORE PUSH1 0x4 ADD PUSH2 0x198 SWAP2 SWAP1 PUSH2 0x1F18 JUMP JUMPDEST POP PUSH1 0x1 PUSH1 0x1 PUSH1 0xA0 SHL SUB DUP9 AND PUSH1 0x0 SWAP1 DUP2 MSTORE PUSH1 0x20 DUP7 SWAP1 MSTORE PUSH1 0x40 DUP2 KECCAK256 PUSH2 0xEBB SWAP1 PUSH2 0x110D JUMP JUMPDEST POP POP POP SWAP1 POP DUP1 PUSH1 0x40 MLOAD DUP1 PUSH1 0x40 ADD PUSH1 0x40 MSTORE DUP1 PUSH1 0x1 DUP2 MSTORE PUSH1 0x20 ADD PUSH1 0x19 PUSH1 0xF9 SHL DUP2 MSTORE POP SWAP1 PUSH2 0xEF9 JUMPI PUSH1 0x40 MLOAD PUSH3 0x461BCD PUSH1 0xE5 SHL DUP2 MSTORE PUSH1 0x4 ADD PUSH2 0x198 SWAP2 SWAP1 PUSH2 0x1F18 JUMP JUMPDEST POP PUSH1 0x40 MLOAD PUSH4 0x3985C109 PUSH1 0xE2 SHL DUP2 MSTORE PUSH20 0x0 SWAP1 PUSH4 0xE6170424 SWAP1 PUSH2 0xF3F SWAP1 DUP13 SWAP1 CALLER SWAP1 DUP14 SWAP1 DUP13 SWAP1 DUP13 SWAP1 DUP13 SWAP1 DUP13 SWAP1 DUP13 SWAP1 PUSH1 0x4 ADD PUSH2 0x1ED3 JUMP JUMPDEST PUSH1 0x20 PUSH1 0x40 MLOAD DUP1 DUP4 SUB DUP2 DUP7 DUP1 EXTCODESIZE ISZERO DUP1 ISZERO PUSH2 0xF57 JUMPI PUSH1 0x0 DUP1 REVERT JUMPDEST POP GAS DELEGATECALL ISZERO DUP1 ISZERO PUSH2 0xF6B JUMPI RETURNDATASIZE PUSH1 0x0 DUP1 RETURNDATACOPY RETURNDATASIZE PUSH1 0x0 REVERT JUMPDEST POP POP POP POP PUSH1 0x40 MLOAD RETURNDATASIZE PUSH1 0x1F NOT PUSH1 0x1F DUP3 ADD AND DUP3 ADD DUP1 PUSH1 0x40 MSTORE POP DUP2 ADD SWAP1 PUSH2 0xF8F SWAP2 SWAP1 PUSH2 0x1D00 JUMP JUMPDEST PUSH1 0x40 MLOAD DUP1 PUSH1 0x40 ADD PUSH1 0x40 MSTORE DUP1 PUSH1 0x1 DUP2 MSTORE PUSH1 0x20 ADD PUSH1 0x1B PUSH1 0xF9 SHL DUP2 MSTORE POP SWAP1 PUSH2 0x6B6 JUMPI PUSH1 0x40 MLOAD PUSH3 0x461BCD PUSH1 0xE5 SHL DUP2 MSTORE PUSH1 0x4 ADD PUSH2 0x198 SWAP2 SWAP1 PUSH2 0x1F18 JUMP JUMPDEST PUSH1 0x0 PUSH2 0xFD2 DUP8 PUSH2 0x1895 JUMP JUMPDEST SWAP1 POP DUP1 PUSH1 0x40 MLOAD DUP1 PUSH1 0x40 ADD PUSH1 0x40 MSTORE DUP1 PUSH1 0x1 DUP2 MSTORE PUSH1 0x20 ADD PUSH1 0x19 PUSH1 0xF9 SHL DUP2 MSTORE POP SWAP1 PUSH2 0x100D JUMPI PUSH1 0x40 MLOAD PUSH3 0x461BCD PUSH1 0xE5 SHL DUP2 MSTORE PUSH1 0x4 ADD PUSH2 0x198 SWAP2 SWAP1 PUSH2 0x1F18 JUMP JUMPDEST POP PUSH1 0x40 DUP1 MLOAD DUP1 DUP3 ADD SWAP1 SWAP2 MSTORE PUSH1 0x1 DUP2 MSTORE PUSH1 0x31 PUSH1 0xF8 SHL PUSH1 0x20 DUP3 ADD MSTORE DUP7 PUSH2 0x1044 JUMPI PUSH1 0x40 MLOAD PUSH3 0x461BCD PUSH1 0xE5 SHL DUP2 MSTORE PUSH1 0x4 ADD PUSH2 0x198 SWAP2 SWAP1 PUSH2 0x1F18 JUMP JUMPDEST POP PUSH1 0x0 DUP4 GT DUP1 ISZERO PUSH2 0x1060 JUMPI POP PUSH1 0x1 DUP6 PUSH1 0x2 DUP2 GT ISZERO PUSH2 0x105E JUMPI INVALID JUMPDEST EQ JUMPDEST DUP1 PUSH2 0x1081 JUMPI POP PUSH1 0x0 DUP3 GT DUP1 ISZERO PUSH2 0x1081 JUMPI POP PUSH1 0x2 DUP6 PUSH1 0x2 DUP2 GT ISZERO PUSH2 0x107F JUMPI INVALID JUMPDEST EQ JUMPDEST PUSH1 0x40 MLOAD DUP1 PUSH1 0x40 ADD PUSH1 0x40 MSTORE DUP1 PUSH1 0x2 DUP2 MSTORE PUSH1 0x20 ADD PUSH2 0x3135 PUSH1 0xF0 SHL DUP2 MSTORE POP SWAP1 PUSH2 0x10BA JUMPI PUSH1 0x40 MLOAD PUSH3 0x461BCD PUSH1 0xE5 SHL DUP2 MSTORE PUSH1 0x4 ADD PUSH2 0x198 SWAP2 SWAP1 PUSH2 0x1F18 JUMP JUMPDEST POP PUSH1 0x0 NOT DUP7 EQ ISZERO DUP1 PUSH2 0x10D4 JUMPI POP CALLER PUSH1 0x1 PUSH1 0x1 PUSH1 0xA0 SHL SUB DUP6 AND EQ JUMPDEST PUSH1 0x40 MLOAD DUP1 PUSH1 0x40 ADD PUSH1 0x40 MSTORE DUP1 PUSH1 0x2 DUP2 MSTORE PUSH1 0x20 ADD PUSH2 0x189B PUSH1 0xF1 SHL DUP2 MSTORE POP SWAP1 PUSH2 0xE19 JUMPI PUSH1 0x40 MLOAD PUSH3 0x461BCD PUSH1 0xE5 SHL DUP2 MSTORE PUSH1 0x4 ADD PUSH2 0x198 SWAP2 SWAP1 PUSH2 0x1F18 JUMP JUMPDEST SLOAD PUSH1 0x1 PUSH1 0x38 SHL DUP2 AND ISZERO ISZERO SWAP2 PUSH8 0x200000000000000 DUP3 AND ISZERO ISZERO SWAP2 PUSH8 0x400000000000000 DUP2 AND ISZERO ISZERO SWAP2 PUSH8 0x800000000000000 SWAP1 SWAP2 AND ISZERO ISZERO SWAP1 JUMP JUMPDEST PUSH1 0x0 DUP3 DUP3 ADD DUP4 DUP2 LT ISZERO PUSH2 0x116A JUMPI PUSH1 0x40 MLOAD PUSH3 0x461BCD PUSH1 0xE5 SHL DUP2 MSTORE PUSH1 0x4 ADD PUSH2 0x198 SWAP1 PUSH2 0x1F6B JUMP JUMPDEST SWAP1 POP JUMPDEST SWAP3 SWAP2 POP POP JUMP JUMPDEST PUSH1 0x0 PUSH4 0x3B9ACA00 DUP3 DUP2 MUL SWAP1 DUP4 SWAP1 DUP3 DIV EQ PUSH1 0x40 MLOAD DUP1 PUSH1 0x40 ADD PUSH1 0x40 MSTORE DUP1 PUSH1 0x2 DUP2 MSTORE PUSH1 0x20 ADD PUSH2 0x687 PUSH1 0xF3 SHL DUP2 MSTORE POP SWAP1 PUSH2 0x11BC JUMPI PUSH1 0x40 MLOAD PUSH3 0x461BCD PUSH1 0xE5 SHL DUP2 MSTORE PUSH1 0x4 ADD PUSH2 0x198 SWAP2 SWAP1 PUSH2 0x1F18 JUMP JUMPDEST POP SWAP3 SWAP2 POP POP JUMP JUMPDEST PUSH1 0x40 DUP1 MLOAD DUP1 DUP3 ADD SWAP1 SWAP2 MSTORE PUSH1 0x2 DUP2 MSTORE PUSH2 0x353 PUSH1 0xF4 SHL PUSH1 0x20 DUP3 ADD MSTORE PUSH1 0x0 SWAP1 DUP3 PUSH2 0x11FD JUMPI PUSH1 0x40 MLOAD PUSH3 0x461BCD PUSH1 0xE5 SHL DUP2 MSTORE PUSH1 0x4 ADD PUSH2 0x198 SWAP2 SWAP1 PUSH2 0x1F18 JUMP JUMPDEST POP PUSH1 0x40 DUP1 MLOAD DUP1 DUP3 ADD SWAP1 SWAP2 MSTORE PUSH1 0x2 DUP1 DUP3 MSTORE PUSH2 0x687 PUSH1 0xF3 SHL PUSH1 0x20 DUP4 ADD MSTORE DUP4 DIV SWAP1 PUSH12 0x33B2E3C9FD0803CE8000000 DUP3 NOT DIV DUP6 GT ISZERO PUSH2 0x124B JUMPI PUSH1 0x40 MLOAD PUSH3 0x461BCD PUSH1 0xE5 SHL DUP2 MSTORE PUSH1 0x4 ADD PUSH2 0x198 SWAP2 SWAP1 PUSH2 0x1F18 JUMP JUMPDEST POP DUP3 DUP2 PUSH12 0x33B2E3C9FD0803CE8000000 DUP7 MUL ADD DUP2 PUSH2 0x1265 JUMPI INVALID JUMPDEST DIV SWAP5 SWAP4 POP POP POP POP JUMP JUMPDEST PUSH1 0x0 DUP3 ISZERO DUP1 PUSH2 0x127B JUMPI POP DUP2 ISZERO JUMPDEST ISZERO PUSH2 0x1288 JUMPI POP PUSH1 0x0 PUSH2 0x116D JUMP JUMPDEST DUP2 PUSH2 0x1388 NOT DUP2 PUSH2 0x1294 JUMPI INVALID JUMPDEST DIV DUP4 GT ISZERO PUSH1 0x40 MLOAD DUP1 PUSH1 0x40 ADD PUSH1 0x40 MSTORE DUP1 PUSH1 0x2 DUP2 MSTORE PUSH1 0x20 ADD PUSH2 0x687 PUSH1 0xF3 SHL DUP2 MSTORE POP SWAP1 PUSH2 0x12D1 JUMPI PUSH1 0x40 MLOAD PUSH3 0x461BCD PUSH1 0xE5 SHL DUP2 MSTORE PUSH1 0x4 ADD PUSH2 0x198 SWAP2 SWAP1 PUSH2 0x1F18 JUMP JUMPDEST POP POP PUSH2 0x2710 SWAP2 MUL PUSH2 0x1388 ADD DIV SWAP1 JUMP JUMPDEST PUSH1 0x0 DUP1 PUSH1 0x0 DUP1 PUSH1 0x0 PUSH2 0x12F0 PUSH2 0x1B50 JUMP JUMPDEST PUSH2 0x12F9 DUP11 PUSH2 0x18A1 JUMP JUMPDEST ISZERO PUSH2 0x1317 JUMPI PUSH1 0x0 DUP1 PUSH1 0x0 DUP1 PUSH1 0x0 NOT SWAP6 POP SWAP6 POP SWAP6 POP SWAP6 POP SWAP6 POP POP PUSH2 0x1799 JUMP JUMPDEST PUSH1 0x0 PUSH1 0xE0 DUP3 ADD MSTORE JUMPDEST DUP8 DUP2 PUSH1 0xE0 ADD MLOAD LT ISZERO PUSH2 0x16F8 JUMPI PUSH1 0xE0 DUP2 ADD MLOAD PUSH2 0x133B SWAP1 DUP12 SWAP1 PUSH2 0x18A6 JUMP JUMPDEST PUSH2 0x1344 JUMPI PUSH2 0x16E8 JUMP JUMPDEST PUSH1 0xE0 DUP2 ADD MLOAD PUSH1 0x0 SWAP1 DUP2 MSTORE PUSH1 0x20 DUP11 DUP2 MSTORE PUSH1 0x40 DUP1 DUP4 KECCAK256 SLOAD PUSH1 0x1 PUSH1 0x1 PUSH1 0xA0 SHL SUB AND PUSH2 0x1E0 DUP6 ADD DUP2 SWAP1 MSTORE DUP4 MSTORE SWAP1 DUP14 SWAP1 MSTORE SWAP1 KECCAK256 PUSH2 0x137B DUP2 PUSH2 0x18F7 JUMP JUMPDEST POP PUSH1 0x80 DUP7 ADD DUP2 SWAP1 MSTORE PUSH1 0xC0 DUP7 ADD SWAP3 SWAP1 SWAP3 MSTORE POP PUSH1 0xA0 DUP5 ADD SWAP2 SWAP1 SWAP2 MSTORE PUSH1 0xA EXP PUSH1 0x20 DUP4 ADD MSTORE PUSH2 0x1E0 DUP3 ADD MLOAD PUSH1 0x40 MLOAD PUSH4 0xB3596F07 PUSH1 0xE0 SHL DUP2 MSTORE PUSH1 0x1 PUSH1 0x1 PUSH1 0xA0 SHL SUB DUP11 AND SWAP2 PUSH4 0xB3596F07 SWAP2 PUSH2 0x13CD SWAP2 SWAP1 PUSH1 0x4 ADD PUSH2 0x1EBF JUMP JUMPDEST PUSH1 0x20 PUSH1 0x40 MLOAD DUP1 DUP4 SUB DUP2 DUP7 DUP1 EXTCODESIZE ISZERO DUP1 ISZERO PUSH2 0x13E5 JUMPI PUSH1 0x0 DUP1 REVERT JUMPDEST POP GAS STATICCALL ISZERO DUP1 ISZERO PUSH2 0x13F9 JUMPI RETURNDATASIZE PUSH1 0x0 DUP1 RETURNDATACOPY RETURNDATASIZE PUSH1 0x0 REVERT JUMPDEST POP POP POP POP PUSH1 0x40 MLOAD RETURNDATASIZE PUSH1 0x1F NOT PUSH1 0x1F DUP3 ADD AND DUP3 ADD DUP1 PUSH1 0x40 MSTORE POP DUP2 ADD SWAP1 PUSH2 0x141D SWAP2 SWAP1 PUSH2 0x1EA7 JUMP JUMPDEST DUP3 MSTORE PUSH1 0xC0 DUP3 ADD MLOAD ISZERO DUP1 ISZERO SWAP1 PUSH2 0x143D JUMPI POP PUSH1 0xE0 DUP3 ADD MLOAD PUSH2 0x143D SWAP1 DUP13 SWAP1 PUSH2 0x1835 JUMP JUMPDEST ISZERO PUSH2 0x1561 JUMPI DUP1 PUSH1 0x4 ADD PUSH1 0x0 SWAP1 SLOAD SWAP1 PUSH2 0x100 EXP SWAP1 DIV PUSH1 0x1 PUSH1 0x1 PUSH1 0xA0 SHL SUB AND PUSH1 0x1 PUSH1 0x1 PUSH1 0xA0 SHL SUB AND PUSH4 0x70A08231 DUP15 PUSH1 0x40 MLOAD DUP3 PUSH4 0xFFFFFFFF AND PUSH1 0xE0 SHL DUP2 MSTORE PUSH1 0x4 ADD PUSH2 0x1485 SWAP2 SWAP1 PUSH2 0x1EBF JUMP JUMPDEST PUSH1 0x20 PUSH1 0x40 MLOAD DUP1 DUP4 SUB DUP2 DUP7 DUP1 EXTCODESIZE ISZERO DUP1 ISZERO PUSH2 0x149D JUMPI PUSH1 0x0 DUP1 REVERT JUMPDEST POP GAS STATICCALL ISZERO DUP1 ISZERO PUSH2 0x14B1 JUMPI RETURNDATASIZE PUSH1 0x0 DUP1 RETURNDATACOPY RETURNDATASIZE PUSH1 0x0 REVERT JUMPDEST POP POP POP POP PUSH1 0x40 MLOAD RETURNDATASIZE PUSH1 0x1F NOT PUSH1 0x1F DUP3 ADD AND DUP3 ADD DUP1 PUSH1 0x40 MSTORE POP DUP2 ADD SWAP1 PUSH2 0x14D5 SWAP2 SWAP1 PUSH2 0x1EA7 JUMP JUMPDEST PUSH1 0x40 DUP4 ADD DUP2 SWAP1 MSTORE PUSH1 0x20 DUP4 ADD MLOAD DUP4 MLOAD PUSH1 0x0 SWAP3 PUSH2 0x14FA SWAP3 SWAP2 PUSH2 0x14F4 SWAP2 PUSH2 0x1922 JUMP JUMPDEST SWAP1 PUSH2 0x195C JUMP JUMPDEST PUSH2 0x120 DUP5 ADD MLOAD SWAP1 SWAP2 POP PUSH2 0x150D SWAP1 DUP3 PUSH2 0x1145 JUMP JUMPDEST PUSH2 0x120 DUP5 ADD MSTORE PUSH1 0xA0 DUP4 ADD MLOAD PUSH2 0x1533 SWAP1 PUSH2 0x1527 SWAP1 DUP4 SWAP1 PUSH2 0x1922 JUMP JUMPDEST PUSH2 0x160 DUP6 ADD MLOAD SWAP1 PUSH2 0x1145 JUMP JUMPDEST PUSH2 0x160 DUP5 ADD MSTORE PUSH1 0xC0 DUP4 ADD MLOAD PUSH2 0x1559 SWAP1 PUSH2 0x154D SWAP1 DUP4 SWAP1 PUSH2 0x1922 JUMP JUMPDEST PUSH2 0x180 DUP6 ADD MLOAD SWAP1 PUSH2 0x1145 JUMP JUMPDEST PUSH2 0x180 DUP5 ADD MSTORE POP JUMPDEST PUSH1 0xE0 DUP3 ADD MLOAD PUSH2 0x1571 SWAP1 DUP13 SWAP1 PUSH2 0x199E JUMP JUMPDEST ISZERO PUSH2 0x16E6 JUMPI DUP1 PUSH1 0x5 ADD PUSH1 0x0 SWAP1 SLOAD SWAP1 PUSH2 0x100 EXP SWAP1 DIV PUSH1 0x1 PUSH1 0x1 PUSH1 0xA0 SHL SUB AND PUSH1 0x1 PUSH1 0x1 PUSH1 0xA0 SHL SUB AND PUSH4 0x70A08231 DUP15 PUSH1 0x40 MLOAD DUP3 PUSH4 0xFFFFFFFF AND PUSH1 0xE0 SHL DUP2 MSTORE PUSH1 0x4 ADD PUSH2 0x15B9 SWAP2 SWAP1 PUSH2 0x1EBF JUMP JUMPDEST PUSH1 0x20 PUSH1 0x40 MLOAD DUP1 DUP4 SUB DUP2 DUP7 DUP1 EXTCODESIZE ISZERO DUP1 ISZERO PUSH2 0x15D1 JUMPI PUSH1 0x0 DUP1 REVERT JUMPDEST POP GAS STATICCALL ISZERO DUP1 ISZERO PUSH2 0x15E5 JUMPI RETURNDATASIZE PUSH1 0x0 DUP1 RETURNDATACOPY RETURNDATASIZE PUSH1 0x0 REVERT JUMPDEST POP POP POP POP PUSH1 0x40 MLOAD RETURNDATASIZE PUSH1 0x1F NOT PUSH1 0x1F DUP3 ADD AND DUP3 ADD DUP1 PUSH1 0x40 MSTORE POP DUP2 ADD SWAP1 PUSH2 0x1609 SWAP2 SWAP1 PUSH2 0x1EA7 JUMP JUMPDEST DUP3 PUSH1 0x60 ADD DUP2 DUP2 MSTORE POP POP PUSH2 0x16B3 DUP2 PUSH1 0x6 ADD PUSH1 0x0 SWAP1 SLOAD SWAP1 PUSH2 0x100 EXP SWAP1 DIV PUSH1 0x1 PUSH1 0x1 PUSH1 0xA0 SHL SUB AND PUSH1 0x1 PUSH1 0x1 PUSH1 0xA0 SHL SUB AND PUSH4 0x70A08231 DUP16 PUSH1 0x40 MLOAD DUP3 PUSH4 0xFFFFFFFF AND PUSH1 0xE0 SHL DUP2 MSTORE PUSH1 0x4 ADD PUSH2 0x1658 SWAP2 SWAP1 PUSH2 0x1EBF JUMP JUMPDEST PUSH1 0x20 PUSH1 0x40 MLOAD DUP1 DUP4 SUB DUP2 DUP7 DUP1 EXTCODESIZE ISZERO DUP1 ISZERO PUSH2 0x1670 JUMPI PUSH1 0x0 DUP1 REVERT JUMPDEST POP GAS STATICCALL ISZERO DUP1 ISZERO PUSH2 0x1684 JUMPI RETURNDATASIZE PUSH1 0x0 DUP1 RETURNDATACOPY RETURNDATASIZE PUSH1 0x0 REVERT JUMPDEST POP POP POP POP PUSH1 0x40 MLOAD RETURNDATASIZE PUSH1 0x1F NOT PUSH1 0x1F DUP3 ADD AND DUP3 ADD DUP1 PUSH1 0x40 MSTORE POP DUP2 ADD SWAP1 PUSH2 0x16A8 SWAP2 SWAP1 PUSH2 0x1EA7 JUMP JUMPDEST PUSH1 0x60 DUP5 ADD MLOAD SWAP1 PUSH2 0x1145 JUMP JUMPDEST PUSH1 0x60 DUP4 ADD DUP2 SWAP1 MSTORE PUSH1 0x20 DUP4 ADD MLOAD DUP4 MLOAD PUSH2 0x16DF SWAP3 PUSH2 0x16D3 SWAP3 SWAP2 PUSH2 0x14F4 SWAP2 PUSH2 0x1922 JUMP JUMPDEST PUSH2 0x140 DUP5 ADD MLOAD SWAP1 PUSH2 0x1145 JUMP JUMPDEST PUSH2 0x140 DUP4 ADD MSTORE JUMPDEST POP JUMPDEST PUSH1 0xE0 DUP2 ADD DUP1 MLOAD PUSH1 0x1 ADD SWAP1 MSTORE PUSH2 0x131F JUMP JUMPDEST PUSH1 0x0 DUP2 PUSH2 0x120 ADD MLOAD GT PUSH2 0x170C JUMPI PUSH1 0x0 PUSH2 0x1721 JUMP JUMPDEST PUSH2 0x120 DUP2 ADD MLOAD PUSH2 0x160 DUP3 ADD MLOAD PUSH2 0x1721 SWAP2 PUSH2 0x195C JUMP JUMPDEST PUSH2 0x160 DUP3 ADD MSTORE PUSH2 0x120 DUP2 ADD MLOAD PUSH2 0x1738 JUMPI PUSH1 0x0 PUSH2 0x174D JUMP JUMPDEST PUSH2 0x120 DUP2 ADD MLOAD PUSH2 0x180 DUP3 ADD MLOAD PUSH2 0x174D SWAP2 PUSH2 0x195C JUMP JUMPDEST PUSH2 0x180 DUP3 ADD DUP2 SWAP1 MSTORE PUSH2 0x120 DUP3 ADD MLOAD PUSH2 0x140 DUP4 ADD MLOAD PUSH2 0x176A SWAP3 PUSH2 0x19EF JUMP JUMPDEST PUSH2 0x100 DUP3 ADD DUP2 SWAP1 MSTORE PUSH2 0x120 DUP3 ADD MLOAD PUSH2 0x140 DUP4 ADD MLOAD PUSH2 0x160 DUP5 ADD MLOAD PUSH2 0x180 SWAP1 SWAP5 ADD MLOAD SWAP2 SWAP9 POP SWAP7 POP SWAP2 SWAP5 POP SWAP1 SWAP3 POP SWAP1 POP JUMPDEST SWAP7 POP SWAP7 POP SWAP7 POP SWAP7 POP SWAP7 SWAP2 POP POP JUMP JUMPDEST PUSH1 0x40 DUP1 MLOAD DUP1 DUP3 ADD SWAP1 SWAP2 MSTORE PUSH1 0x2 DUP2 MSTORE PUSH2 0x353 PUSH1 0xF4 SHL PUSH1 0x20 DUP3 ADD MSTORE PUSH1 0x0 SWAP1 DUP3 PUSH2 0x17E1 JUMPI PUSH1 0x40 MLOAD PUSH3 0x461BCD PUSH1 0xE5 SHL DUP2 MSTORE PUSH1 0x4 ADD PUSH2 0x198 SWAP2 SWAP1 PUSH2 0x1F18 JUMP JUMPDEST POP PUSH1 0x40 DUP1 MLOAD DUP1 DUP3 ADD SWAP1 SWAP2 MSTORE PUSH1 0x2 DUP1 DUP3 MSTORE PUSH2 0x687 PUSH1 0xF3 SHL PUSH1 0x20 DUP4 ADD MSTORE DUP4 DIV SWAP1 PUSH2 0x2710 DUP3 NOT DIV DUP6 GT ISZERO PUSH2 0x1825 JUMPI PUSH1 0x40 MLOAD PUSH3 0x461BCD PUSH1 0xE5 SHL DUP2 MSTORE PUSH1 0x4 ADD PUSH2 0x198 SWAP2 SWAP1 PUSH2 0x1F18 JUMP JUMPDEST POP DUP3 DUP2 PUSH2 0x2710 DUP7 MUL ADD DUP2 PUSH2 0x1265 JUMPI INVALID JUMPDEST PUSH1 0x0 PUSH1 0x80 DUP3 LT PUSH1 0x40 MLOAD DUP1 PUSH1 0x40 ADD PUSH1 0x40 MSTORE DUP1 PUSH1 0x2 DUP2 MSTORE PUSH1 0x20 ADD PUSH2 0x3737 PUSH1 0xF0 SHL DUP2 MSTORE POP SWAP1 PUSH2 0x1874 JUMPI PUSH1 0x40 MLOAD PUSH3 0x461BCD PUSH1 0xE5 SHL DUP2 MSTORE PUSH1 0x4 ADD PUSH2 0x198 SWAP2 SWAP1 PUSH2 0x1F18 JUMP JUMPDEST POP POP DUP2 MLOAD PUSH1 0x1 PUSH1 0x2 DUP4 MUL DUP2 ADD SWAP2 SWAP1 SWAP2 SHR AND ISZERO ISZERO SWAP3 SWAP2 POP POP JUMP JUMPDEST SLOAD PUSH2 0xFFFF AND SWAP1 JUMP JUMPDEST SLOAD PUSH1 0x1 PUSH1 0x38 SHL AND ISZERO ISZERO SWAP1 JUMP JUMPDEST MLOAD ISZERO SWAP1 JUMP JUMPDEST PUSH1 0x0 PUSH1 0x80 DUP3 LT PUSH1 0x40 MLOAD DUP1 PUSH1 0x40 ADD PUSH1 0x40 MSTORE DUP1 PUSH1 0x2 DUP2 MSTORE PUSH1 0x20 ADD PUSH2 0x3737 PUSH1 0xF0 SHL DUP2 MSTORE POP SWAP1 PUSH2 0x18E5 JUMPI PUSH1 0x40 MLOAD PUSH3 0x461BCD PUSH1 0xE5 SHL DUP2 MSTORE PUSH1 0x4 ADD PUSH2 0x198 SWAP2 SWAP1 PUSH2 0x1F18 JUMP JUMPDEST POP POP SWAP1 MLOAD PUSH1 0x3 PUSH1 0x2 SWAP1 SWAP3 MUL SHR AND ISZERO ISZERO SWAP1 JUMP JUMPDEST SLOAD PUSH2 0xFFFF DUP1 DUP3 AND SWAP3 PUSH1 0x10 DUP4 SWAP1 SHR DUP3 AND SWAP3 PUSH1 0x20 DUP2 SWAP1 SHR DUP4 AND SWAP3 PUSH1 0x30 DUP3 SWAP1 SHR PUSH1 0xFF AND SWAP3 PUSH1 0x40 SWAP3 SWAP1 SWAP3 SHR AND SWAP1 JUMP JUMPDEST PUSH1 0x0 DUP3 PUSH2 0x1931 JUMPI POP PUSH1 0x0 PUSH2 0x116D JUMP JUMPDEST DUP3 DUP3 MUL DUP3 DUP5 DUP3 DUP2 PUSH2 0x193E JUMPI INVALID JUMPDEST DIV EQ PUSH2 0x116A JUMPI PUSH1 0x40 MLOAD PUSH3 0x461BCD PUSH1 0xE5 SHL DUP2 MSTORE PUSH1 0x4 ADD PUSH2 0x198 SWAP1 PUSH2 0x1FA2 JUMP JUMPDEST PUSH1 0x0 PUSH2 0x116A DUP4 DUP4 PUSH1 0x40 MLOAD DUP1 PUSH1 0x40 ADD PUSH1 0x40 MSTORE DUP1 PUSH1 0x1A DUP2 MSTORE PUSH1 0x20 ADD PUSH32 0x536166654D6174683A206469766973696F6E206279207A65726F000000000000 DUP2 MSTORE POP PUSH2 0x1A1D JUMP JUMPDEST PUSH1 0x0 PUSH1 0x80 DUP3 LT PUSH1 0x40 MLOAD DUP1 PUSH1 0x40 ADD PUSH1 0x40 MSTORE DUP1 PUSH1 0x2 DUP2 MSTORE PUSH1 0x20 ADD PUSH2 0x3737 PUSH1 0xF0 SHL DUP2 MSTORE POP SWAP1 PUSH2 0x19DD JUMPI PUSH1 0x40 MLOAD PUSH3 0x461BCD PUSH1 0xE5 SHL DUP2 MSTORE PUSH1 0x4 ADD PUSH2 0x198 SWAP2 SWAP1 PUSH2 0x1F18 JUMP JUMPDEST POP POP SWAP1 MLOAD PUSH1 0x1 PUSH1 0x2 SWAP1 SWAP3 MUL SHR AND ISZERO ISZERO SWAP1 JUMP JUMPDEST PUSH1 0x0 DUP3 PUSH2 0x19FF JUMPI POP PUSH1 0x0 NOT PUSH2 0x1A16 JUMP JUMPDEST PUSH2 0x1A13 DUP4 PUSH2 0x1A0D DUP7 DUP6 PUSH2 0x126E JUMP JUMPDEST SWAP1 PUSH2 0x1A54 JUMP JUMPDEST SWAP1 POP JUMPDEST SWAP4 SWAP3 POP POP POP JUMP JUMPDEST PUSH1 0x0 DUP2 DUP4 PUSH2 0x1A3E JUMPI PUSH1 0x40 MLOAD PUSH3 0x461BCD PUSH1 0xE5 SHL DUP2 MSTORE PUSH1 0x4 ADD PUSH2 0x198 SWAP2 SWAP1 PUSH2 0x1F18 JUMP JUMPDEST POP PUSH1 0x0 DUP4 DUP6 DUP2 PUSH2 0x1A4A JUMPI INVALID JUMPDEST DIV SWAP6 SWAP5 POP POP POP POP POP JUMP JUMPDEST PUSH1 0x40 DUP1 MLOAD DUP1 DUP3 ADD SWAP1 SWAP2 MSTORE PUSH1 0x2 DUP2 MSTORE PUSH2 0x353 PUSH1 0xF4 SHL PUSH1 0x20 DUP3 ADD MSTORE PUSH1 0x0 SWAP1 DUP3 PUSH2 0x1A8E JUMPI PUSH1 0x40 MLOAD PUSH3 0x461BCD PUSH1 0xE5 SHL DUP2 MSTORE PUSH1 0x4 ADD PUSH2 0x198 SWAP2 SWAP1 PUSH2 0x1F18 JUMP JUMPDEST POP PUSH1 0x40 DUP1 MLOAD DUP1 DUP3 ADD SWAP1 SWAP2 MSTORE PUSH1 0x2 DUP1 DUP3 MSTORE PUSH2 0x687 PUSH1 0xF3 SHL PUSH1 0x20 DUP4 ADD MSTORE DUP4 DIV SWAP1 PUSH8 0xDE0B6B3A7640000 DUP3 NOT DIV DUP6 GT ISZERO PUSH2 0x1AD8 JUMPI PUSH1 0x40 MLOAD PUSH3 0x461BCD PUSH1 0xE5 SHL DUP2 MSTORE PUSH1 0x4 ADD PUSH2 0x198 SWAP2 SWAP1 PUSH2 0x1F18 JUMP JUMPDEST POP DUP3 DUP2 PUSH8 0xDE0B6B3A7640000 DUP7 MUL ADD DUP2 PUSH2 0x1265 JUMPI INVALID JUMPDEST PUSH1 0x40 MLOAD DUP1 PUSH2 0x160 ADD PUSH1 0x40 MSTORE DUP1 PUSH1 0x0 DUP2 MSTORE PUSH1 0x20 ADD PUSH1 0x0 DUP2 MSTORE PUSH1 0x20 ADD PUSH1 0x0 DUP2 MSTORE PUSH1 0x20 ADD PUSH1 0x0 DUP2 MSTORE PUSH1 0x20 ADD PUSH1 0x0 DUP2 MSTORE PUSH1 0x20 ADD PUSH1 0x0 DUP2 MSTORE PUSH1 0x20 ADD PUSH1 0x0 DUP2 MSTORE PUSH1 0x20 ADD PUSH1 0x0 ISZERO ISZERO DUP2 MSTORE PUSH1 0x20 ADD PUSH1 0x0 ISZERO ISZERO DUP2 MSTORE PUSH1 0x20 ADD PUSH1 0x0 ISZERO ISZERO DUP2 MSTORE PUSH1 0x20 ADD PUSH1 0x0 ISZERO ISZERO DUP2 MSTORE POP SWAP1 JUMP JUMPDEST PUSH1 0x40 MLOAD DUP1 PUSH2 0x240 ADD PUSH1 0x40 MSTORE DUP1 PUSH1 0x0 DUP2 MSTORE PUSH1 0x20 ADD PUSH1 0x0 DUP2 MSTORE PUSH1 0x20 ADD PUSH1 0x0 DUP2 MSTORE PUSH1 0x20 ADD PUSH1 0x0 DUP2 MSTORE PUSH1 0x20 ADD PUSH1 0x0 DUP2 MSTORE PUSH1 0x20 ADD PUSH1 0x0 DUP2 MSTORE PUSH1 0x20 ADD PUSH1 0x0 DUP2 MSTORE PUSH1 0x20 ADD PUSH1 0x0 DUP2 MSTORE PUSH1 0x20 ADD PUSH1 0x0 DUP2 MSTORE PUSH1 0x20 ADD PUSH1 0x0 DUP2 MSTORE PUSH1 0x20 ADD PUSH1 0x0 DUP2 MSTORE PUSH1 0x20 ADD PUSH1 0x0 DUP2 MSTORE PUSH1 0x20 ADD PUSH1 0x0 DUP2 MSTORE PUSH1 0x20 ADD PUSH1 0x0 DUP2 MSTORE PUSH1 0x20 ADD PUSH1 0x0 ISZERO ISZERO DUP2 MSTORE PUSH1 0x20 ADD PUSH1 0x0 PUSH1 0x1 PUSH1 0x1 PUSH1 0xA0 SHL SUB AND DUP2 MSTORE PUSH1 0x20 ADD PUSH1 0x0 ISZERO ISZERO DUP2 MSTORE PUSH1 0x20 ADD PUSH1 0x0 ISZERO ISZERO DUP2 MSTORE POP SWAP1 JUMP JUMPDEST PUSH1 0x0 DUP1 PUSH1 0x0 DUP1 PUSH1 0x0 DUP1 PUSH1 0x0 DUP1 PUSH1 0x0 DUP1 PUSH1 0x0 DUP1 PUSH2 0x180 DUP14 DUP16 SUB SLT ISZERO PUSH2 0x1C0C JUMPI DUP8 DUP9 REVERT JUMPDEST DUP13 CALLDATALOAD PUSH2 0x1C17 DUP2 PUSH2 0x1FEC JUMP JUMPDEST SWAP12 POP PUSH1 0x20 DUP14 ADD CALLDATALOAD SWAP11 POP PUSH1 0x40 DUP14 ADD CALLDATALOAD PUSH2 0x1C2E DUP2 PUSH2 0x1FEC JUMP JUMPDEST SWAP10 POP PUSH1 0x60 DUP14 ADD CALLDATALOAD SWAP9 POP PUSH1 0x80 DUP14 ADD CALLDATALOAD SWAP8 POP PUSH1 0xA0 DUP14 ADD CALLDATALOAD SWAP7 POP PUSH1 0xC0 DUP14 ADD CALLDATALOAD SWAP6 POP PUSH1 0xE0 DUP14 ADD CALLDATALOAD SWAP5 POP PUSH2 0x100 DUP14 ADD CALLDATALOAD SWAP4 POP PUSH2 0x120 DUP14 ADD CALLDATALOAD SWAP3 POP PUSH2 0x140 DUP14 ADD CALLDATALOAD SWAP2 POP PUSH2 0x160 DUP14 ADD CALLDATALOAD PUSH2 0x1C7A DUP2 PUSH2 0x1FEC JUMP JUMPDEST DUP1 SWAP2 POP POP SWAP3 SWAP6 SWAP9 SWAP12 POP SWAP3 SWAP6 SWAP9 SWAP12 POP SWAP3 SWAP6 SWAP9 SWAP12 JUMP JUMPDEST PUSH1 0x0 DUP1 PUSH1 0x0 DUP1 PUSH1 0x0 DUP1 PUSH1 0x0 DUP1 PUSH2 0x100 DUP10 DUP12 SUB SLT ISZERO PUSH2 0x1CAA JUMPI DUP4 DUP5 REVERT JUMPDEST DUP9 CALLDATALOAD PUSH2 0x1CB5 DUP2 PUSH2 0x1FEC JUMP JUMPDEST SWAP8 POP PUSH1 0x20 DUP10 ADD CALLDATALOAD SWAP7 POP PUSH1 0x40 DUP10 ADD CALLDATALOAD SWAP6 POP PUSH1 0x60 DUP10 ADD CALLDATALOAD SWAP5 POP PUSH1 0x80 DUP10 ADD CALLDATALOAD SWAP4 POP PUSH1 0xA0 DUP10 ADD CALLDATALOAD SWAP3 POP PUSH1 0xC0 DUP10 ADD CALLDATALOAD SWAP2 POP PUSH1 0xE0 DUP10 ADD CALLDATALOAD PUSH2 0x1CEF DUP2 PUSH2 0x1FEC JUMP JUMPDEST DUP1 SWAP2 POP POP SWAP3 SWAP6 SWAP9 POP SWAP3 SWAP6 SWAP9 SWAP1 SWAP4 SWAP7 POP JUMP JUMPDEST PUSH1 0x0 PUSH1 0x20 DUP3 DUP5 SUB SLT ISZERO PUSH2 0x1D11 JUMPI DUP1 DUP2 REVERT JUMPDEST DUP2 MLOAD PUSH2 0x116A DUP2 PUSH2 0x2004 JUMP JUMPDEST PUSH1 0x0 DUP1 PUSH1 0x0 DUP1 PUSH1 0x0 DUP1 PUSH1 0x0 DUP1 PUSH2 0x100 DUP10 DUP12 SUB SLT ISZERO PUSH2 0x1D38 JUMPI DUP4 DUP5 REVERT JUMPDEST DUP9 CALLDATALOAD SWAP8 POP PUSH1 0x20 DUP10 ADD CALLDATALOAD PUSH2 0x1D4A DUP2 PUSH2 0x1FEC JUMP JUMPDEST SWAP7 POP PUSH1 0x40 DUP10 ADD CALLDATALOAD PUSH2 0x1D5A DUP2 PUSH2 0x2004 JUMP JUMPDEST SWAP6 POP PUSH1 0x60 DUP10 ADD CALLDATALOAD SWAP5 POP PUSH1 0x80 DUP10 ADD CALLDATALOAD SWAP4 POP PUSH1 0xA0 DUP10 ADD CALLDATALOAD SWAP3 POP PUSH1 0xC0 DUP10 ADD CALLDATALOAD SWAP2 POP PUSH1 0xE0 DUP10 ADD CALLDATALOAD PUSH2 0x1CEF DUP2 PUSH2 0x1FEC JUMP JUMPDEST PUSH1 0x0 DUP1 PUSH1 0x0 DUP1 PUSH1 0x0 PUSH1 0xA0 DUP7 DUP9 SUB SLT ISZERO PUSH2 0x1D9D JUMPI DUP1 DUP2 REVERT JUMPDEST DUP6 CALLDATALOAD SWAP5 POP PUSH1 0x20 DUP7 ADD CALLDATALOAD PUSH2 0x1DAF DUP2 PUSH2 0x1FEC JUMP JUMPDEST SWAP4 POP PUSH1 0x40 DUP7 ADD CALLDATALOAD PUSH2 0x1DBF DUP2 PUSH2 0x1FEC JUMP JUMPDEST SWAP3 POP PUSH1 0x60 DUP7 ADD CALLDATALOAD PUSH2 0x1DCF DUP2 PUSH2 0x1FEC JUMP JUMPDEST SWAP2 POP PUSH1 0x80 DUP7 ADD CALLDATALOAD PUSH2 0x1DDF DUP2 PUSH2 0x1FEC JUMP JUMPDEST DUP1 SWAP2 POP POP SWAP3 SWAP6 POP SWAP3 SWAP6 SWAP1 SWAP4 POP JUMP JUMPDEST PUSH1 0x0 DUP1 PUSH1 0x0 DUP1 PUSH1 0x0 PUSH1 0xA0 DUP7 DUP9 SUB SLT ISZERO PUSH2 0x1E04 JUMPI DUP1 DUP2 REVERT JUMPDEST DUP6 CALLDATALOAD SWAP5 POP PUSH1 0x20 DUP7 ADD CALLDATALOAD SWAP4 POP PUSH1 0x40 DUP7 ADD CALLDATALOAD SWAP3 POP PUSH1 0x60 DUP7 ADD CALLDATALOAD SWAP2 POP PUSH1 0x80 DUP7 ADD CALLDATALOAD PUSH2 0x1DDF DUP2 PUSH2 0x2012 JUMP JUMPDEST PUSH1 0x0 DUP1 PUSH1 0x40 DUP4 DUP6 SUB SLT ISZERO PUSH2 0x1E3D JUMPI DUP2 DUP3 REVERT JUMPDEST POP POP DUP1 CALLDATALOAD SWAP3 PUSH1 0x20 SWAP1 SWAP2 ADD CALLDATALOAD SWAP2 POP JUMP JUMPDEST PUSH1 0x0 DUP1 PUSH1 0x0 DUP1 PUSH1 0x0 DUP1 PUSH1 0xC0 DUP8 DUP10 SUB SLT ISZERO PUSH2 0x1E64 JUMPI DUP4 DUP5 REVERT JUMPDEST DUP7 CALLDATALOAD SWAP6 POP PUSH1 0x20 DUP8 ADD CALLDATALOAD SWAP5 POP PUSH1 0x40 DUP8 ADD CALLDATALOAD PUSH2 0x1E7D DUP2 PUSH2 0x2012 JUMP JUMPDEST SWAP4 POP PUSH1 0x60 DUP8 ADD CALLDATALOAD PUSH2 0x1E8D DUP2 PUSH2 0x1FEC JUMP JUMPDEST SWAP6 SWAP9 SWAP5 SWAP8 POP SWAP3 SWAP6 PUSH1 0x80 DUP2 ADD CALLDATALOAD SWAP5 PUSH1 0xA0 SWAP1 SWAP2 ADD CALLDATALOAD SWAP4 POP SWAP2 POP POP JUMP JUMPDEST PUSH1 0x0 PUSH1 0x20 DUP3 DUP5 SUB SLT ISZERO PUSH2 0x1EB8 JUMPI DUP1 DUP2 REVERT JUMPDEST POP MLOAD SWAP2 SWAP1 POP JUMP JUMPDEST PUSH1 0x1 PUSH1 0x1 PUSH1 0xA0 SHL SUB SWAP2 SWAP1 SWAP2 AND DUP2 MSTORE PUSH1 0x20 ADD SWAP1 JUMP JUMPDEST PUSH1 0x1 PUSH1 0x1 PUSH1 0xA0 SHL SUB SWAP9 DUP10 AND DUP2 MSTORE SWAP7 DUP9 AND PUSH1 0x20 DUP9 ADD MSTORE PUSH1 0x40 DUP8 ADD SWAP6 SWAP1 SWAP6 MSTORE PUSH1 0x60 DUP7 ADD SWAP4 SWAP1 SWAP4 MSTORE SWAP1 SLOAD PUSH1 0x80 DUP6 ADD MSTORE PUSH1 0xA0 DUP5 ADD MSTORE PUSH1 0xC0 DUP4 ADD MSTORE SWAP1 SWAP2 AND PUSH1 0xE0 DUP3 ADD MSTORE PUSH2 0x100 ADD SWAP1 JUMP JUMPDEST PUSH1 0x0 PUSH1 0x20 DUP1 DUP4 MSTORE DUP4 MLOAD DUP1 DUP3 DUP6 ADD MSTORE DUP3 JUMPDEST DUP2 DUP2 LT ISZERO PUSH2 0x1F44 JUMPI DUP6 DUP2 ADD DUP4 ADD MLOAD DUP6 DUP3 ADD PUSH1 0x40 ADD MSTORE DUP3 ADD PUSH2 0x1F28 JUMP JUMPDEST DUP2 DUP2 GT ISZERO PUSH2 0x1F55 JUMPI DUP4 PUSH1 0x40 DUP4 DUP8 ADD ADD MSTORE JUMPDEST POP PUSH1 0x1F ADD PUSH1 0x1F NOT AND SWAP3 SWAP1 SWAP3 ADD PUSH1 0x40 ADD SWAP4 SWAP3 POP POP POP JUMP JUMPDEST PUSH1 0x20 DUP1 DUP3 MSTORE PUSH1 0x1B SWAP1 DUP3 ADD MSTORE PUSH32 0x536166654D6174683A206164646974696F6E206F766572666C6F770000000000 PUSH1 0x40 DUP3 ADD MSTORE PUSH1 0x60 ADD SWAP1 JUMP JUMPDEST PUSH1 0x20 DUP1 DUP3 MSTORE PUSH1 0x21 SWAP1 DUP3 ADD MSTORE PUSH32 0x536166654D6174683A206D756C7469706C69636174696F6E206F766572666C6F PUSH1 0x40 DUP3 ADD MSTORE PUSH1 0x77 PUSH1 0xF8 SHL PUSH1 0x60 DUP3 ADD MSTORE PUSH1 0x80 ADD SWAP1 JUMP JUMPDEST SWAP1 DUP2 MSTORE PUSH1 0x20 ADD SWAP1 JUMP JUMPDEST PUSH1 0x1 PUSH1 0x1 PUSH1 0xA0 SHL SUB DUP2 AND DUP2 EQ PUSH2 0x2001 JUMPI PUSH1 0x0 DUP1 REVERT JUMPDEST POP JUMP JUMPDEST DUP1 ISZERO ISZERO DUP2 EQ PUSH2 0x2001 JUMPI PUSH1 0x0 DUP1 REVERT JUMPDEST PUSH1 0x3 DUP2 LT PUSH2 0x2001 JUMPI PUSH1 0x0 DUP1 REVERT INVALID LOG2 PUSH5 0x6970667358 0x22 SLT KECCAK256 0x28 LOG1 0xA7 0xAE PUSH4 0x585DE91 SWAP12 SGT PUSH28 0xE72E19CF7E73163CDFDB0B650474C6E53EA79B8E64736F6C63430006 0xC STOP CALLER "
		},
		"gasEstimates": {
			"creation": {
				"codeDepositCost": "1655400",
				"executionCost": "1761",
				"totalCost": "1657161"
			},
			"external": {
				"REBALANCE_UP_LIQUIDITY_RATE_THRESHOLD()": "256",
				"REBALANCE_UP_USAGE_RATIO_THRESHOLD()": "257",
				"validateBorrow(address,DataTypes.ReserveData storage,address,uint256,uint256,uint256,uint256,mapping(address => DataTypes.ReserveData) storage,DataTypes.UserConfigurationMap storage,mapping(uint256 => address) storage,uint256,address)": "infinite",
				"validateDeposit(DataTypes.ReserveData storage,uint256)": "infinite",
				"validateRebalanceStableBorrowRate(DataTypes.ReserveData storage,address,IERC20,IERC20,address)": "infinite",
				"validateRepay(DataTypes.ReserveData storage,uint256,DataTypes.InterestRateMode,address,uint256,uint256)": "infinite",
				"validateSetUseReserveAsCollateral(DataTypes.ReserveData storage,address,bool,mapping(address => DataTypes.ReserveData) storage,DataTypes.UserConfigurationMap storage,mapping(uint256 => address) storage,uint256,address)": "infinite",
				"validateSwapRateMode(DataTypes.ReserveData storage,DataTypes.UserConfigurationMap storage,uint256,uint256,DataTypes.InterestRateMode)": "infinite",
				"validateWithdraw(address,uint256,uint256,mapping(address => DataTypes.ReserveData) storage,DataTypes.UserConfigurationMap storage,mapping(uint256 => address) storage,uint256,address)": "infinite"
			},
			"internal": {
				"validateFlashloan(address[] memory,uint256[] memory)": "infinite",
				"validateLiquidationCall(struct DataTypes.ReserveData storage pointer,struct DataTypes.ReserveData storage pointer,struct DataTypes.UserConfigurationMap storage pointer,uint256,uint256,uint256)": "infinite",
				"validateTransfer(address,mapping(address => struct DataTypes.ReserveData storage ref),struct DataTypes.UserConfigurationMap storage pointer,mapping(uint256 => address),uint256,address)": "infinite"
			}
		},
		"methodIdentifiers": {
			"REBALANCE_UP_LIQUIDITY_RATE_THRESHOLD()": "abfcc86a",
			"REBALANCE_UP_USAGE_RATIO_THRESHOLD()": "5494eb8a",
			"validateBorrow(address,DataTypes.ReserveData storage,address,uint256,uint256,uint256,uint256,mapping(address => DataTypes.ReserveData) storage,DataTypes.UserConfigurationMap storage,mapping(uint256 => address) storage,uint256,address)": "721a92f9",
			"validateDeposit(DataTypes.ReserveData storage,uint256)": "0eca322b",
			"validateRebalanceStableBorrowRate(DataTypes.ReserveData storage,address,IERC20,IERC20,address)": "548cad09",
			"validateRepay(DataTypes.ReserveData storage,uint256,DataTypes.InterestRateMode,address,uint256,uint256)": "fa0c2149",
			"validateSetUseReserveAsCollateral(DataTypes.ReserveData storage,address,bool,mapping(address => DataTypes.ReserveData) storage,DataTypes.UserConfigurationMap storage,mapping(uint256 => address) storage,uint256,address)": "5fa297e5",
			"validateSwapRateMode(DataTypes.ReserveData storage,DataTypes.UserConfigurationMap storage,uint256,uint256,DataTypes.InterestRateMode)": "a8695b1d",
			"validateWithdraw(address,uint256,uint256,mapping(address => DataTypes.ReserveData) storage,DataTypes.UserConfigurationMap storage,mapping(uint256 => address) storage,uint256,address)": "d09db04a"
		}
	},
	"abi": [
		{
			"inputs": [],
			"name": "REBALANCE_UP_LIQUIDITY_RATE_THRESHOLD",
			"outputs": [
				{
					"internalType": "uint256",
					"name": "",
					"type": "uint256"
				}
			],
			"stateMutability": "view",
			"type": "function"
		},
		{
			"inputs": [],
			"name": "REBALANCE_UP_USAGE_RATIO_THRESHOLD",
			"outputs": [
				{
					"internalType": "uint256",
					"name": "",
					"type": "uint256"
				}
			],
			"stateMutability": "view",
			"type": "function"
		}
	]
}