{
	"contracts/misc/Reenter.sol": {
		"Test": {
			"abi": [
				{
					"inputs": [
						{
							"internalType": "address payable",
							"name": "_gatewayAddress",
							"type": "address"
						}
					],
					"stateMutability": "nonpayable",
					"type": "constructor"
				},
				{
					"anonymous": false,
					"inputs": [
						{
							"indexed": false,
							"internalType": "address",
							"name": "sender",
							"type": "address"
						},
						{
							"indexed": false,
							"internalType": "uint256",
							"name": "amount",
							"type": "uint256"
						}
					],
					"name": "Received",
					"type": "event"
				},
				{
					"stateMutability": "payable",
					"type": "fallback"
				},
				{
					"inputs": [],
					"name": "gateway",
					"outputs": [
						{
							"internalType": "contract WETHGateway",
							"name": "",
							"type": "address"
						}
					],
					"stateMutability": "view",
					"type": "function"
				},
				{
					"inputs": [],
					"name": "test123",
					"outputs": [],
					"stateMutability": "payable",
					"type": "function"
				}
			],
			"devdoc": {
				"kind": "dev",
				"methods": {},
				"version": 1
			},
			"evm": {
				"assembly": "    /* \"contracts/misc/Reenter.sol\":173:1032  contract Test {\r... */\n  mstore(0x40, 0x80)\n    /* \"contracts/misc/Reenter.sol\":311:525  constructor(address payable _gatewayAddress) public {\r... */\n  callvalue\n  dup1\n  iszero\n  tag_1\n  jumpi\n  0x00\n  dup1\n  revert\ntag_1:\n  pop\n  mload(0x40)\n  sub(codesize, bytecodeSize)\n  dup1\n  bytecodeSize\n  dup4\n  codecopy\n  dup2\n  dup2\n  add\n  0x40\n  mstore\n  0x20\n  dup2\n  lt\n  iszero\n  tag_2\n  jumpi\n  0x00\n  dup1\n  revert\ntag_2:\n  pop\n  mload\n    /* \"contracts/misc/Reenter.sol\":374:381  gateway */\n  0x00\n    /* \"contracts/misc/Reenter.sol\":374:412  gateway = WETHGateway(_gatewayAddress) */\n  dup1\n  sload\n  not(sub(shl(0xa0, 0x01), 0x01))\n  and\n  sub(shl(0xa0, 0x01), 0x01)\n  dup1\n  dup5\n  and\n  swap2\n  swap1\n  swap2\n  or\n  swap2\n  dup3\n  swap1\n  sstore\n    /* \"contracts/misc/Reenter.sol\":438:463  gateway.getAWETHAddress() */\n  0x40\n  dup1\n  mload\n  shl(0xe2, 0x0e886beb)\n  dup2\n  mstore\n  swap1\n  mload\n    /* \"contracts/misc/Reenter.sol\":438:445  gateway */\n  swap3\n  swap1\n  swap2\n  and\n  swap2\n    /* \"contracts/misc/Reenter.sol\":438:461  gateway.getAWETHAddress */\n  0x3a21afac\n  swap2\n    /* \"contracts/misc/Reenter.sol\":438:463  gateway.getAWETHAddress() */\n  0x04\n  dup1\n  dup3\n  add\n  swap3\n    /* \"contracts/misc/Reenter.sol\":311:525  constructor(address payable _gatewayAddress) public {\r... */\n  0x20\n  swap3\n    /* \"contracts/misc/Reenter.sol\":438:463  gateway.getAWETHAddress() */\n  swap1\n  swap2\n  swap1\n  dup3\n  swap1\n  sub\n  add\n  dup2\n    /* \"contracts/misc/Reenter.sol\":438:445  gateway */\n  dup7\n    /* \"contracts/misc/Reenter.sol\":438:463  gateway.getAWETHAddress() */\n  dup1\n  extcodesize\n  iszero\n  dup1\n  iszero\n  tag_5\n  jumpi\n  0x00\n  dup1\n  revert\ntag_5:\n  pop\n  gas\n  staticcall\n  iszero\n  dup1\n  iszero\n  tag_7\n  jumpi\n  returndatasize\n  0x00\n  dup1\n  returndatacopy\n  revert(0x00, returndatasize)\ntag_7:\n  pop\n  pop\n  pop\n  pop\n  mload(0x40)\n  returndatasize\n  0x20\n  dup2\n  lt\n  iszero\n  tag_8\n  jumpi\n  0x00\n  dup1\n  revert\ntag_8:\n  pop\n  mload\n    /* \"contracts/misc/Reenter.sol\":423:428  token */\n  0x01\n    /* \"contracts/misc/Reenter.sol\":423:464  token = IERC20(gateway.getAWETHAddress()) */\n  dup1\n  sload\n  not(sub(shl(0xa0, 0x01), 0x01))\n  and\n  sub(shl(0xa0, 0x01), 0x01)\n  swap3\n  dup4\n  and\n  or\n  swap1\n  dup2\n  swap1\n  sstore\n    /* \"contracts/misc/Reenter.sol\":475:512  token.approve(_gatewayAddress, 1e18 ) */\n  0x40\n  dup1\n  mload\n  shl(0xe0, 0x095ea7b3)\n  dup2\n  mstore\n  dup5\n  dup5\n  and\n  0x04\n  dup3\n  add\n  mstore\n    /* \"contracts/misc/Reenter.sol\":506:510  1e18 */\n  0x0de0b6b3a7640000\n    /* \"contracts/misc/Reenter.sol\":475:512  token.approve(_gatewayAddress, 1e18 ) */\n  0x24\n  dup3\n  add\n  mstore\n  swap1\n  mload\n    /* \"contracts/misc/Reenter.sol\":475:480  token */\n  swap2\n  swap1\n  swap3\n  and\n  swap2\n    /* \"contracts/misc/Reenter.sol\":475:488  token.approve */\n  0x095ea7b3\n  swap2\n    /* \"contracts/misc/Reenter.sol\":475:512  token.approve(_gatewayAddress, 1e18 ) */\n  0x44\n  dup1\n  dup4\n  add\n  swap3\n    /* \"contracts/misc/Reenter.sol\":438:463  gateway.getAWETHAddress() */\n  0x20\n  swap3\n    /* \"contracts/misc/Reenter.sol\":475:512  token.approve(_gatewayAddress, 1e18 ) */\n  swap2\n  swap1\n  dup3\n  swap1\n  sub\n  add\n  dup2\n  0x00\n    /* \"contracts/misc/Reenter.sol\":475:480  token */\n  dup8\n    /* \"contracts/misc/Reenter.sol\":475:512  token.approve(_gatewayAddress, 1e18 ) */\n  dup1\n  extcodesize\n  iszero\n  dup1\n  iszero\n  tag_9\n  jumpi\n  0x00\n  dup1\n  revert\ntag_9:\n  pop\n  gas\n  call\n  iszero\n  dup1\n  iszero\n  tag_11\n  jumpi\n  returndatasize\n  0x00\n  dup1\n  returndatacopy\n  revert(0x00, returndatasize)\ntag_11:\n  pop\n  pop\n  pop\n  pop\n  mload(0x40)\n  returndatasize\n  0x20\n  dup2\n  lt\n  iszero\n  tag_12\n  jumpi\n  0x00\n  dup1\n  revert\ntag_12:\n  pop\n  pop\n  pop\n    /* \"contracts/misc/Reenter.sol\":173:1032  contract Test {\r... */\n  dataSize(sub_0)\n  dup1\n  dataOffset(sub_0)\n  0x00\n  codecopy\n  0x00\n  return\nstop\n\nsub_0: assembly {\n        /* \"contracts/misc/Reenter.sol\":173:1032  contract Test {\r... */\n      mstore(0x40, 0x80)\n      jumpi(tag_1, lt(calldatasize, 0x04))\n      shr(0xe0, calldataload(0x00))\n      dup1\n      0x116191b6\n      eq\n      tag_3\n      jumpi\n      dup1\n      0xb90c4034\n      eq\n      tag_4\n      jumpi\n    tag_1:\n        /* \"contracts/misc/Reenter.sol\":578:585  gateway */\n      0x00\n      dup1\n      sload\n        /* \"contracts/misc/Reenter.sol\":578:694  gateway.depositETH{value: 7 wei}({\r... */\n      0x40\n      dup1\n      mload\n      shl(0xe0, 0x58c22be7)\n      dup2\n      mstore\n        /* \"contracts/misc/Reenter.sol\":645:649  this */\n      address\n        /* \"contracts/misc/Reenter.sol\":578:694  gateway.depositETH{value: 7 wei}({\r... */\n      0x04\n      dup3\n      add\n      mstore\n      0x24\n      dup2\n      add\n      dup5\n      swap1\n      mstore\n      swap1\n      mload\n      sub(shl(0xa0, 0x01), 0x01)\n        /* \"contracts/misc/Reenter.sol\":578:585  gateway */\n      swap1\n      swap3\n      and\n      swap3\n        /* \"contracts/misc/Reenter.sol\":578:596  gateway.depositETH */\n      0x58c22be7\n      swap3\n        /* \"contracts/misc/Reenter.sol\":604:609  7 wei */\n      0x07\n      swap3\n        /* \"contracts/misc/Reenter.sol\":578:694  gateway.depositETH{value: 7 wei}({\r... */\n      0x44\n      dup1\n      dup3\n      add\n      swap4\n        /* \"contracts/misc/Reenter.sol\":578:585  gateway */\n      swap3\n        /* \"contracts/misc/Reenter.sol\":578:694  gateway.depositETH{value: 7 wei}({\r... */\n      swap2\n      dup3\n      swap1\n      sub\n      add\n      dup2\n        /* \"contracts/misc/Reenter.sol\":604:609  7 wei */\n      dup6\n        /* \"contracts/misc/Reenter.sol\":578:585  gateway */\n      dup9\n        /* \"contracts/misc/Reenter.sol\":578:694  gateway.depositETH{value: 7 wei}({\r... */\n      dup1\n      extcodesize\n      iszero\n      dup1\n      iszero\n      tag_7\n      jumpi\n      0x00\n      dup1\n      revert\n    tag_7:\n      pop\n      gas\n      call\n      iszero\n      dup1\n      iszero\n      tag_9\n      jumpi\n      returndatasize\n      0x00\n      dup1\n      returndatacopy\n      revert(0x00, returndatasize)\n    tag_9:\n      pop\n      pop\n        /* \"contracts/misc/Reenter.sol\":710:741  Received(msg.sender, msg.value) */\n      0x40\n      dup1\n      mload\n        /* \"contracts/misc/Reenter.sol\":719:729  msg.sender */\n      caller\n        /* \"contracts/misc/Reenter.sol\":710:741  Received(msg.sender, msg.value) */\n      dup2\n      mstore\n        /* \"contracts/misc/Reenter.sol\":731:740  msg.value */\n      callvalue\n        /* \"contracts/misc/Reenter.sol\":710:741  Received(msg.sender, msg.value) */\n      0x20\n      dup3\n      add\n      mstore\n      dup2\n      mload\n      0x88a5966d370b9919b20f3e2c13ff65706f196a4e32cc2c12bf57088f88525874\n      swap6\n      pop\n      swap1\n      dup2\n      swap1\n      sub\n      swap1\n      swap2\n      add\n      swap3\n      pop\n      swap1\n      pop\n      log1\n        /* \"contracts/misc/Reenter.sol\":173:1032  contract Test {\r... */\n      stop\n        /* \"contracts/misc/Reenter.sol\":194:220  WETHGateway public gateway */\n    tag_3:\n      callvalue\n      dup1\n      iszero\n      tag_10\n      jumpi\n      0x00\n      dup1\n      revert\n    tag_10:\n      pop\n      tag_11\n      tag_12\n      jump\t// in\n    tag_11:\n      0x40\n      dup1\n      mload\n      sub(shl(0xa0, 0x01), 0x01)\n      swap1\n      swap3\n      and\n      dup3\n      mstore\n      mload\n      swap1\n      dup2\n      swap1\n      sub\n      0x20\n      add\n      swap1\n      return\n        /* \"contracts/misc/Reenter.sol\":757:1029  function test123() public payable {\r... */\n    tag_4:\n      tag_13\n      tag_14\n      jump\t// in\n    tag_13:\n      stop\n        /* \"contracts/misc/Reenter.sol\":194:220  WETHGateway public gateway */\n    tag_12:\n      and(sub(shl(0xa0, 0x01), 0x01), sload(0x00))\n      dup2\n      jump\t// out\n        /* \"contracts/misc/Reenter.sol\":757:1029  function test123() public payable {\r... */\n    tag_14:\n        /* \"contracts/misc/Reenter.sol\":802:809  gateway */\n      0x00\n      dup1\n      sload\n        /* \"contracts/misc/Reenter.sol\":802:918  gateway.depositETH{value: 5 wei}({\r... */\n      0x40\n      dup1\n      mload\n      shl(0xe0, 0x58c22be7)\n      dup2\n      mstore\n        /* \"contracts/misc/Reenter.sol\":869:873  this */\n      address\n        /* \"contracts/misc/Reenter.sol\":802:918  gateway.depositETH{value: 5 wei}({\r... */\n      0x04\n      dup3\n      add\n      mstore\n      0x24\n      dup2\n      add\n      dup5\n      swap1\n      mstore\n      swap1\n      mload\n      sub(shl(0xa0, 0x01), 0x01)\n        /* \"contracts/misc/Reenter.sol\":802:809  gateway */\n      swap1\n      swap3\n      and\n      swap3\n        /* \"contracts/misc/Reenter.sol\":802:820  gateway.depositETH */\n      0x58c22be7\n      swap3\n        /* \"contracts/misc/Reenter.sol\":828:833  5 wei */\n      0x05\n      swap3\n        /* \"contracts/misc/Reenter.sol\":802:918  gateway.depositETH{value: 5 wei}({\r... */\n      0x44\n      dup1\n      dup3\n      add\n      swap4\n        /* \"contracts/misc/Reenter.sol\":802:809  gateway */\n      swap3\n        /* \"contracts/misc/Reenter.sol\":802:918  gateway.depositETH{value: 5 wei}({\r... */\n      swap2\n      dup3\n      swap1\n      sub\n      add\n      dup2\n        /* \"contracts/misc/Reenter.sol\":828:833  5 wei */\n      dup6\n        /* \"contracts/misc/Reenter.sol\":802:809  gateway */\n      dup9\n        /* \"contracts/misc/Reenter.sol\":802:918  gateway.depositETH{value: 5 wei}({\r... */\n      dup1\n      extcodesize\n      iszero\n      dup1\n      iszero\n      tag_16\n      jumpi\n      0x00\n      dup1\n      revert\n    tag_16:\n      pop\n      gas\n      call\n      iszero\n      dup1\n      iszero\n      tag_18\n      jumpi\n      returndatasize\n      0x00\n      dup1\n      returndatacopy\n      revert(0x00, returndatasize)\n    tag_18:\n      pop\n      pop\n        /* \"contracts/misc/Reenter.sol\":929:936  gateway */\n      0x00\n      dup1\n      sload\n        /* \"contracts/misc/Reenter.sol\":929:1021  gateway.withdrawETH({\r... */\n      0x40\n      dup1\n      mload\n      shl(0xe1, 0x1b08c5a9)\n      dup2\n      mstore\n        /* \"contracts/misc/Reenter.sol\":972:977  3 wei */\n      0x03\n        /* \"contracts/misc/Reenter.sol\":929:1021  gateway.withdrawETH({\r... */\n      0x04\n      dup3\n      add\n      mstore\n        /* \"contracts/misc/Reenter.sol\":1004:1008  this */\n      address\n        /* \"contracts/misc/Reenter.sol\":929:1021  gateway.withdrawETH({\r... */\n      0x24\n      dup3\n      add\n      mstore\n      swap1\n      mload\n      sub(shl(0xa0, 0x01), 0x01)\n        /* \"contracts/misc/Reenter.sol\":929:936  gateway */\n      swap1\n      swap3\n      and\n      swap6\n      pop\n        /* \"contracts/misc/Reenter.sol\":929:948  gateway.withdrawETH */\n      0x36118b52\n      swap5\n      pop\n        /* \"contracts/misc/Reenter.sol\":929:1021  gateway.withdrawETH({\r... */\n      0x44\n      dup1\n      dup3\n      add\n      swap5\n      pop\n      swap1\n      dup3\n      swap1\n      sub\n      add\n      dup2\n        /* \"contracts/misc/Reenter.sol\":929:936  gateway */\n      dup4\n      dup8\n        /* \"contracts/misc/Reenter.sol\":929:1021  gateway.withdrawETH({\r... */\n      dup1\n      extcodesize\n      iszero\n      dup1\n      iszero\n      tag_19\n      jumpi\n      0x00\n      dup1\n      revert\n    tag_19:\n      pop\n      gas\n      call\n      iszero\n      dup1\n      iszero\n      tag_21\n      jumpi\n      returndatasize\n      0x00\n      dup1\n      returndatacopy\n      revert(0x00, returndatasize)\n    tag_21:\n      pop\n      pop\n      pop\n      pop\n        /* \"contracts/misc/Reenter.sol\":757:1029  function test123() public payable {\r... */\n      jump\t// out\n\n    auxdata: 0xa26469706673582212205fde4696c4b554ef3d76a8c52530ce57d8e77af56216408c2737b4fd76bd2ca664736f6c634300060c0033\n}\n",
				"bytecode": {
					"linkReferences": {},
					"object": "608060405234801561001057600080fd5b506040516103903803806103908339818101604052602081101561003357600080fd5b5051600080546001600160a01b0319166001600160a01b03808416919091179182905560408051630e886beb60e21b815290519290911691633a21afac91600480820192602092909190829003018186803b15801561009157600080fd5b505afa1580156100a5573d6000803e3d6000fd5b505050506040513d60208110156100bb57600080fd5b5051600180546001600160a01b0319166001600160a01b0392831617908190556040805163095ea7b360e01b81528484166004820152670de0b6b3a764000060248201529051919092169163095ea7b39160448083019260209291908290030181600087803b15801561012d57600080fd5b505af1158015610141573d6000803e3d6000fd5b505050506040513d602081101561015757600080fd5b505050610227806101696000396000f3fe6080604052600436106100295760003560e01c8063116191b6146100d2578063b90c403414610103575b60008054604080516358c22be760e01b81523060048201526024810184905290516001600160a01b03909216926358c22be792600792604480820193929182900301818588803b15801561007c57600080fd5b505af1158015610090573d6000803e3d6000fd5b50506040805133815234602082015281517f88a5966d370b9919b20f3e2c13ff65706f196a4e32cc2c12bf57088f8852587495509081900390910192509050a1005b3480156100de57600080fd5b506100e761010d565b604080516001600160a01b039092168252519081900360200190f35b61010b61011c565b005b6000546001600160a01b031681565b60008054604080516358c22be760e01b81523060048201526024810184905290516001600160a01b03909216926358c22be792600592604480820193929182900301818588803b15801561016f57600080fd5b505af1158015610183573d6000803e3d6000fd5b50506000805460408051631b08c5a960e11b81526003600482015230602482015290516001600160a01b0390921695506336118b529450604480820194509082900301818387803b1580156101d757600080fd5b505af11580156101eb573d6000803e3d6000fd5b5050505056fea26469706673582212205fde4696c4b554ef3d76a8c52530ce57d8e77af56216408c2737b4fd76bd2ca664736f6c634300060c0033",
					"opcodes": "PUSH1 0x80 PUSH1 0x40 MSTORE CALLVALUE DUP1 ISZERO PUSH2 0x10 JUMPI PUSH1 0x0 DUP1 REVERT JUMPDEST POP PUSH1 0x40 MLOAD PUSH2 0x390 CODESIZE SUB DUP1 PUSH2 0x390 DUP4 CODECOPY DUP2 DUP2 ADD PUSH1 0x40 MSTORE PUSH1 0x20 DUP2 LT ISZERO PUSH2 0x33 JUMPI PUSH1 0x0 DUP1 REVERT JUMPDEST POP MLOAD PUSH1 0x0 DUP1 SLOAD PUSH1 0x1 PUSH1 0x1 PUSH1 0xA0 SHL SUB NOT AND PUSH1 0x1 PUSH1 0x1 PUSH1 0xA0 SHL SUB DUP1 DUP5 AND SWAP2 SWAP1 SWAP2 OR SWAP2 DUP3 SWAP1 SSTORE PUSH1 0x40 DUP1 MLOAD PUSH4 0xE886BEB PUSH1 0xE2 SHL DUP2 MSTORE SWAP1 MLOAD SWAP3 SWAP1 SWAP2 AND SWAP2 PUSH4 0x3A21AFAC SWAP2 PUSH1 0x4 DUP1 DUP3 ADD SWAP3 PUSH1 0x20 SWAP3 SWAP1 SWAP2 SWAP1 DUP3 SWAP1 SUB ADD DUP2 DUP7 DUP1 EXTCODESIZE ISZERO DUP1 ISZERO PUSH2 0x91 JUMPI PUSH1 0x0 DUP1 REVERT JUMPDEST POP GAS STATICCALL ISZERO DUP1 ISZERO PUSH2 0xA5 JUMPI RETURNDATASIZE PUSH1 0x0 DUP1 RETURNDATACOPY RETURNDATASIZE PUSH1 0x0 REVERT JUMPDEST POP POP POP POP PUSH1 0x40 MLOAD RETURNDATASIZE PUSH1 0x20 DUP2 LT ISZERO PUSH2 0xBB JUMPI PUSH1 0x0 DUP1 REVERT JUMPDEST POP MLOAD PUSH1 0x1 DUP1 SLOAD PUSH1 0x1 PUSH1 0x1 PUSH1 0xA0 SHL SUB NOT AND PUSH1 0x1 PUSH1 0x1 PUSH1 0xA0 SHL SUB SWAP3 DUP4 AND OR SWAP1 DUP2 SWAP1 SSTORE PUSH1 0x40 DUP1 MLOAD PUSH4 0x95EA7B3 PUSH1 0xE0 SHL DUP2 MSTORE DUP5 DUP5 AND PUSH1 0x4 DUP3 ADD MSTORE PUSH8 0xDE0B6B3A7640000 PUSH1 0x24 DUP3 ADD MSTORE SWAP1 MLOAD SWAP2 SWAP1 SWAP3 AND SWAP2 PUSH4 0x95EA7B3 SWAP2 PUSH1 0x44 DUP1 DUP4 ADD SWAP3 PUSH1 0x20 SWAP3 SWAP2 SWAP1 DUP3 SWAP1 SUB ADD DUP2 PUSH1 0x0 DUP8 DUP1 EXTCODESIZE ISZERO DUP1 ISZERO PUSH2 0x12D JUMPI PUSH1 0x0 DUP1 REVERT JUMPDEST POP GAS CALL ISZERO DUP1 ISZERO PUSH2 0x141 JUMPI RETURNDATASIZE PUSH1 0x0 DUP1 RETURNDATACOPY RETURNDATASIZE PUSH1 0x0 REVERT JUMPDEST POP POP POP POP PUSH1 0x40 MLOAD RETURNDATASIZE PUSH1 0x20 DUP2 LT ISZERO PUSH2 0x157 JUMPI PUSH1 0x0 DUP1 REVERT JUMPDEST POP POP POP PUSH2 0x227 DUP1 PUSH2 0x169 PUSH1 0x0 CODECOPY PUSH1 0x0 RETURN INVALID PUSH1 0x80 PUSH1 0x40 MSTORE PUSH1 0x4 CALLDATASIZE LT PUSH2 0x29 JUMPI PUSH1 0x0 CALLDATALOAD PUSH1 0xE0 SHR DUP1 PUSH4 0x116191B6 EQ PUSH2 0xD2 JUMPI DUP1 PUSH4 0xB90C4034 EQ PUSH2 0x103 JUMPI JUMPDEST PUSH1 0x0 DUP1 SLOAD PUSH1 0x40 DUP1 MLOAD PUSH4 0x58C22BE7 PUSH1 0xE0 SHL DUP2 MSTORE ADDRESS PUSH1 0x4 DUP3 ADD MSTORE PUSH1 0x24 DUP2 ADD DUP5 SWAP1 MSTORE SWAP1 MLOAD PUSH1 0x1 PUSH1 0x1 PUSH1 0xA0 SHL SUB SWAP1 SWAP3 AND SWAP3 PUSH4 0x58C22BE7 SWAP3 PUSH1 0x7 SWAP3 PUSH1 0x44 DUP1 DUP3 ADD SWAP4 SWAP3 SWAP2 DUP3 SWAP1 SUB ADD DUP2 DUP6 DUP9 DUP1 EXTCODESIZE ISZERO DUP1 ISZERO PUSH2 0x7C JUMPI PUSH1 0x0 DUP1 REVERT JUMPDEST POP GAS CALL ISZERO DUP1 ISZERO PUSH2 0x90 JUMPI RETURNDATASIZE PUSH1 0x0 DUP1 RETURNDATACOPY RETURNDATASIZE PUSH1 0x0 REVERT JUMPDEST POP POP PUSH1 0x40 DUP1 MLOAD CALLER DUP2 MSTORE CALLVALUE PUSH1 0x20 DUP3 ADD MSTORE DUP2 MLOAD PUSH32 0x88A5966D370B9919B20F3E2C13FF65706F196A4E32CC2C12BF57088F88525874 SWAP6 POP SWAP1 DUP2 SWAP1 SUB SWAP1 SWAP2 ADD SWAP3 POP SWAP1 POP LOG1 STOP JUMPDEST CALLVALUE DUP1 ISZERO PUSH2 0xDE JUMPI PUSH1 0x0 DUP1 REVERT JUMPDEST POP PUSH2 0xE7 PUSH2 0x10D JUMP JUMPDEST PUSH1 0x40 DUP1 MLOAD PUSH1 0x1 PUSH1 0x1 PUSH1 0xA0 SHL SUB SWAP1 SWAP3 AND DUP3 MSTORE MLOAD SWAP1 DUP2 SWAP1 SUB PUSH1 0x20 ADD SWAP1 RETURN JUMPDEST PUSH2 0x10B PUSH2 0x11C JUMP JUMPDEST STOP JUMPDEST PUSH1 0x0 SLOAD PUSH1 0x1 PUSH1 0x1 PUSH1 0xA0 SHL SUB AND DUP2 JUMP JUMPDEST PUSH1 0x0 DUP1 SLOAD PUSH1 0x40 DUP1 MLOAD PUSH4 0x58C22BE7 PUSH1 0xE0 SHL DUP2 MSTORE ADDRESS PUSH1 0x4 DUP3 ADD MSTORE PUSH1 0x24 DUP2 ADD DUP5 SWAP1 MSTORE SWAP1 MLOAD PUSH1 0x1 PUSH1 0x1 PUSH1 0xA0 SHL SUB SWAP1 SWAP3 AND SWAP3 PUSH4 0x58C22BE7 SWAP3 PUSH1 0x5 SWAP3 PUSH1 0x44 DUP1 DUP3 ADD SWAP4 SWAP3 SWAP2 DUP3 SWAP1 SUB ADD DUP2 DUP6 DUP9 DUP1 EXTCODESIZE ISZERO DUP1 ISZERO PUSH2 0x16F JUMPI PUSH1 0x0 DUP1 REVERT JUMPDEST POP GAS CALL ISZERO DUP1 ISZERO PUSH2 0x183 JUMPI RETURNDATASIZE PUSH1 0x0 DUP1 RETURNDATACOPY RETURNDATASIZE PUSH1 0x0 REVERT JUMPDEST POP POP PUSH1 0x0 DUP1 SLOAD PUSH1 0x40 DUP1 MLOAD PUSH4 0x1B08C5A9 PUSH1 0xE1 SHL DUP2 MSTORE PUSH1 0x3 PUSH1 0x4 DUP3 ADD MSTORE ADDRESS PUSH1 0x24 DUP3 ADD MSTORE SWAP1 MLOAD PUSH1 0x1 PUSH1 0x1 PUSH1 0xA0 SHL SUB SWAP1 SWAP3 AND SWAP6 POP PUSH4 0x36118B52 SWAP5 POP PUSH1 0x44 DUP1 DUP3 ADD SWAP5 POP SWAP1 DUP3 SWAP1 SUB ADD DUP2 DUP4 DUP8 DUP1 EXTCODESIZE ISZERO DUP1 ISZERO PUSH2 0x1D7 JUMPI PUSH1 0x0 DUP1 REVERT JUMPDEST POP GAS CALL ISZERO DUP1 ISZERO PUSH2 0x1EB JUMPI RETURNDATASIZE PUSH1 0x0 DUP1 RETURNDATACOPY RETURNDATASIZE PUSH1 0x0 REVERT JUMPDEST POP POP POP POP JUMP INVALID LOG2 PUSH5 0x6970667358 0x22 SLT KECCAK256 0x5F 0xDE CHAINID SWAP7 0xC4 0xB5 SLOAD 0xEF RETURNDATASIZE PUSH23 0xA8C52530CE57D8E77AF56216408C2737B4FD76BD2CA664 PUSH20 0x6F6C634300060C00330000000000000000000000 "
				},
				"gasEstimates": {
					"creation": {
						"codeDepositCost": "110200",
						"executionCost": "infinite",
						"totalCost": "infinite"
					},
					"external": {
						"": "infinite",
						"gateway()": "1015",
						"test123()": "infinite"
					}
				},
				"methodIdentifiers": {
					"gateway()": "116191b6",
					"test123()": "b90c4034"
				}
			},
			"storageLayout": {
				"storage": [
					{
						"astId": 863,
						"contract": "contracts/misc/Reenter.sol:Test",
						"label": "gateway",
						"offset": 0,
						"slot": "0",
						"type": "t_contract(WETHGateway)1393"
					},
					{
						"astId": 865,
						"contract": "contracts/misc/Reenter.sol:Test",
						"label": "token",
						"offset": 0,
						"slot": "1",
						"type": "t_contract(IERC20)100"
					}
				],
				"types": {
					"t_contract(IERC20)100": {
						"encoding": "inplace",
						"label": "contract IERC20",
						"numberOfBytes": "20"
					},
					"t_contract(WETHGateway)1393": {
						"encoding": "inplace",
						"label": "contract WETHGateway",
						"numberOfBytes": "20"
					}
				}
			},
			"userdoc": {
				"kind": "user",
				"methods": {},
				"version": 1
			}
		}
	}
}