{
	"contracts/misc/WalletBalanceProvider.sol": {
		"WalletBalanceProvider": {
			"abi": [
				{
					"inputs": [
						{
							"internalType": "address",
							"name": "user",
							"type": "address"
						},
						{
							"internalType": "address",
							"name": "token",
							"type": "address"
						}
					],
					"name": "balanceOf",
					"outputs": [
						{
							"internalType": "uint256",
							"name": "",
							"type": "uint256"
						}
					],
					"stateMutability": "view",
					"type": "function"
				},
				{
					"inputs": [
						{
							"internalType": "address[]",
							"name": "users",
							"type": "address[]"
						},
						{
							"internalType": "address[]",
							"name": "tokens",
							"type": "address[]"
						}
					],
					"name": "batchBalanceOf",
					"outputs": [
						{
							"internalType": "uint256[]",
							"name": "",
							"type": "uint256[]"
						}
					],
					"stateMutability": "view",
					"type": "function"
				},
				{
					"inputs": [
						{
							"internalType": "address",
							"name": "provider",
							"type": "address"
						},
						{
							"internalType": "address",
							"name": "user",
							"type": "address"
						}
					],
					"name": "getUserWalletBalances",
					"outputs": [
						{
							"internalType": "address[]",
							"name": "",
							"type": "address[]"
						},
						{
							"internalType": "uint256[]",
							"name": "",
							"type": "uint256[]"
						}
					],
					"stateMutability": "view",
					"type": "function"
				},
				{
					"stateMutability": "payable",
					"type": "receive"
				}
			],
			"devdoc": {
				"author": "Aave, influenced by https://github.com/wbobeirne/eth-balance-checker/blob/master/contracts/BalanceChecker.sol",
				"details": "NOTE: THIS CONTRACT IS NOT USED WITHIN THE AAVE PROTOCOL. It's an accessory contract used to reduce the number of calls towards the blockchain from the Aave backend.*",
				"kind": "dev",
				"methods": {
					"balanceOf(address,address)": {
						"details": "Check the token balance of a wallet in a token contract Returns the balance of the token for user. Avoids possible errors: - return 0 on non-contract address*"
					},
					"batchBalanceOf(address[],address[])": {
						"params": {
							"tokens": "The list of tokens",
							"users": "The list of users"
						},
						"returns": {
							"_0": "And array with the concatenation of, for each user, his/her balances*"
						}
					},
					"getUserWalletBalances(address,address)": {
						"details": "provides balances of user wallet for all reserves available on the pool"
					}
				},
				"title": "WalletBalanceProvider contract",
				"version": 1
			},
			"evm": {
				"assembly": "    /* \"contracts/misc/WalletBalanceProvider.sol\":1087:3949  contract WalletBalanceProvider {... */\n  mstore(0x40, 0x80)\n  callvalue\n  dup1\n  iszero\n  tag_1\n  jumpi\n  0x00\n  dup1\n  revert\ntag_1:\n  pop\n  dataSize(sub_0)\n  dup1\n  dataOffset(sub_0)\n  0x00\n  codecopy\n  0x00\n  return\nstop\n\nsub_0: assembly {\n        /* \"contracts/misc/WalletBalanceProvider.sol\":1087:3949  contract WalletBalanceProvider {... */\n      mstore(0x40, 0x80)\n      jumpi(tag_1, lt(calldatasize, 0x04))\n      shr(0xe0, calldataload(0x00))\n      dup1\n      0x02405343\n      eq\n      tag_3\n      jumpi\n      dup1\n      0xb59b28ef\n      eq\n      tag_4\n      jumpi\n      dup1\n      0xf7888aec\n      eq\n      tag_5\n      jumpi\n      jump(tag_2)\n    tag_1:\n      jumpi(tag_2, calldatasize)\n        /* \"contracts/misc/WalletBalanceProvider.sol\":1520:1543  msg.sender.isContract() */\n      tag_8\n        /* \"contracts/misc/WalletBalanceProvider.sol\":1520:1530  msg.sender */\n      caller\n        /* \"contracts/misc/WalletBalanceProvider.sol\":1520:1541  msg.sender.isContract */\n      tag_9\n        /* \"contracts/misc/WalletBalanceProvider.sol\":1520:1543  msg.sender.isContract() */\n      jump\t// in\n    tag_8:\n        /* \"contracts/misc/WalletBalanceProvider.sol\":1512:1550  require(msg.sender.isContract(), '22') */\n      tag_10\n      jumpi\n      mload(0x40)\n      shl(0xe5, 0x461bcd)\n      dup2\n      mstore\n      0x04\n      add\n      tag_11\n      swap1\n      tag_12\n      jump\t// in\n    tag_11:\n      mload(0x40)\n      dup1\n      swap2\n      sub\n      swap1\n      revert\n    tag_10:\n        /* \"contracts/misc/WalletBalanceProvider.sol\":1087:3949  contract WalletBalanceProvider {... */\n      stop\n    tag_2:\n      0x00\n      dup1\n      revert\n        /* \"contracts/misc/WalletBalanceProvider.sol\":2875:3947  function getUserWalletBalances(address provider, address user)... */\n    tag_3:\n      callvalue\n      dup1\n      iszero\n      tag_13\n      jumpi\n      0x00\n      dup1\n      revert\n    tag_13:\n      pop\n      tag_14\n      tag_15\n      calldatasize\n      0x04\n      tag_16\n      jump\t// in\n    tag_15:\n      tag_17\n      jump\t// in\n    tag_14:\n      mload(0x40)\n      tag_18\n      swap3\n      swap2\n      swap1\n      tag_19\n      jump\t// in\n    tag_18:\n      mload(0x40)\n      dup1\n      swap2\n      sub\n      swap1\n      return\n        /* \"contracts/misc/WalletBalanceProvider.sol\":2351:2777  function batchBalanceOf(address[] calldata users, address[] calldata tokens)... */\n    tag_4:\n      callvalue\n      dup1\n      iszero\n      tag_20\n      jumpi\n      0x00\n      dup1\n      revert\n    tag_20:\n      pop\n      tag_21\n      tag_22\n      calldatasize\n      0x04\n      tag_23\n      jump\t// in\n    tag_22:\n      tag_24\n      jump\t// in\n    tag_21:\n      mload(0x40)\n      tag_18\n      swap2\n      swap1\n      tag_26\n      jump\t// in\n        /* \"contracts/misc/WalletBalanceProvider.sol\":1751:2076  function balanceOf(address user, address token) public view returns (uint256) {... */\n    tag_5:\n      callvalue\n      dup1\n      iszero\n      tag_27\n      jumpi\n      0x00\n      dup1\n      revert\n    tag_27:\n      pop\n      tag_28\n      tag_29\n      calldatasize\n      0x04\n      tag_16\n      jump\t// in\n    tag_29:\n      tag_30\n      jump\t// in\n    tag_28:\n      mload(0x40)\n      tag_18\n      swap2\n      swap1\n      tag_32\n      jump\t// in\n        /* \"contracts/dependencies/openzeppelin/contracts/Address.sol\":686:1272  function isContract(address account) internal view returns (bool) {... */\n    tag_9:\n        /* \"contracts/dependencies/openzeppelin/contracts/Address.sol\":746:750  bool */\n      0x00\n        /* \"contracts/dependencies/openzeppelin/contracts/Address.sol\":1185:1205  extcodehash(account) */\n      dup2\n      extcodehash\n        /* \"contracts/dependencies/openzeppelin/contracts/Address.sol\":1032:1098  0xc5d2460186f7233c927e7db2dcc703c0e500b653ca82273b7bfad8045d85a470 */\n      0xc5d2460186f7233c927e7db2dcc703c0e500b653ca82273b7bfad8045d85a470\n        /* \"contracts/dependencies/openzeppelin/contracts/Address.sol\":1224:1247  codehash != accountHash */\n      dup2\n      dup2\n      eq\n      dup1\n      iszero\n      swap1\n        /* \"contracts/dependencies/openzeppelin/contracts/Address.sol\":1224:1266  codehash != accountHash && codehash != 0x0 */\n      tag_34\n      jumpi\n      pop\n        /* \"contracts/dependencies/openzeppelin/contracts/Address.sol\":1251:1266  codehash != 0x0 */\n      dup2\n      iszero\n      iszero\n        /* \"contracts/dependencies/openzeppelin/contracts/Address.sol\":1224:1266  codehash != accountHash && codehash != 0x0 */\n    tag_34:\n        /* \"contracts/dependencies/openzeppelin/contracts/Address.sol\":1216:1267  return (codehash != accountHash && codehash != 0x0) */\n      swap5\n        /* \"contracts/dependencies/openzeppelin/contracts/Address.sol\":686:1272  function isContract(address account) internal view returns (bool) {... */\n      swap4\n      pop\n      pop\n      pop\n      pop\n      jump\t// out\n        /* \"contracts/misc/WalletBalanceProvider.sol\":2875:3947  function getUserWalletBalances(address provider, address user)... */\n    tag_17:\n        /* \"contracts/misc/WalletBalanceProvider.sol\":2973:2989  address[] memory */\n      0x60\n        /* \"contracts/misc/WalletBalanceProvider.sol\":2991:3007  uint256[] memory */\n      dup1\n        /* \"contracts/misc/WalletBalanceProvider.sol\":3017:3034  ILendingPool pool */\n      0x00\n        /* \"contracts/misc/WalletBalanceProvider.sol\":3080:3088  provider */\n      dup5\n      sub(shl(0xa0, 0x01), 0x01)\n        /* \"contracts/misc/WalletBalanceProvider.sol\":3050:3104  ILendingPoolAddressesProvider(provider).getLendingPool */\n      and\n      0x0261bf8b\n        /* \"contracts/misc/WalletBalanceProvider.sol\":3050:3106  ILendingPoolAddressesProvider(provider).getLendingPool() */\n      mload(0x40)\n      dup2\n      0xffffffff\n      and\n      0xe0\n      shl\n      dup2\n      mstore\n      0x04\n      add\n      0x20\n      mload(0x40)\n      dup1\n      dup4\n      sub\n      dup2\n      dup7\n      dup1\n      extcodesize\n      iszero\n      dup1\n      iszero\n      tag_36\n      jumpi\n      0x00\n      dup1\n      revert\n    tag_36:\n      pop\n      gas\n      staticcall\n      iszero\n      dup1\n      iszero\n      tag_38\n      jumpi\n      returndatasize\n      0x00\n      dup1\n      returndatacopy\n      revert(0x00, returndatasize)\n    tag_38:\n      pop\n      pop\n      pop\n      pop\n      mload(0x40)\n      returndatasize\n      not(0x1f)\n      0x1f\n      dup3\n      add\n      and\n      dup3\n      add\n      dup1\n      0x40\n      mstore\n      pop\n      dup2\n      add\n      swap1\n      tag_39\n      swap2\n      swap1\n      tag_40\n      jump\t// in\n    tag_39:\n        /* \"contracts/misc/WalletBalanceProvider.sol\":3017:3107  ILendingPool pool = ILendingPool(ILendingPoolAddressesProvider(provider).getLendingPool()) */\n      swap1\n      pop\n        /* \"contracts/misc/WalletBalanceProvider.sol\":3114:3139  address[] memory reserves */\n      0x60\n        /* \"contracts/misc/WalletBalanceProvider.sol\":3142:3146  pool */\n      dup2\n      sub(shl(0xa0, 0x01), 0x01)\n        /* \"contracts/misc/WalletBalanceProvider.sol\":3142:3162  pool.getReservesList */\n      and\n      0xd1946dbc\n        /* \"contracts/misc/WalletBalanceProvider.sol\":3142:3164  pool.getReservesList() */\n      mload(0x40)\n      dup2\n      0xffffffff\n      and\n      0xe0\n      shl\n      dup2\n      mstore\n      0x04\n      add\n      0x00\n      mload(0x40)\n      dup1\n      dup4\n      sub\n      dup2\n      dup7\n      dup1\n      extcodesize\n      iszero\n      dup1\n      iszero\n      tag_41\n      jumpi\n      0x00\n      dup1\n      revert\n    tag_41:\n      pop\n      gas\n      staticcall\n      iszero\n      dup1\n      iszero\n      tag_43\n      jumpi\n      returndatasize\n      0x00\n      dup1\n      returndatacopy\n      revert(0x00, returndatasize)\n    tag_43:\n      pop\n      pop\n      pop\n      pop\n      mload(0x40)\n      returndatasize\n      0x00\n      dup3\n      returndatacopy\n      0x1f\n      returndatasize\n      swap1\n      dup2\n      add\n      not(0x1f)\n      and\n      dup3\n      add\n      0x40\n      mstore\n      tag_44\n      swap2\n      swap1\n      dup2\n      add\n      swap1\n      tag_45\n      jump\t// in\n    tag_44:\n        /* \"contracts/misc/WalletBalanceProvider.sol\":3114:3164  address[] memory reserves = pool.getReservesList() */\n      swap1\n      pop\n        /* \"contracts/misc/WalletBalanceProvider.sol\":3170:3202  address[] memory reservesWithEth */\n      0x60\n        /* \"contracts/misc/WalletBalanceProvider.sol\":3219:3227  reserves */\n      dup2\n        /* \"contracts/misc/WalletBalanceProvider.sol\":3219:3234  reserves.length */\n      mload\n        /* \"contracts/misc/WalletBalanceProvider.sol\":3237:3238  1 */\n      0x01\n        /* \"contracts/misc/WalletBalanceProvider.sol\":3219:3238  reserves.length + 1 */\n      add\n        /* \"contracts/misc/WalletBalanceProvider.sol\":3205:3239  new address[](reserves.length + 1) */\n      0xffffffffffffffff\n      dup2\n      gt\n      dup1\n      iszero\n      tag_46\n      jumpi\n      0x00\n      dup1\n      revert\n    tag_46:\n      pop\n      mload(0x40)\n      swap1\n      dup1\n      dup3\n      mstore\n      dup1\n      0x20\n      mul\n      0x20\n      add\n      dup3\n      add\n      0x40\n      mstore\n      dup1\n      iszero\n      tag_47\n      jumpi\n      dup2\n      0x20\n      add\n      0x20\n      dup3\n      mul\n      dup1\n      calldatasize\n      dup4\n      calldatacopy\n      add\n      swap1\n      pop\n    tag_47:\n      pop\n        /* \"contracts/misc/WalletBalanceProvider.sol\":3170:3239  address[] memory reservesWithEth = new address[](reserves.length + 1) */\n      swap1\n      pop\n        /* \"contracts/misc/WalletBalanceProvider.sol\":3250:3259  uint256 i */\n      0x00\n        /* \"contracts/misc/WalletBalanceProvider.sol\":3245:3338  for (uint256 i = 0; i < reserves.length; i++) {... */\n    tag_48:\n        /* \"contracts/misc/WalletBalanceProvider.sol\":3269:3277  reserves */\n      dup3\n        /* \"contracts/misc/WalletBalanceProvider.sol\":3269:3284  reserves.length */\n      mload\n        /* \"contracts/misc/WalletBalanceProvider.sol\":3265:3266  i */\n      dup2\n        /* \"contracts/misc/WalletBalanceProvider.sol\":3265:3284  i < reserves.length */\n      lt\n        /* \"contracts/misc/WalletBalanceProvider.sol\":3245:3338  for (uint256 i = 0; i < reserves.length; i++) {... */\n      iszero\n      tag_49\n      jumpi\n        /* \"contracts/misc/WalletBalanceProvider.sol\":3320:3328  reserves */\n      dup3\n        /* \"contracts/misc/WalletBalanceProvider.sol\":3329:3330  i */\n      dup2\n        /* \"contracts/misc/WalletBalanceProvider.sol\":3320:3331  reserves[i] */\n      dup2\n      mload\n      dup2\n      lt\n      tag_51\n      jumpi\n      invalid\n    tag_51:\n      0x20\n      mul\n      0x20\n      add\n      add\n      mload\n        /* \"contracts/misc/WalletBalanceProvider.sol\":3299:3314  reservesWithEth */\n      dup3\n        /* \"contracts/misc/WalletBalanceProvider.sol\":3315:3316  i */\n      dup3\n        /* \"contracts/misc/WalletBalanceProvider.sol\":3299:3317  reservesWithEth[i] */\n      dup2\n      mload\n      dup2\n      lt\n      tag_52\n      jumpi\n      invalid\n    tag_52:\n      sub(shl(0xa0, 0x01), 0x01)\n        /* \"contracts/misc/WalletBalanceProvider.sol\":3299:3331  reservesWithEth[i] = reserves[i] */\n      swap1\n      swap3\n      and\n        /* \"contracts/misc/WalletBalanceProvider.sol\":3299:3317  reservesWithEth[i] */\n      0x20\n      swap3\n      dup4\n      mul\n      swap2\n      swap1\n      swap2\n      add\n      swap1\n      swap2\n      add\n        /* \"contracts/misc/WalletBalanceProvider.sol\":3299:3331  reservesWithEth[i] = reserves[i] */\n      mstore\n        /* \"contracts/misc/WalletBalanceProvider.sol\":3286:3289  i++ */\n      0x01\n      add\n        /* \"contracts/misc/WalletBalanceProvider.sol\":3245:3338  for (uint256 i = 0; i < reserves.length; i++) {... */\n      jump(tag_48)\n    tag_49:\n      pop\n        /* \"contracts/misc/WalletBalanceProvider.sol\":1323:1365  0xEeeeeEeeeEeEeeEeEeEeeEEEeeeeEeeeeeeeEEeE */\n      0xeeeeeeeeeeeeeeeeeeeeeeeeeeeeeeeeeeeeeeee\n        /* \"contracts/misc/WalletBalanceProvider.sol\":3343:3358  reservesWithEth */\n      dup2\n        /* \"contracts/misc/WalletBalanceProvider.sol\":3359:3367  reserves */\n      dup4\n        /* \"contracts/misc/WalletBalanceProvider.sol\":3359:3374  reserves.length */\n      mload\n        /* \"contracts/misc/WalletBalanceProvider.sol\":3343:3375  reservesWithEth[reserves.length] */\n      dup2\n      mload\n      dup2\n      lt\n      tag_53\n      jumpi\n      invalid\n    tag_53:\n      0x20\n      mul\n      0x20\n      add\n      add\n        /* \"contracts/misc/WalletBalanceProvider.sol\":3343:3394  reservesWithEth[reserves.length] = MOCK_ETH_ADDRESS */\n      swap1\n      sub(shl(0xa0, 0x01), 0x01)\n      and\n      swap1\n      dup2\n      sub(shl(0xa0, 0x01), 0x01)\n      and\n      dup2\n      mstore\n      pop\n      pop\n        /* \"contracts/misc/WalletBalanceProvider.sol\":3401:3426  uint256[] memory balances */\n      0x60\n        /* \"contracts/misc/WalletBalanceProvider.sol\":3443:3458  reservesWithEth */\n      dup2\n        /* \"contracts/misc/WalletBalanceProvider.sol\":3443:3465  reservesWithEth.length */\n      mload\n        /* \"contracts/misc/WalletBalanceProvider.sol\":3429:3466  new uint256[](reservesWithEth.length) */\n      0xffffffffffffffff\n      dup2\n      gt\n      dup1\n      iszero\n      tag_54\n      jumpi\n      0x00\n      dup1\n      revert\n    tag_54:\n      pop\n      mload(0x40)\n      swap1\n      dup1\n      dup3\n      mstore\n      dup1\n      0x20\n      mul\n      0x20\n      add\n      dup3\n      add\n      0x40\n      mstore\n      dup1\n      iszero\n      tag_55\n      jumpi\n      dup2\n      0x20\n      add\n      0x20\n      dup3\n      mul\n      dup1\n      calldatasize\n      dup4\n      calldatacopy\n      add\n      swap1\n      pop\n    tag_55:\n      pop\n        /* \"contracts/misc/WalletBalanceProvider.sol\":3401:3466  uint256[] memory balances = new uint256[](reservesWithEth.length) */\n      swap1\n      pop\n        /* \"contracts/misc/WalletBalanceProvider.sol\":3478:3487  uint256 j */\n      0x00\n        /* \"contracts/misc/WalletBalanceProvider.sol\":3473:3835  for (uint256 j = 0; j < reserves.length; j++) {... */\n    tag_56:\n        /* \"contracts/misc/WalletBalanceProvider.sol\":3497:3505  reserves */\n      dup4\n        /* \"contracts/misc/WalletBalanceProvider.sol\":3497:3512  reserves.length */\n      mload\n        /* \"contracts/misc/WalletBalanceProvider.sol\":3493:3494  j */\n      dup2\n        /* \"contracts/misc/WalletBalanceProvider.sol\":3493:3512  j < reserves.length */\n      lt\n        /* \"contracts/misc/WalletBalanceProvider.sol\":3473:3835  for (uint256 j = 0; j < reserves.length; j++) {... */\n      iszero\n      tag_57\n      jumpi\n        /* \"contracts/misc/WalletBalanceProvider.sol\":3527:3581  DataTypes.ReserveConfigurationMap memory configuration */\n      tag_59\n      tag_60\n      jump\t// in\n    tag_59:\n        /* \"contracts/misc/WalletBalanceProvider.sol\":3592:3596  pool */\n      dup6\n      sub(shl(0xa0, 0x01), 0x01)\n        /* \"contracts/misc/WalletBalanceProvider.sol\":3592:3613  pool.getConfiguration */\n      and\n      0xc44b11f7\n        /* \"contracts/misc/WalletBalanceProvider.sol\":3614:3629  reservesWithEth */\n      dup6\n        /* \"contracts/misc/WalletBalanceProvider.sol\":3630:3631  j */\n      dup5\n        /* \"contracts/misc/WalletBalanceProvider.sol\":3614:3632  reservesWithEth[j] */\n      dup2\n      mload\n      dup2\n      lt\n      tag_61\n      jumpi\n      invalid\n    tag_61:\n      0x20\n      mul\n      0x20\n      add\n      add\n      mload\n        /* \"contracts/misc/WalletBalanceProvider.sol\":3592:3633  pool.getConfiguration(reservesWithEth[j]) */\n      mload(0x40)\n      dup3\n      0xffffffff\n      and\n      0xe0\n      shl\n      dup2\n      mstore\n      0x04\n      add\n      tag_62\n      swap2\n      swap1\n      tag_63\n      jump\t// in\n    tag_62:\n      0x20\n      mload(0x40)\n      dup1\n      dup4\n      sub\n      dup2\n      dup7\n      dup1\n      extcodesize\n      iszero\n      dup1\n      iszero\n      tag_64\n      jumpi\n      0x00\n      dup1\n      revert\n    tag_64:\n      pop\n      gas\n      staticcall\n      iszero\n      dup1\n      iszero\n      tag_66\n      jumpi\n      returndatasize\n      0x00\n      dup1\n      returndatacopy\n      revert(0x00, returndatasize)\n    tag_66:\n      pop\n      pop\n      pop\n      pop\n      mload(0x40)\n      returndatasize\n      not(0x1f)\n      0x1f\n      dup3\n      add\n      and\n      dup3\n      add\n      dup1\n      0x40\n      mstore\n      pop\n      dup2\n      add\n      swap1\n      tag_67\n      swap2\n      swap1\n      tag_68\n      jump\t// in\n    tag_67:\n        /* \"contracts/misc/WalletBalanceProvider.sol\":3527:3633  DataTypes.ReserveConfigurationMap memory configuration =... */\n      swap1\n      pop\n        /* \"contracts/misc/WalletBalanceProvider.sol\":3643:3656  bool isActive */\n      0x00\n        /* \"contracts/misc/WalletBalanceProvider.sol\":3666:3696  configuration.getFlagsMemory() */\n      tag_69\n        /* \"contracts/misc/WalletBalanceProvider.sol\":3666:3679  configuration */\n      dup3\n        /* \"contracts/misc/WalletBalanceProvider.sol\":3666:3694  configuration.getFlagsMemory */\n      tag_70\n        /* \"contracts/misc/WalletBalanceProvider.sol\":3666:3696  configuration.getFlagsMemory() */\n      jump\t// in\n    tag_69:\n        /* \"contracts/misc/WalletBalanceProvider.sol\":3642:3696  (bool isActive, , , ) = configuration.getFlagsMemory() */\n      pop\n      pop\n      pop\n      swap1\n      pop\n        /* \"contracts/misc/WalletBalanceProvider.sol\":3710:3718  isActive */\n      dup1\n        /* \"contracts/misc/WalletBalanceProvider.sol\":3705:3772  if (!isActive) {... */\n      tag_71\n      jumpi\n        /* \"contracts/misc/WalletBalanceProvider.sol\":3744:3745  0 */\n      0x00\n        /* \"contracts/misc/WalletBalanceProvider.sol\":3730:3738  balances */\n      dup5\n        /* \"contracts/misc/WalletBalanceProvider.sol\":3739:3740  j */\n      dup5\n        /* \"contracts/misc/WalletBalanceProvider.sol\":3730:3741  balances[j] */\n      dup2\n      mload\n      dup2\n      lt\n      tag_72\n      jumpi\n      invalid\n    tag_72:\n      0x20\n      mul\n      0x20\n      add\n      add\n        /* \"contracts/misc/WalletBalanceProvider.sol\":3730:3745  balances[j] = 0 */\n      dup2\n      dup2\n      mstore\n      pop\n      pop\n        /* \"contracts/misc/WalletBalanceProvider.sol\":3755:3763  continue */\n      pop\n      pop\n      jump(tag_58)\n        /* \"contracts/misc/WalletBalanceProvider.sol\":3705:3772  if (!isActive) {... */\n    tag_71:\n        /* \"contracts/misc/WalletBalanceProvider.sol\":3793:3828  balanceOf(user, reservesWithEth[j]) */\n      tag_73\n        /* \"contracts/misc/WalletBalanceProvider.sol\":3803:3807  user */\n      dup11\n        /* \"contracts/misc/WalletBalanceProvider.sol\":3809:3824  reservesWithEth */\n      dup7\n        /* \"contracts/misc/WalletBalanceProvider.sol\":3825:3826  j */\n      dup6\n        /* \"contracts/misc/WalletBalanceProvider.sol\":3809:3827  reservesWithEth[j] */\n      dup2\n      mload\n      dup2\n      lt\n      tag_74\n      jumpi\n      invalid\n    tag_74:\n      0x20\n      mul\n      0x20\n      add\n      add\n      mload\n        /* \"contracts/misc/WalletBalanceProvider.sol\":3793:3802  balanceOf */\n      tag_30\n        /* \"contracts/misc/WalletBalanceProvider.sol\":3793:3828  balanceOf(user, reservesWithEth[j]) */\n      jump\t// in\n    tag_73:\n        /* \"contracts/misc/WalletBalanceProvider.sol\":3779:3787  balances */\n      dup5\n        /* \"contracts/misc/WalletBalanceProvider.sol\":3788:3789  j */\n      dup5\n        /* \"contracts/misc/WalletBalanceProvider.sol\":3779:3790  balances[j] */\n      dup2\n      mload\n      dup2\n      lt\n      tag_75\n      jumpi\n      invalid\n    tag_75:\n      0x20\n      mul\n      0x20\n      add\n      add\n        /* \"contracts/misc/WalletBalanceProvider.sol\":3779:3828  balances[j] = balanceOf(user, reservesWithEth[j]) */\n      dup2\n      dup2\n      mstore\n      pop\n      pop\n        /* \"contracts/misc/WalletBalanceProvider.sol\":3473:3835  for (uint256 j = 0; j < reserves.length; j++) {... */\n      pop\n      pop\n    tag_58:\n        /* \"contracts/misc/WalletBalanceProvider.sol\":3514:3517  j++ */\n      0x01\n      add\n        /* \"contracts/misc/WalletBalanceProvider.sol\":3473:3835  for (uint256 j = 0; j < reserves.length; j++) {... */\n      jump(tag_56)\n    tag_57:\n      pop\n        /* \"contracts/misc/WalletBalanceProvider.sol\":3868:3901  balanceOf(user, MOCK_ETH_ADDRESS) */\n      tag_76\n        /* \"contracts/misc/WalletBalanceProvider.sol\":3878:3882  user */\n      dup8\n        /* \"contracts/misc/WalletBalanceProvider.sol\":1323:1365  0xEeeeeEeeeEeEeeEeEeEeeEEEeeeeEeeeeeeeEEeE */\n      0xeeeeeeeeeeeeeeeeeeeeeeeeeeeeeeeeeeeeeeee\n        /* \"contracts/misc/WalletBalanceProvider.sol\":3868:3877  balanceOf */\n      tag_30\n        /* \"contracts/misc/WalletBalanceProvider.sol\":3868:3901  balanceOf(user, MOCK_ETH_ADDRESS) */\n      jump\t// in\n    tag_76:\n        /* \"contracts/misc/WalletBalanceProvider.sol\":3840:3848  balances */\n      dup2\n        /* \"contracts/misc/WalletBalanceProvider.sol\":3849:3857  reserves */\n      dup5\n        /* \"contracts/misc/WalletBalanceProvider.sol\":3849:3864  reserves.length */\n      mload\n        /* \"contracts/misc/WalletBalanceProvider.sol\":3840:3865  balances[reserves.length] */\n      dup2\n      mload\n      dup2\n      lt\n      tag_77\n      jumpi\n      invalid\n    tag_77:\n      0x20\n      swap1\n      dup2\n      mul\n      swap2\n      swap1\n      swap2\n      add\n      add\n        /* \"contracts/misc/WalletBalanceProvider.sol\":3840:3901  balances[reserves.length] = balanceOf(user, MOCK_ETH_ADDRESS) */\n      mstore\n        /* \"contracts/misc/WalletBalanceProvider.sol\":3916:3931  reservesWithEth */\n      swap1\n      swap5\n      pop\n        /* \"contracts/misc/WalletBalanceProvider.sol\":3933:3941  balances */\n      swap3\n      pop\n      pop\n      pop\n        /* \"contracts/misc/WalletBalanceProvider.sol\":2875:3947  function getUserWalletBalances(address provider, address user)... */\n    tag_35:\n      swap3\n      pop\n      swap3\n      swap1\n      pop\n      jump\t// out\n        /* \"contracts/misc/WalletBalanceProvider.sol\":2351:2777  function batchBalanceOf(address[] calldata users, address[] calldata tokens)... */\n    tag_24:\n        /* \"contracts/misc/WalletBalanceProvider.sol\":2463:2479  uint256[] memory */\n      0x60\n      dup1\n        /* \"contracts/misc/WalletBalanceProvider.sol\":2531:2559  users.length * tokens.length */\n      dup5\n      dup4\n      mul\n        /* \"contracts/misc/WalletBalanceProvider.sol\":2517:2560  new uint256[](users.length * tokens.length) */\n      0xffffffffffffffff\n      dup2\n      gt\n      dup1\n      iszero\n      tag_79\n      jumpi\n      0x00\n      dup1\n      revert\n    tag_79:\n      pop\n      mload(0x40)\n      swap1\n      dup1\n      dup3\n      mstore\n      dup1\n      0x20\n      mul\n      0x20\n      add\n      dup3\n      add\n      0x40\n      mstore\n      dup1\n      iszero\n      tag_80\n      jumpi\n      dup2\n      0x20\n      add\n      0x20\n      dup3\n      mul\n      dup1\n      calldatasize\n      dup4\n      calldatacopy\n      add\n      swap1\n      pop\n    tag_80:\n      pop\n        /* \"contracts/misc/WalletBalanceProvider.sol\":2489:2560  uint256[] memory balances = new uint256[](users.length * tokens.length) */\n      swap1\n      pop\n        /* \"contracts/misc/WalletBalanceProvider.sol\":2572:2581  uint256 i */\n      0x00\n        /* \"contracts/misc/WalletBalanceProvider.sol\":2567:2751  for (uint256 i = 0; i < users.length; i++) {... */\n    tag_81:\n        /* \"contracts/misc/WalletBalanceProvider.sol\":2587:2603  i < users.length */\n      dup6\n      dup2\n      lt\n        /* \"contracts/misc/WalletBalanceProvider.sol\":2567:2751  for (uint256 i = 0; i < users.length; i++) {... */\n      iszero\n      tag_82\n      jumpi\n        /* \"contracts/misc/WalletBalanceProvider.sol\":2623:2632  uint256 j */\n      0x00\n        /* \"contracts/misc/WalletBalanceProvider.sol\":2618:2745  for (uint256 j = 0; j < tokens.length; j++) {... */\n    tag_84:\n        /* \"contracts/misc/WalletBalanceProvider.sol\":2638:2655  j < tokens.length */\n      dup5\n      dup2\n      lt\n        /* \"contracts/misc/WalletBalanceProvider.sol\":2618:2745  for (uint256 j = 0; j < tokens.length; j++) {... */\n      iszero\n      tag_85\n      jumpi\n        /* \"contracts/misc/WalletBalanceProvider.sol\":2706:2736  balanceOf(users[i], tokens[j]) */\n      tag_87\n        /* \"contracts/misc/WalletBalanceProvider.sol\":2716:2721  users */\n      dup9\n      dup9\n        /* \"contracts/misc/WalletBalanceProvider.sol\":2722:2723  i */\n      dup5\n        /* \"contracts/misc/WalletBalanceProvider.sol\":2716:2724  users[i] */\n      dup2\n      dup2\n      lt\n      tag_88\n      jumpi\n      invalid\n    tag_88:\n      swap1\n      pop\n      0x20\n      mul\n      add\n      0x20\n      dup2\n      add\n      swap1\n      tag_89\n      swap2\n      swap1\n      tag_90\n      jump\t// in\n    tag_89:\n        /* \"contracts/misc/WalletBalanceProvider.sol\":2726:2732  tokens */\n      dup8\n      dup8\n        /* \"contracts/misc/WalletBalanceProvider.sol\":2733:2734  j */\n      dup5\n        /* \"contracts/misc/WalletBalanceProvider.sol\":2726:2735  tokens[j] */\n      dup2\n      dup2\n      lt\n      tag_91\n      jumpi\n      invalid\n    tag_91:\n      swap1\n      pop\n      0x20\n      mul\n      add\n      0x20\n      dup2\n      add\n      swap1\n      tag_29\n      swap2\n      swap1\n      tag_90\n      jump\t// in\n        /* \"contracts/misc/WalletBalanceProvider.sol\":2706:2736  balanceOf(users[i], tokens[j]) */\n    tag_87:\n        /* \"contracts/misc/WalletBalanceProvider.sol\":2672:2703  balances[i * tokens.length + j] */\n      dup4\n      mload\n        /* \"contracts/misc/WalletBalanceProvider.sol\":2672:2680  balances */\n      dup5\n      swap1\n        /* \"contracts/misc/WalletBalanceProvider.sol\":2681:2698  i * tokens.length */\n      dup5\n      dup9\n      mul\n        /* \"contracts/misc/WalletBalanceProvider.sol\":2681:2702  i * tokens.length + j */\n      dup5\n      add\n      swap1\n        /* \"contracts/misc/WalletBalanceProvider.sol\":2672:2703  balances[i * tokens.length + j] */\n      dup2\n      lt\n      tag_93\n      jumpi\n      invalid\n    tag_93:\n      0x20\n      swap1\n      dup2\n      mul\n      swap2\n      swap1\n      swap2\n      add\n      add\n        /* \"contracts/misc/WalletBalanceProvider.sol\":2672:2736  balances[i * tokens.length + j] = balanceOf(users[i], tokens[j]) */\n      mstore\n        /* \"contracts/misc/WalletBalanceProvider.sol\":2657:2660  j++ */\n      0x01\n      add\n        /* \"contracts/misc/WalletBalanceProvider.sol\":2618:2745  for (uint256 j = 0; j < tokens.length; j++) {... */\n      jump(tag_84)\n    tag_85:\n      pop\n        /* \"contracts/misc/WalletBalanceProvider.sol\":2605:2608  i++ */\n      0x01\n      add\n        /* \"contracts/misc/WalletBalanceProvider.sol\":2567:2751  for (uint256 i = 0; i < users.length; i++) {... */\n      jump(tag_81)\n    tag_82:\n      pop\n        /* \"contracts/misc/WalletBalanceProvider.sol\":2764:2772  balances */\n      swap6\n        /* \"contracts/misc/WalletBalanceProvider.sol\":2351:2777  function batchBalanceOf(address[] calldata users, address[] calldata tokens)... */\n      swap5\n      pop\n      pop\n      pop\n      pop\n      pop\n      jump\t// out\n        /* \"contracts/misc/WalletBalanceProvider.sol\":1751:2076  function balanceOf(address user, address token) public view returns (uint256) {... */\n    tag_30:\n        /* \"contracts/misc/WalletBalanceProvider.sol\":1820:1827  uint256 */\n      0x00\n      sub(shl(0xa0, 0x01), 0x01)\n        /* \"contracts/misc/WalletBalanceProvider.sol\":1839:1864  token == MOCK_ETH_ADDRESS */\n      dup3\n      and\n        /* \"contracts/misc/WalletBalanceProvider.sol\":1323:1365  0xEeeeeEeeeEeEeeEeEeEeeEEEeeeeEeeeeeeeEEeE */\n      0xeeeeeeeeeeeeeeeeeeeeeeeeeeeeeeeeeeeeeeee\n        /* \"contracts/misc/WalletBalanceProvider.sol\":1839:1864  token == MOCK_ETH_ADDRESS */\n      eq\n        /* \"contracts/misc/WalletBalanceProvider.sol\":1835:2043  if (token == MOCK_ETH_ADDRESS) {... */\n      iszero\n      tag_95\n      jumpi\n      pop\n      sub(shl(0xa0, 0x01), 0x01)\n        /* \"contracts/misc/WalletBalanceProvider.sol\":1881:1893  user.balance */\n      dup3\n      and\n      balance\n        /* \"contracts/misc/WalletBalanceProvider.sol\":1874:1893  return user.balance */\n      jump(tag_94)\n        /* \"contracts/misc/WalletBalanceProvider.sol\":1835:2043  if (token == MOCK_ETH_ADDRESS) {... */\n    tag_95:\n        /* \"contracts/misc/WalletBalanceProvider.sol\":1972:1990  token.isContract() */\n      tag_97\n        /* \"contracts/misc/WalletBalanceProvider.sol\":1972:1977  token */\n      dup3\n      sub(shl(0xa0, 0x01), 0x01)\n        /* \"contracts/misc/WalletBalanceProvider.sol\":1972:1988  token.isContract */\n      and\n      tag_9\n        /* \"contracts/misc/WalletBalanceProvider.sol\":1972:1990  token.isContract() */\n      jump\t// in\n    tag_97:\n        /* \"contracts/misc/WalletBalanceProvider.sol\":1968:2043  if (token.isContract()) {... */\n      iszero\n      tag_98\n      jumpi\n        /* \"contracts/misc/WalletBalanceProvider.sol\":2007:2036  IERC20(token).balanceOf(user) */\n      mload(0x40)\n      shl(0xe0, 0x70a08231)\n      dup2\n      mstore\n      sub(shl(0xa0, 0x01), 0x01)\n        /* \"contracts/misc/WalletBalanceProvider.sol\":2007:2030  IERC20(token).balanceOf */\n      dup4\n      and\n      swap1\n      0x70a08231\n      swap1\n        /* \"contracts/misc/WalletBalanceProvider.sol\":2007:2036  IERC20(token).balanceOf(user) */\n      tag_99\n      swap1\n        /* \"contracts/misc/WalletBalanceProvider.sol\":2031:2035  user */\n      dup7\n      swap1\n        /* \"contracts/misc/WalletBalanceProvider.sol\":2007:2036  IERC20(token).balanceOf(user) */\n      0x04\n      add\n      tag_63\n      jump\t// in\n    tag_99:\n      0x20\n      mload(0x40)\n      dup1\n      dup4\n      sub\n      dup2\n      dup7\n      dup1\n      extcodesize\n      iszero\n      dup1\n      iszero\n      tag_100\n      jumpi\n      0x00\n      dup1\n      revert\n    tag_100:\n      pop\n      gas\n      staticcall\n      iszero\n      dup1\n      iszero\n      tag_102\n      jumpi\n      returndatasize\n      0x00\n      dup1\n      returndatacopy\n      revert(0x00, returndatasize)\n    tag_102:\n      pop\n      pop\n      pop\n      pop\n      mload(0x40)\n      returndatasize\n      not(0x1f)\n      0x1f\n      dup3\n      add\n      and\n      dup3\n      add\n      dup1\n      0x40\n      mstore\n      pop\n      dup2\n      add\n      swap1\n      tag_103\n      swap2\n      swap1\n      tag_104\n      jump\t// in\n    tag_103:\n        /* \"contracts/misc/WalletBalanceProvider.sol\":2000:2036  return IERC20(token).balanceOf(user) */\n      swap1\n      pop\n      jump(tag_94)\n        /* \"contracts/misc/WalletBalanceProvider.sol\":1968:2043  if (token.isContract()) {... */\n    tag_98:\n        /* \"contracts/misc/WalletBalanceProvider.sol\":2048:2071  revert('INVALID_TOKEN') */\n      mload(0x40)\n      shl(0xe5, 0x461bcd)\n      dup2\n      mstore\n      0x04\n      add\n      tag_11\n      swap1\n      tag_106\n      jump\t// in\n        /* \"contracts/misc/WalletBalanceProvider.sol\":1751:2076  function balanceOf(address user, address token) public view returns (uint256) {... */\n    tag_94:\n      swap3\n      swap2\n      pop\n      pop\n      jump\t// out\n        /* \"contracts/protocol/libraries/configuration/ReserveConfiguration.sol\":11756:12111  function getFlagsMemory(DataTypes.ReserveConfigurationMap memory self)... */\n    tag_70:\n        /* \"contracts/protocol/libraries/configuration/ReserveConfiguration.sol\":11940:11949  self.data */\n      mload\n        /* \"contracts/protocol/libraries/configuration/ReserveConfiguration.sol\":11952:11964  ~ACTIVE_MASK */\n      0x0100000000000000\n        /* \"contracts/protocol/libraries/configuration/ReserveConfiguration.sol\":11940:11964  self.data & ~ACTIVE_MASK */\n      dup2\n      and\n        /* \"contracts/protocol/libraries/configuration/ReserveConfiguration.sol\":11939:11970  (self.data & ~ACTIVE_MASK) != 0 */\n      iszero\n      iszero\n      swap2\n        /* \"contracts/protocol/libraries/configuration/ReserveConfiguration.sol\":11991:12003  ~FROZEN_MASK */\n      0x0200000000000000\n        /* \"contracts/protocol/libraries/configuration/ReserveConfiguration.sol\":11979:12003  self.data & ~FROZEN_MASK */\n      dup3\n      and\n        /* \"contracts/protocol/libraries/configuration/ReserveConfiguration.sol\":11978:12009  (self.data & ~FROZEN_MASK) != 0 */\n      iszero\n      iszero\n      swap2\n        /* \"contracts/protocol/libraries/configuration/ReserveConfiguration.sol\":12030:12045  ~BORROWING_MASK */\n      0x0400000000000000\n        /* \"contracts/protocol/libraries/configuration/ReserveConfiguration.sol\":12018:12045  self.data & ~BORROWING_MASK */\n      dup2\n      and\n        /* \"contracts/protocol/libraries/configuration/ReserveConfiguration.sol\":12017:12051  (self.data & ~BORROWING_MASK) != 0 */\n      iszero\n      iszero\n      swap2\n        /* \"contracts/protocol/libraries/configuration/ReserveConfiguration.sol\":12072:12094  ~STABLE_BORROWING_MASK */\n      0x0800000000000000\n        /* \"contracts/protocol/libraries/configuration/ReserveConfiguration.sol\":12060:12094  self.data & ~STABLE_BORROWING_MASK */\n      swap1\n      swap2\n      and\n        /* \"contracts/protocol/libraries/configuration/ReserveConfiguration.sol\":12059:12100  (self.data & ~STABLE_BORROWING_MASK) != 0 */\n      iszero\n      iszero\n      swap1\n        /* \"contracts/protocol/libraries/configuration/ReserveConfiguration.sol\":11756:12111  function getFlagsMemory(DataTypes.ReserveConfigurationMap memory self)... */\n      jump\t// out\n    tag_60:\n      mload(0x40)\n      dup1\n      0x20\n      add\n      0x40\n      mstore\n      dup1\n      0x00\n      dup2\n      mstore\n      pop\n      swap1\n      jump\t// out\n        /* \"--CODEGEN--\":142:276   */\n    tag_109:\n        /* \"--CODEGEN--\":220:233   */\n      dup1\n      mload\n        /* \"--CODEGEN--\":238:271   */\n      tag_94\n        /* \"--CODEGEN--\":220:233   */\n      dup2\n        /* \"--CODEGEN--\":238:271   */\n      tag_112\n      jump\t// in\n        /* \"--CODEGEN--\":301:653   */\n    tag_113:\n      0x00\n      dup1\n        /* \"--CODEGEN--\":431:434   */\n      dup4\n        /* \"--CODEGEN--\":424:428   */\n      0x1f\n        /* \"--CODEGEN--\":416:422   */\n      dup5\n        /* \"--CODEGEN--\":412:429   */\n      add\n        /* \"--CODEGEN--\":408:435   */\n      slt\n        /* \"--CODEGEN--\":398:400   */\n      tag_115\n      jumpi\n      dup2\n      dup3\n        /* \"--CODEGEN--\":439:451   */\n      revert\n        /* \"--CODEGEN--\":398:400   */\n    tag_115:\n      pop\n        /* \"--CODEGEN--\":469:489   */\n      dup2\n      calldataload\n        /* \"--CODEGEN--\":509:527   */\n      0xffffffffffffffff\n        /* \"--CODEGEN--\":498:528   */\n      dup2\n      gt\n        /* \"--CODEGEN--\":495:497   */\n      iszero\n      tag_116\n      jumpi\n      dup2\n      dup3\n        /* \"--CODEGEN--\":531:543   */\n      revert\n        /* \"--CODEGEN--\":495:497   */\n    tag_116:\n        /* \"--CODEGEN--\":575:579   */\n      0x20\n        /* \"--CODEGEN--\":567:573   */\n      dup4\n        /* \"--CODEGEN--\":563:580   */\n      add\n        /* \"--CODEGEN--\":551:580   */\n      swap2\n      pop\n        /* \"--CODEGEN--\":626:629   */\n      dup4\n        /* \"--CODEGEN--\":575:579   */\n      0x20\n      dup1\n        /* \"--CODEGEN--\":610:616   */\n      dup4\n        /* \"--CODEGEN--\":606:623   */\n      mul\n        /* \"--CODEGEN--\":567:573   */\n      dup6\n        /* \"--CODEGEN--\":592:624   */\n      add\n      add\n        /* \"--CODEGEN--\":589:630   */\n      gt\n        /* \"--CODEGEN--\":586:588   */\n      iszero\n      tag_35\n      jumpi\n        /* \"--CODEGEN--\":643:644   */\n      0x00\n      dup1\n        /* \"--CODEGEN--\":633:645   */\n      revert\n        /* \"--CODEGEN--\":1965:2206   */\n    tag_90:\n      0x00\n        /* \"--CODEGEN--\":2069:2071   */\n      0x20\n        /* \"--CODEGEN--\":2057:2066   */\n      dup3\n        /* \"--CODEGEN--\":2048:2055   */\n      dup5\n        /* \"--CODEGEN--\":2044:2067   */\n      sub\n        /* \"--CODEGEN--\":2040:2072   */\n      slt\n        /* \"--CODEGEN--\":2037:2039   */\n      iszero\n      tag_119\n      jumpi\n      dup1\n      dup2\n        /* \"--CODEGEN--\":2075:2087   */\n      revert\n        /* \"--CODEGEN--\":2037:2039   */\n    tag_119:\n        /* \"--CODEGEN--\":85:91   */\n      dup2\n        /* \"--CODEGEN--\":72:92   */\n      calldataload\n        /* \"--CODEGEN--\":97:130   */\n      tag_120\n        /* \"--CODEGEN--\":124:129   */\n      dup2\n        /* \"--CODEGEN--\":97:130   */\n      tag_112\n      jump\t// in\n    tag_120:\n        /* \"--CODEGEN--\":2127:2190   */\n      swap4\n        /* \"--CODEGEN--\":2031:2206   */\n      swap3\n      pop\n      pop\n      pop\n      jump\t// out\n        /* \"--CODEGEN--\":2213:2476   */\n    tag_40:\n      0x00\n        /* \"--CODEGEN--\":2328:2330   */\n      0x20\n        /* \"--CODEGEN--\":2316:2325   */\n      dup3\n        /* \"--CODEGEN--\":2307:2314   */\n      dup5\n        /* \"--CODEGEN--\":2303:2326   */\n      sub\n        /* \"--CODEGEN--\":2299:2331   */\n      slt\n        /* \"--CODEGEN--\":2296:2298   */\n      iszero\n      tag_122\n      jumpi\n      dup1\n      dup2\n        /* \"--CODEGEN--\":2334:2346   */\n      revert\n        /* \"--CODEGEN--\":2296:2298   */\n    tag_122:\n        /* \"--CODEGEN--\":226:232   */\n      dup2\n        /* \"--CODEGEN--\":220:233   */\n      mload\n        /* \"--CODEGEN--\":238:271   */\n      tag_120\n        /* \"--CODEGEN--\":265:270   */\n      dup2\n        /* \"--CODEGEN--\":238:271   */\n      tag_112\n      jump\t// in\n        /* \"--CODEGEN--\":2483:2849   */\n    tag_16:\n      0x00\n      dup1\n        /* \"--CODEGEN--\":2604:2606   */\n      0x40\n        /* \"--CODEGEN--\":2592:2601   */\n      dup4\n        /* \"--CODEGEN--\":2583:2590   */\n      dup6\n        /* \"--CODEGEN--\":2579:2602   */\n      sub\n        /* \"--CODEGEN--\":2575:2607   */\n      slt\n        /* \"--CODEGEN--\":2572:2574   */\n      iszero\n      tag_125\n      jumpi\n      dup1\n      dup2\n        /* \"--CODEGEN--\":2610:2622   */\n      revert\n        /* \"--CODEGEN--\":2572:2574   */\n    tag_125:\n        /* \"--CODEGEN--\":85:91   */\n      dup3\n        /* \"--CODEGEN--\":72:92   */\n      calldataload\n        /* \"--CODEGEN--\":97:130   */\n      tag_126\n        /* \"--CODEGEN--\":124:129   */\n      dup2\n        /* \"--CODEGEN--\":97:130   */\n      tag_112\n      jump\t// in\n    tag_126:\n        /* \"--CODEGEN--\":2662:2725   */\n      swap2\n      pop\n        /* \"--CODEGEN--\":2762:2764   */\n      0x20\n        /* \"--CODEGEN--\":2801:2823   */\n      dup4\n      add\n        /* \"--CODEGEN--\":72:92   */\n      calldataload\n        /* \"--CODEGEN--\":97:130   */\n      tag_127\n        /* \"--CODEGEN--\":72:92   */\n      dup2\n        /* \"--CODEGEN--\":97:130   */\n      tag_112\n      jump\t// in\n    tag_127:\n        /* \"--CODEGEN--\":2770:2833   */\n      dup1\n      swap2\n      pop\n      pop\n        /* \"--CODEGEN--\":2566:2849   */\n      swap3\n      pop\n      swap3\n      swap1\n      pop\n      jump\t// out\n        /* \"--CODEGEN--\":2856:3534   */\n    tag_23:\n      0x00\n      dup1\n      0x00\n      dup1\n        /* \"--CODEGEN--\":3047:3049   */\n      0x40\n        /* \"--CODEGEN--\":3035:3044   */\n      dup6\n        /* \"--CODEGEN--\":3026:3033   */\n      dup8\n        /* \"--CODEGEN--\":3022:3045   */\n      sub\n        /* \"--CODEGEN--\":3018:3050   */\n      slt\n        /* \"--CODEGEN--\":3015:3017   */\n      iszero\n      tag_129\n      jumpi\n      dup2\n      dup3\n        /* \"--CODEGEN--\":3053:3065   */\n      revert\n        /* \"--CODEGEN--\":3015:3017   */\n    tag_129:\n        /* \"--CODEGEN--\":3111:3128   */\n      dup5\n        /* \"--CODEGEN--\":3098:3129   */\n      calldataload\n        /* \"--CODEGEN--\":3149:3167   */\n      0xffffffffffffffff\n      dup1\n        /* \"--CODEGEN--\":3141:3147   */\n      dup3\n        /* \"--CODEGEN--\":3138:3168   */\n      gt\n        /* \"--CODEGEN--\":3135:3137   */\n      iszero\n      tag_130\n      jumpi\n      dup4\n      dup5\n        /* \"--CODEGEN--\":3171:3183   */\n      revert\n        /* \"--CODEGEN--\":3135:3137   */\n    tag_130:\n        /* \"--CODEGEN--\":3209:3289   */\n      tag_131\n        /* \"--CODEGEN--\":3281:3288   */\n      dup9\n        /* \"--CODEGEN--\":3272:3278   */\n      dup4\n        /* \"--CODEGEN--\":3261:3270   */\n      dup10\n        /* \"--CODEGEN--\":3257:3279   */\n      add\n        /* \"--CODEGEN--\":3209:3289   */\n      tag_113\n      jump\t// in\n    tag_131:\n        /* \"--CODEGEN--\":3191:3289   */\n      swap1\n      swap7\n      pop\n      swap5\n      pop\n        /* \"--CODEGEN--\":3354:3356   */\n      0x20\n        /* \"--CODEGEN--\":3339:3357   */\n      dup8\n      add\n        /* \"--CODEGEN--\":3326:3358   */\n      calldataload\n      swap2\n      pop\n        /* \"--CODEGEN--\":3367:3397   */\n      dup1\n      dup3\n      gt\n        /* \"--CODEGEN--\":3364:3366   */\n      iszero\n      tag_132\n      jumpi\n      dup4\n      dup5\n        /* \"--CODEGEN--\":3400:3412   */\n      revert\n        /* \"--CODEGEN--\":3364:3366   */\n    tag_132:\n      pop\n        /* \"--CODEGEN--\":3438:3518   */\n      tag_133\n        /* \"--CODEGEN--\":3510:3517   */\n      dup8\n        /* \"--CODEGEN--\":3501:3507   */\n      dup3\n        /* \"--CODEGEN--\":3490:3499   */\n      dup9\n        /* \"--CODEGEN--\":3486:3508   */\n      add\n        /* \"--CODEGEN--\":3438:3518   */\n      tag_113\n      jump\t// in\n    tag_133:\n        /* \"--CODEGEN--\":3009:3534   */\n      swap6\n      swap9\n      swap5\n      swap8\n      pop\n        /* \"--CODEGEN--\":3420:3518   */\n      swap6\n      pop\n      pop\n      pop\n      pop\n        /* \"--CODEGEN--\":3009:3534   */\n      jump\t// out\n        /* \"--CODEGEN--\":3541:3933   */\n    tag_45:\n      0x00\n        /* \"--CODEGEN--\":3681:3683   */\n      0x20\n      dup1\n        /* \"--CODEGEN--\":3669:3678   */\n      dup4\n        /* \"--CODEGEN--\":3660:3667   */\n      dup6\n        /* \"--CODEGEN--\":3656:3679   */\n      sub\n        /* \"--CODEGEN--\":3652:3684   */\n      slt\n        /* \"--CODEGEN--\":3649:3651   */\n      iszero\n      tag_135\n      jumpi\n      dup2\n      dup3\n        /* \"--CODEGEN--\":3687:3699   */\n      revert\n        /* \"--CODEGEN--\":3649:3651   */\n    tag_135:\n        /* \"--CODEGEN--\":3738:3755   */\n      dup3\n        /* \"--CODEGEN--\":3732:3756   */\n      mload\n        /* \"--CODEGEN--\":3776:3794   */\n      0xffffffffffffffff\n      dup1\n        /* \"--CODEGEN--\":3768:3774   */\n      dup3\n        /* \"--CODEGEN--\":3765:3795   */\n      gt\n        /* \"--CODEGEN--\":3762:3764   */\n      iszero\n      tag_136\n      jumpi\n      dup4\n      dup5\n        /* \"--CODEGEN--\":3798:3810   */\n      revert\n        /* \"--CODEGEN--\":3762:3764   */\n    tag_136:\n        /* \"--CODEGEN--\":3900:3906   */\n      dup2\n        /* \"--CODEGEN--\":3889:3898   */\n      dup6\n        /* \"--CODEGEN--\":3885:3907   */\n      add\n      swap2\n      pop\n        /* \"--CODEGEN--\":807:810   */\n      dup6\n        /* \"--CODEGEN--\":800:804   */\n      0x1f\n        /* \"--CODEGEN--\":792:798   */\n      dup4\n        /* \"--CODEGEN--\":788:805   */\n      add\n        /* \"--CODEGEN--\":784:811   */\n      slt\n        /* \"--CODEGEN--\":774:776   */\n      tag_137\n      jumpi\n      dup4\n      dup5\n        /* \"--CODEGEN--\":815:827   */\n      revert\n        /* \"--CODEGEN--\":774:776   */\n    tag_137:\n        /* \"--CODEGEN--\":855:861   */\n      dup2\n        /* \"--CODEGEN--\":849:862   */\n      mload\n        /* \"--CODEGEN--\":3776:3794   */\n      dup2\n        /* \"--CODEGEN--\":10207:10213   */\n      dup2\n        /* \"--CODEGEN--\":10204:10234   */\n      gt\n        /* \"--CODEGEN--\":10201:10203   */\n      iszero\n      tag_138\n      jumpi\n      dup5\n      dup6\n        /* \"--CODEGEN--\":10237:10249   */\n      revert\n        /* \"--CODEGEN--\":10201:10203   */\n    tag_138:\n        /* \"--CODEGEN--\":3681:3683   */\n      dup4\n        /* \"--CODEGEN--\":10274:10280   */\n      dup2\n        /* \"--CODEGEN--\":10270:10287   */\n      mul\n      swap2\n      pop\n        /* \"--CODEGEN--\":877:957   */\n      tag_139\n        /* \"--CODEGEN--\":3681:3683   */\n      dup5\n        /* \"--CODEGEN--\":10270:10287   */\n      dup4\n        /* \"--CODEGEN--\":10335:10350   */\n      add\n        /* \"--CODEGEN--\":877:957   */\n      tag_140\n      jump\t// in\n    tag_139:\n        /* \"--CODEGEN--\":985:1006   */\n      dup2\n      dup2\n      mstore\n        /* \"--CODEGEN--\":1042:1056   */\n      dup5\n      dup2\n      add\n      swap1\n        /* \"--CODEGEN--\":1017:1034   */\n      dup5\n      dup7\n      add\n        /* \"--CODEGEN--\":1122:1149   */\n      dup5\n      dup7\n      add\n      dup8\n      add\n        /* \"--CODEGEN--\":1119:1155   */\n      dup11\n      lt\n        /* \"--CODEGEN--\":1116:1118   */\n      iszero\n      tag_141\n      jumpi\n      dup8\n      dup9\n        /* \"--CODEGEN--\":1158:1170   */\n      revert\n        /* \"--CODEGEN--\":1116:1118   */\n    tag_141:\n      dup8\n        /* \"--CODEGEN--\":1184:1194   */\n      swap6\n      pop\n        /* \"--CODEGEN--\":1178:1395   */\n    tag_142:\n        /* \"--CODEGEN--\":1203:1209   */\n      dup4\n        /* \"--CODEGEN--\":1200:1201   */\n      dup7\n        /* \"--CODEGEN--\":1197:1210   */\n      lt\n        /* \"--CODEGEN--\":1178:1395   */\n      iszero\n      tag_144\n      jumpi\n        /* \"--CODEGEN--\":1283:1331   */\n      tag_145\n        /* \"--CODEGEN--\":1327:1330   */\n      dup11\n        /* \"--CODEGEN--\":1315:1325   */\n      dup3\n        /* \"--CODEGEN--\":1283:1331   */\n      tag_109\n      jump\t// in\n    tag_145:\n        /* \"--CODEGEN--\":1271:1332   */\n      dup4\n      mstore\n        /* \"--CODEGEN--\":1225:1226   */\n      0x01\n        /* \"--CODEGEN--\":1218:1227   */\n      swap6\n      swap1\n      swap6\n      add\n      swap5\n        /* \"--CODEGEN--\":1346:1360   */\n      swap2\n      dup7\n      add\n      swap2\n        /* \"--CODEGEN--\":1374:1388   */\n      dup7\n      add\n        /* \"--CODEGEN--\":1178:1395   */\n      jump(tag_142)\n    tag_144:\n      pop\n        /* \"--CODEGEN--\":3818:3917   */\n      swap9\n        /* \"--CODEGEN--\":3643:3933   */\n      swap8\n      pop\n      pop\n      pop\n      pop\n      pop\n      pop\n      pop\n      pop\n      jump\t// out\n        /* \"--CODEGEN--\":3940:4285   */\n    tag_68:\n      0x00\n        /* \"--CODEGEN--\":4096:4098   */\n      0x20\n        /* \"--CODEGEN--\":4084:4093   */\n      dup3\n        /* \"--CODEGEN--\":4075:4082   */\n      dup5\n        /* \"--CODEGEN--\":4071:4094   */\n      sub\n        /* \"--CODEGEN--\":4067:4099   */\n      slt\n        /* \"--CODEGEN--\":4064:4066   */\n      iszero\n      tag_147\n      jumpi\n      dup1\n      dup2\n        /* \"--CODEGEN--\":4102:4114   */\n      revert\n        /* \"--CODEGEN--\":4064:4066   */\n    tag_147:\n        /* \"--CODEGEN--\":1633:1653   */\n      tag_148\n        /* \"--CODEGEN--\":4096:4098   */\n      0x20\n        /* \"--CODEGEN--\":1633:1653   */\n      tag_140\n      jump\t// in\n    tag_148:\n        /* \"--CODEGEN--\":1902:1915   */\n      swap2\n      mload\n        /* \"--CODEGEN--\":1710:1796   */\n      dup3\n      mstore\n      pop\n        /* \"--CODEGEN--\":1717:1733   */\n      swap2\n        /* \"--CODEGEN--\":4058:4285   */\n      swap1\n      pop\n      jump\t// out\n        /* \"--CODEGEN--\":4292:4555   */\n    tag_104:\n      0x00\n        /* \"--CODEGEN--\":4407:4409   */\n      0x20\n        /* \"--CODEGEN--\":4395:4404   */\n      dup3\n        /* \"--CODEGEN--\":4386:4393   */\n      dup5\n        /* \"--CODEGEN--\":4382:4405   */\n      sub\n        /* \"--CODEGEN--\":4378:4410   */\n      slt\n        /* \"--CODEGEN--\":4375:4377   */\n      iszero\n      tag_150\n      jumpi\n      dup1\n      dup2\n        /* \"--CODEGEN--\":4413:4425   */\n      revert\n        /* \"--CODEGEN--\":4375:4377   */\n    tag_150:\n      pop\n        /* \"--CODEGEN--\":1902:1915   */\n      mload\n      swap2\n        /* \"--CODEGEN--\":4369:4555   */\n      swap1\n      pop\n      jump\t// out\n        /* \"--CODEGEN--\":5916:6606   */\n    tag_151:\n      0x00\n        /* \"--CODEGEN--\":6109:6114   */\n      dup2\n        /* \"--CODEGEN--\":10786:10798   */\n      mload\n        /* \"--CODEGEN--\":11332:11338   */\n      dup1\n        /* \"--CODEGEN--\":11327:11330   */\n      dup5\n        /* \"--CODEGEN--\":11320:11339   */\n      mstore\n        /* \"--CODEGEN--\":11369:11373   */\n      0x20\n      dup1\n        /* \"--CODEGEN--\":11364:11367   */\n      dup6\n        /* \"--CODEGEN--\":11360:11374   */\n      add\n        /* \"--CODEGEN--\":6121:6214   */\n      swap5\n      pop\n        /* \"--CODEGEN--\":11369:11373   */\n      dup1\n        /* \"--CODEGEN--\":6285:6290   */\n      dup5\n        /* \"--CODEGEN--\":10482:10496   */\n      add\n      dup4\n        /* \"--CODEGEN--\":6324:6584   */\n    tag_153:\n        /* \"--CODEGEN--\":6349:6355   */\n      dup4\n        /* \"--CODEGEN--\":6346:6347   */\n      dup2\n        /* \"--CODEGEN--\":6343:6356   */\n      lt\n        /* \"--CODEGEN--\":6324:6584   */\n      iszero\n      tag_155\n      jumpi\n        /* \"--CODEGEN--\":6410:6423   */\n      dup2\n      mload\n        /* \"--CODEGEN--\":7307:7344   */\n      dup8\n      mstore\n        /* \"--CODEGEN--\":4898:4912   */\n      swap6\n      dup3\n      add\n      swap6\n        /* \"--CODEGEN--\":11060:11074   */\n      swap1\n      dup3\n      add\n      swap1\n        /* \"--CODEGEN--\":6371:6372   */\n      0x01\n        /* \"--CODEGEN--\":6364:6373   */\n      add\n        /* \"--CODEGEN--\":6324:6584   */\n      jump(tag_153)\n    tag_155:\n      pop\n        /* \"--CODEGEN--\":6590:6600   */\n      swap5\n      swap6\n        /* \"--CODEGEN--\":6040:6606   */\n      swap5\n      pop\n      pop\n      pop\n      pop\n      pop\n      jump\t// out\n        /* \"--CODEGEN--\":7476:7698   */\n    tag_63:\n      sub(shl(0xa0, 0x01), 0x01)\n        /* \"--CODEGEN--\":11907:11961   */\n      swap2\n      swap1\n      swap2\n      and\n        /* \"--CODEGEN--\":4987:5024   */\n      dup2\n      mstore\n        /* \"--CODEGEN--\":7603:7605   */\n      0x20\n        /* \"--CODEGEN--\":7588:7606   */\n      add\n      swap1\n        /* \"--CODEGEN--\":7574:7698   */\n      jump\t// out\n        /* \"--CODEGEN--\":7705:8334   */\n    tag_19:\n        /* \"--CODEGEN--\":7960:7962   */\n      0x40\n        /* \"--CODEGEN--\":7974:8021   */\n      dup1\n      dup3\n      mstore\n        /* \"--CODEGEN--\":10786:10798   */\n      dup4\n      mload\n        /* \"--CODEGEN--\":7945:7963   */\n      swap1\n      dup3\n      add\n        /* \"--CODEGEN--\":11320:11339   */\n      dup2\n      swap1\n      mstore\n        /* \"--CODEGEN--\":7705:8334   */\n      0x00\n      swap1\n        /* \"--CODEGEN--\":11369:11373   */\n      0x20\n      swap1\n        /* \"--CODEGEN--\":11360:11374   */\n      0x60\n      dup5\n      add\n      swap1\n        /* \"--CODEGEN--\":10482:10496   */\n      dup3\n      dup8\n      add\n        /* \"--CODEGEN--\":7705:8334   */\n      dup5\n        /* \"--CODEGEN--\":5595:5855   */\n    tag_158:\n        /* \"--CODEGEN--\":5620:5626   */\n      dup3\n        /* \"--CODEGEN--\":5617:5618   */\n      dup2\n        /* \"--CODEGEN--\":5614:5627   */\n      lt\n        /* \"--CODEGEN--\":5595:5855   */\n      iszero\n      tag_160\n      jumpi\n        /* \"--CODEGEN--\":5681:5694   */\n      dup2\n      mload\n      sub(shl(0xa0, 0x01), 0x01)\n        /* \"--CODEGEN--\":11907:11961   */\n      and\n        /* \"--CODEGEN--\":4987:5024   */\n      dup5\n      mstore\n        /* \"--CODEGEN--\":4716:4730   */\n      swap3\n      dup5\n      add\n      swap3\n        /* \"--CODEGEN--\":11060:11074   */\n      swap1\n      dup5\n      add\n      swap1\n        /* \"--CODEGEN--\":509:527   */\n      0x01\n        /* \"--CODEGEN--\":5635:5644   */\n      add\n        /* \"--CODEGEN--\":5595:5855   */\n      jump(tag_158)\n    tag_160:\n        /* \"--CODEGEN--\":5599:5613   */\n      pop\n      pop\n      pop\n        /* \"--CODEGEN--\":8191:8200   */\n      dup4\n        /* \"--CODEGEN--\":8185:8189   */\n      dup2\n        /* \"--CODEGEN--\":8181:8201   */\n      sub\n        /* \"--CODEGEN--\":11369:11373   */\n      dup3\n        /* \"--CODEGEN--\":8165:8174   */\n      dup6\n        /* \"--CODEGEN--\":8161:8179   */\n      add\n        /* \"--CODEGEN--\":8154:8202   */\n      mstore\n        /* \"--CODEGEN--\":8216:8324   */\n      tag_161\n        /* \"--CODEGEN--\":8319:8323   */\n      dup2\n        /* \"--CODEGEN--\":8310:8316   */\n      dup7\n        /* \"--CODEGEN--\":8216:8324   */\n      tag_151\n      jump\t// in\n    tag_161:\n        /* \"--CODEGEN--\":8208:8324   */\n      swap7\n        /* \"--CODEGEN--\":7931:8334   */\n      swap6\n      pop\n      pop\n      pop\n      pop\n      pop\n      pop\n      jump\t// out\n        /* \"--CODEGEN--\":8341:8711   */\n    tag_26:\n      0x00\n        /* \"--CODEGEN--\":8518:8520   */\n      0x20\n        /* \"--CODEGEN--\":8539:8556   */\n      dup3\n        /* \"--CODEGEN--\":8532:8579   */\n      mstore\n        /* \"--CODEGEN--\":8593:8701   */\n      tag_120\n        /* \"--CODEGEN--\":8518:8520   */\n      0x20\n        /* \"--CODEGEN--\":8507:8516   */\n      dup4\n        /* \"--CODEGEN--\":8503:8521   */\n      add\n        /* \"--CODEGEN--\":8687:8693   */\n      dup5\n        /* \"--CODEGEN--\":8593:8701   */\n      tag_151\n      jump\t// in\n        /* \"--CODEGEN--\":8718:9134   */\n    tag_106:\n        /* \"--CODEGEN--\":8918:8920   */\n      0x20\n        /* \"--CODEGEN--\":8932:8979   */\n      dup1\n      dup3\n      mstore\n        /* \"--CODEGEN--\":6839:6841   */\n      0x0d\n        /* \"--CODEGEN--\":8903:8921   */\n      swap1\n      dup3\n      add\n        /* \"--CODEGEN--\":11320:11339   */\n      mstore\n      shl(0x99, 0x24a72b20a624a22faa27a5a2a7)\n        /* \"--CODEGEN--\":11360:11374   */\n      0x40\n      dup3\n      add\n        /* \"--CODEGEN--\":6855:6891   */\n      mstore\n        /* \"--CODEGEN--\":6910:6922   */\n      0x60\n      add\n      swap1\n        /* \"--CODEGEN--\":8889:9134   */\n      jump\t// out\n        /* \"--CODEGEN--\":9141:9557   */\n    tag_12:\n        /* \"--CODEGEN--\":9341:9343   */\n      0x20\n        /* \"--CODEGEN--\":9355:9402   */\n      dup1\n      dup3\n      mstore\n        /* \"--CODEGEN--\":7161:7162   */\n      0x02\n        /* \"--CODEGEN--\":9326:9344   */\n      swap1\n      dup3\n      add\n        /* \"--CODEGEN--\":11320:11339   */\n      mstore\n      shl(0xf1, 0x1919)\n        /* \"--CODEGEN--\":11360:11374   */\n      0x40\n      dup3\n      add\n        /* \"--CODEGEN--\":7176:7201   */\n      mstore\n        /* \"--CODEGEN--\":7220:7232   */\n      0x60\n      add\n      swap1\n        /* \"--CODEGEN--\":9312:9557   */\n      jump\t// out\n        /* \"--CODEGEN--\":9564:9786   */\n    tag_32:\n        /* \"--CODEGEN--\":7307:7344   */\n      swap1\n      dup2\n      mstore\n        /* \"--CODEGEN--\":9691:9693   */\n      0x20\n        /* \"--CODEGEN--\":9676:9694   */\n      add\n      swap1\n        /* \"--CODEGEN--\":9662:9786   */\n      jump\t// out\n        /* \"--CODEGEN--\":9793:10049   */\n    tag_140:\n        /* \"--CODEGEN--\":9855:9857   */\n      0x40\n        /* \"--CODEGEN--\":9849:9858   */\n      mload\n        /* \"--CODEGEN--\":9881:9898   */\n      dup2\n      dup2\n      add\n        /* \"--CODEGEN--\":9956:9974   */\n      0xffffffffffffffff\n        /* \"--CODEGEN--\":9941:9975   */\n      dup2\n      gt\n        /* \"--CODEGEN--\":9977:9999   */\n      dup3\n      dup3\n      lt\n        /* \"--CODEGEN--\":9938:10000   */\n      or\n        /* \"--CODEGEN--\":9935:9937   */\n      iszero\n      tag_168\n      jumpi\n        /* \"--CODEGEN--\":10013:10014   */\n      0x00\n      dup1\n        /* \"--CODEGEN--\":10003:10015   */\n      revert\n        /* \"--CODEGEN--\":9935:9937   */\n    tag_168:\n        /* \"--CODEGEN--\":9855:9857   */\n      0x40\n        /* \"--CODEGEN--\":10022:10044   */\n      mstore\n        /* \"--CODEGEN--\":9833:10049   */\n      swap2\n      swap1\n      pop\n      jump\t// out\n        /* \"--CODEGEN--\":12052:12169   */\n    tag_112:\n      sub(shl(0xa0, 0x01), 0x01)\n        /* \"--CODEGEN--\":11907:11961   */\n      dup2\n      and\n        /* \"--CODEGEN--\":12111:12146   */\n      dup2\n      eq\n        /* \"--CODEGEN--\":12101:12103   */\n      tag_170\n      jumpi\n        /* \"--CODEGEN--\":12160:12161   */\n      0x00\n      dup1\n        /* \"--CODEGEN--\":12150:12162   */\n      revert\n        /* \"--CODEGEN--\":12101:12103   */\n    tag_170:\n        /* \"--CODEGEN--\":12095:12169   */\n      pop\n      jump\t// out\n\n    auxdata: 0xa26469706673582212207ae67703d49267c117fb5657d5acf71315b42fa382a2989a68cd98ccc5351bc964736f6c634300060c0033\n}\n",
				"bytecode": {
					"linkReferences": {},
					"object": "608060405234801561001057600080fd5b50610a63806100206000396000f3fe6080604052600436106100385760003560e01c80630240534314610072578063b59b28ef146100a9578063f7888aec146100d65761006d565b3661006d5761004633610103565b61006b5760405162461bcd60e51b8152600401610062906109c9565b60405180910390fd5b005b600080fd5b34801561007e57600080fd5b5061009261008d366004610758565b61013f565b6040516100a092919061092f565b60405180910390f35b3480156100b557600080fd5b506100c96100c4366004610790565b6104b1565b6040516100a0919061098f565b3480156100e257600080fd5b506100f66100f1366004610758565b61058d565b6040516100a091906109e5565b6000813f7fc5d2460186f7233c927e7db2dcc703c0e500b653ca82273b7bfad8045d85a47081811480159061013757508115155b949350505050565b6060806000846001600160a01b0316630261bf8b6040518163ffffffff1660e01b815260040160206040518083038186803b15801561017d57600080fd5b505afa158015610191573d6000803e3d6000fd5b505050506040513d601f19601f820116820180604052508101906101b5919061073c565b90506060816001600160a01b031663d1946dbc6040518163ffffffff1660e01b815260040160006040518083038186803b1580156101f257600080fd5b505afa158015610206573d6000803e3d6000fd5b505050506040513d6000823e601f3d908101601f1916820160405261022e91908101906107f9565b90506060815160010167ffffffffffffffff8111801561024d57600080fd5b50604051908082528060200260200182016040528015610277578160200160208202803683370190505b50905060005b82518110156102c65782818151811061029257fe5b60200260200101518282815181106102a657fe5b6001600160a01b039092166020928302919091019091015260010161027d565b5073eeeeeeeeeeeeeeeeeeeeeeeeeeeeeeeeeeeeeeee818351815181106102e957fe5b60200260200101906001600160a01b031690816001600160a01b0316815250506060815167ffffffffffffffff8111801561032357600080fd5b5060405190808252806020026020018201604052801561034d578160200160208202803683370190505b50905060005b835181101561046b576103646106b9565b856001600160a01b031663c44b11f785848151811061037f57fe5b60200260200101516040518263ffffffff1660e01b81526004016103a3919061091b565b60206040518083038186803b1580156103bb57600080fd5b505afa1580156103cf573d6000803e3d6000fd5b505050506040513d601f19601f820116820180604052508101906103f391906108a4565b905060006104008261067d565b50505090508061042b57600084848151811061041857fe5b6020026020010181815250505050610463565b6104488a86858151811061043b57fe5b602002602001015161058d565b84848151811061045457fe5b60200260200101818152505050505b600101610353565b5061048a8773eeeeeeeeeeeeeeeeeeeeeeeeeeeeeeeeeeeeeeee61058d565b8184518151811061049757fe5b6020908102919091010152909450925050505b9250929050565b60608084830267ffffffffffffffff811180156104cd57600080fd5b506040519080825280602002602001820160405280156104f7578160200160208202803683370190505b50905060005b858110156105835760005b8481101561057a5761055588888481811061051f57fe5b90506020020160208101906105349190610719565b87878481811061054057fe5b90506020020160208101906100f19190610719565b83518490848802840190811061056757fe5b6020908102919091010152600101610508565b506001016104fd565b5095945050505050565b60006001600160a01b03821673eeeeeeeeeeeeeeeeeeeeeeeeeeeeeeeeeeeeeeee14156105c557506001600160a01b03821631610677565b6105d7826001600160a01b0316610103565b1561065f576040516370a0823160e01b81526001600160a01b038316906370a082319061060890869060040161091b565b60206040518083038186803b15801561062057600080fd5b505afa158015610634573d6000803e3d6000fd5b505050506040513d601f19601f8201168201806040525081019061065891906108c9565b9050610677565b60405162461bcd60e51b8152600401610062906109a2565b92915050565b51670100000000000000811615159167020000000000000082161515916704000000000000008116151591670800000000000000909116151590565b6040518060200160405280600081525090565b805161067781610a15565b60008083601f8401126106e8578182fd5b50813567ffffffffffffffff8111156106ff578182fd5b60208301915083602080830285010111156104aa57600080fd5b60006020828403121561072a578081fd5b813561073581610a15565b9392505050565b60006020828403121561074d578081fd5b815161073581610a15565b6000806040838503121561076a578081fd5b823561077581610a15565b9150602083013561078581610a15565b809150509250929050565b600080600080604085870312156107a5578182fd5b843567ffffffffffffffff808211156107bc578384fd5b6107c8888389016106d7565b909650945060208701359150808211156107e0578384fd5b506107ed878288016106d7565b95989497509550505050565b6000602080838503121561080b578182fd5b825167ffffffffffffffff80821115610822578384fd5b818501915085601f830112610835578384fd5b815181811115610843578485fd5b83810291506108538483016109ee565b8181528481019084860184860187018a101561086d578788fd5b8795505b83861015610897576108838a826106cc565b835260019590950194918601918601610871565b5098975050505050505050565b6000602082840312156108b5578081fd5b6108bf60206109ee565b9151825250919050565b6000602082840312156108da578081fd5b5051919050565b6000815180845260208085019450808401835b83811015610910578151875295820195908201906001016108f4565b509495945050505050565b6001600160a01b0391909116815260200190565b604080825283519082018190526000906020906060840190828701845b828110156109715781516001600160a01b03168452928401929084019060010161094c565b5050508381038285015261098581866108e1565b9695505050505050565b60006020825261073560208301846108e1565b6020808252600d908201526c24a72b20a624a22faa27a5a2a760991b604082015260600190565b602080825260029082015261191960f11b604082015260600190565b90815260200190565b60405181810167ffffffffffffffff81118282101715610a0d57600080fd5b604052919050565b6001600160a01b0381168114610a2a57600080fd5b5056fea26469706673582212207ae67703d49267c117fb5657d5acf71315b42fa382a2989a68cd98ccc5351bc964736f6c634300060c0033",
					"opcodes": "PUSH1 0x80 PUSH1 0x40 MSTORE CALLVALUE DUP1 ISZERO PUSH2 0x10 JUMPI PUSH1 0x0 DUP1 REVERT JUMPDEST POP PUSH2 0xA63 DUP1 PUSH2 0x20 PUSH1 0x0 CODECOPY PUSH1 0x0 RETURN INVALID PUSH1 0x80 PUSH1 0x40 MSTORE PUSH1 0x4 CALLDATASIZE LT PUSH2 0x38 JUMPI PUSH1 0x0 CALLDATALOAD PUSH1 0xE0 SHR DUP1 PUSH4 0x2405343 EQ PUSH2 0x72 JUMPI DUP1 PUSH4 0xB59B28EF EQ PUSH2 0xA9 JUMPI DUP1 PUSH4 0xF7888AEC EQ PUSH2 0xD6 JUMPI PUSH2 0x6D JUMP JUMPDEST CALLDATASIZE PUSH2 0x6D JUMPI PUSH2 0x46 CALLER PUSH2 0x103 JUMP JUMPDEST PUSH2 0x6B JUMPI PUSH1 0x40 MLOAD PUSH3 0x461BCD PUSH1 0xE5 SHL DUP2 MSTORE PUSH1 0x4 ADD PUSH2 0x62 SWAP1 PUSH2 0x9C9 JUMP JUMPDEST PUSH1 0x40 MLOAD DUP1 SWAP2 SUB SWAP1 REVERT JUMPDEST STOP JUMPDEST PUSH1 0x0 DUP1 REVERT JUMPDEST CALLVALUE DUP1 ISZERO PUSH2 0x7E JUMPI PUSH1 0x0 DUP1 REVERT JUMPDEST POP PUSH2 0x92 PUSH2 0x8D CALLDATASIZE PUSH1 0x4 PUSH2 0x758 JUMP JUMPDEST PUSH2 0x13F JUMP JUMPDEST PUSH1 0x40 MLOAD PUSH2 0xA0 SWAP3 SWAP2 SWAP1 PUSH2 0x92F JUMP JUMPDEST PUSH1 0x40 MLOAD DUP1 SWAP2 SUB SWAP1 RETURN JUMPDEST CALLVALUE DUP1 ISZERO PUSH2 0xB5 JUMPI PUSH1 0x0 DUP1 REVERT JUMPDEST POP PUSH2 0xC9 PUSH2 0xC4 CALLDATASIZE PUSH1 0x4 PUSH2 0x790 JUMP JUMPDEST PUSH2 0x4B1 JUMP JUMPDEST PUSH1 0x40 MLOAD PUSH2 0xA0 SWAP2 SWAP1 PUSH2 0x98F JUMP JUMPDEST CALLVALUE DUP1 ISZERO PUSH2 0xE2 JUMPI PUSH1 0x0 DUP1 REVERT JUMPDEST POP PUSH2 0xF6 PUSH2 0xF1 CALLDATASIZE PUSH1 0x4 PUSH2 0x758 JUMP JUMPDEST PUSH2 0x58D JUMP JUMPDEST PUSH1 0x40 MLOAD PUSH2 0xA0 SWAP2 SWAP1 PUSH2 0x9E5 JUMP JUMPDEST PUSH1 0x0 DUP2 EXTCODEHASH PUSH32 0xC5D2460186F7233C927E7DB2DCC703C0E500B653CA82273B7BFAD8045D85A470 DUP2 DUP2 EQ DUP1 ISZERO SWAP1 PUSH2 0x137 JUMPI POP DUP2 ISZERO ISZERO JUMPDEST SWAP5 SWAP4 POP POP POP POP JUMP JUMPDEST PUSH1 0x60 DUP1 PUSH1 0x0 DUP5 PUSH1 0x1 PUSH1 0x1 PUSH1 0xA0 SHL SUB AND PUSH4 0x261BF8B PUSH1 0x40 MLOAD DUP2 PUSH4 0xFFFFFFFF AND PUSH1 0xE0 SHL DUP2 MSTORE PUSH1 0x4 ADD PUSH1 0x20 PUSH1 0x40 MLOAD DUP1 DUP4 SUB DUP2 DUP7 DUP1 EXTCODESIZE ISZERO DUP1 ISZERO PUSH2 0x17D JUMPI PUSH1 0x0 DUP1 REVERT JUMPDEST POP GAS STATICCALL ISZERO DUP1 ISZERO PUSH2 0x191 JUMPI RETURNDATASIZE PUSH1 0x0 DUP1 RETURNDATACOPY RETURNDATASIZE PUSH1 0x0 REVERT JUMPDEST POP POP POP POP PUSH1 0x40 MLOAD RETURNDATASIZE PUSH1 0x1F NOT PUSH1 0x1F DUP3 ADD AND DUP3 ADD DUP1 PUSH1 0x40 MSTORE POP DUP2 ADD SWAP1 PUSH2 0x1B5 SWAP2 SWAP1 PUSH2 0x73C JUMP JUMPDEST SWAP1 POP PUSH1 0x60 DUP2 PUSH1 0x1 PUSH1 0x1 PUSH1 0xA0 SHL SUB AND PUSH4 0xD1946DBC PUSH1 0x40 MLOAD DUP2 PUSH4 0xFFFFFFFF AND PUSH1 0xE0 SHL DUP2 MSTORE PUSH1 0x4 ADD PUSH1 0x0 PUSH1 0x40 MLOAD DUP1 DUP4 SUB DUP2 DUP7 DUP1 EXTCODESIZE ISZERO DUP1 ISZERO PUSH2 0x1F2 JUMPI PUSH1 0x0 DUP1 REVERT JUMPDEST POP GAS STATICCALL ISZERO DUP1 ISZERO PUSH2 0x206 JUMPI RETURNDATASIZE PUSH1 0x0 DUP1 RETURNDATACOPY RETURNDATASIZE PUSH1 0x0 REVERT JUMPDEST POP POP POP POP PUSH1 0x40 MLOAD RETURNDATASIZE PUSH1 0x0 DUP3 RETURNDATACOPY PUSH1 0x1F RETURNDATASIZE SWAP1 DUP2 ADD PUSH1 0x1F NOT AND DUP3 ADD PUSH1 0x40 MSTORE PUSH2 0x22E SWAP2 SWAP1 DUP2 ADD SWAP1 PUSH2 0x7F9 JUMP JUMPDEST SWAP1 POP PUSH1 0x60 DUP2 MLOAD PUSH1 0x1 ADD PUSH8 0xFFFFFFFFFFFFFFFF DUP2 GT DUP1 ISZERO PUSH2 0x24D JUMPI PUSH1 0x0 DUP1 REVERT JUMPDEST POP PUSH1 0x40 MLOAD SWAP1 DUP1 DUP3 MSTORE DUP1 PUSH1 0x20 MUL PUSH1 0x20 ADD DUP3 ADD PUSH1 0x40 MSTORE DUP1 ISZERO PUSH2 0x277 JUMPI DUP2 PUSH1 0x20 ADD PUSH1 0x20 DUP3 MUL DUP1 CALLDATASIZE DUP4 CALLDATACOPY ADD SWAP1 POP JUMPDEST POP SWAP1 POP PUSH1 0x0 JUMPDEST DUP3 MLOAD DUP2 LT ISZERO PUSH2 0x2C6 JUMPI DUP3 DUP2 DUP2 MLOAD DUP2 LT PUSH2 0x292 JUMPI INVALID JUMPDEST PUSH1 0x20 MUL PUSH1 0x20 ADD ADD MLOAD DUP3 DUP3 DUP2 MLOAD DUP2 LT PUSH2 0x2A6 JUMPI INVALID JUMPDEST PUSH1 0x1 PUSH1 0x1 PUSH1 0xA0 SHL SUB SWAP1 SWAP3 AND PUSH1 0x20 SWAP3 DUP4 MUL SWAP2 SWAP1 SWAP2 ADD SWAP1 SWAP2 ADD MSTORE PUSH1 0x1 ADD PUSH2 0x27D JUMP JUMPDEST POP PUSH20 0xEEEEEEEEEEEEEEEEEEEEEEEEEEEEEEEEEEEEEEEE DUP2 DUP4 MLOAD DUP2 MLOAD DUP2 LT PUSH2 0x2E9 JUMPI INVALID JUMPDEST PUSH1 0x20 MUL PUSH1 0x20 ADD ADD SWAP1 PUSH1 0x1 PUSH1 0x1 PUSH1 0xA0 SHL SUB AND SWAP1 DUP2 PUSH1 0x1 PUSH1 0x1 PUSH1 0xA0 SHL SUB AND DUP2 MSTORE POP POP PUSH1 0x60 DUP2 MLOAD PUSH8 0xFFFFFFFFFFFFFFFF DUP2 GT DUP1 ISZERO PUSH2 0x323 JUMPI PUSH1 0x0 DUP1 REVERT JUMPDEST POP PUSH1 0x40 MLOAD SWAP1 DUP1 DUP3 MSTORE DUP1 PUSH1 0x20 MUL PUSH1 0x20 ADD DUP3 ADD PUSH1 0x40 MSTORE DUP1 ISZERO PUSH2 0x34D JUMPI DUP2 PUSH1 0x20 ADD PUSH1 0x20 DUP3 MUL DUP1 CALLDATASIZE DUP4 CALLDATACOPY ADD SWAP1 POP JUMPDEST POP SWAP1 POP PUSH1 0x0 JUMPDEST DUP4 MLOAD DUP2 LT ISZERO PUSH2 0x46B JUMPI PUSH2 0x364 PUSH2 0x6B9 JUMP JUMPDEST DUP6 PUSH1 0x1 PUSH1 0x1 PUSH1 0xA0 SHL SUB AND PUSH4 0xC44B11F7 DUP6 DUP5 DUP2 MLOAD DUP2 LT PUSH2 0x37F JUMPI INVALID JUMPDEST PUSH1 0x20 MUL PUSH1 0x20 ADD ADD MLOAD PUSH1 0x40 MLOAD DUP3 PUSH4 0xFFFFFFFF AND PUSH1 0xE0 SHL DUP2 MSTORE PUSH1 0x4 ADD PUSH2 0x3A3 SWAP2 SWAP1 PUSH2 0x91B JUMP JUMPDEST PUSH1 0x20 PUSH1 0x40 MLOAD DUP1 DUP4 SUB DUP2 DUP7 DUP1 EXTCODESIZE ISZERO DUP1 ISZERO PUSH2 0x3BB JUMPI PUSH1 0x0 DUP1 REVERT JUMPDEST POP GAS STATICCALL ISZERO DUP1 ISZERO PUSH2 0x3CF JUMPI RETURNDATASIZE PUSH1 0x0 DUP1 RETURNDATACOPY RETURNDATASIZE PUSH1 0x0 REVERT JUMPDEST POP POP POP POP PUSH1 0x40 MLOAD RETURNDATASIZE PUSH1 0x1F NOT PUSH1 0x1F DUP3 ADD AND DUP3 ADD DUP1 PUSH1 0x40 MSTORE POP DUP2 ADD SWAP1 PUSH2 0x3F3 SWAP2 SWAP1 PUSH2 0x8A4 JUMP JUMPDEST SWAP1 POP PUSH1 0x0 PUSH2 0x400 DUP3 PUSH2 0x67D JUMP JUMPDEST POP POP POP SWAP1 POP DUP1 PUSH2 0x42B JUMPI PUSH1 0x0 DUP5 DUP5 DUP2 MLOAD DUP2 LT PUSH2 0x418 JUMPI INVALID JUMPDEST PUSH1 0x20 MUL PUSH1 0x20 ADD ADD DUP2 DUP2 MSTORE POP POP POP POP PUSH2 0x463 JUMP JUMPDEST PUSH2 0x448 DUP11 DUP7 DUP6 DUP2 MLOAD DUP2 LT PUSH2 0x43B JUMPI INVALID JUMPDEST PUSH1 0x20 MUL PUSH1 0x20 ADD ADD MLOAD PUSH2 0x58D JUMP JUMPDEST DUP5 DUP5 DUP2 MLOAD DUP2 LT PUSH2 0x454 JUMPI INVALID JUMPDEST PUSH1 0x20 MUL PUSH1 0x20 ADD ADD DUP2 DUP2 MSTORE POP POP POP POP JUMPDEST PUSH1 0x1 ADD PUSH2 0x353 JUMP JUMPDEST POP PUSH2 0x48A DUP8 PUSH20 0xEEEEEEEEEEEEEEEEEEEEEEEEEEEEEEEEEEEEEEEE PUSH2 0x58D JUMP JUMPDEST DUP2 DUP5 MLOAD DUP2 MLOAD DUP2 LT PUSH2 0x497 JUMPI INVALID JUMPDEST PUSH1 0x20 SWAP1 DUP2 MUL SWAP2 SWAP1 SWAP2 ADD ADD MSTORE SWAP1 SWAP5 POP SWAP3 POP POP POP JUMPDEST SWAP3 POP SWAP3 SWAP1 POP JUMP JUMPDEST PUSH1 0x60 DUP1 DUP5 DUP4 MUL PUSH8 0xFFFFFFFFFFFFFFFF DUP2 GT DUP1 ISZERO PUSH2 0x4CD JUMPI PUSH1 0x0 DUP1 REVERT JUMPDEST POP PUSH1 0x40 MLOAD SWAP1 DUP1 DUP3 MSTORE DUP1 PUSH1 0x20 MUL PUSH1 0x20 ADD DUP3 ADD PUSH1 0x40 MSTORE DUP1 ISZERO PUSH2 0x4F7 JUMPI DUP2 PUSH1 0x20 ADD PUSH1 0x20 DUP3 MUL DUP1 CALLDATASIZE DUP4 CALLDATACOPY ADD SWAP1 POP JUMPDEST POP SWAP1 POP PUSH1 0x0 JUMPDEST DUP6 DUP2 LT ISZERO PUSH2 0x583 JUMPI PUSH1 0x0 JUMPDEST DUP5 DUP2 LT ISZERO PUSH2 0x57A JUMPI PUSH2 0x555 DUP9 DUP9 DUP5 DUP2 DUP2 LT PUSH2 0x51F JUMPI INVALID JUMPDEST SWAP1 POP PUSH1 0x20 MUL ADD PUSH1 0x20 DUP2 ADD SWAP1 PUSH2 0x534 SWAP2 SWAP1 PUSH2 0x719 JUMP JUMPDEST DUP8 DUP8 DUP5 DUP2 DUP2 LT PUSH2 0x540 JUMPI INVALID JUMPDEST SWAP1 POP PUSH1 0x20 MUL ADD PUSH1 0x20 DUP2 ADD SWAP1 PUSH2 0xF1 SWAP2 SWAP1 PUSH2 0x719 JUMP JUMPDEST DUP4 MLOAD DUP5 SWAP1 DUP5 DUP9 MUL DUP5 ADD SWAP1 DUP2 LT PUSH2 0x567 JUMPI INVALID JUMPDEST PUSH1 0x20 SWAP1 DUP2 MUL SWAP2 SWAP1 SWAP2 ADD ADD MSTORE PUSH1 0x1 ADD PUSH2 0x508 JUMP JUMPDEST POP PUSH1 0x1 ADD PUSH2 0x4FD JUMP JUMPDEST POP SWAP6 SWAP5 POP POP POP POP POP JUMP JUMPDEST PUSH1 0x0 PUSH1 0x1 PUSH1 0x1 PUSH1 0xA0 SHL SUB DUP3 AND PUSH20 0xEEEEEEEEEEEEEEEEEEEEEEEEEEEEEEEEEEEEEEEE EQ ISZERO PUSH2 0x5C5 JUMPI POP PUSH1 0x1 PUSH1 0x1 PUSH1 0xA0 SHL SUB DUP3 AND BALANCE PUSH2 0x677 JUMP JUMPDEST PUSH2 0x5D7 DUP3 PUSH1 0x1 PUSH1 0x1 PUSH1 0xA0 SHL SUB AND PUSH2 0x103 JUMP JUMPDEST ISZERO PUSH2 0x65F JUMPI PUSH1 0x40 MLOAD PUSH4 0x70A08231 PUSH1 0xE0 SHL DUP2 MSTORE PUSH1 0x1 PUSH1 0x1 PUSH1 0xA0 SHL SUB DUP4 AND SWAP1 PUSH4 0x70A08231 SWAP1 PUSH2 0x608 SWAP1 DUP7 SWAP1 PUSH1 0x4 ADD PUSH2 0x91B JUMP JUMPDEST PUSH1 0x20 PUSH1 0x40 MLOAD DUP1 DUP4 SUB DUP2 DUP7 DUP1 EXTCODESIZE ISZERO DUP1 ISZERO PUSH2 0x620 JUMPI PUSH1 0x0 DUP1 REVERT JUMPDEST POP GAS STATICCALL ISZERO DUP1 ISZERO PUSH2 0x634 JUMPI RETURNDATASIZE PUSH1 0x0 DUP1 RETURNDATACOPY RETURNDATASIZE PUSH1 0x0 REVERT JUMPDEST POP POP POP POP PUSH1 0x40 MLOAD RETURNDATASIZE PUSH1 0x1F NOT PUSH1 0x1F DUP3 ADD AND DUP3 ADD DUP1 PUSH1 0x40 MSTORE POP DUP2 ADD SWAP1 PUSH2 0x658 SWAP2 SWAP1 PUSH2 0x8C9 JUMP JUMPDEST SWAP1 POP PUSH2 0x677 JUMP JUMPDEST PUSH1 0x40 MLOAD PUSH3 0x461BCD PUSH1 0xE5 SHL DUP2 MSTORE PUSH1 0x4 ADD PUSH2 0x62 SWAP1 PUSH2 0x9A2 JUMP JUMPDEST SWAP3 SWAP2 POP POP JUMP JUMPDEST MLOAD PUSH8 0x100000000000000 DUP2 AND ISZERO ISZERO SWAP2 PUSH8 0x200000000000000 DUP3 AND ISZERO ISZERO SWAP2 PUSH8 0x400000000000000 DUP2 AND ISZERO ISZERO SWAP2 PUSH8 0x800000000000000 SWAP1 SWAP2 AND ISZERO ISZERO SWAP1 JUMP JUMPDEST PUSH1 0x40 MLOAD DUP1 PUSH1 0x20 ADD PUSH1 0x40 MSTORE DUP1 PUSH1 0x0 DUP2 MSTORE POP SWAP1 JUMP JUMPDEST DUP1 MLOAD PUSH2 0x677 DUP2 PUSH2 0xA15 JUMP JUMPDEST PUSH1 0x0 DUP1 DUP4 PUSH1 0x1F DUP5 ADD SLT PUSH2 0x6E8 JUMPI DUP2 DUP3 REVERT JUMPDEST POP DUP2 CALLDATALOAD PUSH8 0xFFFFFFFFFFFFFFFF DUP2 GT ISZERO PUSH2 0x6FF JUMPI DUP2 DUP3 REVERT JUMPDEST PUSH1 0x20 DUP4 ADD SWAP2 POP DUP4 PUSH1 0x20 DUP1 DUP4 MUL DUP6 ADD ADD GT ISZERO PUSH2 0x4AA JUMPI PUSH1 0x0 DUP1 REVERT JUMPDEST PUSH1 0x0 PUSH1 0x20 DUP3 DUP5 SUB SLT ISZERO PUSH2 0x72A JUMPI DUP1 DUP2 REVERT JUMPDEST DUP2 CALLDATALOAD PUSH2 0x735 DUP2 PUSH2 0xA15 JUMP JUMPDEST SWAP4 SWAP3 POP POP POP JUMP JUMPDEST PUSH1 0x0 PUSH1 0x20 DUP3 DUP5 SUB SLT ISZERO PUSH2 0x74D JUMPI DUP1 DUP2 REVERT JUMPDEST DUP2 MLOAD PUSH2 0x735 DUP2 PUSH2 0xA15 JUMP JUMPDEST PUSH1 0x0 DUP1 PUSH1 0x40 DUP4 DUP6 SUB SLT ISZERO PUSH2 0x76A JUMPI DUP1 DUP2 REVERT JUMPDEST DUP3 CALLDATALOAD PUSH2 0x775 DUP2 PUSH2 0xA15 JUMP JUMPDEST SWAP2 POP PUSH1 0x20 DUP4 ADD CALLDATALOAD PUSH2 0x785 DUP2 PUSH2 0xA15 JUMP JUMPDEST DUP1 SWAP2 POP POP SWAP3 POP SWAP3 SWAP1 POP JUMP JUMPDEST PUSH1 0x0 DUP1 PUSH1 0x0 DUP1 PUSH1 0x40 DUP6 DUP8 SUB SLT ISZERO PUSH2 0x7A5 JUMPI DUP2 DUP3 REVERT JUMPDEST DUP5 CALLDATALOAD PUSH8 0xFFFFFFFFFFFFFFFF DUP1 DUP3 GT ISZERO PUSH2 0x7BC JUMPI DUP4 DUP5 REVERT JUMPDEST PUSH2 0x7C8 DUP9 DUP4 DUP10 ADD PUSH2 0x6D7 JUMP JUMPDEST SWAP1 SWAP7 POP SWAP5 POP PUSH1 0x20 DUP8 ADD CALLDATALOAD SWAP2 POP DUP1 DUP3 GT ISZERO PUSH2 0x7E0 JUMPI DUP4 DUP5 REVERT JUMPDEST POP PUSH2 0x7ED DUP8 DUP3 DUP9 ADD PUSH2 0x6D7 JUMP JUMPDEST SWAP6 SWAP9 SWAP5 SWAP8 POP SWAP6 POP POP POP POP JUMP JUMPDEST PUSH1 0x0 PUSH1 0x20 DUP1 DUP4 DUP6 SUB SLT ISZERO PUSH2 0x80B JUMPI DUP2 DUP3 REVERT JUMPDEST DUP3 MLOAD PUSH8 0xFFFFFFFFFFFFFFFF DUP1 DUP3 GT ISZERO PUSH2 0x822 JUMPI DUP4 DUP5 REVERT JUMPDEST DUP2 DUP6 ADD SWAP2 POP DUP6 PUSH1 0x1F DUP4 ADD SLT PUSH2 0x835 JUMPI DUP4 DUP5 REVERT JUMPDEST DUP2 MLOAD DUP2 DUP2 GT ISZERO PUSH2 0x843 JUMPI DUP5 DUP6 REVERT JUMPDEST DUP4 DUP2 MUL SWAP2 POP PUSH2 0x853 DUP5 DUP4 ADD PUSH2 0x9EE JUMP JUMPDEST DUP2 DUP2 MSTORE DUP5 DUP2 ADD SWAP1 DUP5 DUP7 ADD DUP5 DUP7 ADD DUP8 ADD DUP11 LT ISZERO PUSH2 0x86D JUMPI DUP8 DUP9 REVERT JUMPDEST DUP8 SWAP6 POP JUMPDEST DUP4 DUP7 LT ISZERO PUSH2 0x897 JUMPI PUSH2 0x883 DUP11 DUP3 PUSH2 0x6CC JUMP JUMPDEST DUP4 MSTORE PUSH1 0x1 SWAP6 SWAP1 SWAP6 ADD SWAP5 SWAP2 DUP7 ADD SWAP2 DUP7 ADD PUSH2 0x871 JUMP JUMPDEST POP SWAP9 SWAP8 POP POP POP POP POP POP POP POP JUMP JUMPDEST PUSH1 0x0 PUSH1 0x20 DUP3 DUP5 SUB SLT ISZERO PUSH2 0x8B5 JUMPI DUP1 DUP2 REVERT JUMPDEST PUSH2 0x8BF PUSH1 0x20 PUSH2 0x9EE JUMP JUMPDEST SWAP2 MLOAD DUP3 MSTORE POP SWAP2 SWAP1 POP JUMP JUMPDEST PUSH1 0x0 PUSH1 0x20 DUP3 DUP5 SUB SLT ISZERO PUSH2 0x8DA JUMPI DUP1 DUP2 REVERT JUMPDEST POP MLOAD SWAP2 SWAP1 POP JUMP JUMPDEST PUSH1 0x0 DUP2 MLOAD DUP1 DUP5 MSTORE PUSH1 0x20 DUP1 DUP6 ADD SWAP5 POP DUP1 DUP5 ADD DUP4 JUMPDEST DUP4 DUP2 LT ISZERO PUSH2 0x910 JUMPI DUP2 MLOAD DUP8 MSTORE SWAP6 DUP3 ADD SWAP6 SWAP1 DUP3 ADD SWAP1 PUSH1 0x1 ADD PUSH2 0x8F4 JUMP JUMPDEST POP SWAP5 SWAP6 SWAP5 POP POP POP POP POP JUMP JUMPDEST PUSH1 0x1 PUSH1 0x1 PUSH1 0xA0 SHL SUB SWAP2 SWAP1 SWAP2 AND DUP2 MSTORE PUSH1 0x20 ADD SWAP1 JUMP JUMPDEST PUSH1 0x40 DUP1 DUP3 MSTORE DUP4 MLOAD SWAP1 DUP3 ADD DUP2 SWAP1 MSTORE PUSH1 0x0 SWAP1 PUSH1 0x20 SWAP1 PUSH1 0x60 DUP5 ADD SWAP1 DUP3 DUP8 ADD DUP5 JUMPDEST DUP3 DUP2 LT ISZERO PUSH2 0x971 JUMPI DUP2 MLOAD PUSH1 0x1 PUSH1 0x1 PUSH1 0xA0 SHL SUB AND DUP5 MSTORE SWAP3 DUP5 ADD SWAP3 SWAP1 DUP5 ADD SWAP1 PUSH1 0x1 ADD PUSH2 0x94C JUMP JUMPDEST POP POP POP DUP4 DUP2 SUB DUP3 DUP6 ADD MSTORE PUSH2 0x985 DUP2 DUP7 PUSH2 0x8E1 JUMP JUMPDEST SWAP7 SWAP6 POP POP POP POP POP POP JUMP JUMPDEST PUSH1 0x0 PUSH1 0x20 DUP3 MSTORE PUSH2 0x735 PUSH1 0x20 DUP4 ADD DUP5 PUSH2 0x8E1 JUMP JUMPDEST PUSH1 0x20 DUP1 DUP3 MSTORE PUSH1 0xD SWAP1 DUP3 ADD MSTORE PUSH13 0x24A72B20A624A22FAA27A5A2A7 PUSH1 0x99 SHL PUSH1 0x40 DUP3 ADD MSTORE PUSH1 0x60 ADD SWAP1 JUMP JUMPDEST PUSH1 0x20 DUP1 DUP3 MSTORE PUSH1 0x2 SWAP1 DUP3 ADD MSTORE PUSH2 0x1919 PUSH1 0xF1 SHL PUSH1 0x40 DUP3 ADD MSTORE PUSH1 0x60 ADD SWAP1 JUMP JUMPDEST SWAP1 DUP2 MSTORE PUSH1 0x20 ADD SWAP1 JUMP JUMPDEST PUSH1 0x40 MLOAD DUP2 DUP2 ADD PUSH8 0xFFFFFFFFFFFFFFFF DUP2 GT DUP3 DUP3 LT OR ISZERO PUSH2 0xA0D JUMPI PUSH1 0x0 DUP1 REVERT JUMPDEST PUSH1 0x40 MSTORE SWAP2 SWAP1 POP JUMP JUMPDEST PUSH1 0x1 PUSH1 0x1 PUSH1 0xA0 SHL SUB DUP2 AND DUP2 EQ PUSH2 0xA2A JUMPI PUSH1 0x0 DUP1 REVERT JUMPDEST POP JUMP INVALID LOG2 PUSH5 0x6970667358 0x22 SLT KECCAK256 PUSH27 0xE67703D49267C117FB5657D5ACF71315B42FA382A2989A68CD98CC 0xC5 CALLDATALOAD SHL 0xC9 PUSH5 0x736F6C6343 STOP MOD 0xC STOP CALLER "
				},
				"gasEstimates": {
					"creation": {
						"codeDepositCost": "531800",
						"executionCost": "568",
						"totalCost": "532368"
					},
					"external": {
						"balanceOf(address,address)": "infinite",
						"batchBalanceOf(address[],address[])": "infinite",
						"getUserWalletBalances(address,address)": "infinite"
					}
				},
				"methodIdentifiers": {
					"balanceOf(address,address)": "f7888aec",
					"batchBalanceOf(address[],address[])": "b59b28ef",
					"getUserWalletBalances(address,address)": "02405343"
				}
			},
			"storageLayout": {
				"storage": [],
				"types": null
			},
			"userdoc": {
				"kind": "user",
				"methods": {
					"batchBalanceOf(address[],address[])": {
						"notice": "Fetches, for a list of _users and _tokens (ETH included with mock address), the balances"
					}
				},
				"notice": "Implements a logic of getting multiple tokens balance for one user address",
				"version": 1
			}
		}
	}
}