{
  "abi": [
    {
      "inputs": [
        {
          "internalType": "address",
          "name": "user",
          "type": "address"
        },
        {
          "internalType": "address",
          "name": "token",
          "type": "address"
        }
      ],
      "name": "balanceOf",
      "outputs": [
        {
          "internalType": "uint256",
          "name": "",
          "type": "uint256"
        }
      ],
      "stateMutability": "view",
      "type": "function"
    },
    {
      "inputs": [
        {
          "internalType": "address[]",
          "name": "users",
          "type": "address[]"
        },
        {
          "internalType": "address[]",
          "name": "tokens",
          "type": "address[]"
        }
      ],
      "name": "batchBalanceOf",
      "outputs": [
        {
          "internalType": "uint256[]",
          "name": "",
          "type": "uint256[]"
        }
      ],
      "stateMutability": "view",
      "type": "function"
    },
    {
      "inputs": [
        {
          "internalType": "address",
          "name": "provider",
          "type": "address"
        },
        {
          "internalType": "address",
          "name": "user",
          "type": "address"
        }
      ],
      "name": "getUserWalletBalances",
      "outputs": [
        {
          "internalType": "address[]",
          "name": "",
          "type": "address[]"
        },
        {
          "internalType": "uint256[]",
          "name": "",
          "type": "uint256[]"
        }
      ],
      "stateMutability": "view",
      "type": "function"
    },
    {
      "stateMutability": "payable",
      "type": "receive"
    }
  ],
  "bytecode": {
    "object": "0x608060405234801561001057600080fd5b50610b92806100206000396000f3fe6080604052600436106100385760003560e01c80630240534314610072578063b59b28ef146100a9578063f7888aec146100d65761006d565b3661006d5761004633610103565b61006b5760405162461bcd60e51b815260040161006290610ab0565b60405180910390fd5b005b600080fd5b34801561007e57600080fd5b5061009261008d36600461081d565b61013f565b6040516100a0929190610a6a565b60405180910390f35b3480156100b557600080fd5b506100c96100c4366004610855565b6104b1565b6040516100a09190610a8f565b3480156100e257600080fd5b506100f66100f136600461081d565b61058d565b6040516100a09190610ac0565b6000813f7fc5d2460186f7233c927e7db2dcc703c0e500b653ca82273b7bfad8045d85a47081811480159061013757508115155b949350505050565b6060806000846001600160a01b0316630261bf8b6040518163ffffffff1660e01b815260040160206040518083038186803b15801561017d57600080fd5b505afa158015610191573d6000803e3d6000fd5b505050506040513d601f19601f820116820180604052508101906101b59190610800565b90506060816001600160a01b031663d1946dbc6040518163ffffffff1660e01b815260040160006040518083038186803b1580156101f257600080fd5b505afa158015610206573d6000803e3d6000fd5b505050506040513d6000823e601f3d908101601f1916820160405261022e91908101906108c4565b90506060815160010167ffffffffffffffff8111801561024d57600080fd5b50604051908082528060200260200182016040528015610277578160200160208202803683370190505b50905060005b82518110156102c65782818151811061029257fe5b60200260200101518282815181106102a657fe5b6001600160a01b039092166020928302919091019091015260010161027d565b5073eeeeeeeeeeeeeeeeeeeeeeeeeeeeeeeeeeeeeeee818351815181106102e957fe5b60200260200101906001600160a01b031690816001600160a01b0316815250506060815167ffffffffffffffff8111801561032357600080fd5b5060405190808252806020026020018201604052801561034d578160200160208202803683370190505b50905060005b835181101561046b576103646106b9565b856001600160a01b031663c44b11f785848151811061037f57fe5b60200260200101516040518263ffffffff1660e01b81526004016103a39190610a5c565b60206040518083038186803b1580156103bb57600080fd5b505afa1580156103cf573d6000803e3d6000fd5b505050506040513d601f19601f820116820180604052508101906103f391906108f9565b905060006104008261067d565b50505090508061042b57600084848151811061041857fe5b6020026020010181815250505050610463565b6104488a86858151811061043b57fe5b602002602001015161058d565b84848151811061045457fe5b60200260200101818152505050505b600101610353565b5061048a8773eeeeeeeeeeeeeeeeeeeeeeeeeeeeeeeeeeeeeeee61058d565b8184518151811061049757fe5b6020908102919091010152909450925050505b9250929050565b60608084830267ffffffffffffffff811180156104cd57600080fd5b506040519080825280602002602001820160405280156104f7578160200160208202803683370190505b50905060005b858110156105835760005b8481101561057a5761055588888481811061051f57fe5b905060200201602081019061053491906107dc565b87878481811061054057fe5b90506020020160208101906100f191906107dc565b83518490848802840190811061056757fe5b6020908102919091010152600101610508565b506001016104fd565b5095945050505050565b60006001600160a01b03821673eeeeeeeeeeeeeeeeeeeeeeeeeeeeeeeeeeeeeeee14156105c557506001600160a01b03821631610677565b6105d7826001600160a01b0316610103565b1561065f576040516370a0823160e01b81526001600160a01b038316906370a0823190610608908690600401610a5c565b60206040518083038186803b15801561062057600080fd5b505afa158015610634573d6000803e3d6000fd5b505050506040513d601f19601f820116820180604052508101906106589190610916565b9050610677565b60405162461bcd60e51b815260040161006290610aa0565b92915050565b51670100000000000000811615159167020000000000000082161515916704000000000000008116151591670800000000000000909116151590565b6040518060200160405280600081525090565b803561067781610b3c565b805161067781610b3c565b60008083601f8401126106f3578182fd5b50813567ffffffffffffffff81111561070a578182fd5b6020830191508360208202830111156104aa57600080fd5b600082601f830112610732578081fd5b815161074561074082610af5565b610ace565b9150818183526020840193506020830190508385602084028601111561076a57600080fd5b60005b838110156107945761077f87836106d7565b8352602092830192919091019060010161076d565b5050505092915050565b6000602082840312156107af578081fd5b6107b96020610ace565b905060006107c784846107d1565b9082015292915050565b805161067781610b53565b6000602082840312156107ed578081fd5b6107f9838284016106cc565b9392505050565b600060208284031215610811578081fd5b6107f9838284016106d7565b6000806040838503121561082f578081fd5b61083b848285016106cc565b9150602061084b858286016106cc565b9150509250929050565b6000806000806040858703121561086a578182fd5b8185013567ffffffffffffffff811115610882578283fd5b61088e878288016106e2565b9450945050602085013567ffffffffffffffff8111156108ac578283fd5b6108b8878288016106e2565b95989497509550505050565b6000602082840312156108d5578081fd5b8082015167ffffffffffffffff8111156108ed578182fd5b61013784828501610722565b60006020828403121561090a578081fd5b6107f98382840161079e565b600060208284031215610927578081fd5b6107f9838284016107d1565b600061093f8383610953565b505060200190565b600061093f8383610a53565b61095c81610b28565b82525050565b600061096d82610b1b565b6109778185610b1f565b935061098283610b15565b825b828110156109ae5781516109988782610933565b9650506109a482610b15565b9150600101610984565b5093949350505050565b60006109c382610b1b565b6109cd8185610b1f565b93506109d883610b15565b825b828110156109ae5781516109ee8782610947565b9650506109fa82610b15565b91506001016109da565b6000610a11600d83610b1f565b6c24a72b20a624a22faa27a5a2a760991b91810191909152602001919050565b6000610a3e600283610b1f565b61191960f11b91810191909152602001919050565b61095c81610b39565b602081016106778284610953565b60408082528101610a7b8185610962565b9050818103602083015261013781846109b8565b602080825281016107f981846109b8565b6020808252810161067781610a04565b6020808252810161067781610a31565b602081016106778284610a53565b60405181810167ffffffffffffffff81118282101715610aed57600080fd5b604052919050565b600067ffffffffffffffff821115610b0b578081fd5b5060209081020190565b60200190565b5190565b90815260200190565b60006001600160a01b038216610677565b90565b610b4581610b28565b8114610b5057600080fd5b50565b610b4581610b3956fea264697066735822122005626f9df2f66df35491896f20b99b6919a793895b6985c89b32eeb6838d2f3264736f6c634300060c0033",
    "linkReferences": {}
  },
  "methodIdentifiers": {
    "balanceOf(address,address)": "f7888aec",
    "batchBalanceOf(address[],address[])": "b59b28ef",
    "getUserWalletBalances(address,address)": "02405343"
  },
  "id": 37
}