{
  "abi": [
    {
      "inputs": [
        {
          "internalType": "address payable",
          "name": "to",
          "type": "address"
        }
      ],
      "name": "destroyAndTransfer",
      "outputs": [],
      "stateMutability": "payable",
      "type": "function"
    }
  ],
  "bytecode": {
    "object": "0x6080604052348015600f57600080fd5b5060888061001e6000396000f3fe608060405260043610601c5760003560e01c8063785e07b3146021575b600080fd5b604460048036036020811015603557600080fd5b50356001600160a01b03166046565b005b806001600160a01b0316fffea2646970667358221220011baa24641e1309e5661d51384973ee62b2d56fba51b36bac206bfc1fcdc55d64736f6c634300060c0033",
    "linkReferences": {}
  },
  "methodIdentifiers": {
    "destroyAndTransfer(address)": "785e07b3"
  },
  "id": 51
}