{
  "abi": [
    {
      "inputs": [],
      "name": "HEALTH_FACTOR_LIQUIDATION_THRESHOLD",
      "outputs": [
        {
          "internalType": "uint256",
          "name": "",
          "type": "uint256"
        }
      ],
      "stateMutability": "view",
      "type": "function"
    }
  ],
  "bytecode": {
    "object": "0x610fc6610026600b82828239805160001a60731461001957fe5b30600052607381538281f3fe73000000000000000000000000000000000000000030146080604052600436106100405760003560e01c8063c3525c2814610045578063e617042414610063575b600080fd5b61004d610083565b60405161005a9190610ed5565b60405180910390f35b610076610071366004610cc3565b61008f565b60405161005a9190610e96565b670de0b6b3a764000081565b60006100a86100a336879003870187610d71565b6102be565b15806100f057506001600160a01b0389166000908152602087905260409020600701546100ee90600160a01b900460ff166100e836889003880188610d71565b906102e6565b155b156100fd575060016102b2565b610105610b69565b6001600160a01b038a16600090815260208890526040902061012690610348565b5084525060208301819052151590506101435760019150506102b2565b61015f8988610157368a90038a018a610d71565b888888610373565b506080850152506060830181905260408301919091526101835760019150506102b2565b61021a8160000151600a0a6102148a866001600160a01b031663b3596f078f6040518263ffffffff1660e01b81526004016101be9190610e88565b60206040518083038186803b1580156101d657600080fd5b505afa1580156101ea573d6000803e3d6000fd5b505050506040513d601f19601f8201168201806040525081019061020e9190610d8e565b90610834565b90610875565b60a08201819052604082015161022f916108b7565b60c082018190526102445760009150506102b2565b6102838160c0015161021461026a84602001518560a0015161083490919063ffffffff16565b6080850151604086015161027d91610834565b906108b7565b60e0820181905260c082015160608301516000926102a29291906108f9565b670de0b6b3a76400001115925050505b98975050505050505050565b517f555555555555555555555555555555555555555555555555555555555555555516151590565b60006080821060405180604001604052806002815260200161373760f01b8152509061032e5760405162461bcd60e51b81526004016103259190610ea4565b60405180910390fd5b5050815160016002830281019190911c1615155b92915050565b5461ffff80821692601083901c821692602081901c831692603082901c60ff169260409290921c1690565b6000806000806000610383610bbe565b61038c8a610925565b156103aa576000806000806000199550955095509550955050610826565b600060e08201525b878160e0015110156107855760e08101516103ce908b9061092a565b6103d757610775565b60e0810151600090815260208a81526040808320546001600160a01b03166101e085018190528352908d9052902061040e81610348565b506080860181905260c08601929092525060a0840191909152600a0a60208301526101e082015160405163b3596f0760e01b81526001600160a01b038a169163b3596f07916104609190600401610e88565b60206040518083038186803b15801561047857600080fd5b505afa15801561048c573d6000803e3d6000fd5b505050506040513d601f19601f820116820180604052508101906104b09190610d8e565b825260c0820151158015906104d0575060e08201516104d0908c906102e6565b156105ee578060040160009054906101000a90046001600160a01b03166001600160a01b03166370a082318e6040518263ffffffff1660e01b81526004016105189190610e88565b60206040518083038186803b15801561053057600080fd5b505afa158015610544573d6000803e3d6000fd5b505050506040513d601f19601f820116820180604052508101906105689190610d8e565b6040830181905260208301518351600092610587929161021491610834565b61012084015190915061059a908261097b565b61012084015260a08301516105c0906105b4908390610834565b6101608501519061097b565b61016084015260c08301516105e6906105da908390610834565b6101808501519061097b565b610180840152505b60e08201516105fe908c906109a0565b15610773578060050160009054906101000a90046001600160a01b03166001600160a01b03166370a082318e6040518263ffffffff1660e01b81526004016106469190610e88565b60206040518083038186803b15801561065e57600080fd5b505afa158015610672573d6000803e3d6000fd5b505050506040513d601f19601f820116820180604052508101906106969190610d8e565b8260600181815250506107408160060160009054906101000a90046001600160a01b03166001600160a01b03166370a082318f6040518263ffffffff1660e01b81526004016106e59190610e88565b60206040518083038186803b1580156106fd57600080fd5b505afa158015610711573d6000803e3d6000fd5b505050506040513d601f19601f820116820180604052508101906107359190610d8e565b60608401519061097b565b606083018190526020830151835161076c92610760929161021491610834565b6101408401519061097b565b6101408301525b505b60e08101805160010190526103b2565b6000816101200151116107995760006107ae565b6101208101516101608201516107ae91610875565b6101608201526101208101516107c55760006107da565b6101208101516101808201516107da91610875565b61018082018190526101208201516101408301516107f7926108f9565b610100820181905261012082015161014083015161016084015161018090940151919850965091945090925090505b965096509650965096915050565b60008261084357506000610342565b8282028284828161085057fe5b041461086e5760405162461bcd60e51b815260040161032590610ec5565b9392505050565b600061086e83836040518060400160405280601a81526020017f536166654d6174683a206469766973696f6e206279207a65726f0000000000008152506109f1565b600061086e83836040518060400160405280601e81526020017f536166654d6174683a207375627472616374696f6e206f766572666c6f770000815250610a28565b600082610909575060001961086e565b61091d836109178685610a54565b90610ac6565b949350505050565b511590565b60006080821060405180604001604052806002815260200161373760f01b815250906109695760405162461bcd60e51b81526004016103259190610ea4565b50509051600360029092021c16151590565b60008282018381101561086e5760405162461bcd60e51b815260040161032590610eb5565b60006080821060405180604001604052806002815260200161373760f01b815250906109df5760405162461bcd60e51b81526004016103259190610ea4565b50509051600160029092021c16151590565b60008183610a125760405162461bcd60e51b81526004016103259190610ea4565b506000838581610a1e57fe5b0495945050505050565b60008184841115610a4c5760405162461bcd60e51b81526004016103259190610ea4565b505050900390565b6000821580610a61575081155b15610a6e57506000610342565b816113881981610a7a57fe5b0483111560405180604001604052806002815260200161068760f31b81525090610ab75760405162461bcd60e51b81526004016103259190610ea4565b50506127109102611388010490565b604080518082019091526002815261035360f41b602082015260009082610b005760405162461bcd60e51b81526004016103259190610ea4565b5060408051808201909152600280825261068760f31b6020830152830490670de0b6b3a7640000821904851115610b4a5760405162461bcd60e51b81526004016103259190610ea4565b508281670de0b6b3a764000086020181610b6057fe5b04949350505050565b6040518061014001604052806000815260200160008152602001600081526020016000815260200160008152602001600081526020016000815260200160008152602001600081526020016000151581525090565b604051806102400160405280600081526020016000815260200160008152602001600081526020016000815260200160008152602001600081526020016000815260200160008152602001600081526020016000815260200160008152602001600081526020016000815260200160001515815260200160006001600160a01b031681526020016000151581526020016000151581525090565b803561034281610f70565b803561034281610f87565b600060208284031215610c7f578081fd5b50919050565b600060208284031215610c96578081fd5b610ca06020610ee3565b90506000610cae8484610c63565b9082015292915050565b805161034281610f87565b600080600080600080600080610100898b031215610cdf578384fd5b610ceb8a858b01610c58565b97506020610cfb8b828c01610c58565b9750506040610d0c8b828c01610c63565b9650506060610d1d8b828c01610c63565b9550506080610d2e8b828c01610c6e565b94505060a0610d3f8b828c01610c63565b93505060c0610d508b828c01610c63565b92505060e0610d618b828c01610c58565b9150509295985092959890939650565b600060208284031215610d82578081fd5b61086e83828401610c85565b600060208284031215610d9f578081fd5b61086e83828401610cb8565b610db481610f17565b82525050565b610db481610f22565b6000610dce82610f0a565b610dd88185610f0e565b9350610de8818560208601610f36565b610df181610f66565b9093019392505050565b6000610e08601b83610f0e565b7f536166654d6174683a206164646974696f6e206f766572666c6f77000000000091810191909152602001919050565b6000610e45602183610f0e565b7f536166654d6174683a206d756c7469706c69636174696f6e206f766572666c6f91810191909152607760f81b6020820152604001919050565b610db481610f27565b602081016103428284610dab565b602081016103428284610dba565b6020808252810161086e8184610dc3565b6020808252810161034281610dfb565b6020808252810161034281610e38565b602081016103428284610e7f565b60405181810167ffffffffffffffff81118282101715610f0257600080fd5b604052919050565b5190565b90815260200190565b600061034282610f2a565b151590565b90565b6001600160a01b031690565b60005b83811015610f51578181015183820152602001610f39565b83811115610f60576000848401525b50505050565b601f01601f191690565b610f7981610f17565b8114610f8457600080fd5b50565b610f7981610f2756fea26469706673582212206bbde79f698f76a6145fe0703886d5d76ba3150c15694a399e5dbe887e16ef0d64736f6c634300060c0033",
    "linkReferences": {}
  },
  "methodIdentifiers": {
    "HEALTH_FACTOR_LIQUIDATION_THRESHOLD()": "c3525c28",
    "balanceDecreaseAllowed(address,address,uint256,mapping(address => DataTypes.ReserveData) storage,DataTypes.UserConfigurationMap,mapping(uint256 => address) storage,uint256,address)": "e6170424"
  },
  "id": 80
}