{
  "abi": [
    {
      "inputs": [],
      "name": "BORROW_ALLOWANCE_NOT_ENOUGH",
      "outputs": [
        {
          "internalType": "string",
          "name": "",
          "type": "string"
        }
      ],
      "stateMutability": "view",
      "type": "function"
    },
    {
      "inputs": [],
      "name": "CALLER_NOT_POOL_ADMIN",
      "outputs": [
        {
          "internalType": "string",
          "name": "",
          "type": "string"
        }
      ],
      "stateMutability": "view",
      "type": "function"
    },
    {
      "inputs": [],
      "name": "CT_CALLER_MUST_BE_LENDING_POOL",
      "outputs": [
        {
          "internalType": "string",
          "name": "",
          "type": "string"
        }
      ],
      "stateMutability": "view",
      "type": "function"
    },
    {
      "inputs": [],
      "name": "CT_CANNOT_GIVE_ALLOWANCE_TO_HIMSELF",
      "outputs": [
        {
          "internalType": "string",
          "name": "",
          "type": "string"
        }
      ],
      "stateMutability": "view",
      "type": "function"
    },
    {
      "inputs": [],
      "name": "CT_INVALID_BURN_AMOUNT",
      "outputs": [
        {
          "internalType": "string",
          "name": "",
          "type": "string"
        }
      ],
      "stateMutability": "view",
      "type": "function"
    },
    {
      "inputs": [],
      "name": "CT_INVALID_MINT_AMOUNT",
      "outputs": [
        {
          "internalType": "string",
          "name": "",
          "type": "string"
        }
      ],
      "stateMutability": "view",
      "type": "function"
    },
    {
      "inputs": [],
      "name": "CT_TRANSFER_AMOUNT_NOT_GT_0",
      "outputs": [
        {
          "internalType": "string",
          "name": "",
          "type": "string"
        }
      ],
      "stateMutability": "view",
      "type": "function"
    },
    {
      "inputs": [],
      "name": "LPAPR_INVALID_ADDRESSES_PROVIDER_ID",
      "outputs": [
        {
          "internalType": "string",
          "name": "",
          "type": "string"
        }
      ],
      "stateMutability": "view",
      "type": "function"
    },
    {
      "inputs": [],
      "name": "LPAPR_PROVIDER_NOT_REGISTERED",
      "outputs": [
        {
          "internalType": "string",
          "name": "",
          "type": "string"
        }
      ],
      "stateMutability": "view",
      "type": "function"
    },
    {
      "inputs": [],
      "name": "LPCM_COLLATERAL_CANNOT_BE_LIQUIDATED",
      "outputs": [
        {
          "internalType": "string",
          "name": "",
          "type": "string"
        }
      ],
      "stateMutability": "view",
      "type": "function"
    },
    {
      "inputs": [],
      "name": "LPCM_HEALTH_FACTOR_NOT_BELOW_THRESHOLD",
      "outputs": [
        {
          "internalType": "string",
          "name": "",
          "type": "string"
        }
      ],
      "stateMutability": "view",
      "type": "function"
    },
    {
      "inputs": [],
      "name": "LPCM_NOT_ENOUGH_LIQUIDITY_TO_LIQUIDATE",
      "outputs": [
        {
          "internalType": "string",
          "name": "",
          "type": "string"
        }
      ],
      "stateMutability": "view",
      "type": "function"
    },
    {
      "inputs": [],
      "name": "LPCM_NO_ERRORS",
      "outputs": [
        {
          "internalType": "string",
          "name": "",
          "type": "string"
        }
      ],
      "stateMutability": "view",
      "type": "function"
    },
    {
      "inputs": [],
      "name": "LPCM_SPECIFIED_CURRENCY_NOT_BORROWED_BY_USER",
      "outputs": [
        {
          "internalType": "string",
          "name": "",
          "type": "string"
        }
      ],
      "stateMutability": "view",
      "type": "function"
    },
    {
      "inputs": [],
      "name": "LPC_CALLER_NOT_EMERGENCY_ADMIN",
      "outputs": [
        {
          "internalType": "string",
          "name": "",
          "type": "string"
        }
      ],
      "stateMutability": "view",
      "type": "function"
    },
    {
      "inputs": [],
      "name": "LPC_INVALID_ADDRESSES_PROVIDER_ID",
      "outputs": [
        {
          "internalType": "string",
          "name": "",
          "type": "string"
        }
      ],
      "stateMutability": "view",
      "type": "function"
    },
    {
      "inputs": [],
      "name": "LPC_INVALID_ATOKEN_POOL_ADDRESS",
      "outputs": [
        {
          "internalType": "string",
          "name": "",
          "type": "string"
        }
      ],
      "stateMutability": "view",
      "type": "function"
    },
    {
      "inputs": [],
      "name": "LPC_INVALID_CONFIGURATION",
      "outputs": [
        {
          "internalType": "string",
          "name": "",
          "type": "string"
        }
      ],
      "stateMutability": "view",
      "type": "function"
    },
    {
      "inputs": [],
      "name": "LPC_INVALID_STABLE_DEBT_TOKEN_POOL_ADDRESS",
      "outputs": [
        {
          "internalType": "string",
          "name": "",
          "type": "string"
        }
      ],
      "stateMutability": "view",
      "type": "function"
    },
    {
      "inputs": [],
      "name": "LPC_INVALID_STABLE_DEBT_TOKEN_UNDERLYING_ADDRESS",
      "outputs": [
        {
          "internalType": "string",
          "name": "",
          "type": "string"
        }
      ],
      "stateMutability": "view",
      "type": "function"
    },
    {
      "inputs": [],
      "name": "LPC_INVALID_VARIABLE_DEBT_TOKEN_POOL_ADDRESS",
      "outputs": [
        {
          "internalType": "string",
          "name": "",
          "type": "string"
        }
      ],
      "stateMutability": "view",
      "type": "function"
    },
    {
      "inputs": [],
      "name": "LPC_INVALID_VARIABLE_DEBT_TOKEN_UNDERLYING_ADDRESS",
      "outputs": [
        {
          "internalType": "string",
          "name": "",
          "type": "string"
        }
      ],
      "stateMutability": "view",
      "type": "function"
    },
    {
      "inputs": [],
      "name": "LPC_RESERVE_LIQUIDITY_NOT_0",
      "outputs": [
        {
          "internalType": "string",
          "name": "",
          "type": "string"
        }
      ],
      "stateMutability": "view",
      "type": "function"
    },
    {
      "inputs": [],
      "name": "LP_CALLER_MUST_BE_AN_ATOKEN",
      "outputs": [
        {
          "internalType": "string",
          "name": "",
          "type": "string"
        }
      ],
      "stateMutability": "view",
      "type": "function"
    },
    {
      "inputs": [],
      "name": "LP_CALLER_NOT_LENDING_POOL_CONFIGURATOR",
      "outputs": [
        {
          "internalType": "string",
          "name": "",
          "type": "string"
        }
      ],
      "stateMutability": "view",
      "type": "function"
    },
    {
      "inputs": [],
      "name": "LP_FAILED_COLLATERAL_SWAP",
      "outputs": [
        {
          "internalType": "string",
          "name": "",
          "type": "string"
        }
      ],
      "stateMutability": "view",
      "type": "function"
    },
    {
      "inputs": [],
      "name": "LP_FAILED_REPAY_WITH_COLLATERAL",
      "outputs": [
        {
          "internalType": "string",
          "name": "",
          "type": "string"
        }
      ],
      "stateMutability": "view",
      "type": "function"
    },
    {
      "inputs": [],
      "name": "LP_INCONSISTENT_FLASHLOAN_PARAMS",
      "outputs": [
        {
          "internalType": "string",
          "name": "",
          "type": "string"
        }
      ],
      "stateMutability": "view",
      "type": "function"
    },
    {
      "inputs": [],
      "name": "LP_INCONSISTENT_PARAMS_LENGTH",
      "outputs": [
        {
          "internalType": "string",
          "name": "",
          "type": "string"
        }
      ],
      "stateMutability": "view",
      "type": "function"
    },
    {
      "inputs": [],
      "name": "LP_INCONSISTENT_PROTOCOL_ACTUAL_BALANCE",
      "outputs": [
        {
          "internalType": "string",
          "name": "",
          "type": "string"
        }
      ],
      "stateMutability": "view",
      "type": "function"
    },
    {
      "inputs": [],
      "name": "LP_INTEREST_RATE_REBALANCE_CONDITIONS_NOT_MET",
      "outputs": [
        {
          "internalType": "string",
          "name": "",
          "type": "string"
        }
      ],
      "stateMutability": "view",
      "type": "function"
    },
    {
      "inputs": [],
      "name": "LP_INVALID_EQUAL_ASSETS_TO_SWAP",
      "outputs": [
        {
          "internalType": "string",
          "name": "",
          "type": "string"
        }
      ],
      "stateMutability": "view",
      "type": "function"
    },
    {
      "inputs": [],
      "name": "LP_INVALID_FLASHLOAN_MODE",
      "outputs": [
        {
          "internalType": "string",
          "name": "",
          "type": "string"
        }
      ],
      "stateMutability": "view",
      "type": "function"
    },
    {
      "inputs": [],
      "name": "LP_INVALID_FLASH_LOAN_EXECUTOR_RETURN",
      "outputs": [
        {
          "internalType": "string",
          "name": "",
          "type": "string"
        }
      ],
      "stateMutability": "view",
      "type": "function"
    },
    {
      "inputs": [],
      "name": "LP_IS_PAUSED",
      "outputs": [
        {
          "internalType": "string",
          "name": "",
          "type": "string"
        }
      ],
      "stateMutability": "view",
      "type": "function"
    },
    {
      "inputs": [],
      "name": "LP_LIQUIDATION_CALL_FAILED",
      "outputs": [
        {
          "internalType": "string",
          "name": "",
          "type": "string"
        }
      ],
      "stateMutability": "view",
      "type": "function"
    },
    {
      "inputs": [],
      "name": "LP_MAX_BORROWED",
      "outputs": [
        {
          "internalType": "string",
          "name": "",
          "type": "string"
        }
      ],
      "stateMutability": "view",
      "type": "function"
    },
    {
      "inputs": [],
      "name": "LP_MAX_DEPOSITED",
      "outputs": [
        {
          "internalType": "string",
          "name": "",
          "type": "string"
        }
      ],
      "stateMutability": "view",
      "type": "function"
    },
    {
      "inputs": [],
      "name": "LP_NOT_CONTRACT",
      "outputs": [
        {
          "internalType": "string",
          "name": "",
          "type": "string"
        }
      ],
      "stateMutability": "view",
      "type": "function"
    },
    {
      "inputs": [],
      "name": "LP_NOT_ENOUGH_LIQUIDITY_TO_BORROW",
      "outputs": [
        {
          "internalType": "string",
          "name": "",
          "type": "string"
        }
      ],
      "stateMutability": "view",
      "type": "function"
    },
    {
      "inputs": [],
      "name": "LP_NOT_ENOUGH_STABLE_BORROW_BALANCE",
      "outputs": [
        {
          "internalType": "string",
          "name": "",
          "type": "string"
        }
      ],
      "stateMutability": "view",
      "type": "function"
    },
    {
      "inputs": [],
      "name": "LP_NO_MORE_RESERVES_ALLOWED",
      "outputs": [
        {
          "internalType": "string",
          "name": "",
          "type": "string"
        }
      ],
      "stateMutability": "view",
      "type": "function"
    },
    {
      "inputs": [],
      "name": "LP_REENTRANCY_NOT_ALLOWED",
      "outputs": [
        {
          "internalType": "string",
          "name": "",
          "type": "string"
        }
      ],
      "stateMutability": "view",
      "type": "function"
    },
    {
      "inputs": [],
      "name": "LP_REQUESTED_AMOUNT_TOO_SMALL",
      "outputs": [
        {
          "internalType": "string",
          "name": "",
          "type": "string"
        }
      ],
      "stateMutability": "view",
      "type": "function"
    },
    {
      "inputs": [],
      "name": "MATH_ADDITION_OVERFLOW",
      "outputs": [
        {
          "internalType": "string",
          "name": "",
          "type": "string"
        }
      ],
      "stateMutability": "view",
      "type": "function"
    },
    {
      "inputs": [],
      "name": "MATH_DIVISION_BY_ZERO",
      "outputs": [
        {
          "internalType": "string",
          "name": "",
          "type": "string"
        }
      ],
      "stateMutability": "view",
      "type": "function"
    },
    {
      "inputs": [],
      "name": "MATH_MULTIPLICATION_OVERFLOW",
      "outputs": [
        {
          "internalType": "string",
          "name": "",
          "type": "string"
        }
      ],
      "stateMutability": "view",
      "type": "function"
    },
    {
      "inputs": [],
      "name": "RC_INVALID_DECIMALS",
      "outputs": [
        {
          "internalType": "string",
          "name": "",
          "type": "string"
        }
      ],
      "stateMutability": "view",
      "type": "function"
    },
    {
      "inputs": [],
      "name": "RC_INVALID_LIQ_BONUS",
      "outputs": [
        {
          "internalType": "string",
          "name": "",
          "type": "string"
        }
      ],
      "stateMutability": "view",
      "type": "function"
    },
    {
      "inputs": [],
      "name": "RC_INVALID_LIQ_THRESHOLD",
      "outputs": [
        {
          "internalType": "string",
          "name": "",
          "type": "string"
        }
      ],
      "stateMutability": "view",
      "type": "function"
    },
    {
      "inputs": [],
      "name": "RC_INVALID_LTV",
      "outputs": [
        {
          "internalType": "string",
          "name": "",
          "type": "string"
        }
      ],
      "stateMutability": "view",
      "type": "function"
    },
    {
      "inputs": [],
      "name": "RC_INVALID_RESERVE_FACTOR",
      "outputs": [
        {
          "internalType": "string",
          "name": "",
          "type": "string"
        }
      ],
      "stateMutability": "view",
      "type": "function"
    },
    {
      "inputs": [],
      "name": "RL_LIQUIDITY_INDEX_OVERFLOW",
      "outputs": [
        {
          "internalType": "string",
          "name": "",
          "type": "string"
        }
      ],
      "stateMutability": "view",
      "type": "function"
    },
    {
      "inputs": [],
      "name": "RL_LIQUIDITY_RATE_OVERFLOW",
      "outputs": [
        {
          "internalType": "string",
          "name": "",
          "type": "string"
        }
      ],
      "stateMutability": "view",
      "type": "function"
    },
    {
      "inputs": [],
      "name": "RL_RESERVE_ALREADY_INITIALIZED",
      "outputs": [
        {
          "internalType": "string",
          "name": "",
          "type": "string"
        }
      ],
      "stateMutability": "view",
      "type": "function"
    },
    {
      "inputs": [],
      "name": "RL_STABLE_BORROW_RATE_OVERFLOW",
      "outputs": [
        {
          "internalType": "string",
          "name": "",
          "type": "string"
        }
      ],
      "stateMutability": "view",
      "type": "function"
    },
    {
      "inputs": [],
      "name": "RL_VARIABLE_BORROW_INDEX_OVERFLOW",
      "outputs": [
        {
          "internalType": "string",
          "name": "",
          "type": "string"
        }
      ],
      "stateMutability": "view",
      "type": "function"
    },
    {
      "inputs": [],
      "name": "RL_VARIABLE_BORROW_RATE_OVERFLOW",
      "outputs": [
        {
          "internalType": "string",
          "name": "",
          "type": "string"
        }
      ],
      "stateMutability": "view",
      "type": "function"
    },
    {
      "inputs": [],
      "name": "SDT_BURN_EXCEEDS_BALANCE",
      "outputs": [
        {
          "internalType": "string",
          "name": "",
          "type": "string"
        }
      ],
      "stateMutability": "view",
      "type": "function"
    },
    {
      "inputs": [],
      "name": "SDT_STABLE_DEBT_OVERFLOW",
      "outputs": [
        {
          "internalType": "string",
          "name": "",
          "type": "string"
        }
      ],
      "stateMutability": "view",
      "type": "function"
    },
    {
      "inputs": [],
      "name": "UL_INVALID_INDEX",
      "outputs": [
        {
          "internalType": "string",
          "name": "",
          "type": "string"
        }
      ],
      "stateMutability": "view",
      "type": "function"
    },
    {
      "inputs": [],
      "name": "VL_AMOUNT_BIGGER_THAN_MAX_LOAN_SIZE_STABLE",
      "outputs": [
        {
          "internalType": "string",
          "name": "",
          "type": "string"
        }
      ],
      "stateMutability": "view",
      "type": "function"
    },
    {
      "inputs": [],
      "name": "VL_BORROWING_NOT_ENABLED",
      "outputs": [
        {
          "internalType": "string",
          "name": "",
          "type": "string"
        }
      ],
      "stateMutability": "view",
      "type": "function"
    },
    {
      "inputs": [],
      "name": "VL_COLLATERAL_BALANCE_IS_0",
      "outputs": [
        {
          "internalType": "string",
          "name": "",
          "type": "string"
        }
      ],
      "stateMutability": "view",
      "type": "function"
    },
    {
      "inputs": [],
      "name": "VL_COLLATERAL_CANNOT_COVER_NEW_BORROW",
      "outputs": [
        {
          "internalType": "string",
          "name": "",
          "type": "string"
        }
      ],
      "stateMutability": "view",
      "type": "function"
    },
    {
      "inputs": [],
      "name": "VL_COLLATERAL_SAME_AS_BORROWING_CURRENCY",
      "outputs": [
        {
          "internalType": "string",
          "name": "",
          "type": "string"
        }
      ],
      "stateMutability": "view",
      "type": "function"
    },
    {
      "inputs": [],
      "name": "VL_CURRENT_AVAILABLE_LIQUIDITY_NOT_ENOUGH",
      "outputs": [
        {
          "internalType": "string",
          "name": "",
          "type": "string"
        }
      ],
      "stateMutability": "view",
      "type": "function"
    },
    {
      "inputs": [],
      "name": "VL_DEPOSIT_ALREADY_IN_USE",
      "outputs": [
        {
          "internalType": "string",
          "name": "",
          "type": "string"
        }
      ],
      "stateMutability": "view",
      "type": "function"
    },
    {
      "inputs": [],
      "name": "VL_HEALTH_FACTOR_LOWER_THAN_LIQUIDATION_THRESHOLD",
      "outputs": [
        {
          "internalType": "string",
          "name": "",
          "type": "string"
        }
      ],
      "stateMutability": "view",
      "type": "function"
    },
    {
      "inputs": [],
      "name": "VL_INCONSISTENT_FLASHLOAN_PARAMS",
      "outputs": [
        {
          "internalType": "string",
          "name": "",
          "type": "string"
        }
      ],
      "stateMutability": "view",
      "type": "function"
    },
    {
      "inputs": [],
      "name": "VL_INVALID_AMOUNT",
      "outputs": [
        {
          "internalType": "string",
          "name": "",
          "type": "string"
        }
      ],
      "stateMutability": "view",
      "type": "function"
    },
    {
      "inputs": [],
      "name": "VL_INVALID_INTEREST_RATE_MODE_SELECTED",
      "outputs": [
        {
          "internalType": "string",
          "name": "",
          "type": "string"
        }
      ],
      "stateMutability": "view",
      "type": "function"
    },
    {
      "inputs": [],
      "name": "VL_NOT_ENOUGH_AVAILABLE_USER_BALANCE",
      "outputs": [
        {
          "internalType": "string",
          "name": "",
          "type": "string"
        }
      ],
      "stateMutability": "view",
      "type": "function"
    },
    {
      "inputs": [],
      "name": "VL_NO_ACTIVE_RESERVE",
      "outputs": [
        {
          "internalType": "string",
          "name": "",
          "type": "string"
        }
      ],
      "stateMutability": "view",
      "type": "function"
    },
    {
      "inputs": [],
      "name": "VL_NO_DEBT_OF_SELECTED_TYPE",
      "outputs": [
        {
          "internalType": "string",
          "name": "",
          "type": "string"
        }
      ],
      "stateMutability": "view",
      "type": "function"
    },
    {
      "inputs": [],
      "name": "VL_NO_EXPLICIT_AMOUNT_TO_REPAY_ON_BEHALF",
      "outputs": [
        {
          "internalType": "string",
          "name": "",
          "type": "string"
        }
      ],
      "stateMutability": "view",
      "type": "function"
    },
    {
      "inputs": [],
      "name": "VL_NO_STABLE_RATE_LOAN_IN_RESERVE",
      "outputs": [
        {
          "internalType": "string",
          "name": "",
          "type": "string"
        }
      ],
      "stateMutability": "view",
      "type": "function"
    },
    {
      "inputs": [],
      "name": "VL_NO_VARIABLE_RATE_LOAN_IN_RESERVE",
      "outputs": [
        {
          "internalType": "string",
          "name": "",
          "type": "string"
        }
      ],
      "stateMutability": "view",
      "type": "function"
    },
    {
      "inputs": [],
      "name": "VL_RESERVE_FROZEN",
      "outputs": [
        {
          "internalType": "string",
          "name": "",
          "type": "string"
        }
      ],
      "stateMutability": "view",
      "type": "function"
    },
    {
      "inputs": [],
      "name": "VL_STABLE_BORROWING_NOT_ENABLED",
      "outputs": [
        {
          "internalType": "string",
          "name": "",
          "type": "string"
        }
      ],
      "stateMutability": "view",
      "type": "function"
    },
    {
      "inputs": [],
      "name": "VL_TRANSFER_NOT_ALLOWED",
      "outputs": [
        {
          "internalType": "string",
          "name": "",
          "type": "string"
        }
      ],
      "stateMutability": "view",
      "type": "function"
    },
    {
      "inputs": [],
      "name": "VL_UNDERLYING_BALANCE_NOT_GREATER_THAN_0",
      "outputs": [
        {
          "internalType": "string",
          "name": "",
          "type": "string"
        }
      ],
      "stateMutability": "view",
      "type": "function"
    }
  ],
  "bytecode": {
    "object": "0x611173610026600b82828239805160001a60731461001957fe5b30600052607381538281f3fe73000000000000000000000000000000000000000030146080604052600436106104a05760003560e01c80636ab5e6151161026c578063cc5fc44c1161015b578063e29425dc116100d8578063f04732591161009c578063f04732591461077a578063f11c672014610782578063f3d9cc111461078a578063f902735d14610792578063fb681def1461079a578063fe75fd26146107a2576104a0565b8063e29425dc14610752578063e2c16d691461075a578063e663274814610762578063e7bf91b31461076a578063eca85d3a14610772576104a0565b8063d6f681b61161011f578063d6f681b61461072a578063d7510e0c14610732578063d7b079aa1461073a578063daf2354714610742578063e0d7dfd71461074a576104a0565b8063cc5fc44c14610702578063cdad445a1461070a578063d3e370ee14610712578063d44e8e881461071a578063d57bb96414610722576104a0565b8063a2fbc8ad116101e9578063b72e40c7116101ad578063b72e40c7146106da578063b89652cd146106e2578063bd013f5b146106ea578063c09e2618146106f2578063c2d628df146106fa576104a0565b8063a2fbc8ad146106b2578063a39ed4ff146106ba578063a8440241146106c2578063ac753236146106ca578063b36a2cf3146106d2576104a0565b806376f190301161023057806376f190301461068a5780637865a62714610692578063871938a81461069a57806391a9fb18146106a25780639be4f03a146106aa576104a0565b80636ab5e615146106625780636ba4271f1461066a5780636d422aa114610672578063708b8dd31461067a57806371a629da14610682576104a0565b80633aa786a81161039357806347d25300116103105780635a9786d4116102d45780635a9786d4146106325780635e869ff11461063a578063614cf6a114610642578063637a5a121461064a5780636422b25714610652578063653447991461065a576104a0565b806347d253001461060a5780634927c63a146106125780634a529f911461061a5780634fe4f1ab1461062257806355bab12c1461062a576104a0565b806340c65d741161035757806340c65d74146105e257806341b40ba5146105ea5780634349e3d8146105f257806344942004146105fa57806344dc4f7014610602576104a0565b80633aa786a8146105ba5780633b5d25aa146105c25780633eb85d2c146105ca5780633f5d6ec8146105d2578063407374a4146105da576104a0565b806322a6f08e11610421578063333e8ea8116103e5578063333e8ea81461059257806335a9d21d1461059a57806336565ab1146105a25780633872b0ad146105aa578063390f34ba146105b2576104a0565b806322a6f08e1461056a5780632ace698a146105725780632b34c3491461057a5780632b9c57f6146105825780632ea347b01461058a576104a0565b80631291a38b116104685780631291a38b14610542578063179476c51461054a5780631befa78d146105525780631ea7c6041461055a5780631ec68b1d14610562576104a0565b806302454ad3146104a5578063029d23441461052257806306f355ad1461052a5780630b8fd588146105325780630f5ee4821461053a575b600080fd5b6104ad6107aa565b6040805160208082528351818301528351919283929083019185019080838360005b838110156104e75781810151838201526020016104cf565b50505050905090810190601f1680156105145780820380516001836020036101000a031916815260200191505b509250505060405180910390f35b6104ad6107c8565b6104ad6107e6565b6104ad610804565b6104ad610822565b6104ad610840565b6104ad61085e565b6104ad61087b565b6104ad610899565b6104ad6108b7565b6104ad6108d5565b6104ad6108f3565b6104ad610911565b6104ad61092f565b6104ad61094d565b6104ad61096b565b6104ad610989565b6104ad6109a7565b6104ad6109c4565b6104ad6109e2565b6104ad610a00565b6104ad610a1e565b6104ad610a3b565b6104ad610a59565b6104ad610a77565b6104ad610a95565b6104ad610ab3565b6104ad610ad1565b6104ad610aef565b6104ad610b0d565b6104ad610b2b565b6104ad610b49565b6104ad610b67565b6104ad610b85565b6104ad610ba3565b6104ad610bc1565b6104ad610bdf565b6104ad610bfd565b6104ad610c1b565b6104ad610c39565b6104ad610c57565b6104ad610c75565b6104ad610c93565b6104ad610cb1565b6104ad610ccf565b6104ad610cec565b6104ad610d0a565b6104ad610d28565b6104ad610d45565b6104ad610d62565b6104ad610d80565b6104ad610d9e565b6104ad610dbc565b6104ad610dda565b6104ad610df7565b6104ad610e15565b6104ad610e33565b6104ad610e51565b6104ad610e6f565b6104ad610e8d565b6104ad610eab565b6104ad610ec9565b6104ad610ee7565b6104ad610f05565b6104ad610f23565b6104ad610f41565b6104ad610f5f565b6104ad610f7d565b6104ad610f9a565b6104ad610fb8565b6104ad610fd6565b6104ad610ff4565b6104ad611012565b6104ad611030565b6104ad61104e565b6104ad61106c565b6104ad61108a565b6104ad6110a8565b6104ad6110c6565b6104ad6110e3565b6104ad611101565b6104ad61111f565b60405180604001604052806002815260200161373760f01b81525081565b60405180604001604052806002815260200161068760f31b81525081565b60405180604001604052806002815260200161033360f41b81525081565b60405180604001604052806002815260200161191b60f11b81525081565b60405180604001604052806002815260200161343960f01b81525081565b604051806040016040528060028152602001611a9b60f11b81525081565b604051806040016040528060018152602001600d60fa1b81525081565b60405180604001604052806002815260200161038360f41b81525081565b604051806040016040528060028152602001611a1b60f11b81525081565b60405180604001604052806002815260200161031360f41b81525081565b604051806040016040528060028152602001610c8d60f21b81525081565b60405180604001604052806002815260200161313160f01b81525081565b60405180604001604052806002815260200161064760f31b81525081565b6040518060400160405280600281526020016106a760f31b81525081565b604051806040016040528060028152602001610d4d60f21b81525081565b604051806040016040528060028152602001611b9960f11b81525081565b60405180604001604052806002815260200161313960f01b81525081565b604051806040016040528060018152602001603760f81b81525081565b60405180604001604052806002815260200161333960f01b81525081565b60405180604001604052806002815260200161323560f01b81525081565b604051806040016040528060028152602001610c4d60f21b81525081565b604051806040016040528060018152602001600760fb1b81525081565b60405180604001604052806002815260200161383160f01b81525081565b60405180604001604052806002815260200161037360f41b81525081565b60405180604001604052806002815260200161343360f01b81525081565b604051806040016040528060028152602001611c1960f11b81525081565b60405180604001604052806002815260200161066760f31b81525081565b60405180604001604052806002815260200161035360f41b81525081565b604051806040016040528060028152602001611a9960f11b81525081565b60405180604001604052806002815260200161323160f01b81525081565b60405180604001604052806002815260200161373560f01b81525081565b60405180604001604052806002815260200161189960f11b81525081565b60405180604001604052806002815260200161323360f01b81525081565b60405180604001604052806002815260200161353160f01b81525081565b60405180604001604052806002815260200161036360f41b81525081565b60405180604001604052806002815260200161034360f41b81525081565b60405180604001604052806002815260200161363960f01b81525081565b60405180604001604052806002815260200161363760f01b81525081565b6040518060400160405280600281526020016106e760f31b81525081565b60405180604001604052806002815260200161313760f01b81525081565b604051806040016040528060028152602001610ccd60f21b81525081565b60405180604001604052806002815260200161062760f31b81525081565b60405180604001604052806002815260200161323960f01b81525081565b60405180604001604052806002815260200161353560f01b81525081565b604051806040016040528060018152602001603960f81b81525081565b604051806040016040528060028152602001610d0d60f21b81525081565b60405180604001604052806002815260200161363560f01b81525081565b604051806040016040528060018152602001601960f91b81525081565b604051806040016040528060018152602001603160f81b81525081565b60405180604001604052806002815260200161313560f01b81525081565b60405180604001604052806002815260200161373160f01b81525081565b60405180604001604052806002815260200161333160f01b81525081565b60405180604001604052806002815260200161313360f01b81525081565b604051806040016040528060018152602001603560f81b81525081565b60405180604001604052806002815260200161333360f01b81525081565b60405180604001604052806002815260200161323760f01b81525081565b604051806040016040528060028152602001610dcd60f21b81525081565b60405180604001604052806002815260200161191960f11b81525081565b6040518060400160405280600281526020016106c760f31b81525081565b60405180604001604052806002815260200161333760f01b81525081565b60405180604001604052806002815260200161363160f01b81525081565b60405180604001604052806002815260200161343560f01b81525081565b60405180604001604052806002815260200161373960f01b81525081565b604051806040016040528060028152602001611b9b60f11b81525081565b604051806040016040528060028152602001611b1b60f11b81525081565b604051806040016040528060028152602001610d8d60f21b81525081565b60405180604001604052806002815260200161343160f01b81525081565b604051806040016040528060018152602001603360f81b81525081565b60405180604001604052806002815260200161373360f01b81525081565b60405180604001604052806002815260200161189b60f11b81525081565b60405180604001604052806002815260200161199b60f11b81525081565b60405180604001604052806002815260200161032360f41b81525081565b60405180604001604052806002815260200161353960f01b81525081565b60405180604001604052806002815260200161353760f01b81525081565b60405180604001604052806002815260200161343760f01b81525081565b60405180604001604052806002815260200161363360f01b81525081565b60405180604001604052806002815260200161333560f01b81525081565b60405180604001604052806002815260200161353360f01b81525081565b604051806040016040528060018152602001601b60f91b81525081565b604051806040016040528060028152602001611b1960f11b81525081565b604051806040016040528060028152602001611a1960f11b81525081565b60405180604001604052806002815260200161199960f11b8152508156fea26469706673582212202b27022cf363caca7add99d38d3830977d7b849e391d68f8284f780d5d0477be64736f6c634300060c0033",
    "linkReferences": {}
  },
  "methodIdentifiers": {
    "BORROW_ALLOWANCE_NOT_ENOUGH()": "e2c16d69",
    "CALLER_NOT_POOL_ADMIN()": "ac753236",
    "CT_CALLER_MUST_BE_LENDING_POOL()": "6ba4271f",
    "CT_CANNOT_GIVE_ALLOWANCE_TO_HIMSELF()": "06f355ad",
    "CT_INVALID_BURN_AMOUNT()": "2b9c57f6",
    "CT_INVALID_MINT_AMOUNT()": "1291a38b",
    "CT_TRANSFER_AMOUNT_NOT_GT_0()": "a2fbc8ad",
    "LPAPR_INVALID_ADDRESSES_PROVIDER_ID()": "333e8ea8",
    "LPAPR_PROVIDER_NOT_REGISTERED()": "d6f681b6",
    "LPCM_COLLATERAL_CANNOT_BE_LIQUIDATED()": "407374a4",
    "LPCM_HEALTH_FACTOR_NOT_BELOW_THRESHOLD()": "fb681def",
    "LPCM_NOT_ENOUGH_LIQUIDITY_TO_LIQUIDATE()": "cc5fc44c",
    "LPCM_NO_ERRORS()": "1ea7c604",
    "LPCM_SPECIFIED_CURRENCY_NOT_BORROWED_BY_USER()": "71a629da",
    "LPC_CALLER_NOT_EMERGENCY_ADMIN()": "d3e370ee",
    "LPC_INVALID_ADDRESSES_PROVIDER_ID()": "5a9786d4",
    "LPC_INVALID_ATOKEN_POOL_ADDRESS()": "f0473259",
    "LPC_INVALID_CONFIGURATION()": "47d25300",
    "LPC_INVALID_STABLE_DEBT_TOKEN_POOL_ADDRESS()": "e0d7dfd7",
    "LPC_INVALID_STABLE_DEBT_TOKEN_UNDERLYING_ADDRESS()": "41b40ba5",
    "LPC_INVALID_VARIABLE_DEBT_TOKEN_POOL_ADDRESS()": "c09e2618",
    "LPC_INVALID_VARIABLE_DEBT_TOKEN_UNDERLYING_ADDRESS()": "3872b0ad",
    "LPC_RESERVE_LIQUIDITY_NOT_0()": "65344799",
    "LP_CALLER_MUST_BE_AN_ATOKEN()": "eca85d3a",
    "LP_CALLER_NOT_LENDING_POOL_CONFIGURATOR()": "b36a2cf3",
    "LP_FAILED_COLLATERAL_SWAP()": "55bab12c",
    "LP_FAILED_REPAY_WITH_COLLATERAL()": "e6632748",
    "LP_INCONSISTENT_FLASHLOAN_PARAMS()": "2b34c349",
    "LP_INCONSISTENT_PARAMS_LENGTH()": "b72e40c7",
    "LP_INCONSISTENT_PROTOCOL_ACTUAL_BALANCE()": "0b8fd588",
    "LP_INTEREST_RATE_REBALANCE_CONDITIONS_NOT_MET()": "b89652cd",
    "LP_INVALID_EQUAL_ASSETS_TO_SWAP()": "c2d628df",
    "LP_INVALID_FLASHLOAN_MODE()": "e7bf91b3",
    "LP_INVALID_FLASH_LOAN_EXECUTOR_RETURN()": "d44e8e88",
    "LP_IS_PAUSED()": "d57bb964",
    "LP_LIQUIDATION_CALL_FAILED()": "4a529f91",
    "LP_MAX_BORROWED()": "40c65d74",
    "LP_MAX_DEPOSITED()": "3eb85d2c",
    "LP_NOT_CONTRACT()": "637a5a12",
    "LP_NOT_ENOUGH_LIQUIDITY_TO_BORROW()": "22a6f08e",
    "LP_NOT_ENOUGH_STABLE_BORROW_BALANCE()": "44dc4f70",
    "LP_NO_MORE_RESERVES_ALLOWED()": "76f19030",
    "LP_REENTRANCY_NOT_ALLOWED()": "f902735d",
    "LP_REQUESTED_AMOUNT_TOO_SMALL()": "390f34ba",
    "MATH_ADDITION_OVERFLOW()": "0f5ee482",
    "MATH_DIVISION_BY_ZERO()": "4349e3d8",
    "MATH_MULTIPLICATION_OVERFLOW()": "029d2344",
    "RC_INVALID_DECIMALS()": "3f5d6ec8",
    "RC_INVALID_LIQ_BONUS()": "5e869ff1",
    "RC_INVALID_LIQ_THRESHOLD()": "bd013f5b",
    "RC_INVALID_LTV()": "614cf6a1",
    "RC_INVALID_RESERVE_FACTOR()": "9be4f03a",
    "RL_LIQUIDITY_INDEX_OVERFLOW()": "4fe4f1ab",
    "RL_LIQUIDITY_RATE_OVERFLOW()": "f11c6720",
    "RL_RESERVE_ALREADY_INITIALIZED()": "fe75fd26",
    "RL_STABLE_BORROW_RATE_OVERFLOW()": "6d422aa1",
    "RL_VARIABLE_BORROW_INDEX_OVERFLOW()": "44942004",
    "RL_VARIABLE_BORROW_RATE_OVERFLOW()": "2ea347b0",
    "SDT_BURN_EXCEEDS_BALANCE()": "1befa78d",
    "SDT_STABLE_DEBT_OVERFLOW()": "cdad445a",
    "UL_INVALID_INDEX()": "02454ad3",
    "VL_AMOUNT_BIGGER_THAN_MAX_LOAN_SIZE_STABLE()": "3aa786a8",
    "VL_BORROWING_NOT_ENABLED()": "36565ab1",
    "VL_COLLATERAL_BALANCE_IS_0()": "708b8dd3",
    "VL_COLLATERAL_CANNOT_COVER_NEW_BORROW()": "2ace698a",
    "VL_COLLATERAL_SAME_AS_BORROWING_CURRENCY()": "a39ed4ff",
    "VL_CURRENT_AVAILABLE_LIQUIDITY_NOT_ENOUGH()": "179476c5",
    "VL_DEPOSIT_ALREADY_IN_USE()": "e29425dc",
    "VL_HEALTH_FACTOR_LOWER_THAN_LIQUIDATION_THRESHOLD()": "1ec68b1d",
    "VL_INCONSISTENT_FLASHLOAN_PARAMS()": "d7b079aa",
    "VL_INVALID_AMOUNT()": "871938a8",
    "VL_INVALID_INTEREST_RATE_MODE_SELECTED()": "3b5d25aa",
    "VL_NOT_ENOUGH_AVAILABLE_USER_BALANCE()": "a8440241",
    "VL_NO_ACTIVE_RESERVE()": "7865a627",
    "VL_NO_DEBT_OF_SELECTED_TYPE()": "91a9fb18",
    "VL_NO_EXPLICIT_AMOUNT_TO_REPAY_ON_BEHALF()": "daf23547",
    "VL_NO_STABLE_RATE_LOAN_IN_RESERVE()": "6422b257",
    "VL_NO_VARIABLE_RATE_LOAN_IN_RESERVE()": "6ab5e615",
    "VL_RESERVE_FROZEN()": "d7510e0c",
    "VL_STABLE_BORROWING_NOT_ENABLED()": "4927c63a",
    "VL_TRANSFER_NOT_ALLOWED()": "f3d9cc11",
    "VL_UNDERLYING_BALANCE_NOT_GREATER_THAN_0()": "35a9d21d"
  },
  "id": 78
}