{
  "abi": [
    {
      "inputs": [
        {
          "internalType": "address[]",
          "name": "assets",
          "type": "address[]"
        },
        {
          "internalType": "address[]",
          "name": "sources",
          "type": "address[]"
        },
        {
          "internalType": "address",
          "name": "fallbackOracle",
          "type": "address"
        },
        {
          "internalType": "address",
          "name": "_wrappedNative",
          "type": "address"
        }
      ],
      "stateMutability": "nonpayable",
      "type": "constructor"
    },
    {
      "anonymous": false,
      "inputs": [
        {
          "indexed": true,
          "internalType": "address",
          "name": "asset",
          "type": "address"
        },
        {
          "indexed": true,
          "internalType": "address",
          "name": "source",
          "type": "address"
        }
      ],
      "name": "AssetSourceUpdated",
      "type": "event"
    },
    {
      "anonymous": false,
      "inputs": [
        {
          "indexed": true,
          "internalType": "address",
          "name": "fallbackOracle",
          "type": "address"
        }
      ],
      "name": "FallbackOracleUpdated",
      "type": "event"
    },
    {
      "anonymous": false,
      "inputs": [
        {
          "indexed": true,
          "internalType": "address",
          "name": "previousOwner",
          "type": "address"
        },
        {
          "indexed": true,
          "internalType": "address",
          "name": "newOwner",
          "type": "address"
        }
      ],
      "name": "OwnershipTransferred",
      "type": "event"
    },
    {
      "anonymous": false,
      "inputs": [
        {
          "indexed": true,
          "internalType": "address",
          "name": "wrappedNative",
          "type": "address"
        }
      ],
      "name": "WrappedNativeSet",
      "type": "event"
    },
    {
      "inputs": [
        {
          "internalType": "address",
          "name": "asset",
          "type": "address"
        }
      ],
      "name": "getAssetPrice",
      "outputs": [
        {
          "internalType": "uint256",
          "name": "",
          "type": "uint256"
        }
      ],
      "stateMutability": "view",
      "type": "function"
    },
    {
      "inputs": [
        {
          "internalType": "address[]",
          "name": "assets",
          "type": "address[]"
        }
      ],
      "name": "getAssetsPrices",
      "outputs": [
        {
          "internalType": "uint256[]",
          "name": "",
          "type": "uint256[]"
        }
      ],
      "stateMutability": "view",
      "type": "function"
    },
    {
      "inputs": [],
      "name": "getFallbackOracle",
      "outputs": [
        {
          "internalType": "address",
          "name": "",
          "type": "address"
        }
      ],
      "stateMutability": "view",
      "type": "function"
    },
    {
      "inputs": [
        {
          "internalType": "address",
          "name": "asset",
          "type": "address"
        }
      ],
      "name": "getSourceOfAsset",
      "outputs": [
        {
          "internalType": "address",
          "name": "",
          "type": "address"
        }
      ],
      "stateMutability": "view",
      "type": "function"
    },
    {
      "inputs": [],
      "name": "owner",
      "outputs": [
        {
          "internalType": "address",
          "name": "",
          "type": "address"
        }
      ],
      "stateMutability": "view",
      "type": "function"
    },
    {
      "inputs": [],
      "name": "renounceOwnership",
      "outputs": [],
      "stateMutability": "nonpayable",
      "type": "function"
    },
    {
      "inputs": [
        {
          "internalType": "address[]",
          "name": "assets",
          "type": "address[]"
        },
        {
          "internalType": "address[]",
          "name": "sources",
          "type": "address[]"
        }
      ],
      "name": "setAssetSources",
      "outputs": [],
      "stateMutability": "nonpayable",
      "type": "function"
    },
    {
      "inputs": [
        {
          "internalType": "address",
          "name": "fallbackOracle",
          "type": "address"
        }
      ],
      "name": "setFallbackOracle",
      "outputs": [],
      "stateMutability": "nonpayable",
      "type": "function"
    },
    {
      "inputs": [
        {
          "internalType": "address",
          "name": "newOwner",
          "type": "address"
        }
      ],
      "name": "transferOwnership",
      "outputs": [],
      "stateMutability": "nonpayable",
      "type": "function"
    },
    {
      "inputs": [],
      "name": "wrappedNative",
      "outputs": [
        {
          "internalType": "address",
          "name": "",
          "type": "address"
        }
      ],
      "stateMutability": "view",
      "type": "function"
    }
  ],
  "bytecode": {
    "object": "0x60c06040523480156200001157600080fd5b506040516200114338038062001143833981810160405260808110156200003757600080fd5b81019080805160405193929190846401000000008211156200005857600080fd5b9083019060208201858111156200006e57600080fd5b82518660208202830111640100000000821117156200008c57600080fd5b82525081516020918201928201910280838360005b83811015620000bb578181015183820152602001620000a1565b5050505090500160405260200180516040519392919084640100000000821115620000e557600080fd5b908301906020820185811115620000fb57600080fd5b82518660208202830111640100000000821117156200011957600080fd5b82525081516020918201928201910280838360005b83811015620001485781810151838201526020016200012e565b5050505091909101604090815260208301519201519193509091506000905062000171620002bd565b600080546001600160a01b0319166001600160a01b0383169081178255604051929350917f8be0079c531659141344cd1fd0a4f28419497f9722a3daafe3b4186f6b6457e0908290a350620001c682620002c1565b620001d284846200030b565b806001600160a01b03166080816001600160a01b031660601b81525050806001600160a01b031663313ce5676040518163ffffffff1660e01b815260040160206040518083038186803b1580156200022957600080fd5b505afa1580156200023e573d6000803e3d6000fd5b505050506040513d60208110156200025557600080fd5b505160f81b7fff000000000000000000000000000000000000000000000000000000000000001660a0526040516001600160a01b038216907f141c8827a0e1bf1f8e0a0f1d0b4fce811fd3b387abb10419267afc2b7458377690600090a25050505062000457565b3390565b600280546001600160a01b0319166001600160a01b0383169081179091556040517fce7a780d33665b1ea097af5f155e3821b809ecbaa839d3b33aa83ba28168cefb90600090a250565b805182511462000362576040805162461bcd60e51b815260206004820152601a60248201527f494e434f4e53495354454e545f504152414d535f4c454e475448000000000000604482015290519081900360640190fd5b60005b825181101562000452578181815181106200037c57fe5b6020026020010151600160008584815181106200039557fe5b60200260200101516001600160a01b03166001600160a01b0316815260200190815260200160002060006101000a8154816001600160a01b0302191690836001600160a01b03160217905550818181518110620003ee57fe5b60200260200101516001600160a01b03168382815181106200040c57fe5b60200260200101516001600160a01b03167f22c5b7b2d8561d39f7f210b6b326a1aa69f15311163082308ac4877db6339dc160405160405180910390a360010162000365565b505050565b60805160601c60a05160f81c610cbd62000486600039806107b75250806105d952806108345250610cbd6000f3fe608060405234801561001057600080fd5b506004361061009e5760003560e01c80639d23d9f2116100665780639d23d9f214610125578063abfd5310146101e5578063b3596f07146102a7578063eb6d3a11146102df578063f2fde38b146102e75761009e565b8063170aee73146100a35780636210308c146100cb578063715018a6146100ef5780638da5cb5b146100f757806392bf2be0146100ff575b600080fd5b6100c9600480360360208110156100b957600080fd5b50356001600160a01b031661030d565b005b6100d3610371565b604080516001600160a01b039092168252519081900360200190f35b6100c9610380565b6100d3610422565b6100d36004803603602081101561011557600080fd5b50356001600160a01b0316610431565b6101956004803603602081101561013b57600080fd5b81019060208101813564010000000081111561015657600080fd5b82018360208201111561016857600080fd5b8035906020019184602083028401116401000000008311171561018a57600080fd5b509092509050610452565b60408051602080825283518183015283519192839290830191858101910280838360005b838110156101d15781810151838201526020016101b9565b505050509050019250505060405180910390f35b6100c9600480360360408110156101fb57600080fd5b81019060208101813564010000000081111561021657600080fd5b82018360208201111561022857600080fd5b8035906020019184602083028401116401000000008311171561024a57600080fd5b91939092909160208101903564010000000081111561026857600080fd5b82018360208201111561027a57600080fd5b8035906020019184602083028401116401000000008311171561029c57600080fd5b5090925090506104f1565b6102cd600480360360208110156102bd57600080fd5b50356001600160a01b03166105bc565b60408051918252519081900360200190f35b6100d3610832565b6100c9600480360360208110156102fd57600080fd5b50356001600160a01b0316610856565b61031561094e565b6000546001600160a01b03908116911614610365576040805162461bcd60e51b81526020600482018190526024820152600080516020610c68833981519152604482015290519081900360640190fd5b61036e81610952565b50565b6002546001600160a01b031690565b61038861094e565b6000546001600160a01b039081169116146103d8576040805162461bcd60e51b81526020600482018190526024820152600080516020610c68833981519152604482015290519081900360640190fd5b600080546040516001600160a01b03909116907f8be0079c531659141344cd1fd0a4f28419497f9722a3daafe3b4186f6b6457e0908390a3600080546001600160a01b0319169055565b6000546001600160a01b031690565b6001600160a01b03808216600090815260016020526040902054165b919050565b6060808267ffffffffffffffff8111801561046c57600080fd5b50604051908082528060200260200182016040528015610496578160200160208202803683370190505b50905060005b838110156104e7576104c88585838181106104b357fe5b905060200201356001600160a01b03166105bc565b8282815181106104d457fe5b602090810291909101015260010161049c565b5090505b92915050565b6104f961094e565b6000546001600160a01b03908116911614610549576040805162461bcd60e51b81526020600482018190526024820152600080516020610c68833981519152604482015290519081900360640190fd5b6105b68484808060200260200160405190810160405280939291908181526020018383602002808284376000920191909152505060408051602080880282810182019093528782529093508792508691829185019084908082843760009201919091525061099c92505050565b50505050565b6001600160a01b03808216600081815260016020526040808220547f0000000000000000000000000000000000000000000000000000000000000000851680845291832054929490811693921691141561062257670de0b6b3a76400009250505061044d565b6001600160a01b038216158061063f57506001600160a01b038116155b15610686576040805162461bcd60e51b81526020600482015260126024820152711c1c9a58d94819995959081b9bdd081cd95d60721b604482015290519081900360640190fd5b6000816001600160a01b03166350d25bcd6040518163ffffffff1660e01b815260040160206040518083038186803b1580156106c157600080fd5b505afa1580156106d5573d6000803e3d6000fd5b505050506040513d60208110156106eb57600080fd5b5051905060008113610739576040805162461bcd60e51b815260206004820152601260248201527170726963652066656564206661696c75726560701b604482015290519081900360640190fd5b6000836001600160a01b03166350d25bcd6040518163ffffffff1660e01b815260040160206040518083038186803b15801561077457600080fd5b505afa158015610788573d6000803e3d6000fd5b505050506040513d602081101561079e57600080fd5b5051905060008113156107f0576107e5826107df8360ff7f000000000000000000000000000000000000000000000000000000000000000016600a0a610ae1565b90610b41565b94505050505061044d565b6040805162461bcd60e51b815260206004820152601260248201527170726963652066656564206661696c75726560701b604482015290519081900360640190fd5b7f000000000000000000000000000000000000000000000000000000000000000081565b61085e61094e565b6000546001600160a01b039081169116146108ae576040805162461bcd60e51b81526020600482018190526024820152600080516020610c68833981519152604482015290519081900360640190fd5b6001600160a01b0381166108f35760405162461bcd60e51b8152600401808060200182810382526026815260200180610c216026913960400191505060405180910390fd5b600080546040516001600160a01b03808516939216917f8be0079c531659141344cd1fd0a4f28419497f9722a3daafe3b4186f6b6457e091a3600080546001600160a01b0319166001600160a01b0392909216919091179055565b3390565b600280546001600160a01b0319166001600160a01b0383169081179091556040517fce7a780d33665b1ea097af5f155e3821b809ecbaa839d3b33aa83ba28168cefb90600090a250565b80518251146109f2576040805162461bcd60e51b815260206004820152601a60248201527f494e434f4e53495354454e545f504152414d535f4c454e475448000000000000604482015290519081900360640190fd5b60005b8251811015610adc57818181518110610a0a57fe5b602002602001015160016000858481518110610a2257fe5b60200260200101516001600160a01b03166001600160a01b0316815260200190815260200160002060006101000a8154816001600160a01b0302191690836001600160a01b03160217905550818181518110610a7a57fe5b60200260200101516001600160a01b0316838281518110610a9757fe5b60200260200101516001600160a01b03167f22c5b7b2d8561d39f7f210b6b326a1aa69f15311163082308ac4877db6339dc160405160405180910390a36001016109f5565b505050565b600082610af0575060006104eb565b82820282848281610afd57fe5b0414610b3a5760405162461bcd60e51b8152600401808060200182810382526021815260200180610c476021913960400191505060405180910390fd5b9392505050565b6000610b3a83836040518060400160405280601a81526020017f536166654d6174683a206469766973696f6e206279207a65726f00000000000081525060008183610c0a5760405162461bcd60e51b81526004018080602001828103825283818151815260200191508051906020019080838360005b83811015610bcf578181015183820152602001610bb7565b50505050905090810190601f168015610bfc5780820380516001836020036101000a031916815260200191505b509250505060405180910390fd5b506000838581610c1657fe5b049594505050505056fe4f776e61626c653a206e6577206f776e657220697320746865207a65726f2061646472657373536166654d6174683a206d756c7469706c69636174696f6e206f766572666c6f774f776e61626c653a2063616c6c6572206973206e6f7420746865206f776e6572a264697066735822122065436273fc91946bcb9de2dba60846675f16a44592fdfb53ed3964c70808c5c164736f6c634300060c0033",
    "linkReferences": {}
  },
  "methodIdentifiers": {
    "getAssetPrice(address)": "b3596f07",
    "getAssetsPrices(address[])": "9d23d9f2",
    "getFallbackOracle()": "6210308c",
    "getSourceOfAsset(address)": "92bf2be0",
    "owner()": "8da5cb5b",
    "renounceOwnership()": "715018a6",
    "setAssetSources(address[],address[])": "abfd5310",
    "setFallbackOracle(address)": "170aee73",
    "transferOwnership(address)": "f2fde38b",
    "wrappedNative()": "eb6d3a11"
  },
  "id": 40
}