{
  "abi": [
    {
      "anonymous": false,
      "inputs": [
        {
          "indexed": true,
          "internalType": "address",
          "name": "collateral",
          "type": "address"
        },
        {
          "indexed": true,
          "internalType": "address",
          "name": "principal",
          "type": "address"
        },
        {
          "indexed": true,
          "internalType": "address",
          "name": "user",
          "type": "address"
        },
        {
          "indexed": false,
          "internalType": "uint256",
          "name": "debtToCover",
          "type": "uint256"
        },
        {
          "indexed": false,
          "internalType": "uint256",
          "name": "liquidatedCollateralAmount",
          "type": "uint256"
        },
        {
          "indexed": false,
          "internalType": "address",
          "name": "liquidator",
          "type": "address"
        },
        {
          "indexed": false,
          "internalType": "bool",
          "name": "receiveAToken",
          "type": "bool"
        },
        {
          "indexed": false,
          "internalType": "bool",
          "name": "useAToken",
          "type": "bool"
        }
      ],
      "name": "LiquidationCall",
      "type": "event"
    },
    {
      "anonymous": false,
      "inputs": [
        {
          "indexed": true,
          "internalType": "address",
          "name": "reserve",
          "type": "address"
        },
        {
          "indexed": true,
          "internalType": "address",
          "name": "user",
          "type": "address"
        }
      ],
      "name": "ReserveUsedAsCollateralDisabled",
      "type": "event"
    },
    {
      "anonymous": false,
      "inputs": [
        {
          "indexed": true,
          "internalType": "address",
          "name": "reserve",
          "type": "address"
        },
        {
          "indexed": true,
          "internalType": "address",
          "name": "user",
          "type": "address"
        }
      ],
      "name": "ReserveUsedAsCollateralEnabled",
      "type": "event"
    },
    {
      "inputs": [
        {
          "internalType": "address",
          "name": "collateralAsset",
          "type": "address"
        },
        {
          "internalType": "address",
          "name": "debtAsset",
          "type": "address"
        },
        {
          "internalType": "address",
          "name": "user",
          "type": "address"
        },
        {
          "internalType": "uint256",
          "name": "debtToCover",
          "type": "uint256"
        },
        {
          "internalType": "bool",
          "name": "receiveAToken",
          "type": "bool"
        },
        {
          "internalType": "bool",
          "name": "useAToken",
          "type": "bool"
        }
      ],
      "name": "liquidationCall",
      "outputs": [
        {
          "internalType": "uint256",
          "name": "",
          "type": "uint256"
        },
        {
          "internalType": "string",
          "name": "",
          "type": "string"
        }
      ],
      "stateMutability": "nonpayable",
      "type": "function"
    }
  ],
  "bytecode": {
    "object": "0x60806040526000805534801561001457600080fd5b50612b1d806100246000396000f3fe608060405234801561001057600080fd5b506004361061002b5760003560e01c80638c1624d814610030575b600080fd5b61007c600480360360c081101561004657600080fd5b506001600160a01b038135811691602081013582169160408201351690606081013590608081013515159060a0013515156100fb565b6040518083815260200180602001828103825283818151815260200191508051906020019080838360005b838110156100bf5781810151838201526020016100a7565b50505050905090810190601f1680156100ec5780820380516001836020036101000a031916815260200191505b50935050505060405180910390f35b6001600160a01b0380871660009081526035602090815260408083208985168452818420948916845260369092528220919260609261013861287c565b6101d88a6035846040518060200160405290816000820154815250506037603854603460009054906101000a90046001600160a01b03166001600160a01b031663fca513a86040518163ffffffff1660e01b815260040160206040518083038186803b1580156101a757600080fd5b505afa1580156101bb573d6000803e3d6000fd5b505050506040513d60208110156101d157600080fd5b5051610a31565b610140860152506101ef92508c9150859050610ef7565b6040830181905260208301829052610140830151610214928792879287929091610ffa565b6102008301526101e08201819052600090600981111561023057fe5b600981111561023b57fe5b1461025957806101e001518161020001519550955050505050610a26565b6004808501546001600160a01b039081166101808401819052604080516370a0823160e01b8152928e169383019390935291516370a0823191602480820192602092909190829003018186803b1580156102b257600080fd5b505afa1580156102c6573d6000803e3d6000fd5b505050506040513d60208110156102dc57600080fd5b505181526040810151602082015161030191611388916102fb91611136565b90611199565b606082018190528911610314578861031a565b80606001515b81608001818152505061033984848e8e85608001518660000151611283565b6101208301819052610100830191909152608082015111156103615761012081015160808201525b876104235760008c6001600160a01b03166370a082318361018001516040518263ffffffff1660e01b815260040180826001600160a01b0316815260200191505060206040518083038186803b1580156103ba57600080fd5b505afa1580156103ce573d6000803e3d6000fd5b505050506040513d60208110156103e457600080fd5b505161010083015190915081101561042157600560405180604001604052806002815260200161343560f01b815250965096505050505050610a26565b505b61042c836114fc565b80608001518160400151106104cf5760068301546080820151600185015460408051637a94c56560e11b81526001600160a01b038f811660048301526024820194909452600160801b9092046001600160801b0316604483015251919092169163f5298aca91606480830192600092919082900301818387803b1580156104b257600080fd5b505af11580156104c6573d6000803e3d6000fd5b505050506105f3565b60408101511561056857600683015460408281015160018601548251637a94c56560e11b81526001600160a01b038f811660048301526024820193909352600160801b9091046001600160801b03166044820152915192169163f5298aca9160648082019260009290919082900301818387803b15801561054f57600080fd5b505af1158015610563573d6000803e3d6000fd5b505050505b6005830154604082015160808301516001600160a01b0390921691639dc29fac918d91610594916115c6565b6040518363ffffffff1660e01b815260040180836001600160a01b0316815260200182815260200192505050600060405180830381600087803b1580156105da57600080fd5b505af11580156105ee573d6000803e3d6000fd5b505050505b600483015460808201516106169185918e916001600160a01b0316906000611608565b80516101008201511415610681576007840154610640908390600160a01b900460ff166000611ab0565b896001600160a01b03168c6001600160a01b03167f44c58d81365b66dd4b1a7f36c25aa97b8c71c361ee4937adc1a00000227db5dd60405160405180910390a35b87156107fd578061018001516001600160a01b03166370a08231336040518263ffffffff1660e01b815260040180826001600160a01b0316815260200191505060206040518083038186803b1580156106d957600080fd5b505afa1580156106ed573d6000803e3d6000fd5b505050506040513d602081101561070357600080fd5b50516101608201526101808101516101008201516040805163f866c31960e01b81526001600160a01b038e8116600483015233602483015260448201939093529051919092169163f866c31991606480830192600092919082900301818387803b15801561077057600080fd5b505af1158015610784573d6000803e3d6000fd5b50505050806101600151600014156107f85733600090815260366020526040902060078501546107c1908290600160a01b900460ff166001611ab0565b60405133906001600160a01b038f16907e058a56ea94653cdf4f152d227ace22d4c00ad99e2a43f58cb7d9e3feb295f290600090a3505b6108b5565b610806846114fc565b6101808101516101008201516108239186918f9190600090611608565b610180810151610100820151600186015460408051636b81068560e11b81526001600160a01b038f8116600483015233602483015260448201949094526001600160801b03909216606483015251919092169163d7020d0a91608480830192600092919082900301818387803b15801561089c57600080fd5b505af11580156108b0573d6000803e3d6000fd5b505050505b8615610950576004808401546080830151600186015460408051636b81068560e11b815233958101959095526001600160a01b039093166024850181905260448501929092526001600160801b031660648401529051909163d7020d0a91608480830192600092919082900301818387803b15801561093357600080fd5b505af1158015610947573d6000803e3d6000fd5b50505050610976565b60048301546080820151610976916001600160a01b038e81169233929190911690611b54565b896001600160a01b03168b6001600160a01b03168d6001600160a01b03167efcbc556dd83e38c8e145457bb141615256cfe5a7733c97d3e5c2588d06551f8460800151856101000151338e8e60405180868152602001858152602001846001600160a01b03168152602001831515815260200182151581526020019550505050505060405180910390a46000604051806040016040528060028152602001611a1b60f11b81525095509550505050505b965096945050505050565b6000806000806000610a41612916565b610a4a8a611bb4565b15610a68576000806000806000199550955095509550955050610ee9565b600060e08201525b878160e001511015610e485760e0810151610a8c908b90611bb9565b610a9557610e38565b60e0810151600090815260208a81526040808320546001600160a01b03166101e085018190528352908d90529020610acc81611c38565b506080860181905260c08601929092525060a0840191909152600a0a6020808401919091526101e08301516040805163b3596f0760e01b81526001600160a01b0392831660048201529051918b169263b3596f0792602480840193829003018186803b158015610b3b57600080fd5b505afa158015610b4f573d6000803e3d6000fd5b505050506040513d6020811015610b6557600080fd5b5051825260c082015115801590610b87575060e0820151610b87908c90611c63565b15610ca8578060040160009054906101000a90046001600160a01b03166001600160a01b03166370a082318e6040518263ffffffff1660e01b815260040180826001600160a01b0316815260200191505060206040518083038186803b158015610bf057600080fd5b505afa158015610c04573d6000803e3d6000fd5b505050506040513d6020811015610c1a57600080fd5b50516040830181905260208301518351600092610c419291610c3b91611ce9565b90611d42565b610120840151909150610c549082611136565b61012084015260a0830151610c7a90610c6e908390611ce9565b61016085015190611136565b61016084015260c0830151610ca090610c94908390611ce9565b61018085015190611136565b610180840152505b60e0820151610cb8908c90611d84565b15610e36578060050160009054906101000a90046001600160a01b03166001600160a01b03166370a082318e6040518263ffffffff1660e01b815260040180826001600160a01b0316815260200191505060206040518083038186803b158015610d2157600080fd5b505afa158015610d35573d6000803e3d6000fd5b505050506040513d6020811015610d4b57600080fd5b8101908080519060200190929190505050826060018181525050610e038160060160009054906101000a90046001600160a01b03166001600160a01b03166370a082318f6040518263ffffffff1660e01b815260040180826001600160a01b0316815260200191505060206040518083038186803b158015610dcc57600080fd5b505afa158015610de0573d6000803e3d6000fd5b505050506040513d6020811015610df657600080fd5b5051606084015190611136565b6060830181905260208301518351610e2f92610e239291610c3b91611ce9565b61014084015190611136565b6101408301525b505b60e0810180516001019052610a70565b600081610120015111610e5c576000610e71565b610120810151610160820151610e7191611d42565b610160820152610120810151610e88576000610e9d565b610120810151610180820151610e9d91611d42565b6101808201819052610120820151610140830151610eba92611e03565b610100820181905261012082015161014083015161016084015161018090940151919850965091945090925090505b965096509650965096915050565b6005810154604080516370a0823160e01b81526001600160a01b0385811660048301529151600093849316916370a08231916024808301926020929190829003018186803b158015610f4857600080fd5b505afa158015610f5c573d6000803e3d6000fd5b505050506040513d6020811015610f7257600080fd5b50516006840154604080516370a0823160e01b81526001600160a01b038881166004830152915191909216916370a08231916024808301926020929190829003018186803b158015610fc357600080fd5b505afa158015610fd7573d6000803e3d6000fd5b505050506040513d6020811015610fed57600080fd5b5051909590945092505050565b6000606061100788611e31565b1580611019575061101787611e31565b155b156110405750506040805180820190915260018152601960f91b6020820152600690610a26565b670de0b6b3a764000085106110725750506040805180820190915260028152611a1960f11b6020820152600490610a26565b60008061107e8a611e41565b1180156110ad575060078901546040805160208101909152885481526110ad91600160a01b900460ff16611c63565b9050806110d757505060408051808201909152600280825261343360f01b60208301529150610a26565b841580156110e3575083155b1561110c5750506040805180820190915260028152610d0d60f21b602082015260039150610a26565b50506040805180820190915260028152611a1b60f11b602082015260009890975095505050505050565b600082820183811015611190576040805162461bcd60e51b815260206004820152601b60248201527f536166654d6174683a206164646974696f6e206f766572666c6f770000000000604482015290519081900360640190fd5b90505b92915050565b60008215806111a6575081155b156111b357506000611193565b8161138819816111bf57fe5b0483111560405180604001604052806002815260200161068760f31b815250906112675760405162461bcd60e51b81526004018080602001828103825283818151815260200191508051906020019080838360005b8381101561122c578181015183820152602001611214565b50505050905090810190601f1680156112595780820380516001836020036101000a031916815260200191505b509250505060405180910390fd5b506127106002815b04838502018161127b57fe5b049392505050565b6000806000806000603460009054906101000a90046001600160a01b03166001600160a01b031663fca513a86040518163ffffffff1660e01b815260040160206040518083038186803b1580156112d957600080fd5b505afa1580156112ed573d6000803e3d6000fd5b505050506040513d602081101561130357600080fd5b5051905061130f6129b0565b816001600160a01b031663b3596f078b6040518263ffffffff1660e01b815260040180826001600160a01b0316815260200191505060206040518083038186803b15801561135c57600080fd5b505afa158015611370573d6000803e3d6000fd5b505050506040513d602081101561138657600080fd5b5051604080830191909152805163b3596f0760e01b81526001600160a01b038b8116600483015291519184169163b3596f0791602480820192602092909190829003018186803b1580156113d957600080fd5b505afa1580156113ed573d6000803e3d6000fd5b505050506040513d602081101561140357600080fd5b505160608201526114138c611c38565b5060c085015260208401525061142a90508b611e4c565b60a082018190526040820151611477916114479190600a0a611ce9565b610c3b83602001516102fb8560c00151600a0a6114718e8860600151611ce990919063ffffffff16565b90611ce9565b608082018190528710156114e0578693506114d981602001516114d36114b18460c00151600a0a8560600151611ce990919063ffffffff16565b610c3b8560a00151600a0a6114718a8860400151611ce990919063ffffffff16565b90611e56565b92506114eb565b806080015193508792505b50919a909950975050505050505050565b60068101546040805163b1bf962d60e01b815290516000926001600160a01b03169163b1bf962d916004808301926020929190829003018186803b15801561154357600080fd5b505afa158015611557573d6000803e3d6000fd5b505050506040513d602081101561156d57600080fd5b505160018301546003840154919250600160801b8082046001600160801b03908116939216910464ffffffffff166000806115ab8787868887611f49565b915091506115bd878787858588612102565b50505050505050565b600061119083836040518060400160405280601e81526020017f536166654d6174683a207375627472616374696f6e206f766572666c6f7700008152506122e5565b6116106129ed565b60058601546001600160a01b031680825260408051637b98f4df60e11b8152815163f731e9be92600480840193919291829003018186803b15801561165457600080fd5b505afa158015611668573d6000803e3d6000fd5b505050506040513d604081101561167e57600080fd5b50805160209182015160c084015260408084019190915260018801546006890154825163b1bf962d60e01b8152925161172294600160801b9093046001600160801b0316936001600160a01b039092169263b1bf962d9260048082019391829003018186803b1580156116f057600080fd5b505afa158015611704573d6000803e3d6000fd5b505050506040513d602081101561171a57600080fd5b50519061233f565b60e0820152604080516370a0823160e01b81526001600160a01b0386811660048301529151918716916370a0823191602480820192602092909190829003018186803b15801561177157600080fd5b505afa158015611785573d6000803e3d6000fd5b505050506040513d602081101561179b57600080fd5b50516020820181905260078701546001600160a01b031690639584df289087906117d19086906117cb9089611136565b906115c6565b604085015160e086015160c08701516117e98d6123f0565b6040518763ffffffff1660e01b815260040180876001600160a01b03168152602001868152602001858152602001848152602001838152602001828152602001965050505050505060606040518083038186803b15801561184957600080fd5b505afa15801561185d573d6000803e3d6000fd5b505050506040513d606081101561187357600080fd5b50805160208083015160409384015160a086015260808501526060840182905282518084019093526002835261353360f01b908301526001600160801b0310156118fe5760405162461bcd60e51b815260206004820181815283516024840152835190928392604490910191908501908083836000831561122c578181015183820152602001611214565b506080810151604080518082019091526002815261353560f01b6020820152906001600160801b0310156119735760405162461bcd60e51b815260206004820181815283516024840152835190928392604490910191908501908083836000831561122c578181015183820152602001611214565b5060a08101516040805180820190915260028152610d4d60f21b6020820152906001600160801b0310156119e85760405162461bcd60e51b815260206004820181815283516024840152835190928392604490910191908501908083836000831561122c578181015183820152602001611214565b5060608181015160028801805460808086015160038c0180546001600160801b03199081166001600160801b038085169190911790925560a0808a015191909516828816178216600160801b82841681029190911790965560018e01546040805198895260208901949094528784019190915280821697870197909752939095049092169183019190915291516001600160a01b038816927f804c9b842b2748a22bb64b345453a3de7ca54a6ca45ce00d415894979e22897a928290030190a2505050505050565b604080518082019091526002815261373760f01b602082015260808310611b185760405162461bcd60e51b815260206004820181815283516024840152835190928392604490910191908501908083836000831561122c578181015183820152602001611214565b508160020260010181611b2c576000611b2f565b60015b60ff16901b826002026001016001901b19846000015416178360000181905550505050565b604080516001600160a01b0380861660248301528416604482015260648082018490528251808303909101815260849091019091526020810180516001600160e01b03166323b872dd60e01b179052611bae9085906123fb565b50505050565b511590565b60006080821060405180604001604052806002815260200161373760f01b81525090611c265760405162461bcd60e51b815260206004820181815283516024840152835190928392604490910191908501908083836000831561122c578181015183820152602001611214565b50509051600360029092021c16151590565b5461ffff80821692601083901c821692602081901c831692603082901c60ff169260409290921c1690565b60006080821060405180604001604052806002815260200161373760f01b81525090611cd05760405162461bcd60e51b815260206004820181815283516024840152835190928392604490910191908501908083836000831561122c578181015183820152602001611214565b5050815160016002830281019190911c16151592915050565b600082611cf857506000611193565b82820282848281611d0557fe5b04146111905760405162461bcd60e51b8152600401808060200182810382526021815260200180612a9d6021913960400191505060405180910390fd5b600061119083836040518060400160405280601a81526020017f536166654d6174683a206469766973696f6e206279207a65726f0000000000008152506125b3565b60006080821060405180604001604052806002815260200161373760f01b81525090611df15760405162461bcd60e51b815260206004820181815283516024840152835190928392604490910191908501908083836000831561122c578181015183820152602001611214565b50509051600160029092021c16151590565b600082611e135750600019611e2a565b611e2783611e218685611199565b90612618565b90505b9392505050565b5467010000000000000016151590565b5460101c61ffff1690565b5460301c60ff1690565b604080518082019091526002815261035360f41b602082015260009082611ebe5760405162461bcd60e51b815260206004820181815283516024840152835190928392604490910191908501908083836000831561122c578181015183820152602001611214565b5060408051808201909152600280825261068760f31b6020830152830490612710821904851115611f305760405162461bcd60e51b815260206004820181815283516024840152835190928392604490910191908501908083836000831561122c578181015183820152602001611214565b50828161271086020181611f4057fe5b04949350505050565b600285015460009081906001600160801b0316858582156120d3576000611f70848861270e565b9050611f7c818a61233f565b604080518082019091526002815261353160f01b60208201529093506001600160801b03841115611fee5760405162461bcd60e51b815260206004820181815283516024840152835190928392604490910191908501908083836000831561122c578181015183820152602001611214565b5060018b0180546001600160801b0319166001600160801b03851617905589156120d15760028b015460009061203490600160801b90046001600160801b031689612754565b9050612040818a61233f565b6040805180820190915260028152611a9960f11b60208201529093506001600160801b038411156120b25760405162461bcd60e51b815260206004820181815283516024840152835190928392604490910191908501908083836000831561122c578181015183820152602001611214565b505060018b0180546001600160801b03808516600160801b0291161790555b505b600399909901805464ffffffffff60801b1916600160801b4264ffffffffff1602179055989650505050505050565b61210a612a3b565b612113876123f0565b610120820181905261212557506122dd565b8660050160009054906101000a90046001600160a01b03166001600160a01b031663797743386040518163ffffffff1660e01b815260040160806040518083038186803b15801561217557600080fd5b505afa158015612189573d6000803e3d6000fd5b505050506040513d608081101561219f57600080fd5b508051602080830151604084015160609094015164ffffffffff1661014086015260a0850193909352918352908201526121d9868661233f565b60808201526121e8868461233f565b606082015260a081015161014082015161220a919064ffffffffff851661275d565b60c08201819052602082015161221f9161233f565b6040820181905260808201518251606084015161224493926117cb9290918391611136565b60e0820181905261012082015161225b9190611199565b6101008201819052156115bd5760048088015461010083015160408051637df5bd3b60e01b81529384019190915260248301879052516001600160a01b0390911691637df5bd3b91604480830192600092919082900301818387803b1580156122c357600080fd5b505af11580156122d7573d6000803e3d6000fd5b50505050505b505050505050565b600081848411156123375760405162461bcd60e51b815260206004820181815283516024840152835190928392604490910191908501908083836000831561122c578181015183820152602001611214565b505050900390565b600082158061234c575081155b1561235957506000611193565b816b019d971e4fe8401e74000000198161236f57fe5b0483111560405180604001604052806002815260200161068760f31b815250906123da5760405162461bcd60e51b815260206004820181815283516024840152835190928392604490910191908501908083836000831561122c578181015183820152602001611214565b506b033b2e3c9fd0803ce800000060028161126f565b5460401c61ffff1690565b61240d826001600160a01b0316612833565b61245e576040805162461bcd60e51b815260206004820152601f60248201527f5361666545524332303a2063616c6c20746f206e6f6e2d636f6e747261637400604482015290519081900360640190fd5b60006060836001600160a01b0316836040518082805190602001908083835b6020831061249c5780518252601f19909201916020918201910161247d565b6001836020036101000a0380198251168184511680821785525050505050509050019150506000604051808303816000865af19150503d80600081146124fe576040519150601f19603f3d011682016040523d82523d6000602084013e612503565b606091505b50915091508161255a576040805162461bcd60e51b815260206004820181905260248201527f5361666545524332303a206c6f772d6c6576656c2063616c6c206661696c6564604482015290519081900360640190fd5b805115611bae5780806020019051602081101561257657600080fd5b5051611bae5760405162461bcd60e51b815260040180806020018281038252602a815260200180612abe602a913960400191505060405180910390fd5b600081836126025760405162461bcd60e51b815260206004820181815283516024840152835190928392604490910191908501908083836000831561122c578181015183820152602001611214565b50600083858161260e57fe5b0495945050505050565b604080518082019091526002815261035360f41b6020820152600090826126805760405162461bcd60e51b815260206004820181815283516024840152835190928392604490910191908501908083836000831561122c578181015183820152602001611214565b5060408051808201909152600280825261068760f31b6020830152830490670de0b6b3a76400008219048511156126f85760405162461bcd60e51b815260206004820181815283516024840152835190928392604490910191908501908083836000831561122c578181015183820152602001611214565b508281670de0b6b3a764000086020181611f4057fe5b6000806127224264ffffffffff85166115c6565b905061274c61272f61286c565b6301e1338061273e8785611ce9565b8161274557fe5b0490611136565b949350505050565b60006111908383425b6000806127718364ffffffffff86166115c6565b9050806127885761278061286c565b915050611e2a565b600019810160006002831161279e5760006127a3565b600283035b90506301e13380870460006127b8828061233f565b905060006127c6828461233f565b9050600060026127da846114718a8a611ce9565b816127e157fe5b049050600060066127f88461147189818d8d611ce9565b816127ff57fe5b0490506128238161281d84816128158a8e611ce9565b61281d61286c565b90611136565b9c9b505050505050505050505050565b6000813f7fc5d2460186f7233c927e7db2dcc703c0e500b653ca82273b7bfad8045d85a47081811480159061274c575050151592915050565b6b033b2e3c9fd0803ce800000090565b60405180610220016040528060008152602001600081526020016000815260200160008152602001600081526020016000815260200160008152602001600081526020016000815260200160008152602001600081526020016000815260200160006001600160a01b031681526020016000151581526020016000600281111561290257fe5b815260200160008152602001606081525090565b604051806102400160405280600081526020016000815260200160008152602001600081526020016000815260200160008152602001600081526020016000815260200160008152602001600081526020016000815260200160008152602001600081526020016000815260200160001515815260200160006001600160a01b031681526020016000151581526020016000151581525090565b6040518060e00160405280600081526020016000815260200160008152602001600081526020016000815260200160008152602001600081525090565b60405180610100016040528060006001600160a01b03168152602001600081526020016000815260200160008152602001600081526020016000815260200160008152602001600081525090565b60405180610160016040528060008152602001600081526020016000815260200160008152602001600081526020016000815260200160008152602001600081526020016000815260200160008152602001600064ffffffffff168152509056fe536166654d6174683a206d756c7469706c69636174696f6e206f766572666c6f775361666545524332303a204552433230206f7065726174696f6e20646964206e6f742073756363656564a2646970667358221220c73386f699ec138f637f8d11060af4f7e690bf92886b17e389b322ddae7959ed64736f6c634300060c0033",
    "linkReferences": {}
  },
  "methodIdentifiers": {
    "liquidationCall(address,address,address,uint256,bool,bool)": "8c1624d8"
  },
  "id": 70
}