{
  "abi": [
    {
      "inputs": [
        {
          "internalType": "contract ILendingPoolAddressesProvider",
          "name": "addressesProvider",
          "type": "address"
        },
        {
          "internalType": "contract IUniswapV2Router02",
          "name": "uniswapRouter",
          "type": "address"
        },
        {
          "internalType": "address",
          "name": "wethAddress",
          "type": "address"
        }
      ],
      "stateMutability": "nonpayable",
      "type": "constructor"
    },
    {
      "anonymous": false,
      "inputs": [
        {
          "indexed": true,
          "internalType": "address",
          "name": "previousOwner",
          "type": "address"
        },
        {
          "indexed": true,
          "internalType": "address",
          "name": "newOwner",
          "type": "address"
        }
      ],
      "name": "OwnershipTransferred",
      "type": "event"
    },
    {
      "anonymous": false,
      "inputs": [
        {
          "indexed": false,
          "internalType": "address",
          "name": "fromAsset",
          "type": "address"
        },
        {
          "indexed": false,
          "internalType": "address",
          "name": "toAsset",
          "type": "address"
        },
        {
          "indexed": false,
          "internalType": "uint256",
          "name": "fromAmount",
          "type": "uint256"
        },
        {
          "indexed": false,
          "internalType": "uint256",
          "name": "receivedAmount",
          "type": "uint256"
        }
      ],
      "name": "Swapped",
      "type": "event"
    },
    {
      "inputs": [],
      "name": "ADDRESSES_PROVIDER",
      "outputs": [
        {
          "internalType": "contract ILendingPoolAddressesProvider",
          "name": "",
          "type": "address"
        }
      ],
      "stateMutability": "view",
      "type": "function"
    },
    {
      "inputs": [],
      "name": "FLASHLOAN_PREMIUM_TOTAL",
      "outputs": [
        {
          "internalType": "uint256",
          "name": "",
          "type": "uint256"
        }
      ],
      "stateMutability": "view",
      "type": "function"
    },
    {
      "inputs": [],
      "name": "LENDING_POOL",
      "outputs": [
        {
          "internalType": "contract ILendingPool",
          "name": "",
          "type": "address"
        }
      ],
      "stateMutability": "view",
      "type": "function"
    },
    {
      "inputs": [],
      "name": "MAX_SLIPPAGE_PERCENT",
      "outputs": [
        {
          "internalType": "uint256",
          "name": "",
          "type": "uint256"
        }
      ],
      "stateMutability": "view",
      "type": "function"
    },
    {
      "inputs": [],
      "name": "ORACLE",
      "outputs": [
        {
          "internalType": "contract IPriceOracleGetter",
          "name": "",
          "type": "address"
        }
      ],
      "stateMutability": "view",
      "type": "function"
    },
    {
      "inputs": [],
      "name": "UNISWAP_ROUTER",
      "outputs": [
        {
          "internalType": "contract IUniswapV2Router02",
          "name": "",
          "type": "address"
        }
      ],
      "stateMutability": "view",
      "type": "function"
    },
    {
      "inputs": [],
      "name": "USD_ADDRESS",
      "outputs": [
        {
          "internalType": "address",
          "name": "",
          "type": "address"
        }
      ],
      "stateMutability": "view",
      "type": "function"
    },
    {
      "inputs": [],
      "name": "WETH_ADDRESS",
      "outputs": [
        {
          "internalType": "address",
          "name": "",
          "type": "address"
        }
      ],
      "stateMutability": "view",
      "type": "function"
    },
    {
      "inputs": [
        {
          "internalType": "address[]",
          "name": "assets",
          "type": "address[]"
        },
        {
          "internalType": "uint256[]",
          "name": "amounts",
          "type": "uint256[]"
        },
        {
          "internalType": "uint256[]",
          "name": "premiums",
          "type": "uint256[]"
        },
        {
          "internalType": "address",
          "name": "initiator",
          "type": "address"
        },
        {
          "internalType": "bytes",
          "name": "params",
          "type": "bytes"
        }
      ],
      "name": "executeOperation",
      "outputs": [
        {
          "internalType": "bool",
          "name": "",
          "type": "bool"
        }
      ],
      "stateMutability": "nonpayable",
      "type": "function"
    },
    {
      "inputs": [
        {
          "internalType": "uint256",
          "name": "amountOut",
          "type": "uint256"
        },
        {
          "internalType": "address",
          "name": "reserveIn",
          "type": "address"
        },
        {
          "internalType": "address",
          "name": "reserveOut",
          "type": "address"
        }
      ],
      "name": "getAmountsIn",
      "outputs": [
        {
          "internalType": "uint256",
          "name": "",
          "type": "uint256"
        },
        {
          "internalType": "uint256",
          "name": "",
          "type": "uint256"
        },
        {
          "internalType": "uint256",
          "name": "",
          "type": "uint256"
        },
        {
          "internalType": "uint256",
          "name": "",
          "type": "uint256"
        },
        {
          "internalType": "address[]",
          "name": "",
          "type": "address[]"
        }
      ],
      "stateMutability": "view",
      "type": "function"
    },
    {
      "inputs": [
        {
          "internalType": "uint256",
          "name": "amountIn",
          "type": "uint256"
        },
        {
          "internalType": "address",
          "name": "reserveIn",
          "type": "address"
        },
        {
          "internalType": "address",
          "name": "reserveOut",
          "type": "address"
        }
      ],
      "name": "getAmountsOut",
      "outputs": [
        {
          "internalType": "uint256",
          "name": "",
          "type": "uint256"
        },
        {
          "internalType": "uint256",
          "name": "",
          "type": "uint256"
        },
        {
          "internalType": "uint256",
          "name": "",
          "type": "uint256"
        },
        {
          "internalType": "uint256",
          "name": "",
          "type": "uint256"
        },
        {
          "internalType": "address[]",
          "name": "",
          "type": "address[]"
        }
      ],
      "stateMutability": "view",
      "type": "function"
    },
    {
      "inputs": [],
      "name": "owner",
      "outputs": [
        {
          "internalType": "address",
          "name": "",
          "type": "address"
        }
      ],
      "stateMutability": "view",
      "type": "function"
    },
    {
      "inputs": [],
      "name": "renounceOwnership",
      "outputs": [],
      "stateMutability": "nonpayable",
      "type": "function"
    },
    {
      "inputs": [
        {
          "internalType": "contract IERC20",
          "name": "token",
          "type": "address"
        }
      ],
      "name": "rescueTokens",
      "outputs": [],
      "stateMutability": "nonpayable",
      "type": "function"
    },
    {
      "inputs": [
        {
          "internalType": "address[]",
          "name": "assetToSwapFromList",
          "type": "address[]"
        },
        {
          "internalType": "address[]",
          "name": "assetToSwapToList",
          "type": "address[]"
        },
        {
          "internalType": "uint256[]",
          "name": "amountToSwapList",
          "type": "uint256[]"
        },
        {
          "internalType": "uint256[]",
          "name": "minAmountsToReceive",
          "type": "uint256[]"
        },
        {
          "components": [
            {
              "internalType": "uint256",
              "name": "amount",
              "type": "uint256"
            },
            {
              "internalType": "uint256",
              "name": "deadline",
              "type": "uint256"
            },
            {
              "internalType": "uint8",
              "name": "v",
              "type": "uint8"
            },
            {
              "internalType": "bytes32",
              "name": "r",
              "type": "bytes32"
            },
            {
              "internalType": "bytes32",
              "name": "s",
              "type": "bytes32"
            }
          ],
          "internalType": "struct IBaseUniswapAdapter.PermitSignature[]",
          "name": "permitParams",
          "type": "tuple[]"
        },
        {
          "internalType": "bool[]",
          "name": "useEthPath",
          "type": "bool[]"
        }
      ],
      "name": "swapAndDeposit",
      "outputs": [],
      "stateMutability": "nonpayable",
      "type": "function"
    },
    {
      "inputs": [
        {
          "internalType": "address",
          "name": "newOwner",
          "type": "address"
        }
      ],
      "name": "transferOwnership",
      "outputs": [],
      "stateMutability": "nonpayable",
      "type": "function"
    }
  ],
  "bytecode": {
    "object": "0x6101206040523480156200001257600080fd5b5060405162003dc838038062003dc883398101604081905262000035916200021e565b82828282806001600160a01b03166080816001600160a01b031660601b81525050806001600160a01b0316630261bf8b6040518163ffffffff1660e01b815260040160206040518083038186803b1580156200009057600080fd5b505afa158015620000a5573d6000803e3d6000fd5b505050506040513d601f19601f82011682018060405250810190620000cb9190620001f7565b60601b6001600160601b03191660a052506000620000e8620001d3565b600080546001600160a01b0319166001600160a01b0383169081178255604051929350917f8be0079c531659141344cd1fd0a4f28419497f9722a3daafe3b4186f6b6457e0908290a350826001600160a01b031663fca513a86040518163ffffffff1660e01b815260040160206040518083038186803b1580156200016c57600080fd5b505afa15801562000181573d6000803e3d6000fd5b505050506040513d601f19601f82011682018060405250810190620001a79190620001f7565b6001600160601b0319606091821b811660e05292811b8316610100521b1660c05250620002bb92505050565b3390565b8051620001e48162000296565b92915050565b8051620001e481620002b0565b60006020828403121562000209578081fd5b6200021783828401620001d7565b9392505050565b60008060006060848603121562000233578182fd5b6200024185838601620001ea565b925060206200025386828701620001ea565b92505060406200026686828701620001d7565b9150509250925092565b6000620001e4826200028a565b6000620001e48262000270565b6001600160a01b031690565b620002a18162000270565b8114620002ad57600080fd5b50565b620002a1816200027d565b60805160601c60a05160601c60c05160601c60e05160601c6101005160601c613a3c6200038c60003980610b6d5280611224528061131852806119a152806119d65280611b6a528061211152806122025250806103af528061236c52508061035c52806110fe528061113b52806111a55280611a545280611feb5280612028528061209252508061046c52806107425280610a145280610a6e5280610aa45280610dc85280610e045280610e455280610eff5280610f3b528061172252806118675250806103805250613a3c6000f3fe608060405234801561001057600080fd5b50600436106100ff5760003560e01c8063920f5c8411610097578063cdf58cd611610066578063cdf58cd6146101d5578063d51c9ed7146101e8578063d8264920146101fb578063f2fde38b14610203576100ff565b8063920f5c84146101815780639d1211bf146101a1578063b4dcfc77146101a9578063baf7fa99146101b1576100ff565b806332e4b286116100d357806332e4b2861461016157806338013f0214610169578063715018a6146101715780638da5cb5b14610179576100ff565b8062ae3bf814610104578063040141e5146101195780630542975c14610137578063074b2e431461014c575b600080fd5b610117610112366004613099565b610216565b005b61012161035a565b60405161012e9190613578565b60405180910390f35b61013f61037e565b60405161012e9190613722565b6101546103a2565b60405161012e91906137f1565b6101546103a7565b61013f6103ad565b6101176103d1565b610121610450565b61019461018f366004612dc3565b61045f565b60405161012e9190613714565b610121610728565b61013f610740565b6101c46101bf36600461310e565b610764565b60405161012e959493929190613868565b6101c46101e336600461310e565b6107aa565b6101176101f6366004612c92565b6107c5565b61013f610b6b565b610117610211366004612c75565b610b8f565b61021e610c45565b6000546001600160a01b039081169116146102545760405162461bcd60e51b815260040161024b906137a1565b60405180910390fd5b806001600160a01b031663a9059cbb61026b610450565b6040516370a0823160e01b81526001600160a01b038516906370a0823190610297903090600401613578565b60206040518083038186803b1580156102af57600080fd5b505afa1580156102c3573d6000803e3d6000fd5b505050506040513d601f19601f820116820180604052508101906102e791906130f1565b6040518363ffffffff1660e01b8152600401610304929190613674565b602060405180830381600087803b15801561031e57600080fd5b505af1158015610332573d6000803e3d6000fd5b505050506040513d601f19601f82011682018060405250810190610356919061307c565b5050565b7f000000000000000000000000000000000000000000000000000000000000000081565b7f000000000000000000000000000000000000000000000000000000000000000081565b600981565b610bb881565b7f000000000000000000000000000000000000000000000000000000000000000081565b6103d9610c45565b6000546001600160a01b039081169116146104065760405162461bcd60e51b815260040161024b906137a1565b600080546040516001600160a01b03909116907f8be0079c531659141344cd1fd0a4f28419497f9722a3daafe3b4186f6b6457e0908390a3600080546001600160a01b0319169055565b6000546001600160a01b031690565b6000336001600160a01b037f000000000000000000000000000000000000000000000000000000000000000016146104a95760405162461bcd60e51b815260040161024b90613741565b6104b16125e7565b6104f084848080601f016020809104026020016040519081016040528093929190818152602001838380828437600092019190915250610c4992505050565b8051519091508a14801561050857506020810151518a145b801561051857506040810151518a145b80156105295750606081015151518a145b801561053d5750606081015160200151518a145b80156105515750606081015160400151518a145b801561056457506060808201510151518a145b80156105785750606081015160800151518a145b801561058857506080810151518a145b6105a45760405162461bcd60e51b815260040161024b906137b1565b60005b8a8110156107165761070e8c8c838181106105be57fe5b90506020020160208101906105d39190612c75565b83518051849081106105e157fe5b60200260200101518c8c858181106105f557fe5b905060200201358b8b8681811061060857fe5b905060200201358a8760200151878151811061062057fe5b60200260200101518860400151888151811061063857fe5b60200260200101516040518060a001604052808b60600151600001518b8151811061065f57fe5b602002602001015181526020018b60600151602001518b8151811061068057fe5b602002602001015181526020018b60600151604001518b815181106106a157fe5b602002602001015160ff1681526020018b60600151606001518b815181106106c557fe5b602002602001015181526020018b60600151608001518b815181106106e657fe5b60200260200101518152508a608001518a8151811061070157fe5b6020026020010151610cd2565b6001016105a7565b5060019b9a5050505050505050505050565b7310f7fc1f91ba351f9c629c5947ad69bd03c05b9681565b7f000000000000000000000000000000000000000000000000000000000000000081565b600080600080606061077461261c565b61077f88888b610f6c565b8051602082015160408301516060840151608090940151929d919c509a509198509650945050505050565b60008060008060606107ba61261c565b61077f88888b611529565b8a891480156107d357508a87145b80156107de57508a85145b80156107e957508a83145b6108055760405162461bcd60e51b815260040161024b906137b1565b61080d61264b565b600081525b80518c1115610b5c576108488d8d836000015181811061082e57fe5b90506020020160208101906108439190612c75565b611703565b60e001516001600160a01b0316608082018190526040516370a0823160e01b81526370a082319061087d903390600401613586565b60206040518083038186803b15801561089557600080fd5b505afa1580156108a9573d6000803e3d6000fd5b505050506040513d601f19601f820116820180604052508101906108cd91906130f1565b6020820181905281518a908a908181106108e357fe5b905060200201351161090b57888882600001518181106108ff57fe5b90506020020135610911565b80602001515b60408201528051610974908e908e9081811061092957fe5b905060200201602081019061093e9190612c75565b82608001513384604001518989876000015181811061095957fe5b905060a0020180360381019061096f91906130b6565b6117ae565b610a078d8d836000015181811061098757fe5b905060200201602081019061099c9190612c75565b8c8c84600001518181106109ac57fe5b90506020020160208101906109c19190612c75565b83604001518a8a86600001518181106109d657fe5b90506020020135878787600001518181106109ed57fe5b9050602002016020810190610a02919061305f565b6118fa565b60608201528051610a69907f0000000000000000000000000000000000000000000000000000000000000000906000908e908e90818110610a4457fe5b9050602002016020810190610a599190612c75565b6001600160a01b03169190611c92565b610aa27f000000000000000000000000000000000000000000000000000000000000000082606001518d8d8560000151818110610a4457fe5b7f00000000000000000000000000000000000000000000000000000000000000006001600160a01b031663e8eda9df8c8c8460000151818110610ae157fe5b9050602002016020810190610af69190612c75565b83606001513360006040518563ffffffff1660e01b8152600401610b1d94939291906136b7565b600060405180830381600087803b158015610b3757600080fd5b505af1158015610b4b573d6000803e3d6000fd5b505082516001018352506108129050565b50505050505050505050505050565b7f000000000000000000000000000000000000000000000000000000000000000081565b610b97610c45565b6000546001600160a01b03908116911614610bc45760405162461bcd60e51b815260040161024b906137a1565b6001600160a01b038116610bea5760405162461bcd60e51b815260040161024b90613751565b600080546040516001600160a01b03808516939216917f8be0079c531659141344cd1fd0a4f28419497f9722a3daafe3b4186f6b6457e091a3600080546001600160a01b0319166001600160a01b0392909216919091179055565b3390565b610c516125e7565b60608060608060608060608060608a806020019051810190610c739190612ea1565b6040805160a080820183529a815260208082019a909a52808201989098528051998a018152958952968801939093529286015260608086019290925260808086019190915290820193909352918201529b9a5050505050505050505050565b610cda612683565b610ce38a611703565b60e001516001600160a01b03168082526040516370a0823160e01b81526370a0823190610d14908990600401613578565b60206040518083038186803b158015610d2c57600080fd5b505afa158015610d40573d6000803e3d6000fd5b505050506040513d601f19601f82011682018060405250810190610d6491906130f1565b6020820152838015610d85575060208101518890610d829089611d91565b11155b610d8f5787610d9e565b6020810151610d9e9088611d91565b60408201819052610db4908b908b9088866118fa565b6060820152610dee6001600160a01b038a167f00000000000000000000000000000000000000000000000000000000000000006000611c92565b6060810151610e29906001600160a01b038b16907f000000000000000000000000000000000000000000000000000000000000000090611c92565b606081015160405163e8eda9df60e01b81526001600160a01b037f0000000000000000000000000000000000000000000000000000000000000000169163e8eda9df91610e7f918d918b906000906004016136ec565b600060405180830381600087803b158015610e9957600080fd5b505af1158015610ead573d6000803e3d6000fd5b50505050610ec48789611dd390919063ffffffff16565b60808201526040810151610ed89088611dd3565b60a082018190528151610ef0918c91908990876117ae565b610f256001600160a01b038b167f00000000000000000000000000000000000000000000000000000000000000006000611c92565b6080810151610f60906001600160a01b038c16907f000000000000000000000000000000000000000000000000000000000000000090611c92565b50505050505050505050565b610f7461261c565b6000610f97610f90612710610f8a866009611df8565b90611e32565b8490611d91565b9050836001600160a01b0316856001600160a01b03161415611063576000610fbe86611e74565b60408051600180825281830190925291925060609190602080830190803683370190505090508681600081518110610ff257fe5b6001600160a01b039092166020928302919091018201526040805160a0810190915284815290810161103087610f8a87670de0b6b3a7640000611df8565b8152602001611040898886611ef0565b8152602001611050898686611ef0565b8152602001828152509350505050611522565b6040805160028082526060808301845292602083019080368337019050509050858160008151811061109157fe5b60200260200101906001600160a01b031690816001600160a01b03168152505084816001815181106110bf57fe5b6001600160a01b0392909216602092830291909101820152604080516003808252608082019092526060928392839291820183803683370190505090507f00000000000000000000000000000000000000000000000000000000000000006001600160a01b0316896001600160a01b03161415801561117057507f00000000000000000000000000000000000000000000000000000000000000006001600160a01b0316886001600160a01b031614155b156112dc57888160008151811061118357fe5b60200260200101906001600160a01b031690816001600160a01b0316815250507f0000000000000000000000000000000000000000000000000000000000000000816001815181106111d157fe5b60200260200101906001600160a01b031690816001600160a01b03168152505087816002815181106111ff57fe5b6001600160a01b03928316602091820292909201015260405163d06ca61f60e01b81527f00000000000000000000000000000000000000000000000000000000000000009091169063d06ca61f9061125d90889085906004016137ff565b60006040518083038186803b15801561127557600080fd5b505afa9250505080156112aa57506040513d6000823e601f3d908101601f191682016040526112a7919081019061302b565b60015b6112d4576040805160038082526080820190925290602082016060803683370190505091506112d7565b91505b6112fe565b6040805160038082526080820190925290602082016060803683370190505091505b60405163d06ca61f60e01b81526000906001600160a01b037f0000000000000000000000000000000000000000000000000000000000000000169063d06ca61f9061134f90899089906004016137ff565b60006040518083038186803b15801561136757600080fd5b505afa92505050801561139c57506040513d6000823e601f3d908101601f19168201604052611399919081019061302b565b60015b6113dc576040805160028082526060820183529091602083019080368337019050509350826002815181106113cd57fe5b60200260200101519050611442565b809450846001815181106113ec57fe5b60200260200101518460028151811061140157fe5b602002602001015111611428578460018151811061141b57fe5b602002602001015161143e565b8360028151811061143557fe5b60200260200101515b9150505b600061144d8b611e74565b9050600061145a8b611e74565b9050600061148f61146f85600a86900a611df8565b610f8a600a85900a6114898d670de0b6b3a7640000611df8565b90611df8565b90506040518060a001604052808581526020018281526020016114b38f8e87611ef0565b81526020016114c38e8786611ef0565b815260200185156114f657886001815181106114db57fe5b602002602001015186146114ef57866114f1565b895b611514565b60408051600280825260608201835290916020830190803683375050505b905299505050505050505050505b9392505050565b61153161261c565b826001600160a01b0316846001600160a01b03161415611607576000611568611561612710610f8a866009611df8565b8490611dd3565b9050600061157586611e74565b604080516001808252818301909252919250606091906020808301908036833701905050905086816000815181106115a957fe5b6001600160a01b039092166020928302919091018201526040805160a081019091528481529081016115e785610f8a89670de0b6b3a7640000611df8565b81526020016115f7898686611ef0565b8152602001611050898886611ef0565b606080611615868686611f49565b91509150600061166f61164c612710610f8a60098760008151811061163657fe5b6020026020010151611df890919063ffffffff16565b8460008151811061165957fe5b6020026020010151611dd390919063ffffffff16565b9050600061167c88611e74565b9050600061168988611e74565b905060006116b861169e85600a85900a611df8565b610f8a600a86900a6114898c670de0b6b3a7640000611df8565b90506040518060a001604052808581526020018281526020016116dc8c8787611ef0565b81526020016116ec8b8b86611ef0565b815260200195909552509298975050505050505050565b61170b6126c2565b6040516335ea6a7560e01b81526001600160a01b037f000000000000000000000000000000000000000000000000000000000000000016906335ea6a7590611757908590600401613578565b6101806040518083038186803b15801561177057600080fd5b505afa158015611784573d6000803e3d6000fd5b505050506040513d601f19601f820116820180604052508101906117a891906130d3565b92915050565b6117b781612306565b1561183b57836001600160a01b031663d505accf8430846000015185602001518660400151876060015188608001516040518863ffffffff1660e01b8152600401611808979695949392919061360c565b600060405180830381600087803b15801561182257600080fd5b505af1158015611836573d6000803e3d6000fd5b505050505b6118506001600160a01b03851684308561232b565b604051631a4ca37b60e21b81526001600160a01b037f000000000000000000000000000000000000000000000000000000000000000016906369328dec906118a09088908690309060040161368f565b602060405180830381600087803b1580156118ba57600080fd5b505af11580156118ce573d6000803e3d6000fd5b505050506040513d601f19601f820116820180604052508101906118f291906130f1565b505050505050565b60008061190687611e74565b9050600061191387611e74565b9050600061192089612352565b9050600061192d89612352565b90506000611971611942612710610bb8611d91565b61196b61195385600a8a900a611df8565b610f8a61196488600a8b900a611df8565b8e90611df8565b906123f1565b90508781106119925760405162461bcd60e51b815260040161024b90613781565b6119c76001600160a01b038c167f00000000000000000000000000000000000000000000000000000000000000006000611c92565b6119fb6001600160a01b038c167f00000000000000000000000000000000000000000000000000000000000000008b611c92565b60608715611ad3576040805160038082526080820190925290602082016060803683370190505090508b81600081518110611a3257fe5b60200260200101906001600160a01b031690816001600160a01b0316815250507f000000000000000000000000000000000000000000000000000000000000000081600181518110611a8057fe5b60200260200101906001600160a01b031690816001600160a01b0316815250508a81600281518110611aae57fe5b60200260200101906001600160a01b031690816001600160a01b031681525050611b50565b60408051600280825260608201835290916020830190803683370190505090508b81600081518110611b0157fe5b60200260200101906001600160a01b031690816001600160a01b0316815250508a81600181518110611b2f57fe5b60200260200101906001600160a01b031690816001600160a01b0316815250505b6040516338ed173960e01b81526060906001600160a01b037f000000000000000000000000000000000000000000000000000000000000000016906338ed173990611ba7908e908e9087903090429060040161381f565b600060405180830381600087803b158015611bc157600080fd5b505af1158015611bd5573d6000803e3d6000fd5b505050506040513d6000823e601f3d908101601f19168201604052611bfd919081019061302b565b90507fa078c4190abe07940190effc1846be0ccf03ad6007bc9e93f9697d0b460befbb8d8d83600081518110611c2f57fe5b602002602001015184600186510381518110611c4757fe5b6020026020010151604051611c5f94939291906135d7565b60405180910390a180600182510381518110611c7757fe5b60200260200101519750505050505050505b95945050505050565b801580611d1a5750604051636eb1769f60e11b81526001600160a01b0384169063dd62ed3e90611cc89030908690600401613594565b60206040518083038186803b158015611ce057600080fd5b505afa158015611cf4573d6000803e3d6000fd5b505050506040513d601f19601f82011682018060405250810190611d1891906130f1565b155b611d365760405162461bcd60e51b815260040161024b906137d1565b611d8c8363095ea7b360e01b8484604051602401611d55929190613674565b60408051601f198184030181529190526020810180516001600160e01b03166001600160e01b031990931692909217909152612463565b505050565b600061152283836040518060400160405280601e81526020017f536166654d6174683a207375627472616374696f6e206f766572666c6f770000815250612548565b6000828201838110156115225760405162461bcd60e51b815260040161024b90613761565b600082611e07575060006117a8565b82820282848281611e1457fe5b04146115225760405162461bcd60e51b815260040161024b90613791565b600061152283836040518060400160405280601a81526020017f536166654d6174683a206469766973696f6e206279207a65726f000000000000815250612574565b6000816001600160a01b031663313ce5676040518163ffffffff1660e01b815260040160206040518083038186803b158015611eaf57600080fd5b505afa158015611ec3573d6000803e3d6000fd5b505050506040513d601f19601f82011682018060405250810190611ee79190613159565b60ff1692915050565b600080611f107310f7fc1f91ba351f9c629c5947ad69bd03c05b96612352565b90506000611f1d86612352565b9050611f3f670de0b6b3a7640000610f8a84611489600a89900a838b88611df8565b9695505050505050565b6040805160028082526060828101909352829182918160200160208202803683370190505090508581600081518110611f7e57fe5b60200260200101906001600160a01b031690816001600160a01b0316815250508481600181518110611fac57fe5b6001600160a01b0392909216602092830291909101820152604080516003808252608082019092526060928392839291820183803683370190505090507f00000000000000000000000000000000000000000000000000000000000000006001600160a01b0316896001600160a01b03161415801561205d57507f00000000000000000000000000000000000000000000000000000000000000006001600160a01b0316886001600160a01b031614155b156121c957888160008151811061207057fe5b60200260200101906001600160a01b031690816001600160a01b0316815250507f0000000000000000000000000000000000000000000000000000000000000000816001815181106120be57fe5b60200260200101906001600160a01b031690816001600160a01b03168152505087816002815181106120ec57fe5b6001600160a01b0392831660209182029290920101526040516307c0329d60e21b81527f000000000000000000000000000000000000000000000000000000000000000090911690631f00ca749061214a908a9085906004016137ff565b60006040518083038186803b15801561216257600080fd5b505afa92505050801561219757506040513d6000823e601f3d908101601f19168201604052612194919081019061302b565b60015b6121c1576040805160038082526080820190925290602082016060803683370190505091506121c4565b91505b6121eb565b6040805160038082526080820190925290602082016060803683370190505091505b6040516307c0329d60e21b81526001600160a01b037f00000000000000000000000000000000000000000000000000000000000000001690631f00ca7490612239908a9088906004016137ff565b60006040518083038186803b15801561225157600080fd5b505afa92505050801561228657506040513d6000823e601f3d908101601f19168201604052612283919081019061302b565b60015b6122975790945092506122fe915050565b809350836000815181106122a757fe5b6020026020010151836000815181106122bc57fe5b60200260200101511080156122e65750826000815181106122d957fe5b6020026020010151600014155b6122f15783856122f4565b82825b9650965050505050505b935093915050565b6000816040015160ff16826020015114801561232457506020820151155b1592915050565b61234c846323b872dd60e01b858585604051602401611d55939291906135af565b50505050565b60405163b3596f0760e01b81526000906001600160a01b037f0000000000000000000000000000000000000000000000000000000000000000169063b3596f07906123a1908590600401613578565b60206040518083038186803b1580156123b957600080fd5b505afa1580156123cd573d6000803e3d6000fd5b505050506040513d601f19601f820116820180604052508101906117a891906130f1565b60008215806123fe575081155b1561240b575060006117a8565b81611388198161241757fe5b0483111560405180604001604052806002815260200161068760f31b815250906124545760405162461bcd60e51b815260040161024b9190613730565b50506127109102611388010490565b612475826001600160a01b03166125ab565b6124915760405162461bcd60e51b815260040161024b906137e1565b60006060836001600160a01b0316836040516124ad919061356c565b6000604051808303816000865af19150503d80600081146124ea576040519150601f19603f3d011682016040523d82523d6000602084013e6124ef565b606091505b5091509150816125115760405162461bcd60e51b815260040161024b90613771565b80511561234c578080602001905181019061252c919061307c565b61234c5760405162461bcd60e51b815260040161024b906137c1565b6000818484111561256c5760405162461bcd60e51b815260040161024b9190613730565b505050900390565b600081836125955760405162461bcd60e51b815260040161024b9190613730565b5060008385816125a157fe5b0495945050505050565b6000813f7fc5d2460186f7233c927e7db2dcc703c0e500b653ca82273b7bfad8045d85a4708181148015906125df57508115155b949350505050565b6040518060a0016040528060608152602001606081526020016060815260200161260f61272d565b8152602001606081525090565b6040518060a0016040528060008152602001600081526020016000815260200160008152602001606081525090565b6040518060a001604052806000815260200160008152602001600081526020016000815260200160006001600160a01b031681525090565b6040518060c0016040528060006001600160a01b0316815260200160008152602001600081526020016000815260200160008152602001600081525090565b6040518061018001604052806126d661275c565b815260006020820181905260408201819052606082018190526080820181905260a0820181905260c0820181905260e082018190526101008201819052610120820181905261014082018190526101609091015290565b6040518060a0016040528060608152602001606081526020016060815260200160608152602001606081525090565b6040518060200160405280600081525090565b80356117a8816139b9565b80516117a8816139b9565b60008083601f840112612796578182fd5b5081356001600160401b038111156127ac578182fd5b6020830191508360208202830111156127c457600080fd5b9250929050565b600082601f8301126127db578081fd5b81516127ee6127e9826138e0565b6138ba565b9150818183526020840193506020830190508385602084028601111561281357600080fd5b60005b8381101561283d57612828878361277a565b83526020928301929190910190600101612816565b5050505092915050565b600082601f830112612857578081fd5b81516128656127e9826138e0565b9150818183526020840193506020830190508385602084028601111561288a57600080fd5b60005b8381101561283d5761289f8783612a45565b8352602092830192919091019060010161288d565b600082601f8301126128c4578081fd5b81516128d26127e9826138e0565b915081818352602084019350602083019050838560208402860111156128f757600080fd5b60005b8381101561283d5761290c8783612a5b565b835260209283019291909101906001016128fa565b60008083601f840112612932578182fd5b5081356001600160401b03811115612948578182fd5b6020830191508360a08202830111156127c457600080fd5b600082601f830112612970578081fd5b815161297e6127e9826138e0565b915081818352602084019350602083019050838560208402860111156129a357600080fd5b60005b8381101561283d576129b88783612a5b565b835260209283019291909101906001016129a6565b600082601f8301126129dd578081fd5b81516129eb6127e9826138e0565b91508181835260208401935060208301905083856020840286011115612a1057600080fd5b60005b8381101561283d57612a258783612c6a565b83526020928301929190910190600101612a13565b80356117a8816139d0565b80516117a8816139d0565b80356117a8816139d9565b80516117a8816139d9565b60008083601f840112612a77578182fd5b5081356001600160401b03811115612a8d578182fd5b6020830191508360018202830111156127c457600080fd5b80356117a8816139e2565b600060a08284031215612ac1578081fd5b612acb60a06138ba565b90506000612ad98484612a50565b908201526020612aeb84848301612a50565b908201526040612afd84848301612c5f565b908201526060612b0f84848301612a50565b908201526080612b2184848301612a50565b9082015292915050565b600060208284031215612b3c578081fd5b612b4660206138ba565b90506000612b218484612a5b565b60006101808284031215612b66578081fd5b612b716101806138ba565b90506000612b7f8484612b2b565b908201526020612b9184848301612c49565b908201526040612ba384848301612c49565b908201526060612bb584848301612c49565b908201526080612bc784848301612c49565b9082015260a0612bd984848301612c49565b9082015260c0612beb84848301612c54565b9082015260e0612bfd8484830161277a565b90820152610100612c108484830161277a565b90820152610120612c238484830161277a565b90820152610140612c368484830161277a565b90820152610160612b2184848301612c6a565b80516117a8816139eb565b80516117a8816139f4565b80356117a8816139fd565b80516117a8816139fd565b600060208284031215612c86578081fd5b6115228382840161276f565b60008060008060008060008060008060008060c08d8f031215612cb3578788fd5b6001600160401b03888e01351115612cc9578788fd5b612cd88e898f01358f01612785565b9b509b506001600160401b0360208e01351115612cf3578788fd5b612d038e60208f01358f01612785565b995099506001600160401b0360408e01351115612d1e578788fd5b612d2e8e60408f01358f01612785565b975097506001600160401b0360608e01351115612d49578586fd5b612d598e60608f01358f01612785565b955095506001600160401b0360808e01351115612d74578384fd5b612d848e60808f01358f01612921565b935093506001600160401b0360a08e01351115612d9f578081fd5b612daf8e60a08f01358f01612785565b915091509295989b509295989b509295989b565b600080600080600080600080600060a08a8c031215612de0578283fd5b828a01356001600160401b03811115612df7578384fd5b612e038c828d01612785565b995099505060208a01356001600160401b03811115612e20578384fd5b612e2c8c828d01612785565b975097505060408a01356001600160401b03811115612e49578384fd5b612e558c828d01612785565b95509550506060612e688c828d0161276f565b93505060808a01356001600160401b03811115612e83578283fd5b612e8f8c828d01612a66565b92509250509295985092959850929598565b60008060008060008060008060006101208a8c031215612ebf578283fd5b828a01516001600160401b03811115612ed6578384fd5b612ee28c828d016127cb565b99505060208a01516001600160401b03811115612efd578384fd5b612f098c828d01612960565b98505060408a01516001600160401b03811115612f24578384fd5b612f308c828d01612847565b97505060608a01516001600160401b03811115612f4b578384fd5b612f578c828d01612960565b96505060808a01516001600160401b03811115612f72578384fd5b612f7e8c828d01612960565b95505060a08a01516001600160401b03811115612f99578384fd5b612fa58c828d016129cd565b94505060c08a01516001600160401b03811115612fc0578384fd5b612fcc8c828d016128b4565b93505060e08a01516001600160401b03811115612fe7578283fd5b612ff38c828d016128b4565b9250506101008a01516001600160401b0381111561300f578182fd5b61301b8c828d01612847565b9150509295985092959850929598565b60006020828403121561303c578081fd5b808201516001600160401b03811115613053578182fd5b6125df84828501612960565b600060208284031215613070578081fd5b61152283828401612a3a565b60006020828403121561308d578081fd5b61152283828401612a45565b6000602082840312156130aa578081fd5b61152283828401612aa5565b600060a082840312156130c7578081fd5b61152283828401612ab0565b600061018082840312156130e5578081fd5b61152283828401612b54565b600060208284031215613102578081fd5b61152283828401612a5b565b600080600060608486031215613122578081fd5b61312e85828601612a50565b9250602061313e8682870161276f565b925050604061314f8682870161276f565b9150509250925092565b60006020828403121561316a578081fd5b61152283828401612c6a565b60006131828383613199565b505060200190565b6131938161396d565b82525050565b61319381613917565b60006131ad82613905565b6131b78185613909565b93506131c2836138ff565b825b828110156131ee5781516131d88782613176565b9650506131e4826138ff565b91506001016131c4565b5093949350505050565b61319381613922565b61319381613927565b600061321582613905565b61321f8185613912565b935061322f818560208601613983565b9290920192915050565b6131938161392a565b61319381613978565b600061325682613905565b6132608185613909565b9350613270818560208601613983565b613279816139af565b9093019392505050565b6000613290601b83613909565b7f43414c4c45525f4d5553545f42455f4c454e44494e475f504f4f4c000000000091810191909152602001919050565b60006132cd602683613909565b7f4f776e61626c653a206e6577206f776e657220697320746865207a65726f2061918101919091526564647265737360d01b6020820152604001919050565b6000613319601b83613909565b7f536166654d6174683a206164646974696f6e206f766572666c6f77000000000091810191909152602001919050565b6000613356602083613909565b7f5361666545524332303a206c6f772d6c6576656c2063616c6c206661696c656491810191909152602001919050565b6000613393602083613909565b7f6d696e416d6f756e744f757420657863656564206d617820736c69707061676591810191909152602001919050565b60006133d0602183613909565b7f536166654d6174683a206d756c7469706c69636174696f6e206f766572666c6f91810191909152607760f81b6020820152604001919050565b6000613417602083613909565b7f4f776e61626c653a2063616c6c6572206973206e6f7420746865206f776e657291810191909152602001919050565b6000613454601383613909565b72494e434f4e53495354454e545f504152414d5360681b91810191909152602001919050565b6000613487602a83613909565b7f5361666545524332303a204552433230206f7065726174696f6e20646964206e91810191909152691bdd081cdd58d8d9595960b21b6020820152604001919050565b60006134d7603683613909565b7f5361666545524332303a20617070726f76652066726f6d206e6f6e2d7a65726f918101919091527520746f206e6f6e2d7a65726f20616c6c6f77616e636560501b6020820152604001919050565b6000613533601f83613909565b7f5361666545524332303a2063616c6c20746f206e6f6e2d636f6e74726163740091810191909152602001919050565b61319381613967565b6000611522828461320a565b602081016117a88284613199565b602081016117a8828461318a565b604081016135a28285613199565b6115226020830184613199565b606081016135bd8286613199565b6135ca6020830185613199565b6125df6040830184613201565b608081016135e58287613199565b6135f26020830186613199565b6135ff6040830185613201565b611c896060830184613201565b60e0810161361a828a613199565b6136276020830189613199565b6136346040830188613201565b6136416060830187613201565b61364e6080830186613563565b61365b60a0830185613201565b61366860c0830184613201565b98975050505050505050565b604081016136828285613199565b6115226020830184613201565b6060810161369d8286613199565b6136aa6020830185613201565b6125df6040830184613199565b608081016136c58287613199565b6136d26020830186613201565b6136df604083018561318a565b611c896060830184613242565b608081016136fa8287613199565b6137076020830186613201565b6136df6040830185613199565b602081016117a882846131f8565b602081016117a88284613239565b60208082528101611522818461324b565b602080825281016117a881613283565b602080825281016117a8816132c0565b602080825281016117a88161330c565b602080825281016117a881613349565b602080825281016117a881613386565b602080825281016117a8816133c3565b602080825281016117a88161340a565b602080825281016117a881613447565b602080825281016117a88161347a565b602080825281016117a8816134ca565b602080825281016117a881613526565b602081016117a88284613201565b6040810161380d8285613201565b81810360208301526125df81846131a2565b60a0810161382d8288613201565b61383a6020830187613201565b818103604083015261384c81866131a2565b905061385b6060830185613199565b611f3f6080830184613201565b60a081016138768288613201565b6138836020830187613201565b6138906040830186613201565b61389d6060830185613201565b81810360808301526138af81846131a2565b979650505050505050565b6040518181016001600160401b03811182821017156138d857600080fd5b604052919050565b60006001600160401b038211156138f5578081fd5b5060209081020190565b60200190565b5190565b90815260200190565b919050565b60006117a882613951565b151590565b90565b60006117a882613917565b6fffffffffffffffffffffffffffffffff1690565b61ffff1690565b6001600160a01b031690565b64ffffffffff1690565b60ff1690565b60006117a88261392a565b60006117a88261394a565b60005b8381101561399e578181015183820152602001613986565b8381111561234c5750506000910152565b601f01601f191690565b6139c281613917565b81146139cd57600080fd5b50565b6139c281613922565b6139c281613927565b6139c28161392a565b6139c281613935565b6139c28161395d565b6139c28161396756fea264697066735822122015f984b7e84ca15012ce76352fcf5c03c5d0c2e5d5cbb563e9ae4fbcb2084b8564736f6c634300060c0033",
    "linkReferences": {}
  },
  "methodIdentifiers": {
    "ADDRESSES_PROVIDER()": "0542975c",
    "FLASHLOAN_PREMIUM_TOTAL()": "074b2e43",
    "LENDING_POOL()": "b4dcfc77",
    "MAX_SLIPPAGE_PERCENT()": "32e4b286",
    "ORACLE()": "38013f02",
    "UNISWAP_ROUTER()": "d8264920",
    "USD_ADDRESS()": "9d1211bf",
    "WETH_ADDRESS()": "040141e5",
    "executeOperation(address[],uint256[],uint256[],address,bytes)": "920f5c84",
    "getAmountsIn(uint256,address,address)": "cdf58cd6",
    "getAmountsOut(uint256,address,address)": "baf7fa99",
    "owner()": "8da5cb5b",
    "renounceOwnership()": "715018a6",
    "rescueTokens(address)": "00ae3bf8",
    "swapAndDeposit(address[],address[],uint256[],uint256[],(uint256,uint256,uint8,bytes32,bytes32)[],bool[])": "d51c9ed7",
    "transferOwnership(address)": "f2fde38b"
  },
  "id": 2
}