{
	"contracts/mocks/oracle/LendingRateOracle.sol": {
		"LendingRateOracle": {
			"abi": [
				{
					"anonymous": false,
					"inputs": [
						{
							"indexed": true,
							"internalType": "address",
							"name": "previousOwner",
							"type": "address"
						},
						{
							"indexed": true,
							"internalType": "address",
							"name": "newOwner",
							"type": "address"
						}
					],
					"name": "OwnershipTransferred",
					"type": "event"
				},
				{
					"inputs": [
						{
							"internalType": "address",
							"name": "_asset",
							"type": "address"
						}
					],
					"name": "getMarketBorrowRate",
					"outputs": [
						{
							"internalType": "uint256",
							"name": "",
							"type": "uint256"
						}
					],
					"stateMutability": "view",
					"type": "function"
				},
				{
					"inputs": [
						{
							"internalType": "address",
							"name": "_asset",
							"type": "address"
						}
					],
					"name": "getMarketLiquidityRate",
					"outputs": [
						{
							"internalType": "uint256",
							"name": "",
							"type": "uint256"
						}
					],
					"stateMutability": "view",
					"type": "function"
				},
				{
					"inputs": [],
					"name": "owner",
					"outputs": [
						{
							"internalType": "address",
							"name": "",
							"type": "address"
						}
					],
					"stateMutability": "view",
					"type": "function"
				},
				{
					"inputs": [],
					"name": "renounceOwnership",
					"outputs": [],
					"stateMutability": "nonpayable",
					"type": "function"
				},
				{
					"inputs": [
						{
							"internalType": "address",
							"name": "_asset",
							"type": "address"
						},
						{
							"internalType": "uint256",
							"name": "_rate",
							"type": "uint256"
						}
					],
					"name": "setMarketBorrowRate",
					"outputs": [],
					"stateMutability": "nonpayable",
					"type": "function"
				},
				{
					"inputs": [
						{
							"internalType": "address",
							"name": "_asset",
							"type": "address"
						},
						{
							"internalType": "uint256",
							"name": "_rate",
							"type": "uint256"
						}
					],
					"name": "setMarketLiquidityRate",
					"outputs": [],
					"stateMutability": "nonpayable",
					"type": "function"
				},
				{
					"inputs": [
						{
							"internalType": "address",
							"name": "newOwner",
							"type": "address"
						}
					],
					"name": "transferOwnership",
					"outputs": [],
					"stateMutability": "nonpayable",
					"type": "function"
				}
			],
			"devdoc": {
				"kind": "dev",
				"methods": {
					"owner()": {
						"details": "Returns the address of the current owner."
					},
					"renounceOwnership()": {
						"details": "Leaves the contract without owner. It will not be possible to call `onlyOwner` functions anymore. Can only be called by the current owner. NOTE: Renouncing ownership will leave the contract without an owner, thereby removing any functionality that is only available to the owner."
					},
					"transferOwnership(address)": {
						"details": "Transfers ownership of the contract to a new account (`newOwner`). Can only be called by the current owner."
					}
				},
				"version": 1
			},
			"evm": {
				"assembly": "    /* \"contracts/mocks/oracle/LendingRateOracle.sol\":218:876  contract LendingRateOracle is ILendingRateOracle, Ownable {... */\n  mstore(0x40, 0x80)\n  callvalue\n  dup1\n  iszero\n  tag_1\n  jumpi\n  0x00\n  dup1\n  revert\ntag_1:\n  pop\n    /* \"contracts/dependencies/openzeppelin/contracts/Ownable.sol\":844:861  address msgSender */\n  0x00\n    /* \"contracts/dependencies/openzeppelin/contracts/Ownable.sol\":864:876  _msgSender() */\n  tag_4\n    /* \"contracts/dependencies/openzeppelin/contracts/Ownable.sol\":864:874  _msgSender */\n  tag_5\n    /* \"contracts/dependencies/openzeppelin/contracts/Ownable.sol\":864:876  _msgSender() */\n  jump\t// in\ntag_4:\n    /* \"contracts/dependencies/openzeppelin/contracts/Ownable.sol\":882:888  _owner */\n  0x00\n    /* \"contracts/dependencies/openzeppelin/contracts/Ownable.sol\":882:900  _owner = msgSender */\n  dup1\n  sload\n  not(sub(shl(0xa0, 0x01), 0x01))\n  and\n  sub(shl(0xa0, 0x01), 0x01)\n  dup4\n  and\n  swap1\n  dup2\n  or\n  dup3\n  sstore\n    /* \"contracts/dependencies/openzeppelin/contracts/Ownable.sol\":911:954  OwnershipTransferred(address(0), msgSender) */\n  mload(0x40)\n    /* \"contracts/dependencies/openzeppelin/contracts/Ownable.sol\":882:900  _owner = msgSender */\n  swap3\n  swap4\n  pop\n  swap2\n    /* \"contracts/dependencies/openzeppelin/contracts/Ownable.sol\":911:954  OwnershipTransferred(address(0), msgSender) */\n  0x8be0079c531659141344cd1fd0a4f28419497f9722a3daafe3b4186f6b6457e0\n  swap1\n    /* \"contracts/dependencies/openzeppelin/contracts/Ownable.sol\":882:888  _owner */\n  dup3\n  swap1\n    /* \"contracts/dependencies/openzeppelin/contracts/Ownable.sol\":911:954  OwnershipTransferred(address(0), msgSender) */\n  log3\n    /* \"contracts/dependencies/openzeppelin/contracts/Ownable.sol\":815:959  constructor() internal {... */\n  pop\n    /* \"contracts/mocks/oracle/LendingRateOracle.sol\":218:876  contract LendingRateOracle is ILendingRateOracle, Ownable {... */\n  jump(tag_6)\n    /* \"contracts/dependencies/openzeppelin/contracts/Context.sol\":587:685  function _msgSender() internal view virtual returns (address payable) {... */\ntag_5:\n    /* \"contracts/dependencies/openzeppelin/contracts/Context.sol\":670:680  msg.sender */\n  caller\n    /* \"contracts/dependencies/openzeppelin/contracts/Context.sol\":587:685  function _msgSender() internal view virtual returns (address payable) {... */\n  swap1\n  jump\t// out\n    /* \"contracts/mocks/oracle/LendingRateOracle.sol\":218:876  contract LendingRateOracle is ILendingRateOracle, Ownable {... */\ntag_6:\n  dataSize(sub_0)\n  dup1\n  dataOffset(sub_0)\n  0x00\n  codecopy\n  0x00\n  return\nstop\n\nsub_0: assembly {\n        /* \"contracts/mocks/oracle/LendingRateOracle.sol\":218:876  contract LendingRateOracle is ILendingRateOracle, Ownable {... */\n      mstore(0x40, 0x80)\n      callvalue\n      dup1\n      iszero\n      tag_1\n      jumpi\n      0x00\n      dup1\n      revert\n    tag_1:\n      pop\n      jumpi(tag_2, lt(calldatasize, 0x04))\n      shr(0xe0, calldataload(0x00))\n      dup1\n      0x9f86a0ee\n      gt\n      tag_10\n      jumpi\n      dup1\n      0x9f86a0ee\n      eq\n      tag_6\n      jumpi\n      dup1\n      0xbb85c0bb\n      eq\n      tag_7\n      jumpi\n      dup1\n      0xf2fde38b\n      eq\n      tag_8\n      jumpi\n      dup1\n      0xfbe5ba1e\n      eq\n      tag_9\n      jumpi\n      jump(tag_2)\n    tag_10:\n      dup1\n      0x715018a6\n      eq\n      tag_3\n      jumpi\n      dup1\n      0x72eb293d\n      eq\n      tag_4\n      jumpi\n      dup1\n      0x8da5cb5b\n      eq\n      tag_5\n      jumpi\n    tag_2:\n      0x00\n      dup1\n      revert\n        /* \"contracts/dependencies/openzeppelin/contracts/Ownable.sol\":1610:1745  function renounceOwnership() public virtual onlyOwner {... */\n    tag_3:\n      tag_11\n      tag_12\n      jump\t// in\n    tag_11:\n      stop\n        /* \"contracts/mocks/oracle/LendingRateOracle.sol\":497:623  function setMarketBorrowRate(address _asset, uint256 _rate) external override onlyOwner {... */\n    tag_4:\n      tag_11\n      0x04\n      dup1\n      calldatasize\n      sub\n      0x40\n      dup2\n      lt\n      iszero\n      tag_14\n      jumpi\n      0x00\n      dup1\n      revert\n    tag_14:\n      pop\n      sub(shl(0xa0, 0x01), 0x01)\n      dup2\n      calldataload\n      and\n      swap1\n      0x20\n      add\n      calldataload\n      tag_15\n      jump\t// in\n        /* \"contracts/dependencies/openzeppelin/contracts/Ownable.sol\":1027:1098  function owner() public view returns (address) {... */\n    tag_5:\n      tag_16\n      tag_17\n      jump\t// in\n    tag_16:\n      0x40\n      dup1\n      mload\n      sub(shl(0xa0, 0x01), 0x01)\n      swap1\n      swap3\n      and\n      dup3\n      mstore\n      mload\n      swap1\n      dup2\n      swap1\n      sub\n      0x20\n      add\n      swap1\n      return\n        /* \"contracts/mocks/oracle/LendingRateOracle.sol\":751:874  function setMarketLiquidityRate(address _asset, uint256 _rate) external onlyOwner {... */\n    tag_6:\n      tag_11\n      0x04\n      dup1\n      calldatasize\n      sub\n      0x40\n      dup2\n      lt\n      iszero\n      tag_19\n      jumpi\n      0x00\n      dup1\n      revert\n    tag_19:\n      pop\n      sub(shl(0xa0, 0x01), 0x01)\n      dup2\n      calldataload\n      and\n      swap1\n      0x20\n      add\n      calldataload\n      tag_20\n      jump\t// in\n        /* \"contracts/mocks/oracle/LendingRateOracle.sol\":370:493  function getMarketBorrowRate(address _asset) external view override returns (uint256) {... */\n    tag_7:\n      tag_21\n      0x04\n      dup1\n      calldatasize\n      sub\n      0x20\n      dup2\n      lt\n      iszero\n      tag_22\n      jumpi\n      0x00\n      dup1\n      revert\n    tag_22:\n      pop\n      calldataload\n      sub(shl(0xa0, 0x01), 0x01)\n      and\n      tag_23\n      jump\t// in\n    tag_21:\n      0x40\n      dup1\n      mload\n      swap2\n      dup3\n      mstore\n      mload\n      swap1\n      dup2\n      swap1\n      sub\n      0x20\n      add\n      swap1\n      return\n        /* \"contracts/dependencies/openzeppelin/contracts/Ownable.sol\":1884:2110  function transferOwnership(address newOwner) public virtual onlyOwner {... */\n    tag_8:\n      tag_11\n      0x04\n      dup1\n      calldatasize\n      sub\n      0x20\n      dup2\n      lt\n      iszero\n      tag_25\n      jumpi\n      0x00\n      dup1\n      revert\n    tag_25:\n      pop\n      calldataload\n      sub(shl(0xa0, 0x01), 0x01)\n      and\n      tag_26\n      jump\t// in\n        /* \"contracts/mocks/oracle/LendingRateOracle.sol\":627:747  function getMarketLiquidityRate(address _asset) external view returns (uint256) {... */\n    tag_9:\n      tag_21\n      0x04\n      dup1\n      calldatasize\n      sub\n      0x20\n      dup2\n      lt\n      iszero\n      tag_28\n      jumpi\n      0x00\n      dup1\n      revert\n    tag_28:\n      pop\n      calldataload\n      sub(shl(0xa0, 0x01), 0x01)\n      and\n      tag_29\n      jump\t// in\n        /* \"contracts/dependencies/openzeppelin/contracts/Ownable.sol\":1610:1745  function renounceOwnership() public virtual onlyOwner {... */\n    tag_12:\n        /* \"contracts/dependencies/openzeppelin/contracts/Ownable.sol\":1223:1235  _msgSender() */\n      tag_31\n        /* \"contracts/dependencies/openzeppelin/contracts/Ownable.sol\":1223:1233  _msgSender */\n      tag_32\n        /* \"contracts/dependencies/openzeppelin/contracts/Ownable.sol\":1223:1235  _msgSender() */\n      jump\t// in\n    tag_31:\n        /* \"contracts/dependencies/openzeppelin/contracts/Ownable.sol\":1213:1219  _owner */\n      sload(0x00)\n      sub(shl(0xa0, 0x01), 0x01)\n      swap1\n      dup2\n      and\n        /* \"contracts/dependencies/openzeppelin/contracts/Ownable.sol\":1213:1235  _owner == _msgSender() */\n      swap2\n      and\n      eq\n        /* \"contracts/dependencies/openzeppelin/contracts/Ownable.sol\":1205:1272  require(_owner == _msgSender(), 'Ownable: caller is not the owner') */\n      tag_33\n      jumpi\n      0x40\n      dup1\n      mload\n      shl(0xe5, 0x461bcd)\n      dup2\n      mstore\n      0x20\n      0x04\n      dup3\n      add\n      dup2\n      swap1\n      mstore\n      0x24\n      dup3\n      add\n      mstore\n      0x00\n      dup1\n      mload\n      0x20\n      data_9924ebdf1add33d25d4ef888e16131f0a5687b0580a36c21b5c301a6c462effe\n      dup4\n      codecopy\n      dup2\n      mload\n      swap2\n      mstore\n      0x44\n      dup3\n      add\n      mstore\n      swap1\n      mload\n      swap1\n      dup2\n      swap1\n      sub\n      0x64\n      add\n      swap1\n      revert\n    tag_33:\n        /* \"contracts/dependencies/openzeppelin/contracts/Ownable.sol\":1712:1713  0 */\n      0x00\n        /* \"contracts/dependencies/openzeppelin/contracts/Ownable.sol\":1696:1702  _owner */\n      dup1\n      sload\n        /* \"contracts/dependencies/openzeppelin/contracts/Ownable.sol\":1675:1715  OwnershipTransferred(_owner, address(0)) */\n      mload(0x40)\n      sub(shl(0xa0, 0x01), 0x01)\n        /* \"contracts/dependencies/openzeppelin/contracts/Ownable.sol\":1696:1702  _owner */\n      swap1\n      swap2\n      and\n      swap1\n        /* \"contracts/dependencies/openzeppelin/contracts/Ownable.sol\":1675:1715  OwnershipTransferred(_owner, address(0)) */\n      0x8be0079c531659141344cd1fd0a4f28419497f9722a3daafe3b4186f6b6457e0\n      swap1\n        /* \"contracts/dependencies/openzeppelin/contracts/Ownable.sol\":1712:1713  0 */\n      dup4\n      swap1\n        /* \"contracts/dependencies/openzeppelin/contracts/Ownable.sol\":1675:1715  OwnershipTransferred(_owner, address(0)) */\n      log3\n        /* \"contracts/dependencies/openzeppelin/contracts/Ownable.sol\":1738:1739  0 */\n      0x00\n        /* \"contracts/dependencies/openzeppelin/contracts/Ownable.sol\":1721:1740  _owner = address(0) */\n      dup1\n      sload\n      not(sub(shl(0xa0, 0x01), 0x01))\n      and\n      swap1\n      sstore\n        /* \"contracts/dependencies/openzeppelin/contracts/Ownable.sol\":1610:1745  function renounceOwnership() public virtual onlyOwner {... */\n      jump\t// out\n        /* \"contracts/mocks/oracle/LendingRateOracle.sol\":497:623  function setMarketBorrowRate(address _asset, uint256 _rate) external override onlyOwner {... */\n    tag_15:\n        /* \"contracts/dependencies/openzeppelin/contracts/Ownable.sol\":1223:1235  _msgSender() */\n      tag_36\n        /* \"contracts/dependencies/openzeppelin/contracts/Ownable.sol\":1223:1233  _msgSender */\n      tag_32\n        /* \"contracts/dependencies/openzeppelin/contracts/Ownable.sol\":1223:1235  _msgSender() */\n      jump\t// in\n    tag_36:\n        /* \"contracts/dependencies/openzeppelin/contracts/Ownable.sol\":1213:1219  _owner */\n      sload(0x00)\n      sub(shl(0xa0, 0x01), 0x01)\n      swap1\n      dup2\n      and\n        /* \"contracts/dependencies/openzeppelin/contracts/Ownable.sol\":1213:1235  _owner == _msgSender() */\n      swap2\n      and\n      eq\n        /* \"contracts/dependencies/openzeppelin/contracts/Ownable.sol\":1205:1272  require(_owner == _msgSender(), 'Ownable: caller is not the owner') */\n      tag_37\n      jumpi\n      0x40\n      dup1\n      mload\n      shl(0xe5, 0x461bcd)\n      dup2\n      mstore\n      0x20\n      0x04\n      dup3\n      add\n      dup2\n      swap1\n      mstore\n      0x24\n      dup3\n      add\n      mstore\n      0x00\n      dup1\n      mload\n      0x20\n      data_9924ebdf1add33d25d4ef888e16131f0a5687b0580a36c21b5c301a6c462effe\n      dup4\n      codecopy\n      dup2\n      mload\n      swap2\n      mstore\n      0x44\n      dup3\n      add\n      mstore\n      swap1\n      mload\n      swap1\n      dup2\n      swap1\n      sub\n      0x64\n      add\n      swap1\n      revert\n    tag_37:\n      sub(shl(0xa0, 0x01), 0x01)\n        /* \"contracts/mocks/oracle/LendingRateOracle.sol\":591:610  borrowRates[_asset] */\n      swap1\n      swap2\n      and\n      0x00\n      swap1\n      dup2\n      mstore\n        /* \"contracts/mocks/oracle/LendingRateOracle.sol\":591:602  borrowRates */\n      0x01\n        /* \"contracts/mocks/oracle/LendingRateOracle.sol\":591:610  borrowRates[_asset] */\n      0x20\n      mstore\n      0x40\n      swap1\n      keccak256\n        /* \"contracts/mocks/oracle/LendingRateOracle.sol\":591:618  borrowRates[_asset] = _rate */\n      sstore\n        /* \"contracts/mocks/oracle/LendingRateOracle.sol\":497:623  function setMarketBorrowRate(address _asset, uint256 _rate) external override onlyOwner {... */\n      jump\t// out\n        /* \"contracts/dependencies/openzeppelin/contracts/Ownable.sol\":1027:1098  function owner() public view returns (address) {... */\n    tag_17:\n        /* \"contracts/dependencies/openzeppelin/contracts/Ownable.sol\":1065:1072  address */\n      0x00\n        /* \"contracts/dependencies/openzeppelin/contracts/Ownable.sol\":1087:1093  _owner */\n      sload\n      sub(shl(0xa0, 0x01), 0x01)\n      and\n        /* \"contracts/dependencies/openzeppelin/contracts/Ownable.sol\":1027:1098  function owner() public view returns (address) {... */\n      swap1\n      jump\t// out\n        /* \"contracts/mocks/oracle/LendingRateOracle.sol\":751:874  function setMarketLiquidityRate(address _asset, uint256 _rate) external onlyOwner {... */\n    tag_20:\n        /* \"contracts/dependencies/openzeppelin/contracts/Ownable.sol\":1223:1235  _msgSender() */\n      tag_41\n        /* \"contracts/dependencies/openzeppelin/contracts/Ownable.sol\":1223:1233  _msgSender */\n      tag_32\n        /* \"contracts/dependencies/openzeppelin/contracts/Ownable.sol\":1223:1235  _msgSender() */\n      jump\t// in\n    tag_41:\n        /* \"contracts/dependencies/openzeppelin/contracts/Ownable.sol\":1213:1219  _owner */\n      sload(0x00)\n      sub(shl(0xa0, 0x01), 0x01)\n      swap1\n      dup2\n      and\n        /* \"contracts/dependencies/openzeppelin/contracts/Ownable.sol\":1213:1235  _owner == _msgSender() */\n      swap2\n      and\n      eq\n        /* \"contracts/dependencies/openzeppelin/contracts/Ownable.sol\":1205:1272  require(_owner == _msgSender(), 'Ownable: caller is not the owner') */\n      tag_42\n      jumpi\n      0x40\n      dup1\n      mload\n      shl(0xe5, 0x461bcd)\n      dup2\n      mstore\n      0x20\n      0x04\n      dup3\n      add\n      dup2\n      swap1\n      mstore\n      0x24\n      dup3\n      add\n      mstore\n      0x00\n      dup1\n      mload\n      0x20\n      data_9924ebdf1add33d25d4ef888e16131f0a5687b0580a36c21b5c301a6c462effe\n      dup4\n      codecopy\n      dup2\n      mload\n      swap2\n      mstore\n      0x44\n      dup3\n      add\n      mstore\n      swap1\n      mload\n      swap1\n      dup2\n      swap1\n      sub\n      0x64\n      add\n      swap1\n      revert\n    tag_42:\n      sub(shl(0xa0, 0x01), 0x01)\n        /* \"contracts/mocks/oracle/LendingRateOracle.sol\":839:861  liquidityRates[_asset] */\n      swap1\n      swap2\n      and\n      0x00\n      swap1\n      dup2\n      mstore\n        /* \"contracts/mocks/oracle/LendingRateOracle.sol\":839:853  liquidityRates */\n      0x02\n        /* \"contracts/mocks/oracle/LendingRateOracle.sol\":839:861  liquidityRates[_asset] */\n      0x20\n      mstore\n      0x40\n      swap1\n      keccak256\n        /* \"contracts/mocks/oracle/LendingRateOracle.sol\":839:869  liquidityRates[_asset] = _rate */\n      sstore\n        /* \"contracts/mocks/oracle/LendingRateOracle.sol\":751:874  function setMarketLiquidityRate(address _asset, uint256 _rate) external onlyOwner {... */\n      jump\t// out\n        /* \"contracts/mocks/oracle/LendingRateOracle.sol\":370:493  function getMarketBorrowRate(address _asset) external view override returns (uint256) {... */\n    tag_23:\n      sub(shl(0xa0, 0x01), 0x01)\n        /* \"contracts/mocks/oracle/LendingRateOracle.sol\":469:488  borrowRates[_asset] */\n      and\n        /* \"contracts/mocks/oracle/LendingRateOracle.sol\":447:454  uint256 */\n      0x00\n        /* \"contracts/mocks/oracle/LendingRateOracle.sol\":469:488  borrowRates[_asset] */\n      swap1\n      dup2\n      mstore\n        /* \"contracts/mocks/oracle/LendingRateOracle.sol\":469:480  borrowRates */\n      0x01\n        /* \"contracts/mocks/oracle/LendingRateOracle.sol\":469:488  borrowRates[_asset] */\n      0x20\n      mstore\n      0x40\n      swap1\n      keccak256\n      sload\n      swap1\n        /* \"contracts/mocks/oracle/LendingRateOracle.sol\":370:493  function getMarketBorrowRate(address _asset) external view override returns (uint256) {... */\n      jump\t// out\n        /* \"contracts/dependencies/openzeppelin/contracts/Ownable.sol\":1884:2110  function transferOwnership(address newOwner) public virtual onlyOwner {... */\n    tag_26:\n        /* \"contracts/dependencies/openzeppelin/contracts/Ownable.sol\":1223:1235  _msgSender() */\n      tag_46\n        /* \"contracts/dependencies/openzeppelin/contracts/Ownable.sol\":1223:1233  _msgSender */\n      tag_32\n        /* \"contracts/dependencies/openzeppelin/contracts/Ownable.sol\":1223:1235  _msgSender() */\n      jump\t// in\n    tag_46:\n        /* \"contracts/dependencies/openzeppelin/contracts/Ownable.sol\":1213:1219  _owner */\n      sload(0x00)\n      sub(shl(0xa0, 0x01), 0x01)\n      swap1\n      dup2\n      and\n        /* \"contracts/dependencies/openzeppelin/contracts/Ownable.sol\":1213:1235  _owner == _msgSender() */\n      swap2\n      and\n      eq\n        /* \"contracts/dependencies/openzeppelin/contracts/Ownable.sol\":1205:1272  require(_owner == _msgSender(), 'Ownable: caller is not the owner') */\n      tag_47\n      jumpi\n      0x40\n      dup1\n      mload\n      shl(0xe5, 0x461bcd)\n      dup2\n      mstore\n      0x20\n      0x04\n      dup3\n      add\n      dup2\n      swap1\n      mstore\n      0x24\n      dup3\n      add\n      mstore\n      0x00\n      dup1\n      mload\n      0x20\n      data_9924ebdf1add33d25d4ef888e16131f0a5687b0580a36c21b5c301a6c462effe\n      dup4\n      codecopy\n      dup2\n      mload\n      swap2\n      mstore\n      0x44\n      dup3\n      add\n      mstore\n      swap1\n      mload\n      swap1\n      dup2\n      swap1\n      sub\n      0x64\n      add\n      swap1\n      revert\n    tag_47:\n      sub(shl(0xa0, 0x01), 0x01)\n        /* \"contracts/dependencies/openzeppelin/contracts/Ownable.sol\":1968:1990  newOwner != address(0) */\n      dup2\n      and\n        /* \"contracts/dependencies/openzeppelin/contracts/Ownable.sol\":1960:2033  require(newOwner != address(0), 'Ownable: new owner is the zero address') */\n      tag_49\n      jumpi\n      mload(0x40)\n      shl(0xe5, 0x461bcd)\n      dup2\n      mstore\n      0x04\n      add\n      dup1\n      dup1\n      0x20\n      add\n      dup3\n      dup2\n      sub\n      dup3\n      mstore\n      0x26\n      dup2\n      mstore\n      0x20\n      add\n      dup1\n      data_245f15ff17f551913a7a18385165551503906a406f905ac1c2437281a7cd0cfe\n      0x26\n      swap2\n      codecopy\n      0x40\n      add\n      swap2\n      pop\n      pop\n      mload(0x40)\n      dup1\n      swap2\n      sub\n      swap1\n      revert\n    tag_49:\n        /* \"contracts/dependencies/openzeppelin/contracts/Ownable.sol\":2065:2071  _owner */\n      0x00\n      dup1\n      sload\n        /* \"contracts/dependencies/openzeppelin/contracts/Ownable.sol\":2044:2082  OwnershipTransferred(_owner, newOwner) */\n      mload(0x40)\n      sub(shl(0xa0, 0x01), 0x01)\n      dup1\n      dup6\n      and\n      swap4\n        /* \"contracts/dependencies/openzeppelin/contracts/Ownable.sol\":2065:2071  _owner */\n      swap3\n      and\n      swap2\n        /* \"contracts/dependencies/openzeppelin/contracts/Ownable.sol\":2044:2082  OwnershipTransferred(_owner, newOwner) */\n      0x8be0079c531659141344cd1fd0a4f28419497f9722a3daafe3b4186f6b6457e0\n      swap2\n      log3\n        /* \"contracts/dependencies/openzeppelin/contracts/Ownable.sol\":2088:2094  _owner */\n      0x00\n        /* \"contracts/dependencies/openzeppelin/contracts/Ownable.sol\":2088:2105  _owner = newOwner */\n      dup1\n      sload\n      not(sub(shl(0xa0, 0x01), 0x01))\n      and\n      sub(shl(0xa0, 0x01), 0x01)\n      swap3\n      swap1\n      swap3\n      and\n      swap2\n      swap1\n      swap2\n      or\n      swap1\n      sstore\n        /* \"contracts/dependencies/openzeppelin/contracts/Ownable.sol\":1884:2110  function transferOwnership(address newOwner) public virtual onlyOwner {... */\n      jump\t// out\n        /* \"contracts/mocks/oracle/LendingRateOracle.sol\":627:747  function getMarketLiquidityRate(address _asset) external view returns (uint256) {... */\n    tag_29:\n      sub(shl(0xa0, 0x01), 0x01)\n        /* \"contracts/mocks/oracle/LendingRateOracle.sol\":720:742  liquidityRates[_asset] */\n      and\n        /* \"contracts/mocks/oracle/LendingRateOracle.sol\":698:705  uint256 */\n      0x00\n        /* \"contracts/mocks/oracle/LendingRateOracle.sol\":720:742  liquidityRates[_asset] */\n      swap1\n      dup2\n      mstore\n        /* \"contracts/mocks/oracle/LendingRateOracle.sol\":720:734  liquidityRates */\n      0x02\n        /* \"contracts/mocks/oracle/LendingRateOracle.sol\":720:742  liquidityRates[_asset] */\n      0x20\n      mstore\n      0x40\n      swap1\n      keccak256\n      sload\n      swap1\n        /* \"contracts/mocks/oracle/LendingRateOracle.sol\":627:747  function getMarketLiquidityRate(address _asset) external view returns (uint256) {... */\n      jump\t// out\n        /* \"contracts/dependencies/openzeppelin/contracts/Context.sol\":587:685  function _msgSender() internal view virtual returns (address payable) {... */\n    tag_32:\n        /* \"contracts/dependencies/openzeppelin/contracts/Context.sol\":670:680  msg.sender */\n      caller\n        /* \"contracts/dependencies/openzeppelin/contracts/Context.sol\":587:685  function _msgSender() internal view virtual returns (address payable) {... */\n      swap1\n      jump\t// out\n    stop\n    data_245f15ff17f551913a7a18385165551503906a406f905ac1c2437281a7cd0cfe 4f776e61626c653a206e6577206f776e657220697320746865207a65726f2061646472657373\n    data_9924ebdf1add33d25d4ef888e16131f0a5687b0580a36c21b5c301a6c462effe 4f776e61626c653a2063616c6c6572206973206e6f7420746865206f776e6572\n\n    auxdata: 0xa26469706673582212201d7f473788a285376533f5b96c895378fdff2a709aa8154545daaf976c8f1f9f64736f6c634300060c0033\n}\n",
				"bytecode": {
					"linkReferences": {},
					"object": "608060405234801561001057600080fd5b50600061001b61006a565b600080546001600160a01b0319166001600160a01b0383169081178255604051929350917f8be0079c531659141344cd1fd0a4f28419497f9722a3daafe3b4186f6b6457e0908290a35061006e565b3390565b6104d38061007d6000396000f3fe608060405234801561001057600080fd5b506004361061007d5760003560e01c80639f86a0ee1161005b5780639f86a0ee146100dc578063bb85c0bb14610108578063f2fde38b14610140578063fbe5ba1e146101665761007d565b8063715018a61461008257806372eb293d1461008c5780638da5cb5b146100b8575b600080fd5b61008a61018c565b005b61008a600480360360408110156100a257600080fd5b506001600160a01b03813516906020013561022e565b6100c06102a2565b604080516001600160a01b039092168252519081900360200190f35b61008a600480360360408110156100f257600080fd5b506001600160a01b0381351690602001356102b1565b61012e6004803603602081101561011e57600080fd5b50356001600160a01b0316610325565b60408051918252519081900360200190f35b61008a6004803603602081101561015657600080fd5b50356001600160a01b0316610340565b61012e6004803603602081101561017c57600080fd5b50356001600160a01b0316610438565b610194610453565b6000546001600160a01b039081169116146101e4576040805162461bcd60e51b8152602060048201819052602482015260008051602061047e833981519152604482015290519081900360640190fd5b600080546040516001600160a01b03909116907f8be0079c531659141344cd1fd0a4f28419497f9722a3daafe3b4186f6b6457e0908390a3600080546001600160a01b0319169055565b610236610453565b6000546001600160a01b03908116911614610286576040805162461bcd60e51b8152602060048201819052602482015260008051602061047e833981519152604482015290519081900360640190fd5b6001600160a01b03909116600090815260016020526040902055565b6000546001600160a01b031690565b6102b9610453565b6000546001600160a01b03908116911614610309576040805162461bcd60e51b8152602060048201819052602482015260008051602061047e833981519152604482015290519081900360640190fd5b6001600160a01b03909116600090815260026020526040902055565b6001600160a01b031660009081526001602052604090205490565b610348610453565b6000546001600160a01b03908116911614610398576040805162461bcd60e51b8152602060048201819052602482015260008051602061047e833981519152604482015290519081900360640190fd5b6001600160a01b0381166103dd5760405162461bcd60e51b81526004018080602001828103825260268152602001806104586026913960400191505060405180910390fd5b600080546040516001600160a01b03808516939216917f8be0079c531659141344cd1fd0a4f28419497f9722a3daafe3b4186f6b6457e091a3600080546001600160a01b0319166001600160a01b0392909216919091179055565b6001600160a01b031660009081526002602052604090205490565b339056fe4f776e61626c653a206e6577206f776e657220697320746865207a65726f20616464726573734f776e61626c653a2063616c6c6572206973206e6f7420746865206f776e6572a26469706673582212201d7f473788a285376533f5b96c895378fdff2a709aa8154545daaf976c8f1f9f64736f6c634300060c0033",
					"opcodes": "PUSH1 0x80 PUSH1 0x40 MSTORE CALLVALUE DUP1 ISZERO PUSH2 0x10 JUMPI PUSH1 0x0 DUP1 REVERT JUMPDEST POP PUSH1 0x0 PUSH2 0x1B PUSH2 0x6A JUMP JUMPDEST PUSH1 0x0 DUP1 SLOAD PUSH1 0x1 PUSH1 0x1 PUSH1 0xA0 SHL SUB NOT AND PUSH1 0x1 PUSH1 0x1 PUSH1 0xA0 SHL SUB DUP4 AND SWAP1 DUP2 OR DUP3 SSTORE PUSH1 0x40 MLOAD SWAP3 SWAP4 POP SWAP2 PUSH32 0x8BE0079C531659141344CD1FD0A4F28419497F9722A3DAAFE3B4186F6B6457E0 SWAP1 DUP3 SWAP1 LOG3 POP PUSH2 0x6E JUMP JUMPDEST CALLER SWAP1 JUMP JUMPDEST PUSH2 0x4D3 DUP1 PUSH2 0x7D PUSH1 0x0 CODECOPY PUSH1 0x0 RETURN INVALID PUSH1 0x80 PUSH1 0x40 MSTORE CALLVALUE DUP1 ISZERO PUSH2 0x10 JUMPI PUSH1 0x0 DUP1 REVERT JUMPDEST POP PUSH1 0x4 CALLDATASIZE LT PUSH2 0x7D JUMPI PUSH1 0x0 CALLDATALOAD PUSH1 0xE0 SHR DUP1 PUSH4 0x9F86A0EE GT PUSH2 0x5B JUMPI DUP1 PUSH4 0x9F86A0EE EQ PUSH2 0xDC JUMPI DUP1 PUSH4 0xBB85C0BB EQ PUSH2 0x108 JUMPI DUP1 PUSH4 0xF2FDE38B EQ PUSH2 0x140 JUMPI DUP1 PUSH4 0xFBE5BA1E EQ PUSH2 0x166 JUMPI PUSH2 0x7D JUMP JUMPDEST DUP1 PUSH4 0x715018A6 EQ PUSH2 0x82 JUMPI DUP1 PUSH4 0x72EB293D EQ PUSH2 0x8C JUMPI DUP1 PUSH4 0x8DA5CB5B EQ PUSH2 0xB8 JUMPI JUMPDEST PUSH1 0x0 DUP1 REVERT JUMPDEST PUSH2 0x8A PUSH2 0x18C JUMP JUMPDEST STOP JUMPDEST PUSH2 0x8A PUSH1 0x4 DUP1 CALLDATASIZE SUB PUSH1 0x40 DUP2 LT ISZERO PUSH2 0xA2 JUMPI PUSH1 0x0 DUP1 REVERT JUMPDEST POP PUSH1 0x1 PUSH1 0x1 PUSH1 0xA0 SHL SUB DUP2 CALLDATALOAD AND SWAP1 PUSH1 0x20 ADD CALLDATALOAD PUSH2 0x22E JUMP JUMPDEST PUSH2 0xC0 PUSH2 0x2A2 JUMP JUMPDEST PUSH1 0x40 DUP1 MLOAD PUSH1 0x1 PUSH1 0x1 PUSH1 0xA0 SHL SUB SWAP1 SWAP3 AND DUP3 MSTORE MLOAD SWAP1 DUP2 SWAP1 SUB PUSH1 0x20 ADD SWAP1 RETURN JUMPDEST PUSH2 0x8A PUSH1 0x4 DUP1 CALLDATASIZE SUB PUSH1 0x40 DUP2 LT ISZERO PUSH2 0xF2 JUMPI PUSH1 0x0 DUP1 REVERT JUMPDEST POP PUSH1 0x1 PUSH1 0x1 PUSH1 0xA0 SHL SUB DUP2 CALLDATALOAD AND SWAP1 PUSH1 0x20 ADD CALLDATALOAD PUSH2 0x2B1 JUMP JUMPDEST PUSH2 0x12E PUSH1 0x4 DUP1 CALLDATASIZE SUB PUSH1 0x20 DUP2 LT ISZERO PUSH2 0x11E JUMPI PUSH1 0x0 DUP1 REVERT JUMPDEST POP CALLDATALOAD PUSH1 0x1 PUSH1 0x1 PUSH1 0xA0 SHL SUB AND PUSH2 0x325 JUMP JUMPDEST PUSH1 0x40 DUP1 MLOAD SWAP2 DUP3 MSTORE MLOAD SWAP1 DUP2 SWAP1 SUB PUSH1 0x20 ADD SWAP1 RETURN JUMPDEST PUSH2 0x8A PUSH1 0x4 DUP1 CALLDATASIZE SUB PUSH1 0x20 DUP2 LT ISZERO PUSH2 0x156 JUMPI PUSH1 0x0 DUP1 REVERT JUMPDEST POP CALLDATALOAD PUSH1 0x1 PUSH1 0x1 PUSH1 0xA0 SHL SUB AND PUSH2 0x340 JUMP JUMPDEST PUSH2 0x12E PUSH1 0x4 DUP1 CALLDATASIZE SUB PUSH1 0x20 DUP2 LT ISZERO PUSH2 0x17C JUMPI PUSH1 0x0 DUP1 REVERT JUMPDEST POP CALLDATALOAD PUSH1 0x1 PUSH1 0x1 PUSH1 0xA0 SHL SUB AND PUSH2 0x438 JUMP JUMPDEST PUSH2 0x194 PUSH2 0x453 JUMP JUMPDEST PUSH1 0x0 SLOAD PUSH1 0x1 PUSH1 0x1 PUSH1 0xA0 SHL SUB SWAP1 DUP2 AND SWAP2 AND EQ PUSH2 0x1E4 JUMPI PUSH1 0x40 DUP1 MLOAD PUSH3 0x461BCD PUSH1 0xE5 SHL DUP2 MSTORE PUSH1 0x20 PUSH1 0x4 DUP3 ADD DUP2 SWAP1 MSTORE PUSH1 0x24 DUP3 ADD MSTORE PUSH1 0x0 DUP1 MLOAD PUSH1 0x20 PUSH2 0x47E DUP4 CODECOPY DUP2 MLOAD SWAP2 MSTORE PUSH1 0x44 DUP3 ADD MSTORE SWAP1 MLOAD SWAP1 DUP2 SWAP1 SUB PUSH1 0x64 ADD SWAP1 REVERT JUMPDEST PUSH1 0x0 DUP1 SLOAD PUSH1 0x40 MLOAD PUSH1 0x1 PUSH1 0x1 PUSH1 0xA0 SHL SUB SWAP1 SWAP2 AND SWAP1 PUSH32 0x8BE0079C531659141344CD1FD0A4F28419497F9722A3DAAFE3B4186F6B6457E0 SWAP1 DUP4 SWAP1 LOG3 PUSH1 0x0 DUP1 SLOAD PUSH1 0x1 PUSH1 0x1 PUSH1 0xA0 SHL SUB NOT AND SWAP1 SSTORE JUMP JUMPDEST PUSH2 0x236 PUSH2 0x453 JUMP JUMPDEST PUSH1 0x0 SLOAD PUSH1 0x1 PUSH1 0x1 PUSH1 0xA0 SHL SUB SWAP1 DUP2 AND SWAP2 AND EQ PUSH2 0x286 JUMPI PUSH1 0x40 DUP1 MLOAD PUSH3 0x461BCD PUSH1 0xE5 SHL DUP2 MSTORE PUSH1 0x20 PUSH1 0x4 DUP3 ADD DUP2 SWAP1 MSTORE PUSH1 0x24 DUP3 ADD MSTORE PUSH1 0x0 DUP1 MLOAD PUSH1 0x20 PUSH2 0x47E DUP4 CODECOPY DUP2 MLOAD SWAP2 MSTORE PUSH1 0x44 DUP3 ADD MSTORE SWAP1 MLOAD SWAP1 DUP2 SWAP1 SUB PUSH1 0x64 ADD SWAP1 REVERT JUMPDEST PUSH1 0x1 PUSH1 0x1 PUSH1 0xA0 SHL SUB SWAP1 SWAP2 AND PUSH1 0x0 SWAP1 DUP2 MSTORE PUSH1 0x1 PUSH1 0x20 MSTORE PUSH1 0x40 SWAP1 KECCAK256 SSTORE JUMP JUMPDEST PUSH1 0x0 SLOAD PUSH1 0x1 PUSH1 0x1 PUSH1 0xA0 SHL SUB AND SWAP1 JUMP JUMPDEST PUSH2 0x2B9 PUSH2 0x453 JUMP JUMPDEST PUSH1 0x0 SLOAD PUSH1 0x1 PUSH1 0x1 PUSH1 0xA0 SHL SUB SWAP1 DUP2 AND SWAP2 AND EQ PUSH2 0x309 JUMPI PUSH1 0x40 DUP1 MLOAD PUSH3 0x461BCD PUSH1 0xE5 SHL DUP2 MSTORE PUSH1 0x20 PUSH1 0x4 DUP3 ADD DUP2 SWAP1 MSTORE PUSH1 0x24 DUP3 ADD MSTORE PUSH1 0x0 DUP1 MLOAD PUSH1 0x20 PUSH2 0x47E DUP4 CODECOPY DUP2 MLOAD SWAP2 MSTORE PUSH1 0x44 DUP3 ADD MSTORE SWAP1 MLOAD SWAP1 DUP2 SWAP1 SUB PUSH1 0x64 ADD SWAP1 REVERT JUMPDEST PUSH1 0x1 PUSH1 0x1 PUSH1 0xA0 SHL SUB SWAP1 SWAP2 AND PUSH1 0x0 SWAP1 DUP2 MSTORE PUSH1 0x2 PUSH1 0x20 MSTORE PUSH1 0x40 SWAP1 KECCAK256 SSTORE JUMP JUMPDEST PUSH1 0x1 PUSH1 0x1 PUSH1 0xA0 SHL SUB AND PUSH1 0x0 SWAP1 DUP2 MSTORE PUSH1 0x1 PUSH1 0x20 MSTORE PUSH1 0x40 SWAP1 KECCAK256 SLOAD SWAP1 JUMP JUMPDEST PUSH2 0x348 PUSH2 0x453 JUMP JUMPDEST PUSH1 0x0 SLOAD PUSH1 0x1 PUSH1 0x1 PUSH1 0xA0 SHL SUB SWAP1 DUP2 AND SWAP2 AND EQ PUSH2 0x398 JUMPI PUSH1 0x40 DUP1 MLOAD PUSH3 0x461BCD PUSH1 0xE5 SHL DUP2 MSTORE PUSH1 0x20 PUSH1 0x4 DUP3 ADD DUP2 SWAP1 MSTORE PUSH1 0x24 DUP3 ADD MSTORE PUSH1 0x0 DUP1 MLOAD PUSH1 0x20 PUSH2 0x47E DUP4 CODECOPY DUP2 MLOAD SWAP2 MSTORE PUSH1 0x44 DUP3 ADD MSTORE SWAP1 MLOAD SWAP1 DUP2 SWAP1 SUB PUSH1 0x64 ADD SWAP1 REVERT JUMPDEST PUSH1 0x1 PUSH1 0x1 PUSH1 0xA0 SHL SUB DUP2 AND PUSH2 0x3DD JUMPI PUSH1 0x40 MLOAD PUSH3 0x461BCD PUSH1 0xE5 SHL DUP2 MSTORE PUSH1 0x4 ADD DUP1 DUP1 PUSH1 0x20 ADD DUP3 DUP2 SUB DUP3 MSTORE PUSH1 0x26 DUP2 MSTORE PUSH1 0x20 ADD DUP1 PUSH2 0x458 PUSH1 0x26 SWAP2 CODECOPY PUSH1 0x40 ADD SWAP2 POP POP PUSH1 0x40 MLOAD DUP1 SWAP2 SUB SWAP1 REVERT JUMPDEST PUSH1 0x0 DUP1 SLOAD PUSH1 0x40 MLOAD PUSH1 0x1 PUSH1 0x1 PUSH1 0xA0 SHL SUB DUP1 DUP6 AND SWAP4 SWAP3 AND SWAP2 PUSH32 0x8BE0079C531659141344CD1FD0A4F28419497F9722A3DAAFE3B4186F6B6457E0 SWAP2 LOG3 PUSH1 0x0 DUP1 SLOAD PUSH1 0x1 PUSH1 0x1 PUSH1 0xA0 SHL SUB NOT AND PUSH1 0x1 PUSH1 0x1 PUSH1 0xA0 SHL SUB SWAP3 SWAP1 SWAP3 AND SWAP2 SWAP1 SWAP2 OR SWAP1 SSTORE JUMP JUMPDEST PUSH1 0x1 PUSH1 0x1 PUSH1 0xA0 SHL SUB AND PUSH1 0x0 SWAP1 DUP2 MSTORE PUSH1 0x2 PUSH1 0x20 MSTORE PUSH1 0x40 SWAP1 KECCAK256 SLOAD SWAP1 JUMP JUMPDEST CALLER SWAP1 JUMP INVALID 0x4F PUSH24 0x6E61626C653A206E6577206F776E65722069732074686520 PUSH27 0x65726F20616464726573734F776E61626C653A2063616C6C657220 PUSH10 0x73206E6F742074686520 PUSH16 0x776E6572A26469706673582212201D7F SELFBALANCE CALLDATACOPY DUP9 LOG2 DUP6 CALLDATACOPY PUSH6 0x33F5B96C8953 PUSH25 0xFDFF2A709AA8154545DAAF976C8F1F9F64736F6C634300060C STOP CALLER "
				},
				"gasEstimates": {
					"creation": {
						"codeDepositCost": "247000",
						"executionCost": "22722",
						"totalCost": "269722"
					},
					"external": {
						"getMarketBorrowRate(address)": "1164",
						"getMarketLiquidityRate(address)": "1208",
						"owner()": "1082",
						"renounceOwnership()": "infinite",
						"setMarketBorrowRate(address,uint256)": "infinite",
						"setMarketLiquidityRate(address,uint256)": "infinite",
						"transferOwnership(address)": "infinite"
					}
				},
				"methodIdentifiers": {
					"getMarketBorrowRate(address)": "bb85c0bb",
					"getMarketLiquidityRate(address)": "fbe5ba1e",
					"owner()": "8da5cb5b",
					"renounceOwnership()": "715018a6",
					"setMarketBorrowRate(address,uint256)": "72eb293d",
					"setMarketLiquidityRate(address,uint256)": "9f86a0ee",
					"transferOwnership(address)": "f2fde38b"
				}
			},
			"storageLayout": {
				"storage": [
					{
						"astId": 30,
						"contract": "contracts/mocks/oracle/LendingRateOracle.sol:LendingRateOracle",
						"label": "_owner",
						"offset": 0,
						"slot": "0",
						"type": "t_address"
					},
					{
						"astId": 165,
						"contract": "contracts/mocks/oracle/LendingRateOracle.sol:LendingRateOracle",
						"label": "borrowRates",
						"offset": 0,
						"slot": "1",
						"type": "t_mapping(t_address,t_uint256)"
					},
					{
						"astId": 169,
						"contract": "contracts/mocks/oracle/LendingRateOracle.sol:LendingRateOracle",
						"label": "liquidityRates",
						"offset": 0,
						"slot": "2",
						"type": "t_mapping(t_address,t_uint256)"
					}
				],
				"types": {
					"t_address": {
						"encoding": "inplace",
						"label": "address",
						"numberOfBytes": "20"
					},
					"t_mapping(t_address,t_uint256)": {
						"encoding": "mapping",
						"key": "t_address",
						"label": "mapping(address => uint256)",
						"numberOfBytes": "32",
						"value": "t_uint256"
					},
					"t_uint256": {
						"encoding": "inplace",
						"label": "uint256",
						"numberOfBytes": "32"
					}
				}
			},
			"userdoc": {
				"kind": "user",
				"methods": {},
				"version": 1
			}
		}
	}
}