{
	"data": {
		"bytecode": {
			"linkReferences": {
				"contracts/protocol/libraries/logic/ReserveLogic.sol": {
					"ReserveLogic": [
						{
							"length": 20,
							"start": 4006
						}
					]
				},
				"contracts/protocol/libraries/logic/ValidationLogic.sol": {
					"ValidationLogic": [
						{
							"length": 20,
							"start": 1985
						},
						{
							"length": 20,
							"start": 2690
						},
						{
							"length": 20,
							"start": 3261
						},
						{
							"length": 20,
							"start": 4218
						},
						{
							"length": 20,
							"start": 7684
						},
						{
							"length": 20,
							"start": 8955
						},
						{
							"length": 20,
							"start": 12425
						}
					]
				}
			},
			"object": "60806040526000805534801561001457600080fd5b506155cd80620000256000396000f3fe608060405234801561001057600080fd5b50600436106101c35760003560e01c8063ab9c4b5d116100f9578063d15e005311610097578063e82fec2f11610071578063e82fec2f146103c2578063e8eda9df146103ca578063f8119d51146103dd578063fe65acfe146103e5576101c3565b8063d15e005314610387578063d1946dbc1461039a578063d5ed3933146103af576101c3565b8063bf92857c116100d3578063bf92857c14610329578063c44b11f71461034e578063c4d66de814610361578063cd11238214610374576101c3565b8063ab9c4b5d146102f0578063b8d2927614610303578063bedb86fb14610316576101c3565b80635a3b74b9116101665780637a708e92116101405780637a708e92146102af5780638afaff02146102c257806394ba89a2146102ca578063a415bcad146102dd576101c3565b80635a3b74b9146102745780635c975abb1461028757806369328dec1461029c576101c3565b806335ea6a75116101a257806335ea6a751461020e578063386497fd1461022e5780634417a58314610241578063573ade8114610261576101c3565b8062a718a9146101c8578063074b2e43146101dd5780631d2118f9146101fb575b600080fd5b6101db6101d636600461488a565b6103fa565b005b6101e56105d0565b6040516101f291906154c4565b60405180910390f35b6101db6102093660046147e2565b6105d5565b61022161021c3660046147aa565b61060e565b6040516101f291906152d9565b6101e561023c3660046147aa565b6106f0565b61025461024f3660046147aa565b610717565b6040516101f291906152cf565b6101e561026f366004614b29565b61074a565b6101db610282366004614a3f565b610a16565b61028f610bdb565b6040516101f29190615115565b6101e56102aa366004614a97565b610be4565b6101db6102bd36600461481a565b610f0e565b6101e5610ff0565b6101db6102d8366004614a6c565b610ff5565b6101db6102eb366004614b72565b611362565b6101db6102fe366004614947565b6113e2565b6101db610311366004614a6c565b611ab5565b6101db610324366004614bb1565b611ad9565b61033c6103373660046147aa565b611b54565b6040516101f296959493929190615516565b61025461035c3660046147aa565b611c50565b6101db61036f3660046147aa565b611c83565b6101db6103823660046147e2565b611d1b565b6101e56103953660046147aa565b611f91565b6103a2611fb2565b6040516101f291906150c8565b6101db6103bd3660046148e3565b612057565b6101e56122a0565b6101db6103d8366004614ad8565b6122a6565b6101e56124d3565b6103ed6124d8565b6040516101f29190614df8565b6104026124e7565b6034546040805163712d917160e01b815290516000926001600160a01b03169163712d9171916004808301926020929190829003018186803b15801561044757600080fd5b505afa15801561045b573d6000803e3d6000fd5b505050506040513d601f19601f8201168201806040525081019061047f91906147c6565b905060006060826001600160a01b031688888888886040516024016104a8959493929190614e80565b60408051601f198184030181529181526020820180516001600160e01b031662a718a960e01b179052516104dc9190614ddc565b600060405180830381855af49150503d8060008114610517576040519150601f19603f3d011682016040523d82523d6000602084013e61051c565b606091505b50915091508160405180604001604052806002815260200161323360f01b815250906105645760405162461bcd60e51b815260040161055b9190615120565b60405180910390fd5b50600060608280602001905181019061057d9190614c01565b9150915081600014816040516020016105969190614ddc565b604051602081830303815290604052906105c35760405162461bcd60e51b815260040161055b9190615120565b5050505050505050505050565b600981565b6105dd612525565b6001600160a01b03918216600090815260356020526040902060070180546001600160a01b03191691909216179055565b6106166144f8565b506001600160a01b0381811660009081526035602090815260409182902082516101a08101845281546101808201908152815260018201546001600160801b0380821694830194909452600160801b908190048416948201949094526002820154808416606083015284900483166080820152600382015492831660a08201529290910464ffffffffff1660c08301526004810154831660e0830152600581015483166101008301526006810154831661012083015260070154918216610140820152600160a01b90910460ff166101608201525b919050565b6001600160a01b0381166000908152603560205260408120610711906125e4565b92915050565b61071f614563565b506001600160a01b031660009081526036602090815260409182902082519182019092529054815290565b60006107546124e7565b6001600160a01b038516600090815260356020526040812090806107788584612661565b91509150600086600281111561078a57fe5b60405163fa0c214960e01b815290915073__$de8c0cf1a7d7c36c802af9a64fb9d86036$__9063fa0c2149906107ce9087908c9086908c908a908a90600401615480565b60006040518083038186803b1580156107e657600080fd5b505af41580156107fa573d6000803e3d6000fd5b50600092506001915061080a9050565b82600281111561081657fe5b146108215782610823565b835b9050808910156108305750875b61083985612776565b600182600281111561084757fe5b14156108b8576005850154604051632770a7eb60e21b81526001600160a01b0390911690639dc29fac90610881908a908590600401614e3d565b600060405180830381600087803b15801561089b57600080fd5b505af11580156108af573d6000803e3d6000fd5b50505050610936565b60068501546001860154604051637a94c56560e11b81526001600160a01b039092169163f5298aca91610903918b918691600160801b9091046001600160801b031690600401614e56565b600060405180830381600087803b15801561091d57600080fd5b505af1158015610931573d6000803e3d6000fd5b505050505b60048501546001600160a01b0316610952868c83856000612843565b610966826109608787612c35565b90612c5a565b61099e5760078601546001600160a01b038916600090815260366020526040812061099e929091600160a01b90910460ff1690612c9c565b6109b36001600160a01b038c16338385612d0c565b336001600160a01b0316886001600160a01b03168c6001600160a01b03167f4cdde6e09bb755c9a5589ebaec640bbfedff1362d4b255ebf8339782b9942faa85604051610a0091906154c4565b60405180910390a4509998505050505050505050565b610a1e6124e7565b6001600160a01b03808316600090815260356020818152604080842033855260368352938190206038546034548351631f94a27560e31b81529351969773__$de8c0cf1a7d7c36c802af9a64fb9d86036$__97635fa297e5978a978d978d9792969295603795939493169263fca513a892600480840193919291829003018186803b158015610aac57600080fd5b505afa158015610ac0573d6000803e3d6000fd5b505050506040513d601f19601f82011682018060405250810190610ae491906147c6565b6040518963ffffffff1660e01b8152600401610b079897969594939291906153fa565b60006040518083038186803b158015610b1f57600080fd5b505af4158015610b33573d6000803e3d6000fd5b505050506007810154336000908152603660205260409020610b5f91600160a01b900460ff1684612d6a565b8115610b9f5760405133906001600160a01b038516907e058a56ea94653cdf4f152d227ace22d4c00ad99e2a43f58cb7d9e3feb295f290600090a3610bd6565b60405133906001600160a01b038516907f44c58d81365b66dd4b1a7f36c25aa97b8c71c361ee4937adc1a00000227db5dd90600090a35b505050565b60395460ff1690565b6000610bee6124e7565b6001600160a01b0380851660009081526035602052604080822060048082015492516370a0823160e01b8152919492909216929183916370a0823191610c3691339101614df8565b60206040518083038186803b158015610c4e57600080fd5b505afa158015610c62573d6000803e3d6000fd5b505050506040513d601f19601f82011682018060405250810190610c869190614be9565b905085600019811415610c965750805b73__$de8c0cf1a7d7c36c802af9a64fb9d86036$__63d09db04a898385603560366000336001600160a01b03166001600160a01b031681526020019081526020016000206037603854603460009054906101000a90046001600160a01b03166001600160a01b031663fca513a86040518163ffffffff1660e01b815260040160206040518083038186803b158015610d2d57600080fd5b505afa158015610d41573d6000803e3d6000fd5b505050506040513d601f19601f82011682018060405250810190610d6591906147c6565b6040518963ffffffff1660e01b8152600401610d88989796959493929190614f65565b60006040518083038186803b158015610da057600080fd5b505af4158015610db4573d6000803e3d6000fd5b50505050610dc184612776565b610dcf848985600085612843565b81811415610e39576007840154336000908152603660205260408120610e02929091600160a01b90910460ff1690612d6a565b60405133906001600160a01b038a16907f44c58d81365b66dd4b1a7f36c25aa97b8c71c361ee4937adc1a00000227db5dd90600090a35b6001840154604051636b81068560e11b81526001600160a01b0385169163d7020d0a91610e7a9133918b9187916001600160801b0390911690600401614e0c565b600060405180830381600087803b158015610e9457600080fd5b505af1158015610ea8573d6000803e3d6000fd5b50505050856001600160a01b0316336001600160a01b0316896001600160a01b03167f3115d1449a7b732c986cba18244e897a450f61e1bb8d589cd2e69e6c8924f9f784604051610ef991906154c4565b60405180910390a493505050505b9392505050565b610f16612525565b610f1f85612de0565b6040518060400160405280600281526020016106e760f31b81525090610f585760405162461bcd60e51b815260040161055b9190615120565b506001600160a01b038516600090815260356020526040908190209051630acce25f60e21b815273__$22cd43a9dda9ce44e9b92ba393b88fb9ac$__91632b33897c91610fb0919088908890889088906004016153cc565b60006040518083038186803b158015610fc857600080fd5b505af4158015610fdc573d6000803e3d6000fd5b50505050610fe985612e19565b5050505050565b600181565b610ffd6124e7565b6001600160a01b038216600090815260356020526040812090806110213384612661565b91509150600084600281111561103357fe5b3360009081526036602052604090819020905163a8695b1d60e01b815291925073__$de8c0cf1a7d7c36c802af9a64fb9d86036$__9163a8695b1d916110849188919088908890889060040161543c565b60006040518083038186803b15801561109c57600080fd5b505af41580156110b0573d6000803e3d6000fd5b505050506110bd84612776565b60018160028111156110cb57fe5b14156111db576005840154604051632770a7eb60e21b81526001600160a01b0390911690639dc29fac906111059033908790600401614e3d565b600060405180830381600087803b15801561111f57600080fd5b505af1158015611133573d6000803e3d6000fd5b505050506006840154600185015460405163b3f1c93d60e01b81526001600160a01b039092169163b3f1c93d9161118391339182918991600160801b90046001600160801b031690600401614e0c565b602060405180830381600087803b15801561119d57600080fd5b505af11580156111b1573d6000803e3d6000fd5b505050506040513d601f19601f820116820180604052508101906111d59190614bcd565b506112f1565b60068401546001850154604051637a94c56560e11b81526001600160a01b039092169163f5298aca916112269133918791600160801b9091046001600160801b031690600401614e56565b600060405180830381600087803b15801561124057600080fd5b505af1158015611254573d6000803e3d6000fd5b505050506005840154600385015460405163b3f1c93d60e01b81526001600160a01b039092169163b3f1c93d9161129d913391829188916001600160801b031690600401614e0c565b602060405180830381600087803b1580156112b757600080fd5b505af11580156112cb573d6000803e3d6000fd5b505050506040513d601f19601f820116820180604052508101906112ef9190614bcd565b505b600484015461130f90859088906001600160a01b0316600080612843565b336001600160a01b0316866001600160a01b03167fea368a40e9570069bb8e6511d668293ad2e1f03b0d982431fd223de9f3b70ca68760405161135291906154c4565b60405180910390a3505050505050565b61136a6124e7565b6001600160a01b038086166000818152603560209081526040918290208251610100810184529384523391840191909152848416918301919091526060820187905260808201869052600481015490921660a082015261ffff841660c0820152600160e08201526113da90612f20565b505050505050565b6113ea6124e7565b6113f2614576565b61145f8b8b8080602002602001604051908101604052809392919081815260200183836020028082843760009201919091525050604080516020808f0282810182019093528e82529093508e92508d91829185019084908082843760009201919091525061341992505050565b60608a67ffffffffffffffff8111801561147857600080fd5b506040519080825280602002602001820160405280156114a2578160200160208202803683370190505b50905060608b67ffffffffffffffff811180156114be57600080fd5b506040519080825280602002602001820160405280156114e8578160200160208202803683370190505b506001600160a01b038f1684526000604085015290505b60408301518c11156116ab57603560008e8e866040015181811061151f57fe5b905060200201602081019061153491906147aa565b6001600160a01b03166001600160a01b0316815260200190815260200160002060040160009054906101000a90046001600160a01b03168284604001518151811061157b57fe5b60200260200101906001600160a01b031690816001600160a01b0316815250506115d16127106115cb60098e8e88604001518181106115b657fe5b9050602002013561345790919063ffffffff16565b90613491565b818460400151815181106115e157fe5b602002602001018181525050818360400151815181106115fd57fe5b60200260200101516001600160a01b0316634efecaa58f8d8d876040015181811061162457fe5b905060200201356040518363ffffffff1660e01b8152600401611648929190614e3d565b602060405180830381600087803b15801561166257600080fd5b505af1158015611676573d6000803e3d6000fd5b505050506040513d601f19601f8201168201806040525081019061169a9190614be9565b5060408301805160010190526114ff565b82600001516001600160a01b031663920f5c848e8e8e8e86338d8d6040518963ffffffff1660e01b81526004016116e9989796959493929190615004565b602060405180830381600087803b15801561170357600080fd5b505af1158015611717573d6000803e3d6000fd5b505050506040513d601f19601f8201168201806040525081019061173b9190614bcd565b604051806040016040528060028152602001611b1b60f11b815250906117745760405162461bcd60e51b815260040161055b9190615120565b50600060408401525b60408301518c1115611aa5578c8c846040015181811061179957fe5b90506020020160208101906117ae91906147aa565b6001600160a01b0316606084015260408301518b908b908181106117ce57fe5b905060200201358360a0018181525050808360400151815181106117ee57fe5b60200260200101518360c00181815250508183604001518151811061180f57fe5b60209081029190910101516001600160a01b0316608084015260c083015160a084015161183b91612c35565b60e084015260008989856040015181811061185257fe5b90506020020135600281111561186457fe5b600281111561186f57fe5b14156119a15760608301516001600160a01b0316600090815260356020526040902061189a90612776565b61193a83608001516001600160a01b03166318160ddd6040518163ffffffff1660e01b815260040160206040518083038186803b1580156118da57600080fd5b505afa1580156118ee573d6000803e3d6000fd5b505050506040513d601f19601f820116820180604052508101906119129190614be9565b60c085015160608601516001600160a01b0316600090815260356020526040902091906134d3565b6060830151608084015160e08501516001600160a01b038316600090815260356020526040812061197094909390929091612843565b61199c8e84608001518560e0015186606001516001600160a01b0316612d0c909392919063ffffffff16565b611a30565b611a3060405180610100016040528085606001516001600160a01b03168152602001336001600160a01b03168152602001896001600160a01b031681526020018560a0015181526020018b8b87604001518181106119fb57fe5b90506020020135815260200185608001516001600160a01b031681526020018661ffff16815260200160001515815250612f20565b82606001516001600160a01b0316336001600160a01b03168f6001600160a01b03167f631042c832b07452973831137f2d73e395028b44b250dedc5abb0ee766e168ac8660a001518760c0015189604051611a8d939291906154cd565b60405180910390a4604083018051600101905261177d565b5050505050505050505050505050565b611abd612525565b6001600160a01b03909116600090815260356020526040902055565b611ae1612525565b6039805460ff1916821515179081905560ff1615611b27576040517f9e87fac88ff661f02d44f95383c817fece4bce600a3dab7a54406878b965e75290600090a1611b51565b6040517fa45f47fdea8a1efdd9029a5691c7f759c32b7c698632b563573e155625d1693390600090a15b50565b600080600080600080611c2d876035603660008b6001600160a01b03166001600160a01b031681526020019081526020016000206040518060200160405290816000820154815250506037603854603460009054906101000a90046001600160a01b03166001600160a01b031663fca513a86040518163ffffffff1660e01b815260040160206040518083038186803b158015611bf057600080fd5b505afa158015611c04573d6000803e3d6000fd5b505050506040513d601f19601f82011682018060405250810190611c2891906147c6565b613590565b93995091975090945092509050611c45868684613a51565b935091939550919395565b611c58614563565b506001600160a01b031660009081526035602090815260409182902082519182019092529054815290565b6000611c8d613a85565b60015490915060ff1680611ca45750611ca4613a8a565b80611cb0575060005481115b611ccc5760405162461bcd60e51b815260040161055b90615200565b60015460ff16158015611ceb576001805460ff19168117905560008290555b603480546001600160a01b0319166001600160a01b0385161790558015610bd6576001805460ff19169055505050565b611d236124e7565b6001600160a01b038083166000908152603560205260408082206005810154600682015460048084015494516370a0823160e01b81529396928316959183169490921692909185916370a0823191611d7d918a9101614df8565b60206040518083038186803b158015611d9557600080fd5b505afa158015611da9573d6000803e3d6000fd5b505050506040513d601f19601f82011682018060405250810190611dcd9190614be9565b60405163548cad0960e01b815290915073__$de8c0cf1a7d7c36c802af9a64fb9d86036$__9063548cad0990611e0f9088908b908990899089906004016153cc565b60006040518083038186803b158015611e2757600080fd5b505af4158015611e3b573d6000803e3d6000fd5b50505050611e4885612776565b604051632770a7eb60e21b81526001600160a01b03851690639dc29fac90611e769089908590600401614e3d565b600060405180830381600087803b158015611e9057600080fd5b505af1158015611ea4573d6000803e3d6000fd5b505050600386015460405163b3f1c93d60e01b81526001600160a01b038716925063b3f1c93d91611ee7918a91829187916001600160801b031690600401614e0c565b602060405180830381600087803b158015611f0157600080fd5b505af1158015611f15573d6000803e3d6000fd5b505050506040513d601f19601f82011682018060405250810190611f399190614bcd565b50611f48858884600080612843565b856001600160a01b0316876001600160a01b03167f9f439ae0c81e41a04d3fdfe07aed54e6a179fb0db15be7702eb66fa8ef6f530060405160405180910390a350505050505050565b6001600160a01b038116600090815260356020526040812061071190613a90565b60608060385467ffffffffffffffff81118015611fce57600080fd5b50604051908082528060200260200182016040528015611ff8578160200160208202803683370190505b50905060005b6038548110156120515760008181526037602052604090205482516001600160a01b039091169083908390811061203157fe5b6001600160a01b0390921660209283029190910190910152600101611ffe565b50905090565b61205f6124e7565b6001600160a01b038681166000908152603560209081526040918290206004015482518084019093526002835261363360f01b9183019190915290911633146120bb5760405162461bcd60e51b815260040161055b9190615120565b5061217785603560366000896001600160a01b03166001600160a01b031681526020019081526020016000206037603854603460009054906101000a90046001600160a01b03166001600160a01b031663fca513a86040518163ffffffff1660e01b815260040160206040518083038186803b15801561213a57600080fd5b505afa15801561214e573d6000803e3d6000fd5b505050506040513d601f19601f8201168201806040525081019061217291906147c6565b613aef565b6001600160a01b03868116600090815260356020526040902060070154600160a01b900460ff169085811690871614612297576121b48385612c5a565b612220576001600160a01b0386166000908152603660205260408120906121de9082908490612d6a565b866001600160a01b0316886001600160a01b03167f44c58d81365b66dd4b1a7f36c25aa97b8c71c361ee4937adc1a00000227db5dd60405160405180910390a3505b8115801561222d57508315155b15612297576001600160a01b038516600090815260366020526040902061225681836001612d6a565b856001600160a01b0316886001600160a01b03167e058a56ea94653cdf4f152d227ace22d4c00ad99e2a43f58cb7d9e3feb295f260405160405180910390a3505b50505050505050565b6109c481565b6122ae6124e7565b6001600160a01b038416600090815260356020526040908190209051630eca322b60e01b815273__$de8c0cf1a7d7c36c802af9a64fb9d86036$__90630eca322b906123009084908890600401615472565b60006040518083038186803b15801561231857600080fd5b505af415801561232c573d6000803e3d6000fd5b5050505060048101546001600160a01b031661234782612776565b612355828783886000612843565b61236a6001600160a01b038716338388612d0c565b6001820154604051630ab714fb60e11b81526000916001600160a01b0384169163156e29f6916123ac9189918b916001600160801b0390911690600401614e56565b602060405180830381600087803b1580156123c657600080fd5b505af11580156123da573d6000803e3d6000fd5b505050506040513d601f19601f820116820180604052508101906123fe9190614bcd565b905080156124785760078301546001600160a01b038616600090815260366020526040902061243891600160a01b900460ff166001612d6a565b846001600160a01b0316876001600160a01b03167e058a56ea94653cdf4f152d227ace22d4c00ad99e2a43f58cb7d9e3feb295f260405160405180910390a35b8361ffff16856001600160a01b0316886001600160a01b03167fde6857219544bb5b7746f48ed30be6386fefc61b2f864cacf559893bf50fd951338a6040516124c2929190614e3d565b60405180910390a450505050505050565b608081565b6034546001600160a01b031690565b6039546040805180820190915260028152610d8d60f21b60208201529060ff1615611b515760405162461bcd60e51b815260040161055b9190615120565b603454604080516385c858b160e01b8152905133926001600160a01b0316916385c858b1916004808301926020929190829003018186803b15801561256957600080fd5b505afa15801561257d573d6000803e3d6000fd5b505050506040513d601f19601f820116820180604052508101906125a191906147c6565b6001600160a01b03161460405180604001604052806002815260200161323760f01b81525090611b515760405162461bcd60e51b815260040161055b9190615120565b600381015460009064ffffffffff600160801b90910481169042168114156126225750506001810154600160801b90046001600160801b03166106eb565b60018301546002840154600091612659916001600160801b03600160801b9283900481169261265392041685613b65565b90613b72565b949350505050565b60058101546040516370a0823160e01b815260009182916001600160a01b03909116906370a0823190612698908790600401614df8565b60206040518083038186803b1580156126b057600080fd5b505afa1580156126c4573d6000803e3d6000fd5b505050506040513d601f19601f820116820180604052508101906126e89190614be9565b60068401546040516370a0823160e01b81526001600160a01b03909116906370a082319061271a908890600401614df8565b60206040518083038186803b15801561273257600080fd5b505afa158015612746573d6000803e3d6000fd5b505050506040513d601f19601f8201168201806040525081019061276a9190614be9565b915091505b9250929050565b60068101546040805163b1bf962d60e01b815290516000926001600160a01b03169163b1bf962d916004808301926020929190829003018186803b1580156127bd57600080fd5b505afa1580156127d1573d6000803e3d6000fd5b505050506040513d601f19601f820116820180604052508101906127f59190614be9565b60018301546003840154919250600160801b8082046001600160801b03908116939216910464ffffffffff166000806128318787868887613c05565b91509150612297878787858588613d62565b61284b6145c2565b60058601546001600160a01b031680825260408051637b98f4df60e11b8152815163f731e9be92600480840193919291829003018186803b15801561288f57600080fd5b505afa1580156128a3573d6000803e3d6000fd5b505050506040513d601f19601f820116820180604052508101906128c79190614ca8565b60c083015260408083019190915260018701546006880154825163b1bf962d60e01b8152925161296c93600160801b9093046001600160801b0316926001600160a01b039092169163b1bf962d916004808301926020929190829003018186803b15801561293457600080fd5b505afa158015612948573d6000803e3d6000fd5b505050506040513d601f19601f820116820180604052508101906126539190614be9565b60e08201526040516370a0823160e01b81526001600160a01b038616906370a082319061299d908790600401614df8565b60206040518083038186803b1580156129b557600080fd5b505afa1580156129c9573d6000803e3d6000fd5b505050506040513d601f19601f820116820180604052508101906129ed9190614be9565b6020820181905260078701546001600160a01b031690639584df28908790612a1b9086906109609089612c35565b604085015160e086015160c0870151612a338d613f25565b6040518763ffffffff1660e01b8152600401612a5496959493929190614fd1565b60606040518083038186803b158015612a6c57600080fd5b505afa158015612a80573d6000803e3d6000fd5b505050506040513d601f19601f82011682018060405250810190612aa49190614ccb565b60a0840152608083015260608201819052604080518082019091526002815261353360f01b6020820152906001600160801b031015612af65760405162461bcd60e51b815260040161055b9190615120565b506080810151604080518082019091526002815261353560f01b6020820152906001600160801b031015612b3d5760405162461bcd60e51b815260040161055b9190615120565b5060a08101516040805180820190915260028152610d4d60f21b6020820152906001600160801b031015612b845760405162461bcd60e51b815260040161055b9190615120565b506060810151600287018054608084015160038a0180546001600160801b03199081166001600160801b038085169190911790925560a08701519316818616178116600160801b84831681029190911790945560018b01546040516001600160a01b038c16967f804c9b842b2748a22bb64b345453a3de7ca54a6ca45ce00d415894979e22897a96612c2596919594919380831693919004909116906154e7565b60405180910390a2505050505050565b600082820183811015610f075760405162461bcd60e51b815260040161055b90615153565b6000610f0783836040518060400160405280601e81526020017f536166654d6174683a207375627472616374696f6e206f766572666c6f770000815250613f30565b604080518082019091526002815261373760f01b602082015260808310612cd65760405162461bcd60e51b815260040161055b9190615120565b508160020281612ce7576000612cea565b60015b60ff16901b826002026001901b19846000015416178360000181905550505050565b612d64846323b872dd60e01b858585604051602401612d2d93929190614eb4565b60408051601f198184030181529190526020810180516001600160e01b03166001600160e01b031990931692909217909152613f5c565b50505050565b604080518082019091526002815261373760f01b602082015260808310612da45760405162461bcd60e51b815260040161055b9190615120565b508160020260010181612db8576000612dbb565b60015b60ff16901b826002026001016001901b19846000015416178360000181905550505050565b6000813f7fc5d2460186f7233c927e7db2dcc703c0e500b653ca82273b7bfad8045d85a470818114801590612659575050151592915050565b603854604080518082019091526002815261363560f01b602082015260808210612e565760405162461bcd60e51b815260040161055b9190615120565b506001600160a01b038216600090815260356020526040812060070154600160a01b900460ff16151580612ebf57506000805260376020527fa0a618d80eda9243166be83cb7421d97e9dab6ddddd3c70ac7a6b4440256e8e7546001600160a01b038481169116145b905080610bd657506001600160a01b03919091166000818152603560209081526040808320600701805460ff60a01b1916600160a01b60ff8816021790558483526037909152902080546001600160a01b0319169091179055600101603855565b80516001600160a01b0390811660009081526035602090815260408083208186015185168452603683528184206034548351631f94a27560e31b81529351929691959491169263fca513a89260048083019392829003018186803b158015612f8757600080fd5b505afa158015612f9b573d6000803e3d6000fd5b505050506040513d601f19601f82011682018060405250810190612fbf91906147c6565b90506000613060612fcf85614041565b600a0a6115cb8760600151856001600160a01b031663b3596f078a600001516040518263ffffffff1660e01b815260040161300a9190614df8565b60206040518083038186803b15801561302257600080fd5b505afa158015613036573d6000803e3d6000fd5b505050506040513d601f19601f8201168201806040525081019061305a9190614be9565b90613457565b905073__$de8c0cf1a7d7c36c802af9a64fb9d86036$__63721a92f986600001518688604001518960600151868b608001516109c460358c60376038548e6040518d63ffffffff1660e01b81526004016130c59c9b9a99989796959493929190614f01565b60006040518083038186803b1580156130dd57600080fd5b505af41580156130f1573d6000803e3d6000fd5b505050506130fe84612776565b60008060018760800151600281111561311357fe5b600281111561311e57fe5b14156131d3576003860154600587015460208901516040808b015160608c0151915163b3f1c93d60e01b81526001600160801b0390951696506001600160a01b039093169363b3f1c93d9361317a939290918890600401614ed8565b602060405180830381600087803b15801561319457600080fd5b505af11580156131a8573d6000803e3d6000fd5b505050506040513d601f19601f820116820180604052508101906131cc9190614bcd565b9050613282565b600686015460208801516040808a015160608b015160018b0154925163b3f1c93d60e01b81526001600160a01b039095169463b3f1c93d9461322d9490939291600160801b9091046001600160801b031690600401614e0c565b602060405180830381600087803b15801561324757600080fd5b505af115801561325b573d6000803e3d6000fd5b505050506040513d601f19601f8201168201806040525081019061327f9190614bcd565b90505b80156132a45760078601546132a4908690600160a01b900460ff166001612c9c565b6132d387600001518860a0015160008a60e001516132c35760006132c9565b8a606001515b8a93929190612843565b8660e001511561336b578660a001516001600160a01b0316634efecaa5886020015189606001516040518363ffffffff1660e01b8152600401613317929190614e3d565b602060405180830381600087803b15801561333157600080fd5b505af1158015613345573d6000803e3d6000fd5b505050506040513d601f19601f820116820180604052508101906133699190614be9565b505b8660c0015161ffff1687604001516001600160a01b031688600001516001600160a01b03167fc6a898309e823ee50bac64e45ca8adba6690e99e7841c45d754e2a38e9019d9b8a602001518b606001518c60800151600160028111156133cd57fe5b8e6080015160028111156133dd57fe5b60028111156133e857fe5b146134075760028d0154600160801b90046001600160801b0316613409565b885b6040516124c29493929190614fab565b805182511460405180604001604052806002815260200161373360f01b81525090610bd65760405162461bcd60e51b815260040161055b9190615120565b60008261346657506000610711565b8282028284828161347357fe5b0414610f075760405162461bcd60e51b815260040161055b906151bf565b6000610f0783836040518060400160405280601a81526020017f536166654d6174683a206469766973696f6e206279207a65726f00000000000081525061404b565b60006134f06134e184614082565b6134ea84614082565b906140d2565b905060006135066134ff61417d565b8390612c35565b60018601549091506135229082906001600160801b0316613b72565b604080518082019091526002815261353160f01b60208201529091506001600160801b038211156135665760405162461bcd60e51b815260040161055b9190615120565b5060019490940180546001600160801b0319166001600160801b0390951694909417909355505050565b60008060008060006135a0614610565b6135a98a61418d565b156135c7576000806000806000199550955095509550955050613a43565b600060e08201525b878160e0015110156139a25760e08101516135eb908b90614192565b6135f457613992565b60e0810151600090815260208a81526040808320546001600160a01b03166101e085018190528352908d9052902061362b816141e3565b506080860181905260c08601929092525060a0840191909152600a0a60208301526101e082015160405163b3596f0760e01b81526001600160a01b038a169163b3596f079161367d9190600401614df8565b60206040518083038186803b15801561369557600080fd5b505afa1580156136a9573d6000803e3d6000fd5b505050506040513d601f19601f820116820180604052508101906136cd9190614be9565b825260c0820151158015906136ed575060e08201516136ed908c9061420e565b1561380b578060040160009054906101000a90046001600160a01b03166001600160a01b03166370a082318e6040518263ffffffff1660e01b81526004016137359190614df8565b60206040518083038186803b15801561374d57600080fd5b505afa158015613761573d6000803e3d6000fd5b505050506040513d601f19601f820116820180604052508101906137859190614be9565b60408301819052602083015183516000926137a492916115cb91613457565b6101208401519091506137b79082612c35565b61012084015260a08301516137dd906137d1908390613457565b61016085015190612c35565b61016084015260c0830151613803906137f7908390613457565b61018085015190612c35565b610180840152505b60e082015161381b908c90614266565b15613990578060050160009054906101000a90046001600160a01b03166001600160a01b03166370a082318e6040518263ffffffff1660e01b81526004016138639190614df8565b60206040518083038186803b15801561387b57600080fd5b505afa15801561388f573d6000803e3d6000fd5b505050506040513d601f19601f820116820180604052508101906138b39190614be9565b82606001818152505061395d8160060160009054906101000a90046001600160a01b03166001600160a01b03166370a082318f6040518263ffffffff1660e01b81526004016139029190614df8565b60206040518083038186803b15801561391a57600080fd5b505afa15801561392e573d6000803e3d6000fd5b505050506040513d601f19601f820116820180604052508101906139529190614be9565b606084015190612c35565b60608301819052602083015183516139899261397d92916115cb91613457565b61014084015190612c35565b6101408301525b505b60e08101805160010190526135cf565b6000816101200151116139b65760006139cb565b6101208101516101608201516139cb91613491565b6101608201526101208101516139e25760006139f7565b6101208101516101808201516139f791613491565b6101808201819052610120820151610140830151613a14926142b7565b610100820181905261012082015161014083015161016084015161018090940151919850965091945090925090505b965096509650965096915050565b600080613a5e85846142db565b905083811015613a72576000915050610f07565b613a7c8185612c5a565b95945050505050565b600190565b303b1590565b600381015460009064ffffffffff600160801b9091048116904216811415613ac757505060018101546001600160801b03166106eb565b60018301546002840154600091612659916001600160801b039182169161265391168561434a565b604080516020810190915284548152600090613b119088908890878787613590565b945050505050670de0b6b3a7640000811015604051806040016040528060018152602001601b60f91b81525090613b5b5760405162461bcd60e51b815260040161055b9190615120565b5050505050505050565b6000610f07838342614388565b6000821580613b7f575081155b15613b8c57506000610711565b816b019d971e4fe8401e740000001981613ba257fe5b0483111560405180604001604052806002815260200161068760f31b81525090613bdf5760405162461bcd60e51b815260040161055b9190615120565b506b033b2e3c9fd0803ce80000006002815b048385020181613bfd57fe5b049392505050565b600285015460009081906001600160801b031685858215613d33576000613c2c848861434a565b9050613c38818a613b72565b604080518082019091526002815261353160f01b60208201529093506001600160801b03841115613c7c5760405162461bcd60e51b815260040161055b9190615120565b5060018b0180546001600160801b0319166001600160801b0385161790558915613d315760028b0154600090613cc290600160801b90046001600160801b031689613b65565b9050613cce818a613b72565b6040805180820190915260028152611a9960f11b60208201529093506001600160801b03841115613d125760405162461bcd60e51b815260040161055b9190615120565b505060018b0180546001600160801b03808516600160801b0291161790555b505b600399909901805464ffffffffff60801b1916600160801b4264ffffffffff1602179055989650505050505050565b613d6a6146aa565b613d7387613f25565b6101208201819052613d8557506113da565b8660050160009054906101000a90046001600160a01b03166001600160a01b031663797743386040518163ffffffff1660e01b815260040160806040518083038186803b158015613dd557600080fd5b505afa158015613de9573d6000803e3d6000fd5b505050506040513d601f19601f82011682018060405250810190613e0d9190614cf8565b64ffffffffff1661014085015260a084015282526020820152613e308686613b72565b6080820152613e3f8684613b72565b606082015260a0810151610140820151613e61919064ffffffffff8516614388565b60c082018190526020820151613e7691613b72565b60408201819052608082015182516060840151613e9b93926109609290918391612c35565b60e08201819052610120820151613eb291906142db565b61010082018190521561229757600480880154610100830151604051637df5bd3b60e01b81526001600160a01b0390921692637df5bd3b92613ef79291899101615472565b600060405180830381600087803b158015613f1157600080fd5b505af11580156105c3573d6000803e3d6000fd5b5460401c61ffff1690565b60008184841115613f545760405162461bcd60e51b815260040161055b9190615120565b505050900390565b613f6e826001600160a01b0316612de0565b613f8a5760405162461bcd60e51b815260040161055b90615298565b60006060836001600160a01b031683604051613fa69190614ddc565b6000604051808303816000865af19150503d8060008114613fe3576040519150601f19603f3d011682016040523d82523d6000602084013e613fe8565b606091505b50915091508161400a5760405162461bcd60e51b815260040161055b9061518a565b805115612d6457808060200190518101906140259190614bcd565b612d645760405162461bcd60e51b815260040161055b9061524e565b5460301c60ff1690565b6000818361406c5760405162461bcd60e51b815260040161055b9190615120565b50600083858161407857fe5b0495945050505050565b6000633b9aca0082810290839082041460405180604001604052806002815260200161068760f31b815250906140cb5760405162461bcd60e51b815260040161055b9190615120565b5092915050565b604080518082019091526002815261035360f41b60208201526000908261410c5760405162461bcd60e51b815260040161055b9190615120565b5060408051808201909152600280825261068760f31b60208301528304906b033b2e3c9fd0803ce800000082190485111561415a5760405162461bcd60e51b815260040161055b9190615120565b5082816b033b2e3c9fd0803ce80000008602018161417457fe5b04949350505050565b6b033b2e3c9fd0803ce800000090565b511590565b60006080821060405180604001604052806002815260200161373760f01b815250906141d15760405162461bcd60e51b815260040161055b9190615120565b50509051600360029092021c16151590565b5461ffff80821692601083901c821692602081901c831692603082901c60ff169260409290921c1690565b60006080821060405180604001604052806002815260200161373760f01b8152509061424d5760405162461bcd60e51b815260040161055b9190615120565b5050815160016002830281019190911c16151592915050565b60006080821060405180604001604052806002815260200161373760f01b815250906142a55760405162461bcd60e51b815260040161055b9190615120565b50509051600160029092021c16151590565b6000826142c75750600019610f07565b612659836142d586856142db565b9061445e565b60008215806142e8575081155b156142f557506000610711565b81611388198161430157fe5b0483111560405180604001604052806002815260200161068760f31b8152509061433e5760405162461bcd60e51b815260040161055b9190615120565b50612710600281613bf1565b60008061435e4264ffffffffff8516612c5a565b905061265961436b61417d565b6301e1338061437a8785613457565b8161438157fe5b0490612c35565b60008061439c8364ffffffffff8616612c5a565b9050806143b3576143ab61417d565b915050610f07565b60001981016000600283116143c95760006143ce565b600283035b90506301e13380870460006143e38280613b72565b905060006143f18284613b72565b9050600060026144058461305a8a8a613457565b8161440c57fe5b049050600060066144238461305a89818d8d613457565b8161442a57fe5b04905061444e8161444884816144408a8e613457565b61444861417d565b90612c35565b9c9b505050505050505050505050565b604080518082019091526002815261035360f41b6020820152600090826144985760405162461bcd60e51b815260040161055b9190615120565b5060408051808201909152600280825261068760f31b6020830152830490670de0b6b3a76400008219048511156144e25760405162461bcd60e51b815260040161055b9190615120565b508281670de0b6b3a76400008602018161417457fe5b60405180610180016040528061450c614563565b815260006020820181905260408201819052606082018190526080820181905260a0820181905260c0820181905260e082018190526101008201819052610120820181905261014082018190526101609091015290565b6040518060200160405280600081525090565b6040805161012081018252600080825260208201819052918101829052606081018290526080810182905260a0810182905260c0810182905260e0810182905261010081019190915290565b60405180610100016040528060006001600160a01b03168152602001600081526020016000815260200160008152602001600081526020016000815260200160008152602001600081525090565b604051806102400160405280600081526020016000815260200160008152602001600081526020016000815260200160008152602001600081526020016000815260200160008152602001600081526020016000815260200160008152602001600081526020016000815260200160001515815260200160006001600160a01b031681526020016000151581526020016000151581525090565b60405180610160016040528060008152602001600081526020016000815260200160008152602001600081526020016000815260200160008152602001600081526020016000815260200160008152602001600064ffffffffff1681525090565b803561071181615574565b60008083601f840112614727578182fd5b50813567ffffffffffffffff81111561473e578182fd5b602083019150836020808302850101111561276f57600080fd5b60008083601f840112614769578182fd5b50813567ffffffffffffffff811115614780578182fd5b60208301915083602082850101111561276f57600080fd5b803561ffff8116811461071157600080fd5b6000602082840312156147bb578081fd5b8135610f0781615574565b6000602082840312156147d7578081fd5b8151610f0781615574565b600080604083850312156147f4578081fd5b82356147ff81615574565b9150602083013561480f81615574565b809150509250929050565b600080600080600060a08688031215614831578081fd5b853561483c81615574565b9450602086013561484c81615574565b9350604086013561485c81615574565b9250606086013561486c81615574565b9150608086013561487c81615574565b809150509295509295909350565b600080600080600060a086880312156148a1578081fd5b85356148ac81615574565b945060208601356148bc81615574565b935060408601356148cc81615574565b925060608601359150608086013561487c81615589565b60008060008060008060c087890312156148fb578081fd5b863561490681615574565b9550602087013561491681615574565b9450604087013561492681615574565b959894975094956060810135955060808101359460a0909101359350915050565b600080600080600080600080600080600060e08c8e031215614967578485fd5b6149718d8d61470b565b9a5067ffffffffffffffff8060208e0135111561498c578586fd5b61499c8e60208f01358f01614716565b909b50995060408d01358110156149b1578586fd5b6149c18e60408f01358f01614716565b909950975060608d01358110156149d6578586fd5b6149e68e60608f01358f01614716565b90975095506149f88e60808f0161470b565b94508060a08e01351115614a0a578384fd5b50614a1b8d60a08e01358e01614758565b9093509150614a2d8d60c08e01614798565b90509295989b509295989b9093969950565b60008060408385031215614a51578081fd5b8235614a5c81615574565b9150602083013561480f81615589565b60008060408385031215614a7e578182fd5b8235614a8981615574565b946020939093013593505050565b600080600060608486031215614aab578081fd5b8335614ab681615574565b9250602084013591506040840135614acd81615574565b809150509250925092565b60008060008060808587031215614aed578182fd5b8435614af881615574565b9350602085013592506040850135614b0f81615574565b9150614b1e8660608701614798565b905092959194509250565b60008060008060808587031215614b3e578182fd5b8435614b4981615574565b935060208501359250604085013591506060850135614b6781615574565b939692955090935050565b600080600080600060a08688031215614b89578283fd5b8535614b9481615574565b9450602086013593506040860135925061486c8760608801614798565b600060208284031215614bc2578081fd5b8135610f0781615589565b600060208284031215614bde578081fd5b8151610f0781615589565b600060208284031215614bfa578081fd5b5051919050565b60008060408385031215614c13578182fd5b82519150602083015167ffffffffffffffff80821115614c31578283fd5b818501915085601f830112614c44578283fd5b815181811115614c52578384fd5b604051601f8201601f191681016020018381118282101715614c72578586fd5b604052818152838201602001881015614c89578485fd5b614c9a82602083016020870161553e565b809450505050509250929050565b60008060408385031215614cba578182fd5b505080516020909101519092909150565b600080600060608486031215614cdf578081fd5b8351925060208401519150604084015190509250925092565b60008060008060808587031215614d0d578182fd5b845193506020850151925060408501519150606085015164ffffffffff81168114614b67578182fd5b6001600160a01b0316815260200190565b6001600160a01b03169052565b6000815180845260208085019450808401835b83811015614d8357815187529582019590820190600101614d67565b509495945050505050565b60008284528282602086013780602084860101526020601f19601f85011685010190509392505050565b519052565b6001600160801b03169052565b64ffffffffff169052565b60ff169052565b60008251614dee81846020870161553e565b9190910192915050565b6001600160a01b0391909116815260200190565b6001600160a01b03948516815292909316602083015260408201526001600160801b03909116606082015260800190565b6001600160a01b03929092168252602082015260400190565b6001600160a01b0393909316835260208301919091526001600160801b0316604082015260600190565b6001600160a01b03958616815293851660208501529190931660408301526060820192909252901515608082015260a00190565b6001600160a01b039384168152919092166020820152604081019190915260600190565b6001600160a01b0394851681529290931660208301526040820152606081019190915260800190565b6001600160a01b039c8d168152602081019b909b52988b1660408b015260608a0197909752608089019590955260a088019390935260c087019190915260e08601526101008501526101208401526101408301529091166101608201526101800190565b6001600160a01b039889168152602081019790975260408701959095526060860193909352608085019190915260a084015260c083015290911660e08201526101000190565b6001600160a01b0394909416845260208401929092526040830152606082015260800190565b6001600160a01b03969096168652602086019490945260408501929092526060840152608083015260a082015260c00190565b600060a0820160a08352806150198b836154c4565b90508b9150825b8b81101561504c576020830161503f8361503a838761470b565b614d36565b9093509150600101615020565b5083810360208501528881526001600160fb1b0389111561506b578283fd5b602089029150818a602083013701602081810183815284830390910160408501526150968189614d54565b9150506150a66060840187614d47565b82810360808401526150b9818587614d8e565b9b9a5050505050505050505050565b6020808252825182820181905260009190848201906040850190845b818110156151095783516001600160a01b0316835292840192918401916001016150e4565b50909695505050505050565b901515815260200190565b600060208252825180602084015261513f81604085016020870161553e565b601f01601f19169190910160400192915050565b6020808252601b908201527f536166654d6174683a206164646974696f6e206f766572666c6f770000000000604082015260600190565b6020808252818101527f5361666545524332303a206c6f772d6c6576656c2063616c6c206661696c6564604082015260600190565b60208082526021908201527f536166654d6174683a206d756c7469706c69636174696f6e206f766572666c6f6040820152607760f81b606082015260800190565b6020808252602e908201527f436f6e747261637420696e7374616e63652068617320616c726561647920626560408201526d195b881a5b9a5d1a585b1a5e995960921b606082015260800190565b6020808252602a908201527f5361666545524332303a204552433230206f7065726174696f6e20646964206e6040820152691bdd081cdd58d8d9595960b21b606082015260800190565b6020808252601f908201527f5361666545524332303a2063616c6c20746f206e6f6e2d636f6e747261637400604082015260600190565b9051815260200190565b6000610180820190506152ed828451614db8565b60208301516152ff6020840182614dbd565b5060408301516153126040840182614dbd565b5060608301516153256060840182614dbd565b5060808301516153386080840182614dbd565b5060a083015161534b60a0840182614dbd565b5060c083015161535e60c0840182614dca565b5060e083015161537160e0840182614d47565b506101008084015161538582850182614d47565b50506101208084015161539a82850182614d47565b5050610140808401516153af82850182614d47565b5050610160808401516153c482850182614dd5565b505092915050565b9485526001600160a01b03938416602086015291831660408501528216606084015216608082015260a00190565b9788526001600160a01b03968716602089015294151560408801526060870193909352608086019190915260a085015260c08401521660e08201526101000190565b600060a0820190508682528560208301528460408301528360608301526154628361556a565b8260808301529695505050505050565b918252602082015260400190565b8681526020810186905260c081016154978661556a565b60408201959095526001600160a01b03939093166060840152608083019190915260a09091015292915050565b90815260200190565b928352602083019190915261ffff16604082015260600190565b948552602085019390935260408401919091526001600160801b03908116606084015216608082015260a00190565b958652602086019490945260408501929092526060840152608083015260a082015260c00190565b60005b83811015615559578181015183820152602001615541565b83811115612d645750506000910152565b60038110611b5157fe5b6001600160a01b0381168114611b5157600080fd5b8015158114611b5157600080fdfea26469706673582212204a70a1d227da4321ef8b74063023dfeeda80b3b8bec13a94e0ea4c58b2bbdaf364736f6c634300060c0033",
			"opcodes": "PUSH1 0x80 PUSH1 0x40 MSTORE PUSH1 0x0 DUP1 SSTORE CALLVALUE DUP1 ISZERO PUSH2 0x14 JUMPI PUSH1 0x0 DUP1 REVERT JUMPDEST POP PUSH2 0x55CD DUP1 PUSH3 0x25 PUSH1 0x0 CODECOPY PUSH1 0x0 RETURN INVALID PUSH1 0x80 PUSH1 0x40 MSTORE CALLVALUE DUP1 ISZERO PUSH2 0x10 JUMPI PUSH1 0x0 DUP1 REVERT JUMPDEST POP PUSH1 0x4 CALLDATASIZE LT PUSH2 0x1C3 JUMPI PUSH1 0x0 CALLDATALOAD PUSH1 0xE0 SHR DUP1 PUSH4 0xAB9C4B5D GT PUSH2 0xF9 JUMPI DUP1 PUSH4 0xD15E0053 GT PUSH2 0x97 JUMPI DUP1 PUSH4 0xE82FEC2F GT PUSH2 0x71 JUMPI DUP1 PUSH4 0xE82FEC2F EQ PUSH2 0x3C2 JUMPI DUP1 PUSH4 0xE8EDA9DF EQ PUSH2 0x3CA JUMPI DUP1 PUSH4 0xF8119D51 EQ PUSH2 0x3DD JUMPI DUP1 PUSH4 0xFE65ACFE EQ PUSH2 0x3E5 JUMPI PUSH2 0x1C3 JUMP JUMPDEST DUP1 PUSH4 0xD15E0053 EQ PUSH2 0x387 JUMPI DUP1 PUSH4 0xD1946DBC EQ PUSH2 0x39A JUMPI DUP1 PUSH4 0xD5ED3933 EQ PUSH2 0x3AF JUMPI PUSH2 0x1C3 JUMP JUMPDEST DUP1 PUSH4 0xBF92857C GT PUSH2 0xD3 JUMPI DUP1 PUSH4 0xBF92857C EQ PUSH2 0x329 JUMPI DUP1 PUSH4 0xC44B11F7 EQ PUSH2 0x34E JUMPI DUP1 PUSH4 0xC4D66DE8 EQ PUSH2 0x361 JUMPI DUP1 PUSH4 0xCD112382 EQ PUSH2 0x374 JUMPI PUSH2 0x1C3 JUMP JUMPDEST DUP1 PUSH4 0xAB9C4B5D EQ PUSH2 0x2F0 JUMPI DUP1 PUSH4 0xB8D29276 EQ PUSH2 0x303 JUMPI DUP1 PUSH4 0xBEDB86FB EQ PUSH2 0x316 JUMPI PUSH2 0x1C3 JUMP JUMPDEST DUP1 PUSH4 0x5A3B74B9 GT PUSH2 0x166 JUMPI DUP1 PUSH4 0x7A708E92 GT PUSH2 0x140 JUMPI DUP1 PUSH4 0x7A708E92 EQ PUSH2 0x2AF JUMPI DUP1 PUSH4 0x8AFAFF02 EQ PUSH2 0x2C2 JUMPI DUP1 PUSH4 0x94BA89A2 EQ PUSH2 0x2CA JUMPI DUP1 PUSH4 0xA415BCAD EQ PUSH2 0x2DD JUMPI PUSH2 0x1C3 JUMP JUMPDEST DUP1 PUSH4 0x5A3B74B9 EQ PUSH2 0x274 JUMPI DUP1 PUSH4 0x5C975ABB EQ PUSH2 0x287 JUMPI DUP1 PUSH4 0x69328DEC EQ PUSH2 0x29C JUMPI PUSH2 0x1C3 JUMP JUMPDEST DUP1 PUSH4 0x35EA6A75 GT PUSH2 0x1A2 JUMPI DUP1 PUSH4 0x35EA6A75 EQ PUSH2 0x20E JUMPI DUP1 PUSH4 0x386497FD EQ PUSH2 0x22E JUMPI DUP1 PUSH4 0x4417A583 EQ PUSH2 0x241 JUMPI DUP1 PUSH4 0x573ADE81 EQ PUSH2 0x261 JUMPI PUSH2 0x1C3 JUMP JUMPDEST DUP1 PUSH3 0xA718A9 EQ PUSH2 0x1C8 JUMPI DUP1 PUSH4 0x74B2E43 EQ PUSH2 0x1DD JUMPI DUP1 PUSH4 0x1D2118F9 EQ PUSH2 0x1FB JUMPI JUMPDEST PUSH1 0x0 DUP1 REVERT JUMPDEST PUSH2 0x1DB PUSH2 0x1D6 CALLDATASIZE PUSH1 0x4 PUSH2 0x488A JUMP JUMPDEST PUSH2 0x3FA JUMP JUMPDEST STOP JUMPDEST PUSH2 0x1E5 PUSH2 0x5D0 JUMP JUMPDEST PUSH1 0x40 MLOAD PUSH2 0x1F2 SWAP2 SWAP1 PUSH2 0x54C4 JUMP JUMPDEST PUSH1 0x40 MLOAD DUP1 SWAP2 SUB SWAP1 RETURN JUMPDEST PUSH2 0x1DB PUSH2 0x209 CALLDATASIZE PUSH1 0x4 PUSH2 0x47E2 JUMP JUMPDEST PUSH2 0x5D5 JUMP JUMPDEST PUSH2 0x221 PUSH2 0x21C CALLDATASIZE PUSH1 0x4 PUSH2 0x47AA JUMP JUMPDEST PUSH2 0x60E JUMP JUMPDEST PUSH1 0x40 MLOAD PUSH2 0x1F2 SWAP2 SWAP1 PUSH2 0x52D9 JUMP JUMPDEST PUSH2 0x1E5 PUSH2 0x23C CALLDATASIZE PUSH1 0x4 PUSH2 0x47AA JUMP JUMPDEST PUSH2 0x6F0 JUMP JUMPDEST PUSH2 0x254 PUSH2 0x24F CALLDATASIZE PUSH1 0x4 PUSH2 0x47AA JUMP JUMPDEST PUSH2 0x717 JUMP JUMPDEST PUSH1 0x40 MLOAD PUSH2 0x1F2 SWAP2 SWAP1 PUSH2 0x52CF JUMP JUMPDEST PUSH2 0x1E5 PUSH2 0x26F CALLDATASIZE PUSH1 0x4 PUSH2 0x4B29 JUMP JUMPDEST PUSH2 0x74A JUMP JUMPDEST PUSH2 0x1DB PUSH2 0x282 CALLDATASIZE PUSH1 0x4 PUSH2 0x4A3F JUMP JUMPDEST PUSH2 0xA16 JUMP JUMPDEST PUSH2 0x28F PUSH2 0xBDB JUMP JUMPDEST PUSH1 0x40 MLOAD PUSH2 0x1F2 SWAP2 SWAP1 PUSH2 0x5115 JUMP JUMPDEST PUSH2 0x1E5 PUSH2 0x2AA CALLDATASIZE PUSH1 0x4 PUSH2 0x4A97 JUMP JUMPDEST PUSH2 0xBE4 JUMP JUMPDEST PUSH2 0x1DB PUSH2 0x2BD CALLDATASIZE PUSH1 0x4 PUSH2 0x481A JUMP JUMPDEST PUSH2 0xF0E JUMP JUMPDEST PUSH2 0x1E5 PUSH2 0xFF0 JUMP JUMPDEST PUSH2 0x1DB PUSH2 0x2D8 CALLDATASIZE PUSH1 0x4 PUSH2 0x4A6C JUMP JUMPDEST PUSH2 0xFF5 JUMP JUMPDEST PUSH2 0x1DB PUSH2 0x2EB CALLDATASIZE PUSH1 0x4 PUSH2 0x4B72 JUMP JUMPDEST PUSH2 0x1362 JUMP JUMPDEST PUSH2 0x1DB PUSH2 0x2FE CALLDATASIZE PUSH1 0x4 PUSH2 0x4947 JUMP JUMPDEST PUSH2 0x13E2 JUMP JUMPDEST PUSH2 0x1DB PUSH2 0x311 CALLDATASIZE PUSH1 0x4 PUSH2 0x4A6C JUMP JUMPDEST PUSH2 0x1AB5 JUMP JUMPDEST PUSH2 0x1DB PUSH2 0x324 CALLDATASIZE PUSH1 0x4 PUSH2 0x4BB1 JUMP JUMPDEST PUSH2 0x1AD9 JUMP JUMPDEST PUSH2 0x33C PUSH2 0x337 CALLDATASIZE PUSH1 0x4 PUSH2 0x47AA JUMP JUMPDEST PUSH2 0x1B54 JUMP JUMPDEST PUSH1 0x40 MLOAD PUSH2 0x1F2 SWAP7 SWAP6 SWAP5 SWAP4 SWAP3 SWAP2 SWAP1 PUSH2 0x5516 JUMP JUMPDEST PUSH2 0x254 PUSH2 0x35C CALLDATASIZE PUSH1 0x4 PUSH2 0x47AA JUMP JUMPDEST PUSH2 0x1C50 JUMP JUMPDEST PUSH2 0x1DB PUSH2 0x36F CALLDATASIZE PUSH1 0x4 PUSH2 0x47AA JUMP JUMPDEST PUSH2 0x1C83 JUMP JUMPDEST PUSH2 0x1DB PUSH2 0x382 CALLDATASIZE PUSH1 0x4 PUSH2 0x47E2 JUMP JUMPDEST PUSH2 0x1D1B JUMP JUMPDEST PUSH2 0x1E5 PUSH2 0x395 CALLDATASIZE PUSH1 0x4 PUSH2 0x47AA JUMP JUMPDEST PUSH2 0x1F91 JUMP JUMPDEST PUSH2 0x3A2 PUSH2 0x1FB2 JUMP JUMPDEST PUSH1 0x40 MLOAD PUSH2 0x1F2 SWAP2 SWAP1 PUSH2 0x50C8 JUMP JUMPDEST PUSH2 0x1DB PUSH2 0x3BD CALLDATASIZE PUSH1 0x4 PUSH2 0x48E3 JUMP JUMPDEST PUSH2 0x2057 JUMP JUMPDEST PUSH2 0x1E5 PUSH2 0x22A0 JUMP JUMPDEST PUSH2 0x1DB PUSH2 0x3D8 CALLDATASIZE PUSH1 0x4 PUSH2 0x4AD8 JUMP JUMPDEST PUSH2 0x22A6 JUMP JUMPDEST PUSH2 0x1E5 PUSH2 0x24D3 JUMP JUMPDEST PUSH2 0x3ED PUSH2 0x24D8 JUMP JUMPDEST PUSH1 0x40 MLOAD PUSH2 0x1F2 SWAP2 SWAP1 PUSH2 0x4DF8 JUMP JUMPDEST PUSH2 0x402 PUSH2 0x24E7 JUMP JUMPDEST PUSH1 0x34 SLOAD PUSH1 0x40 DUP1 MLOAD PUSH4 0x712D9171 PUSH1 0xE0 SHL DUP2 MSTORE SWAP1 MLOAD PUSH1 0x0 SWAP3 PUSH1 0x1 PUSH1 0x1 PUSH1 0xA0 SHL SUB AND SWAP2 PUSH4 0x712D9171 SWAP2 PUSH1 0x4 DUP1 DUP4 ADD SWAP3 PUSH1 0x20 SWAP3 SWAP2 SWAP1 DUP3 SWAP1 SUB ADD DUP2 DUP7 DUP1 EXTCODESIZE ISZERO DUP1 ISZERO PUSH2 0x447 JUMPI PUSH1 0x0 DUP1 REVERT JUMPDEST POP GAS STATICCALL ISZERO DUP1 ISZERO PUSH2 0x45B JUMPI RETURNDATASIZE PUSH1 0x0 DUP1 RETURNDATACOPY RETURNDATASIZE PUSH1 0x0 REVERT JUMPDEST POP POP POP POP PUSH1 0x40 MLOAD RETURNDATASIZE PUSH1 0x1F NOT PUSH1 0x1F DUP3 ADD AND DUP3 ADD DUP1 PUSH1 0x40 MSTORE POP DUP2 ADD SWAP1 PUSH2 0x47F SWAP2 SWAP1 PUSH2 0x47C6 JUMP JUMPDEST SWAP1 POP PUSH1 0x0 PUSH1 0x60 DUP3 PUSH1 0x1 PUSH1 0x1 PUSH1 0xA0 SHL SUB AND DUP9 DUP9 DUP9 DUP9 DUP9 PUSH1 0x40 MLOAD PUSH1 0x24 ADD PUSH2 0x4A8 SWAP6 SWAP5 SWAP4 SWAP3 SWAP2 SWAP1 PUSH2 0x4E80 JUMP JUMPDEST PUSH1 0x40 DUP1 MLOAD PUSH1 0x1F NOT DUP2 DUP5 SUB ADD DUP2 MSTORE SWAP2 DUP2 MSTORE PUSH1 0x20 DUP3 ADD DUP1 MLOAD PUSH1 0x1 PUSH1 0x1 PUSH1 0xE0 SHL SUB AND PUSH3 0xA718A9 PUSH1 0xE0 SHL OR SWAP1 MSTORE MLOAD PUSH2 0x4DC SWAP2 SWAP1 PUSH2 0x4DDC JUMP JUMPDEST PUSH1 0x0 PUSH1 0x40 MLOAD DUP1 DUP4 SUB DUP2 DUP6 GAS DELEGATECALL SWAP2 POP POP RETURNDATASIZE DUP1 PUSH1 0x0 DUP2 EQ PUSH2 0x517 JUMPI PUSH1 0x40 MLOAD SWAP2 POP PUSH1 0x1F NOT PUSH1 0x3F RETURNDATASIZE ADD AND DUP3 ADD PUSH1 0x40 MSTORE RETURNDATASIZE DUP3 MSTORE RETURNDATASIZE PUSH1 0x0 PUSH1 0x20 DUP5 ADD RETURNDATACOPY PUSH2 0x51C JUMP JUMPDEST PUSH1 0x60 SWAP2 POP JUMPDEST POP SWAP2 POP SWAP2 POP DUP2 PUSH1 0x40 MLOAD DUP1 PUSH1 0x40 ADD PUSH1 0x40 MSTORE DUP1 PUSH1 0x2 DUP2 MSTORE PUSH1 0x20 ADD PUSH2 0x3233 PUSH1 0xF0 SHL DUP2 MSTORE POP SWAP1 PUSH2 0x564 JUMPI PUSH1 0x40 MLOAD PUSH3 0x461BCD PUSH1 0xE5 SHL DUP2 MSTORE PUSH1 0x4 ADD PUSH2 0x55B SWAP2 SWAP1 PUSH2 0x5120 JUMP JUMPDEST PUSH1 0x40 MLOAD DUP1 SWAP2 SUB SWAP1 REVERT JUMPDEST POP PUSH1 0x0 PUSH1 0x60 DUP3 DUP1 PUSH1 0x20 ADD SWAP1 MLOAD DUP2 ADD SWAP1 PUSH2 0x57D SWAP2 SWAP1 PUSH2 0x4C01 JUMP JUMPDEST SWAP2 POP SWAP2 POP DUP2 PUSH1 0x0 EQ DUP2 PUSH1 0x40 MLOAD PUSH1 0x20 ADD PUSH2 0x596 SWAP2 SWAP1 PUSH2 0x4DDC JUMP JUMPDEST PUSH1 0x40 MLOAD PUSH1 0x20 DUP2 DUP4 SUB SUB DUP2 MSTORE SWAP1 PUSH1 0x40 MSTORE SWAP1 PUSH2 0x5C3 JUMPI PUSH1 0x40 MLOAD PUSH3 0x461BCD PUSH1 0xE5 SHL DUP2 MSTORE PUSH1 0x4 ADD PUSH2 0x55B SWAP2 SWAP1 PUSH2 0x5120 JUMP JUMPDEST POP POP POP POP POP POP POP POP POP POP POP JUMP JUMPDEST PUSH1 0x9 DUP2 JUMP JUMPDEST PUSH2 0x5DD PUSH2 0x2525 JUMP JUMPDEST PUSH1 0x1 PUSH1 0x1 PUSH1 0xA0 SHL SUB SWAP2 DUP3 AND PUSH1 0x0 SWAP1 DUP2 MSTORE PUSH1 0x35 PUSH1 0x20 MSTORE PUSH1 0x40 SWAP1 KECCAK256 PUSH1 0x7 ADD DUP1 SLOAD PUSH1 0x1 PUSH1 0x1 PUSH1 0xA0 SHL SUB NOT AND SWAP2 SWAP1 SWAP3 AND OR SWAP1 SSTORE JUMP JUMPDEST PUSH2 0x616 PUSH2 0x44F8 JUMP JUMPDEST POP PUSH1 0x1 PUSH1 0x1 PUSH1 0xA0 SHL SUB DUP2 DUP2 AND PUSH1 0x0 SWAP1 DUP2 MSTORE PUSH1 0x35 PUSH1 0x20 SWAP1 DUP2 MSTORE PUSH1 0x40 SWAP2 DUP3 SWAP1 KECCAK256 DUP3 MLOAD PUSH2 0x1A0 DUP2 ADD DUP5 MSTORE DUP2 SLOAD PUSH2 0x180 DUP3 ADD SWAP1 DUP2 MSTORE DUP2 MSTORE PUSH1 0x1 DUP3 ADD SLOAD PUSH1 0x1 PUSH1 0x1 PUSH1 0x80 SHL SUB DUP1 DUP3 AND SWAP5 DUP4 ADD SWAP5 SWAP1 SWAP5 MSTORE PUSH1 0x1 PUSH1 0x80 SHL SWAP1 DUP2 SWAP1 DIV DUP5 AND SWAP5 DUP3 ADD SWAP5 SWAP1 SWAP5 MSTORE PUSH1 0x2 DUP3 ADD SLOAD DUP1 DUP5 AND PUSH1 0x60 DUP4 ADD MSTORE DUP5 SWAP1 DIV DUP4 AND PUSH1 0x80 DUP3 ADD MSTORE PUSH1 0x3 DUP3 ADD SLOAD SWAP3 DUP4 AND PUSH1 0xA0 DUP3 ADD MSTORE SWAP3 SWAP1 SWAP2 DIV PUSH5 0xFFFFFFFFFF AND PUSH1 0xC0 DUP4 ADD MSTORE PUSH1 0x4 DUP2 ADD SLOAD DUP4 AND PUSH1 0xE0 DUP4 ADD MSTORE PUSH1 0x5 DUP2 ADD SLOAD DUP4 AND PUSH2 0x100 DUP4 ADD MSTORE PUSH1 0x6 DUP2 ADD SLOAD DUP4 AND PUSH2 0x120 DUP4 ADD MSTORE PUSH1 0x7 ADD SLOAD SWAP2 DUP3 AND PUSH2 0x140 DUP3 ADD MSTORE PUSH1 0x1 PUSH1 0xA0 SHL SWAP1 SWAP2 DIV PUSH1 0xFF AND PUSH2 0x160 DUP3 ADD MSTORE JUMPDEST SWAP2 SWAP1 POP JUMP JUMPDEST PUSH1 0x1 PUSH1 0x1 PUSH1 0xA0 SHL SUB DUP2 AND PUSH1 0x0 SWAP1 DUP2 MSTORE PUSH1 0x35 PUSH1 0x20 MSTORE PUSH1 0x40 DUP2 KECCAK256 PUSH2 0x711 SWAP1 PUSH2 0x25E4 JUMP JUMPDEST SWAP3 SWAP2 POP POP JUMP JUMPDEST PUSH2 0x71F PUSH2 0x4563 JUMP JUMPDEST POP PUSH1 0x1 PUSH1 0x1 PUSH1 0xA0 SHL SUB AND PUSH1 0x0 SWAP1 DUP2 MSTORE PUSH1 0x36 PUSH1 0x20 SWAP1 DUP2 MSTORE PUSH1 0x40 SWAP2 DUP3 SWAP1 KECCAK256 DUP3 MLOAD SWAP2 DUP3 ADD SWAP1 SWAP3 MSTORE SWAP1 SLOAD DUP2 MSTORE SWAP1 JUMP JUMPDEST PUSH1 0x0 PUSH2 0x754 PUSH2 0x24E7 JUMP JUMPDEST PUSH1 0x1 PUSH1 0x1 PUSH1 0xA0 SHL SUB DUP6 AND PUSH1 0x0 SWAP1 DUP2 MSTORE PUSH1 0x35 PUSH1 0x20 MSTORE PUSH1 0x40 DUP2 KECCAK256 SWAP1 DUP1 PUSH2 0x778 DUP6 DUP5 PUSH2 0x2661 JUMP JUMPDEST SWAP2 POP SWAP2 POP PUSH1 0x0 DUP7 PUSH1 0x2 DUP2 GT ISZERO PUSH2 0x78A JUMPI INVALID JUMPDEST PUSH1 0x40 MLOAD PUSH4 0xFA0C2149 PUSH1 0xE0 SHL DUP2 MSTORE SWAP1 SWAP2 POP PUSH20 0x0 SWAP1 PUSH4 0xFA0C2149 SWAP1 PUSH2 0x7CE SWAP1 DUP8 SWAP1 DUP13 SWAP1 DUP7 SWAP1 DUP13 SWAP1 DUP11 SWAP1 DUP11 SWAP1 PUSH1 0x4 ADD PUSH2 0x5480 JUMP JUMPDEST PUSH1 0x0 PUSH1 0x40 MLOAD DUP1 DUP4 SUB DUP2 DUP7 DUP1 EXTCODESIZE ISZERO DUP1 ISZERO PUSH2 0x7E6 JUMPI PUSH1 0x0 DUP1 REVERT JUMPDEST POP GAS DELEGATECALL ISZERO DUP1 ISZERO PUSH2 0x7FA JUMPI RETURNDATASIZE PUSH1 0x0 DUP1 RETURNDATACOPY RETURNDATASIZE PUSH1 0x0 REVERT JUMPDEST POP PUSH1 0x0 SWAP3 POP PUSH1 0x1 SWAP2 POP PUSH2 0x80A SWAP1 POP JUMP JUMPDEST DUP3 PUSH1 0x2 DUP2 GT ISZERO PUSH2 0x816 JUMPI INVALID JUMPDEST EQ PUSH2 0x821 JUMPI DUP3 PUSH2 0x823 JUMP JUMPDEST DUP4 JUMPDEST SWAP1 POP DUP1 DUP10 LT ISZERO PUSH2 0x830 JUMPI POP DUP8 JUMPDEST PUSH2 0x839 DUP6 PUSH2 0x2776 JUMP JUMPDEST PUSH1 0x1 DUP3 PUSH1 0x2 DUP2 GT ISZERO PUSH2 0x847 JUMPI INVALID JUMPDEST EQ ISZERO PUSH2 0x8B8 JUMPI PUSH1 0x5 DUP6 ADD SLOAD PUSH1 0x40 MLOAD PUSH4 0x2770A7EB PUSH1 0xE2 SHL DUP2 MSTORE PUSH1 0x1 PUSH1 0x1 PUSH1 0xA0 SHL SUB SWAP1 SWAP2 AND SWAP1 PUSH4 0x9DC29FAC SWAP1 PUSH2 0x881 SWAP1 DUP11 SWAP1 DUP6 SWAP1 PUSH1 0x4 ADD PUSH2 0x4E3D JUMP JUMPDEST PUSH1 0x0 PUSH1 0x40 MLOAD DUP1 DUP4 SUB DUP2 PUSH1 0x0 DUP8 DUP1 EXTCODESIZE ISZERO DUP1 ISZERO PUSH2 0x89B JUMPI PUSH1 0x0 DUP1 REVERT JUMPDEST POP GAS CALL ISZERO DUP1 ISZERO PUSH2 0x8AF JUMPI RETURNDATASIZE PUSH1 0x0 DUP1 RETURNDATACOPY RETURNDATASIZE PUSH1 0x0 REVERT JUMPDEST POP POP POP POP PUSH2 0x936 JUMP JUMPDEST PUSH1 0x6 DUP6 ADD SLOAD PUSH1 0x1 DUP7 ADD SLOAD PUSH1 0x40 MLOAD PUSH4 0x7A94C565 PUSH1 0xE1 SHL DUP2 MSTORE PUSH1 0x1 PUSH1 0x1 PUSH1 0xA0 SHL SUB SWAP1 SWAP3 AND SWAP2 PUSH4 0xF5298ACA SWAP2 PUSH2 0x903 SWAP2 DUP12 SWAP2 DUP7 SWAP2 PUSH1 0x1 PUSH1 0x80 SHL SWAP1 SWAP2 DIV PUSH1 0x1 PUSH1 0x1 PUSH1 0x80 SHL SUB AND SWAP1 PUSH1 0x4 ADD PUSH2 0x4E56 JUMP JUMPDEST PUSH1 0x0 PUSH1 0x40 MLOAD DUP1 DUP4 SUB DUP2 PUSH1 0x0 DUP8 DUP1 EXTCODESIZE ISZERO DUP1 ISZERO PUSH2 0x91D JUMPI PUSH1 0x0 DUP1 REVERT JUMPDEST POP GAS CALL ISZERO DUP1 ISZERO PUSH2 0x931 JUMPI RETURNDATASIZE PUSH1 0x0 DUP1 RETURNDATACOPY RETURNDATASIZE PUSH1 0x0 REVERT JUMPDEST POP POP POP POP JUMPDEST PUSH1 0x4 DUP6 ADD SLOAD PUSH1 0x1 PUSH1 0x1 PUSH1 0xA0 SHL SUB AND PUSH2 0x952 DUP7 DUP13 DUP4 DUP6 PUSH1 0x0 PUSH2 0x2843 JUMP JUMPDEST PUSH2 0x966 DUP3 PUSH2 0x960 DUP8 DUP8 PUSH2 0x2C35 JUMP JUMPDEST SWAP1 PUSH2 0x2C5A JUMP JUMPDEST PUSH2 0x99E JUMPI PUSH1 0x7 DUP7 ADD SLOAD PUSH1 0x1 PUSH1 0x1 PUSH1 0xA0 SHL SUB DUP10 AND PUSH1 0x0 SWAP1 DUP2 MSTORE PUSH1 0x36 PUSH1 0x20 MSTORE PUSH1 0x40 DUP2 KECCAK256 PUSH2 0x99E SWAP3 SWAP1 SWAP2 PUSH1 0x1 PUSH1 0xA0 SHL SWAP1 SWAP2 DIV PUSH1 0xFF AND SWAP1 PUSH2 0x2C9C JUMP JUMPDEST PUSH2 0x9B3 PUSH1 0x1 PUSH1 0x1 PUSH1 0xA0 SHL SUB DUP13 AND CALLER DUP4 DUP6 PUSH2 0x2D0C JUMP JUMPDEST CALLER PUSH1 0x1 PUSH1 0x1 PUSH1 0xA0 SHL SUB AND DUP9 PUSH1 0x1 PUSH1 0x1 PUSH1 0xA0 SHL SUB AND DUP13 PUSH1 0x1 PUSH1 0x1 PUSH1 0xA0 SHL SUB AND PUSH32 0x4CDDE6E09BB755C9A5589EBAEC640BBFEDFF1362D4B255EBF8339782B9942FAA DUP6 PUSH1 0x40 MLOAD PUSH2 0xA00 SWAP2 SWAP1 PUSH2 0x54C4 JUMP JUMPDEST PUSH1 0x40 MLOAD DUP1 SWAP2 SUB SWAP1 LOG4 POP SWAP10 SWAP9 POP POP POP POP POP POP POP POP POP JUMP JUMPDEST PUSH2 0xA1E PUSH2 0x24E7 JUMP JUMPDEST PUSH1 0x1 PUSH1 0x1 PUSH1 0xA0 SHL SUB DUP1 DUP4 AND PUSH1 0x0 SWAP1 DUP2 MSTORE PUSH1 0x35 PUSH1 0x20 DUP2 DUP2 MSTORE PUSH1 0x40 DUP1 DUP5 KECCAK256 CALLER DUP6 MSTORE PUSH1 0x36 DUP4 MSTORE SWAP4 DUP2 SWAP1 KECCAK256 PUSH1 0x38 SLOAD PUSH1 0x34 SLOAD DUP4 MLOAD PUSH4 0x1F94A275 PUSH1 0xE3 SHL DUP2 MSTORE SWAP4 MLOAD SWAP7 SWAP8 PUSH20 0x0 SWAP8 PUSH4 0x5FA297E5 SWAP8 DUP11 SWAP8 DUP14 SWAP8 DUP14 SWAP8 SWAP3 SWAP7 SWAP3 SWAP6 PUSH1 0x37 SWAP6 SWAP4 SWAP5 SWAP4 AND SWAP3 PUSH4 0xFCA513A8 SWAP3 PUSH1 0x4 DUP1 DUP5 ADD SWAP4 SWAP2 SWAP3 SWAP2 DUP3 SWAP1 SUB ADD DUP2 DUP7 DUP1 EXTCODESIZE ISZERO DUP1 ISZERO PUSH2 0xAAC JUMPI PUSH1 0x0 DUP1 REVERT JUMPDEST POP GAS STATICCALL ISZERO DUP1 ISZERO PUSH2 0xAC0 JUMPI RETURNDATASIZE PUSH1 0x0 DUP1 RETURNDATACOPY RETURNDATASIZE PUSH1 0x0 REVERT JUMPDEST POP POP POP POP PUSH1 0x40 MLOAD RETURNDATASIZE PUSH1 0x1F NOT PUSH1 0x1F DUP3 ADD AND DUP3 ADD DUP1 PUSH1 0x40 MSTORE POP DUP2 ADD SWAP1 PUSH2 0xAE4 SWAP2 SWAP1 PUSH2 0x47C6 JUMP JUMPDEST PUSH1 0x40 MLOAD DUP10 PUSH4 0xFFFFFFFF AND PUSH1 0xE0 SHL DUP2 MSTORE PUSH1 0x4 ADD PUSH2 0xB07 SWAP9 SWAP8 SWAP7 SWAP6 SWAP5 SWAP4 SWAP3 SWAP2 SWAP1 PUSH2 0x53FA JUMP JUMPDEST PUSH1 0x0 PUSH1 0x40 MLOAD DUP1 DUP4 SUB DUP2 DUP7 DUP1 EXTCODESIZE ISZERO DUP1 ISZERO PUSH2 0xB1F JUMPI PUSH1 0x0 DUP1 REVERT JUMPDEST POP GAS DELEGATECALL ISZERO DUP1 ISZERO PUSH2 0xB33 JUMPI RETURNDATASIZE PUSH1 0x0 DUP1 RETURNDATACOPY RETURNDATASIZE PUSH1 0x0 REVERT JUMPDEST POP POP POP POP PUSH1 0x7 DUP2 ADD SLOAD CALLER PUSH1 0x0 SWAP1 DUP2 MSTORE PUSH1 0x36 PUSH1 0x20 MSTORE PUSH1 0x40 SWAP1 KECCAK256 PUSH2 0xB5F SWAP2 PUSH1 0x1 PUSH1 0xA0 SHL SWAP1 DIV PUSH1 0xFF AND DUP5 PUSH2 0x2D6A JUMP JUMPDEST DUP2 ISZERO PUSH2 0xB9F JUMPI PUSH1 0x40 MLOAD CALLER SWAP1 PUSH1 0x1 PUSH1 0x1 PUSH1 0xA0 SHL SUB DUP6 AND SWAP1 PUSH31 0x58A56EA94653CDF4F152D227ACE22D4C00AD99E2A43F58CB7D9E3FEB295F2 SWAP1 PUSH1 0x0 SWAP1 LOG3 PUSH2 0xBD6 JUMP JUMPDEST PUSH1 0x40 MLOAD CALLER SWAP1 PUSH1 0x1 PUSH1 0x1 PUSH1 0xA0 SHL SUB DUP6 AND SWAP1 PUSH32 0x44C58D81365B66DD4B1A7F36C25AA97B8C71C361EE4937ADC1A00000227DB5DD SWAP1 PUSH1 0x0 SWAP1 LOG3 JUMPDEST POP POP POP JUMP JUMPDEST PUSH1 0x39 SLOAD PUSH1 0xFF AND SWAP1 JUMP JUMPDEST PUSH1 0x0 PUSH2 0xBEE PUSH2 0x24E7 JUMP JUMPDEST PUSH1 0x1 PUSH1 0x1 PUSH1 0xA0 SHL SUB DUP1 DUP6 AND PUSH1 0x0 SWAP1 DUP2 MSTORE PUSH1 0x35 PUSH1 0x20 MSTORE PUSH1 0x40 DUP1 DUP3 KECCAK256 PUSH1 0x4 DUP1 DUP3 ADD SLOAD SWAP3 MLOAD PUSH4 0x70A08231 PUSH1 0xE0 SHL DUP2 MSTORE SWAP2 SWAP5 SWAP3 SWAP1 SWAP3 AND SWAP3 SWAP2 DUP4 SWAP2 PUSH4 0x70A08231 SWAP2 PUSH2 0xC36 SWAP2 CALLER SWAP2 ADD PUSH2 0x4DF8 JUMP JUMPDEST PUSH1 0x20 PUSH1 0x40 MLOAD DUP1 DUP4 SUB DUP2 DUP7 DUP1 EXTCODESIZE ISZERO DUP1 ISZERO PUSH2 0xC4E JUMPI PUSH1 0x0 DUP1 REVERT JUMPDEST POP GAS STATICCALL ISZERO DUP1 ISZERO PUSH2 0xC62 JUMPI RETURNDATASIZE PUSH1 0x0 DUP1 RETURNDATACOPY RETURNDATASIZE PUSH1 0x0 REVERT JUMPDEST POP POP POP POP PUSH1 0x40 MLOAD RETURNDATASIZE PUSH1 0x1F NOT PUSH1 0x1F DUP3 ADD AND DUP3 ADD DUP1 PUSH1 0x40 MSTORE POP DUP2 ADD SWAP1 PUSH2 0xC86 SWAP2 SWAP1 PUSH2 0x4BE9 JUMP JUMPDEST SWAP1 POP DUP6 PUSH1 0x0 NOT DUP2 EQ ISZERO PUSH2 0xC96 JUMPI POP DUP1 JUMPDEST PUSH20 0x0 PUSH4 0xD09DB04A DUP10 DUP4 DUP6 PUSH1 0x35 PUSH1 0x36 PUSH1 0x0 CALLER PUSH1 0x1 PUSH1 0x1 PUSH1 0xA0 SHL SUB AND PUSH1 0x1 PUSH1 0x1 PUSH1 0xA0 SHL SUB AND DUP2 MSTORE PUSH1 0x20 ADD SWAP1 DUP2 MSTORE PUSH1 0x20 ADD PUSH1 0x0 KECCAK256 PUSH1 0x37 PUSH1 0x38 SLOAD PUSH1 0x34 PUSH1 0x0 SWAP1 SLOAD SWAP1 PUSH2 0x100 EXP SWAP1 DIV PUSH1 0x1 PUSH1 0x1 PUSH1 0xA0 SHL SUB AND PUSH1 0x1 PUSH1 0x1 PUSH1 0xA0 SHL SUB AND PUSH4 0xFCA513A8 PUSH1 0x40 MLOAD DUP2 PUSH4 0xFFFFFFFF AND PUSH1 0xE0 SHL DUP2 MSTORE PUSH1 0x4 ADD PUSH1 0x20 PUSH1 0x40 MLOAD DUP1 DUP4 SUB DUP2 DUP7 DUP1 EXTCODESIZE ISZERO DUP1 ISZERO PUSH2 0xD2D JUMPI PUSH1 0x0 DUP1 REVERT JUMPDEST POP GAS STATICCALL ISZERO DUP1 ISZERO PUSH2 0xD41 JUMPI RETURNDATASIZE PUSH1 0x0 DUP1 RETURNDATACOPY RETURNDATASIZE PUSH1 0x0 REVERT JUMPDEST POP POP POP POP PUSH1 0x40 MLOAD RETURNDATASIZE PUSH1 0x1F NOT PUSH1 0x1F DUP3 ADD AND DUP3 ADD DUP1 PUSH1 0x40 MSTORE POP DUP2 ADD SWAP1 PUSH2 0xD65 SWAP2 SWAP1 PUSH2 0x47C6 JUMP JUMPDEST PUSH1 0x40 MLOAD DUP10 PUSH4 0xFFFFFFFF AND PUSH1 0xE0 SHL DUP2 MSTORE PUSH1 0x4 ADD PUSH2 0xD88 SWAP9 SWAP8 SWAP7 SWAP6 SWAP5 SWAP4 SWAP3 SWAP2 SWAP1 PUSH2 0x4F65 JUMP JUMPDEST PUSH1 0x0 PUSH1 0x40 MLOAD DUP1 DUP4 SUB DUP2 DUP7 DUP1 EXTCODESIZE ISZERO DUP1 ISZERO PUSH2 0xDA0 JUMPI PUSH1 0x0 DUP1 REVERT JUMPDEST POP GAS DELEGATECALL ISZERO DUP1 ISZERO PUSH2 0xDB4 JUMPI RETURNDATASIZE PUSH1 0x0 DUP1 RETURNDATACOPY RETURNDATASIZE PUSH1 0x0 REVERT JUMPDEST POP POP POP POP PUSH2 0xDC1 DUP5 PUSH2 0x2776 JUMP JUMPDEST PUSH2 0xDCF DUP5 DUP10 DUP6 PUSH1 0x0 DUP6 PUSH2 0x2843 JUMP JUMPDEST DUP2 DUP2 EQ ISZERO PUSH2 0xE39 JUMPI PUSH1 0x7 DUP5 ADD SLOAD CALLER PUSH1 0x0 SWAP1 DUP2 MSTORE PUSH1 0x36 PUSH1 0x20 MSTORE PUSH1 0x40 DUP2 KECCAK256 PUSH2 0xE02 SWAP3 SWAP1 SWAP2 PUSH1 0x1 PUSH1 0xA0 SHL SWAP1 SWAP2 DIV PUSH1 0xFF AND SWAP1 PUSH2 0x2D6A JUMP JUMPDEST PUSH1 0x40 MLOAD CALLER SWAP1 PUSH1 0x1 PUSH1 0x1 PUSH1 0xA0 SHL SUB DUP11 AND SWAP1 PUSH32 0x44C58D81365B66DD4B1A7F36C25AA97B8C71C361EE4937ADC1A00000227DB5DD SWAP1 PUSH1 0x0 SWAP1 LOG3 JUMPDEST PUSH1 0x1 DUP5 ADD SLOAD PUSH1 0x40 MLOAD PUSH4 0x6B810685 PUSH1 0xE1 SHL DUP2 MSTORE PUSH1 0x1 PUSH1 0x1 PUSH1 0xA0 SHL SUB DUP6 AND SWAP2 PUSH4 0xD7020D0A SWAP2 PUSH2 0xE7A SWAP2 CALLER SWAP2 DUP12 SWAP2 DUP8 SWAP2 PUSH1 0x1 PUSH1 0x1 PUSH1 0x80 SHL SUB SWAP1 SWAP2 AND SWAP1 PUSH1 0x4 ADD PUSH2 0x4E0C JUMP JUMPDEST PUSH1 0x0 PUSH1 0x40 MLOAD DUP1 DUP4 SUB DUP2 PUSH1 0x0 DUP8 DUP1 EXTCODESIZE ISZERO DUP1 ISZERO PUSH2 0xE94 JUMPI PUSH1 0x0 DUP1 REVERT JUMPDEST POP GAS CALL ISZERO DUP1 ISZERO PUSH2 0xEA8 JUMPI RETURNDATASIZE PUSH1 0x0 DUP1 RETURNDATACOPY RETURNDATASIZE PUSH1 0x0 REVERT JUMPDEST POP POP POP POP DUP6 PUSH1 0x1 PUSH1 0x1 PUSH1 0xA0 SHL SUB AND CALLER PUSH1 0x1 PUSH1 0x1 PUSH1 0xA0 SHL SUB AND DUP10 PUSH1 0x1 PUSH1 0x1 PUSH1 0xA0 SHL SUB AND PUSH32 0x3115D1449A7B732C986CBA18244E897A450F61E1BB8D589CD2E69E6C8924F9F7 DUP5 PUSH1 0x40 MLOAD PUSH2 0xEF9 SWAP2 SWAP1 PUSH2 0x54C4 JUMP JUMPDEST PUSH1 0x40 MLOAD DUP1 SWAP2 SUB SWAP1 LOG4 SWAP4 POP POP POP POP JUMPDEST SWAP4 SWAP3 POP POP POP JUMP JUMPDEST PUSH2 0xF16 PUSH2 0x2525 JUMP JUMPDEST PUSH2 0xF1F DUP6 PUSH2 0x2DE0 JUMP JUMPDEST PUSH1 0x40 MLOAD DUP1 PUSH1 0x40 ADD PUSH1 0x40 MSTORE DUP1 PUSH1 0x2 DUP2 MSTORE PUSH1 0x20 ADD PUSH2 0x6E7 PUSH1 0xF3 SHL DUP2 MSTORE POP SWAP1 PUSH2 0xF58 JUMPI PUSH1 0x40 MLOAD PUSH3 0x461BCD PUSH1 0xE5 SHL DUP2 MSTORE PUSH1 0x4 ADD PUSH2 0x55B SWAP2 SWAP1 PUSH2 0x5120 JUMP JUMPDEST POP PUSH1 0x1 PUSH1 0x1 PUSH1 0xA0 SHL SUB DUP6 AND PUSH1 0x0 SWAP1 DUP2 MSTORE PUSH1 0x35 PUSH1 0x20 MSTORE PUSH1 0x40 SWAP1 DUP2 SWAP1 KECCAK256 SWAP1 MLOAD PUSH4 0xACCE25F PUSH1 0xE2 SHL DUP2 MSTORE PUSH20 0x0 SWAP2 PUSH4 0x2B33897C SWAP2 PUSH2 0xFB0 SWAP2 SWAP1 DUP9 SWAP1 DUP9 SWAP1 DUP9 SWAP1 DUP9 SWAP1 PUSH1 0x4 ADD PUSH2 0x53CC JUMP JUMPDEST PUSH1 0x0 PUSH1 0x40 MLOAD DUP1 DUP4 SUB DUP2 DUP7 DUP1 EXTCODESIZE ISZERO DUP1 ISZERO PUSH2 0xFC8 JUMPI PUSH1 0x0 DUP1 REVERT JUMPDEST POP GAS DELEGATECALL ISZERO DUP1 ISZERO PUSH2 0xFDC JUMPI RETURNDATASIZE PUSH1 0x0 DUP1 RETURNDATACOPY RETURNDATASIZE PUSH1 0x0 REVERT JUMPDEST POP POP POP POP PUSH2 0xFE9 DUP6 PUSH2 0x2E19 JUMP JUMPDEST POP POP POP POP POP JUMP JUMPDEST PUSH1 0x1 DUP2 JUMP JUMPDEST PUSH2 0xFFD PUSH2 0x24E7 JUMP JUMPDEST PUSH1 0x1 PUSH1 0x1 PUSH1 0xA0 SHL SUB DUP3 AND PUSH1 0x0 SWAP1 DUP2 MSTORE PUSH1 0x35 PUSH1 0x20 MSTORE PUSH1 0x40 DUP2 KECCAK256 SWAP1 DUP1 PUSH2 0x1021 CALLER DUP5 PUSH2 0x2661 JUMP JUMPDEST SWAP2 POP SWAP2 POP PUSH1 0x0 DUP5 PUSH1 0x2 DUP2 GT ISZERO PUSH2 0x1033 JUMPI INVALID JUMPDEST CALLER PUSH1 0x0 SWAP1 DUP2 MSTORE PUSH1 0x36 PUSH1 0x20 MSTORE PUSH1 0x40 SWAP1 DUP2 SWAP1 KECCAK256 SWAP1 MLOAD PUSH4 0xA8695B1D PUSH1 0xE0 SHL DUP2 MSTORE SWAP2 SWAP3 POP PUSH20 0x0 SWAP2 PUSH4 0xA8695B1D SWAP2 PUSH2 0x1084 SWAP2 DUP9 SWAP2 SWAP1 DUP9 SWAP1 DUP9 SWAP1 DUP9 SWAP1 PUSH1 0x4 ADD PUSH2 0x543C JUMP JUMPDEST PUSH1 0x0 PUSH1 0x40 MLOAD DUP1 DUP4 SUB DUP2 DUP7 DUP1 EXTCODESIZE ISZERO DUP1 ISZERO PUSH2 0x109C JUMPI PUSH1 0x0 DUP1 REVERT JUMPDEST POP GAS DELEGATECALL ISZERO DUP1 ISZERO PUSH2 0x10B0 JUMPI RETURNDATASIZE PUSH1 0x0 DUP1 RETURNDATACOPY RETURNDATASIZE PUSH1 0x0 REVERT JUMPDEST POP POP POP POP PUSH2 0x10BD DUP5 PUSH2 0x2776 JUMP JUMPDEST PUSH1 0x1 DUP2 PUSH1 0x2 DUP2 GT ISZERO PUSH2 0x10CB JUMPI INVALID JUMPDEST EQ ISZERO PUSH2 0x11DB JUMPI PUSH1 0x5 DUP5 ADD SLOAD PUSH1 0x40 MLOAD PUSH4 0x2770A7EB PUSH1 0xE2 SHL DUP2 MSTORE PUSH1 0x1 PUSH1 0x1 PUSH1 0xA0 SHL SUB SWAP1 SWAP2 AND SWAP1 PUSH4 0x9DC29FAC SWAP1 PUSH2 0x1105 SWAP1 CALLER SWAP1 DUP8 SWAP1 PUSH1 0x4 ADD PUSH2 0x4E3D JUMP JUMPDEST PUSH1 0x0 PUSH1 0x40 MLOAD DUP1 DUP4 SUB DUP2 PUSH1 0x0 DUP8 DUP1 EXTCODESIZE ISZERO DUP1 ISZERO PUSH2 0x111F JUMPI PUSH1 0x0 DUP1 REVERT JUMPDEST POP GAS CALL ISZERO DUP1 ISZERO PUSH2 0x1133 JUMPI RETURNDATASIZE PUSH1 0x0 DUP1 RETURNDATACOPY RETURNDATASIZE PUSH1 0x0 REVERT JUMPDEST POP POP POP POP PUSH1 0x6 DUP5 ADD SLOAD PUSH1 0x1 DUP6 ADD SLOAD PUSH1 0x40 MLOAD PUSH4 0xB3F1C93D PUSH1 0xE0 SHL DUP2 MSTORE PUSH1 0x1 PUSH1 0x1 PUSH1 0xA0 SHL SUB SWAP1 SWAP3 AND SWAP2 PUSH4 0xB3F1C93D SWAP2 PUSH2 0x1183 SWAP2 CALLER SWAP2 DUP3 SWAP2 DUP10 SWAP2 PUSH1 0x1 PUSH1 0x80 SHL SWAP1 DIV PUSH1 0x1 PUSH1 0x1 PUSH1 0x80 SHL SUB AND SWAP1 PUSH1 0x4 ADD PUSH2 0x4E0C JUMP JUMPDEST PUSH1 0x20 PUSH1 0x40 MLOAD DUP1 DUP4 SUB DUP2 PUSH1 0x0 DUP8 DUP1 EXTCODESIZE ISZERO DUP1 ISZERO PUSH2 0x119D JUMPI PUSH1 0x0 DUP1 REVERT JUMPDEST POP GAS CALL ISZERO DUP1 ISZERO PUSH2 0x11B1 JUMPI RETURNDATASIZE PUSH1 0x0 DUP1 RETURNDATACOPY RETURNDATASIZE PUSH1 0x0 REVERT JUMPDEST POP POP POP POP PUSH1 0x40 MLOAD RETURNDATASIZE PUSH1 0x1F NOT PUSH1 0x1F DUP3 ADD AND DUP3 ADD DUP1 PUSH1 0x40 MSTORE POP DUP2 ADD SWAP1 PUSH2 0x11D5 SWAP2 SWAP1 PUSH2 0x4BCD JUMP JUMPDEST POP PUSH2 0x12F1 JUMP JUMPDEST PUSH1 0x6 DUP5 ADD SLOAD PUSH1 0x1 DUP6 ADD SLOAD PUSH1 0x40 MLOAD PUSH4 0x7A94C565 PUSH1 0xE1 SHL DUP2 MSTORE PUSH1 0x1 PUSH1 0x1 PUSH1 0xA0 SHL SUB SWAP1 SWAP3 AND SWAP2 PUSH4 0xF5298ACA SWAP2 PUSH2 0x1226 SWAP2 CALLER SWAP2 DUP8 SWAP2 PUSH1 0x1 PUSH1 0x80 SHL SWAP1 SWAP2 DIV PUSH1 0x1 PUSH1 0x1 PUSH1 0x80 SHL SUB AND SWAP1 PUSH1 0x4 ADD PUSH2 0x4E56 JUMP JUMPDEST PUSH1 0x0 PUSH1 0x40 MLOAD DUP1 DUP4 SUB DUP2 PUSH1 0x0 DUP8 DUP1 EXTCODESIZE ISZERO DUP1 ISZERO PUSH2 0x1240 JUMPI PUSH1 0x0 DUP1 REVERT JUMPDEST POP GAS CALL ISZERO DUP1 ISZERO PUSH2 0x1254 JUMPI RETURNDATASIZE PUSH1 0x0 DUP1 RETURNDATACOPY RETURNDATASIZE PUSH1 0x0 REVERT JUMPDEST POP POP POP POP PUSH1 0x5 DUP5 ADD SLOAD PUSH1 0x3 DUP6 ADD SLOAD PUSH1 0x40 MLOAD PUSH4 0xB3F1C93D PUSH1 0xE0 SHL DUP2 MSTORE PUSH1 0x1 PUSH1 0x1 PUSH1 0xA0 SHL SUB SWAP1 SWAP3 AND SWAP2 PUSH4 0xB3F1C93D SWAP2 PUSH2 0x129D SWAP2 CALLER SWAP2 DUP3 SWAP2 DUP9 SWAP2 PUSH1 0x1 PUSH1 0x1 PUSH1 0x80 SHL SUB AND SWAP1 PUSH1 0x4 ADD PUSH2 0x4E0C JUMP JUMPDEST PUSH1 0x20 PUSH1 0x40 MLOAD DUP1 DUP4 SUB DUP2 PUSH1 0x0 DUP8 DUP1 EXTCODESIZE ISZERO DUP1 ISZERO PUSH2 0x12B7 JUMPI PUSH1 0x0 DUP1 REVERT JUMPDEST POP GAS CALL ISZERO DUP1 ISZERO PUSH2 0x12CB JUMPI RETURNDATASIZE PUSH1 0x0 DUP1 RETURNDATACOPY RETURNDATASIZE PUSH1 0x0 REVERT JUMPDEST POP POP POP POP PUSH1 0x40 MLOAD RETURNDATASIZE PUSH1 0x1F NOT PUSH1 0x1F DUP3 ADD AND DUP3 ADD DUP1 PUSH1 0x40 MSTORE POP DUP2 ADD SWAP1 PUSH2 0x12EF SWAP2 SWAP1 PUSH2 0x4BCD JUMP JUMPDEST POP JUMPDEST PUSH1 0x4 DUP5 ADD SLOAD PUSH2 0x130F SWAP1 DUP6 SWAP1 DUP9 SWAP1 PUSH1 0x1 PUSH1 0x1 PUSH1 0xA0 SHL SUB AND PUSH1 0x0 DUP1 PUSH2 0x2843 JUMP JUMPDEST CALLER PUSH1 0x1 PUSH1 0x1 PUSH1 0xA0 SHL SUB AND DUP7 PUSH1 0x1 PUSH1 0x1 PUSH1 0xA0 SHL SUB AND PUSH32 0xEA368A40E9570069BB8E6511D668293AD2E1F03B0D982431FD223DE9F3B70CA6 DUP8 PUSH1 0x40 MLOAD PUSH2 0x1352 SWAP2 SWAP1 PUSH2 0x54C4 JUMP JUMPDEST PUSH1 0x40 MLOAD DUP1 SWAP2 SUB SWAP1 LOG3 POP POP POP POP POP POP JUMP JUMPDEST PUSH2 0x136A PUSH2 0x24E7 JUMP JUMPDEST PUSH1 0x1 PUSH1 0x1 PUSH1 0xA0 SHL SUB DUP1 DUP7 AND PUSH1 0x0 DUP2 DUP2 MSTORE PUSH1 0x35 PUSH1 0x20 SWAP1 DUP2 MSTORE PUSH1 0x40 SWAP2 DUP3 SWAP1 KECCAK256 DUP3 MLOAD PUSH2 0x100 DUP2 ADD DUP5 MSTORE SWAP4 DUP5 MSTORE CALLER SWAP2 DUP5 ADD SWAP2 SWAP1 SWAP2 MSTORE DUP5 DUP5 AND SWAP2 DUP4 ADD SWAP2 SWAP1 SWAP2 MSTORE PUSH1 0x60 DUP3 ADD DUP8 SWAP1 MSTORE PUSH1 0x80 DUP3 ADD DUP7 SWAP1 MSTORE PUSH1 0x4 DUP2 ADD SLOAD SWAP1 SWAP3 AND PUSH1 0xA0 DUP3 ADD MSTORE PUSH2 0xFFFF DUP5 AND PUSH1 0xC0 DUP3 ADD MSTORE PUSH1 0x1 PUSH1 0xE0 DUP3 ADD MSTORE PUSH2 0x13DA SWAP1 PUSH2 0x2F20 JUMP JUMPDEST POP POP POP POP POP POP JUMP JUMPDEST PUSH2 0x13EA PUSH2 0x24E7 JUMP JUMPDEST PUSH2 0x13F2 PUSH2 0x4576 JUMP JUMPDEST PUSH2 0x145F DUP12 DUP12 DUP1 DUP1 PUSH1 0x20 MUL PUSH1 0x20 ADD PUSH1 0x40 MLOAD SWAP1 DUP2 ADD PUSH1 0x40 MSTORE DUP1 SWAP4 SWAP3 SWAP2 SWAP1 DUP2 DUP2 MSTORE PUSH1 0x20 ADD DUP4 DUP4 PUSH1 0x20 MUL DUP1 DUP3 DUP5 CALLDATACOPY PUSH1 0x0 SWAP3 ADD SWAP2 SWAP1 SWAP2 MSTORE POP POP PUSH1 0x40 DUP1 MLOAD PUSH1 0x20 DUP1 DUP16 MUL DUP3 DUP2 ADD DUP3 ADD SWAP1 SWAP4 MSTORE DUP15 DUP3 MSTORE SWAP1 SWAP4 POP DUP15 SWAP3 POP DUP14 SWAP2 DUP3 SWAP2 DUP6 ADD SWAP1 DUP5 SWAP1 DUP1 DUP3 DUP5 CALLDATACOPY PUSH1 0x0 SWAP3 ADD SWAP2 SWAP1 SWAP2 MSTORE POP PUSH2 0x3419 SWAP3 POP POP POP JUMP JUMPDEST PUSH1 0x60 DUP11 PUSH8 0xFFFFFFFFFFFFFFFF DUP2 GT DUP1 ISZERO PUSH2 0x1478 JUMPI PUSH1 0x0 DUP1 REVERT JUMPDEST POP PUSH1 0x40 MLOAD SWAP1 DUP1 DUP3 MSTORE DUP1 PUSH1 0x20 MUL PUSH1 0x20 ADD DUP3 ADD PUSH1 0x40 MSTORE DUP1 ISZERO PUSH2 0x14A2 JUMPI DUP2 PUSH1 0x20 ADD PUSH1 0x20 DUP3 MUL DUP1 CALLDATASIZE DUP4 CALLDATACOPY ADD SWAP1 POP JUMPDEST POP SWAP1 POP PUSH1 0x60 DUP12 PUSH8 0xFFFFFFFFFFFFFFFF DUP2 GT DUP1 ISZERO PUSH2 0x14BE JUMPI PUSH1 0x0 DUP1 REVERT JUMPDEST POP PUSH1 0x40 MLOAD SWAP1 DUP1 DUP3 MSTORE DUP1 PUSH1 0x20 MUL PUSH1 0x20 ADD DUP3 ADD PUSH1 0x40 MSTORE DUP1 ISZERO PUSH2 0x14E8 JUMPI DUP2 PUSH1 0x20 ADD PUSH1 0x20 DUP3 MUL DUP1 CALLDATASIZE DUP4 CALLDATACOPY ADD SWAP1 POP JUMPDEST POP PUSH1 0x1 PUSH1 0x1 PUSH1 0xA0 SHL SUB DUP16 AND DUP5 MSTORE PUSH1 0x0 PUSH1 0x40 DUP6 ADD MSTORE SWAP1 POP JUMPDEST PUSH1 0x40 DUP4 ADD MLOAD DUP13 GT ISZERO PUSH2 0x16AB JUMPI PUSH1 0x35 PUSH1 0x0 DUP15 DUP15 DUP7 PUSH1 0x40 ADD MLOAD DUP2 DUP2 LT PUSH2 0x151F JUMPI INVALID JUMPDEST SWAP1 POP PUSH1 0x20 MUL ADD PUSH1 0x20 DUP2 ADD SWAP1 PUSH2 0x1534 SWAP2 SWAP1 PUSH2 0x47AA JUMP JUMPDEST PUSH1 0x1 PUSH1 0x1 PUSH1 0xA0 SHL SUB AND PUSH1 0x1 PUSH1 0x1 PUSH1 0xA0 SHL SUB AND DUP2 MSTORE PUSH1 0x20 ADD SWAP1 DUP2 MSTORE PUSH1 0x20 ADD PUSH1 0x0 KECCAK256 PUSH1 0x4 ADD PUSH1 0x0 SWAP1 SLOAD SWAP1 PUSH2 0x100 EXP SWAP1 DIV PUSH1 0x1 PUSH1 0x1 PUSH1 0xA0 SHL SUB AND DUP3 DUP5 PUSH1 0x40 ADD MLOAD DUP2 MLOAD DUP2 LT PUSH2 0x157B JUMPI INVALID JUMPDEST PUSH1 0x20 MUL PUSH1 0x20 ADD ADD SWAP1 PUSH1 0x1 PUSH1 0x1 PUSH1 0xA0 SHL SUB AND SWAP1 DUP2 PUSH1 0x1 PUSH1 0x1 PUSH1 0xA0 SHL SUB AND DUP2 MSTORE POP POP PUSH2 0x15D1 PUSH2 0x2710 PUSH2 0x15CB PUSH1 0x9 DUP15 DUP15 DUP9 PUSH1 0x40 ADD MLOAD DUP2 DUP2 LT PUSH2 0x15B6 JUMPI INVALID JUMPDEST SWAP1 POP PUSH1 0x20 MUL ADD CALLDATALOAD PUSH2 0x3457 SWAP1 SWAP2 SWAP1 PUSH4 0xFFFFFFFF AND JUMP JUMPDEST SWAP1 PUSH2 0x3491 JUMP JUMPDEST DUP2 DUP5 PUSH1 0x40 ADD MLOAD DUP2 MLOAD DUP2 LT PUSH2 0x15E1 JUMPI INVALID JUMPDEST PUSH1 0x20 MUL PUSH1 0x20 ADD ADD DUP2 DUP2 MSTORE POP POP DUP2 DUP4 PUSH1 0x40 ADD MLOAD DUP2 MLOAD DUP2 LT PUSH2 0x15FD JUMPI INVALID JUMPDEST PUSH1 0x20 MUL PUSH1 0x20 ADD ADD MLOAD PUSH1 0x1 PUSH1 0x1 PUSH1 0xA0 SHL SUB AND PUSH4 0x4EFECAA5 DUP16 DUP14 DUP14 DUP8 PUSH1 0x40 ADD MLOAD DUP2 DUP2 LT PUSH2 0x1624 JUMPI INVALID JUMPDEST SWAP1 POP PUSH1 0x20 MUL ADD CALLDATALOAD PUSH1 0x40 MLOAD DUP4 PUSH4 0xFFFFFFFF AND PUSH1 0xE0 SHL DUP2 MSTORE PUSH1 0x4 ADD PUSH2 0x1648 SWAP3 SWAP2 SWAP1 PUSH2 0x4E3D JUMP JUMPDEST PUSH1 0x20 PUSH1 0x40 MLOAD DUP1 DUP4 SUB DUP2 PUSH1 0x0 DUP8 DUP1 EXTCODESIZE ISZERO DUP1 ISZERO PUSH2 0x1662 JUMPI PUSH1 0x0 DUP1 REVERT JUMPDEST POP GAS CALL ISZERO DUP1 ISZERO PUSH2 0x1676 JUMPI RETURNDATASIZE PUSH1 0x0 DUP1 RETURNDATACOPY RETURNDATASIZE PUSH1 0x0 REVERT JUMPDEST POP POP POP POP PUSH1 0x40 MLOAD RETURNDATASIZE PUSH1 0x1F NOT PUSH1 0x1F DUP3 ADD AND DUP3 ADD DUP1 PUSH1 0x40 MSTORE POP DUP2 ADD SWAP1 PUSH2 0x169A SWAP2 SWAP1 PUSH2 0x4BE9 JUMP JUMPDEST POP PUSH1 0x40 DUP4 ADD DUP1 MLOAD PUSH1 0x1 ADD SWAP1 MSTORE PUSH2 0x14FF JUMP JUMPDEST DUP3 PUSH1 0x0 ADD MLOAD PUSH1 0x1 PUSH1 0x1 PUSH1 0xA0 SHL SUB AND PUSH4 0x920F5C84 DUP15 DUP15 DUP15 DUP15 DUP7 CALLER DUP14 DUP14 PUSH1 0x40 MLOAD DUP10 PUSH4 0xFFFFFFFF AND PUSH1 0xE0 SHL DUP2 MSTORE PUSH1 0x4 ADD PUSH2 0x16E9 SWAP9 SWAP8 SWAP7 SWAP6 SWAP5 SWAP4 SWAP3 SWAP2 SWAP1 PUSH2 0x5004 JUMP JUMPDEST PUSH1 0x20 PUSH1 0x40 MLOAD DUP1 DUP4 SUB DUP2 PUSH1 0x0 DUP8 DUP1 EXTCODESIZE ISZERO DUP1 ISZERO PUSH2 0x1703 JUMPI PUSH1 0x0 DUP1 REVERT JUMPDEST POP GAS CALL ISZERO DUP1 ISZERO PUSH2 0x1717 JUMPI RETURNDATASIZE PUSH1 0x0 DUP1 RETURNDATACOPY RETURNDATASIZE PUSH1 0x0 REVERT JUMPDEST POP POP POP POP PUSH1 0x40 MLOAD RETURNDATASIZE PUSH1 0x1F NOT PUSH1 0x1F DUP3 ADD AND DUP3 ADD DUP1 PUSH1 0x40 MSTORE POP DUP2 ADD SWAP1 PUSH2 0x173B SWAP2 SWAP1 PUSH2 0x4BCD JUMP JUMPDEST PUSH1 0x40 MLOAD DUP1 PUSH1 0x40 ADD PUSH1 0x40 MSTORE DUP1 PUSH1 0x2 DUP2 MSTORE PUSH1 0x20 ADD PUSH2 0x1B1B PUSH1 0xF1 SHL DUP2 MSTORE POP SWAP1 PUSH2 0x1774 JUMPI PUSH1 0x40 MLOAD PUSH3 0x461BCD PUSH1 0xE5 SHL DUP2 MSTORE PUSH1 0x4 ADD PUSH2 0x55B SWAP2 SWAP1 PUSH2 0x5120 JUMP JUMPDEST POP PUSH1 0x0 PUSH1 0x40 DUP5 ADD MSTORE JUMPDEST PUSH1 0x40 DUP4 ADD MLOAD DUP13 GT ISZERO PUSH2 0x1AA5 JUMPI DUP13 DUP13 DUP5 PUSH1 0x40 ADD MLOAD DUP2 DUP2 LT PUSH2 0x1799 JUMPI INVALID JUMPDEST SWAP1 POP PUSH1 0x20 MUL ADD PUSH1 0x20 DUP2 ADD SWAP1 PUSH2 0x17AE SWAP2 SWAP1 PUSH2 0x47AA JUMP JUMPDEST PUSH1 0x1 PUSH1 0x1 PUSH1 0xA0 SHL SUB AND PUSH1 0x60 DUP5 ADD MSTORE PUSH1 0x40 DUP4 ADD MLOAD DUP12 SWAP1 DUP12 SWAP1 DUP2 DUP2 LT PUSH2 0x17CE JUMPI INVALID JUMPDEST SWAP1 POP PUSH1 0x20 MUL ADD CALLDATALOAD DUP4 PUSH1 0xA0 ADD DUP2 DUP2 MSTORE POP POP DUP1 DUP4 PUSH1 0x40 ADD MLOAD DUP2 MLOAD DUP2 LT PUSH2 0x17EE JUMPI INVALID JUMPDEST PUSH1 0x20 MUL PUSH1 0x20 ADD ADD MLOAD DUP4 PUSH1 0xC0 ADD DUP2 DUP2 MSTORE POP POP DUP2 DUP4 PUSH1 0x40 ADD MLOAD DUP2 MLOAD DUP2 LT PUSH2 0x180F JUMPI INVALID JUMPDEST PUSH1 0x20 SWAP1 DUP2 MUL SWAP2 SWAP1 SWAP2 ADD ADD MLOAD PUSH1 0x1 PUSH1 0x1 PUSH1 0xA0 SHL SUB AND PUSH1 0x80 DUP5 ADD MSTORE PUSH1 0xC0 DUP4 ADD MLOAD PUSH1 0xA0 DUP5 ADD MLOAD PUSH2 0x183B SWAP2 PUSH2 0x2C35 JUMP JUMPDEST PUSH1 0xE0 DUP5 ADD MSTORE PUSH1 0x0 DUP10 DUP10 DUP6 PUSH1 0x40 ADD MLOAD DUP2 DUP2 LT PUSH2 0x1852 JUMPI INVALID JUMPDEST SWAP1 POP PUSH1 0x20 MUL ADD CALLDATALOAD PUSH1 0x2 DUP2 GT ISZERO PUSH2 0x1864 JUMPI INVALID JUMPDEST PUSH1 0x2 DUP2 GT ISZERO PUSH2 0x186F JUMPI INVALID JUMPDEST EQ ISZERO PUSH2 0x19A1 JUMPI PUSH1 0x60 DUP4 ADD MLOAD PUSH1 0x1 PUSH1 0x1 PUSH1 0xA0 SHL SUB AND PUSH1 0x0 SWAP1 DUP2 MSTORE PUSH1 0x35 PUSH1 0x20 MSTORE PUSH1 0x40 SWAP1 KECCAK256 PUSH2 0x189A SWAP1 PUSH2 0x2776 JUMP JUMPDEST PUSH2 0x193A DUP4 PUSH1 0x80 ADD MLOAD PUSH1 0x1 PUSH1 0x1 PUSH1 0xA0 SHL SUB AND PUSH4 0x18160DDD PUSH1 0x40 MLOAD DUP2 PUSH4 0xFFFFFFFF AND PUSH1 0xE0 SHL DUP2 MSTORE PUSH1 0x4 ADD PUSH1 0x20 PUSH1 0x40 MLOAD DUP1 DUP4 SUB DUP2 DUP7 DUP1 EXTCODESIZE ISZERO DUP1 ISZERO PUSH2 0x18DA JUMPI PUSH1 0x0 DUP1 REVERT JUMPDEST POP GAS STATICCALL ISZERO DUP1 ISZERO PUSH2 0x18EE JUMPI RETURNDATASIZE PUSH1 0x0 DUP1 RETURNDATACOPY RETURNDATASIZE PUSH1 0x0 REVERT JUMPDEST POP POP POP POP PUSH1 0x40 MLOAD RETURNDATASIZE PUSH1 0x1F NOT PUSH1 0x1F DUP3 ADD AND DUP3 ADD DUP1 PUSH1 0x40 MSTORE POP DUP2 ADD SWAP1 PUSH2 0x1912 SWAP2 SWAP1 PUSH2 0x4BE9 JUMP JUMPDEST PUSH1 0xC0 DUP6 ADD MLOAD PUSH1 0x60 DUP7 ADD MLOAD PUSH1 0x1 PUSH1 0x1 PUSH1 0xA0 SHL SUB AND PUSH1 0x0 SWAP1 DUP2 MSTORE PUSH1 0x35 PUSH1 0x20 MSTORE PUSH1 0x40 SWAP1 KECCAK256 SWAP2 SWAP1 PUSH2 0x34D3 JUMP JUMPDEST PUSH1 0x60 DUP4 ADD MLOAD PUSH1 0x80 DUP5 ADD MLOAD PUSH1 0xE0 DUP6 ADD MLOAD PUSH1 0x1 PUSH1 0x1 PUSH1 0xA0 SHL SUB DUP4 AND PUSH1 0x0 SWAP1 DUP2 MSTORE PUSH1 0x35 PUSH1 0x20 MSTORE PUSH1 0x40 DUP2 KECCAK256 PUSH2 0x1970 SWAP5 SWAP1 SWAP4 SWAP1 SWAP3 SWAP1 SWAP2 PUSH2 0x2843 JUMP JUMPDEST PUSH2 0x199C DUP15 DUP5 PUSH1 0x80 ADD MLOAD DUP6 PUSH1 0xE0 ADD MLOAD DUP7 PUSH1 0x60 ADD MLOAD PUSH1 0x1 PUSH1 0x1 PUSH1 0xA0 SHL SUB AND PUSH2 0x2D0C SWAP1 SWAP4 SWAP3 SWAP2 SWAP1 PUSH4 0xFFFFFFFF AND JUMP JUMPDEST PUSH2 0x1A30 JUMP JUMPDEST PUSH2 0x1A30 PUSH1 0x40 MLOAD DUP1 PUSH2 0x100 ADD PUSH1 0x40 MSTORE DUP1 DUP6 PUSH1 0x60 ADD MLOAD PUSH1 0x1 PUSH1 0x1 PUSH1 0xA0 SHL SUB AND DUP2 MSTORE PUSH1 0x20 ADD CALLER PUSH1 0x1 PUSH1 0x1 PUSH1 0xA0 SHL SUB AND DUP2 MSTORE PUSH1 0x20 ADD DUP10 PUSH1 0x1 PUSH1 0x1 PUSH1 0xA0 SHL SUB AND DUP2 MSTORE PUSH1 0x20 ADD DUP6 PUSH1 0xA0 ADD MLOAD DUP2 MSTORE PUSH1 0x20 ADD DUP12 DUP12 DUP8 PUSH1 0x40 ADD MLOAD DUP2 DUP2 LT PUSH2 0x19FB JUMPI INVALID JUMPDEST SWAP1 POP PUSH1 0x20 MUL ADD CALLDATALOAD DUP2 MSTORE PUSH1 0x20 ADD DUP6 PUSH1 0x80 ADD MLOAD PUSH1 0x1 PUSH1 0x1 PUSH1 0xA0 SHL SUB AND DUP2 MSTORE PUSH1 0x20 ADD DUP7 PUSH2 0xFFFF AND DUP2 MSTORE PUSH1 0x20 ADD PUSH1 0x0 ISZERO ISZERO DUP2 MSTORE POP PUSH2 0x2F20 JUMP JUMPDEST DUP3 PUSH1 0x60 ADD MLOAD PUSH1 0x1 PUSH1 0x1 PUSH1 0xA0 SHL SUB AND CALLER PUSH1 0x1 PUSH1 0x1 PUSH1 0xA0 SHL SUB AND DUP16 PUSH1 0x1 PUSH1 0x1 PUSH1 0xA0 SHL SUB AND PUSH32 0x631042C832B07452973831137F2D73E395028B44B250DEDC5ABB0EE766E168AC DUP7 PUSH1 0xA0 ADD MLOAD DUP8 PUSH1 0xC0 ADD MLOAD DUP10 PUSH1 0x40 MLOAD PUSH2 0x1A8D SWAP4 SWAP3 SWAP2 SWAP1 PUSH2 0x54CD JUMP JUMPDEST PUSH1 0x40 MLOAD DUP1 SWAP2 SUB SWAP1 LOG4 PUSH1 0x40 DUP4 ADD DUP1 MLOAD PUSH1 0x1 ADD SWAP1 MSTORE PUSH2 0x177D JUMP JUMPDEST POP POP POP POP POP POP POP POP POP POP POP POP POP POP JUMP JUMPDEST PUSH2 0x1ABD PUSH2 0x2525 JUMP JUMPDEST PUSH1 0x1 PUSH1 0x1 PUSH1 0xA0 SHL SUB SWAP1 SWAP2 AND PUSH1 0x0 SWAP1 DUP2 MSTORE PUSH1 0x35 PUSH1 0x20 MSTORE PUSH1 0x40 SWAP1 KECCAK256 SSTORE JUMP JUMPDEST PUSH2 0x1AE1 PUSH2 0x2525 JUMP JUMPDEST PUSH1 0x39 DUP1 SLOAD PUSH1 0xFF NOT AND DUP3 ISZERO ISZERO OR SWAP1 DUP2 SWAP1 SSTORE PUSH1 0xFF AND ISZERO PUSH2 0x1B27 JUMPI PUSH1 0x40 MLOAD PUSH32 0x9E87FAC88FF661F02D44F95383C817FECE4BCE600A3DAB7A54406878B965E752 SWAP1 PUSH1 0x0 SWAP1 LOG1 PUSH2 0x1B51 JUMP JUMPDEST PUSH1 0x40 MLOAD PUSH32 0xA45F47FDEA8A1EFDD9029A5691C7F759C32B7C698632B563573E155625D16933 SWAP1 PUSH1 0x0 SWAP1 LOG1 JUMPDEST POP JUMP JUMPDEST PUSH1 0x0 DUP1 PUSH1 0x0 DUP1 PUSH1 0x0 DUP1 PUSH2 0x1C2D DUP8 PUSH1 0x35 PUSH1 0x36 PUSH1 0x0 DUP12 PUSH1 0x1 PUSH1 0x1 PUSH1 0xA0 SHL SUB AND PUSH1 0x1 PUSH1 0x1 PUSH1 0xA0 SHL SUB AND DUP2 MSTORE PUSH1 0x20 ADD SWAP1 DUP2 MSTORE PUSH1 0x20 ADD PUSH1 0x0 KECCAK256 PUSH1 0x40 MLOAD DUP1 PUSH1 0x20 ADD PUSH1 0x40 MSTORE SWAP1 DUP2 PUSH1 0x0 DUP3 ADD SLOAD DUP2 MSTORE POP POP PUSH1 0x37 PUSH1 0x38 SLOAD PUSH1 0x34 PUSH1 0x0 SWAP1 SLOAD SWAP1 PUSH2 0x100 EXP SWAP1 DIV PUSH1 0x1 PUSH1 0x1 PUSH1 0xA0 SHL SUB AND PUSH1 0x1 PUSH1 0x1 PUSH1 0xA0 SHL SUB AND PUSH4 0xFCA513A8 PUSH1 0x40 MLOAD DUP2 PUSH4 0xFFFFFFFF AND PUSH1 0xE0 SHL DUP2 MSTORE PUSH1 0x4 ADD PUSH1 0x20 PUSH1 0x40 MLOAD DUP1 DUP4 SUB DUP2 DUP7 DUP1 EXTCODESIZE ISZERO DUP1 ISZERO PUSH2 0x1BF0 JUMPI PUSH1 0x0 DUP1 REVERT JUMPDEST POP GAS STATICCALL ISZERO DUP1 ISZERO PUSH2 0x1C04 JUMPI RETURNDATASIZE PUSH1 0x0 DUP1 RETURNDATACOPY RETURNDATASIZE PUSH1 0x0 REVERT JUMPDEST POP POP POP POP PUSH1 0x40 MLOAD RETURNDATASIZE PUSH1 0x1F NOT PUSH1 0x1F DUP3 ADD AND DUP3 ADD DUP1 PUSH1 0x40 MSTORE POP DUP2 ADD SWAP1 PUSH2 0x1C28 SWAP2 SWAP1 PUSH2 0x47C6 JUMP JUMPDEST PUSH2 0x3590 JUMP JUMPDEST SWAP4 SWAP10 POP SWAP2 SWAP8 POP SWAP1 SWAP5 POP SWAP3 POP SWAP1 POP PUSH2 0x1C45 DUP7 DUP7 DUP5 PUSH2 0x3A51 JUMP JUMPDEST SWAP4 POP SWAP2 SWAP4 SWAP6 POP SWAP2 SWAP4 SWAP6 JUMP JUMPDEST PUSH2 0x1C58 PUSH2 0x4563 JUMP JUMPDEST POP PUSH1 0x1 PUSH1 0x1 PUSH1 0xA0 SHL SUB AND PUSH1 0x0 SWAP1 DUP2 MSTORE PUSH1 0x35 PUSH1 0x20 SWAP1 DUP2 MSTORE PUSH1 0x40 SWAP2 DUP3 SWAP1 KECCAK256 DUP3 MLOAD SWAP2 DUP3 ADD SWAP1 SWAP3 MSTORE SWAP1 SLOAD DUP2 MSTORE SWAP1 JUMP JUMPDEST PUSH1 0x0 PUSH2 0x1C8D PUSH2 0x3A85 JUMP JUMPDEST PUSH1 0x1 SLOAD SWAP1 SWAP2 POP PUSH1 0xFF AND DUP1 PUSH2 0x1CA4 JUMPI POP PUSH2 0x1CA4 PUSH2 0x3A8A JUMP JUMPDEST DUP1 PUSH2 0x1CB0 JUMPI POP PUSH1 0x0 SLOAD DUP2 GT JUMPDEST PUSH2 0x1CCC JUMPI PUSH1 0x40 MLOAD PUSH3 0x461BCD PUSH1 0xE5 SHL DUP2 MSTORE PUSH1 0x4 ADD PUSH2 0x55B SWAP1 PUSH2 0x5200 JUMP JUMPDEST PUSH1 0x1 SLOAD PUSH1 0xFF AND ISZERO DUP1 ISZERO PUSH2 0x1CEB JUMPI PUSH1 0x1 DUP1 SLOAD PUSH1 0xFF NOT AND DUP2 OR SWAP1 SSTORE PUSH1 0x0 DUP3 SWAP1 SSTORE JUMPDEST PUSH1 0x34 DUP1 SLOAD PUSH1 0x1 PUSH1 0x1 PUSH1 0xA0 SHL SUB NOT AND PUSH1 0x1 PUSH1 0x1 PUSH1 0xA0 SHL SUB DUP6 AND OR SWAP1 SSTORE DUP1 ISZERO PUSH2 0xBD6 JUMPI PUSH1 0x1 DUP1 SLOAD PUSH1 0xFF NOT AND SWAP1 SSTORE POP POP POP JUMP JUMPDEST PUSH2 0x1D23 PUSH2 0x24E7 JUMP JUMPDEST PUSH1 0x1 PUSH1 0x1 PUSH1 0xA0 SHL SUB DUP1 DUP4 AND PUSH1 0x0 SWAP1 DUP2 MSTORE PUSH1 0x35 PUSH1 0x20 MSTORE PUSH1 0x40 DUP1 DUP3 KECCAK256 PUSH1 0x5 DUP2 ADD SLOAD PUSH1 0x6 DUP3 ADD SLOAD PUSH1 0x4 DUP1 DUP5 ADD SLOAD SWAP5 MLOAD PUSH4 0x70A08231 PUSH1 0xE0 SHL DUP2 MSTORE SWAP4 SWAP7 SWAP3 DUP4 AND SWAP6 SWAP2 DUP4 AND SWAP5 SWAP1 SWAP3 AND SWAP3 SWAP1 SWAP2 DUP6 SWAP2 PUSH4 0x70A08231 SWAP2 PUSH2 0x1D7D SWAP2 DUP11 SWAP2 ADD PUSH2 0x4DF8 JUMP JUMPDEST PUSH1 0x20 PUSH1 0x40 MLOAD DUP1 DUP4 SUB DUP2 DUP7 DUP1 EXTCODESIZE ISZERO DUP1 ISZERO PUSH2 0x1D95 JUMPI PUSH1 0x0 DUP1 REVERT JUMPDEST POP GAS STATICCALL ISZERO DUP1 ISZERO PUSH2 0x1DA9 JUMPI RETURNDATASIZE PUSH1 0x0 DUP1 RETURNDATACOPY RETURNDATASIZE PUSH1 0x0 REVERT JUMPDEST POP POP POP POP PUSH1 0x40 MLOAD RETURNDATASIZE PUSH1 0x1F NOT PUSH1 0x1F DUP3 ADD AND DUP3 ADD DUP1 PUSH1 0x40 MSTORE POP DUP2 ADD SWAP1 PUSH2 0x1DCD SWAP2 SWAP1 PUSH2 0x4BE9 JUMP JUMPDEST PUSH1 0x40 MLOAD PUSH4 0x548CAD09 PUSH1 0xE0 SHL DUP2 MSTORE SWAP1 SWAP2 POP PUSH20 0x0 SWAP1 PUSH4 0x548CAD09 SWAP1 PUSH2 0x1E0F SWAP1 DUP9 SWAP1 DUP12 SWAP1 DUP10 SWAP1 DUP10 SWAP1 DUP10 SWAP1 PUSH1 0x4 ADD PUSH2 0x53CC JUMP JUMPDEST PUSH1 0x0 PUSH1 0x40 MLOAD DUP1 DUP4 SUB DUP2 DUP7 DUP1 EXTCODESIZE ISZERO DUP1 ISZERO PUSH2 0x1E27 JUMPI PUSH1 0x0 DUP1 REVERT JUMPDEST POP GAS DELEGATECALL ISZERO DUP1 ISZERO PUSH2 0x1E3B JUMPI RETURNDATASIZE PUSH1 0x0 DUP1 RETURNDATACOPY RETURNDATASIZE PUSH1 0x0 REVERT JUMPDEST POP POP POP POP PUSH2 0x1E48 DUP6 PUSH2 0x2776 JUMP JUMPDEST PUSH1 0x40 MLOAD PUSH4 0x2770A7EB PUSH1 0xE2 SHL DUP2 MSTORE PUSH1 0x1 PUSH1 0x1 PUSH1 0xA0 SHL SUB DUP6 AND SWAP1 PUSH4 0x9DC29FAC SWAP1 PUSH2 0x1E76 SWAP1 DUP10 SWAP1 DUP6 SWAP1 PUSH1 0x4 ADD PUSH2 0x4E3D JUMP JUMPDEST PUSH1 0x0 PUSH1 0x40 MLOAD DUP1 DUP4 SUB DUP2 PUSH1 0x0 DUP8 DUP1 EXTCODESIZE ISZERO DUP1 ISZERO PUSH2 0x1E90 JUMPI PUSH1 0x0 DUP1 REVERT JUMPDEST POP GAS CALL ISZERO DUP1 ISZERO PUSH2 0x1EA4 JUMPI RETURNDATASIZE PUSH1 0x0 DUP1 RETURNDATACOPY RETURNDATASIZE PUSH1 0x0 REVERT JUMPDEST POP POP POP PUSH1 0x3 DUP7 ADD SLOAD PUSH1 0x40 MLOAD PUSH4 0xB3F1C93D PUSH1 0xE0 SHL DUP2 MSTORE PUSH1 0x1 PUSH1 0x1 PUSH1 0xA0 SHL SUB DUP8 AND SWAP3 POP PUSH4 0xB3F1C93D SWAP2 PUSH2 0x1EE7 SWAP2 DUP11 SWAP2 DUP3 SWAP2 DUP8 SWAP2 PUSH1 0x1 PUSH1 0x1 PUSH1 0x80 SHL SUB AND SWAP1 PUSH1 0x4 ADD PUSH2 0x4E0C JUMP JUMPDEST PUSH1 0x20 PUSH1 0x40 MLOAD DUP1 DUP4 SUB DUP2 PUSH1 0x0 DUP8 DUP1 EXTCODESIZE ISZERO DUP1 ISZERO PUSH2 0x1F01 JUMPI PUSH1 0x0 DUP1 REVERT JUMPDEST POP GAS CALL ISZERO DUP1 ISZERO PUSH2 0x1F15 JUMPI RETURNDATASIZE PUSH1 0x0 DUP1 RETURNDATACOPY RETURNDATASIZE PUSH1 0x0 REVERT JUMPDEST POP POP POP POP PUSH1 0x40 MLOAD RETURNDATASIZE PUSH1 0x1F NOT PUSH1 0x1F DUP3 ADD AND DUP3 ADD DUP1 PUSH1 0x40 MSTORE POP DUP2 ADD SWAP1 PUSH2 0x1F39 SWAP2 SWAP1 PUSH2 0x4BCD JUMP JUMPDEST POP PUSH2 0x1F48 DUP6 DUP9 DUP5 PUSH1 0x0 DUP1 PUSH2 0x2843 JUMP JUMPDEST DUP6 PUSH1 0x1 PUSH1 0x1 PUSH1 0xA0 SHL SUB AND DUP8 PUSH1 0x1 PUSH1 0x1 PUSH1 0xA0 SHL SUB AND PUSH32 0x9F439AE0C81E41A04D3FDFE07AED54E6A179FB0DB15BE7702EB66FA8EF6F5300 PUSH1 0x40 MLOAD PUSH1 0x40 MLOAD DUP1 SWAP2 SUB SWAP1 LOG3 POP POP POP POP POP POP POP JUMP JUMPDEST PUSH1 0x1 PUSH1 0x1 PUSH1 0xA0 SHL SUB DUP2 AND PUSH1 0x0 SWAP1 DUP2 MSTORE PUSH1 0x35 PUSH1 0x20 MSTORE PUSH1 0x40 DUP2 KECCAK256 PUSH2 0x711 SWAP1 PUSH2 0x3A90 JUMP JUMPDEST PUSH1 0x60 DUP1 PUSH1 0x38 SLOAD PUSH8 0xFFFFFFFFFFFFFFFF DUP2 GT DUP1 ISZERO PUSH2 0x1FCE JUMPI PUSH1 0x0 DUP1 REVERT JUMPDEST POP PUSH1 0x40 MLOAD SWAP1 DUP1 DUP3 MSTORE DUP1 PUSH1 0x20 MUL PUSH1 0x20 ADD DUP3 ADD PUSH1 0x40 MSTORE DUP1 ISZERO PUSH2 0x1FF8 JUMPI DUP2 PUSH1 0x20 ADD PUSH1 0x20 DUP3 MUL DUP1 CALLDATASIZE DUP4 CALLDATACOPY ADD SWAP1 POP JUMPDEST POP SWAP1 POP PUSH1 0x0 JUMPDEST PUSH1 0x38 SLOAD DUP2 LT ISZERO PUSH2 0x2051 JUMPI PUSH1 0x0 DUP2 DUP2 MSTORE PUSH1 0x37 PUSH1 0x20 MSTORE PUSH1 0x40 SWAP1 KECCAK256 SLOAD DUP3 MLOAD PUSH1 0x1 PUSH1 0x1 PUSH1 0xA0 SHL SUB SWAP1 SWAP2 AND SWAP1 DUP4 SWAP1 DUP4 SWAP1 DUP2 LT PUSH2 0x2031 JUMPI INVALID JUMPDEST PUSH1 0x1 PUSH1 0x1 PUSH1 0xA0 SHL SUB SWAP1 SWAP3 AND PUSH1 0x20 SWAP3 DUP4 MUL SWAP2 SWAP1 SWAP2 ADD SWAP1 SWAP2 ADD MSTORE PUSH1 0x1 ADD PUSH2 0x1FFE JUMP JUMPDEST POP SWAP1 POP SWAP1 JUMP JUMPDEST PUSH2 0x205F PUSH2 0x24E7 JUMP JUMPDEST PUSH1 0x1 PUSH1 0x1 PUSH1 0xA0 SHL SUB DUP7 DUP2 AND PUSH1 0x0 SWAP1 DUP2 MSTORE PUSH1 0x35 PUSH1 0x20 SWAP1 DUP2 MSTORE PUSH1 0x40 SWAP2 DUP3 SWAP1 KECCAK256 PUSH1 0x4 ADD SLOAD DUP3 MLOAD DUP1 DUP5 ADD SWAP1 SWAP4 MSTORE PUSH1 0x2 DUP4 MSTORE PUSH2 0x3633 PUSH1 0xF0 SHL SWAP2 DUP4 ADD SWAP2 SWAP1 SWAP2 MSTORE SWAP1 SWAP2 AND CALLER EQ PUSH2 0x20BB JUMPI PUSH1 0x40 MLOAD PUSH3 0x461BCD PUSH1 0xE5 SHL DUP2 MSTORE PUSH1 0x4 ADD PUSH2 0x55B SWAP2 SWAP1 PUSH2 0x5120 JUMP JUMPDEST POP PUSH2 0x2177 DUP6 PUSH1 0x35 PUSH1 0x36 PUSH1 0x0 DUP10 PUSH1 0x1 PUSH1 0x1 PUSH1 0xA0 SHL SUB AND PUSH1 0x1 PUSH1 0x1 PUSH1 0xA0 SHL SUB AND DUP2 MSTORE PUSH1 0x20 ADD SWAP1 DUP2 MSTORE PUSH1 0x20 ADD PUSH1 0x0 KECCAK256 PUSH1 0x37 PUSH1 0x38 SLOAD PUSH1 0x34 PUSH1 0x0 SWAP1 SLOAD SWAP1 PUSH2 0x100 EXP SWAP1 DIV PUSH1 0x1 PUSH1 0x1 PUSH1 0xA0 SHL SUB AND PUSH1 0x1 PUSH1 0x1 PUSH1 0xA0 SHL SUB AND PUSH4 0xFCA513A8 PUSH1 0x40 MLOAD DUP2 PUSH4 0xFFFFFFFF AND PUSH1 0xE0 SHL DUP2 MSTORE PUSH1 0x4 ADD PUSH1 0x20 PUSH1 0x40 MLOAD DUP1 DUP4 SUB DUP2 DUP7 DUP1 EXTCODESIZE ISZERO DUP1 ISZERO PUSH2 0x213A JUMPI PUSH1 0x0 DUP1 REVERT JUMPDEST POP GAS STATICCALL ISZERO DUP1 ISZERO PUSH2 0x214E JUMPI RETURNDATASIZE PUSH1 0x0 DUP1 RETURNDATACOPY RETURNDATASIZE PUSH1 0x0 REVERT JUMPDEST POP POP POP POP PUSH1 0x40 MLOAD RETURNDATASIZE PUSH1 0x1F NOT PUSH1 0x1F DUP3 ADD AND DUP3 ADD DUP1 PUSH1 0x40 MSTORE POP DUP2 ADD SWAP1 PUSH2 0x2172 SWAP2 SWAP1 PUSH2 0x47C6 JUMP JUMPDEST PUSH2 0x3AEF JUMP JUMPDEST PUSH1 0x1 PUSH1 0x1 PUSH1 0xA0 SHL SUB DUP7 DUP2 AND PUSH1 0x0 SWAP1 DUP2 MSTORE PUSH1 0x35 PUSH1 0x20 MSTORE PUSH1 0x40 SWAP1 KECCAK256 PUSH1 0x7 ADD SLOAD PUSH1 0x1 PUSH1 0xA0 SHL SWAP1 DIV PUSH1 0xFF AND SWAP1 DUP6 DUP2 AND SWAP1 DUP8 AND EQ PUSH2 0x2297 JUMPI PUSH2 0x21B4 DUP4 DUP6 PUSH2 0x2C5A JUMP JUMPDEST PUSH2 0x2220 JUMPI PUSH1 0x1 PUSH1 0x1 PUSH1 0xA0 SHL SUB DUP7 AND PUSH1 0x0 SWAP1 DUP2 MSTORE PUSH1 0x36 PUSH1 0x20 MSTORE PUSH1 0x40 DUP2 KECCAK256 SWAP1 PUSH2 0x21DE SWAP1 DUP3 SWAP1 DUP5 SWAP1 PUSH2 0x2D6A JUMP JUMPDEST DUP7 PUSH1 0x1 PUSH1 0x1 PUSH1 0xA0 SHL SUB AND DUP9 PUSH1 0x1 PUSH1 0x1 PUSH1 0xA0 SHL SUB AND PUSH32 0x44C58D81365B66DD4B1A7F36C25AA97B8C71C361EE4937ADC1A00000227DB5DD PUSH1 0x40 MLOAD PUSH1 0x40 MLOAD DUP1 SWAP2 SUB SWAP1 LOG3 POP JUMPDEST DUP2 ISZERO DUP1 ISZERO PUSH2 0x222D JUMPI POP DUP4 ISZERO ISZERO JUMPDEST ISZERO PUSH2 0x2297 JUMPI PUSH1 0x1 PUSH1 0x1 PUSH1 0xA0 SHL SUB DUP6 AND PUSH1 0x0 SWAP1 DUP2 MSTORE PUSH1 0x36 PUSH1 0x20 MSTORE PUSH1 0x40 SWAP1 KECCAK256 PUSH2 0x2256 DUP2 DUP4 PUSH1 0x1 PUSH2 0x2D6A JUMP JUMPDEST DUP6 PUSH1 0x1 PUSH1 0x1 PUSH1 0xA0 SHL SUB AND DUP9 PUSH1 0x1 PUSH1 0x1 PUSH1 0xA0 SHL SUB AND PUSH31 0x58A56EA94653CDF4F152D227ACE22D4C00AD99E2A43F58CB7D9E3FEB295F2 PUSH1 0x40 MLOAD PUSH1 0x40 MLOAD DUP1 SWAP2 SUB SWAP1 LOG3 POP JUMPDEST POP POP POP POP POP POP POP JUMP JUMPDEST PUSH2 0x9C4 DUP2 JUMP JUMPDEST PUSH2 0x22AE PUSH2 0x24E7 JUMP JUMPDEST PUSH1 0x1 PUSH1 0x1 PUSH1 0xA0 SHL SUB DUP5 AND PUSH1 0x0 SWAP1 DUP2 MSTORE PUSH1 0x35 PUSH1 0x20 MSTORE PUSH1 0x40 SWAP1 DUP2 SWAP1 KECCAK256 SWAP1 MLOAD PUSH4 0xECA322B PUSH1 0xE0 SHL DUP2 MSTORE PUSH20 0x0 SWAP1 PUSH4 0xECA322B SWAP1 PUSH2 0x2300 SWAP1 DUP5 SWAP1 DUP9 SWAP1 PUSH1 0x4 ADD PUSH2 0x5472 JUMP JUMPDEST PUSH1 0x0 PUSH1 0x40 MLOAD DUP1 DUP4 SUB DUP2 DUP7 DUP1 EXTCODESIZE ISZERO DUP1 ISZERO PUSH2 0x2318 JUMPI PUSH1 0x0 DUP1 REVERT JUMPDEST POP GAS DELEGATECALL ISZERO DUP1 ISZERO PUSH2 0x232C JUMPI RETURNDATASIZE PUSH1 0x0 DUP1 RETURNDATACOPY RETURNDATASIZE PUSH1 0x0 REVERT JUMPDEST POP POP POP POP PUSH1 0x4 DUP2 ADD SLOAD PUSH1 0x1 PUSH1 0x1 PUSH1 0xA0 SHL SUB AND PUSH2 0x2347 DUP3 PUSH2 0x2776 JUMP JUMPDEST PUSH2 0x2355 DUP3 DUP8 DUP4 DUP9 PUSH1 0x0 PUSH2 0x2843 JUMP JUMPDEST PUSH2 0x236A PUSH1 0x1 PUSH1 0x1 PUSH1 0xA0 SHL SUB DUP8 AND CALLER DUP4 DUP9 PUSH2 0x2D0C JUMP JUMPDEST PUSH1 0x1 DUP3 ADD SLOAD PUSH1 0x40 MLOAD PUSH4 0xAB714FB PUSH1 0xE1 SHL DUP2 MSTORE PUSH1 0x0 SWAP2 PUSH1 0x1 PUSH1 0x1 PUSH1 0xA0 SHL SUB DUP5 AND SWAP2 PUSH4 0x156E29F6 SWAP2 PUSH2 0x23AC SWAP2 DUP10 SWAP2 DUP12 SWAP2 PUSH1 0x1 PUSH1 0x1 PUSH1 0x80 SHL SUB SWAP1 SWAP2 AND SWAP1 PUSH1 0x4 ADD PUSH2 0x4E56 JUMP JUMPDEST PUSH1 0x20 PUSH1 0x40 MLOAD DUP1 DUP4 SUB DUP2 PUSH1 0x0 DUP8 DUP1 EXTCODESIZE ISZERO DUP1 ISZERO PUSH2 0x23C6 JUMPI PUSH1 0x0 DUP1 REVERT JUMPDEST POP GAS CALL ISZERO DUP1 ISZERO PUSH2 0x23DA JUMPI RETURNDATASIZE PUSH1 0x0 DUP1 RETURNDATACOPY RETURNDATASIZE PUSH1 0x0 REVERT JUMPDEST POP POP POP POP PUSH1 0x40 MLOAD RETURNDATASIZE PUSH1 0x1F NOT PUSH1 0x1F DUP3 ADD AND DUP3 ADD DUP1 PUSH1 0x40 MSTORE POP DUP2 ADD SWAP1 PUSH2 0x23FE SWAP2 SWAP1 PUSH2 0x4BCD JUMP JUMPDEST SWAP1 POP DUP1 ISZERO PUSH2 0x2478 JUMPI PUSH1 0x7 DUP4 ADD SLOAD PUSH1 0x1 PUSH1 0x1 PUSH1 0xA0 SHL SUB DUP7 AND PUSH1 0x0 SWAP1 DUP2 MSTORE PUSH1 0x36 PUSH1 0x20 MSTORE PUSH1 0x40 SWAP1 KECCAK256 PUSH2 0x2438 SWAP2 PUSH1 0x1 PUSH1 0xA0 SHL SWAP1 DIV PUSH1 0xFF AND PUSH1 0x1 PUSH2 0x2D6A JUMP JUMPDEST DUP5 PUSH1 0x1 PUSH1 0x1 PUSH1 0xA0 SHL SUB AND DUP8 PUSH1 0x1 PUSH1 0x1 PUSH1 0xA0 SHL SUB AND PUSH31 0x58A56EA94653CDF4F152D227ACE22D4C00AD99E2A43F58CB7D9E3FEB295F2 PUSH1 0x40 MLOAD PUSH1 0x40 MLOAD DUP1 SWAP2 SUB SWAP1 LOG3 JUMPDEST DUP4 PUSH2 0xFFFF AND DUP6 PUSH1 0x1 PUSH1 0x1 PUSH1 0xA0 SHL SUB AND DUP9 PUSH1 0x1 PUSH1 0x1 PUSH1 0xA0 SHL SUB AND PUSH32 0xDE6857219544BB5B7746F48ED30BE6386FEFC61B2F864CACF559893BF50FD951 CALLER DUP11 PUSH1 0x40 MLOAD PUSH2 0x24C2 SWAP3 SWAP2 SWAP1 PUSH2 0x4E3D JUMP JUMPDEST PUSH1 0x40 MLOAD DUP1 SWAP2 SUB SWAP1 LOG4 POP POP POP POP POP POP POP JUMP JUMPDEST PUSH1 0x80 DUP2 JUMP JUMPDEST PUSH1 0x34 SLOAD PUSH1 0x1 PUSH1 0x1 PUSH1 0xA0 SHL SUB AND SWAP1 JUMP JUMPDEST PUSH1 0x39 SLOAD PUSH1 0x40 DUP1 MLOAD DUP1 DUP3 ADD SWAP1 SWAP2 MSTORE PUSH1 0x2 DUP2 MSTORE PUSH2 0xD8D PUSH1 0xF2 SHL PUSH1 0x20 DUP3 ADD MSTORE SWAP1 PUSH1 0xFF AND ISZERO PUSH2 0x1B51 JUMPI PUSH1 0x40 MLOAD PUSH3 0x461BCD PUSH1 0xE5 SHL DUP2 MSTORE PUSH1 0x4 ADD PUSH2 0x55B SWAP2 SWAP1 PUSH2 0x5120 JUMP JUMPDEST PUSH1 0x34 SLOAD PUSH1 0x40 DUP1 MLOAD PUSH4 0x85C858B1 PUSH1 0xE0 SHL DUP2 MSTORE SWAP1 MLOAD CALLER SWAP3 PUSH1 0x1 PUSH1 0x1 PUSH1 0xA0 SHL SUB AND SWAP2 PUSH4 0x85C858B1 SWAP2 PUSH1 0x4 DUP1 DUP4 ADD SWAP3 PUSH1 0x20 SWAP3 SWAP2 SWAP1 DUP3 SWAP1 SUB ADD DUP2 DUP7 DUP1 EXTCODESIZE ISZERO DUP1 ISZERO PUSH2 0x2569 JUMPI PUSH1 0x0 DUP1 REVERT JUMPDEST POP GAS STATICCALL ISZERO DUP1 ISZERO PUSH2 0x257D JUMPI RETURNDATASIZE PUSH1 0x0 DUP1 RETURNDATACOPY RETURNDATASIZE PUSH1 0x0 REVERT JUMPDEST POP POP POP POP PUSH1 0x40 MLOAD RETURNDATASIZE PUSH1 0x1F NOT PUSH1 0x1F DUP3 ADD AND DUP3 ADD DUP1 PUSH1 0x40 MSTORE POP DUP2 ADD SWAP1 PUSH2 0x25A1 SWAP2 SWAP1 PUSH2 0x47C6 JUMP JUMPDEST PUSH1 0x1 PUSH1 0x1 PUSH1 0xA0 SHL SUB AND EQ PUSH1 0x40 MLOAD DUP1 PUSH1 0x40 ADD PUSH1 0x40 MSTORE DUP1 PUSH1 0x2 DUP2 MSTORE PUSH1 0x20 ADD PUSH2 0x3237 PUSH1 0xF0 SHL DUP2 MSTORE POP SWAP1 PUSH2 0x1B51 JUMPI PUSH1 0x40 MLOAD PUSH3 0x461BCD PUSH1 0xE5 SHL DUP2 MSTORE PUSH1 0x4 ADD PUSH2 0x55B SWAP2 SWAP1 PUSH2 0x5120 JUMP JUMPDEST PUSH1 0x3 DUP2 ADD SLOAD PUSH1 0x0 SWAP1 PUSH5 0xFFFFFFFFFF PUSH1 0x1 PUSH1 0x80 SHL SWAP1 SWAP2 DIV DUP2 AND SWAP1 TIMESTAMP AND DUP2 EQ ISZERO PUSH2 0x2622 JUMPI POP POP PUSH1 0x1 DUP2 ADD SLOAD PUSH1 0x1 PUSH1 0x80 SHL SWAP1 DIV PUSH1 0x1 PUSH1 0x1 PUSH1 0x80 SHL SUB AND PUSH2 0x6EB JUMP JUMPDEST PUSH1 0x1 DUP4 ADD SLOAD PUSH1 0x2 DUP5 ADD SLOAD PUSH1 0x0 SWAP2 PUSH2 0x2659 SWAP2 PUSH1 0x1 PUSH1 0x1 PUSH1 0x80 SHL SUB PUSH1 0x1 PUSH1 0x80 SHL SWAP3 DUP4 SWAP1 DIV DUP2 AND SWAP3 PUSH2 0x2653 SWAP3 DIV AND DUP6 PUSH2 0x3B65 JUMP JUMPDEST SWAP1 PUSH2 0x3B72 JUMP JUMPDEST SWAP5 SWAP4 POP POP POP POP JUMP JUMPDEST PUSH1 0x5 DUP2 ADD SLOAD PUSH1 0x40 MLOAD PUSH4 0x70A08231 PUSH1 0xE0 SHL DUP2 MSTORE PUSH1 0x0 SWAP2 DUP3 SWAP2 PUSH1 0x1 PUSH1 0x1 PUSH1 0xA0 SHL SUB SWAP1 SWAP2 AND SWAP1 PUSH4 0x70A08231 SWAP1 PUSH2 0x2698 SWAP1 DUP8 SWAP1 PUSH1 0x4 ADD PUSH2 0x4DF8 JUMP JUMPDEST PUSH1 0x20 PUSH1 0x40 MLOAD DUP1 DUP4 SUB DUP2 DUP7 DUP1 EXTCODESIZE ISZERO DUP1 ISZERO PUSH2 0x26B0 JUMPI PUSH1 0x0 DUP1 REVERT JUMPDEST POP GAS STATICCALL ISZERO DUP1 ISZERO PUSH2 0x26C4 JUMPI RETURNDATASIZE PUSH1 0x0 DUP1 RETURNDATACOPY RETURNDATASIZE PUSH1 0x0 REVERT JUMPDEST POP POP POP POP PUSH1 0x40 MLOAD RETURNDATASIZE PUSH1 0x1F NOT PUSH1 0x1F DUP3 ADD AND DUP3 ADD DUP1 PUSH1 0x40 MSTORE POP DUP2 ADD SWAP1 PUSH2 0x26E8 SWAP2 SWAP1 PUSH2 0x4BE9 JUMP JUMPDEST PUSH1 0x6 DUP5 ADD SLOAD PUSH1 0x40 MLOAD PUSH4 0x70A08231 PUSH1 0xE0 SHL DUP2 MSTORE PUSH1 0x1 PUSH1 0x1 PUSH1 0xA0 SHL SUB SWAP1 SWAP2 AND SWAP1 PUSH4 0x70A08231 SWAP1 PUSH2 0x271A SWAP1 DUP9 SWAP1 PUSH1 0x4 ADD PUSH2 0x4DF8 JUMP JUMPDEST PUSH1 0x20 PUSH1 0x40 MLOAD DUP1 DUP4 SUB DUP2 DUP7 DUP1 EXTCODESIZE ISZERO DUP1 ISZERO PUSH2 0x2732 JUMPI PUSH1 0x0 DUP1 REVERT JUMPDEST POP GAS STATICCALL ISZERO DUP1 ISZERO PUSH2 0x2746 JUMPI RETURNDATASIZE PUSH1 0x0 DUP1 RETURNDATACOPY RETURNDATASIZE PUSH1 0x0 REVERT JUMPDEST POP POP POP POP PUSH1 0x40 MLOAD RETURNDATASIZE PUSH1 0x1F NOT PUSH1 0x1F DUP3 ADD AND DUP3 ADD DUP1 PUSH1 0x40 MSTORE POP DUP2 ADD SWAP1 PUSH2 0x276A SWAP2 SWAP1 PUSH2 0x4BE9 JUMP JUMPDEST SWAP2 POP SWAP2 POP JUMPDEST SWAP3 POP SWAP3 SWAP1 POP JUMP JUMPDEST PUSH1 0x6 DUP2 ADD SLOAD PUSH1 0x40 DUP1 MLOAD PUSH4 0xB1BF962D PUSH1 0xE0 SHL DUP2 MSTORE SWAP1 MLOAD PUSH1 0x0 SWAP3 PUSH1 0x1 PUSH1 0x1 PUSH1 0xA0 SHL SUB AND SWAP2 PUSH4 0xB1BF962D SWAP2 PUSH1 0x4 DUP1 DUP4 ADD SWAP3 PUSH1 0x20 SWAP3 SWAP2 SWAP1 DUP3 SWAP1 SUB ADD DUP2 DUP7 DUP1 EXTCODESIZE ISZERO DUP1 ISZERO PUSH2 0x27BD JUMPI PUSH1 0x0 DUP1 REVERT JUMPDEST POP GAS STATICCALL ISZERO DUP1 ISZERO PUSH2 0x27D1 JUMPI RETURNDATASIZE PUSH1 0x0 DUP1 RETURNDATACOPY RETURNDATASIZE PUSH1 0x0 REVERT JUMPDEST POP POP POP POP PUSH1 0x40 MLOAD RETURNDATASIZE PUSH1 0x1F NOT PUSH1 0x1F DUP3 ADD AND DUP3 ADD DUP1 PUSH1 0x40 MSTORE POP DUP2 ADD SWAP1 PUSH2 0x27F5 SWAP2 SWAP1 PUSH2 0x4BE9 JUMP JUMPDEST PUSH1 0x1 DUP4 ADD SLOAD PUSH1 0x3 DUP5 ADD SLOAD SWAP2 SWAP3 POP PUSH1 0x1 PUSH1 0x80 SHL DUP1 DUP3 DIV PUSH1 0x1 PUSH1 0x1 PUSH1 0x80 SHL SUB SWAP1 DUP2 AND SWAP4 SWAP3 AND SWAP2 DIV PUSH5 0xFFFFFFFFFF AND PUSH1 0x0 DUP1 PUSH2 0x2831 DUP8 DUP8 DUP7 DUP9 DUP8 PUSH2 0x3C05 JUMP JUMPDEST SWAP2 POP SWAP2 POP PUSH2 0x2297 DUP8 DUP8 DUP8 DUP6 DUP6 DUP9 PUSH2 0x3D62 JUMP JUMPDEST PUSH2 0x284B PUSH2 0x45C2 JUMP JUMPDEST PUSH1 0x5 DUP7 ADD SLOAD PUSH1 0x1 PUSH1 0x1 PUSH1 0xA0 SHL SUB AND DUP1 DUP3 MSTORE PUSH1 0x40 DUP1 MLOAD PUSH4 0x7B98F4DF PUSH1 0xE1 SHL DUP2 MSTORE DUP2 MLOAD PUSH4 0xF731E9BE SWAP3 PUSH1 0x4 DUP1 DUP5 ADD SWAP4 SWAP2 SWAP3 SWAP2 DUP3 SWAP1 SUB ADD DUP2 DUP7 DUP1 EXTCODESIZE ISZERO DUP1 ISZERO PUSH2 0x288F JUMPI PUSH1 0x0 DUP1 REVERT JUMPDEST POP GAS STATICCALL ISZERO DUP1 ISZERO PUSH2 0x28A3 JUMPI RETURNDATASIZE PUSH1 0x0 DUP1 RETURNDATACOPY RETURNDATASIZE PUSH1 0x0 REVERT JUMPDEST POP POP POP POP PUSH1 0x40 MLOAD RETURNDATASIZE PUSH1 0x1F NOT PUSH1 0x1F DUP3 ADD AND DUP3 ADD DUP1 PUSH1 0x40 MSTORE POP DUP2 ADD SWAP1 PUSH2 0x28C7 SWAP2 SWAP1 PUSH2 0x4CA8 JUMP JUMPDEST PUSH1 0xC0 DUP4 ADD MSTORE PUSH1 0x40 DUP1 DUP4 ADD SWAP2 SWAP1 SWAP2 MSTORE PUSH1 0x1 DUP8 ADD SLOAD PUSH1 0x6 DUP9 ADD SLOAD DUP3 MLOAD PUSH4 0xB1BF962D PUSH1 0xE0 SHL DUP2 MSTORE SWAP3 MLOAD PUSH2 0x296C SWAP4 PUSH1 0x1 PUSH1 0x80 SHL SWAP1 SWAP4 DIV PUSH1 0x1 PUSH1 0x1 PUSH1 0x80 SHL SUB AND SWAP3 PUSH1 0x1 PUSH1 0x1 PUSH1 0xA0 SHL SUB SWAP1 SWAP3 AND SWAP2 PUSH4 0xB1BF962D SWAP2 PUSH1 0x4 DUP1 DUP4 ADD SWAP3 PUSH1 0x20 SWAP3 SWAP2 SWAP1 DUP3 SWAP1 SUB ADD DUP2 DUP7 DUP1 EXTCODESIZE ISZERO DUP1 ISZERO PUSH2 0x2934 JUMPI PUSH1 0x0 DUP1 REVERT JUMPDEST POP GAS STATICCALL ISZERO DUP1 ISZERO PUSH2 0x2948 JUMPI RETURNDATASIZE PUSH1 0x0 DUP1 RETURNDATACOPY RETURNDATASIZE PUSH1 0x0 REVERT JUMPDEST POP POP POP POP PUSH1 0x40 MLOAD RETURNDATASIZE PUSH1 0x1F NOT PUSH1 0x1F DUP3 ADD AND DUP3 ADD DUP1 PUSH1 0x40 MSTORE POP DUP2 ADD SWAP1 PUSH2 0x2653 SWAP2 SWAP1 PUSH2 0x4BE9 JUMP JUMPDEST PUSH1 0xE0 DUP3 ADD MSTORE PUSH1 0x40 MLOAD PUSH4 0x70A08231 PUSH1 0xE0 SHL DUP2 MSTORE PUSH1 0x1 PUSH1 0x1 PUSH1 0xA0 SHL SUB DUP7 AND SWAP1 PUSH4 0x70A08231 SWAP1 PUSH2 0x299D SWAP1 DUP8 SWAP1 PUSH1 0x4 ADD PUSH2 0x4DF8 JUMP JUMPDEST PUSH1 0x20 PUSH1 0x40 MLOAD DUP1 DUP4 SUB DUP2 DUP7 DUP1 EXTCODESIZE ISZERO DUP1 ISZERO PUSH2 0x29B5 JUMPI PUSH1 0x0 DUP1 REVERT JUMPDEST POP GAS STATICCALL ISZERO DUP1 ISZERO PUSH2 0x29C9 JUMPI RETURNDATASIZE PUSH1 0x0 DUP1 RETURNDATACOPY RETURNDATASIZE PUSH1 0x0 REVERT JUMPDEST POP POP POP POP PUSH1 0x40 MLOAD RETURNDATASIZE PUSH1 0x1F NOT PUSH1 0x1F DUP3 ADD AND DUP3 ADD DUP1 PUSH1 0x40 MSTORE POP DUP2 ADD SWAP1 PUSH2 0x29ED SWAP2 SWAP1 PUSH2 0x4BE9 JUMP JUMPDEST PUSH1 0x20 DUP3 ADD DUP2 SWAP1 MSTORE PUSH1 0x7 DUP8 ADD SLOAD PUSH1 0x1 PUSH1 0x1 PUSH1 0xA0 SHL SUB AND SWAP1 PUSH4 0x9584DF28 SWAP1 DUP8 SWAP1 PUSH2 0x2A1B SWAP1 DUP7 SWAP1 PUSH2 0x960 SWAP1 DUP10 PUSH2 0x2C35 JUMP JUMPDEST PUSH1 0x40 DUP6 ADD MLOAD PUSH1 0xE0 DUP7 ADD MLOAD PUSH1 0xC0 DUP8 ADD MLOAD PUSH2 0x2A33 DUP14 PUSH2 0x3F25 JUMP JUMPDEST PUSH1 0x40 MLOAD DUP8 PUSH4 0xFFFFFFFF AND PUSH1 0xE0 SHL DUP2 MSTORE PUSH1 0x4 ADD PUSH2 0x2A54 SWAP7 SWAP6 SWAP5 SWAP4 SWAP3 SWAP2 SWAP1 PUSH2 0x4FD1 JUMP JUMPDEST PUSH1 0x60 PUSH1 0x40 MLOAD DUP1 DUP4 SUB DUP2 DUP7 DUP1 EXTCODESIZE ISZERO DUP1 ISZERO PUSH2 0x2A6C JUMPI PUSH1 0x0 DUP1 REVERT JUMPDEST POP GAS STATICCALL ISZERO DUP1 ISZERO PUSH2 0x2A80 JUMPI RETURNDATASIZE PUSH1 0x0 DUP1 RETURNDATACOPY RETURNDATASIZE PUSH1 0x0 REVERT JUMPDEST POP POP POP POP PUSH1 0x40 MLOAD RETURNDATASIZE PUSH1 0x1F NOT PUSH1 0x1F DUP3 ADD AND DUP3 ADD DUP1 PUSH1 0x40 MSTORE POP DUP2 ADD SWAP1 PUSH2 0x2AA4 SWAP2 SWAP1 PUSH2 0x4CCB JUMP JUMPDEST PUSH1 0xA0 DUP5 ADD MSTORE PUSH1 0x80 DUP4 ADD MSTORE PUSH1 0x60 DUP3 ADD DUP2 SWAP1 MSTORE PUSH1 0x40 DUP1 MLOAD DUP1 DUP3 ADD SWAP1 SWAP2 MSTORE PUSH1 0x2 DUP2 MSTORE PUSH2 0x3533 PUSH1 0xF0 SHL PUSH1 0x20 DUP3 ADD MSTORE SWAP1 PUSH1 0x1 PUSH1 0x1 PUSH1 0x80 SHL SUB LT ISZERO PUSH2 0x2AF6 JUMPI PUSH1 0x40 MLOAD PUSH3 0x461BCD PUSH1 0xE5 SHL DUP2 MSTORE PUSH1 0x4 ADD PUSH2 0x55B SWAP2 SWAP1 PUSH2 0x5120 JUMP JUMPDEST POP PUSH1 0x80 DUP2 ADD MLOAD PUSH1 0x40 DUP1 MLOAD DUP1 DUP3 ADD SWAP1 SWAP2 MSTORE PUSH1 0x2 DUP2 MSTORE PUSH2 0x3535 PUSH1 0xF0 SHL PUSH1 0x20 DUP3 ADD MSTORE SWAP1 PUSH1 0x1 PUSH1 0x1 PUSH1 0x80 SHL SUB LT ISZERO PUSH2 0x2B3D JUMPI PUSH1 0x40 MLOAD PUSH3 0x461BCD PUSH1 0xE5 SHL DUP2 MSTORE PUSH1 0x4 ADD PUSH2 0x55B SWAP2 SWAP1 PUSH2 0x5120 JUMP JUMPDEST POP PUSH1 0xA0 DUP2 ADD MLOAD PUSH1 0x40 DUP1 MLOAD DUP1 DUP3 ADD SWAP1 SWAP2 MSTORE PUSH1 0x2 DUP2 MSTORE PUSH2 0xD4D PUSH1 0xF2 SHL PUSH1 0x20 DUP3 ADD MSTORE SWAP1 PUSH1 0x1 PUSH1 0x1 PUSH1 0x80 SHL SUB LT ISZERO PUSH2 0x2B84 JUMPI PUSH1 0x40 MLOAD PUSH3 0x461BCD PUSH1 0xE5 SHL DUP2 MSTORE PUSH1 0x4 ADD PUSH2 0x55B SWAP2 SWAP1 PUSH2 0x5120 JUMP JUMPDEST POP PUSH1 0x60 DUP2 ADD MLOAD PUSH1 0x2 DUP8 ADD DUP1 SLOAD PUSH1 0x80 DUP5 ADD MLOAD PUSH1 0x3 DUP11 ADD DUP1 SLOAD PUSH1 0x1 PUSH1 0x1 PUSH1 0x80 SHL SUB NOT SWAP1 DUP2 AND PUSH1 0x1 PUSH1 0x1 PUSH1 0x80 SHL SUB DUP1 DUP6 AND SWAP2 SWAP1 SWAP2 OR SWAP1 SWAP3 SSTORE PUSH1 0xA0 DUP8 ADD MLOAD SWAP4 AND DUP2 DUP7 AND OR DUP2 AND PUSH1 0x1 PUSH1 0x80 SHL DUP5 DUP4 AND DUP2 MUL SWAP2 SWAP1 SWAP2 OR SWAP1 SWAP5 SSTORE PUSH1 0x1 DUP12 ADD SLOAD PUSH1 0x40 MLOAD PUSH1 0x1 PUSH1 0x1 PUSH1 0xA0 SHL SUB DUP13 AND SWAP7 PUSH32 0x804C9B842B2748A22BB64B345453A3DE7CA54A6CA45CE00D415894979E22897A SWAP7 PUSH2 0x2C25 SWAP7 SWAP2 SWAP6 SWAP5 SWAP2 SWAP4 DUP1 DUP4 AND SWAP4 SWAP2 SWAP1 DIV SWAP1 SWAP2 AND SWAP1 PUSH2 0x54E7 JUMP JUMPDEST PUSH1 0x40 MLOAD DUP1 SWAP2 SUB SWAP1 LOG2 POP POP POP POP POP POP JUMP JUMPDEST PUSH1 0x0 DUP3 DUP3 ADD DUP4 DUP2 LT ISZERO PUSH2 0xF07 JUMPI PUSH1 0x40 MLOAD PUSH3 0x461BCD PUSH1 0xE5 SHL DUP2 MSTORE PUSH1 0x4 ADD PUSH2 0x55B SWAP1 PUSH2 0x5153 JUMP JUMPDEST PUSH1 0x0 PUSH2 0xF07 DUP4 DUP4 PUSH1 0x40 MLOAD DUP1 PUSH1 0x40 ADD PUSH1 0x40 MSTORE DUP1 PUSH1 0x1E DUP2 MSTORE PUSH1 0x20 ADD PUSH32 0x536166654D6174683A207375627472616374696F6E206F766572666C6F770000 DUP2 MSTORE POP PUSH2 0x3F30 JUMP JUMPDEST PUSH1 0x40 DUP1 MLOAD DUP1 DUP3 ADD SWAP1 SWAP2 MSTORE PUSH1 0x2 DUP2 MSTORE PUSH2 0x3737 PUSH1 0xF0 SHL PUSH1 0x20 DUP3 ADD MSTORE PUSH1 0x80 DUP4 LT PUSH2 0x2CD6 JUMPI PUSH1 0x40 MLOAD PUSH3 0x461BCD PUSH1 0xE5 SHL DUP2 MSTORE PUSH1 0x4 ADD PUSH2 0x55B SWAP2 SWAP1 PUSH2 0x5120 JUMP JUMPDEST POP DUP2 PUSH1 0x2 MUL DUP2 PUSH2 0x2CE7 JUMPI PUSH1 0x0 PUSH2 0x2CEA JUMP JUMPDEST PUSH1 0x1 JUMPDEST PUSH1 0xFF AND SWAP1 SHL DUP3 PUSH1 0x2 MUL PUSH1 0x1 SWAP1 SHL NOT DUP5 PUSH1 0x0 ADD SLOAD AND OR DUP4 PUSH1 0x0 ADD DUP2 SWAP1 SSTORE POP POP POP POP JUMP JUMPDEST PUSH2 0x2D64 DUP5 PUSH4 0x23B872DD PUSH1 0xE0 SHL DUP6 DUP6 DUP6 PUSH1 0x40 MLOAD PUSH1 0x24 ADD PUSH2 0x2D2D SWAP4 SWAP3 SWAP2 SWAP1 PUSH2 0x4EB4 JUMP JUMPDEST PUSH1 0x40 DUP1 MLOAD PUSH1 0x1F NOT DUP2 DUP5 SUB ADD DUP2 MSTORE SWAP2 SWAP1 MSTORE PUSH1 0x20 DUP2 ADD DUP1 MLOAD PUSH1 0x1 PUSH1 0x1 PUSH1 0xE0 SHL SUB AND PUSH1 0x1 PUSH1 0x1 PUSH1 0xE0 SHL SUB NOT SWAP1 SWAP4 AND SWAP3 SWAP1 SWAP3 OR SWAP1 SWAP2 MSTORE PUSH2 0x3F5C JUMP JUMPDEST POP POP POP POP JUMP JUMPDEST PUSH1 0x40 DUP1 MLOAD DUP1 DUP3 ADD SWAP1 SWAP2 MSTORE PUSH1 0x2 DUP2 MSTORE PUSH2 0x3737 PUSH1 0xF0 SHL PUSH1 0x20 DUP3 ADD MSTORE PUSH1 0x80 DUP4 LT PUSH2 0x2DA4 JUMPI PUSH1 0x40 MLOAD PUSH3 0x461BCD PUSH1 0xE5 SHL DUP2 MSTORE PUSH1 0x4 ADD PUSH2 0x55B SWAP2 SWAP1 PUSH2 0x5120 JUMP JUMPDEST POP DUP2 PUSH1 0x2 MUL PUSH1 0x1 ADD DUP2 PUSH2 0x2DB8 JUMPI PUSH1 0x0 PUSH2 0x2DBB JUMP JUMPDEST PUSH1 0x1 JUMPDEST PUSH1 0xFF AND SWAP1 SHL DUP3 PUSH1 0x2 MUL PUSH1 0x1 ADD PUSH1 0x1 SWAP1 SHL NOT DUP5 PUSH1 0x0 ADD SLOAD AND OR DUP4 PUSH1 0x0 ADD DUP2 SWAP1 SSTORE POP POP POP POP JUMP JUMPDEST PUSH1 0x0 DUP2 EXTCODEHASH PUSH32 0xC5D2460186F7233C927E7DB2DCC703C0E500B653CA82273B7BFAD8045D85A470 DUP2 DUP2 EQ DUP1 ISZERO SWAP1 PUSH2 0x2659 JUMPI POP POP ISZERO ISZERO SWAP3 SWAP2 POP POP JUMP JUMPDEST PUSH1 0x38 SLOAD PUSH1 0x40 DUP1 MLOAD DUP1 DUP3 ADD SWAP1 SWAP2 MSTORE PUSH1 0x2 DUP2 MSTORE PUSH2 0x3635 PUSH1 0xF0 SHL PUSH1 0x20 DUP3 ADD MSTORE PUSH1 0x80 DUP3 LT PUSH2 0x2E56 JUMPI PUSH1 0x40 MLOAD PUSH3 0x461BCD PUSH1 0xE5 SHL DUP2 MSTORE PUSH1 0x4 ADD PUSH2 0x55B SWAP2 SWAP1 PUSH2 0x5120 JUMP JUMPDEST POP PUSH1 0x1 PUSH1 0x1 PUSH1 0xA0 SHL SUB DUP3 AND PUSH1 0x0 SWAP1 DUP2 MSTORE PUSH1 0x35 PUSH1 0x20 MSTORE PUSH1 0x40 DUP2 KECCAK256 PUSH1 0x7 ADD SLOAD PUSH1 0x1 PUSH1 0xA0 SHL SWAP1 DIV PUSH1 0xFF AND ISZERO ISZERO DUP1 PUSH2 0x2EBF JUMPI POP PUSH1 0x0 DUP1 MSTORE PUSH1 0x37 PUSH1 0x20 MSTORE PUSH32 0xA0A618D80EDA9243166BE83CB7421D97E9DAB6DDDDD3C70AC7A6B4440256E8E7 SLOAD PUSH1 0x1 PUSH1 0x1 PUSH1 0xA0 SHL SUB DUP5 DUP2 AND SWAP2 AND EQ JUMPDEST SWAP1 POP DUP1 PUSH2 0xBD6 JUMPI POP PUSH1 0x1 PUSH1 0x1 PUSH1 0xA0 SHL SUB SWAP2 SWAP1 SWAP2 AND PUSH1 0x0 DUP2 DUP2 MSTORE PUSH1 0x35 PUSH1 0x20 SWAP1 DUP2 MSTORE PUSH1 0x40 DUP1 DUP4 KECCAK256 PUSH1 0x7 ADD DUP1 SLOAD PUSH1 0xFF PUSH1 0xA0 SHL NOT AND PUSH1 0x1 PUSH1 0xA0 SHL PUSH1 0xFF DUP9 AND MUL OR SWAP1 SSTORE DUP5 DUP4 MSTORE PUSH1 0x37 SWAP1 SWAP2 MSTORE SWAP1 KECCAK256 DUP1 SLOAD PUSH1 0x1 PUSH1 0x1 PUSH1 0xA0 SHL SUB NOT AND SWAP1 SWAP2 OR SWAP1 SSTORE PUSH1 0x1 ADD PUSH1 0x38 SSTORE JUMP JUMPDEST DUP1 MLOAD PUSH1 0x1 PUSH1 0x1 PUSH1 0xA0 SHL SUB SWAP1 DUP2 AND PUSH1 0x0 SWAP1 DUP2 MSTORE PUSH1 0x35 PUSH1 0x20 SWAP1 DUP2 MSTORE PUSH1 0x40 DUP1 DUP4 KECCAK256 DUP2 DUP7 ADD MLOAD DUP6 AND DUP5 MSTORE PUSH1 0x36 DUP4 MSTORE DUP2 DUP5 KECCAK256 PUSH1 0x34 SLOAD DUP4 MLOAD PUSH4 0x1F94A275 PUSH1 0xE3 SHL DUP2 MSTORE SWAP4 MLOAD SWAP3 SWAP7 SWAP2 SWAP6 SWAP5 SWAP2 AND SWAP3 PUSH4 0xFCA513A8 SWAP3 PUSH1 0x4 DUP1 DUP4 ADD SWAP4 SWAP3 DUP3 SWAP1 SUB ADD DUP2 DUP7 DUP1 EXTCODESIZE ISZERO DUP1 ISZERO PUSH2 0x2F87 JUMPI PUSH1 0x0 DUP1 REVERT JUMPDEST POP GAS STATICCALL ISZERO DUP1 ISZERO PUSH2 0x2F9B JUMPI RETURNDATASIZE PUSH1 0x0 DUP1 RETURNDATACOPY RETURNDATASIZE PUSH1 0x0 REVERT JUMPDEST POP POP POP POP PUSH1 0x40 MLOAD RETURNDATASIZE PUSH1 0x1F NOT PUSH1 0x1F DUP3 ADD AND DUP3 ADD DUP1 PUSH1 0x40 MSTORE POP DUP2 ADD SWAP1 PUSH2 0x2FBF SWAP2 SWAP1 PUSH2 0x47C6 JUMP JUMPDEST SWAP1 POP PUSH1 0x0 PUSH2 0x3060 PUSH2 0x2FCF DUP6 PUSH2 0x4041 JUMP JUMPDEST PUSH1 0xA EXP PUSH2 0x15CB DUP8 PUSH1 0x60 ADD MLOAD DUP6 PUSH1 0x1 PUSH1 0x1 PUSH1 0xA0 SHL SUB AND PUSH4 0xB3596F07 DUP11 PUSH1 0x0 ADD MLOAD PUSH1 0x40 MLOAD DUP3 PUSH4 0xFFFFFFFF AND PUSH1 0xE0 SHL DUP2 MSTORE PUSH1 0x4 ADD PUSH2 0x300A SWAP2 SWAP1 PUSH2 0x4DF8 JUMP JUMPDEST PUSH1 0x20 PUSH1 0x40 MLOAD DUP1 DUP4 SUB DUP2 DUP7 DUP1 EXTCODESIZE ISZERO DUP1 ISZERO PUSH2 0x3022 JUMPI PUSH1 0x0 DUP1 REVERT JUMPDEST POP GAS STATICCALL ISZERO DUP1 ISZERO PUSH2 0x3036 JUMPI RETURNDATASIZE PUSH1 0x0 DUP1 RETURNDATACOPY RETURNDATASIZE PUSH1 0x0 REVERT JUMPDEST POP POP POP POP PUSH1 0x40 MLOAD RETURNDATASIZE PUSH1 0x1F NOT PUSH1 0x1F DUP3 ADD AND DUP3 ADD DUP1 PUSH1 0x40 MSTORE POP DUP2 ADD SWAP1 PUSH2 0x305A SWAP2 SWAP1 PUSH2 0x4BE9 JUMP JUMPDEST SWAP1 PUSH2 0x3457 JUMP JUMPDEST SWAP1 POP PUSH20 0x0 PUSH4 0x721A92F9 DUP7 PUSH1 0x0 ADD MLOAD DUP7 DUP9 PUSH1 0x40 ADD MLOAD DUP10 PUSH1 0x60 ADD MLOAD DUP7 DUP12 PUSH1 0x80 ADD MLOAD PUSH2 0x9C4 PUSH1 0x35 DUP13 PUSH1 0x37 PUSH1 0x38 SLOAD DUP15 PUSH1 0x40 MLOAD DUP14 PUSH4 0xFFFFFFFF AND PUSH1 0xE0 SHL DUP2 MSTORE PUSH1 0x4 ADD PUSH2 0x30C5 SWAP13 SWAP12 SWAP11 SWAP10 SWAP9 SWAP8 SWAP7 SWAP6 SWAP5 SWAP4 SWAP3 SWAP2 SWAP1 PUSH2 0x4F01 JUMP JUMPDEST PUSH1 0x0 PUSH1 0x40 MLOAD DUP1 DUP4 SUB DUP2 DUP7 DUP1 EXTCODESIZE ISZERO DUP1 ISZERO PUSH2 0x30DD JUMPI PUSH1 0x0 DUP1 REVERT JUMPDEST POP GAS DELEGATECALL ISZERO DUP1 ISZERO PUSH2 0x30F1 JUMPI RETURNDATASIZE PUSH1 0x0 DUP1 RETURNDATACOPY RETURNDATASIZE PUSH1 0x0 REVERT JUMPDEST POP POP POP POP PUSH2 0x30FE DUP5 PUSH2 0x2776 JUMP JUMPDEST PUSH1 0x0 DUP1 PUSH1 0x1 DUP8 PUSH1 0x80 ADD MLOAD PUSH1 0x2 DUP2 GT ISZERO PUSH2 0x3113 JUMPI INVALID JUMPDEST PUSH1 0x2 DUP2 GT ISZERO PUSH2 0x311E JUMPI INVALID JUMPDEST EQ ISZERO PUSH2 0x31D3 JUMPI PUSH1 0x3 DUP7 ADD SLOAD PUSH1 0x5 DUP8 ADD SLOAD PUSH1 0x20 DUP10 ADD MLOAD PUSH1 0x40 DUP1 DUP12 ADD MLOAD PUSH1 0x60 DUP13 ADD MLOAD SWAP2 MLOAD PUSH4 0xB3F1C93D PUSH1 0xE0 SHL DUP2 MSTORE PUSH1 0x1 PUSH1 0x1 PUSH1 0x80 SHL SUB SWAP1 SWAP6 AND SWAP7 POP PUSH1 0x1 PUSH1 0x1 PUSH1 0xA0 SHL SUB SWAP1 SWAP4 AND SWAP4 PUSH4 0xB3F1C93D SWAP4 PUSH2 0x317A SWAP4 SWAP3 SWAP1 SWAP2 DUP9 SWAP1 PUSH1 0x4 ADD PUSH2 0x4ED8 JUMP JUMPDEST PUSH1 0x20 PUSH1 0x40 MLOAD DUP1 DUP4 SUB DUP2 PUSH1 0x0 DUP8 DUP1 EXTCODESIZE ISZERO DUP1 ISZERO PUSH2 0x3194 JUMPI PUSH1 0x0 DUP1 REVERT JUMPDEST POP GAS CALL ISZERO DUP1 ISZERO PUSH2 0x31A8 JUMPI RETURNDATASIZE PUSH1 0x0 DUP1 RETURNDATACOPY RETURNDATASIZE PUSH1 0x0 REVERT JUMPDEST POP POP POP POP PUSH1 0x40 MLOAD RETURNDATASIZE PUSH1 0x1F NOT PUSH1 0x1F DUP3 ADD AND DUP3 ADD DUP1 PUSH1 0x40 MSTORE POP DUP2 ADD SWAP1 PUSH2 0x31CC SWAP2 SWAP1 PUSH2 0x4BCD JUMP JUMPDEST SWAP1 POP PUSH2 0x3282 JUMP JUMPDEST PUSH1 0x6 DUP7 ADD SLOAD PUSH1 0x20 DUP9 ADD MLOAD PUSH1 0x40 DUP1 DUP11 ADD MLOAD PUSH1 0x60 DUP12 ADD MLOAD PUSH1 0x1 DUP12 ADD SLOAD SWAP3 MLOAD PUSH4 0xB3F1C93D PUSH1 0xE0 SHL DUP2 MSTORE PUSH1 0x1 PUSH1 0x1 PUSH1 0xA0 SHL SUB SWAP1 SWAP6 AND SWAP5 PUSH4 0xB3F1C93D SWAP5 PUSH2 0x322D SWAP5 SWAP1 SWAP4 SWAP3 SWAP2 PUSH1 0x1 PUSH1 0x80 SHL SWAP1 SWAP2 DIV PUSH1 0x1 PUSH1 0x1 PUSH1 0x80 SHL SUB AND SWAP1 PUSH1 0x4 ADD PUSH2 0x4E0C JUMP JUMPDEST PUSH1 0x20 PUSH1 0x40 MLOAD DUP1 DUP4 SUB DUP2 PUSH1 0x0 DUP8 DUP1 EXTCODESIZE ISZERO DUP1 ISZERO PUSH2 0x3247 JUMPI PUSH1 0x0 DUP1 REVERT JUMPDEST POP GAS CALL ISZERO DUP1 ISZERO PUSH2 0x325B JUMPI RETURNDATASIZE PUSH1 0x0 DUP1 RETURNDATACOPY RETURNDATASIZE PUSH1 0x0 REVERT JUMPDEST POP POP POP POP PUSH1 0x40 MLOAD RETURNDATASIZE PUSH1 0x1F NOT PUSH1 0x1F DUP3 ADD AND DUP3 ADD DUP1 PUSH1 0x40 MSTORE POP DUP2 ADD SWAP1 PUSH2 0x327F SWAP2 SWAP1 PUSH2 0x4BCD JUMP JUMPDEST SWAP1 POP JUMPDEST DUP1 ISZERO PUSH2 0x32A4 JUMPI PUSH1 0x7 DUP7 ADD SLOAD PUSH2 0x32A4 SWAP1 DUP7 SWAP1 PUSH1 0x1 PUSH1 0xA0 SHL SWAP1 DIV PUSH1 0xFF AND PUSH1 0x1 PUSH2 0x2C9C JUMP JUMPDEST PUSH2 0x32D3 DUP8 PUSH1 0x0 ADD MLOAD DUP9 PUSH1 0xA0 ADD MLOAD PUSH1 0x0 DUP11 PUSH1 0xE0 ADD MLOAD PUSH2 0x32C3 JUMPI PUSH1 0x0 PUSH2 0x32C9 JUMP JUMPDEST DUP11 PUSH1 0x60 ADD MLOAD JUMPDEST DUP11 SWAP4 SWAP3 SWAP2 SWAP1 PUSH2 0x2843 JUMP JUMPDEST DUP7 PUSH1 0xE0 ADD MLOAD ISZERO PUSH2 0x336B JUMPI DUP7 PUSH1 0xA0 ADD MLOAD PUSH1 0x1 PUSH1 0x1 PUSH1 0xA0 SHL SUB AND PUSH4 0x4EFECAA5 DUP9 PUSH1 0x20 ADD MLOAD DUP10 PUSH1 0x60 ADD MLOAD PUSH1 0x40 MLOAD DUP4 PUSH4 0xFFFFFFFF AND PUSH1 0xE0 SHL DUP2 MSTORE PUSH1 0x4 ADD PUSH2 0x3317 SWAP3 SWAP2 SWAP1 PUSH2 0x4E3D JUMP JUMPDEST PUSH1 0x20 PUSH1 0x40 MLOAD DUP1 DUP4 SUB DUP2 PUSH1 0x0 DUP8 DUP1 EXTCODESIZE ISZERO DUP1 ISZERO PUSH2 0x3331 JUMPI PUSH1 0x0 DUP1 REVERT JUMPDEST POP GAS CALL ISZERO DUP1 ISZERO PUSH2 0x3345 JUMPI RETURNDATASIZE PUSH1 0x0 DUP1 RETURNDATACOPY RETURNDATASIZE PUSH1 0x0 REVERT JUMPDEST POP POP POP POP PUSH1 0x40 MLOAD RETURNDATASIZE PUSH1 0x1F NOT PUSH1 0x1F DUP3 ADD AND DUP3 ADD DUP1 PUSH1 0x40 MSTORE POP DUP2 ADD SWAP1 PUSH2 0x3369 SWAP2 SWAP1 PUSH2 0x4BE9 JUMP JUMPDEST POP JUMPDEST DUP7 PUSH1 0xC0 ADD MLOAD PUSH2 0xFFFF AND DUP8 PUSH1 0x40 ADD MLOAD PUSH1 0x1 PUSH1 0x1 PUSH1 0xA0 SHL SUB AND DUP9 PUSH1 0x0 ADD MLOAD PUSH1 0x1 PUSH1 0x1 PUSH1 0xA0 SHL SUB AND PUSH32 0xC6A898309E823EE50BAC64E45CA8ADBA6690E99E7841C45D754E2A38E9019D9B DUP11 PUSH1 0x20 ADD MLOAD DUP12 PUSH1 0x60 ADD MLOAD DUP13 PUSH1 0x80 ADD MLOAD PUSH1 0x1 PUSH1 0x2 DUP2 GT ISZERO PUSH2 0x33CD JUMPI INVALID JUMPDEST DUP15 PUSH1 0x80 ADD MLOAD PUSH1 0x2 DUP2 GT ISZERO PUSH2 0x33DD JUMPI INVALID JUMPDEST PUSH1 0x2 DUP2 GT ISZERO PUSH2 0x33E8 JUMPI INVALID JUMPDEST EQ PUSH2 0x3407 JUMPI PUSH1 0x2 DUP14 ADD SLOAD PUSH1 0x1 PUSH1 0x80 SHL SWAP1 DIV PUSH1 0x1 PUSH1 0x1 PUSH1 0x80 SHL SUB AND PUSH2 0x3409 JUMP JUMPDEST DUP9 JUMPDEST PUSH1 0x40 MLOAD PUSH2 0x24C2 SWAP5 SWAP4 SWAP3 SWAP2 SWAP1 PUSH2 0x4FAB JUMP JUMPDEST DUP1 MLOAD DUP3 MLOAD EQ PUSH1 0x40 MLOAD DUP1 PUSH1 0x40 ADD PUSH1 0x40 MSTORE DUP1 PUSH1 0x2 DUP2 MSTORE PUSH1 0x20 ADD PUSH2 0x3733 PUSH1 0xF0 SHL DUP2 MSTORE POP SWAP1 PUSH2 0xBD6 JUMPI PUSH1 0x40 MLOAD PUSH3 0x461BCD PUSH1 0xE5 SHL DUP2 MSTORE PUSH1 0x4 ADD PUSH2 0x55B SWAP2 SWAP1 PUSH2 0x5120 JUMP JUMPDEST PUSH1 0x0 DUP3 PUSH2 0x3466 JUMPI POP PUSH1 0x0 PUSH2 0x711 JUMP JUMPDEST DUP3 DUP3 MUL DUP3 DUP5 DUP3 DUP2 PUSH2 0x3473 JUMPI INVALID JUMPDEST DIV EQ PUSH2 0xF07 JUMPI PUSH1 0x40 MLOAD PUSH3 0x461BCD PUSH1 0xE5 SHL DUP2 MSTORE PUSH1 0x4 ADD PUSH2 0x55B SWAP1 PUSH2 0x51BF JUMP JUMPDEST PUSH1 0x0 PUSH2 0xF07 DUP4 DUP4 PUSH1 0x40 MLOAD DUP1 PUSH1 0x40 ADD PUSH1 0x40 MSTORE DUP1 PUSH1 0x1A DUP2 MSTORE PUSH1 0x20 ADD PUSH32 0x536166654D6174683A206469766973696F6E206279207A65726F000000000000 DUP2 MSTORE POP PUSH2 0x404B JUMP JUMPDEST PUSH1 0x0 PUSH2 0x34F0 PUSH2 0x34E1 DUP5 PUSH2 0x4082 JUMP JUMPDEST PUSH2 0x34EA DUP5 PUSH2 0x4082 JUMP JUMPDEST SWAP1 PUSH2 0x40D2 JUMP JUMPDEST SWAP1 POP PUSH1 0x0 PUSH2 0x3506 PUSH2 0x34FF PUSH2 0x417D JUMP JUMPDEST DUP4 SWAP1 PUSH2 0x2C35 JUMP JUMPDEST PUSH1 0x1 DUP7 ADD SLOAD SWAP1 SWAP2 POP PUSH2 0x3522 SWAP1 DUP3 SWAP1 PUSH1 0x1 PUSH1 0x1 PUSH1 0x80 SHL SUB AND PUSH2 0x3B72 JUMP JUMPDEST PUSH1 0x40 DUP1 MLOAD DUP1 DUP3 ADD SWAP1 SWAP2 MSTORE PUSH1 0x2 DUP2 MSTORE PUSH2 0x3531 PUSH1 0xF0 SHL PUSH1 0x20 DUP3 ADD MSTORE SWAP1 SWAP2 POP PUSH1 0x1 PUSH1 0x1 PUSH1 0x80 SHL SUB DUP3 GT ISZERO PUSH2 0x3566 JUMPI PUSH1 0x40 MLOAD PUSH3 0x461BCD PUSH1 0xE5 SHL DUP2 MSTORE PUSH1 0x4 ADD PUSH2 0x55B SWAP2 SWAP1 PUSH2 0x5120 JUMP JUMPDEST POP PUSH1 0x1 SWAP5 SWAP1 SWAP5 ADD DUP1 SLOAD PUSH1 0x1 PUSH1 0x1 PUSH1 0x80 SHL SUB NOT AND PUSH1 0x1 PUSH1 0x1 PUSH1 0x80 SHL SUB SWAP1 SWAP6 AND SWAP5 SWAP1 SWAP5 OR SWAP1 SWAP4 SSTORE POP POP POP JUMP JUMPDEST PUSH1 0x0 DUP1 PUSH1 0x0 DUP1 PUSH1 0x0 PUSH2 0x35A0 PUSH2 0x4610 JUMP JUMPDEST PUSH2 0x35A9 DUP11 PUSH2 0x418D JUMP JUMPDEST ISZERO PUSH2 0x35C7 JUMPI PUSH1 0x0 DUP1 PUSH1 0x0 DUP1 PUSH1 0x0 NOT SWAP6 POP SWAP6 POP SWAP6 POP SWAP6 POP SWAP6 POP POP PUSH2 0x3A43 JUMP JUMPDEST PUSH1 0x0 PUSH1 0xE0 DUP3 ADD MSTORE JUMPDEST DUP8 DUP2 PUSH1 0xE0 ADD MLOAD LT ISZERO PUSH2 0x39A2 JUMPI PUSH1 0xE0 DUP2 ADD MLOAD PUSH2 0x35EB SWAP1 DUP12 SWAP1 PUSH2 0x4192 JUMP JUMPDEST PUSH2 0x35F4 JUMPI PUSH2 0x3992 JUMP JUMPDEST PUSH1 0xE0 DUP2 ADD MLOAD PUSH1 0x0 SWAP1 DUP2 MSTORE PUSH1 0x20 DUP11 DUP2 MSTORE PUSH1 0x40 DUP1 DUP4 KECCAK256 SLOAD PUSH1 0x1 PUSH1 0x1 PUSH1 0xA0 SHL SUB AND PUSH2 0x1E0 DUP6 ADD DUP2 SWAP1 MSTORE DUP4 MSTORE SWAP1 DUP14 SWAP1 MSTORE SWAP1 KECCAK256 PUSH2 0x362B DUP2 PUSH2 0x41E3 JUMP JUMPDEST POP PUSH1 0x80 DUP7 ADD DUP2 SWAP1 MSTORE PUSH1 0xC0 DUP7 ADD SWAP3 SWAP1 SWAP3 MSTORE POP PUSH1 0xA0 DUP5 ADD SWAP2 SWAP1 SWAP2 MSTORE PUSH1 0xA EXP PUSH1 0x20 DUP4 ADD MSTORE PUSH2 0x1E0 DUP3 ADD MLOAD PUSH1 0x40 MLOAD PUSH4 0xB3596F07 PUSH1 0xE0 SHL DUP2 MSTORE PUSH1 0x1 PUSH1 0x1 PUSH1 0xA0 SHL SUB DUP11 AND SWAP2 PUSH4 0xB3596F07 SWAP2 PUSH2 0x367D SWAP2 SWAP1 PUSH1 0x4 ADD PUSH2 0x4DF8 JUMP JUMPDEST PUSH1 0x20 PUSH1 0x40 MLOAD DUP1 DUP4 SUB DUP2 DUP7 DUP1 EXTCODESIZE ISZERO DUP1 ISZERO PUSH2 0x3695 JUMPI PUSH1 0x0 DUP1 REVERT JUMPDEST POP GAS STATICCALL ISZERO DUP1 ISZERO PUSH2 0x36A9 JUMPI RETURNDATASIZE PUSH1 0x0 DUP1 RETURNDATACOPY RETURNDATASIZE PUSH1 0x0 REVERT JUMPDEST POP POP POP POP PUSH1 0x40 MLOAD RETURNDATASIZE PUSH1 0x1F NOT PUSH1 0x1F DUP3 ADD AND DUP3 ADD DUP1 PUSH1 0x40 MSTORE POP DUP2 ADD SWAP1 PUSH2 0x36CD SWAP2 SWAP1 PUSH2 0x4BE9 JUMP JUMPDEST DUP3 MSTORE PUSH1 0xC0 DUP3 ADD MLOAD ISZERO DUP1 ISZERO SWAP1 PUSH2 0x36ED JUMPI POP PUSH1 0xE0 DUP3 ADD MLOAD PUSH2 0x36ED SWAP1 DUP13 SWAP1 PUSH2 0x420E JUMP JUMPDEST ISZERO PUSH2 0x380B JUMPI DUP1 PUSH1 0x4 ADD PUSH1 0x0 SWAP1 SLOAD SWAP1 PUSH2 0x100 EXP SWAP1 DIV PUSH1 0x1 PUSH1 0x1 PUSH1 0xA0 SHL SUB AND PUSH1 0x1 PUSH1 0x1 PUSH1 0xA0 SHL SUB AND PUSH4 0x70A08231 DUP15 PUSH1 0x40 MLOAD DUP3 PUSH4 0xFFFFFFFF AND PUSH1 0xE0 SHL DUP2 MSTORE PUSH1 0x4 ADD PUSH2 0x3735 SWAP2 SWAP1 PUSH2 0x4DF8 JUMP JUMPDEST PUSH1 0x20 PUSH1 0x40 MLOAD DUP1 DUP4 SUB DUP2 DUP7 DUP1 EXTCODESIZE ISZERO DUP1 ISZERO PUSH2 0x374D JUMPI PUSH1 0x0 DUP1 REVERT JUMPDEST POP GAS STATICCALL ISZERO DUP1 ISZERO PUSH2 0x3761 JUMPI RETURNDATASIZE PUSH1 0x0 DUP1 RETURNDATACOPY RETURNDATASIZE PUSH1 0x0 REVERT JUMPDEST POP POP POP POP PUSH1 0x40 MLOAD RETURNDATASIZE PUSH1 0x1F NOT PUSH1 0x1F DUP3 ADD AND DUP3 ADD DUP1 PUSH1 0x40 MSTORE POP DUP2 ADD SWAP1 PUSH2 0x3785 SWAP2 SWAP1 PUSH2 0x4BE9 JUMP JUMPDEST PUSH1 0x40 DUP4 ADD DUP2 SWAP1 MSTORE PUSH1 0x20 DUP4 ADD MLOAD DUP4 MLOAD PUSH1 0x0 SWAP3 PUSH2 0x37A4 SWAP3 SWAP2 PUSH2 0x15CB SWAP2 PUSH2 0x3457 JUMP JUMPDEST PUSH2 0x120 DUP5 ADD MLOAD SWAP1 SWAP2 POP PUSH2 0x37B7 SWAP1 DUP3 PUSH2 0x2C35 JUMP JUMPDEST PUSH2 0x120 DUP5 ADD MSTORE PUSH1 0xA0 DUP4 ADD MLOAD PUSH2 0x37DD SWAP1 PUSH2 0x37D1 SWAP1 DUP4 SWAP1 PUSH2 0x3457 JUMP JUMPDEST PUSH2 0x160 DUP6 ADD MLOAD SWAP1 PUSH2 0x2C35 JUMP JUMPDEST PUSH2 0x160 DUP5 ADD MSTORE PUSH1 0xC0 DUP4 ADD MLOAD PUSH2 0x3803 SWAP1 PUSH2 0x37F7 SWAP1 DUP4 SWAP1 PUSH2 0x3457 JUMP JUMPDEST PUSH2 0x180 DUP6 ADD MLOAD SWAP1 PUSH2 0x2C35 JUMP JUMPDEST PUSH2 0x180 DUP5 ADD MSTORE POP JUMPDEST PUSH1 0xE0 DUP3 ADD MLOAD PUSH2 0x381B SWAP1 DUP13 SWAP1 PUSH2 0x4266 JUMP JUMPDEST ISZERO PUSH2 0x3990 JUMPI DUP1 PUSH1 0x5 ADD PUSH1 0x0 SWAP1 SLOAD SWAP1 PUSH2 0x100 EXP SWAP1 DIV PUSH1 0x1 PUSH1 0x1 PUSH1 0xA0 SHL SUB AND PUSH1 0x1 PUSH1 0x1 PUSH1 0xA0 SHL SUB AND PUSH4 0x70A08231 DUP15 PUSH1 0x40 MLOAD DUP3 PUSH4 0xFFFFFFFF AND PUSH1 0xE0 SHL DUP2 MSTORE PUSH1 0x4 ADD PUSH2 0x3863 SWAP2 SWAP1 PUSH2 0x4DF8 JUMP JUMPDEST PUSH1 0x20 PUSH1 0x40 MLOAD DUP1 DUP4 SUB DUP2 DUP7 DUP1 EXTCODESIZE ISZERO DUP1 ISZERO PUSH2 0x387B JUMPI PUSH1 0x0 DUP1 REVERT JUMPDEST POP GAS STATICCALL ISZERO DUP1 ISZERO PUSH2 0x388F JUMPI RETURNDATASIZE PUSH1 0x0 DUP1 RETURNDATACOPY RETURNDATASIZE PUSH1 0x0 REVERT JUMPDEST POP POP POP POP PUSH1 0x40 MLOAD RETURNDATASIZE PUSH1 0x1F NOT PUSH1 0x1F DUP3 ADD AND DUP3 ADD DUP1 PUSH1 0x40 MSTORE POP DUP2 ADD SWAP1 PUSH2 0x38B3 SWAP2 SWAP1 PUSH2 0x4BE9 JUMP JUMPDEST DUP3 PUSH1 0x60 ADD DUP2 DUP2 MSTORE POP POP PUSH2 0x395D DUP2 PUSH1 0x6 ADD PUSH1 0x0 SWAP1 SLOAD SWAP1 PUSH2 0x100 EXP SWAP1 DIV PUSH1 0x1 PUSH1 0x1 PUSH1 0xA0 SHL SUB AND PUSH1 0x1 PUSH1 0x1 PUSH1 0xA0 SHL SUB AND PUSH4 0x70A08231 DUP16 PUSH1 0x40 MLOAD DUP3 PUSH4 0xFFFFFFFF AND PUSH1 0xE0 SHL DUP2 MSTORE PUSH1 0x4 ADD PUSH2 0x3902 SWAP2 SWAP1 PUSH2 0x4DF8 JUMP JUMPDEST PUSH1 0x20 PUSH1 0x40 MLOAD DUP1 DUP4 SUB DUP2 DUP7 DUP1 EXTCODESIZE ISZERO DUP1 ISZERO PUSH2 0x391A JUMPI PUSH1 0x0 DUP1 REVERT JUMPDEST POP GAS STATICCALL ISZERO DUP1 ISZERO PUSH2 0x392E JUMPI RETURNDATASIZE PUSH1 0x0 DUP1 RETURNDATACOPY RETURNDATASIZE PUSH1 0x0 REVERT JUMPDEST POP POP POP POP PUSH1 0x40 MLOAD RETURNDATASIZE PUSH1 0x1F NOT PUSH1 0x1F DUP3 ADD AND DUP3 ADD DUP1 PUSH1 0x40 MSTORE POP DUP2 ADD SWAP1 PUSH2 0x3952 SWAP2 SWAP1 PUSH2 0x4BE9 JUMP JUMPDEST PUSH1 0x60 DUP5 ADD MLOAD SWAP1 PUSH2 0x2C35 JUMP JUMPDEST PUSH1 0x60 DUP4 ADD DUP2 SWAP1 MSTORE PUSH1 0x20 DUP4 ADD MLOAD DUP4 MLOAD PUSH2 0x3989 SWAP3 PUSH2 0x397D SWAP3 SWAP2 PUSH2 0x15CB SWAP2 PUSH2 0x3457 JUMP JUMPDEST PUSH2 0x140 DUP5 ADD MLOAD SWAP1 PUSH2 0x2C35 JUMP JUMPDEST PUSH2 0x140 DUP4 ADD MSTORE JUMPDEST POP JUMPDEST PUSH1 0xE0 DUP2 ADD DUP1 MLOAD PUSH1 0x1 ADD SWAP1 MSTORE PUSH2 0x35CF JUMP JUMPDEST PUSH1 0x0 DUP2 PUSH2 0x120 ADD MLOAD GT PUSH2 0x39B6 JUMPI PUSH1 0x0 PUSH2 0x39CB JUMP JUMPDEST PUSH2 0x120 DUP2 ADD MLOAD PUSH2 0x160 DUP3 ADD MLOAD PUSH2 0x39CB SWAP2 PUSH2 0x3491 JUMP JUMPDEST PUSH2 0x160 DUP3 ADD MSTORE PUSH2 0x120 DUP2 ADD MLOAD PUSH2 0x39E2 JUMPI PUSH1 0x0 PUSH2 0x39F7 JUMP JUMPDEST PUSH2 0x120 DUP2 ADD MLOAD PUSH2 0x180 DUP3 ADD MLOAD PUSH2 0x39F7 SWAP2 PUSH2 0x3491 JUMP JUMPDEST PUSH2 0x180 DUP3 ADD DUP2 SWAP1 MSTORE PUSH2 0x120 DUP3 ADD MLOAD PUSH2 0x140 DUP4 ADD MLOAD PUSH2 0x3A14 SWAP3 PUSH2 0x42B7 JUMP JUMPDEST PUSH2 0x100 DUP3 ADD DUP2 SWAP1 MSTORE PUSH2 0x120 DUP3 ADD MLOAD PUSH2 0x140 DUP4 ADD MLOAD PUSH2 0x160 DUP5 ADD MLOAD PUSH2 0x180 SWAP1 SWAP5 ADD MLOAD SWAP2 SWAP9 POP SWAP7 POP SWAP2 SWAP5 POP SWAP1 SWAP3 POP SWAP1 POP JUMPDEST SWAP7 POP SWAP7 POP SWAP7 POP SWAP7 POP SWAP7 SWAP2 POP POP JUMP JUMPDEST PUSH1 0x0 DUP1 PUSH2 0x3A5E DUP6 DUP5 PUSH2 0x42DB JUMP JUMPDEST SWAP1 POP DUP4 DUP2 LT ISZERO PUSH2 0x3A72 JUMPI PUSH1 0x0 SWAP2 POP POP PUSH2 0xF07 JUMP JUMPDEST PUSH2 0x3A7C DUP2 DUP6 PUSH2 0x2C5A JUMP JUMPDEST SWAP6 SWAP5 POP POP POP POP POP JUMP JUMPDEST PUSH1 0x1 SWAP1 JUMP JUMPDEST ADDRESS EXTCODESIZE ISZERO SWAP1 JUMP JUMPDEST PUSH1 0x3 DUP2 ADD SLOAD PUSH1 0x0 SWAP1 PUSH5 0xFFFFFFFFFF PUSH1 0x1 PUSH1 0x80 SHL SWAP1 SWAP2 DIV DUP2 AND SWAP1 TIMESTAMP AND DUP2 EQ ISZERO PUSH2 0x3AC7 JUMPI POP POP PUSH1 0x1 DUP2 ADD SLOAD PUSH1 0x1 PUSH1 0x1 PUSH1 0x80 SHL SUB AND PUSH2 0x6EB JUMP JUMPDEST PUSH1 0x1 DUP4 ADD SLOAD PUSH1 0x2 DUP5 ADD SLOAD PUSH1 0x0 SWAP2 PUSH2 0x2659 SWAP2 PUSH1 0x1 PUSH1 0x1 PUSH1 0x80 SHL SUB SWAP2 DUP3 AND SWAP2 PUSH2 0x2653 SWAP2 AND DUP6 PUSH2 0x434A JUMP JUMPDEST PUSH1 0x40 DUP1 MLOAD PUSH1 0x20 DUP2 ADD SWAP1 SWAP2 MSTORE DUP5 SLOAD DUP2 MSTORE PUSH1 0x0 SWAP1 PUSH2 0x3B11 SWAP1 DUP9 SWAP1 DUP9 SWAP1 DUP8 DUP8 DUP8 PUSH2 0x3590 JUMP JUMPDEST SWAP5 POP POP POP POP POP PUSH8 0xDE0B6B3A7640000 DUP2 LT ISZERO PUSH1 0x40 MLOAD DUP1 PUSH1 0x40 ADD PUSH1 0x40 MSTORE DUP1 PUSH1 0x1 DUP2 MSTORE PUSH1 0x20 ADD PUSH1 0x1B PUSH1 0xF9 SHL DUP2 MSTORE POP SWAP1 PUSH2 0x3B5B JUMPI PUSH1 0x40 MLOAD PUSH3 0x461BCD PUSH1 0xE5 SHL DUP2 MSTORE PUSH1 0x4 ADD PUSH2 0x55B SWAP2 SWAP1 PUSH2 0x5120 JUMP JUMPDEST POP POP POP POP POP POP POP POP JUMP JUMPDEST PUSH1 0x0 PUSH2 0xF07 DUP4 DUP4 TIMESTAMP PUSH2 0x4388 JUMP JUMPDEST PUSH1 0x0 DUP3 ISZERO DUP1 PUSH2 0x3B7F JUMPI POP DUP2 ISZERO JUMPDEST ISZERO PUSH2 0x3B8C JUMPI POP PUSH1 0x0 PUSH2 0x711 JUMP JUMPDEST DUP2 PUSH12 0x19D971E4FE8401E74000000 NOT DUP2 PUSH2 0x3BA2 JUMPI INVALID JUMPDEST DIV DUP4 GT ISZERO PUSH1 0x40 MLOAD DUP1 PUSH1 0x40 ADD PUSH1 0x40 MSTORE DUP1 PUSH1 0x2 DUP2 MSTORE PUSH1 0x20 ADD PUSH2 0x687 PUSH1 0xF3 SHL DUP2 MSTORE POP SWAP1 PUSH2 0x3BDF JUMPI PUSH1 0x40 MLOAD PUSH3 0x461BCD PUSH1 0xE5 SHL DUP2 MSTORE PUSH1 0x4 ADD PUSH2 0x55B SWAP2 SWAP1 PUSH2 0x5120 JUMP JUMPDEST POP PUSH12 0x33B2E3C9FD0803CE8000000 PUSH1 0x2 DUP2 JUMPDEST DIV DUP4 DUP6 MUL ADD DUP2 PUSH2 0x3BFD JUMPI INVALID JUMPDEST DIV SWAP4 SWAP3 POP POP POP JUMP JUMPDEST PUSH1 0x2 DUP6 ADD SLOAD PUSH1 0x0 SWAP1 DUP2 SWAP1 PUSH1 0x1 PUSH1 0x1 PUSH1 0x80 SHL SUB AND DUP6 DUP6 DUP3 ISZERO PUSH2 0x3D33 JUMPI PUSH1 0x0 PUSH2 0x3C2C DUP5 DUP9 PUSH2 0x434A JUMP JUMPDEST SWAP1 POP PUSH2 0x3C38 DUP2 DUP11 PUSH2 0x3B72 JUMP JUMPDEST PUSH1 0x40 DUP1 MLOAD DUP1 DUP3 ADD SWAP1 SWAP2 MSTORE PUSH1 0x2 DUP2 MSTORE PUSH2 0x3531 PUSH1 0xF0 SHL PUSH1 0x20 DUP3 ADD MSTORE SWAP1 SWAP4 POP PUSH1 0x1 PUSH1 0x1 PUSH1 0x80 SHL SUB DUP5 GT ISZERO PUSH2 0x3C7C JUMPI PUSH1 0x40 MLOAD PUSH3 0x461BCD PUSH1 0xE5 SHL DUP2 MSTORE PUSH1 0x4 ADD PUSH2 0x55B SWAP2 SWAP1 PUSH2 0x5120 JUMP JUMPDEST POP PUSH1 0x1 DUP12 ADD DUP1 SLOAD PUSH1 0x1 PUSH1 0x1 PUSH1 0x80 SHL SUB NOT AND PUSH1 0x1 PUSH1 0x1 PUSH1 0x80 SHL SUB DUP6 AND OR SWAP1 SSTORE DUP10 ISZERO PUSH2 0x3D31 JUMPI PUSH1 0x2 DUP12 ADD SLOAD PUSH1 0x0 SWAP1 PUSH2 0x3CC2 SWAP1 PUSH1 0x1 PUSH1 0x80 SHL SWAP1 DIV PUSH1 0x1 PUSH1 0x1 PUSH1 0x80 SHL SUB AND DUP10 PUSH2 0x3B65 JUMP JUMPDEST SWAP1 POP PUSH2 0x3CCE DUP2 DUP11 PUSH2 0x3B72 JUMP JUMPDEST PUSH1 0x40 DUP1 MLOAD DUP1 DUP3 ADD SWAP1 SWAP2 MSTORE PUSH1 0x2 DUP2 MSTORE PUSH2 0x1A99 PUSH1 0xF1 SHL PUSH1 0x20 DUP3 ADD MSTORE SWAP1 SWAP4 POP PUSH1 0x1 PUSH1 0x1 PUSH1 0x80 SHL SUB DUP5 GT ISZERO PUSH2 0x3D12 JUMPI PUSH1 0x40 MLOAD PUSH3 0x461BCD PUSH1 0xE5 SHL DUP2 MSTORE PUSH1 0x4 ADD PUSH2 0x55B SWAP2 SWAP1 PUSH2 0x5120 JUMP JUMPDEST POP POP PUSH1 0x1 DUP12 ADD DUP1 SLOAD PUSH1 0x1 PUSH1 0x1 PUSH1 0x80 SHL SUB DUP1 DUP6 AND PUSH1 0x1 PUSH1 0x80 SHL MUL SWAP2 AND OR SWAP1 SSTORE JUMPDEST POP JUMPDEST PUSH1 0x3 SWAP10 SWAP1 SWAP10 ADD DUP1 SLOAD PUSH5 0xFFFFFFFFFF PUSH1 0x80 SHL NOT AND PUSH1 0x1 PUSH1 0x80 SHL TIMESTAMP PUSH5 0xFFFFFFFFFF AND MUL OR SWAP1 SSTORE SWAP9 SWAP7 POP POP POP POP POP POP POP JUMP JUMPDEST PUSH2 0x3D6A PUSH2 0x46AA JUMP JUMPDEST PUSH2 0x3D73 DUP8 PUSH2 0x3F25 JUMP JUMPDEST PUSH2 0x120 DUP3 ADD DUP2 SWAP1 MSTORE PUSH2 0x3D85 JUMPI POP PUSH2 0x13DA JUMP JUMPDEST DUP7 PUSH1 0x5 ADD PUSH1 0x0 SWAP1 SLOAD SWAP1 PUSH2 0x100 EXP SWAP1 DIV PUSH1 0x1 PUSH1 0x1 PUSH1 0xA0 SHL SUB AND PUSH1 0x1 PUSH1 0x1 PUSH1 0xA0 SHL SUB AND PUSH4 0x79774338 PUSH1 0x40 MLOAD DUP2 PUSH4 0xFFFFFFFF AND PUSH1 0xE0 SHL DUP2 MSTORE PUSH1 0x4 ADD PUSH1 0x80 PUSH1 0x40 MLOAD DUP1 DUP4 SUB DUP2 DUP7 DUP1 EXTCODESIZE ISZERO DUP1 ISZERO PUSH2 0x3DD5 JUMPI PUSH1 0x0 DUP1 REVERT JUMPDEST POP GAS STATICCALL ISZERO DUP1 ISZERO PUSH2 0x3DE9 JUMPI RETURNDATASIZE PUSH1 0x0 DUP1 RETURNDATACOPY RETURNDATASIZE PUSH1 0x0 REVERT JUMPDEST POP POP POP POP PUSH1 0x40 MLOAD RETURNDATASIZE PUSH1 0x1F NOT PUSH1 0x1F DUP3 ADD AND DUP3 ADD DUP1 PUSH1 0x40 MSTORE POP DUP2 ADD SWAP1 PUSH2 0x3E0D SWAP2 SWAP1 PUSH2 0x4CF8 JUMP JUMPDEST PUSH5 0xFFFFFFFFFF AND PUSH2 0x140 DUP6 ADD MSTORE PUSH1 0xA0 DUP5 ADD MSTORE DUP3 MSTORE PUSH1 0x20 DUP3 ADD MSTORE PUSH2 0x3E30 DUP7 DUP7 PUSH2 0x3B72 JUMP JUMPDEST PUSH1 0x80 DUP3 ADD MSTORE PUSH2 0x3E3F DUP7 DUP5 PUSH2 0x3B72 JUMP JUMPDEST PUSH1 0x60 DUP3 ADD MSTORE PUSH1 0xA0 DUP2 ADD MLOAD PUSH2 0x140 DUP3 ADD MLOAD PUSH2 0x3E61 SWAP2 SWAP1 PUSH5 0xFFFFFFFFFF DUP6 AND PUSH2 0x4388 JUMP JUMPDEST PUSH1 0xC0 DUP3 ADD DUP2 SWAP1 MSTORE PUSH1 0x20 DUP3 ADD MLOAD PUSH2 0x3E76 SWAP2 PUSH2 0x3B72 JUMP JUMPDEST PUSH1 0x40 DUP3 ADD DUP2 SWAP1 MSTORE PUSH1 0x80 DUP3 ADD MLOAD DUP3 MLOAD PUSH1 0x60 DUP5 ADD MLOAD PUSH2 0x3E9B SWAP4 SWAP3 PUSH2 0x960 SWAP3 SWAP1 SWAP2 DUP4 SWAP2 PUSH2 0x2C35 JUMP JUMPDEST PUSH1 0xE0 DUP3 ADD DUP2 SWAP1 MSTORE PUSH2 0x120 DUP3 ADD MLOAD PUSH2 0x3EB2 SWAP2 SWAP1 PUSH2 0x42DB JUMP JUMPDEST PUSH2 0x100 DUP3 ADD DUP2 SWAP1 MSTORE ISZERO PUSH2 0x2297 JUMPI PUSH1 0x4 DUP1 DUP9 ADD SLOAD PUSH2 0x100 DUP4 ADD MLOAD PUSH1 0x40 MLOAD PUSH4 0x7DF5BD3B PUSH1 0xE0 SHL DUP2 MSTORE PUSH1 0x1 PUSH1 0x1 PUSH1 0xA0 SHL SUB SWAP1 SWAP3 AND SWAP3 PUSH4 0x7DF5BD3B SWAP3 PUSH2 0x3EF7 SWAP3 SWAP2 DUP10 SWAP2 ADD PUSH2 0x5472 JUMP JUMPDEST PUSH1 0x0 PUSH1 0x40 MLOAD DUP1 DUP4 SUB DUP2 PUSH1 0x0 DUP8 DUP1 EXTCODESIZE ISZERO DUP1 ISZERO PUSH2 0x3F11 JUMPI PUSH1 0x0 DUP1 REVERT JUMPDEST POP GAS CALL ISZERO DUP1 ISZERO PUSH2 0x5C3 JUMPI RETURNDATASIZE PUSH1 0x0 DUP1 RETURNDATACOPY RETURNDATASIZE PUSH1 0x0 REVERT JUMPDEST SLOAD PUSH1 0x40 SHR PUSH2 0xFFFF AND SWAP1 JUMP JUMPDEST PUSH1 0x0 DUP2 DUP5 DUP5 GT ISZERO PUSH2 0x3F54 JUMPI PUSH1 0x40 MLOAD PUSH3 0x461BCD PUSH1 0xE5 SHL DUP2 MSTORE PUSH1 0x4 ADD PUSH2 0x55B SWAP2 SWAP1 PUSH2 0x5120 JUMP JUMPDEST POP POP POP SWAP1 SUB SWAP1 JUMP JUMPDEST PUSH2 0x3F6E DUP3 PUSH1 0x1 PUSH1 0x1 PUSH1 0xA0 SHL SUB AND PUSH2 0x2DE0 JUMP JUMPDEST PUSH2 0x3F8A JUMPI PUSH1 0x40 MLOAD PUSH3 0x461BCD PUSH1 0xE5 SHL DUP2 MSTORE PUSH1 0x4 ADD PUSH2 0x55B SWAP1 PUSH2 0x5298 JUMP JUMPDEST PUSH1 0x0 PUSH1 0x60 DUP4 PUSH1 0x1 PUSH1 0x1 PUSH1 0xA0 SHL SUB AND DUP4 PUSH1 0x40 MLOAD PUSH2 0x3FA6 SWAP2 SWAP1 PUSH2 0x4DDC JUMP JUMPDEST PUSH1 0x0 PUSH1 0x40 MLOAD DUP1 DUP4 SUB DUP2 PUSH1 0x0 DUP7 GAS CALL SWAP2 POP POP RETURNDATASIZE DUP1 PUSH1 0x0 DUP2 EQ PUSH2 0x3FE3 JUMPI PUSH1 0x40 MLOAD SWAP2 POP PUSH1 0x1F NOT PUSH1 0x3F RETURNDATASIZE ADD AND DUP3 ADD PUSH1 0x40 MSTORE RETURNDATASIZE DUP3 MSTORE RETURNDATASIZE PUSH1 0x0 PUSH1 0x20 DUP5 ADD RETURNDATACOPY PUSH2 0x3FE8 JUMP JUMPDEST PUSH1 0x60 SWAP2 POP JUMPDEST POP SWAP2 POP SWAP2 POP DUP2 PUSH2 0x400A JUMPI PUSH1 0x40 MLOAD PUSH3 0x461BCD PUSH1 0xE5 SHL DUP2 MSTORE PUSH1 0x4 ADD PUSH2 0x55B SWAP1 PUSH2 0x518A JUMP JUMPDEST DUP1 MLOAD ISZERO PUSH2 0x2D64 JUMPI DUP1 DUP1 PUSH1 0x20 ADD SWAP1 MLOAD DUP2 ADD SWAP1 PUSH2 0x4025 SWAP2 SWAP1 PUSH2 0x4BCD JUMP JUMPDEST PUSH2 0x2D64 JUMPI PUSH1 0x40 MLOAD PUSH3 0x461BCD PUSH1 0xE5 SHL DUP2 MSTORE PUSH1 0x4 ADD PUSH2 0x55B SWAP1 PUSH2 0x524E JUMP JUMPDEST SLOAD PUSH1 0x30 SHR PUSH1 0xFF AND SWAP1 JUMP JUMPDEST PUSH1 0x0 DUP2 DUP4 PUSH2 0x406C JUMPI PUSH1 0x40 MLOAD PUSH3 0x461BCD PUSH1 0xE5 SHL DUP2 MSTORE PUSH1 0x4 ADD PUSH2 0x55B SWAP2 SWAP1 PUSH2 0x5120 JUMP JUMPDEST POP PUSH1 0x0 DUP4 DUP6 DUP2 PUSH2 0x4078 JUMPI INVALID JUMPDEST DIV SWAP6 SWAP5 POP POP POP POP POP JUMP JUMPDEST PUSH1 0x0 PUSH4 0x3B9ACA00 DUP3 DUP2 MUL SWAP1 DUP4 SWAP1 DUP3 DIV EQ PUSH1 0x40 MLOAD DUP1 PUSH1 0x40 ADD PUSH1 0x40 MSTORE DUP1 PUSH1 0x2 DUP2 MSTORE PUSH1 0x20 ADD PUSH2 0x687 PUSH1 0xF3 SHL DUP2 MSTORE POP SWAP1 PUSH2 0x40CB JUMPI PUSH1 0x40 MLOAD PUSH3 0x461BCD PUSH1 0xE5 SHL DUP2 MSTORE PUSH1 0x4 ADD PUSH2 0x55B SWAP2 SWAP1 PUSH2 0x5120 JUMP JUMPDEST POP SWAP3 SWAP2 POP POP JUMP JUMPDEST PUSH1 0x40 DUP1 MLOAD DUP1 DUP3 ADD SWAP1 SWAP2 MSTORE PUSH1 0x2 DUP2 MSTORE PUSH2 0x353 PUSH1 0xF4 SHL PUSH1 0x20 DUP3 ADD MSTORE PUSH1 0x0 SWAP1 DUP3 PUSH2 0x410C JUMPI PUSH1 0x40 MLOAD PUSH3 0x461BCD PUSH1 0xE5 SHL DUP2 MSTORE PUSH1 0x4 ADD PUSH2 0x55B SWAP2 SWAP1 PUSH2 0x5120 JUMP JUMPDEST POP PUSH1 0x40 DUP1 MLOAD DUP1 DUP3 ADD SWAP1 SWAP2 MSTORE PUSH1 0x2 DUP1 DUP3 MSTORE PUSH2 0x687 PUSH1 0xF3 SHL PUSH1 0x20 DUP4 ADD MSTORE DUP4 DIV SWAP1 PUSH12 0x33B2E3C9FD0803CE8000000 DUP3 NOT DIV DUP6 GT ISZERO PUSH2 0x415A JUMPI PUSH1 0x40 MLOAD PUSH3 0x461BCD PUSH1 0xE5 SHL DUP2 MSTORE PUSH1 0x4 ADD PUSH2 0x55B SWAP2 SWAP1 PUSH2 0x5120 JUMP JUMPDEST POP DUP3 DUP2 PUSH12 0x33B2E3C9FD0803CE8000000 DUP7 MUL ADD DUP2 PUSH2 0x4174 JUMPI INVALID JUMPDEST DIV SWAP5 SWAP4 POP POP POP POP JUMP JUMPDEST PUSH12 0x33B2E3C9FD0803CE8000000 SWAP1 JUMP JUMPDEST MLOAD ISZERO SWAP1 JUMP JUMPDEST PUSH1 0x0 PUSH1 0x80 DUP3 LT PUSH1 0x40 MLOAD DUP1 PUSH1 0x40 ADD PUSH1 0x40 MSTORE DUP1 PUSH1 0x2 DUP2 MSTORE PUSH1 0x20 ADD PUSH2 0x3737 PUSH1 0xF0 SHL DUP2 MSTORE POP SWAP1 PUSH2 0x41D1 JUMPI PUSH1 0x40 MLOAD PUSH3 0x461BCD PUSH1 0xE5 SHL DUP2 MSTORE PUSH1 0x4 ADD PUSH2 0x55B SWAP2 SWAP1 PUSH2 0x5120 JUMP JUMPDEST POP POP SWAP1 MLOAD PUSH1 0x3 PUSH1 0x2 SWAP1 SWAP3 MUL SHR AND ISZERO ISZERO SWAP1 JUMP JUMPDEST SLOAD PUSH2 0xFFFF DUP1 DUP3 AND SWAP3 PUSH1 0x10 DUP4 SWAP1 SHR DUP3 AND SWAP3 PUSH1 0x20 DUP2 SWAP1 SHR DUP4 AND SWAP3 PUSH1 0x30 DUP3 SWAP1 SHR PUSH1 0xFF AND SWAP3 PUSH1 0x40 SWAP3 SWAP1 SWAP3 SHR AND SWAP1 JUMP JUMPDEST PUSH1 0x0 PUSH1 0x80 DUP3 LT PUSH1 0x40 MLOAD DUP1 PUSH1 0x40 ADD PUSH1 0x40 MSTORE DUP1 PUSH1 0x2 DUP2 MSTORE PUSH1 0x20 ADD PUSH2 0x3737 PUSH1 0xF0 SHL DUP2 MSTORE POP SWAP1 PUSH2 0x424D JUMPI PUSH1 0x40 MLOAD PUSH3 0x461BCD PUSH1 0xE5 SHL DUP2 MSTORE PUSH1 0x4 ADD PUSH2 0x55B SWAP2 SWAP1 PUSH2 0x5120 JUMP JUMPDEST POP POP DUP2 MLOAD PUSH1 0x1 PUSH1 0x2 DUP4 MUL DUP2 ADD SWAP2 SWAP1 SWAP2 SHR AND ISZERO ISZERO SWAP3 SWAP2 POP POP JUMP JUMPDEST PUSH1 0x0 PUSH1 0x80 DUP3 LT PUSH1 0x40 MLOAD DUP1 PUSH1 0x40 ADD PUSH1 0x40 MSTORE DUP1 PUSH1 0x2 DUP2 MSTORE PUSH1 0x20 ADD PUSH2 0x3737 PUSH1 0xF0 SHL DUP2 MSTORE POP SWAP1 PUSH2 0x42A5 JUMPI PUSH1 0x40 MLOAD PUSH3 0x461BCD PUSH1 0xE5 SHL DUP2 MSTORE PUSH1 0x4 ADD PUSH2 0x55B SWAP2 SWAP1 PUSH2 0x5120 JUMP JUMPDEST POP POP SWAP1 MLOAD PUSH1 0x1 PUSH1 0x2 SWAP1 SWAP3 MUL SHR AND ISZERO ISZERO SWAP1 JUMP JUMPDEST PUSH1 0x0 DUP3 PUSH2 0x42C7 JUMPI POP PUSH1 0x0 NOT PUSH2 0xF07 JUMP JUMPDEST PUSH2 0x2659 DUP4 PUSH2 0x42D5 DUP7 DUP6 PUSH2 0x42DB JUMP JUMPDEST SWAP1 PUSH2 0x445E JUMP JUMPDEST PUSH1 0x0 DUP3 ISZERO DUP1 PUSH2 0x42E8 JUMPI POP DUP2 ISZERO JUMPDEST ISZERO PUSH2 0x42F5 JUMPI POP PUSH1 0x0 PUSH2 0x711 JUMP JUMPDEST DUP2 PUSH2 0x1388 NOT DUP2 PUSH2 0x4301 JUMPI INVALID JUMPDEST DIV DUP4 GT ISZERO PUSH1 0x40 MLOAD DUP1 PUSH1 0x40 ADD PUSH1 0x40 MSTORE DUP1 PUSH1 0x2 DUP2 MSTORE PUSH1 0x20 ADD PUSH2 0x687 PUSH1 0xF3 SHL DUP2 MSTORE POP SWAP1 PUSH2 0x433E JUMPI PUSH1 0x40 MLOAD PUSH3 0x461BCD PUSH1 0xE5 SHL DUP2 MSTORE PUSH1 0x4 ADD PUSH2 0x55B SWAP2 SWAP1 PUSH2 0x5120 JUMP JUMPDEST POP PUSH2 0x2710 PUSH1 0x2 DUP2 PUSH2 0x3BF1 JUMP JUMPDEST PUSH1 0x0 DUP1 PUSH2 0x435E TIMESTAMP PUSH5 0xFFFFFFFFFF DUP6 AND PUSH2 0x2C5A JUMP JUMPDEST SWAP1 POP PUSH2 0x2659 PUSH2 0x436B PUSH2 0x417D JUMP JUMPDEST PUSH4 0x1E13380 PUSH2 0x437A DUP8 DUP6 PUSH2 0x3457 JUMP JUMPDEST DUP2 PUSH2 0x4381 JUMPI INVALID JUMPDEST DIV SWAP1 PUSH2 0x2C35 JUMP JUMPDEST PUSH1 0x0 DUP1 PUSH2 0x439C DUP4 PUSH5 0xFFFFFFFFFF DUP7 AND PUSH2 0x2C5A JUMP JUMPDEST SWAP1 POP DUP1 PUSH2 0x43B3 JUMPI PUSH2 0x43AB PUSH2 0x417D JUMP JUMPDEST SWAP2 POP POP PUSH2 0xF07 JUMP JUMPDEST PUSH1 0x0 NOT DUP2 ADD PUSH1 0x0 PUSH1 0x2 DUP4 GT PUSH2 0x43C9 JUMPI PUSH1 0x0 PUSH2 0x43CE JUMP JUMPDEST PUSH1 0x2 DUP4 SUB JUMPDEST SWAP1 POP PUSH4 0x1E13380 DUP8 DIV PUSH1 0x0 PUSH2 0x43E3 DUP3 DUP1 PUSH2 0x3B72 JUMP JUMPDEST SWAP1 POP PUSH1 0x0 PUSH2 0x43F1 DUP3 DUP5 PUSH2 0x3B72 JUMP JUMPDEST SWAP1 POP PUSH1 0x0 PUSH1 0x2 PUSH2 0x4405 DUP5 PUSH2 0x305A DUP11 DUP11 PUSH2 0x3457 JUMP JUMPDEST DUP2 PUSH2 0x440C JUMPI INVALID JUMPDEST DIV SWAP1 POP PUSH1 0x0 PUSH1 0x6 PUSH2 0x4423 DUP5 PUSH2 0x305A DUP10 DUP2 DUP14 DUP14 PUSH2 0x3457 JUMP JUMPDEST DUP2 PUSH2 0x442A JUMPI INVALID JUMPDEST DIV SWAP1 POP PUSH2 0x444E DUP2 PUSH2 0x4448 DUP5 DUP2 PUSH2 0x4440 DUP11 DUP15 PUSH2 0x3457 JUMP JUMPDEST PUSH2 0x4448 PUSH2 0x417D JUMP JUMPDEST SWAP1 PUSH2 0x2C35 JUMP JUMPDEST SWAP13 SWAP12 POP POP POP POP POP POP POP POP POP POP POP POP JUMP JUMPDEST PUSH1 0x40 DUP1 MLOAD DUP1 DUP3 ADD SWAP1 SWAP2 MSTORE PUSH1 0x2 DUP2 MSTORE PUSH2 0x353 PUSH1 0xF4 SHL PUSH1 0x20 DUP3 ADD MSTORE PUSH1 0x0 SWAP1 DUP3 PUSH2 0x4498 JUMPI PUSH1 0x40 MLOAD PUSH3 0x461BCD PUSH1 0xE5 SHL DUP2 MSTORE PUSH1 0x4 ADD PUSH2 0x55B SWAP2 SWAP1 PUSH2 0x5120 JUMP JUMPDEST POP PUSH1 0x40 DUP1 MLOAD DUP1 DUP3 ADD SWAP1 SWAP2 MSTORE PUSH1 0x2 DUP1 DUP3 MSTORE PUSH2 0x687 PUSH1 0xF3 SHL PUSH1 0x20 DUP4 ADD MSTORE DUP4 DIV SWAP1 PUSH8 0xDE0B6B3A7640000 DUP3 NOT DIV DUP6 GT ISZERO PUSH2 0x44E2 JUMPI PUSH1 0x40 MLOAD PUSH3 0x461BCD PUSH1 0xE5 SHL DUP2 MSTORE PUSH1 0x4 ADD PUSH2 0x55B SWAP2 SWAP1 PUSH2 0x5120 JUMP JUMPDEST POP DUP3 DUP2 PUSH8 0xDE0B6B3A7640000 DUP7 MUL ADD DUP2 PUSH2 0x4174 JUMPI INVALID JUMPDEST PUSH1 0x40 MLOAD DUP1 PUSH2 0x180 ADD PUSH1 0x40 MSTORE DUP1 PUSH2 0x450C PUSH2 0x4563 JUMP JUMPDEST DUP2 MSTORE PUSH1 0x0 PUSH1 0x20 DUP3 ADD DUP2 SWAP1 MSTORE PUSH1 0x40 DUP3 ADD DUP2 SWAP1 MSTORE PUSH1 0x60 DUP3 ADD DUP2 SWAP1 MSTORE PUSH1 0x80 DUP3 ADD DUP2 SWAP1 MSTORE PUSH1 0xA0 DUP3 ADD DUP2 SWAP1 MSTORE PUSH1 0xC0 DUP3 ADD DUP2 SWAP1 MSTORE PUSH1 0xE0 DUP3 ADD DUP2 SWAP1 MSTORE PUSH2 0x100 DUP3 ADD DUP2 SWAP1 MSTORE PUSH2 0x120 DUP3 ADD DUP2 SWAP1 MSTORE PUSH2 0x140 DUP3 ADD DUP2 SWAP1 MSTORE PUSH2 0x160 SWAP1 SWAP2 ADD MSTORE SWAP1 JUMP JUMPDEST PUSH1 0x40 MLOAD DUP1 PUSH1 0x20 ADD PUSH1 0x40 MSTORE DUP1 PUSH1 0x0 DUP2 MSTORE POP SWAP1 JUMP JUMPDEST PUSH1 0x40 DUP1 MLOAD PUSH2 0x120 DUP2 ADD DUP3 MSTORE PUSH1 0x0 DUP1 DUP3 MSTORE PUSH1 0x20 DUP3 ADD DUP2 SWAP1 MSTORE SWAP2 DUP2 ADD DUP3 SWAP1 MSTORE PUSH1 0x60 DUP2 ADD DUP3 SWAP1 MSTORE PUSH1 0x80 DUP2 ADD DUP3 SWAP1 MSTORE PUSH1 0xA0 DUP2 ADD DUP3 SWAP1 MSTORE PUSH1 0xC0 DUP2 ADD DUP3 SWAP1 MSTORE PUSH1 0xE0 DUP2 ADD DUP3 SWAP1 MSTORE PUSH2 0x100 DUP2 ADD SWAP2 SWAP1 SWAP2 MSTORE SWAP1 JUMP JUMPDEST PUSH1 0x40 MLOAD DUP1 PUSH2 0x100 ADD PUSH1 0x40 MSTORE DUP1 PUSH1 0x0 PUSH1 0x1 PUSH1 0x1 PUSH1 0xA0 SHL SUB AND DUP2 MSTORE PUSH1 0x20 ADD PUSH1 0x0 DUP2 MSTORE PUSH1 0x20 ADD PUSH1 0x0 DUP2 MSTORE PUSH1 0x20 ADD PUSH1 0x0 DUP2 MSTORE PUSH1 0x20 ADD PUSH1 0x0 DUP2 MSTORE PUSH1 0x20 ADD PUSH1 0x0 DUP2 MSTORE PUSH1 0x20 ADD PUSH1 0x0 DUP2 MSTORE PUSH1 0x20 ADD PUSH1 0x0 DUP2 MSTORE POP SWAP1 JUMP JUMPDEST PUSH1 0x40 MLOAD DUP1 PUSH2 0x240 ADD PUSH1 0x40 MSTORE DUP1 PUSH1 0x0 DUP2 MSTORE PUSH1 0x20 ADD PUSH1 0x0 DUP2 MSTORE PUSH1 0x20 ADD PUSH1 0x0 DUP2 MSTORE PUSH1 0x20 ADD PUSH1 0x0 DUP2 MSTORE PUSH1 0x20 ADD PUSH1 0x0 DUP2 MSTORE PUSH1 0x20 ADD PUSH1 0x0 DUP2 MSTORE PUSH1 0x20 ADD PUSH1 0x0 DUP2 MSTORE PUSH1 0x20 ADD PUSH1 0x0 DUP2 MSTORE PUSH1 0x20 ADD PUSH1 0x0 DUP2 MSTORE PUSH1 0x20 ADD PUSH1 0x0 DUP2 MSTORE PUSH1 0x20 ADD PUSH1 0x0 DUP2 MSTORE PUSH1 0x20 ADD PUSH1 0x0 DUP2 MSTORE PUSH1 0x20 ADD PUSH1 0x0 DUP2 MSTORE PUSH1 0x20 ADD PUSH1 0x0 DUP2 MSTORE PUSH1 0x20 ADD PUSH1 0x0 ISZERO ISZERO DUP2 MSTORE PUSH1 0x20 ADD PUSH1 0x0 PUSH1 0x1 PUSH1 0x1 PUSH1 0xA0 SHL SUB AND DUP2 MSTORE PUSH1 0x20 ADD PUSH1 0x0 ISZERO ISZERO DUP2 MSTORE PUSH1 0x20 ADD PUSH1 0x0 ISZERO ISZERO DUP2 MSTORE POP SWAP1 JUMP JUMPDEST PUSH1 0x40 MLOAD DUP1 PUSH2 0x160 ADD PUSH1 0x40 MSTORE DUP1 PUSH1 0x0 DUP2 MSTORE PUSH1 0x20 ADD PUSH1 0x0 DUP2 MSTORE PUSH1 0x20 ADD PUSH1 0x0 DUP2 MSTORE PUSH1 0x20 ADD PUSH1 0x0 DUP2 MSTORE PUSH1 0x20 ADD PUSH1 0x0 DUP2 MSTORE PUSH1 0x20 ADD PUSH1 0x0 DUP2 MSTORE PUSH1 0x20 ADD PUSH1 0x0 DUP2 MSTORE PUSH1 0x20 ADD PUSH1 0x0 DUP2 MSTORE PUSH1 0x20 ADD PUSH1 0x0 DUP2 MSTORE PUSH1 0x20 ADD PUSH1 0x0 DUP2 MSTORE PUSH1 0x20 ADD PUSH1 0x0 PUSH5 0xFFFFFFFFFF AND DUP2 MSTORE POP SWAP1 JUMP JUMPDEST DUP1 CALLDATALOAD PUSH2 0x711 DUP2 PUSH2 0x5574 JUMP JUMPDEST PUSH1 0x0 DUP1 DUP4 PUSH1 0x1F DUP5 ADD SLT PUSH2 0x4727 JUMPI DUP2 DUP3 REVERT JUMPDEST POP DUP2 CALLDATALOAD PUSH8 0xFFFFFFFFFFFFFFFF DUP2 GT ISZERO PUSH2 0x473E JUMPI DUP2 DUP3 REVERT JUMPDEST PUSH1 0x20 DUP4 ADD SWAP2 POP DUP4 PUSH1 0x20 DUP1 DUP4 MUL DUP6 ADD ADD GT ISZERO PUSH2 0x276F JUMPI PUSH1 0x0 DUP1 REVERT JUMPDEST PUSH1 0x0 DUP1 DUP4 PUSH1 0x1F DUP5 ADD SLT PUSH2 0x4769 JUMPI DUP2 DUP3 REVERT JUMPDEST POP DUP2 CALLDATALOAD PUSH8 0xFFFFFFFFFFFFFFFF DUP2 GT ISZERO PUSH2 0x4780 JUMPI DUP2 DUP3 REVERT JUMPDEST PUSH1 0x20 DUP4 ADD SWAP2 POP DUP4 PUSH1 0x20 DUP3 DUP6 ADD ADD GT ISZERO PUSH2 0x276F JUMPI PUSH1 0x0 DUP1 REVERT JUMPDEST DUP1 CALLDATALOAD PUSH2 0xFFFF DUP2 AND DUP2 EQ PUSH2 0x711 JUMPI PUSH1 0x0 DUP1 REVERT JUMPDEST PUSH1 0x0 PUSH1 0x20 DUP3 DUP5 SUB SLT ISZERO PUSH2 0x47BB JUMPI DUP1 DUP2 REVERT JUMPDEST DUP2 CALLDATALOAD PUSH2 0xF07 DUP2 PUSH2 0x5574 JUMP JUMPDEST PUSH1 0x0 PUSH1 0x20 DUP3 DUP5 SUB SLT ISZERO PUSH2 0x47D7 JUMPI DUP1 DUP2 REVERT JUMPDEST DUP2 MLOAD PUSH2 0xF07 DUP2 PUSH2 0x5574 JUMP JUMPDEST PUSH1 0x0 DUP1 PUSH1 0x40 DUP4 DUP6 SUB SLT ISZERO PUSH2 0x47F4 JUMPI DUP1 DUP2 REVERT JUMPDEST DUP3 CALLDATALOAD PUSH2 0x47FF DUP2 PUSH2 0x5574 JUMP JUMPDEST SWAP2 POP PUSH1 0x20 DUP4 ADD CALLDATALOAD PUSH2 0x480F DUP2 PUSH2 0x5574 JUMP JUMPDEST DUP1 SWAP2 POP POP SWAP3 POP SWAP3 SWAP1 POP JUMP JUMPDEST PUSH1 0x0 DUP1 PUSH1 0x0 DUP1 PUSH1 0x0 PUSH1 0xA0 DUP7 DUP9 SUB SLT ISZERO PUSH2 0x4831 JUMPI DUP1 DUP2 REVERT JUMPDEST DUP6 CALLDATALOAD PUSH2 0x483C DUP2 PUSH2 0x5574 JUMP JUMPDEST SWAP5 POP PUSH1 0x20 DUP7 ADD CALLDATALOAD PUSH2 0x484C DUP2 PUSH2 0x5574 JUMP JUMPDEST SWAP4 POP PUSH1 0x40 DUP7 ADD CALLDATALOAD PUSH2 0x485C DUP2 PUSH2 0x5574 JUMP JUMPDEST SWAP3 POP PUSH1 0x60 DUP7 ADD CALLDATALOAD PUSH2 0x486C DUP2 PUSH2 0x5574 JUMP JUMPDEST SWAP2 POP PUSH1 0x80 DUP7 ADD CALLDATALOAD PUSH2 0x487C DUP2 PUSH2 0x5574 JUMP JUMPDEST DUP1 SWAP2 POP POP SWAP3 SWAP6 POP SWAP3 SWAP6 SWAP1 SWAP4 POP JUMP JUMPDEST PUSH1 0x0 DUP1 PUSH1 0x0 DUP1 PUSH1 0x0 PUSH1 0xA0 DUP7 DUP9 SUB SLT ISZERO PUSH2 0x48A1 JUMPI DUP1 DUP2 REVERT JUMPDEST DUP6 CALLDATALOAD PUSH2 0x48AC DUP2 PUSH2 0x5574 JUMP JUMPDEST SWAP5 POP PUSH1 0x20 DUP7 ADD CALLDATALOAD PUSH2 0x48BC DUP2 PUSH2 0x5574 JUMP JUMPDEST SWAP4 POP PUSH1 0x40 DUP7 ADD CALLDATALOAD PUSH2 0x48CC DUP2 PUSH2 0x5574 JUMP JUMPDEST SWAP3 POP PUSH1 0x60 DUP7 ADD CALLDATALOAD SWAP2 POP PUSH1 0x80 DUP7 ADD CALLDATALOAD PUSH2 0x487C DUP2 PUSH2 0x5589 JUMP JUMPDEST PUSH1 0x0 DUP1 PUSH1 0x0 DUP1 PUSH1 0x0 DUP1 PUSH1 0xC0 DUP8 DUP10 SUB SLT ISZERO PUSH2 0x48FB JUMPI DUP1 DUP2 REVERT JUMPDEST DUP7 CALLDATALOAD PUSH2 0x4906 DUP2 PUSH2 0x5574 JUMP JUMPDEST SWAP6 POP PUSH1 0x20 DUP8 ADD CALLDATALOAD PUSH2 0x4916 DUP2 PUSH2 0x5574 JUMP JUMPDEST SWAP5 POP PUSH1 0x40 DUP8 ADD CALLDATALOAD PUSH2 0x4926 DUP2 PUSH2 0x5574 JUMP JUMPDEST SWAP6 SWAP9 SWAP5 SWAP8 POP SWAP5 SWAP6 PUSH1 0x60 DUP2 ADD CALLDATALOAD SWAP6 POP PUSH1 0x80 DUP2 ADD CALLDATALOAD SWAP5 PUSH1 0xA0 SWAP1 SWAP2 ADD CALLDATALOAD SWAP4 POP SWAP2 POP POP JUMP JUMPDEST PUSH1 0x0 DUP1 PUSH1 0x0 DUP1 PUSH1 0x0 DUP1 PUSH1 0x0 DUP1 PUSH1 0x0 DUP1 PUSH1 0x0 PUSH1 0xE0 DUP13 DUP15 SUB SLT ISZERO PUSH2 0x4967 JUMPI DUP5 DUP6 REVERT JUMPDEST PUSH2 0x4971 DUP14 DUP14 PUSH2 0x470B JUMP JUMPDEST SWAP11 POP PUSH8 0xFFFFFFFFFFFFFFFF DUP1 PUSH1 0x20 DUP15 ADD CALLDATALOAD GT ISZERO PUSH2 0x498C JUMPI DUP6 DUP7 REVERT JUMPDEST PUSH2 0x499C DUP15 PUSH1 0x20 DUP16 ADD CALLDATALOAD DUP16 ADD PUSH2 0x4716 JUMP JUMPDEST SWAP1 SWAP12 POP SWAP10 POP PUSH1 0x40 DUP14 ADD CALLDATALOAD DUP2 LT ISZERO PUSH2 0x49B1 JUMPI DUP6 DUP7 REVERT JUMPDEST PUSH2 0x49C1 DUP15 PUSH1 0x40 DUP16 ADD CALLDATALOAD DUP16 ADD PUSH2 0x4716 JUMP JUMPDEST SWAP1 SWAP10 POP SWAP8 POP PUSH1 0x60 DUP14 ADD CALLDATALOAD DUP2 LT ISZERO PUSH2 0x49D6 JUMPI DUP6 DUP7 REVERT JUMPDEST PUSH2 0x49E6 DUP15 PUSH1 0x60 DUP16 ADD CALLDATALOAD DUP16 ADD PUSH2 0x4716 JUMP JUMPDEST SWAP1 SWAP8 POP SWAP6 POP PUSH2 0x49F8 DUP15 PUSH1 0x80 DUP16 ADD PUSH2 0x470B JUMP JUMPDEST SWAP5 POP DUP1 PUSH1 0xA0 DUP15 ADD CALLDATALOAD GT ISZERO PUSH2 0x4A0A JUMPI DUP4 DUP5 REVERT JUMPDEST POP PUSH2 0x4A1B DUP14 PUSH1 0xA0 DUP15 ADD CALLDATALOAD DUP15 ADD PUSH2 0x4758 JUMP JUMPDEST SWAP1 SWAP4 POP SWAP2 POP PUSH2 0x4A2D DUP14 PUSH1 0xC0 DUP15 ADD PUSH2 0x4798 JUMP JUMPDEST SWAP1 POP SWAP3 SWAP6 SWAP9 SWAP12 POP SWAP3 SWAP6 SWAP9 SWAP12 SWAP1 SWAP4 SWAP7 SWAP10 POP JUMP JUMPDEST PUSH1 0x0 DUP1 PUSH1 0x40 DUP4 DUP6 SUB SLT ISZERO PUSH2 0x4A51 JUMPI DUP1 DUP2 REVERT JUMPDEST DUP3 CALLDATALOAD PUSH2 0x4A5C DUP2 PUSH2 0x5574 JUMP JUMPDEST SWAP2 POP PUSH1 0x20 DUP4 ADD CALLDATALOAD PUSH2 0x480F DUP2 PUSH2 0x5589 JUMP JUMPDEST PUSH1 0x0 DUP1 PUSH1 0x40 DUP4 DUP6 SUB SLT ISZERO PUSH2 0x4A7E JUMPI DUP2 DUP3 REVERT JUMPDEST DUP3 CALLDATALOAD PUSH2 0x4A89 DUP2 PUSH2 0x5574 JUMP JUMPDEST SWAP5 PUSH1 0x20 SWAP4 SWAP1 SWAP4 ADD CALLDATALOAD SWAP4 POP POP POP JUMP JUMPDEST PUSH1 0x0 DUP1 PUSH1 0x0 PUSH1 0x60 DUP5 DUP7 SUB SLT ISZERO PUSH2 0x4AAB JUMPI DUP1 DUP2 REVERT JUMPDEST DUP4 CALLDATALOAD PUSH2 0x4AB6 DUP2 PUSH2 0x5574 JUMP JUMPDEST SWAP3 POP PUSH1 0x20 DUP5 ADD CALLDATALOAD SWAP2 POP PUSH1 0x40 DUP5 ADD CALLDATALOAD PUSH2 0x4ACD DUP2 PUSH2 0x5574 JUMP JUMPDEST DUP1 SWAP2 POP POP SWAP3 POP SWAP3 POP SWAP3 JUMP JUMPDEST PUSH1 0x0 DUP1 PUSH1 0x0 DUP1 PUSH1 0x80 DUP6 DUP8 SUB SLT ISZERO PUSH2 0x4AED JUMPI DUP2 DUP3 REVERT JUMPDEST DUP5 CALLDATALOAD PUSH2 0x4AF8 DUP2 PUSH2 0x5574 JUMP JUMPDEST SWAP4 POP PUSH1 0x20 DUP6 ADD CALLDATALOAD SWAP3 POP PUSH1 0x40 DUP6 ADD CALLDATALOAD PUSH2 0x4B0F DUP2 PUSH2 0x5574 JUMP JUMPDEST SWAP2 POP PUSH2 0x4B1E DUP7 PUSH1 0x60 DUP8 ADD PUSH2 0x4798 JUMP JUMPDEST SWAP1 POP SWAP3 SWAP6 SWAP2 SWAP5 POP SWAP3 POP JUMP JUMPDEST PUSH1 0x0 DUP1 PUSH1 0x0 DUP1 PUSH1 0x80 DUP6 DUP8 SUB SLT ISZERO PUSH2 0x4B3E JUMPI DUP2 DUP3 REVERT JUMPDEST DUP5 CALLDATALOAD PUSH2 0x4B49 DUP2 PUSH2 0x5574 JUMP JUMPDEST SWAP4 POP PUSH1 0x20 DUP6 ADD CALLDATALOAD SWAP3 POP PUSH1 0x40 DUP6 ADD CALLDATALOAD SWAP2 POP PUSH1 0x60 DUP6 ADD CALLDATALOAD PUSH2 0x4B67 DUP2 PUSH2 0x5574 JUMP JUMPDEST SWAP4 SWAP7 SWAP3 SWAP6 POP SWAP1 SWAP4 POP POP JUMP JUMPDEST PUSH1 0x0 DUP1 PUSH1 0x0 DUP1 PUSH1 0x0 PUSH1 0xA0 DUP7 DUP9 SUB SLT ISZERO PUSH2 0x4B89 JUMPI DUP3 DUP4 REVERT JUMPDEST DUP6 CALLDATALOAD PUSH2 0x4B94 DUP2 PUSH2 0x5574 JUMP JUMPDEST SWAP5 POP PUSH1 0x20 DUP7 ADD CALLDATALOAD SWAP4 POP PUSH1 0x40 DUP7 ADD CALLDATALOAD SWAP3 POP PUSH2 0x486C DUP8 PUSH1 0x60 DUP9 ADD PUSH2 0x4798 JUMP JUMPDEST PUSH1 0x0 PUSH1 0x20 DUP3 DUP5 SUB SLT ISZERO PUSH2 0x4BC2 JUMPI DUP1 DUP2 REVERT JUMPDEST DUP2 CALLDATALOAD PUSH2 0xF07 DUP2 PUSH2 0x5589 JUMP JUMPDEST PUSH1 0x0 PUSH1 0x20 DUP3 DUP5 SUB SLT ISZERO PUSH2 0x4BDE JUMPI DUP1 DUP2 REVERT JUMPDEST DUP2 MLOAD PUSH2 0xF07 DUP2 PUSH2 0x5589 JUMP JUMPDEST PUSH1 0x0 PUSH1 0x20 DUP3 DUP5 SUB SLT ISZERO PUSH2 0x4BFA JUMPI DUP1 DUP2 REVERT JUMPDEST POP MLOAD SWAP2 SWAP1 POP JUMP JUMPDEST PUSH1 0x0 DUP1 PUSH1 0x40 DUP4 DUP6 SUB SLT ISZERO PUSH2 0x4C13 JUMPI DUP2 DUP3 REVERT JUMPDEST DUP3 MLOAD SWAP2 POP PUSH1 0x20 DUP4 ADD MLOAD PUSH8 0xFFFFFFFFFFFFFFFF DUP1 DUP3 GT ISZERO PUSH2 0x4C31 JUMPI DUP3 DUP4 REVERT JUMPDEST DUP2 DUP6 ADD SWAP2 POP DUP6 PUSH1 0x1F DUP4 ADD SLT PUSH2 0x4C44 JUMPI DUP3 DUP4 REVERT JUMPDEST DUP2 MLOAD DUP2 DUP2 GT ISZERO PUSH2 0x4C52 JUMPI DUP4 DUP5 REVERT JUMPDEST PUSH1 0x40 MLOAD PUSH1 0x1F DUP3 ADD PUSH1 0x1F NOT AND DUP2 ADD PUSH1 0x20 ADD DUP4 DUP2 GT DUP3 DUP3 LT OR ISZERO PUSH2 0x4C72 JUMPI DUP6 DUP7 REVERT JUMPDEST PUSH1 0x40 MSTORE DUP2 DUP2 MSTORE DUP4 DUP3 ADD PUSH1 0x20 ADD DUP9 LT ISZERO PUSH2 0x4C89 JUMPI DUP5 DUP6 REVERT JUMPDEST PUSH2 0x4C9A DUP3 PUSH1 0x20 DUP4 ADD PUSH1 0x20 DUP8 ADD PUSH2 0x553E JUMP JUMPDEST DUP1 SWAP5 POP POP POP POP POP SWAP3 POP SWAP3 SWAP1 POP JUMP JUMPDEST PUSH1 0x0 DUP1 PUSH1 0x40 DUP4 DUP6 SUB SLT ISZERO PUSH2 0x4CBA JUMPI DUP2 DUP3 REVERT JUMPDEST POP POP DUP1 MLOAD PUSH1 0x20 SWAP1 SWAP2 ADD MLOAD SWAP1 SWAP3 SWAP1 SWAP2 POP JUMP JUMPDEST PUSH1 0x0 DUP1 PUSH1 0x0 PUSH1 0x60 DUP5 DUP7 SUB SLT ISZERO PUSH2 0x4CDF JUMPI DUP1 DUP2 REVERT JUMPDEST DUP4 MLOAD SWAP3 POP PUSH1 0x20 DUP5 ADD MLOAD SWAP2 POP PUSH1 0x40 DUP5 ADD MLOAD SWAP1 POP SWAP3 POP SWAP3 POP SWAP3 JUMP JUMPDEST PUSH1 0x0 DUP1 PUSH1 0x0 DUP1 PUSH1 0x80 DUP6 DUP8 SUB SLT ISZERO PUSH2 0x4D0D JUMPI DUP2 DUP3 REVERT JUMPDEST DUP5 MLOAD SWAP4 POP PUSH1 0x20 DUP6 ADD MLOAD SWAP3 POP PUSH1 0x40 DUP6 ADD MLOAD SWAP2 POP PUSH1 0x60 DUP6 ADD MLOAD PUSH5 0xFFFFFFFFFF DUP2 AND DUP2 EQ PUSH2 0x4B67 JUMPI DUP2 DUP3 REVERT JUMPDEST PUSH1 0x1 PUSH1 0x1 PUSH1 0xA0 SHL SUB AND DUP2 MSTORE PUSH1 0x20 ADD SWAP1 JUMP JUMPDEST PUSH1 0x1 PUSH1 0x1 PUSH1 0xA0 SHL SUB AND SWAP1 MSTORE JUMP JUMPDEST PUSH1 0x0 DUP2 MLOAD DUP1 DUP5 MSTORE PUSH1 0x20 DUP1 DUP6 ADD SWAP5 POP DUP1 DUP5 ADD DUP4 JUMPDEST DUP4 DUP2 LT ISZERO PUSH2 0x4D83 JUMPI DUP2 MLOAD DUP8 MSTORE SWAP6 DUP3 ADD SWAP6 SWAP1 DUP3 ADD SWAP1 PUSH1 0x1 ADD PUSH2 0x4D67 JUMP JUMPDEST POP SWAP5 SWAP6 SWAP5 POP POP POP POP POP JUMP JUMPDEST PUSH1 0x0 DUP3 DUP5 MSTORE DUP3 DUP3 PUSH1 0x20 DUP7 ADD CALLDATACOPY DUP1 PUSH1 0x20 DUP5 DUP7 ADD ADD MSTORE PUSH1 0x20 PUSH1 0x1F NOT PUSH1 0x1F DUP6 ADD AND DUP6 ADD ADD SWAP1 POP SWAP4 SWAP3 POP POP POP JUMP JUMPDEST MLOAD SWAP1 MSTORE JUMP JUMPDEST PUSH1 0x1 PUSH1 0x1 PUSH1 0x80 SHL SUB AND SWAP1 MSTORE JUMP JUMPDEST PUSH5 0xFFFFFFFFFF AND SWAP1 MSTORE JUMP JUMPDEST PUSH1 0xFF AND SWAP1 MSTORE JUMP JUMPDEST PUSH1 0x0 DUP3 MLOAD PUSH2 0x4DEE DUP2 DUP5 PUSH1 0x20 DUP8 ADD PUSH2 0x553E JUMP JUMPDEST SWAP2 SWAP1 SWAP2 ADD SWAP3 SWAP2 POP POP JUMP JUMPDEST PUSH1 0x1 PUSH1 0x1 PUSH1 0xA0 SHL SUB SWAP2 SWAP1 SWAP2 AND DUP2 MSTORE PUSH1 0x20 ADD SWAP1 JUMP JUMPDEST PUSH1 0x1 PUSH1 0x1 PUSH1 0xA0 SHL SUB SWAP5 DUP6 AND DUP2 MSTORE SWAP3 SWAP1 SWAP4 AND PUSH1 0x20 DUP4 ADD MSTORE PUSH1 0x40 DUP3 ADD MSTORE PUSH1 0x1 PUSH1 0x1 PUSH1 0x80 SHL SUB SWAP1 SWAP2 AND PUSH1 0x60 DUP3 ADD MSTORE PUSH1 0x80 ADD SWAP1 JUMP JUMPDEST PUSH1 0x1 PUSH1 0x1 PUSH1 0xA0 SHL SUB SWAP3 SWAP1 SWAP3 AND DUP3 MSTORE PUSH1 0x20 DUP3 ADD MSTORE PUSH1 0x40 ADD SWAP1 JUMP JUMPDEST PUSH1 0x1 PUSH1 0x1 PUSH1 0xA0 SHL SUB SWAP4 SWAP1 SWAP4 AND DUP4 MSTORE PUSH1 0x20 DUP4 ADD SWAP2 SWAP1 SWAP2 MSTORE PUSH1 0x1 PUSH1 0x1 PUSH1 0x80 SHL SUB AND PUSH1 0x40 DUP3 ADD MSTORE PUSH1 0x60 ADD SWAP1 JUMP JUMPDEST PUSH1 0x1 PUSH1 0x1 PUSH1 0xA0 SHL SUB SWAP6 DUP7 AND DUP2 MSTORE SWAP4 DUP6 AND PUSH1 0x20 DUP6 ADD MSTORE SWAP2 SWAP1 SWAP4 AND PUSH1 0x40 DUP4 ADD MSTORE PUSH1 0x60 DUP3 ADD SWAP3 SWAP1 SWAP3 MSTORE SWAP1 ISZERO ISZERO PUSH1 0x80 DUP3 ADD MSTORE PUSH1 0xA0 ADD SWAP1 JUMP JUMPDEST PUSH1 0x1 PUSH1 0x1 PUSH1 0xA0 SHL SUB SWAP4 DUP5 AND DUP2 MSTORE SWAP2 SWAP1 SWAP3 AND PUSH1 0x20 DUP3 ADD MSTORE PUSH1 0x40 DUP2 ADD SWAP2 SWAP1 SWAP2 MSTORE PUSH1 0x60 ADD SWAP1 JUMP JUMPDEST PUSH1 0x1 PUSH1 0x1 PUSH1 0xA0 SHL SUB SWAP5 DUP6 AND DUP2 MSTORE SWAP3 SWAP1 SWAP4 AND PUSH1 0x20 DUP4 ADD MSTORE PUSH1 0x40 DUP3 ADD MSTORE PUSH1 0x60 DUP2 ADD SWAP2 SWAP1 SWAP2 MSTORE PUSH1 0x80 ADD SWAP1 JUMP JUMPDEST PUSH1 0x1 PUSH1 0x1 PUSH1 0xA0 SHL SUB SWAP13 DUP14 AND DUP2 MSTORE PUSH1 0x20 DUP2 ADD SWAP12 SWAP1 SWAP12 MSTORE SWAP9 DUP12 AND PUSH1 0x40 DUP12 ADD MSTORE PUSH1 0x60 DUP11 ADD SWAP8 SWAP1 SWAP8 MSTORE PUSH1 0x80 DUP10 ADD SWAP6 SWAP1 SWAP6 MSTORE PUSH1 0xA0 DUP9 ADD SWAP4 SWAP1 SWAP4 MSTORE PUSH1 0xC0 DUP8 ADD SWAP2 SWAP1 SWAP2 MSTORE PUSH1 0xE0 DUP7 ADD MSTORE PUSH2 0x100 DUP6 ADD MSTORE PUSH2 0x120 DUP5 ADD MSTORE PUSH2 0x140 DUP4 ADD MSTORE SWAP1 SWAP2 AND PUSH2 0x160 DUP3 ADD MSTORE PUSH2 0x180 ADD SWAP1 JUMP JUMPDEST PUSH1 0x1 PUSH1 0x1 PUSH1 0xA0 SHL SUB SWAP9 DUP10 AND DUP2 MSTORE PUSH1 0x20 DUP2 ADD SWAP8 SWAP1 SWAP8 MSTORE PUSH1 0x40 DUP8 ADD SWAP6 SWAP1 SWAP6 MSTORE PUSH1 0x60 DUP7 ADD SWAP4 SWAP1 SWAP4 MSTORE PUSH1 0x80 DUP6 ADD SWAP2 SWAP1 SWAP2 MSTORE PUSH1 0xA0 DUP5 ADD MSTORE PUSH1 0xC0 DUP4 ADD MSTORE SWAP1 SWAP2 AND PUSH1 0xE0 DUP3 ADD MSTORE PUSH2 0x100 ADD SWAP1 JUMP JUMPDEST PUSH1 0x1 PUSH1 0x1 PUSH1 0xA0 SHL SUB SWAP5 SWAP1 SWAP5 AND DUP5 MSTORE PUSH1 0x20 DUP5 ADD SWAP3 SWAP1 SWAP3 MSTORE PUSH1 0x40 DUP4 ADD MSTORE PUSH1 0x60 DUP3 ADD MSTORE PUSH1 0x80 ADD SWAP1 JUMP JUMPDEST PUSH1 0x1 PUSH1 0x1 PUSH1 0xA0 SHL SUB SWAP7 SWAP1 SWAP7 AND DUP7 MSTORE PUSH1 0x20 DUP7 ADD SWAP5 SWAP1 SWAP5 MSTORE PUSH1 0x40 DUP6 ADD SWAP3 SWAP1 SWAP3 MSTORE PUSH1 0x60 DUP5 ADD MSTORE PUSH1 0x80 DUP4 ADD MSTORE PUSH1 0xA0 DUP3 ADD MSTORE PUSH1 0xC0 ADD SWAP1 JUMP JUMPDEST PUSH1 0x0 PUSH1 0xA0 DUP3 ADD PUSH1 0xA0 DUP4 MSTORE DUP1 PUSH2 0x5019 DUP12 DUP4 PUSH2 0x54C4 JUMP JUMPDEST SWAP1 POP DUP12 SWAP2 POP DUP3 JUMPDEST DUP12 DUP2 LT ISZERO PUSH2 0x504C JUMPI PUSH1 0x20 DUP4 ADD PUSH2 0x503F DUP4 PUSH2 0x503A DUP4 DUP8 PUSH2 0x470B JUMP JUMPDEST PUSH2 0x4D36 JUMP JUMPDEST SWAP1 SWAP4 POP SWAP2 POP PUSH1 0x1 ADD PUSH2 0x5020 JUMP JUMPDEST POP DUP4 DUP2 SUB PUSH1 0x20 DUP6 ADD MSTORE DUP9 DUP2 MSTORE PUSH1 0x1 PUSH1 0x1 PUSH1 0xFB SHL SUB DUP10 GT ISZERO PUSH2 0x506B JUMPI DUP3 DUP4 REVERT JUMPDEST PUSH1 0x20 DUP10 MUL SWAP2 POP DUP2 DUP11 PUSH1 0x20 DUP4 ADD CALLDATACOPY ADD PUSH1 0x20 DUP2 DUP2 ADD DUP4 DUP2 MSTORE DUP5 DUP4 SUB SWAP1 SWAP2 ADD PUSH1 0x40 DUP6 ADD MSTORE PUSH2 0x5096 DUP2 DUP10 PUSH2 0x4D54 JUMP JUMPDEST SWAP2 POP POP PUSH2 0x50A6 PUSH1 0x60 DUP5 ADD DUP8 PUSH2 0x4D47 JUMP JUMPDEST DUP3 DUP2 SUB PUSH1 0x80 DUP5 ADD MSTORE PUSH2 0x50B9 DUP2 DUP6 DUP8 PUSH2 0x4D8E JUMP JUMPDEST SWAP12 SWAP11 POP POP POP POP POP POP POP POP POP POP POP JUMP JUMPDEST PUSH1 0x20 DUP1 DUP3 MSTORE DUP3 MLOAD DUP3 DUP3 ADD DUP2 SWAP1 MSTORE PUSH1 0x0 SWAP2 SWAP1 DUP5 DUP3 ADD SWAP1 PUSH1 0x40 DUP6 ADD SWAP1 DUP5 JUMPDEST DUP2 DUP2 LT ISZERO PUSH2 0x5109 JUMPI DUP4 MLOAD PUSH1 0x1 PUSH1 0x1 PUSH1 0xA0 SHL SUB AND DUP4 MSTORE SWAP3 DUP5 ADD SWAP3 SWAP2 DUP5 ADD SWAP2 PUSH1 0x1 ADD PUSH2 0x50E4 JUMP JUMPDEST POP SWAP1 SWAP7 SWAP6 POP POP POP POP POP POP JUMP JUMPDEST SWAP1 ISZERO ISZERO DUP2 MSTORE PUSH1 0x20 ADD SWAP1 JUMP JUMPDEST PUSH1 0x0 PUSH1 0x20 DUP3 MSTORE DUP3 MLOAD DUP1 PUSH1 0x20 DUP5 ADD MSTORE PUSH2 0x513F DUP2 PUSH1 0x40 DUP6 ADD PUSH1 0x20 DUP8 ADD PUSH2 0x553E JUMP JUMPDEST PUSH1 0x1F ADD PUSH1 0x1F NOT AND SWAP2 SWAP1 SWAP2 ADD PUSH1 0x40 ADD SWAP3 SWAP2 POP POP JUMP JUMPDEST PUSH1 0x20 DUP1 DUP3 MSTORE PUSH1 0x1B SWAP1 DUP3 ADD MSTORE PUSH32 0x536166654D6174683A206164646974696F6E206F766572666C6F770000000000 PUSH1 0x40 DUP3 ADD MSTORE PUSH1 0x60 ADD SWAP1 JUMP JUMPDEST PUSH1 0x20 DUP1 DUP3 MSTORE DUP2 DUP2 ADD MSTORE PUSH32 0x5361666545524332303A206C6F772D6C6576656C2063616C6C206661696C6564 PUSH1 0x40 DUP3 ADD MSTORE PUSH1 0x60 ADD SWAP1 JUMP JUMPDEST PUSH1 0x20 DUP1 DUP3 MSTORE PUSH1 0x21 SWAP1 DUP3 ADD MSTORE PUSH32 0x536166654D6174683A206D756C7469706C69636174696F6E206F766572666C6F PUSH1 0x40 DUP3 ADD MSTORE PUSH1 0x77 PUSH1 0xF8 SHL PUSH1 0x60 DUP3 ADD MSTORE PUSH1 0x80 ADD SWAP1 JUMP JUMPDEST PUSH1 0x20 DUP1 DUP3 MSTORE PUSH1 0x2E SWAP1 DUP3 ADD MSTORE PUSH32 0x436F6E747261637420696E7374616E63652068617320616C7265616479206265 PUSH1 0x40 DUP3 ADD MSTORE PUSH14 0x195B881A5B9A5D1A585B1A5E9959 PUSH1 0x92 SHL PUSH1 0x60 DUP3 ADD MSTORE PUSH1 0x80 ADD SWAP1 JUMP JUMPDEST PUSH1 0x20 DUP1 DUP3 MSTORE PUSH1 0x2A SWAP1 DUP3 ADD MSTORE PUSH32 0x5361666545524332303A204552433230206F7065726174696F6E20646964206E PUSH1 0x40 DUP3 ADD MSTORE PUSH10 0x1BDD081CDD58D8D95959 PUSH1 0xB2 SHL PUSH1 0x60 DUP3 ADD MSTORE PUSH1 0x80 ADD SWAP1 JUMP JUMPDEST PUSH1 0x20 DUP1 DUP3 MSTORE PUSH1 0x1F SWAP1 DUP3 ADD MSTORE PUSH32 0x5361666545524332303A2063616C6C20746F206E6F6E2D636F6E747261637400 PUSH1 0x40 DUP3 ADD MSTORE PUSH1 0x60 ADD SWAP1 JUMP JUMPDEST SWAP1 MLOAD DUP2 MSTORE PUSH1 0x20 ADD SWAP1 JUMP JUMPDEST PUSH1 0x0 PUSH2 0x180 DUP3 ADD SWAP1 POP PUSH2 0x52ED DUP3 DUP5 MLOAD PUSH2 0x4DB8 JUMP JUMPDEST PUSH1 0x20 DUP4 ADD MLOAD PUSH2 0x52FF PUSH1 0x20 DUP5 ADD DUP3 PUSH2 0x4DBD JUMP JUMPDEST POP PUSH1 0x40 DUP4 ADD MLOAD PUSH2 0x5312 PUSH1 0x40 DUP5 ADD DUP3 PUSH2 0x4DBD JUMP JUMPDEST POP PUSH1 0x60 DUP4 ADD MLOAD PUSH2 0x5325 PUSH1 0x60 DUP5 ADD DUP3 PUSH2 0x4DBD JUMP JUMPDEST POP PUSH1 0x80 DUP4 ADD MLOAD PUSH2 0x5338 PUSH1 0x80 DUP5 ADD DUP3 PUSH2 0x4DBD JUMP JUMPDEST POP PUSH1 0xA0 DUP4 ADD MLOAD PUSH2 0x534B PUSH1 0xA0 DUP5 ADD DUP3 PUSH2 0x4DBD JUMP JUMPDEST POP PUSH1 0xC0 DUP4 ADD MLOAD PUSH2 0x535E PUSH1 0xC0 DUP5 ADD DUP3 PUSH2 0x4DCA JUMP JUMPDEST POP PUSH1 0xE0 DUP4 ADD MLOAD PUSH2 0x5371 PUSH1 0xE0 DUP5 ADD DUP3 PUSH2 0x4D47 JUMP JUMPDEST POP PUSH2 0x100 DUP1 DUP5 ADD MLOAD PUSH2 0x5385 DUP3 DUP6 ADD DUP3 PUSH2 0x4D47 JUMP JUMPDEST POP POP PUSH2 0x120 DUP1 DUP5 ADD MLOAD PUSH2 0x539A DUP3 DUP6 ADD DUP3 PUSH2 0x4D47 JUMP JUMPDEST POP POP PUSH2 0x140 DUP1 DUP5 ADD MLOAD PUSH2 0x53AF DUP3 DUP6 ADD DUP3 PUSH2 0x4D47 JUMP JUMPDEST POP POP PUSH2 0x160 DUP1 DUP5 ADD MLOAD PUSH2 0x53C4 DUP3 DUP6 ADD DUP3 PUSH2 0x4DD5 JUMP JUMPDEST POP POP SWAP3 SWAP2 POP POP JUMP JUMPDEST SWAP5 DUP6 MSTORE PUSH1 0x1 PUSH1 0x1 PUSH1 0xA0 SHL SUB SWAP4 DUP5 AND PUSH1 0x20 DUP7 ADD MSTORE SWAP2 DUP4 AND PUSH1 0x40 DUP6 ADD MSTORE DUP3 AND PUSH1 0x60 DUP5 ADD MSTORE AND PUSH1 0x80 DUP3 ADD MSTORE PUSH1 0xA0 ADD SWAP1 JUMP JUMPDEST SWAP8 DUP9 MSTORE PUSH1 0x1 PUSH1 0x1 PUSH1 0xA0 SHL SUB SWAP7 DUP8 AND PUSH1 0x20 DUP10 ADD MSTORE SWAP5 ISZERO ISZERO PUSH1 0x40 DUP9 ADD MSTORE PUSH1 0x60 DUP8 ADD SWAP4 SWAP1 SWAP4 MSTORE PUSH1 0x80 DUP7 ADD SWAP2 SWAP1 SWAP2 MSTORE PUSH1 0xA0 DUP6 ADD MSTORE PUSH1 0xC0 DUP5 ADD MSTORE AND PUSH1 0xE0 DUP3 ADD MSTORE PUSH2 0x100 ADD SWAP1 JUMP JUMPDEST PUSH1 0x0 PUSH1 0xA0 DUP3 ADD SWAP1 POP DUP7 DUP3 MSTORE DUP6 PUSH1 0x20 DUP4 ADD MSTORE DUP5 PUSH1 0x40 DUP4 ADD MSTORE DUP4 PUSH1 0x60 DUP4 ADD MSTORE PUSH2 0x5462 DUP4 PUSH2 0x556A JUMP JUMPDEST DUP3 PUSH1 0x80 DUP4 ADD MSTORE SWAP7 SWAP6 POP POP POP POP POP POP JUMP JUMPDEST SWAP2 DUP3 MSTORE PUSH1 0x20 DUP3 ADD MSTORE PUSH1 0x40 ADD SWAP1 JUMP JUMPDEST DUP7 DUP2 MSTORE PUSH1 0x20 DUP2 ADD DUP7 SWAP1 MSTORE PUSH1 0xC0 DUP2 ADD PUSH2 0x5497 DUP7 PUSH2 0x556A JUMP JUMPDEST PUSH1 0x40 DUP3 ADD SWAP6 SWAP1 SWAP6 MSTORE PUSH1 0x1 PUSH1 0x1 PUSH1 0xA0 SHL SUB SWAP4 SWAP1 SWAP4 AND PUSH1 0x60 DUP5 ADD MSTORE PUSH1 0x80 DUP4 ADD SWAP2 SWAP1 SWAP2 MSTORE PUSH1 0xA0 SWAP1 SWAP2 ADD MSTORE SWAP3 SWAP2 POP POP JUMP JUMPDEST SWAP1 DUP2 MSTORE PUSH1 0x20 ADD SWAP1 JUMP JUMPDEST SWAP3 DUP4 MSTORE PUSH1 0x20 DUP4 ADD SWAP2 SWAP1 SWAP2 MSTORE PUSH2 0xFFFF AND PUSH1 0x40 DUP3 ADD MSTORE PUSH1 0x60 ADD SWAP1 JUMP JUMPDEST SWAP5 DUP6 MSTORE PUSH1 0x20 DUP6 ADD SWAP4 SWAP1 SWAP4 MSTORE PUSH1 0x40 DUP5 ADD SWAP2 SWAP1 SWAP2 MSTORE PUSH1 0x1 PUSH1 0x1 PUSH1 0x80 SHL SUB SWAP1 DUP2 AND PUSH1 0x60 DUP5 ADD MSTORE AND PUSH1 0x80 DUP3 ADD MSTORE PUSH1 0xA0 ADD SWAP1 JUMP JUMPDEST SWAP6 DUP7 MSTORE PUSH1 0x20 DUP7 ADD SWAP5 SWAP1 SWAP5 MSTORE PUSH1 0x40 DUP6 ADD SWAP3 SWAP1 SWAP3 MSTORE PUSH1 0x60 DUP5 ADD MSTORE PUSH1 0x80 DUP4 ADD MSTORE PUSH1 0xA0 DUP3 ADD MSTORE PUSH1 0xC0 ADD SWAP1 JUMP JUMPDEST PUSH1 0x0 JUMPDEST DUP4 DUP2 LT ISZERO PUSH2 0x5559 JUMPI DUP2 DUP2 ADD MLOAD DUP4 DUP3 ADD MSTORE PUSH1 0x20 ADD PUSH2 0x5541 JUMP JUMPDEST DUP4 DUP2 GT ISZERO PUSH2 0x2D64 JUMPI POP POP PUSH1 0x0 SWAP2 ADD MSTORE JUMP JUMPDEST PUSH1 0x3 DUP2 LT PUSH2 0x1B51 JUMPI INVALID JUMPDEST PUSH1 0x1 PUSH1 0x1 PUSH1 0xA0 SHL SUB DUP2 AND DUP2 EQ PUSH2 0x1B51 JUMPI PUSH1 0x0 DUP1 REVERT JUMPDEST DUP1 ISZERO ISZERO DUP2 EQ PUSH2 0x1B51 JUMPI PUSH1 0x0 DUP1 REVERT INVALID LOG2 PUSH5 0x6970667358 0x22 SLT KECCAK256 0x4A PUSH17 0xA1D227DA4321EF8B74063023DFEEDA80B3 0xB8 0xBE 0xC1 GASPRICE SWAP5 0xE0 0xEA 0x4C PC 0xB2 0xBB 0xDA RETURN PUSH5 0x736F6C6343 STOP MOD 0xC STOP CALLER "
		},
		"gasEstimates": {
			"creation": {
				"codeDepositCost": "4393000",
				"executionCost": "10100",
				"totalCost": "4403100"
			},
			"external": {
				"FLASHLOAN_PREMIUM_TOTAL()": "297",
				"LENDINGPOOL_REVISION()": "295",
				"MAX_NUMBER_RESERVES()": "316",
				"MAX_STABLE_RATE_BORROW_SIZE_PERCENT()": "272",
				"borrow(address,uint256,uint256,uint16,address)": "infinite",
				"deposit(address,uint256,address,uint16)": "infinite",
				"finalizeTransfer(address,address,address,uint256,uint256,uint256)": "infinite",
				"flashLoan(address,address[],uint256[],uint256[],address,bytes,uint16)": "infinite",
				"getAddressesProvider()": "1180",
				"getConfiguration(address)": "1449",
				"getReserveData(address)": "infinite",
				"getReserveNormalizedIncome(address)": "infinite",
				"getReserveNormalizedVariableDebt(address)": "infinite",
				"getReservesList()": "infinite",
				"getUserAccountData(address)": "infinite",
				"getUserConfiguration(address)": "1472",
				"initReserve(address,address,address,address,address)": "infinite",
				"initialize(address)": "86189",
				"liquidationCall(address,address,address,uint256,bool)": "infinite",
				"paused()": "1108",
				"rebalanceStableBorrowRate(address,address)": "infinite",
				"repay(address,uint256,uint256,address)": "infinite",
				"setConfiguration(address,uint256)": "infinite",
				"setPause(bool)": "infinite",
				"setReserveInterestRateStrategyAddress(address,address)": "infinite",
				"setUserUseReserveAsCollateral(address,bool)": "infinite",
				"swapBorrowRateMode(address,uint256)": "infinite",
				"withdraw(address,uint256,address)": "infinite"
			},
			"internal": {
				"_addReserveToList(address)": "infinite",
				"_executeBorrow(struct LendingPool.ExecuteBorrowParams memory)": "infinite",
				"_onlyLendingPoolConfigurator()": "infinite",
				"_whenNotPaused()": "infinite",
				"getRevision()": "15"
			}
		},
		"methodIdentifiers": {
			"FLASHLOAN_PREMIUM_TOTAL()": "074b2e43",
			"LENDINGPOOL_REVISION()": "8afaff02",
			"MAX_NUMBER_RESERVES()": "f8119d51",
			"MAX_STABLE_RATE_BORROW_SIZE_PERCENT()": "e82fec2f",
			"borrow(address,uint256,uint256,uint16,address)": "a415bcad",
			"deposit(address,uint256,address,uint16)": "e8eda9df",
			"finalizeTransfer(address,address,address,uint256,uint256,uint256)": "d5ed3933",
			"flashLoan(address,address[],uint256[],uint256[],address,bytes,uint16)": "ab9c4b5d",
			"getAddressesProvider()": "fe65acfe",
			"getConfiguration(address)": "c44b11f7",
			"getReserveData(address)": "35ea6a75",
			"getReserveNormalizedIncome(address)": "d15e0053",
			"getReserveNormalizedVariableDebt(address)": "386497fd",
			"getReservesList()": "d1946dbc",
			"getUserAccountData(address)": "bf92857c",
			"getUserConfiguration(address)": "4417a583",
			"initReserve(address,address,address,address,address)": "7a708e92",
			"initialize(address)": "c4d66de8",
			"liquidationCall(address,address,address,uint256,bool)": "00a718a9",
			"paused()": "5c975abb",
			"rebalanceStableBorrowRate(address,address)": "cd112382",
			"repay(address,uint256,uint256,address)": "573ade81",
			"setConfiguration(address,uint256)": "b8d29276",
			"setPause(bool)": "bedb86fb",
			"setReserveInterestRateStrategyAddress(address,address)": "1d2118f9",
			"setUserUseReserveAsCollateral(address,bool)": "5a3b74b9",
			"swapBorrowRateMode(address,uint256)": "94ba89a2",
			"withdraw(address,uint256,address)": "69328dec"
		}
	},
	"abi": [
		{
			"anonymous": false,
			"inputs": [
				{
					"indexed": true,
					"internalType": "address",
					"name": "reserve",
					"type": "address"
				},
				{
					"indexed": false,
					"internalType": "address",
					"name": "user",
					"type": "address"
				},
				{
					"indexed": true,
					"internalType": "address",
					"name": "onBehalfOf",
					"type": "address"
				},
				{
					"indexed": false,
					"internalType": "uint256",
					"name": "amount",
					"type": "uint256"
				},
				{
					"indexed": false,
					"internalType": "uint256",
					"name": "borrowRateMode",
					"type": "uint256"
				},
				{
					"indexed": false,
					"internalType": "uint256",
					"name": "borrowRate",
					"type": "uint256"
				},
				{
					"indexed": true,
					"internalType": "uint16",
					"name": "referral",
					"type": "uint16"
				}
			],
			"name": "Borrow",
			"type": "event"
		},
		{
			"anonymous": false,
			"inputs": [
				{
					"indexed": true,
					"internalType": "address",
					"name": "reserve",
					"type": "address"
				},
				{
					"indexed": false,
					"internalType": "address",
					"name": "user",
					"type": "address"
				},
				{
					"indexed": true,
					"internalType": "address",
					"name": "onBehalfOf",
					"type": "address"
				},
				{
					"indexed": false,
					"internalType": "uint256",
					"name": "amount",
					"type": "uint256"
				},
				{
					"indexed": true,
					"internalType": "uint16",
					"name": "referral",
					"type": "uint16"
				}
			],
			"name": "Deposit",
			"type": "event"
		},
		{
			"anonymous": false,
			"inputs": [
				{
					"indexed": true,
					"internalType": "address",
					"name": "target",
					"type": "address"
				},
				{
					"indexed": true,
					"internalType": "address",
					"name": "initiator",
					"type": "address"
				},
				{
					"indexed": true,
					"internalType": "address",
					"name": "asset",
					"type": "address"
				},
				{
					"indexed": false,
					"internalType": "uint256",
					"name": "amount",
					"type": "uint256"
				},
				{
					"indexed": false,
					"internalType": "uint256",
					"name": "premium",
					"type": "uint256"
				},
				{
					"indexed": false,
					"internalType": "uint16",
					"name": "referralCode",
					"type": "uint16"
				}
			],
			"name": "FlashLoan",
			"type": "event"
		},
		{
			"anonymous": false,
			"inputs": [
				{
					"indexed": true,
					"internalType": "address",
					"name": "collateralAsset",
					"type": "address"
				},
				{
					"indexed": true,
					"internalType": "address",
					"name": "debtAsset",
					"type": "address"
				},
				{
					"indexed": true,
					"internalType": "address",
					"name": "user",
					"type": "address"
				},
				{
					"indexed": false,
					"internalType": "uint256",
					"name": "debtToCover",
					"type": "uint256"
				},
				{
					"indexed": false,
					"internalType": "uint256",
					"name": "liquidatedCollateralAmount",
					"type": "uint256"
				},
				{
					"indexed": false,
					"internalType": "address",
					"name": "liquidator",
					"type": "address"
				},
				{
					"indexed": false,
					"internalType": "bool",
					"name": "receiveAToken",
					"type": "bool"
				}
			],
			"name": "LiquidationCall",
			"type": "event"
		},
		{
			"anonymous": false,
			"inputs": [],
			"name": "Paused",
			"type": "event"
		},
		{
			"anonymous": false,
			"inputs": [
				{
					"indexed": true,
					"internalType": "address",
					"name": "reserve",
					"type": "address"
				},
				{
					"indexed": true,
					"internalType": "address",
					"name": "user",
					"type": "address"
				}
			],
			"name": "RebalanceStableBorrowRate",
			"type": "event"
		},
		{
			"anonymous": false,
			"inputs": [
				{
					"indexed": true,
					"internalType": "address",
					"name": "reserve",
					"type": "address"
				},
				{
					"indexed": true,
					"internalType": "address",
					"name": "user",
					"type": "address"
				},
				{
					"indexed": true,
					"internalType": "address",
					"name": "repayer",
					"type": "address"
				},
				{
					"indexed": false,
					"internalType": "uint256",
					"name": "amount",
					"type": "uint256"
				}
			],
			"name": "Repay",
			"type": "event"
		},
		{
			"anonymous": false,
			"inputs": [
				{
					"indexed": true,
					"internalType": "address",
					"name": "reserve",
					"type": "address"
				},
				{
					"indexed": false,
					"internalType": "uint256",
					"name": "liquidityRate",
					"type": "uint256"
				},
				{
					"indexed": false,
					"internalType": "uint256",
					"name": "stableBorrowRate",
					"type": "uint256"
				},
				{
					"indexed": false,
					"internalType": "uint256",
					"name": "variableBorrowRate",
					"type": "uint256"
				},
				{
					"indexed": false,
					"internalType": "uint256",
					"name": "liquidityIndex",
					"type": "uint256"
				},
				{
					"indexed": false,
					"internalType": "uint256",
					"name": "variableBorrowIndex",
					"type": "uint256"
				}
			],
			"name": "ReserveDataUpdated",
			"type": "event"
		},
		{
			"anonymous": false,
			"inputs": [
				{
					"indexed": true,
					"internalType": "address",
					"name": "reserve",
					"type": "address"
				},
				{
					"indexed": true,
					"internalType": "address",
					"name": "user",
					"type": "address"
				}
			],
			"name": "ReserveUsedAsCollateralDisabled",
			"type": "event"
		},
		{
			"anonymous": false,
			"inputs": [
				{
					"indexed": true,
					"internalType": "address",
					"name": "reserve",
					"type": "address"
				},
				{
					"indexed": true,
					"internalType": "address",
					"name": "user",
					"type": "address"
				}
			],
			"name": "ReserveUsedAsCollateralEnabled",
			"type": "event"
		},
		{
			"anonymous": false,
			"inputs": [
				{
					"indexed": true,
					"internalType": "address",
					"name": "reserve",
					"type": "address"
				},
				{
					"indexed": true,
					"internalType": "address",
					"name": "user",
					"type": "address"
				},
				{
					"indexed": false,
					"internalType": "uint256",
					"name": "rateMode",
					"type": "uint256"
				}
			],
			"name": "Swap",
			"type": "event"
		},
		{
			"anonymous": false,
			"inputs": [],
			"name": "Unpaused",
			"type": "event"
		},
		{
			"anonymous": false,
			"inputs": [
				{
					"indexed": true,
					"internalType": "address",
					"name": "reserve",
					"type": "address"
				},
				{
					"indexed": true,
					"internalType": "address",
					"name": "user",
					"type": "address"
				},
				{
					"indexed": true,
					"internalType": "address",
					"name": "to",
					"type": "address"
				},
				{
					"indexed": false,
					"internalType": "uint256",
					"name": "amount",
					"type": "uint256"
				}
			],
			"name": "Withdraw",
			"type": "event"
		},
		{
			"inputs": [],
			"name": "FLASHLOAN_PREMIUM_TOTAL",
			"outputs": [
				{
					"internalType": "uint256",
					"name": "",
					"type": "uint256"
				}
			],
			"stateMutability": "view",
			"type": "function"
		},
		{
			"inputs": [],
			"name": "LENDINGPOOL_REVISION",
			"outputs": [
				{
					"internalType": "uint256",
					"name": "",
					"type": "uint256"
				}
			],
			"stateMutability": "view",
			"type": "function"
		},
		{
			"inputs": [],
			"name": "MAX_NUMBER_RESERVES",
			"outputs": [
				{
					"internalType": "uint256",
					"name": "",
					"type": "uint256"
				}
			],
			"stateMutability": "view",
			"type": "function"
		},
		{
			"inputs": [],
			"name": "MAX_STABLE_RATE_BORROW_SIZE_PERCENT",
			"outputs": [
				{
					"internalType": "uint256",
					"name": "",
					"type": "uint256"
				}
			],
			"stateMutability": "view",
			"type": "function"
		},
		{
			"inputs": [
				{
					"internalType": "address",
					"name": "asset",
					"type": "address"
				},
				{
					"internalType": "uint256",
					"name": "amount",
					"type": "uint256"
				},
				{
					"internalType": "uint256",
					"name": "interestRateMode",
					"type": "uint256"
				},
				{
					"internalType": "uint16",
					"name": "referralCode",
					"type": "uint16"
				},
				{
					"internalType": "address",
					"name": "onBehalfOf",
					"type": "address"
				}
			],
			"name": "borrow",
			"outputs": [],
			"stateMutability": "nonpayable",
			"type": "function"
		},
		{
			"inputs": [
				{
					"internalType": "address",
					"name": "asset",
					"type": "address"
				},
				{
					"internalType": "uint256",
					"name": "amount",
					"type": "uint256"
				},
				{
					"internalType": "address",
					"name": "onBehalfOf",
					"type": "address"
				},
				{
					"internalType": "uint16",
					"name": "referralCode",
					"type": "uint16"
				}
			],
			"name": "deposit",
			"outputs": [],
			"stateMutability": "nonpayable",
			"type": "function"
		},
		{
			"inputs": [
				{
					"internalType": "address",
					"name": "asset",
					"type": "address"
				},
				{
					"internalType": "address",
					"name": "from",
					"type": "address"
				},
				{
					"internalType": "address",
					"name": "to",
					"type": "address"
				},
				{
					"internalType": "uint256",
					"name": "amount",
					"type": "uint256"
				},
				{
					"internalType": "uint256",
					"name": "balanceFromBefore",
					"type": "uint256"
				},
				{
					"internalType": "uint256",
					"name": "balanceToBefore",
					"type": "uint256"
				}
			],
			"name": "finalizeTransfer",
			"outputs": [],
			"stateMutability": "nonpayable",
			"type": "function"
		},
		{
			"inputs": [
				{
					"internalType": "address",
					"name": "receiverAddress",
					"type": "address"
				},
				{
					"internalType": "address[]",
					"name": "assets",
					"type": "address[]"
				},
				{
					"internalType": "uint256[]",
					"name": "amounts",
					"type": "uint256[]"
				},
				{
					"internalType": "uint256[]",
					"name": "modes",
					"type": "uint256[]"
				},
				{
					"internalType": "address",
					"name": "onBehalfOf",
					"type": "address"
				},
				{
					"internalType": "bytes",
					"name": "params",
					"type": "bytes"
				},
				{
					"internalType": "uint16",
					"name": "referralCode",
					"type": "uint16"
				}
			],
			"name": "flashLoan",
			"outputs": [],
			"stateMutability": "nonpayable",
			"type": "function"
		},
		{
			"inputs": [],
			"name": "getAddressesProvider",
			"outputs": [
				{
					"internalType": "contract ILendingPoolAddressesProvider",
					"name": "",
					"type": "address"
				}
			],
			"stateMutability": "view",
			"type": "function"
		},
		{
			"inputs": [
				{
					"internalType": "address",
					"name": "asset",
					"type": "address"
				}
			],
			"name": "getConfiguration",
			"outputs": [
				{
					"components": [
						{
							"internalType": "uint256",
							"name": "data",
							"type": "uint256"
						}
					],
					"internalType": "struct DataTypes.ReserveConfigurationMap",
					"name": "",
					"type": "tuple"
				}
			],
			"stateMutability": "view",
			"type": "function"
		},
		{
			"inputs": [
				{
					"internalType": "address",
					"name": "asset",
					"type": "address"
				}
			],
			"name": "getReserveData",
			"outputs": [
				{
					"components": [
						{
							"components": [
								{
									"internalType": "uint256",
									"name": "data",
									"type": "uint256"
								}
							],
							"internalType": "struct DataTypes.ReserveConfigurationMap",
							"name": "configuration",
							"type": "tuple"
						},
						{
							"internalType": "uint128",
							"name": "liquidityIndex",
							"type": "uint128"
						},
						{
							"internalType": "uint128",
							"name": "variableBorrowIndex",
							"type": "uint128"
						},
						{
							"internalType": "uint128",
							"name": "currentLiquidityRate",
							"type": "uint128"
						},
						{
							"internalType": "uint128",
							"name": "currentVariableBorrowRate",
							"type": "uint128"
						},
						{
							"internalType": "uint128",
							"name": "currentStableBorrowRate",
							"type": "uint128"
						},
						{
							"internalType": "uint40",
							"name": "lastUpdateTimestamp",
							"type": "uint40"
						},
						{
							"internalType": "address",
							"name": "aTokenAddress",
							"type": "address"
						},
						{
							"internalType": "address",
							"name": "stableDebtTokenAddress",
							"type": "address"
						},
						{
							"internalType": "address",
							"name": "variableDebtTokenAddress",
							"type": "address"
						},
						{
							"internalType": "address",
							"name": "interestRateStrategyAddress",
							"type": "address"
						},
						{
							"internalType": "uint8",
							"name": "id",
							"type": "uint8"
						}
					],
					"internalType": "struct DataTypes.ReserveData",
					"name": "",
					"type": "tuple"
				}
			],
			"stateMutability": "view",
			"type": "function"
		},
		{
			"inputs": [
				{
					"internalType": "address",
					"name": "asset",
					"type": "address"
				}
			],
			"name": "getReserveNormalizedIncome",
			"outputs": [
				{
					"internalType": "uint256",
					"name": "",
					"type": "uint256"
				}
			],
			"stateMutability": "view",
			"type": "function"
		},
		{
			"inputs": [
				{
					"internalType": "address",
					"name": "asset",
					"type": "address"
				}
			],
			"name": "getReserveNormalizedVariableDebt",
			"outputs": [
				{
					"internalType": "uint256",
					"name": "",
					"type": "uint256"
				}
			],
			"stateMutability": "view",
			"type": "function"
		},
		{
			"inputs": [],
			"name": "getReservesList",
			"outputs": [
				{
					"internalType": "address[]",
					"name": "",
					"type": "address[]"
				}
			],
			"stateMutability": "view",
			"type": "function"
		},
		{
			"inputs": [
				{
					"internalType": "address",
					"name": "user",
					"type": "address"
				}
			],
			"name": "getUserAccountData",
			"outputs": [
				{
					"internalType": "uint256",
					"name": "totalCollateralETH",
					"type": "uint256"
				},
				{
					"internalType": "uint256",
					"name": "totalDebtETH",
					"type": "uint256"
				},
				{
					"internalType": "uint256",
					"name": "availableBorrowsETH",
					"type": "uint256"
				},
				{
					"internalType": "uint256",
					"name": "currentLiquidationThreshold",
					"type": "uint256"
				},
				{
					"internalType": "uint256",
					"name": "ltv",
					"type": "uint256"
				},
				{
					"internalType": "uint256",
					"name": "healthFactor",
					"type": "uint256"
				}
			],
			"stateMutability": "view",
			"type": "function"
		},
		{
			"inputs": [
				{
					"internalType": "address",
					"name": "user",
					"type": "address"
				}
			],
			"name": "getUserConfiguration",
			"outputs": [
				{
					"components": [
						{
							"internalType": "uint256",
							"name": "data",
							"type": "uint256"
						}
					],
					"internalType": "struct DataTypes.UserConfigurationMap",
					"name": "",
					"type": "tuple"
				}
			],
			"stateMutability": "view",
			"type": "function"
		},
		{
			"inputs": [
				{
					"internalType": "address",
					"name": "asset",
					"type": "address"
				},
				{
					"internalType": "address",
					"name": "aTokenAddress",
					"type": "address"
				},
				{
					"internalType": "address",
					"name": "stableDebtAddress",
					"type": "address"
				},
				{
					"internalType": "address",
					"name": "variableDebtAddress",
					"type": "address"
				},
				{
					"internalType": "address",
					"name": "interestRateStrategyAddress",
					"type": "address"
				}
			],
			"name": "initReserve",
			"outputs": [],
			"stateMutability": "nonpayable",
			"type": "function"
		},
		{
			"inputs": [
				{
					"internalType": "contract ILendingPoolAddressesProvider",
					"name": "provider",
					"type": "address"
				}
			],
			"name": "initialize",
			"outputs": [],
			"stateMutability": "nonpayable",
			"type": "function"
		},
		{
			"inputs": [
				{
					"internalType": "address",
					"name": "collateralAsset",
					"type": "address"
				},
				{
					"internalType": "address",
					"name": "debtAsset",
					"type": "address"
				},
				{
					"internalType": "address",
					"name": "user",
					"type": "address"
				},
				{
					"internalType": "uint256",
					"name": "debtToCover",
					"type": "uint256"
				},
				{
					"internalType": "bool",
					"name": "receiveAToken",
					"type": "bool"
				}
			],
			"name": "liquidationCall",
			"outputs": [],
			"stateMutability": "nonpayable",
			"type": "function"
		},
		{
			"inputs": [],
			"name": "paused",
			"outputs": [
				{
					"internalType": "bool",
					"name": "",
					"type": "bool"
				}
			],
			"stateMutability": "view",
			"type": "function"
		},
		{
			"inputs": [
				{
					"internalType": "address",
					"name": "asset",
					"type": "address"
				},
				{
					"internalType": "address",
					"name": "user",
					"type": "address"
				}
			],
			"name": "rebalanceStableBorrowRate",
			"outputs": [],
			"stateMutability": "nonpayable",
			"type": "function"
		},
		{
			"inputs": [
				{
					"internalType": "address",
					"name": "asset",
					"type": "address"
				},
				{
					"internalType": "uint256",
					"name": "amount",
					"type": "uint256"
				},
				{
					"internalType": "uint256",
					"name": "rateMode",
					"type": "uint256"
				},
				{
					"internalType": "address",
					"name": "onBehalfOf",
					"type": "address"
				}
			],
			"name": "repay",
			"outputs": [
				{
					"internalType": "uint256",
					"name": "",
					"type": "uint256"
				}
			],
			"stateMutability": "nonpayable",
			"type": "function"
		},
		{
			"inputs": [
				{
					"internalType": "address",
					"name": "asset",
					"type": "address"
				},
				{
					"internalType": "uint256",
					"name": "configuration",
					"type": "uint256"
				}
			],
			"name": "setConfiguration",
			"outputs": [],
			"stateMutability": "nonpayable",
			"type": "function"
		},
		{
			"inputs": [
				{
					"internalType": "bool",
					"name": "val",
					"type": "bool"
				}
			],
			"name": "setPause",
			"outputs": [],
			"stateMutability": "nonpayable",
			"type": "function"
		},
		{
			"inputs": [
				{
					"internalType": "address",
					"name": "asset",
					"type": "address"
				},
				{
					"internalType": "address",
					"name": "rateStrategyAddress",
					"type": "address"
				}
			],
			"name": "setReserveInterestRateStrategyAddress",
			"outputs": [],
			"stateMutability": "nonpayable",
			"type": "function"
		},
		{
			"inputs": [
				{
					"internalType": "address",
					"name": "asset",
					"type": "address"
				},
				{
					"internalType": "bool",
					"name": "useAsCollateral",
					"type": "bool"
				}
			],
			"name": "setUserUseReserveAsCollateral",
			"outputs": [],
			"stateMutability": "nonpayable",
			"type": "function"
		},
		{
			"inputs": [
				{
					"internalType": "address",
					"name": "asset",
					"type": "address"
				},
				{
					"internalType": "uint256",
					"name": "rateMode",
					"type": "uint256"
				}
			],
			"name": "swapBorrowRateMode",
			"outputs": [],
			"stateMutability": "nonpayable",
			"type": "function"
		},
		{
			"inputs": [
				{
					"internalType": "address",
					"name": "asset",
					"type": "address"
				},
				{
					"internalType": "uint256",
					"name": "amount",
					"type": "uint256"
				},
				{
					"internalType": "address",
					"name": "to",
					"type": "address"
				}
			],
			"name": "withdraw",
			"outputs": [
				{
					"internalType": "uint256",
					"name": "",
					"type": "uint256"
				}
			],
			"stateMutability": "nonpayable",
			"type": "function"
		}
	]
}