{
  "abi": [
    {
      "anonymous": false,
      "inputs": [
        {
          "indexed": true,
          "internalType": "address",
          "name": "asset",
          "type": "address"
        },
        {
          "indexed": true,
          "internalType": "address",
          "name": "proxy",
          "type": "address"
        },
        {
          "indexed": true,
          "internalType": "address",
          "name": "implementation",
          "type": "address"
        }
      ],
      "name": "ATokenUpgraded",
      "type": "event"
    },
    {
      "anonymous": false,
      "inputs": [
        {
          "indexed": true,
          "internalType": "address",
          "name": "asset",
          "type": "address"
        }
      ],
      "name": "BorrowingDisabledOnReserve",
      "type": "event"
    },
    {
      "anonymous": false,
      "inputs": [
        {
          "indexed": true,
          "internalType": "address",
          "name": "asset",
          "type": "address"
        },
        {
          "indexed": false,
          "internalType": "bool",
          "name": "stableRateEnabled",
          "type": "bool"
        }
      ],
      "name": "BorrowingEnabledOnReserve",
      "type": "event"
    },
    {
      "anonymous": false,
      "inputs": [
        {
          "indexed": true,
          "internalType": "address",
          "name": "asset",
          "type": "address"
        },
        {
          "indexed": false,
          "internalType": "uint256",
          "name": "ltv",
          "type": "uint256"
        },
        {
          "indexed": false,
          "internalType": "uint256",
          "name": "liquidationThreshold",
          "type": "uint256"
        },
        {
          "indexed": false,
          "internalType": "uint256",
          "name": "liquidationBonus",
          "type": "uint256"
        }
      ],
      "name": "CollateralConfigurationChanged",
      "type": "event"
    },
    {
      "anonymous": false,
      "inputs": [
        {
          "indexed": true,
          "internalType": "address",
          "name": "asset",
          "type": "address"
        }
      ],
      "name": "ReserveActivated",
      "type": "event"
    },
    {
      "anonymous": false,
      "inputs": [
        {
          "indexed": true,
          "internalType": "address",
          "name": "asset",
          "type": "address"
        }
      ],
      "name": "ReserveDeactivated",
      "type": "event"
    },
    {
      "anonymous": false,
      "inputs": [
        {
          "indexed": true,
          "internalType": "address",
          "name": "asset",
          "type": "address"
        },
        {
          "indexed": false,
          "internalType": "uint256",
          "name": "decimals",
          "type": "uint256"
        }
      ],
      "name": "ReserveDecimalsChanged",
      "type": "event"
    },
    {
      "anonymous": false,
      "inputs": [
        {
          "indexed": true,
          "internalType": "address",
          "name": "asset",
          "type": "address"
        },
        {
          "indexed": false,
          "internalType": "uint256",
          "name": "factor",
          "type": "uint256"
        }
      ],
      "name": "ReserveFactorChanged",
      "type": "event"
    },
    {
      "anonymous": false,
      "inputs": [
        {
          "indexed": true,
          "internalType": "address",
          "name": "asset",
          "type": "address"
        }
      ],
      "name": "ReserveFrozen",
      "type": "event"
    },
    {
      "anonymous": false,
      "inputs": [
        {
          "indexed": true,
          "internalType": "address",
          "name": "asset",
          "type": "address"
        },
        {
          "indexed": true,
          "internalType": "address",
          "name": "aToken",
          "type": "address"
        },
        {
          "indexed": false,
          "internalType": "address",
          "name": "stableDebtToken",
          "type": "address"
        },
        {
          "indexed": false,
          "internalType": "address",
          "name": "variableDebtToken",
          "type": "address"
        },
        {
          "indexed": false,
          "internalType": "address",
          "name": "interestRateStrategyAddress",
          "type": "address"
        }
      ],
      "name": "ReserveInitialized",
      "type": "event"
    },
    {
      "anonymous": false,
      "inputs": [
        {
          "indexed": true,
          "internalType": "address",
          "name": "asset",
          "type": "address"
        },
        {
          "indexed": false,
          "internalType": "address",
          "name": "strategy",
          "type": "address"
        }
      ],
      "name": "ReserveInterestRateStrategyChanged",
      "type": "event"
    },
    {
      "anonymous": false,
      "inputs": [
        {
          "indexed": true,
          "internalType": "address",
          "name": "asset",
          "type": "address"
        }
      ],
      "name": "ReserveUnfrozen",
      "type": "event"
    },
    {
      "anonymous": false,
      "inputs": [
        {
          "indexed": true,
          "internalType": "address",
          "name": "asset",
          "type": "address"
        },
        {
          "indexed": true,
          "internalType": "address",
          "name": "proxy",
          "type": "address"
        },
        {
          "indexed": true,
          "internalType": "address",
          "name": "implementation",
          "type": "address"
        }
      ],
      "name": "StableDebtTokenUpgraded",
      "type": "event"
    },
    {
      "anonymous": false,
      "inputs": [
        {
          "indexed": true,
          "internalType": "address",
          "name": "asset",
          "type": "address"
        }
      ],
      "name": "StableRateDisabledOnReserve",
      "type": "event"
    },
    {
      "anonymous": false,
      "inputs": [
        {
          "indexed": true,
          "internalType": "address",
          "name": "asset",
          "type": "address"
        }
      ],
      "name": "StableRateEnabledOnReserve",
      "type": "event"
    },
    {
      "anonymous": false,
      "inputs": [
        {
          "indexed": true,
          "internalType": "address",
          "name": "asset",
          "type": "address"
        },
        {
          "indexed": true,
          "internalType": "address",
          "name": "proxy",
          "type": "address"
        },
        {
          "indexed": true,
          "internalType": "address",
          "name": "implementation",
          "type": "address"
        }
      ],
      "name": "VariableDebtTokenUpgraded",
      "type": "event"
    },
    {
      "inputs": [
        {
          "internalType": "address",
          "name": "asset",
          "type": "address"
        }
      ],
      "name": "activateReserve",
      "outputs": [],
      "stateMutability": "nonpayable",
      "type": "function"
    },
    {
      "inputs": [
        {
          "internalType": "address",
          "name": "asset",
          "type": "address"
        },
        {
          "internalType": "uint256",
          "name": "ltv",
          "type": "uint256"
        },
        {
          "internalType": "uint256",
          "name": "liquidationThreshold",
          "type": "uint256"
        },
        {
          "internalType": "uint256",
          "name": "liquidationBonus",
          "type": "uint256"
        }
      ],
      "name": "configureReserveAsCollateral",
      "outputs": [],
      "stateMutability": "nonpayable",
      "type": "function"
    },
    {
      "inputs": [
        {
          "internalType": "address",
          "name": "asset",
          "type": "address"
        }
      ],
      "name": "deactivateReserve",
      "outputs": [],
      "stateMutability": "nonpayable",
      "type": "function"
    },
    {
      "inputs": [
        {
          "internalType": "address",
          "name": "asset",
          "type": "address"
        }
      ],
      "name": "disableBorrowingOnReserve",
      "outputs": [],
      "stateMutability": "nonpayable",
      "type": "function"
    },
    {
      "inputs": [
        {
          "internalType": "address",
          "name": "asset",
          "type": "address"
        }
      ],
      "name": "disableReserveStableRate",
      "outputs": [],
      "stateMutability": "nonpayable",
      "type": "function"
    },
    {
      "inputs": [
        {
          "internalType": "address",
          "name": "asset",
          "type": "address"
        },
        {
          "internalType": "bool",
          "name": "stableBorrowRateEnabled",
          "type": "bool"
        }
      ],
      "name": "enableBorrowingOnReserve",
      "outputs": [],
      "stateMutability": "nonpayable",
      "type": "function"
    },
    {
      "inputs": [
        {
          "internalType": "address",
          "name": "asset",
          "type": "address"
        }
      ],
      "name": "enableReserveStableRate",
      "outputs": [],
      "stateMutability": "nonpayable",
      "type": "function"
    },
    {
      "inputs": [
        {
          "internalType": "address",
          "name": "asset",
          "type": "address"
        }
      ],
      "name": "freezeReserve",
      "outputs": [],
      "stateMutability": "nonpayable",
      "type": "function"
    },
    {
      "inputs": [
        {
          "internalType": "address",
          "name": "aTokenImpl",
          "type": "address"
        },
        {
          "internalType": "address",
          "name": "stableDebtTokenImpl",
          "type": "address"
        },
        {
          "internalType": "address",
          "name": "variableDebtTokenImpl",
          "type": "address"
        },
        {
          "internalType": "uint8",
          "name": "underlyingAssetDecimals",
          "type": "uint8"
        },
        {
          "internalType": "address",
          "name": "interestRateStrategyAddress",
          "type": "address"
        }
      ],
      "name": "initReserve",
      "outputs": [],
      "stateMutability": "nonpayable",
      "type": "function"
    },
    {
      "inputs": [
        {
          "internalType": "contract ILendingPoolAddressesProvider",
          "name": "provider",
          "type": "address"
        }
      ],
      "name": "initialize",
      "outputs": [],
      "stateMutability": "nonpayable",
      "type": "function"
    },
    {
      "inputs": [
        {
          "internalType": "bool",
          "name": "val",
          "type": "bool"
        }
      ],
      "name": "setPoolPause",
      "outputs": [],
      "stateMutability": "nonpayable",
      "type": "function"
    },
    {
      "inputs": [
        {
          "internalType": "address",
          "name": "asset",
          "type": "address"
        },
        {
          "internalType": "uint256",
          "name": "reserveFactor",
          "type": "uint256"
        }
      ],
      "name": "setReserveFactor",
      "outputs": [],
      "stateMutability": "nonpayable",
      "type": "function"
    },
    {
      "inputs": [
        {
          "internalType": "address",
          "name": "asset",
          "type": "address"
        },
        {
          "internalType": "address",
          "name": "rateStrategyAddress",
          "type": "address"
        }
      ],
      "name": "setReserveInterestRateStrategyAddress",
      "outputs": [],
      "stateMutability": "nonpayable",
      "type": "function"
    },
    {
      "inputs": [
        {
          "internalType": "address",
          "name": "asset",
          "type": "address"
        },
        {
          "internalType": "uint256",
          "name": "depositLimit",
          "type": "uint256"
        },
        {
          "internalType": "uint256",
          "name": "borrowLimit",
          "type": "uint256"
        },
        {
          "internalType": "uint256",
          "name": "collateralUsageLimit",
          "type": "uint256"
        }
      ],
      "name": "setReserveLimits",
      "outputs": [],
      "stateMutability": "nonpayable",
      "type": "function"
    },
    {
      "inputs": [
        {
          "internalType": "address",
          "name": "asset",
          "type": "address"
        }
      ],
      "name": "unfreezeReserve",
      "outputs": [],
      "stateMutability": "nonpayable",
      "type": "function"
    },
    {
      "inputs": [
        {
          "internalType": "address",
          "name": "asset",
          "type": "address"
        },
        {
          "internalType": "address",
          "name": "implementation",
          "type": "address"
        }
      ],
      "name": "updateAToken",
      "outputs": [],
      "stateMutability": "nonpayable",
      "type": "function"
    },
    {
      "inputs": [
        {
          "internalType": "address",
          "name": "asset",
          "type": "address"
        },
        {
          "internalType": "address",
          "name": "implementation",
          "type": "address"
        }
      ],
      "name": "updateStableDebtToken",
      "outputs": [],
      "stateMutability": "nonpayable",
      "type": "function"
    },
    {
      "inputs": [
        {
          "internalType": "address",
          "name": "asset",
          "type": "address"
        },
        {
          "internalType": "address",
          "name": "implementation",
          "type": "address"
        }
      ],
      "name": "updateVariableDebtToken",
      "outputs": [],
      "stateMutability": "nonpayable",
      "type": "function"
    }
  ],
  "bytecode": {
    "object": "0x60806040526000805534801561001457600080fd5b50614099806100246000396000f3fe608060405234801561001057600080fd5b50600436106101165760003560e01c8063a8dc0f45116100a2578063c4d66de811610071578063c4d66de814610214578063e8bfdd4414610227578063eede87c11461023a578063ef1f93731461024d578063f53a25151461026057610116565b8063a8dc0f45146101c8578063aa65b66e146101db578063b75d6f34146101ee578063bf3441831461020157610116565b80634d978258116100e95780634d978258146101695780636e801a711461017c5780637641f3d91461018f5780637aca76eb146101a25780637c4e560b146101b557610116565b80631d2118f91461011b5780633e72a4541461013057806345fe7946146101435780634b4e675314610156575b600080fd5b61012e610129366004613332565b610273565b005b61012e61013e3660046132f1565b6103e5565b61012e610151366004613332565b6105e0565b61012e61016436600461340b565b61078d565b61012e610177366004613332565b61098c565b61012e61018a36600461336a565b610b3b565b61012e61019d366004613498565b61121c565b61012e6101b03660046132f1565b611341565b61012e6101c3366004613439565b611533565b61012e6101d63660046132f1565b61185c565b61012e6101e9366004613332565b611a4e565b61012e6101fc3660046132f1565b611bfd565b61012e61020f3660046132f1565b611def565b61012e6102223660046134b5565b611fe1565b61012e610235366004613439565b612113565b61012e6102483660046133dd565b612241565b61012e61025b3660046132f1565b61243e565b61012e61026e3660046132f1565b612630565b603454604080516315d9b46f60e31b8152905133926001600160a01b03169163aecda378916004808301926020929190829003018186803b1580156102b757600080fd5b505afa1580156102cb573d6000803e3d6000fd5b505050506040513d601f19601f820116820180604052508101906102ef9190613315565b6001600160a01b03161460405180604001604052806002815260200161333360f01b8152509061033b5760405162461bcd60e51b81526004016103329190613741565b60405180910390fd5b50603554604051631d2118f960e01b81526001600160a01b0390911690631d2118f99061036e908590859060040161362b565b600060405180830381600087803b15801561038857600080fd5b505af115801561039c573d6000803e3d6000fd5b50505050816001600160a01b03167f5644b64ebb0ce18c4032248ca52f58355469092ff072866c3dcd8640e817d6a5826040516103d9919061361d565b60405180910390a25050565b603454604080516315d9b46f60e31b8152905133926001600160a01b03169163aecda378916004808301926020929190829003018186803b15801561042957600080fd5b505afa15801561043d573d6000803e3d6000fd5b505050506040513d601f19601f820116820180604052508101906104619190613315565b6001600160a01b03161460405180604001604052806002815260200161333360f01b815250906104a45760405162461bcd60e51b81526004016103329190613741565b506104ae81612822565b6104b661307d565b60355460405163c44b11f760e01b81526001600160a01b039091169063c44b11f7906104e690859060040161361d565b60206040518083038186803b1580156104fe57600080fd5b505afa158015610512573d6000803e3d6000fd5b505050506040513d601f19601f82011682018060405250810190610536919061350f565b9050610543816000612989565b6035548151604051635c69493b60e11b81526001600160a01b039092169163b8d2927691610576918691906004016136da565b600060405180830381600087803b15801561059057600080fd5b505af11580156105a4573d6000803e3d6000fd5b50506040516001600160a01b03851692507f6f60cf8bd0f218cabe1ea3150bd07b0b758c35c4cfdf7138017a283e65564d5e9150600090a25050565b603454604080516315d9b46f60e31b8152905133926001600160a01b03169163aecda378916004808301926020929190829003018186803b15801561062457600080fd5b505afa158015610638573d6000803e3d6000fd5b505050506040513d601f19601f8201168201806040525081019061065c9190613315565b6001600160a01b03161460405180604001604052806002815260200161333360f01b8152509061069f5760405162461bcd60e51b81526004016103329190613741565b506106a8613090565b6035546040516335ea6a7560e01b81526001600160a01b03909116906335ea6a75906106d890869060040161361d565b6101806040518083038186803b1580156106f157600080fd5b505afa158015610705573d6000803e3d6000fd5b505050506040513d601f19601f82011682018060405250810190610729919061352c565b905061073a838260e00151846129b7565b816001600160a01b03168160e001516001600160a01b0316846001600160a01b03167fa76f65411ec66a7fb6bc467432eb14767900449ae4469fa295e4441fe5e1cb7360405160405180910390a4505050565b603454604080516315d9b46f60e31b8152905133926001600160a01b03169163aecda378916004808301926020929190829003018186803b1580156107d157600080fd5b505afa1580156107e5573d6000803e3d6000fd5b505050506040513d601f19601f820116820180604052508101906108099190613315565b6001600160a01b03161460405180604001604052806002815260200161333360f01b8152509061084c5760405162461bcd60e51b81526004016103329190613741565b5061085561307d565b60355460405163c44b11f760e01b81526001600160a01b039091169063c44b11f79061088590869060040161361d565b60206040518083038186803b15801561089d57600080fd5b505afa1580156108b1573d6000803e3d6000fd5b505050506040513d601f19601f820116820180604052508101906108d5919061350f565b90506108e18183612be6565b6035548151604051635c69493b60e11b81526001600160a01b039092169163b8d2927691610914918791906004016136da565b600060405180830381600087803b15801561092e57600080fd5b505af1158015610942573d6000803e3d6000fd5b50505050826001600160a01b03167f2694ccb0b585b6a54b8d8b4a47aa874b05c257b43d34e98aee50838be00d34058360405161097f9190613762565b60405180910390a2505050565b603454604080516315d9b46f60e31b8152905133926001600160a01b03169163aecda378916004808301926020929190829003018186803b1580156109d057600080fd5b505afa1580156109e4573d6000803e3d6000fd5b505050506040513d601f19601f82011682018060405250810190610a089190613315565b6001600160a01b03161460405180604001604052806002815260200161333360f01b81525090610a4b5760405162461bcd60e51b81526004016103329190613741565b50610a54613090565b6035546040516335ea6a7560e01b81526001600160a01b03909116906335ea6a7590610a8490869060040161361d565b6101806040518083038186803b158015610a9d57600080fd5b505afa158015610ab1573d6000803e3d6000fd5b505050506040513d601f19601f82011682018060405250810190610ad5919061352c565b9050610ae783826101200151846129b7565b816001600160a01b03168161012001516001600160a01b0316846001600160a01b03167f9439658a562a5c46b1173589df89cf001483d685bad28aedaff4a88656292d8160405160405180910390a4505050565b603454604080516315d9b46f60e31b8152905133926001600160a01b03169163aecda378916004808301926020929190829003018186803b158015610b7f57600080fd5b505afa158015610b93573d6000803e3d6000fd5b505050506040513d601f19601f82011682018060405250810190610bb79190613315565b6001600160a01b03161460405180604001604052806002815260200161333360f01b81525090610bfa5760405162461bcd60e51b81526004016103329190613741565b506000856001600160a01b031663b16a19de6040518163ffffffff1660e01b815260040160206040518083038186803b158015610c3657600080fd5b505afa158015610c4a573d6000803e3d6000fd5b505050506040513d601f19601f82011682018060405250810190610c6e9190613315565b9050856001600160a01b0316637535d2466040518163ffffffff1660e01b815260040160206040518083038186803b158015610ca957600080fd5b505afa158015610cbd573d6000803e3d6000fd5b505050506040513d601f19601f82011682018060405250810190610ce19190613315565b603554604080518082019091526002815261333560f01b6020820152916001600160a01b03918216911614610d295760405162461bcd60e51b81526004016103329190613741565b50846001600160a01b0316637535d2466040518163ffffffff1660e01b815260040160206040518083038186803b158015610d6357600080fd5b505afa158015610d77573d6000803e3d6000fd5b505050506040513d601f19601f82011682018060405250810190610d9b9190613315565b603554604080518082019091526002815261199b60f11b6020820152916001600160a01b03918216911614610de35760405162461bcd60e51b81526004016103329190613741565b50836001600160a01b0316637535d2466040518163ffffffff1660e01b815260040160206040518083038186803b158015610e1d57600080fd5b505afa158015610e31573d6000803e3d6000fd5b505050506040513d601f19601f82011682018060405250810190610e559190613315565b603554604080518082019091526002815261333760f01b6020820152916001600160a01b03918216911614610e9d5760405162461bcd60e51b81526004016103329190613741565b50846001600160a01b031663b16a19de6040518163ffffffff1660e01b815260040160206040518083038186803b158015610ed757600080fd5b505afa158015610eeb573d6000803e3d6000fd5b505050506040513d601f19601f82011682018060405250810190610f0f9190613315565b6001600160a01b0316816001600160a01b03161460405180604001604052806002815260200161066760f31b81525090610f5c5760405162461bcd60e51b81526004016103329190613741565b50836001600160a01b031663b16a19de6040518163ffffffff1660e01b815260040160206040518083038186803b158015610f9657600080fd5b505afa158015610faa573d6000803e3d6000fd5b505050506040513d601f19601f82011682018060405250810190610fce9190613315565b6001600160a01b0316816001600160a01b03161460405180604001604052806002815260200161333960f01b8152509061101b5760405162461bcd60e51b81526004016103329190613741565b5060006110288785612c3d565b905060006110368786612c3d565b905060006110448787612c3d565b603554604051633d38474960e11b81529192506001600160a01b031690637a708e929061107d9087908790879087908c9060040161366e565b600060405180830381600087803b15801561109757600080fd5b505af11580156110ab573d6000803e3d6000fd5b505050506110b761307d565b60355460405163c44b11f760e01b81526001600160a01b039091169063c44b11f7906110e790889060040161361d565b60206040518083038186803b1580156110ff57600080fd5b505afa158015611113573d6000803e3d6000fd5b505050506040513d601f19601f82011682018060405250810190611137919061350f565b90506111468160ff8916612e0b565b611151816001612989565b61115c816000612e5e565b6035548151604051635c69493b60e11b81526001600160a01b039092169163b8d292769161118f918991906004016136da565b600060405180830381600087803b1580156111a957600080fd5b505af11580156111bd573d6000803e3d6000fd5b50505050836001600160a01b0316856001600160a01b03167f3a0ca721fc364424566385a1aa271ed508cc2c0949c2272575fb3013a163a45f85858a60405161120893929190613646565b60405180910390a350505050505050505050565b60345460408051636ee554f560e11b8152905133926001600160a01b03169163ddcaa9ea916004808301926020929190829003018186803b15801561126057600080fd5b505afa158015611274573d6000803e3d6000fd5b505050506040513d601f19601f820116820180604052508101906112989190613315565b6001600160a01b031614604051806040016040528060028152602001611b9b60f11b815250906112db5760405162461bcd60e51b81526004016103329190613741565b5060355460405163bedb86fb60e01b81526001600160a01b039091169063bedb86fb9061130c908490600401613733565b600060405180830381600087803b15801561132657600080fd5b505af115801561133a573d6000803e3d6000fd5b5050505050565b603454604080516315d9b46f60e31b8152905133926001600160a01b03169163aecda378916004808301926020929190829003018186803b15801561138557600080fd5b505afa158015611399573d6000803e3d6000fd5b505050506040513d601f19601f820116820180604052508101906113bd9190613315565b6001600160a01b03161460405180604001604052806002815260200161333360f01b815250906114005760405162461bcd60e51b81526004016103329190613741565b5061140961307d565b60355460405163c44b11f760e01b81526001600160a01b039091169063c44b11f79061143990859060040161361d565b60206040518083038186803b15801561145157600080fd5b505afa158015611465573d6000803e3d6000fd5b505050506040513d601f19601f82011682018060405250810190611489919061350f565b9050611496816001612e5e565b6035548151604051635c69493b60e11b81526001600160a01b039092169163b8d29276916114c9918691906004016136da565b600060405180830381600087803b1580156114e357600080fd5b505af11580156114f7573d6000803e3d6000fd5b50506040516001600160a01b03851692507f85dc710add8a0914461a7dc5a63f6fc529a7700f8c6089a3faf5e93256ccf12a9150600090a25050565b603454604080516315d9b46f60e31b8152905133926001600160a01b03169163aecda378916004808301926020929190829003018186803b15801561157757600080fd5b505afa15801561158b573d6000803e3d6000fd5b505050506040513d601f19601f820116820180604052508101906115af9190613315565b6001600160a01b03161460405180604001604052806002815260200161333360f01b815250906115f25760405162461bcd60e51b81526004016103329190613741565b506115fb61307d565b60355460405163c44b11f760e01b81526001600160a01b039091169063c44b11f79061162b90889060040161361d565b60206040518083038186803b15801561164357600080fd5b505afa158015611657573d6000803e3d6000fd5b505050506040513d601f19601f8201168201806040525081019061167b919061350f565b90508284111560405180604001604052806002815260200161373560f01b815250906116ba5760405162461bcd60e51b81526004016103329190613741565b50821561174b57604080518082019091526002815261373560f01b602082015261271083116116fc5760405162461bcd60e51b81526004016103329190613741565b5061271061170a8484612e8c565b111560405180604001604052806002815260200161373560f01b815250906117455760405162461bcd60e51b81526004016103329190613741565b5061178d565b604080518082019091526002815261373560f01b602082015282156117835760405162461bcd60e51b81526004016103329190613741565b5061178d85612822565b6117978185612efe565b6117a18184612f47565b6117ab8183612f98565b6035548151604051635c69493b60e11b81526001600160a01b039092169163b8d29276916117de918991906004016136da565b600060405180830381600087803b1580156117f857600080fd5b505af115801561180c573d6000803e3d6000fd5b50505050846001600160a01b03167f637febbda9275aea2e85c0ff690444c8d87eb2e8339bbede9715abcc89cb099585858560405161184d93929190613770565b60405180910390a25050505050565b603454604080516315d9b46f60e31b8152905133926001600160a01b03169163aecda378916004808301926020929190829003018186803b1580156118a057600080fd5b505afa1580156118b4573d6000803e3d6000fd5b505050506040513d601f19601f820116820180604052508101906118d89190613315565b6001600160a01b03161460405180604001604052806002815260200161333360f01b8152509061191b5760405162461bcd60e51b81526004016103329190613741565b5061192461307d565b60355460405163c44b11f760e01b81526001600160a01b039091169063c44b11f79061195490859060040161361d565b60206040518083038186803b15801561196c57600080fd5b505afa158015611980573d6000803e3d6000fd5b505050506040513d601f19601f820116820180604052508101906119a4919061350f565b90506119b1816000612feb565b6035548151604051635c69493b60e11b81526001600160a01b039092169163b8d29276916119e4918691906004016136da565b600060405180830381600087803b1580156119fe57600080fd5b505af1158015611a12573d6000803e3d6000fd5b50506040516001600160a01b03851692507fe9a7e5fd4fc8ea18e602350324bf48e8f05d12434af0ce0be05743e6a5fdcb9e9150600090a25050565b603454604080516315d9b46f60e31b8152905133926001600160a01b03169163aecda378916004808301926020929190829003018186803b158015611a9257600080fd5b505afa158015611aa6573d6000803e3d6000fd5b505050506040513d601f19601f82011682018060405250810190611aca9190613315565b6001600160a01b03161460405180604001604052806002815260200161333360f01b81525090611b0d5760405162461bcd60e51b81526004016103329190613741565b50611b16613090565b6035546040516335ea6a7560e01b81526001600160a01b03909116906335ea6a7590611b4690869060040161361d565b6101806040518083038186803b158015611b5f57600080fd5b505afa158015611b73573d6000803e3d6000fd5b505050506040513d601f19601f82011682018060405250810190611b97919061352c565b9050611ba983826101000151846129b7565b816001600160a01b03168161010001516001600160a01b0316846001600160a01b03167f7a943a5b6c214bf7726c069a878b1e2a8e7371981d516048b84e03743e67bc2860405160405180910390a4505050565b603454604080516315d9b46f60e31b8152905133926001600160a01b03169163aecda378916004808301926020929190829003018186803b158015611c4157600080fd5b505afa158015611c55573d6000803e3d6000fd5b505050506040513d601f19601f82011682018060405250810190611c799190613315565b6001600160a01b03161460405180604001604052806002815260200161333360f01b81525090611cbc5760405162461bcd60e51b81526004016103329190613741565b50611cc561307d565b60355460405163c44b11f760e01b81526001600160a01b039091169063c44b11f790611cf590859060040161361d565b60206040518083038186803b158015611d0d57600080fd5b505afa158015611d21573d6000803e3d6000fd5b505050506040513d601f19601f82011682018060405250810190611d45919061350f565b9050611d52816001612989565b6035548151604051635c69493b60e11b81526001600160a01b039092169163b8d2927691611d85918691906004016136da565b600060405180830381600087803b158015611d9f57600080fd5b505af1158015611db3573d6000803e3d6000fd5b50506040516001600160a01b03851692507f35b80cd8ea3440e9a8454f116fa658b858da1b64c86c48451f4559cefcdfb56c9150600090a25050565b603454604080516315d9b46f60e31b8152905133926001600160a01b03169163aecda378916004808301926020929190829003018186803b158015611e3357600080fd5b505afa158015611e47573d6000803e3d6000fd5b505050506040513d601f19601f82011682018060405250810190611e6b9190613315565b6001600160a01b03161460405180604001604052806002815260200161333360f01b81525090611eae5760405162461bcd60e51b81526004016103329190613741565b50611eb761307d565b60355460405163c44b11f760e01b81526001600160a01b039091169063c44b11f790611ee790859060040161361d565b60206040518083038186803b158015611eff57600080fd5b505afa158015611f13573d6000803e3d6000fd5b505050506040513d601f19601f82011682018060405250810190611f37919061350f565b9050611f44816001613019565b6035548151604051635c69493b60e11b81526001600160a01b039092169163b8d2927691611f77918691906004016136da565b600060405180830381600087803b158015611f9157600080fd5b505af1158015611fa5573d6000803e3d6000fd5b50506040516001600160a01b03851692507f8dee2b2f3e98319ae6347eda521788f73f4086c9be9a594942b370b137fb8cb19150600090a25050565b6000611feb613047565b60015490915060ff1680612002575061200261304c565b8061200e575060005481115b61202a5760405162461bcd60e51b815260040161033290613752565b60015460ff16158015612049576001805460ff19168117905560008290555b603480546001600160a01b0319166001600160a01b03858116919091179182905560408051630261bf8b60e01b815290519290911691630261bf8b91600480820192602092909190829003018186803b1580156120a557600080fd5b505afa1580156120b9573d6000803e3d6000fd5b505050506040513d601f19601f820116820180604052508101906120dd9190613315565b603580546001600160a01b0319166001600160a01b0392909216919091179055801561210e576001805460ff191690555b505050565b603454604080516315d9b46f60e31b8152905133926001600160a01b03169163aecda378916004808301926020929190829003018186803b15801561215757600080fd5b505afa15801561216b573d6000803e3d6000fd5b505050506040513d601f19601f8201168201806040525081019061218f9190613315565b6001600160a01b03161460405180604001604052806002815260200161333360f01b815250906121d25760405162461bcd60e51b81526004016103329190613741565b50603554604051633a2ff75160e21b81526001600160a01b039091169063e8bfdd44906122099087908790879087906004016136f5565b600060405180830381600087803b15801561222357600080fd5b505af1158015612237573d6000803e3d6000fd5b5050505050505050565b603454604080516315d9b46f60e31b8152905133926001600160a01b03169163aecda378916004808301926020929190829003018186803b15801561228557600080fd5b505afa158015612299573d6000803e3d6000fd5b505050506040513d601f19601f820116820180604052508101906122bd9190613315565b6001600160a01b03161460405180604001604052806002815260200161333360f01b815250906123005760405162461bcd60e51b81526004016103329190613741565b5061230961307d565b60355460405163c44b11f760e01b81526001600160a01b039091169063c44b11f79061233990869060040161361d565b60206040518083038186803b15801561235157600080fd5b505afa158015612365573d6000803e3d6000fd5b505050506040513d601f19601f82011682018060405250810190612389919061350f565b9050612396816001612feb565b6123a08183613019565b6035548151604051635c69493b60e11b81526001600160a01b039092169163b8d29276916123d3918791906004016136da565b600060405180830381600087803b1580156123ed57600080fd5b505af1158015612401573d6000803e3d6000fd5b50505050826001600160a01b03167fab2f7f9e5ca2772fafa94f355c1842a80ae6b9e41f83083098d81f67d7a0b5088360405161097f9190613733565b603454604080516315d9b46f60e31b8152905133926001600160a01b03169163aecda378916004808301926020929190829003018186803b15801561248257600080fd5b505afa158015612496573d6000803e3d6000fd5b505050506040513d601f19601f820116820180604052508101906124ba9190613315565b6001600160a01b03161460405180604001604052806002815260200161333360f01b815250906124fd5760405162461bcd60e51b81526004016103329190613741565b5061250661307d565b60355460405163c44b11f760e01b81526001600160a01b039091169063c44b11f79061253690859060040161361d565b60206040518083038186803b15801561254e57600080fd5b505afa158015612562573d6000803e3d6000fd5b505050506040513d601f19601f82011682018060405250810190612586919061350f565b9050612593816000612e5e565b6035548151604051635c69493b60e11b81526001600160a01b039092169163b8d29276916125c6918691906004016136da565b600060405180830381600087803b1580156125e057600080fd5b505af11580156125f4573d6000803e3d6000fd5b50506040516001600160a01b03851692507f838ecdc4709a31a26db48b0c853212cedde3f725f07030079d793fb0719647609150600090a25050565b603454604080516315d9b46f60e31b8152905133926001600160a01b03169163aecda378916004808301926020929190829003018186803b15801561267457600080fd5b505afa158015612688573d6000803e3d6000fd5b505050506040513d601f19601f820116820180604052508101906126ac9190613315565b6001600160a01b03161460405180604001604052806002815260200161333360f01b815250906126ef5760405162461bcd60e51b81526004016103329190613741565b506126f861307d565b60355460405163c44b11f760e01b81526001600160a01b039091169063c44b11f79061272890859060040161361d565b60206040518083038186803b15801561274057600080fd5b505afa158015612754573d6000803e3d6000fd5b505050506040513d601f19601f82011682018060405250810190612778919061350f565b9050612785816000613019565b6035548151604051635c69493b60e11b81526001600160a01b039092169163b8d29276916127b8918691906004016136da565b600060405180830381600087803b1580156127d257600080fd5b505af11580156127e6573d6000803e3d6000fd5b50506040516001600160a01b03851692507f8bbf35441ac2c607ddecadd3d8ee58636d32f217fad201fb2655581502dd84e39150600090a25050565b61282a613090565b6035546040516335ea6a7560e01b81526001600160a01b03909116906335ea6a759061285a90859060040161361d565b6101806040518083038186803b15801561287357600080fd5b505afa158015612887573d6000803e3d6000fd5b505050506040513d601f19601f820116820180604052508101906128ab919061352c565b90506000826001600160a01b03166370a082318360e001516040518263ffffffff1660e01b81526004016128df919061361d565b60206040518083038186803b1580156128f757600080fd5b505afa15801561290b573d6000803e3d6000fd5b505050506040513d601f19601f8201168201806040525081019061292f919061354a565b90508015801561294a575060608201516001600160801b0316155b604051806040016040528060028152602001610ccd60f21b815250906129835760405162461bcd60e51b81526004016103329190613741565b50505050565b60388161299757600061299a565b60015b8351670100000000000000191660ff9190911690911b1790915250565b816129c061307d565b60355460405163c44b11f760e01b81526001600160a01b039091169063c44b11f7906129f090889060040161361d565b60206040518083038186803b158015612a0857600080fd5b505afa158015612a1c573d6000803e3d6000fd5b505050506040513d601f19601f82011682018060405250810190612a40919061350f565b90506000612a4d82613052565b509350505050606081856001600160a01b03166306fdde036040518163ffffffff1660e01b815260040160006040518083038186803b158015612a8f57600080fd5b505afa158015612aa3573d6000803e3d6000fd5b505050506040513d6000823e601f3d908101601f19168201604052612acb91908101906134d2565b866001600160a01b03166395d89b416040518163ffffffff1660e01b815260040160006040518083038186803b158015612b0457600080fd5b505afa158015612b18573d6000803e3d6000fd5b505050506040513d6000823e601f3d908101601f19168201604052612b4091908101906134d2565b604051602401612b5293929190613798565b60408051601f198184030181529181526020820180516001600160e01b031663188c392760e11b1790525163278f794360e11b81529091506001600160a01b03851690634f1ef28690612bab90889085906004016136ba565b600060405180830381600087803b158015612bc557600080fd5b505af1158015612bd9573d6000803e3d6000fd5b5050505050505050505050565b604080518082019091526002815261373160f01b602082015261ffff821115612c225760405162461bcd60e51b81526004016103329190613741565b50815169ffff0000000000000000191660409190911b179052565b60008030604051612c4d906130fb565b612c57919061361d565b604051809103906000f080158015612c73573d6000803e3d6000fd5b509050606083856001600160a01b03166306fdde036040518163ffffffff1660e01b815260040160006040518083038186803b158015612cb257600080fd5b505afa158015612cc6573d6000803e3d6000fd5b505050506040513d6000823e601f3d908101601f19168201604052612cee91908101906134d2565b866001600160a01b03166395d89b416040518163ffffffff1660e01b815260040160006040518083038186803b158015612d2757600080fd5b505afa158015612d3b573d6000803e3d6000fd5b505050506040513d6000823e601f3d908101601f19168201604052612d6391908101906134d2565b604051602401612d7593929190613798565b60408051601f198184030181529181526020820180516001600160e01b031663188c392760e11b1790525163347d5e2560e21b81529091506001600160a01b0383169063d1f5789490612dce90889085906004016136ba565b600060405180830381600087803b158015612de857600080fd5b505af1158015612dfc573d6000803e3d6000fd5b50939450505050505b92915050565b604080518082019091526002815261037360f41b602082015260ff821115612e465760405162461bcd60e51b81526004016103329190613741565b50815166ff000000000000191660309190911b179052565b603981612e6c576000612e6f565b60015b8351670200000000000000191660ff9190911690911b1790915250565b6000821580612e99575081155b15612ea657506000612e05565b816113881981612eb257fe5b0483111560405180604001604052806002815260200161068760f31b81525090612eef5760405162461bcd60e51b81526004016103329190613741565b50506127109102611388010490565b604080518082019091526002815261363760f01b602082015261ffff821115612f3a5760405162461bcd60e51b81526004016103329190613741565b50815161ffff1916179052565b60408051808201909152600281526106c760f31b602082015261ffff821115612f835760405162461bcd60e51b81526004016103329190613741565b50815163ffff0000191660109190911b179052565b604080518082019091526002815261363960f01b602082015261ffff821115612fd45760405162461bcd60e51b81526004016103329190613741565b50815165ffff00000000191660209190911b179052565b603a81612ff9576000612ffc565b60015b8351670400000000000000191660ff9190911690911b1790915250565b603b8161302757600061302a565b60015b8351670800000000000000191660ff9190911690911b1790915250565b600290565b303b1590565b5161ffff80821692601083901c821692602081901c831692603082901c60ff169260409290921c1690565b6040518060200160405280600081525090565b6040518061018001604052806130a461307d565b815260006020820181905260408201819052606082018190526080820181905260a0820181905260c0820181905260e082018190526101008201819052610120820181905261014082018190526101609091015290565b610773806138f183390190565b8035612e05816138a3565b8051612e05816138a3565b8035612e05816138ba565b8035612e05816138c3565b600082601f830112613144578081fd5b8151613157613152826137f3565b6137cc565b9150808252602083016020830185838301111561317357600080fd5b61317e83828461386d565b50505092915050565b600060208284031215613198578081fd5b6131a260206137cc565b905060006131b084846132c5565b9082015292915050565b600061018082840312156131cc578081fd5b6131d76101806137cc565b905060006131e58484613187565b9082015260206131f7848483016132af565b908201526040613209848483016132af565b90820152606061321b848483016132af565b90820152608061322d848483016132af565b9082015260a061323f848483016132af565b9082015260c0613251848483016132d0565b9082015260e061326384848301613113565b9082015261010061327684848301613113565b9082015261012061328984848301613113565b9082015261014061329c84848301613113565b908201526101606131b0848483016132e6565b8051612e05816138cc565b8035612e05816138d5565b8051612e05816138d5565b8051612e05816138de565b8035612e05816138e7565b8051612e05816138e7565b600060208284031215613302578081fd5b61330e83828401613108565b9392505050565b600060208284031215613326578081fd5b61330e83828401613113565b60008060408385031215613344578081fd5b61335084828501613108565b9150602061336085828601613108565b9150509250929050565b600080600080600060a08688031215613381578081fd5b61338d87828801613108565b9450602061339d88828901613108565b94505060406133ae88828901613108565b93505060606133bf888289016132db565b92505060806133d088828901613108565b9150509295509295909350565b600080604083850312156133ef578182fd5b6133fb84838501613108565b915060206133608582860161311e565b6000806040838503121561341d578182fd5b61342984838501613108565b91506020613360858286016132ba565b6000806000806080858703121561344e578384fd5b61345a86858701613108565b9350602061346a878288016132ba565b935050604061347b878288016132ba565b925050606061348c878288016132ba565b91505092959194509250565b6000602082840312156134a9578081fd5b61330e8382840161311e565b6000602082840312156134c6578081fd5b61330e83828401613129565b6000602082840312156134e3578081fd5b8082015167ffffffffffffffff8111156134fb578182fd5b61350784828501613134565b949350505050565b600060208284031215613520578081fd5b61330e83828401613187565b6000610180828403121561353e578081fd5b61330e838284016131ba565b60006020828403121561355b578081fd5b61330e838284016132c5565b61357081613827565b82525050565b61357081613832565b600061358a8261381a565b613594818561381e565b93506135a481856020860161386d565b6135ad81613899565b9093019392505050565b60006135c4602e8361381e565b7f436f6e747261637420696e7374616e63652068617320616c7265616479206265918101919091526d195b881a5b9a5d1a585b1a5e995960921b6020820152604001919050565b6135708161385a565b61357081613867565b60208101612e058284613567565b604081016136398285613567565b61330e6020830184613567565b606081016136548286613567565b6136616020830185613567565b6135076040830184613567565b60a0810161367c8288613567565b6136896020830187613567565b6136966040830186613567565b6136a36060830185613567565b6136b06080830184613567565b9695505050505050565b604081016136c88285613567565b8181036020830152613507818461357f565b604081016136e88285613567565b61330e602083018461360b565b608081016137038287613567565b613710602083018661360b565b61371d604083018561360b565b61372a606083018461360b565b95945050505050565b60208101612e058284613576565b6020808252810161330e818461357f565b60208082528101612e05816135b7565b60208101612e05828461360b565b6060810161377e828661360b565b61378b602083018561360b565b613507604083018461360b565b606081016137a68286613614565b81810360208301526137b8818561357f565b9050818103604083015261372a818461357f565b60405181810167ffffffffffffffff811182821017156137eb57600080fd5b604052919050565b600067ffffffffffffffff821115613809578081fd5b506020601f91909101601f19160190565b5190565b90815260200190565b6000612e058261384e565b151590565b6000612e0582613827565b6001600160801b031690565b6001600160a01b031690565b90565b64ffffffffff1690565b60ff1690565b60005b83811015613888578181015183820152602001613870565b838111156129835750506000910152565b601f01601f191690565b6138ac81613827565b81146138b757600080fd5b50565b6138ac81613832565b6138ac81613837565b6138ac81613842565b6138ac8161385a565b6138ac8161385d565b6138ac8161386756fe60a060405234801561001057600080fd5b506040516107733803806107738339818101604052602081101561003357600080fd5b5051606081901b6001600160601b0319166080526001600160a01b03166106f36100806000398061022852806102725280610331528061045e528061048752806105af52506106f36000f3fe60806040526004361061004a5760003560e01c80633659cfe6146100545780634f1ef286146100875780635c60da1b14610107578063d1f5789414610138578063f851a440146101ee575b610052610203565b005b34801561006057600080fd5b506100526004803603602081101561007757600080fd5b50356001600160a01b031661021d565b6100526004803603604081101561009d57600080fd5b6001600160a01b0382351691908101906040810160208201356401000000008111156100c857600080fd5b8201836020820111156100da57600080fd5b803590602001918460018302840111640100000000831117156100fc57600080fd5b509092509050610267565b34801561011357600080fd5b5061011c610324565b604080516001600160a01b039092168252519081900360200190f35b6100526004803603604081101561014e57600080fd5b6001600160a01b03823516919081019060408101602082013564010000000081111561017957600080fd5b82018360208201111561018b57600080fd5b803590602001918460018302840111640100000000831117156101ad57600080fd5b91908080601f016020809104026020016040519081016040528093929190818152602001838380828437600092019190915250929550610371945050505050565b3480156101fa57600080fd5b5061011c610451565b61020b6104ab565b61021b6102166104b3565b6104d8565b565b336001600160a01b037f000000000000000000000000000000000000000000000000000000000000000016141561025c57610257816104fc565b610264565b610264610203565b50565b336001600160a01b037f0000000000000000000000000000000000000000000000000000000000000000161415610317576102a1836104fc565b6000836001600160a01b031683836040518083838082843760405192019450600093509091505080830381855af49150503d80600081146102fe576040519150601f19603f3d011682016040523d82523d6000602084013e610303565b606091505b505090508061031157600080fd5b5061031f565b61031f610203565b505050565b6000336001600160a01b037f00000000000000000000000000000000000000000000000000000000000000001614156103665761035f6104b3565b905061036e565b61036e610203565b90565b600061037b6104b3565b6001600160a01b03161461038e57600080fd5b6103978261053c565b80511561044d576000826001600160a01b0316826040518082805190602001908083835b602083106103da5780518252601f1990920191602091820191016103bb565b6001836020036101000a038019825116818451168082178552505050505050905001915050600060405180830381855af49150503d806000811461043a576040519150601f19603f3d011682016040523d82523d6000602084013e61043f565b606091505b505090508061031f57600080fd5b5050565b6000336001600160a01b037f000000000000000000000000000000000000000000000000000000000000000016141561036657507f000000000000000000000000000000000000000000000000000000000000000061036e565b61021b6105a4565b7f360894a13ba1a3210667c828492db98dca3e2076cc3735a920a3ca505d382bbc5490565b3660008037600080366000845af43d6000803e8080156104f7573d6000f35b3d6000fd5b6105058161053c565b6040516001600160a01b038216907fbc7cd75a20ee27fd9adebab32041f755214dbc6bffa90cc0225b39da2e5c2d3b90600090a250565b61054581610614565b6105805760405162461bcd60e51b815260040180806020018281038252603b815260200180610683603b913960400191505060405180910390fd5b7f360894a13ba1a3210667c828492db98dca3e2076cc3735a920a3ca505d382bbc55565b336001600160a01b037f000000000000000000000000000000000000000000000000000000000000000016141561060c5760405162461bcd60e51b81526004018080602001828103825260328152602001806106516032913960400191505060405180910390fd5b61021b61021b565b6000813f7fc5d2460186f7233c927e7db2dcc703c0e500b653ca82273b7bfad8045d85a47081811480159061064857508115155b94935050505056fe43616e6e6f742063616c6c2066616c6c6261636b2066756e6374696f6e2066726f6d207468652070726f78792061646d696e43616e6e6f742073657420612070726f787920696d706c656d656e746174696f6e20746f2061206e6f6e2d636f6e74726163742061646472657373a264697066735822122038aa8dfda7689b2ceb955afbdfeecbd3d44bb217ee9d5b04142a4f9a4243810364736f6c634300060c0033a26469706673582212205c331e41f94d1f3fd20efe77e5062ca98629a6e38b0fd1bb1183753ebd80e12a64736f6c634300060c0033",
    "linkReferences": {}
  },
  "methodIdentifiers": {
    "activateReserve(address)": "b75d6f34",
    "configureReserveAsCollateral(address,uint256,uint256,uint256)": "7c4e560b",
    "deactivateReserve(address)": "3e72a454",
    "disableBorrowingOnReserve(address)": "a8dc0f45",
    "disableReserveStableRate(address)": "f53a2515",
    "enableBorrowingOnReserve(address,bool)": "eede87c1",
    "enableReserveStableRate(address)": "bf344183",
    "freezeReserve(address)": "7aca76eb",
    "initReserve(address,address,address,uint8,address)": "6e801a71",
    "initialize(address)": "c4d66de8",
    "setPoolPause(bool)": "7641f3d9",
    "setReserveFactor(address,uint256)": "4b4e6753",
    "setReserveInterestRateStrategyAddress(address,address)": "1d2118f9",
    "setReserveLimits(address,uint256,uint256,uint256)": "e8bfdd44",
    "unfreezeReserve(address)": "ef1f9373",
    "updateAToken(address,address)": "45fe7946",
    "updateStableDebtToken(address,address)": "aa65b66e",
    "updateVariableDebtToken(address,address)": "4d978258"
  },
  "id": 50
}