{
  "abi": [
    {
      "inputs": [],
      "name": "MOCK_USD_ADDRESS",
      "outputs": [
        {
          "internalType": "address",
          "name": "",
          "type": "address"
        }
      ],
      "stateMutability": "view",
      "type": "function"
    },
    {
      "inputs": [
        {
          "internalType": "contract ILendingPoolAddressesProvider",
          "name": "provider",
          "type": "address"
        },
        {
          "internalType": "address",
          "name": "user",
          "type": "address"
        }
      ],
      "name": "getReservesData",
      "outputs": [
        {
          "components": [
            {
              "internalType": "address",
              "name": "underlyingAsset",
              "type": "address"
            },
            {
              "internalType": "string",
              "name": "name",
              "type": "string"
            },
            {
              "internalType": "string",
              "name": "symbol",
              "type": "string"
            },
            {
              "internalType": "uint256",
              "name": "decimals",
              "type": "uint256"
            },
            {
              "internalType": "uint256",
              "name": "baseLTVasCollateral",
              "type": "uint256"
            },
            {
              "internalType": "uint256",
              "name": "reserveLiquidationThreshold",
              "type": "uint256"
            },
            {
              "internalType": "uint256",
              "name": "reserveLiquidationBonus",
              "type": "uint256"
            },
            {
              "internalType": "uint256",
              "name": "reserveFactor",
              "type": "uint256"
            },
            {
              "internalType": "bool",
              "name": "usageAsCollateralEnabled",
              "type": "bool"
            },
            {
              "internalType": "bool",
              "name": "borrowingEnabled",
              "type": "bool"
            },
            {
              "internalType": "bool",
              "name": "stableBorrowRateEnabled",
              "type": "bool"
            },
            {
              "internalType": "bool",
              "name": "isActive",
              "type": "bool"
            },
            {
              "internalType": "bool",
              "name": "isFrozen",
              "type": "bool"
            },
            {
              "internalType": "uint128",
              "name": "liquidityIndex",
              "type": "uint128"
            },
            {
              "internalType": "uint128",
              "name": "variableBorrowIndex",
              "type": "uint128"
            },
            {
              "internalType": "uint128",
              "name": "liquidityRate",
              "type": "uint128"
            },
            {
              "internalType": "uint128",
              "name": "variableBorrowRate",
              "type": "uint128"
            },
            {
              "internalType": "uint128",
              "name": "stableBorrowRate",
              "type": "uint128"
            },
            {
              "internalType": "uint40",
              "name": "lastUpdateTimestamp",
              "type": "uint40"
            },
            {
              "internalType": "address",
              "name": "aTokenAddress",
              "type": "address"
            },
            {
              "internalType": "address",
              "name": "stableDebtTokenAddress",
              "type": "address"
            },
            {
              "internalType": "address",
              "name": "variableDebtTokenAddress",
              "type": "address"
            },
            {
              "internalType": "address",
              "name": "interestRateStrategyAddress",
              "type": "address"
            },
            {
              "internalType": "uint256",
              "name": "availableLiquidity",
              "type": "uint256"
            },
            {
              "internalType": "uint256",
              "name": "totalPrincipalStableDebt",
              "type": "uint256"
            },
            {
              "internalType": "uint256",
              "name": "averageStableRate",
              "type": "uint256"
            },
            {
              "internalType": "uint256",
              "name": "stableDebtLastUpdateTimestamp",
              "type": "uint256"
            },
            {
              "internalType": "uint256",
              "name": "totalScaledVariableDebt",
              "type": "uint256"
            },
            {
              "internalType": "uint256",
              "name": "priceInEth",
              "type": "uint256"
            },
            {
              "internalType": "uint256",
              "name": "variableRateSlope1",
              "type": "uint256"
            },
            {
              "internalType": "uint256",
              "name": "variableRateSlope2",
              "type": "uint256"
            },
            {
              "internalType": "uint256",
              "name": "stableRateSlope1",
              "type": "uint256"
            },
            {
              "internalType": "uint256",
              "name": "stableRateSlope2",
              "type": "uint256"
            }
          ],
          "internalType": "struct IUiPoolDataProvider.AggregatedReserveData[]",
          "name": "",
          "type": "tuple[]"
        },
        {
          "components": [
            {
              "internalType": "address",
              "name": "underlyingAsset",
              "type": "address"
            },
            {
              "internalType": "uint256",
              "name": "scaledATokenBalance",
              "type": "uint256"
            },
            {
              "internalType": "bool",
              "name": "usageAsCollateralEnabledOnUser",
              "type": "bool"
            },
            {
              "internalType": "uint256",
              "name": "stableBorrowRate",
              "type": "uint256"
            },
            {
              "internalType": "uint256",
              "name": "scaledVariableDebt",
              "type": "uint256"
            },
            {
              "internalType": "uint256",
              "name": "principalStableDebt",
              "type": "uint256"
            },
            {
              "internalType": "uint256",
              "name": "stableBorrowLastUpdateTimestamp",
              "type": "uint256"
            }
          ],
          "internalType": "struct IUiPoolDataProvider.UserReserveData[]",
          "name": "",
          "type": "tuple[]"
        },
        {
          "internalType": "uint256",
          "name": "",
          "type": "uint256"
        }
      ],
      "stateMutability": "view",
      "type": "function"
    }
  ],
  "bytecode": {
    "object": "0x608060405234801561001057600080fd5b50611ba5806100206000396000f3fe608060405234801561001057600080fd5b50600436106100365760003560e01c806387e40db71461003b578063b8c0a5b114610066575b600080fd5b61004e61004936600461140a565b61007b565b60405161005d939291906119e5565b60405180910390f35b61006e610c3a565b60405161005d91906119d7565b606080600080856001600160a01b0316630261bf8b6040518163ffffffff1660e01b815260040160206040518083038186803b1580156100ba57600080fd5b505afa1580156100ce573d6000803e3d6000fd5b505050506040513d601f19601f820116820180604052508101906100f291906113a9565b90506000866001600160a01b031663fca513a86040518163ffffffff1660e01b815260040160206040518083038186803b15801561012f57600080fd5b505afa158015610143573d6000803e3d6000fd5b505050506040513d601f19601f8201168201806040525081019061016791906113a9565b90506060826001600160a01b031663d1946dbc6040518163ffffffff1660e01b815260040160006040518083038186803b1580156101a457600080fd5b505afa1580156101b8573d6000803e3d6000fd5b505050506040513d6000823e601f3d908101601f191682016040526101e091908101906113cd565b90506101ea610f45565b604051634417a58360e01b81526001600160a01b03851690634417a58390610216908b906004016119d7565b60206040518083038186803b15801561022e57600080fd5b505afa158015610242573d6000803e3d6000fd5b505050506040513d601f19601f820116820180604052508101906102669190611495565b90506060825167ffffffffffffffff8111801561028257600080fd5b506040519080825280602002602001820160405280156102bc57816020015b6102a9610f58565b8152602001906001900390816102a15790505b50905060606001600160a01b038a166102d65760006102d9565b83515b67ffffffffffffffff811180156102ef57600080fd5b5060405190808252806020026020018201604052801561032957816020015b6103166110b7565b81526020019060019003908161030e5790505b50905060005b8451811015610b9457610340610f58565b83828151811061034c57fe5b6020026020010151905085828151811061036257fe5b60209081029190910101516001600160a01b031681526103806110ff565b81516040516335ea6a7560e01b81526001600160a01b038b16916335ea6a75916103ad91906004016119d7565b6101806040518083038186803b1580156103c657600080fd5b505afa1580156103da573d6000803e3d6000fd5b505050506040513d601f19601f820116820180604052508101906103fe9190611477565b60208101516001600160801b039081166101a085015260408083015182166101c0860152606083015182166101e08601526080830151821661020086015260a083015190911661022085015260c082015164ffffffffff1661024085015260e08201516001600160a01b03908116610260860152610100830151811661028086015261012083015181166102a086015261014083015181166102c08601528451915163b3596f0760e01b81529293508a169163b3596f07916104c2916004016119d7565b60206040518083038186803b1580156104da57600080fd5b505afa1580156104ee573d6000803e3d6000fd5b505050506040513d601f19601f8201168201806040525081019061051291906114b2565b61038083015281516102608301516040516370a0823160e01b81526001600160a01b03909216916370a082319161054b916004016119d7565b60206040518083038186803b15801561056357600080fd5b505afa158015610577573d6000803e3d6000fd5b505050506040513d601f19601f8201168201806040525081019061059b91906114b2565b826102e00181815250508161028001516001600160a01b031663797743386040518163ffffffff1660e01b815260040160806040518083038186803b1580156105e357600080fd5b505afa1580156105f7573d6000803e3d6000fd5b505050506040513d601f19601f8201168201806040525081019061061b91906114cf565b64ffffffffff16610340860152610320850152506103008301526102a08201516040805163b1bf962d60e01b815290516001600160a01b039092169163b1bf962d91600480820192602092909190829003018186803b15801561067d57600080fd5b505afa158015610691573d6000803e3d6000fd5b505050506040513d601f19601f820116820180604052508101906106b591906114b2565b826103600181815250508161026001516001600160a01b03166395d89b416040518163ffffffff1660e01b815260040160006040518083038186803b1580156106fd57600080fd5b505afa158015610711573d6000803e3d6000fd5b505050506040513d6000823e601f3d908101601f191682016040526107399190810190611442565b604080840191909152805160208082019092526000815290830152805161075f90610c52565b60e0870152606086015260c085015260a08401526080830152805161078390610c7d565b1515610140860152151561012085015215156101808401521515610160830152608082015115156101008301526102c08201516107bf90610cb9565b6104008601526103e08501526103c08401526103a08301526001600160a01b038d1615610b8a5781600001518484815181106107f757fe5b6020026020010151600001906001600160a01b031690816001600160a01b0316815250508161026001516001600160a01b0316631da24f3e8e6040518263ffffffff1660e01b815260040161084c91906119d7565b60206040518083038186803b15801561086457600080fd5b505afa158015610878573d6000803e3d6000fd5b505050506040513d601f19601f8201168201806040525081019061089c91906114b2565b8484815181106108a857fe5b60209081029190910181015101526108c08684610e92565b8484815181106108cc57fe5b60209081029190910101519015156040909101526108ea8684610ef4565b15610b8a57816102a001516001600160a01b0316631da24f3e8e6040518263ffffffff1660e01b815260040161092091906119d7565b60206040518083038186803b15801561093857600080fd5b505afa15801561094c573d6000803e3d6000fd5b505050506040513d601f19601f8201168201806040525081019061097091906114b2565b84848151811061097c57fe5b602002602001015160800181815250508161028001516001600160a01b031663c634dfaa8e6040518263ffffffff1660e01b81526004016109bd91906119d7565b60206040518083038186803b1580156109d557600080fd5b505afa1580156109e9573d6000803e3d6000fd5b505050506040513d601f19601f82011682018060405250810190610a0d91906114b2565b848481518110610a1957fe5b602002602001015160a0018181525050838381518110610a3557fe5b602002602001015160a00151600014610b8a578161028001516001600160a01b031663e78c9b3b8e6040518263ffffffff1660e01b8152600401610a7991906119d7565b60206040518083038186803b158015610a9157600080fd5b505afa158015610aa5573d6000803e3d6000fd5b505050506040513d601f19601f82011682018060405250810190610ac991906114b2565b848481518110610ad557fe5b602002602001015160600181815250508161028001516001600160a01b03166379ce6b8c8e6040518263ffffffff1660e01b8152600401610b1691906119d7565b60206040518083038186803b158015610b2e57600080fd5b505afa158015610b42573d6000803e3d6000fd5b505050506040513d601f19601f82011682018060405250810190610b66919061152e565b64ffffffffff16848481518110610b7957fe5b602002602001015160c00181815250505b505060010161032f565b508181866001600160a01b031663b3596f077310f7fc1f91ba351f9c629c5947ad69bd03c05b966040518263ffffffff1660e01b8152600401610bd791906119d7565b60206040518083038186803b158015610bef57600080fd5b505afa158015610c03573d6000803e3d6000fd5b505050506040513d601f19601f82011682018060405250810190610c2791906114b2565b9850985098505050505050509250925092565b7310f7fc1f91ba351f9c629c5947ad69bd03c05b9681565b5161ffff80821692601083901c821692602081901c831692603082901c60ff169260409290921c1690565b51670100000000000000811615159167020000000000000082161515916704000000000000008116151591670800000000000000909116151590565b600080600080846001600160a01b0316637b832f586040518163ffffffff1660e01b815260040160206040518083038186803b158015610cf857600080fd5b505afa158015610d0c573d6000803e3d6000fd5b505050506040513d601f19601f82011682018060405250810190610d3091906114b2565b856001600160a01b03166365614f816040518163ffffffff1660e01b815260040160206040518083038186803b158015610d6957600080fd5b505afa158015610d7d573d6000803e3d6000fd5b505050506040513d601f19601f82011682018060405250810190610da191906114b2565b866001600160a01b0316630bdf953f6040518163ffffffff1660e01b815260040160206040518083038186803b158015610dda57600080fd5b505afa158015610dee573d6000803e3d6000fd5b505050506040513d601f19601f82011682018060405250810190610e1291906114b2565b876001600160a01b031663ccab01a36040518163ffffffff1660e01b815260040160206040518083038186803b158015610e4b57600080fd5b505afa158015610e5f573d6000803e3d6000fd5b505050506040513d601f19601f82011682018060405250810190610e8391906114b2565b93509350935093509193509193565b60006080821060405180604001604052806002815260200161373760f01b81525090610eda5760405162461bcd60e51b8152600401610ed19190611a19565b60405180910390fd5b5050815160016002830281019190911c1615155b92915050565b60006080821060405180604001604052806002815260200161373760f01b81525090610f335760405162461bcd60e51b8152600401610ed19190611a19565b50509051600160029092021c16151590565b6040518060200160405280600081525090565b60405180610420016040528060006001600160a01b031681526020016060815260200160608152602001600081526020016000815260200160008152602001600081526020016000815260200160001515815260200160001515815260200160001515815260200160001515815260200160001515815260200160006001600160801b0316815260200160006001600160801b0316815260200160006001600160801b0316815260200160006001600160801b0316815260200160006001600160801b03168152602001600064ffffffffff16815260200160006001600160a01b0316815260200160006001600160a01b0316815260200160006001600160a01b0316815260200160006001600160a01b03168152602001600081526020016000815260200160008152602001600081526020016000815260200160008152602001600081526020016000815260200160008152602001600081525090565b6040518060e0016040528060006001600160a01b0316815260200160008152602001600015158152602001600081526020016000815260200160008152602001600081525090565b604051806101800160405280611113610f45565b815260006020820181905260408201819052606082018190526080820181905260a0820181905260c0820181905260e082018190526101008201819052610120820181905261014082018190526101609091015290565b8035610eee81611b2b565b8051610eee81611b2b565b600082601f830112611190578081fd5b81516111a361119e82611a51565b611a2a565b915081818352602084019350602083019050838560208402860111156111c857600080fd5b60005b838110156111f2576111dd8783611175565b835260209283019291909101906001016111cb565b5050505092915050565b8035610eee81611b42565b600082601f830112611217578081fd5b815161122561119e82611a71565b9150808252602083016020830185838301111561124157600080fd5b61124c838284611af1565b50505092915050565b600060208284031215611266578081fd5b6112706020611a2a565b9050600061127e8484611388565b9082015292915050565b6000610180828403121561129a578081fd5b6112a5610180611a2a565b905060006112b38484611255565b9082015260206112c58484830161137d565b9082015260406112d78484830161137d565b9082015260606112e98484830161137d565b9082015260806112fb8484830161137d565b9082015260a061130d8484830161137d565b9082015260c061131f84848301611393565b9082015260e061133184848301611175565b9082015261010061134484848301611175565b9082015261012061135784848301611175565b9082015261014061136a84848301611175565b9082015261016061127e8484830161139e565b8051610eee81611b4b565b8051610eee81611b54565b8051610eee81611b5d565b8051610eee81611b66565b6000602082840312156113ba578081fd5b6113c683828401611175565b9392505050565b6000602082840312156113de578081fd5b8082015167ffffffffffffffff8111156113f6578182fd5b61140284828501611180565b949350505050565b6000806040838503121561141c578081fd5b611428848285016111fc565b915060206114388582860161116a565b9150509250929050565b600060208284031215611453578081fd5b8082015167ffffffffffffffff81111561146b578182fd5b61140284828501611207565b60006101808284031215611489578081fd5b6113c683828401611288565b6000602082840312156114a6578081fd5b6113c683828401611255565b6000602082840312156114c3578081fd5b6113c683828401611388565b600080600080608085870312156114e4578182fd5b6114f086838701611388565b9350602061150087828801611388565b935050604061151187828801611388565b925050606061152287828801611393565b91505092959194509250565b60006020828403121561153f578081fd5b6113c683828401611393565b60006113c6838361167c565b60006115638383611939565b505060e00190565b61157481611aab565b82525050565b600061158582611a9e565b61158f8185611aa2565b9350836020820285016115a185611a98565b845b848110156115d957838303885281516115bc848261154b565b9350506115c882611a98565b6020989098019791506001016115a3565b50909695505050505050565b60006115f082611a9e565b6115fa8185611aa2565b935061160583611a98565b825b8281101561163157815161161b8782611557565b96505061162782611a98565b9150600101611607565b5093949350505050565b61157481611ab6565b600061164f82611a9e565b6116598185611aa2565b9350611669818560208601611af1565b61167281611b21565b9093019392505050565b8051600090610420840190611691858261156b565b50602083015184820360208601526116a98282611644565b915050604083015184820360408601526116c38282611644565b91505060608301516116d860608601826119c5565b5060808301516116eb60808601826119c5565b5060a08301516116fe60a08601826119c5565b5060c083015161171160c08601826119c5565b5060e083015161172460e08601826119c5565b5061010083015161173961010086018261163b565b5061012083015161174e61012086018261163b565b5061014083015161176361014086018261163b565b5061016083015161177861016086018261163b565b5061018083015161178d61018086018261163b565b506101a08301516117a26101a08601826119bc565b506101c08301516117b76101c08601826119bc565b506101e08301516117cc6101e08601826119bc565b506102008301516117e16102008601826119bc565b506102208301516117f66102208601826119bc565b5061024083015161180b6102408601826119ce565b5061026083015161182061026086018261156b565b5061028083015161183561028086018261156b565b506102a083015161184a6102a086018261156b565b506102c083015161185f6102c086018261156b565b506102e08301516118746102e08601826119c5565b506103008301516118896103008601826119c5565b5061032083015161189e6103208601826119c5565b506103408301516118b36103408601826119c5565b506103608301516118c86103608601826119c5565b506103808301516118dd6103808601826119c5565b506103a08301516118f26103a08601826119c5565b506103c08301516119076103c08601826119c5565b506103e083015161191c6103e08601826119c5565b506104008301516119316104008601826119c5565b509392505050565b8051611945838261156b565b50602081015161195860208401826119c5565b50604081015161196b604084018261163b565b50606081015161197e60608401826119c5565b50608081015161199160808401826119c5565b5060a08101516119a460a08401826119c5565b5060c08101516119b760c08401826119c5565b505050565b61157481611ac6565b61157481611ade565b61157481611ae1565b60208101610eee828461156b565b606080825281016119f6818661157a565b90508181036020830152611a0a81856115e5565b905061140260408301846119c5565b602080825281016113c68184611644565b60405181810167ffffffffffffffff81118282101715611a4957600080fd5b604052919050565b600067ffffffffffffffff821115611a67578081fd5b5060209081020190565b600067ffffffffffffffff821115611a87578081fd5b506020601f91909101601f19160190565b60200190565b5190565b90815260200190565b6000610eee82611ad2565b151590565b6000610eee82611aab565b6001600160801b031690565b6001600160a01b031690565b90565b64ffffffffff1690565b60ff1690565b60005b83811015611b0c578181015183820152602001611af4565b83811115611b1b576000848401525b50505050565b601f01601f191690565b611b3481611aab565b8114611b3f57600080fd5b50565b611b3481611abb565b611b3481611ac6565b611b3481611ade565b611b3481611ae1565b611b3481611aeb56fea2646970667358221220f765c0dfb7914f6db7a4859e0cc4b6c2178c2417da2551db8d344515a7da66b264736f6c634300060c0033",
    "linkReferences": {}
  },
  "methodIdentifiers": {
    "MOCK_USD_ADDRESS()": "b8c0a5b1",
    "getReservesData(address,address)": "87e40db7"
  },
  "id": 35
}