{
  "abi": [
    {
      "inputs": [
        {
          "internalType": "contract ILendingPoolAddressesProvider",
          "name": "addressesProvider",
          "type": "address"
        },
        {
          "internalType": "contract IUniswapV2Router02",
          "name": "uniswapRouter",
          "type": "address"
        },
        {
          "internalType": "address",
          "name": "wethAddress",
          "type": "address"
        }
      ],
      "stateMutability": "nonpayable",
      "type": "constructor"
    },
    {
      "anonymous": false,
      "inputs": [
        {
          "indexed": true,
          "internalType": "address",
          "name": "previousOwner",
          "type": "address"
        },
        {
          "indexed": true,
          "internalType": "address",
          "name": "newOwner",
          "type": "address"
        }
      ],
      "name": "OwnershipTransferred",
      "type": "event"
    },
    {
      "anonymous": false,
      "inputs": [
        {
          "indexed": false,
          "internalType": "address",
          "name": "fromAsset",
          "type": "address"
        },
        {
          "indexed": false,
          "internalType": "address",
          "name": "toAsset",
          "type": "address"
        },
        {
          "indexed": false,
          "internalType": "uint256",
          "name": "fromAmount",
          "type": "uint256"
        },
        {
          "indexed": false,
          "internalType": "uint256",
          "name": "receivedAmount",
          "type": "uint256"
        }
      ],
      "name": "Swapped",
      "type": "event"
    },
    {
      "inputs": [],
      "name": "ADDRESSES_PROVIDER",
      "outputs": [
        {
          "internalType": "contract ILendingPoolAddressesProvider",
          "name": "",
          "type": "address"
        }
      ],
      "stateMutability": "view",
      "type": "function"
    },
    {
      "inputs": [],
      "name": "FLASHLOAN_PREMIUM_TOTAL",
      "outputs": [
        {
          "internalType": "uint256",
          "name": "",
          "type": "uint256"
        }
      ],
      "stateMutability": "view",
      "type": "function"
    },
    {
      "inputs": [],
      "name": "LENDING_POOL",
      "outputs": [
        {
          "internalType": "contract ILendingPool",
          "name": "",
          "type": "address"
        }
      ],
      "stateMutability": "view",
      "type": "function"
    },
    {
      "inputs": [],
      "name": "MAX_SLIPPAGE_PERCENT",
      "outputs": [
        {
          "internalType": "uint256",
          "name": "",
          "type": "uint256"
        }
      ],
      "stateMutability": "view",
      "type": "function"
    },
    {
      "inputs": [],
      "name": "ORACLE",
      "outputs": [
        {
          "internalType": "contract IPriceOracleGetter",
          "name": "",
          "type": "address"
        }
      ],
      "stateMutability": "view",
      "type": "function"
    },
    {
      "inputs": [],
      "name": "UNISWAP_ROUTER",
      "outputs": [
        {
          "internalType": "contract IUniswapV2Router02",
          "name": "",
          "type": "address"
        }
      ],
      "stateMutability": "view",
      "type": "function"
    },
    {
      "inputs": [],
      "name": "USD_ADDRESS",
      "outputs": [
        {
          "internalType": "address",
          "name": "",
          "type": "address"
        }
      ],
      "stateMutability": "view",
      "type": "function"
    },
    {
      "inputs": [],
      "name": "WETH_ADDRESS",
      "outputs": [
        {
          "internalType": "address",
          "name": "",
          "type": "address"
        }
      ],
      "stateMutability": "view",
      "type": "function"
    },
    {
      "inputs": [
        {
          "internalType": "address[]",
          "name": "assets",
          "type": "address[]"
        },
        {
          "internalType": "uint256[]",
          "name": "amounts",
          "type": "uint256[]"
        },
        {
          "internalType": "uint256[]",
          "name": "premiums",
          "type": "uint256[]"
        },
        {
          "internalType": "address",
          "name": "initiator",
          "type": "address"
        },
        {
          "internalType": "bytes",
          "name": "params",
          "type": "bytes"
        }
      ],
      "name": "executeOperation",
      "outputs": [
        {
          "internalType": "bool",
          "name": "",
          "type": "bool"
        }
      ],
      "stateMutability": "nonpayable",
      "type": "function"
    },
    {
      "inputs": [
        {
          "internalType": "uint256",
          "name": "amountOut",
          "type": "uint256"
        },
        {
          "internalType": "address",
          "name": "reserveIn",
          "type": "address"
        },
        {
          "internalType": "address",
          "name": "reserveOut",
          "type": "address"
        }
      ],
      "name": "getAmountsIn",
      "outputs": [
        {
          "internalType": "uint256",
          "name": "",
          "type": "uint256"
        },
        {
          "internalType": "uint256",
          "name": "",
          "type": "uint256"
        },
        {
          "internalType": "uint256",
          "name": "",
          "type": "uint256"
        },
        {
          "internalType": "uint256",
          "name": "",
          "type": "uint256"
        },
        {
          "internalType": "address[]",
          "name": "",
          "type": "address[]"
        }
      ],
      "stateMutability": "view",
      "type": "function"
    },
    {
      "inputs": [
        {
          "internalType": "uint256",
          "name": "amountIn",
          "type": "uint256"
        },
        {
          "internalType": "address",
          "name": "reserveIn",
          "type": "address"
        },
        {
          "internalType": "address",
          "name": "reserveOut",
          "type": "address"
        }
      ],
      "name": "getAmountsOut",
      "outputs": [
        {
          "internalType": "uint256",
          "name": "",
          "type": "uint256"
        },
        {
          "internalType": "uint256",
          "name": "",
          "type": "uint256"
        },
        {
          "internalType": "uint256",
          "name": "",
          "type": "uint256"
        },
        {
          "internalType": "uint256",
          "name": "",
          "type": "uint256"
        },
        {
          "internalType": "address[]",
          "name": "",
          "type": "address[]"
        }
      ],
      "stateMutability": "view",
      "type": "function"
    },
    {
      "inputs": [],
      "name": "owner",
      "outputs": [
        {
          "internalType": "address",
          "name": "",
          "type": "address"
        }
      ],
      "stateMutability": "view",
      "type": "function"
    },
    {
      "inputs": [],
      "name": "renounceOwnership",
      "outputs": [],
      "stateMutability": "nonpayable",
      "type": "function"
    },
    {
      "inputs": [
        {
          "internalType": "contract IERC20",
          "name": "token",
          "type": "address"
        }
      ],
      "name": "rescueTokens",
      "outputs": [],
      "stateMutability": "nonpayable",
      "type": "function"
    },
    {
      "inputs": [
        {
          "internalType": "address",
          "name": "newOwner",
          "type": "address"
        }
      ],
      "name": "transferOwnership",
      "outputs": [],
      "stateMutability": "nonpayable",
      "type": "function"
    }
  ],
  "bytecode": {
    "object": "0x6101206040523480156200001257600080fd5b50604051620030593803806200305983398101604081905262000035916200021e565b82828282806001600160a01b03166080816001600160a01b031660601b81525050806001600160a01b0316630261bf8b6040518163ffffffff1660e01b815260040160206040518083038186803b1580156200009057600080fd5b505afa158015620000a5573d6000803e3d6000fd5b505050506040513d601f19601f82011682018060405250810190620000cb9190620001f7565b60601b6001600160601b03191660a052506000620000e8620001d3565b600080546001600160a01b0319166001600160a01b0383169081178255604051929350917f8be0079c531659141344cd1fd0a4f28419497f9722a3daafe3b4186f6b6457e0908290a350826001600160a01b031663fca513a86040518163ffffffff1660e01b815260040160206040518083038186803b1580156200016c57600080fd5b505afa15801562000181573d6000803e3d6000fd5b505050506040513d601f19601f82011682018060405250810190620001a79190620001f7565b6001600160601b0319606091821b811660e05292811b8316610100521b1660c05250620002bb92505050565b3390565b8051620001e48162000296565b92915050565b8051620001e481620002b0565b60006020828403121562000209578081fd5b6200021783828401620001d7565b9392505050565b60008060006060848603121562000233578182fd5b6200024185838601620001ea565b925060206200025386828701620001ea565b92505060406200026686828701620001d7565b9150509250925092565b6000620001e4826200028a565b6000620001e48262000270565b6001600160a01b031690565b620002a18162000270565b8114620002ad57600080fd5b50565b620002a1816200027d565b60805160601c60a05160601c60c05160601c60e05160601c6101005160601c612cf062000369600039806106305280610f755280611069528061156b52806115a052806117345280611b725280611c635250806103915280611dad52508061033e5280610e4f5280610e8c5280610ef6528061161e5280611a4c5280611a895280611af352508061044e52806105ab52806108d052806109645280610ba75250806103625250612cf06000f3fe608060405234801561001057600080fd5b50600436106100f45760003560e01c80638da5cb5b11610097578063baf7fa9911610066578063baf7fa99146101a6578063cdf58cd6146101ca578063d8264920146101dd578063f2fde38b146101e5576100f4565b80638da5cb5b1461016e578063920f5c84146101765780639d1211bf14610196578063b4dcfc771461019e576100f4565b8063074b2e43116100d3578063074b2e431461014157806332e4b2861461015657806338013f021461015e578063715018a614610166576100f4565b8062ae3bf8146100f9578063040141e51461010e5780630542975c1461012c575b600080fd5b61010c6101073660046124b7565b6101f8565b005b61011661033c565b604051610123919061294c565b60405180910390f35b610134610360565b6040516101239190612a2d565b610149610384565b6040516101239190612afc565b610149610389565b61013461038f565b61010c6103b3565b610116610432565b610189610184366004612383565b610441565b6040516101239190612a1f565b610116610591565b6101346105a9565b6101b96101b43660046124f1565b6105cd565b604051610123959493929190612b73565b6101b96101d83660046124f1565b610613565b61013461062e565b61010c6101f33660046122f3565b610652565b610200610708565b6000546001600160a01b039081169116146102365760405162461bcd60e51b815260040161022d90612aac565b60405180910390fd5b806001600160a01b031663a9059cbb61024d610432565b6040516370a0823160e01b81526001600160a01b038516906370a082319061027990309060040161294c565b60206040518083038186803b15801561029157600080fd5b505afa1580156102a5573d6000803e3d6000fd5b505050506040513d601f19601f820116820180604052508101906102c991906124d4565b6040518363ffffffff1660e01b81526004016102e6929190612a04565b602060405180830381600087803b15801561030057600080fd5b505af1158015610314573d6000803e3d6000fd5b505050506040513d601f19601f82011682018060405250810190610338919061249a565b5050565b7f000000000000000000000000000000000000000000000000000000000000000081565b7f000000000000000000000000000000000000000000000000000000000000000081565b600981565b610bb881565b7f000000000000000000000000000000000000000000000000000000000000000081565b6103bb610708565b6000546001600160a01b039081169116146103e85760405162461bcd60e51b815260040161022d90612aac565b600080546040516001600160a01b03909116907f8be0079c531659141344cd1fd0a4f28419497f9722a3daafe3b4186f6b6457e0908390a3600080546001600160a01b0319169055565b6000546001600160a01b031690565b6000336001600160a01b037f0000000000000000000000000000000000000000000000000000000000000000161461048b5760405162461bcd60e51b815260040161022d90612a4c565b610493612101565b6104d284848080601f01602080910402602001604051908101604052809392919081815260200183838082843760009201919091525061070c92505050565b905060018a14801561051a575080602001516001600160a01b03168b8b60008181106104fa57fe5b905060200201602081019061050f91906122f3565b6001600160a01b0316145b6105365760405162461bcd60e51b815260040161022d90612abc565b610580816000015182602001518360400151846060015185608001518e8e600081811061055f57fe5b905060200201358d8d600081811061057357fe5b905060200201358c610772565b5060019a9950505050505050505050565b7310f7fc1f91ba351f9c629c5947ad69bd03c05b9681565b7f000000000000000000000000000000000000000000000000000000000000000081565b60008060008060606105dd61212f565b6105e888888b610cbd565b8051602082015160408301516060840151608090940151929d919c509a509198509650945050505050565b600080600080606061062361212f565b6105e888888b61127a565b7f000000000000000000000000000000000000000000000000000000000000000081565b61065a610708565b6000546001600160a01b039081169116146106875760405162461bcd60e51b815260040161022d90612aac565b6001600160a01b0381166106ad5760405162461bcd60e51b815260040161022d90612a5c565b600080546040516001600160a01b03808516939216917f8be0079c531659141344cd1fd0a4f28419497f9722a3daafe3b4186f6b6457e091a3600080546001600160a01b0319166001600160a01b0392909216919091179055565b3390565b610714612101565b6000806000806000868060200190518101906107309190612310565b6040805160a0810182526001600160a01b0396871681529486166020860152929094169183019190915260608201529015156080820152979650505050505050565b61077a61215e565b6040516370a0823160e01b81526001600160a01b038a16906370a08231906107a690309060040161294c565b60206040518083038186803b1580156107be57600080fd5b505afa1580156107d2573d6000803e3d6000fd5b505050506040513d601f19601f820116820180604052508101906107f691906124d4565b60408201526001600160a01b038981169089161461089d576040516370a0823160e01b81526001600160a01b038916906370a082319061083a90309060040161294c565b60206040518083038186803b15801561085257600080fd5b505afa158015610866573d6000803e3d6000fd5b505050506040513d601f19601f8201168201806040525081019061088a91906124d4565b8082526108979085611454565b60e08201525b6108a7848461149f565b608082015260405163095ea7b360e01b81526001600160a01b0389169063095ea7b3906108fa907f0000000000000000000000000000000000000000000000000000000000000000908a90600401612a04565b602060405180830381600087803b15801561091457600080fd5b505af1158015610928573d6000803e3d6000fd5b505050506040513d601f19601f8201168201806040525081019061094c919061249a565b50604051631182c49b60e31b81526001600160a01b037f00000000000000000000000000000000000000000000000000000000000000001690638c1624d8906109a4908c908c908c908c906000908190600401612975565b600060405180830381600087803b1580156109be57600080fd5b505af11580156109d2573d6000803e3d6000fd5b50506040516370a0823160e01b8152600092506001600160a01b038c1691506370a0823190610a0590309060040161294c565b60206040518083038186803b158015610a1d57600080fd5b505afa158015610a31573d6000803e3d6000fd5b505050506040513d601f19601f82011682018060405250810190610a5591906124d4565b9050610a6e82604001518261145490919063ffffffff16565b60608301526001600160a01b038a8116908a1614610b69576040516370a0823160e01b81526000906001600160a01b038b16906370a0823190610ab590309060040161294c565b60206040518083038186803b158015610acd57600080fd5b505afa158015610ae1573d6000803e3d6000fd5b505050506040513d601f19601f82011682018060405250810190610b0591906124d4565b9050610b1e8360e001518261145490919063ffffffff16565b6020840181905260608401516080850151610b49928e928e929091610b439190611454565b8b6114c4565b60a084018190526060840151610b5e91611454565b60c084015250610b7e565b6060820151610b789085611454565b60c08301525b608082015160405163095ea7b360e01b81526001600160a01b038b169163095ea7b391610bcf917f000000000000000000000000000000000000000000000000000000000000000091600401612a04565b602060405180830381600087803b158015610be957600080fd5b505af1158015610bfd573d6000803e3d6000fd5b505050506040513d601f19601f82011682018060405250810190610c21919061249a565b5060c082015115610cb15760c082015160405163a9059cbb60e01b81526001600160a01b038c169163a9059cbb91610c5d918791600401612a04565b602060405180830381600087803b158015610c7757600080fd5b505af1158015610c8b573d6000803e3d6000fd5b505050506040513d601f19601f82011682018060405250810190610caf919061249a565b505b50505050505050505050565b610cc561212f565b6000610ce8610ce1612710610cdb866009611859565b90611893565b8490611454565b9050836001600160a01b0316856001600160a01b03161415610db4576000610d0f866118d5565b60408051600180825281830190925291925060609190602080830190803683370190505090508681600081518110610d4357fe5b6001600160a01b039092166020928302919091018201526040805160a08101909152848152908101610d8187610cdb87670de0b6b3a7640000611859565b8152602001610d91898886611951565b8152602001610da1898686611951565b8152602001828152509350505050611273565b60408051600280825260608083018452926020830190803683370190505090508581600081518110610de257fe5b60200260200101906001600160a01b031690816001600160a01b0316815250508481600181518110610e1057fe5b6001600160a01b0392909216602092830291909101820152604080516003808252608082019092526060928392839291820183803683370190505090507f00000000000000000000000000000000000000000000000000000000000000006001600160a01b0316896001600160a01b031614158015610ec157507f00000000000000000000000000000000000000000000000000000000000000006001600160a01b0316886001600160a01b031614155b1561102d578881600081518110610ed457fe5b60200260200101906001600160a01b031690816001600160a01b0316815250507f000000000000000000000000000000000000000000000000000000000000000081600181518110610f2257fe5b60200260200101906001600160a01b031690816001600160a01b0316815250508781600281518110610f5057fe5b6001600160a01b03928316602091820292909201015260405163d06ca61f60e01b81527f00000000000000000000000000000000000000000000000000000000000000009091169063d06ca61f90610fae9088908590600401612b0a565b60006040518083038186803b158015610fc657600080fd5b505afa925050508015610ffb57506040513d6000823e601f3d908101601f19168201604052610ff89190810190612465565b60015b61102557604080516003808252608082019092529060208201606080368337019050509150611028565b91505b61104f565b6040805160038082526080820190925290602082016060803683370190505091505b60405163d06ca61f60e01b81526000906001600160a01b037f0000000000000000000000000000000000000000000000000000000000000000169063d06ca61f906110a09089908990600401612b0a565b60006040518083038186803b1580156110b857600080fd5b505afa9250505080156110ed57506040513d6000823e601f3d908101601f191682016040526110ea9190810190612465565b60015b61112d5760408051600280825260608201835290916020830190803683370190505093508260028151811061111e57fe5b60200260200101519050611193565b8094508460018151811061113d57fe5b60200260200101518460028151811061115257fe5b602002602001015111611179578460018151811061116c57fe5b602002602001015161118f565b8360028151811061118657fe5b60200260200101515b9150505b600061119e8b6118d5565b905060006111ab8b6118d5565b905060006111e06111c085600a86900a611859565b610cdb600a85900a6111da8d670de0b6b3a7640000611859565b90611859565b90506040518060a001604052808581526020018281526020016112048f8e87611951565b81526020016112148e8786611951565b81526020018515611247578860018151811061122c57fe5b602002602001015186146112405786611242565b895b611265565b60408051600280825260608201835290916020830190803683375050505b905299505050505050505050505b9392505050565b61128261212f565b826001600160a01b0316846001600160a01b031614156113585760006112b96112b2612710610cdb866009611859565b849061149f565b905060006112c6866118d5565b604080516001808252818301909252919250606091906020808301908036833701905050905086816000815181106112fa57fe5b6001600160a01b039092166020928302919091018201526040805160a0810190915284815290810161133885610cdb89670de0b6b3a7640000611859565b8152602001611348898686611951565b8152602001610da1898886611951565b6060806113668686866119aa565b9150915060006113c061139d612710610cdb60098760008151811061138757fe5b602002602001015161185990919063ffffffff16565b846000815181106113aa57fe5b602002602001015161149f90919063ffffffff16565b905060006113cd886118d5565b905060006113da886118d5565b905060006114096113ef85600a85900a611859565b610cdb600a86900a6111da8c670de0b6b3a7640000611859565b90506040518060a0016040528085815260200182815260200161142d8c8787611951565b815260200161143d8b8b86611951565b815260200195909552509298975050505050505050565b600061149683836040518060400160405280601e81526020017f536166654d6174683a207375627472616374696f6e206f766572666c6f770000815250611d67565b90505b92915050565b6000828201838110156114965760405162461bcd60e51b815260040161022d90612a6c565b6000806114d0876118d5565b905060006114dd876118d5565b905060006114ea89611d93565b905060006114f789611d93565b9050600061153b61150c612710610bb861149f565b61153561151d86600a89900a611859565b610cdb61152e87600a8c900a611859565b8d90611859565b90611e32565b905080891061155c5760405162461bcd60e51b815260040161022d90612a8c565b6115916001600160a01b038c167f00000000000000000000000000000000000000000000000000000000000000006000611ea4565b6115c56001600160a01b038c167f00000000000000000000000000000000000000000000000000000000000000008b611ea4565b6060871561169d576040805160038082526080820190925290602082016060803683370190505090508b816000815181106115fc57fe5b60200260200101906001600160a01b031690816001600160a01b0316815250507f00000000000000000000000000000000000000000000000000000000000000008160018151811061164a57fe5b60200260200101906001600160a01b031690816001600160a01b0316815250508a8160028151811061167857fe5b60200260200101906001600160a01b031690816001600160a01b03168152505061171a565b60408051600280825260608201835290916020830190803683370190505090508b816000815181106116cb57fe5b60200260200101906001600160a01b031690816001600160a01b0316815250508a816001815181106116f957fe5b60200260200101906001600160a01b031690816001600160a01b0316815250505b604051634401edf760e11b81526060906001600160a01b037f00000000000000000000000000000000000000000000000000000000000000001690638803dbee90611771908d908f90879030904290600401612b2a565b600060405180830381600087803b15801561178b57600080fd5b505af115801561179f573d6000803e3d6000fd5b505050506040513d6000823e601f3d908101601f191682016040526117c79190810190612465565b90507fa078c4190abe07940190effc1846be0ccf03ad6007bc9e93f9697d0b460befbb8d8d836000815181106117f957fe5b60200260200101518460018651038151811061181157fe5b602002602001015160405161182994939291906129cf565b60405180910390a18060008151811061183e57fe5b60200260200101519750505050505050505b95945050505050565b60008261186857506000611499565b8282028284828161187557fe5b04146114965760405162461bcd60e51b815260040161022d90612a9c565b600061149683836040518060400160405280601a81526020017f536166654d6174683a206469766973696f6e206279207a65726f000000000000815250611fa3565b6000816001600160a01b031663313ce5676040518163ffffffff1660e01b815260040160206040518083038186803b15801561191057600080fd5b505afa158015611924573d6000803e3d6000fd5b505050506040513d601f19601f82011682018060405250810190611948919061253c565b60ff1692915050565b6000806119717310f7fc1f91ba351f9c629c5947ad69bd03c05b96611d93565b9050600061197e86611d93565b90506119a0670de0b6b3a7640000610cdb846111da600a89900a838b88611859565b9695505050505050565b60408051600280825260608281019093528291829181602001602082028036833701905050905085816000815181106119df57fe5b60200260200101906001600160a01b031690816001600160a01b0316815250508481600181518110611a0d57fe5b6001600160a01b0392909216602092830291909101820152604080516003808252608082019092526060928392839291820183803683370190505090507f00000000000000000000000000000000000000000000000000000000000000006001600160a01b0316896001600160a01b031614158015611abe57507f00000000000000000000000000000000000000000000000000000000000000006001600160a01b0316886001600160a01b031614155b15611c2a578881600081518110611ad157fe5b60200260200101906001600160a01b031690816001600160a01b0316815250507f000000000000000000000000000000000000000000000000000000000000000081600181518110611b1f57fe5b60200260200101906001600160a01b031690816001600160a01b0316815250508781600281518110611b4d57fe5b6001600160a01b0392831660209182029290920101526040516307c0329d60e21b81527f000000000000000000000000000000000000000000000000000000000000000090911690631f00ca7490611bab908a908590600401612b0a565b60006040518083038186803b158015611bc357600080fd5b505afa925050508015611bf857506040513d6000823e601f3d908101601f19168201604052611bf59190810190612465565b60015b611c2257604080516003808252608082019092529060208201606080368337019050509150611c25565b91505b611c4c565b6040805160038082526080820190925290602082016060803683370190505091505b6040516307c0329d60e21b81526001600160a01b037f00000000000000000000000000000000000000000000000000000000000000001690631f00ca7490611c9a908a908890600401612b0a565b60006040518083038186803b158015611cb257600080fd5b505afa925050508015611ce757506040513d6000823e601f3d908101601f19168201604052611ce49190810190612465565b60015b611cf8579094509250611d5f915050565b80935083600081518110611d0857fe5b602002602001015183600081518110611d1d57fe5b6020026020010151108015611d47575082600081518110611d3a57fe5b6020026020010151600014155b611d52578385611d55565b82825b9650965050505050505b935093915050565b60008184841115611d8b5760405162461bcd60e51b815260040161022d9190612a3b565b505050900390565b60405163b3596f0760e01b81526000906001600160a01b037f0000000000000000000000000000000000000000000000000000000000000000169063b3596f0790611de290859060040161294c565b60206040518083038186803b158015611dfa57600080fd5b505afa158015611e0e573d6000803e3d6000fd5b505050506040513d601f19601f8201168201806040525081019061149991906124d4565b6000821580611e3f575081155b15611e4c57506000611499565b816113881981611e5857fe5b0483111560405180604001604052806002815260200161068760f31b81525090611e955760405162461bcd60e51b815260040161022d9190612a3b565b50506127109102611388010490565b801580611f2c5750604051636eb1769f60e11b81526001600160a01b0384169063dd62ed3e90611eda903090869060040161295a565b60206040518083038186803b158015611ef257600080fd5b505afa158015611f06573d6000803e3d6000fd5b505050506040513d601f19601f82011682018060405250810190611f2a91906124d4565b155b611f485760405162461bcd60e51b815260040161022d90612adc565b611f9e8363095ea7b360e01b8484604051602401611f67929190612a04565b60408051601f198184030181529190526020810180516001600160e01b03166001600160e01b031990931692909217909152611fda565b505050565b60008183611fc45760405162461bcd60e51b815260040161022d9190612a3b565b506000838581611fd057fe5b0495945050505050565b611fec826001600160a01b03166120c5565b6120085760405162461bcd60e51b815260040161022d90612aec565b60006060836001600160a01b0316836040516120249190612940565b6000604051808303816000865af19150503d8060008114612061576040519150601f19603f3d011682016040523d82523d6000602084013e612066565b606091505b5091509150816120885760405162461bcd60e51b815260040161022d90612a7c565b8051156120bf57808060200190518101906120a3919061249a565b6120bf5760405162461bcd60e51b815260040161022d90612acc565b50505050565b6000813f7fc5d2460186f7233c927e7db2dcc703c0e500b653ca82273b7bfad8045d85a4708181148015906120f957508115155b949350505050565b6040805160a08101825260008082526020820181905291810182905260608101829052608081019190915290565b6040518060a0016040528060008152602001600081526020016000815260200160008152602001606081525090565b60405180610100016040528060008152602001600081526020016000815260200160008152602001600081526020016000815260200160008152602001600081525090565b803561149981612c7f565b805161149981612c7f565b60008083601f8401126121ca578182fd5b50813567ffffffffffffffff8111156121e1578182fd5b6020830191508360208202830111156121f957600080fd5b9250929050565b600082601f830112612210578081fd5b815161222361221e82612be1565b612bba565b9150818183526020840193506020830190508385602084028601111561224857600080fd5b60005b838110156122725761225d87836122dd565b8352602092830192919091019060010161224b565b5050505092915050565b805161149981612c96565b60008083601f840112612298578182fd5b50813567ffffffffffffffff8111156122af578182fd5b6020830191508360018202830111156121f957600080fd5b803561149981612c9f565b803561149981612ca8565b805161149981612ca8565b805161149981612cb1565b600060208284031215612304578081fd5b611496838284016121a3565b600080600080600060a08688031215612327578081fd5b612333878288016121ae565b94506020612343888289016121ae565b9450506040612354888289016121ae565b9350506060612365888289016122dd565b92505060806123768882890161227c565b9150509295509295909350565b600080600080600080600080600060a08a8c0312156123a0578384fd5b838a013567ffffffffffffffff8111156123b8578485fd5b6123c48c828d016121b9565b995099505060208a013567ffffffffffffffff8111156123e2578485fd5b6123ee8c828d016121b9565b975097505060408a013567ffffffffffffffff81111561240c578485fd5b6124188c828d016121b9565b9550955050606061242b8c828d016121a3565b93505060808a013567ffffffffffffffff811115612447578283fd5b6124538c828d01612287565b92509250509295985092959850929598565b600060208284031215612476578081fd5b8082015167ffffffffffffffff81111561248e578182fd5b6120f984828501612200565b6000602082840312156124ab578081fd5b6114968382840161227c565b6000602082840312156124c8578081fd5b611496838284016122c7565b6000602082840312156124e5578081fd5b611496838284016122dd565b600080600060608486031215612505578283fd5b612511858486016122d2565b92506020612521868287016121a3565b9250506040612532868287016121a3565b9150509250925092565b60006020828403121561254d578081fd5b611496838284016122e8565b6000612565838361256d565b505060200190565b61257681612c19565b82525050565b600061258782612c07565b6125918185612c0b565b935061259c83612c01565b825b828110156125c85781516125b28782612559565b9650506125be82612c01565b915060010161259e565b5093949350505050565b61257681612c24565b60006125e682612c07565b6125f08185612c14565b9350612600818560208601612c49565b9290920192915050565b61257681612c29565b600061261e82612c07565b6126288185612c0b565b9350612638818560208601612c49565b61264181612c75565b9093019392505050565b6000612658601b83612c0b565b7f43414c4c45525f4d5553545f42455f4c454e44494e475f504f4f4c000000000091810191909152602001919050565b6000612695602683612c0b565b7f4f776e61626c653a206e6577206f776e657220697320746865207a65726f2061918101919091526564647265737360d01b6020820152604001919050565b60006126e1601b83612c0b565b7f536166654d6174683a206164646974696f6e206f766572666c6f77000000000091810191909152602001919050565b600061271e602083612c0b565b7f5361666545524332303a206c6f772d6c6576656c2063616c6c206661696c656491810191909152602001919050565b600061275b602383612c0b565b7f6d6178416d6f756e74546f5377617020657863656564206d617820736c697070918101919091526261676560e81b6020820152604001919050565b60006127a4602183612c0b565b7f536166654d6174683a206d756c7469706c69636174696f6e206f766572666c6f91810191909152607760f81b6020820152604001919050565b60006127eb602083612c0b565b7f4f776e61626c653a2063616c6c6572206973206e6f7420746865206f776e657291810191909152602001919050565b6000612828601383612c0b565b72494e434f4e53495354454e545f504152414d5360681b91810191909152602001919050565b600061285b602a83612c0b565b7f5361666545524332303a204552433230206f7065726174696f6e20646964206e91810191909152691bdd081cdd58d8d9595960b21b6020820152604001919050565b60006128ab603683612c0b565b7f5361666545524332303a20617070726f76652066726f6d206e6f6e2d7a65726f918101919091527520746f206e6f6e2d7a65726f20616c6c6f77616e636560501b6020820152604001919050565b6000612907601f83612c0b565b7f5361666545524332303a2063616c6c20746f206e6f6e2d636f6e74726163740091810191909152602001919050565b61257681612c40565b600061127382846125db565b60208101611499828461256d565b60408101612968828561256d565b611273602083018461256d565b60c08101612983828961256d565b612990602083018861256d565b61299d604083018761256d565b6129aa6060830186612937565b6129b760808301856125d2565b6129c460a08301846125d2565b979650505050505050565b608081016129dd828761256d565b6129ea602083018661256d565b6129f76040830185612937565b6118506060830184612937565b60408101612a12828561256d565b6112736020830184612937565b6020810161149982846125d2565b60208101611499828461260a565b602080825281016114968184612613565b602080825281016114998161264b565b6020808252810161149981612688565b60208082528101611499816126d4565b6020808252810161149981612711565b602080825281016114998161274e565b6020808252810161149981612797565b60208082528101611499816127de565b602080825281016114998161281b565b602080825281016114998161284e565b602080825281016114998161289e565b60208082528101611499816128fa565b602081016114998284612937565b60408101612b188285612937565b81810360208301526120f9818461257c565b60a08101612b388288612937565b612b456020830187612937565b8181036040830152612b57818661257c565b9050612b66606083018561256d565b6119a06080830184612937565b60a08101612b818288612937565b612b8e6020830187612937565b612b9b6040830186612937565b612ba86060830185612937565b81810360808301526129c4818461257c565b60405181810167ffffffffffffffff81118282101715612bd957600080fd5b604052919050565b600067ffffffffffffffff821115612bf7578081fd5b5060209081020190565b60200190565b5190565b90815260200190565b919050565b600061149982612c34565b151590565b600061149982612c19565b6001600160a01b031690565b90565b60ff1690565b60005b83811015612c64578181015183820152602001612c4c565b838111156120bf5750506000910152565b601f01601f191690565b612c8881612c19565b8114612c9357600080fd5b50565b612c8881612c24565b612c8881612c29565b612c8881612c40565b612c8881612c4356fea26469706673582212206d38163b1c9b432fa898631a4351ac80f8bedeb6a58cf4882086e363d525afb064736f6c634300060c0033",
    "linkReferences": {}
  },
  "methodIdentifiers": {
    "ADDRESSES_PROVIDER()": "0542975c",
    "FLASHLOAN_PREMIUM_TOTAL()": "074b2e43",
    "LENDING_POOL()": "b4dcfc77",
    "MAX_SLIPPAGE_PERCENT()": "32e4b286",
    "ORACLE()": "38013f02",
    "UNISWAP_ROUTER()": "d8264920",
    "USD_ADDRESS()": "9d1211bf",
    "WETH_ADDRESS()": "040141e5",
    "executeOperation(address[],uint256[],uint256[],address,bytes)": "920f5c84",
    "getAmountsIn(uint256,address,address)": "cdf58cd6",
    "getAmountsOut(uint256,address,address)": "baf7fa99",
    "owner()": "8da5cb5b",
    "renounceOwnership()": "715018a6",
    "rescueTokens(address)": "00ae3bf8",
    "transferOwnership(address)": "f2fde38b"
  },
  "id": 1
}