{
	"contracts/protocol/configuration/LendingPoolAddressesProviderRegistry.sol": {
		"LendingPoolAddressesProviderRegistry": {
			"abi": [
				{
					"anonymous": false,
					"inputs": [
						{
							"indexed": true,
							"internalType": "address",
							"name": "newAddress",
							"type": "address"
						}
					],
					"name": "AddressesProviderRegistered",
					"type": "event"
				},
				{
					"anonymous": false,
					"inputs": [
						{
							"indexed": true,
							"internalType": "address",
							"name": "newAddress",
							"type": "address"
						}
					],
					"name": "AddressesProviderUnregistered",
					"type": "event"
				},
				{
					"anonymous": false,
					"inputs": [
						{
							"indexed": true,
							"internalType": "address",
							"name": "previousOwner",
							"type": "address"
						},
						{
							"indexed": true,
							"internalType": "address",
							"name": "newOwner",
							"type": "address"
						}
					],
					"name": "OwnershipTransferred",
					"type": "event"
				},
				{
					"inputs": [
						{
							"internalType": "address",
							"name": "addressesProvider",
							"type": "address"
						}
					],
					"name": "getAddressesProviderIdByAddress",
					"outputs": [
						{
							"internalType": "uint256",
							"name": "",
							"type": "uint256"
						}
					],
					"stateMutability": "view",
					"type": "function"
				},
				{
					"inputs": [],
					"name": "getAddressesProvidersList",
					"outputs": [
						{
							"internalType": "address[]",
							"name": "",
							"type": "address[]"
						}
					],
					"stateMutability": "view",
					"type": "function"
				},
				{
					"inputs": [],
					"name": "owner",
					"outputs": [
						{
							"internalType": "address",
							"name": "",
							"type": "address"
						}
					],
					"stateMutability": "view",
					"type": "function"
				},
				{
					"inputs": [
						{
							"internalType": "address",
							"name": "provider",
							"type": "address"
						},
						{
							"internalType": "uint256",
							"name": "id",
							"type": "uint256"
						}
					],
					"name": "registerAddressesProvider",
					"outputs": [],
					"stateMutability": "nonpayable",
					"type": "function"
				},
				{
					"inputs": [],
					"name": "renounceOwnership",
					"outputs": [],
					"stateMutability": "nonpayable",
					"type": "function"
				},
				{
					"inputs": [
						{
							"internalType": "address",
							"name": "newOwner",
							"type": "address"
						}
					],
					"name": "transferOwnership",
					"outputs": [],
					"stateMutability": "nonpayable",
					"type": "function"
				},
				{
					"inputs": [
						{
							"internalType": "address",
							"name": "provider",
							"type": "address"
						}
					],
					"name": "unregisterAddressesProvider",
					"outputs": [],
					"stateMutability": "nonpayable",
					"type": "function"
				}
			],
			"devdoc": {
				"author": "Aave*",
				"details": "Main registry of LendingPoolAddressesProvider of multiple Aave protocol's markets - Used for indexing purposes of Aave protocol's markets - The id assigned to a LendingPoolAddressesProvider refers to the market it is connected with,   for example with `0` for the Aave main market and `1` for the next created",
				"kind": "dev",
				"methods": {
					"getAddressesProviderIdByAddress(address)": {
						"details": "Returns the id on a registered LendingPoolAddressesProvider",
						"returns": {
							"_0": "The id or 0 if the LendingPoolAddressesProvider is not registered"
						}
					},
					"getAddressesProvidersList()": {
						"details": "Returns the list of registered addresses provider",
						"returns": {
							"_0": "The list of addresses provider, potentially containing address(0) elements*"
						}
					},
					"owner()": {
						"details": "Returns the address of the current owner."
					},
					"registerAddressesProvider(address,uint256)": {
						"details": "Registers an addresses provider",
						"params": {
							"id": "The id for the new LendingPoolAddressesProvider, referring to the market it belongs to*",
							"provider": "The address of the new LendingPoolAddressesProvider"
						}
					},
					"renounceOwnership()": {
						"details": "Leaves the contract without owner. It will not be possible to call `onlyOwner` functions anymore. Can only be called by the current owner. NOTE: Renouncing ownership will leave the contract without an owner, thereby removing any functionality that is only available to the owner."
					},
					"transferOwnership(address)": {
						"details": "Transfers ownership of the contract to a new account (`newOwner`). Can only be called by the current owner."
					},
					"unregisterAddressesProvider(address)": {
						"details": "Removes a LendingPoolAddressesProvider from the list of registered addresses provider",
						"params": {
							"provider": "The LendingPoolAddressesProvider address*"
						}
					}
				},
				"title": "LendingPoolAddressesProviderRegistry contract",
				"version": 1
			},
			"evm": {
				"assembly": "    /* \"contracts/protocol/configuration/LendingPoolAddressesProviderRegistry.sol\":724:3218  contract LendingPoolAddressesProviderRegistry is Ownable, ILendingPoolAddressesProviderRegistry {... */\n  mstore(0x40, 0x80)\n  callvalue\n  dup1\n  iszero\n  tag_1\n  jumpi\n  0x00\n  dup1\n  revert\ntag_1:\n  pop\n    /* \"contracts/dependencies/openzeppelin/contracts/Ownable.sol\":844:861  address msgSender */\n  0x00\n    /* \"contracts/dependencies/openzeppelin/contracts/Ownable.sol\":864:876  _msgSender() */\n  tag_4\n    /* \"contracts/dependencies/openzeppelin/contracts/Ownable.sol\":864:874  _msgSender */\n  tag_5\n    /* \"contracts/dependencies/openzeppelin/contracts/Ownable.sol\":864:876  _msgSender() */\n  jump\t// in\ntag_4:\n    /* \"contracts/dependencies/openzeppelin/contracts/Ownable.sol\":882:888  _owner */\n  0x00\n    /* \"contracts/dependencies/openzeppelin/contracts/Ownable.sol\":882:900  _owner = msgSender */\n  dup1\n  sload\n  not(sub(shl(0xa0, 0x01), 0x01))\n  and\n  sub(shl(0xa0, 0x01), 0x01)\n  dup4\n  and\n  swap1\n  dup2\n  or\n  dup3\n  sstore\n    /* \"contracts/dependencies/openzeppelin/contracts/Ownable.sol\":911:954  OwnershipTransferred(address(0), msgSender) */\n  mload(0x40)\n    /* \"contracts/dependencies/openzeppelin/contracts/Ownable.sol\":882:900  _owner = msgSender */\n  swap3\n  swap4\n  pop\n  swap2\n    /* \"contracts/dependencies/openzeppelin/contracts/Ownable.sol\":911:954  OwnershipTransferred(address(0), msgSender) */\n  0x8be0079c531659141344cd1fd0a4f28419497f9722a3daafe3b4186f6b6457e0\n  swap1\n    /* \"contracts/dependencies/openzeppelin/contracts/Ownable.sol\":882:888  _owner */\n  dup3\n  swap1\n    /* \"contracts/dependencies/openzeppelin/contracts/Ownable.sol\":911:954  OwnershipTransferred(address(0), msgSender) */\n  log3\n    /* \"contracts/dependencies/openzeppelin/contracts/Ownable.sol\":815:959  constructor() internal {... */\n  pop\n    /* \"contracts/protocol/configuration/LendingPoolAddressesProviderRegistry.sol\":724:3218  contract LendingPoolAddressesProviderRegistry is Ownable, ILendingPoolAddressesProviderRegistry {... */\n  jump(tag_6)\n    /* \"contracts/dependencies/openzeppelin/contracts/Context.sol\":587:685  function _msgSender() internal view virtual returns (address payable) {... */\ntag_5:\n    /* \"contracts/dependencies/openzeppelin/contracts/Context.sol\":670:680  msg.sender */\n  caller\n    /* \"contracts/dependencies/openzeppelin/contracts/Context.sol\":587:685  function _msgSender() internal view virtual returns (address payable) {... */\n  swap1\n  jump\t// out\n    /* \"contracts/protocol/configuration/LendingPoolAddressesProviderRegistry.sol\":724:3218  contract LendingPoolAddressesProviderRegistry is Ownable, ILendingPoolAddressesProviderRegistry {... */\ntag_6:\n  dataSize(sub_0)\n  dup1\n  dataOffset(sub_0)\n  0x00\n  codecopy\n  0x00\n  return\nstop\n\nsub_0: assembly {\n        /* \"contracts/protocol/configuration/LendingPoolAddressesProviderRegistry.sol\":724:3218  contract LendingPoolAddressesProviderRegistry is Ownable, ILendingPoolAddressesProviderRegistry {... */\n      mstore(0x40, 0x80)\n      callvalue\n      dup1\n      iszero\n      tag_1\n      jumpi\n      0x00\n      dup1\n      revert\n    tag_1:\n      pop\n      jumpi(tag_2, lt(calldatasize, 0x04))\n      shr(0xe0, calldataload(0x00))\n      dup1\n      0x8da5cb5b\n      gt\n      tag_10\n      jumpi\n      dup1\n      0x8da5cb5b\n      eq\n      tag_6\n      jumpi\n      dup1\n      0xd0267be7\n      eq\n      tag_7\n      jumpi\n      dup1\n      0xd258191e\n      eq\n      tag_8\n      jumpi\n      dup1\n      0xf2fde38b\n      eq\n      tag_9\n      jumpi\n      jump(tag_2)\n    tag_10:\n      dup1\n      0x0de26707\n      eq\n      tag_3\n      jumpi\n      dup1\n      0x365ccbbf\n      eq\n      tag_4\n      jumpi\n      dup1\n      0x715018a6\n      eq\n      tag_5\n      jumpi\n    tag_2:\n      0x00\n      dup1\n      revert\n        /* \"contracts/protocol/configuration/LendingPoolAddressesProviderRegistry.sol\":2291:2554  function unregisterAddressesProvider(address provider) external override onlyOwner {... */\n    tag_3:\n      tag_11\n      0x04\n      dup1\n      calldatasize\n      sub\n      0x20\n      dup2\n      lt\n      iszero\n      tag_12\n      jumpi\n      0x00\n      dup1\n      revert\n    tag_12:\n      pop\n      calldataload\n      sub(shl(0xa0, 0x01), 0x01)\n      and\n      tag_13\n      jump\t// in\n    tag_11:\n      stop\n        /* \"contracts/protocol/configuration/LendingPoolAddressesProviderRegistry.sol\":1090:1585  function getAddressesProvidersList() external view override returns (address[] memory) {... */\n    tag_4:\n      tag_14\n      tag_15\n      jump\t// in\n    tag_14:\n      0x40\n      dup1\n      mload\n      0x20\n      dup1\n      dup3\n      mstore\n      dup4\n      mload\n      dup2\n      dup4\n      add\n      mstore\n      dup4\n      mload\n      swap2\n      swap3\n      dup4\n      swap3\n      swap1\n      dup4\n      add\n      swap2\n      dup6\n      dup2\n      add\n      swap2\n      mul\n      dup1\n      dup4\n      dup4\n      0x00\n    tag_16:\n      dup4\n      dup2\n      lt\n      iszero\n      tag_18\n      jumpi\n      dup2\n      dup2\n      add\n      mload\n      dup4\n      dup3\n      add\n      mstore\n      0x20\n      add\n      jump(tag_16)\n    tag_18:\n      pop\n      pop\n      pop\n      pop\n      swap1\n      pop\n      add\n      swap3\n      pop\n      pop\n      pop\n      mload(0x40)\n      dup1\n      swap2\n      sub\n      swap1\n      return\n        /* \"contracts/dependencies/openzeppelin/contracts/Ownable.sol\":1610:1745  function renounceOwnership() public virtual onlyOwner {... */\n    tag_5:\n      tag_11\n      tag_20\n      jump\t// in\n        /* \"contracts/dependencies/openzeppelin/contracts/Ownable.sol\":1027:1098  function owner() public view returns (address) {... */\n    tag_6:\n      tag_21\n      tag_22\n      jump\t// in\n    tag_21:\n      0x40\n      dup1\n      mload\n      sub(shl(0xa0, 0x01), 0x01)\n      swap1\n      swap3\n      and\n      dup3\n      mstore\n      mload\n      swap1\n      dup2\n      swap1\n      sub\n      0x20\n      add\n      swap1\n      return\n        /* \"contracts/protocol/configuration/LendingPoolAddressesProviderRegistry.sol\":2719:2902  function getAddressesProviderIdByAddress(address addressesProvider)... */\n    tag_7:\n      tag_23\n      0x04\n      dup1\n      calldatasize\n      sub\n      0x20\n      dup2\n      lt\n      iszero\n      tag_24\n      jumpi\n      0x00\n      dup1\n      revert\n    tag_24:\n      pop\n      calldataload\n      sub(shl(0xa0, 0x01), 0x01)\n      and\n      tag_25\n      jump\t// in\n    tag_23:\n      0x40\n      dup1\n      mload\n      swap2\n      dup3\n      mstore\n      mload\n      swap1\n      dup2\n      swap1\n      sub\n      0x20\n      add\n      swap1\n      return\n        /* \"contracts/protocol/configuration/LendingPoolAddressesProviderRegistry.sol\":1819:2116  function registerAddressesProvider(address provider, uint256 id) external override onlyOwner {... */\n    tag_8:\n      tag_11\n      0x04\n      dup1\n      calldatasize\n      sub\n      0x40\n      dup2\n      lt\n      iszero\n      tag_27\n      jumpi\n      0x00\n      dup1\n      revert\n    tag_27:\n      pop\n      sub(shl(0xa0, 0x01), 0x01)\n      dup2\n      calldataload\n      and\n      swap1\n      0x20\n      add\n      calldataload\n      tag_28\n      jump\t// in\n        /* \"contracts/dependencies/openzeppelin/contracts/Ownable.sol\":1884:2110  function transferOwnership(address newOwner) public virtual onlyOwner {... */\n    tag_9:\n      tag_11\n      0x04\n      dup1\n      calldatasize\n      sub\n      0x20\n      dup2\n      lt\n      iszero\n      tag_30\n      jumpi\n      0x00\n      dup1\n      revert\n    tag_30:\n      pop\n      calldataload\n      sub(shl(0xa0, 0x01), 0x01)\n      and\n      tag_31\n      jump\t// in\n        /* \"contracts/protocol/configuration/LendingPoolAddressesProviderRegistry.sol\":2291:2554  function unregisterAddressesProvider(address provider) external override onlyOwner {... */\n    tag_13:\n        /* \"contracts/dependencies/openzeppelin/contracts/Ownable.sol\":1223:1235  _msgSender() */\n      tag_33\n        /* \"contracts/dependencies/openzeppelin/contracts/Ownable.sol\":1223:1233  _msgSender */\n      tag_34\n        /* \"contracts/dependencies/openzeppelin/contracts/Ownable.sol\":1223:1235  _msgSender() */\n      jump\t// in\n    tag_33:\n        /* \"contracts/dependencies/openzeppelin/contracts/Ownable.sol\":1213:1219  _owner */\n      sload(0x00)\n      sub(shl(0xa0, 0x01), 0x01)\n      swap1\n      dup2\n      and\n        /* \"contracts/dependencies/openzeppelin/contracts/Ownable.sol\":1213:1235  _owner == _msgSender() */\n      swap2\n      and\n      eq\n        /* \"contracts/dependencies/openzeppelin/contracts/Ownable.sol\":1205:1272  require(_owner == _msgSender(), 'Ownable: caller is not the owner') */\n      tag_35\n      jumpi\n      0x40\n      dup1\n      mload\n      shl(0xe5, 0x461bcd)\n      dup2\n      mstore\n      0x20\n      0x04\n      dup3\n      add\n      dup2\n      swap1\n      mstore\n      0x24\n      dup3\n      add\n      mstore\n      0x00\n      dup1\n      mload\n      0x20\n      data_9924ebdf1add33d25d4ef888e16131f0a5687b0580a36c21b5c301a6c462effe\n      dup4\n      codecopy\n      dup2\n      mload\n      swap2\n      mstore\n      0x44\n      dup3\n      add\n      mstore\n      swap1\n      mload\n      swap1\n      dup2\n      swap1\n      sub\n      0x64\n      add\n      swap1\n      revert\n    tag_35:\n        /* \"contracts/protocol/configuration/LendingPoolAddressesProviderRegistry.sol\":2420:2421  0 */\n      0x00\n        /* \"contracts/protocol/configuration/LendingPoolAddressesProviderRegistry.sol\":2388:2407  _addressesProviders */\n      0x01\n        /* \"contracts/protocol/configuration/LendingPoolAddressesProviderRegistry.sol\":2388:2417  _addressesProviders[provider] */\n      0x00\n        /* \"contracts/protocol/configuration/LendingPoolAddressesProviderRegistry.sol\":2408:2416  provider */\n      dup4\n      sub(shl(0xa0, 0x01), 0x01)\n        /* \"contracts/protocol/configuration/LendingPoolAddressesProviderRegistry.sol\":2388:2417  _addressesProviders[provider] */\n      and\n      sub(shl(0xa0, 0x01), 0x01)\n      and\n      dup2\n      mstore\n      0x20\n      add\n      swap1\n      dup2\n      mstore\n      0x20\n      add\n      0x00\n      keccak256\n      sload\n        /* \"contracts/protocol/configuration/LendingPoolAddressesProviderRegistry.sol\":2388:2421  _addressesProviders[provider] > 0 */\n      gt\n        /* \"contracts/protocol/configuration/LendingPoolAddressesProviderRegistry.sol\":2423:2459  Errors.LPAPR_PROVIDER_NOT_REGISTERED */\n      mload(0x40)\n      dup1\n      0x40\n      add\n      0x40\n      mstore\n      dup1\n      0x02\n      dup2\n      mstore\n      0x20\n      add\n      shl(0xf0, 0x3431)\n      dup2\n      mstore\n      pop\n        /* \"contracts/protocol/configuration/LendingPoolAddressesProviderRegistry.sol\":2380:2460  require(_addressesProviders[provider] > 0, Errors.LPAPR_PROVIDER_NOT_REGISTERED) */\n      swap1\n      tag_37\n      jumpi\n      mload(0x40)\n      shl(0xe5, 0x461bcd)\n      dup2\n      mstore\n      0x04\n      add\n      dup1\n      dup1\n      0x20\n      add\n      dup3\n      dup2\n      sub\n      dup3\n      mstore\n      dup4\n      dup2\n      dup2\n      mload\n      dup2\n      mstore\n      0x20\n      add\n      swap2\n      pop\n      dup1\n      mload\n      swap1\n      0x20\n      add\n      swap1\n      dup1\n      dup4\n      dup4\n      0x00\n    tag_38:\n      dup4\n      dup2\n      lt\n      iszero\n      tag_40\n      jumpi\n      dup2\n      dup2\n      add\n      mload\n      dup4\n      dup3\n      add\n      mstore\n      0x20\n      add\n      jump(tag_38)\n    tag_40:\n      pop\n      pop\n      pop\n      pop\n      swap1\n      pop\n      swap1\n      dup2\n      add\n      swap1\n      0x1f\n      and\n      dup1\n      iszero\n      tag_41\n      jumpi\n      dup1\n      dup3\n      sub\n      dup1\n      mload\n      0x01\n      dup4\n      0x20\n      sub\n      0x0100\n      exp\n      sub\n      not\n      and\n      dup2\n      mstore\n      0x20\n      add\n      swap2\n      pop\n    tag_41:\n      pop\n      swap3\n      pop\n      pop\n      pop\n      mload(0x40)\n      dup1\n      swap2\n      sub\n      swap1\n      revert\n    tag_37:\n      pop\n      sub(shl(0xa0, 0x01), 0x01)\n        /* \"contracts/protocol/configuration/LendingPoolAddressesProviderRegistry.sol\":2466:2495  _addressesProviders[provider] */\n      dup2\n      and\n        /* \"contracts/protocol/configuration/LendingPoolAddressesProviderRegistry.sol\":2498:2499  0 */\n      0x00\n        /* \"contracts/protocol/configuration/LendingPoolAddressesProviderRegistry.sol\":2466:2495  _addressesProviders[provider] */\n      dup2\n      dup2\n      mstore\n        /* \"contracts/protocol/configuration/LendingPoolAddressesProviderRegistry.sol\":2466:2485  _addressesProviders */\n      0x01\n        /* \"contracts/protocol/configuration/LendingPoolAddressesProviderRegistry.sol\":2466:2495  _addressesProviders[provider] */\n      0x20\n      mstore\n      0x40\n      dup1\n      dup3\n      keccak256\n        /* \"contracts/protocol/configuration/LendingPoolAddressesProviderRegistry.sol\":2466:2499  _addressesProviders[provider] = 0 */\n      dup3\n      swap1\n      sstore\n        /* \"contracts/protocol/configuration/LendingPoolAddressesProviderRegistry.sol\":2510:2549  AddressesProviderUnregistered(provider) */\n      mload\n      0x851e5971c053e6b76e3a1e0b8ffa81430df738007fad86e195c409a757faccd2\n      swap2\n        /* \"contracts/protocol/configuration/LendingPoolAddressesProviderRegistry.sol\":2498:2499  0 */\n      swap1\n        /* \"contracts/protocol/configuration/LendingPoolAddressesProviderRegistry.sol\":2510:2549  AddressesProviderUnregistered(provider) */\n      log2\n        /* \"contracts/protocol/configuration/LendingPoolAddressesProviderRegistry.sol\":2291:2554  function unregisterAddressesProvider(address provider) external override onlyOwner {... */\n      pop\n      jump\t// out\n        /* \"contracts/protocol/configuration/LendingPoolAddressesProviderRegistry.sol\":1090:1585  function getAddressesProvidersList() external view override returns (address[] memory) {... */\n    tag_15:\n        /* \"contracts/protocol/configuration/LendingPoolAddressesProviderRegistry.sol\":1159:1175  address[] memory */\n      0x60\n        /* \"contracts/protocol/configuration/LendingPoolAddressesProviderRegistry.sol\":1183:1222  address[] memory addressesProvidersList */\n      dup1\n        /* \"contracts/protocol/configuration/LendingPoolAddressesProviderRegistry.sol\":1225:1248  _addressesProvidersList */\n      0x02\n        /* \"contracts/protocol/configuration/LendingPoolAddressesProviderRegistry.sol\":1183:1248  address[] memory addressesProvidersList = _addressesProvidersList */\n      dup1\n      sload\n      dup1\n      0x20\n      mul\n      0x20\n      add\n      mload(0x40)\n      swap1\n      dup2\n      add\n      0x40\n      mstore\n      dup1\n      swap3\n      swap2\n      swap1\n      dup2\n      dup2\n      mstore\n      0x20\n      add\n      dup3\n      dup1\n      sload\n      dup1\n      iszero\n      tag_43\n      jumpi\n      0x20\n      mul\n      dup3\n      add\n      swap2\n      swap1\n      0x00\n      mstore\n      keccak256(0x00, 0x20)\n      swap1\n    tag_44:\n      dup2\n      sload\n      sub(shl(0xa0, 0x01), 0x01)\n      and\n      dup2\n      mstore\n      0x01\n      swap1\n      swap2\n      add\n      swap1\n      0x20\n      add\n      dup1\n      dup4\n      gt\n      tag_44\n      jumpi\n    tag_43:\n      pop\n      pop\n      pop\n      pop\n      pop\n      swap1\n      pop\n        /* \"contracts/protocol/configuration/LendingPoolAddressesProviderRegistry.sol\":1255:1272  uint256 maxLength */\n      0x00\n        /* \"contracts/protocol/configuration/LendingPoolAddressesProviderRegistry.sol\":1275:1297  addressesProvidersList */\n      dup2\n        /* \"contracts/protocol/configuration/LendingPoolAddressesProviderRegistry.sol\":1275:1304  addressesProvidersList.length */\n      mload\n        /* \"contracts/protocol/configuration/LendingPoolAddressesProviderRegistry.sol\":1255:1304  uint256 maxLength = addressesProvidersList.length */\n      swap1\n      pop\n        /* \"contracts/protocol/configuration/LendingPoolAddressesProviderRegistry.sol\":1311:1343  address[] memory activeProviders */\n      0x60\n        /* \"contracts/protocol/configuration/LendingPoolAddressesProviderRegistry.sol\":1360:1369  maxLength */\n      dup2\n        /* \"contracts/protocol/configuration/LendingPoolAddressesProviderRegistry.sol\":1346:1370  new address[](maxLength) */\n      0xffffffffffffffff\n      dup2\n      gt\n      dup1\n      iszero\n      tag_45\n      jumpi\n      0x00\n      dup1\n      revert\n    tag_45:\n      pop\n      mload(0x40)\n      swap1\n      dup1\n      dup3\n      mstore\n      dup1\n      0x20\n      mul\n      0x20\n      add\n      dup3\n      add\n      0x40\n      mstore\n      dup1\n      iszero\n      tag_46\n      jumpi\n      dup2\n      0x20\n      add\n      0x20\n      dup3\n      mul\n      dup1\n      calldatasize\n      dup4\n      calldatacopy\n      add\n      swap1\n      pop\n    tag_46:\n      pop\n        /* \"contracts/protocol/configuration/LendingPoolAddressesProviderRegistry.sol\":1311:1370  address[] memory activeProviders = new address[](maxLength) */\n      swap1\n      pop\n        /* \"contracts/protocol/configuration/LendingPoolAddressesProviderRegistry.sol\":1382:1391  uint256 i */\n      0x00\n        /* \"contracts/protocol/configuration/LendingPoolAddressesProviderRegistry.sol\":1377:1552  for (uint256 i = 0; i < maxLength; i++) {... */\n    tag_47:\n        /* \"contracts/protocol/configuration/LendingPoolAddressesProviderRegistry.sol\":1401:1410  maxLength */\n      dup3\n        /* \"contracts/protocol/configuration/LendingPoolAddressesProviderRegistry.sol\":1397:1398  i */\n      dup2\n        /* \"contracts/protocol/configuration/LendingPoolAddressesProviderRegistry.sol\":1397:1410  i < maxLength */\n      lt\n        /* \"contracts/protocol/configuration/LendingPoolAddressesProviderRegistry.sol\":1377:1552  for (uint256 i = 0; i < maxLength; i++) {... */\n      iszero\n      tag_48\n      jumpi\n        /* \"contracts/protocol/configuration/LendingPoolAddressesProviderRegistry.sol\":1478:1479  0 */\n      0x00\n        /* \"contracts/protocol/configuration/LendingPoolAddressesProviderRegistry.sol\":1429:1448  _addressesProviders */\n      0x01\n        /* \"contracts/protocol/configuration/LendingPoolAddressesProviderRegistry.sol\":1429:1475  _addressesProviders[addressesProvidersList[i]] */\n      0x00\n        /* \"contracts/protocol/configuration/LendingPoolAddressesProviderRegistry.sol\":1449:1471  addressesProvidersList */\n      dup7\n        /* \"contracts/protocol/configuration/LendingPoolAddressesProviderRegistry.sol\":1472:1473  i */\n      dup5\n        /* \"contracts/protocol/configuration/LendingPoolAddressesProviderRegistry.sol\":1449:1474  addressesProvidersList[i] */\n      dup2\n      mload\n      dup2\n      lt\n      tag_50\n      jumpi\n      invalid\n    tag_50:\n      0x20\n      mul\n      0x20\n      add\n      add\n      mload\n      sub(shl(0xa0, 0x01), 0x01)\n        /* \"contracts/protocol/configuration/LendingPoolAddressesProviderRegistry.sol\":1429:1475  _addressesProviders[addressesProvidersList[i]] */\n      and\n      sub(shl(0xa0, 0x01), 0x01)\n      and\n      dup2\n      mstore\n      0x20\n      add\n      swap1\n      dup2\n      mstore\n      0x20\n      add\n      0x00\n      keccak256\n      sload\n        /* \"contracts/protocol/configuration/LendingPoolAddressesProviderRegistry.sol\":1429:1479  _addressesProviders[addressesProvidersList[i]] > 0 */\n      gt\n        /* \"contracts/protocol/configuration/LendingPoolAddressesProviderRegistry.sol\":1425:1546  if (_addressesProviders[addressesProvidersList[i]] > 0) {... */\n      iszero\n      tag_51\n      jumpi\n        /* \"contracts/protocol/configuration/LendingPoolAddressesProviderRegistry.sol\":1512:1534  addressesProvidersList */\n      dup4\n        /* \"contracts/protocol/configuration/LendingPoolAddressesProviderRegistry.sol\":1535:1536  i */\n      dup2\n        /* \"contracts/protocol/configuration/LendingPoolAddressesProviderRegistry.sol\":1512:1537  addressesProvidersList[i] */\n      dup2\n      mload\n      dup2\n      lt\n      tag_52\n      jumpi\n      invalid\n    tag_52:\n      0x20\n      mul\n      0x20\n      add\n      add\n      mload\n        /* \"contracts/protocol/configuration/LendingPoolAddressesProviderRegistry.sol\":1491:1506  activeProviders */\n      dup3\n        /* \"contracts/protocol/configuration/LendingPoolAddressesProviderRegistry.sol\":1507:1508  i */\n      dup3\n        /* \"contracts/protocol/configuration/LendingPoolAddressesProviderRegistry.sol\":1491:1509  activeProviders[i] */\n      dup2\n      mload\n      dup2\n      lt\n      tag_53\n      jumpi\n      invalid\n    tag_53:\n      0x20\n      mul\n      0x20\n      add\n      add\n        /* \"contracts/protocol/configuration/LendingPoolAddressesProviderRegistry.sol\":1491:1537  activeProviders[i] = addressesProvidersList[i] */\n      swap1\n      sub(shl(0xa0, 0x01), 0x01)\n      and\n      swap1\n      dup2\n      sub(shl(0xa0, 0x01), 0x01)\n      and\n      dup2\n      mstore\n      pop\n      pop\n        /* \"contracts/protocol/configuration/LendingPoolAddressesProviderRegistry.sol\":1425:1546  if (_addressesProviders[addressesProvidersList[i]] > 0) {... */\n    tag_51:\n        /* \"contracts/protocol/configuration/LendingPoolAddressesProviderRegistry.sol\":1412:1415  i++ */\n      0x01\n      add\n        /* \"contracts/protocol/configuration/LendingPoolAddressesProviderRegistry.sol\":1377:1552  for (uint256 i = 0; i < maxLength; i++) {... */\n      jump(tag_47)\n    tag_48:\n      pop\n        /* \"contracts/protocol/configuration/LendingPoolAddressesProviderRegistry.sol\":1565:1580  activeProviders */\n      swap3\n      pop\n      pop\n      pop\n        /* \"contracts/protocol/configuration/LendingPoolAddressesProviderRegistry.sol\":1090:1585  function getAddressesProvidersList() external view override returns (address[] memory) {... */\n      swap1\n      jump\t// out\n        /* \"contracts/dependencies/openzeppelin/contracts/Ownable.sol\":1610:1745  function renounceOwnership() public virtual onlyOwner {... */\n    tag_20:\n        /* \"contracts/dependencies/openzeppelin/contracts/Ownable.sol\":1223:1235  _msgSender() */\n      tag_55\n        /* \"contracts/dependencies/openzeppelin/contracts/Ownable.sol\":1223:1233  _msgSender */\n      tag_34\n        /* \"contracts/dependencies/openzeppelin/contracts/Ownable.sol\":1223:1235  _msgSender() */\n      jump\t// in\n    tag_55:\n        /* \"contracts/dependencies/openzeppelin/contracts/Ownable.sol\":1213:1219  _owner */\n      sload(0x00)\n      sub(shl(0xa0, 0x01), 0x01)\n      swap1\n      dup2\n      and\n        /* \"contracts/dependencies/openzeppelin/contracts/Ownable.sol\":1213:1235  _owner == _msgSender() */\n      swap2\n      and\n      eq\n        /* \"contracts/dependencies/openzeppelin/contracts/Ownable.sol\":1205:1272  require(_owner == _msgSender(), 'Ownable: caller is not the owner') */\n      tag_56\n      jumpi\n      0x40\n      dup1\n      mload\n      shl(0xe5, 0x461bcd)\n      dup2\n      mstore\n      0x20\n      0x04\n      dup3\n      add\n      dup2\n      swap1\n      mstore\n      0x24\n      dup3\n      add\n      mstore\n      0x00\n      dup1\n      mload\n      0x20\n      data_9924ebdf1add33d25d4ef888e16131f0a5687b0580a36c21b5c301a6c462effe\n      dup4\n      codecopy\n      dup2\n      mload\n      swap2\n      mstore\n      0x44\n      dup3\n      add\n      mstore\n      swap1\n      mload\n      swap1\n      dup2\n      swap1\n      sub\n      0x64\n      add\n      swap1\n      revert\n    tag_56:\n        /* \"contracts/dependencies/openzeppelin/contracts/Ownable.sol\":1712:1713  0 */\n      0x00\n        /* \"contracts/dependencies/openzeppelin/contracts/Ownable.sol\":1696:1702  _owner */\n      dup1\n      sload\n        /* \"contracts/dependencies/openzeppelin/contracts/Ownable.sol\":1675:1715  OwnershipTransferred(_owner, address(0)) */\n      mload(0x40)\n      sub(shl(0xa0, 0x01), 0x01)\n        /* \"contracts/dependencies/openzeppelin/contracts/Ownable.sol\":1696:1702  _owner */\n      swap1\n      swap2\n      and\n      swap1\n        /* \"contracts/dependencies/openzeppelin/contracts/Ownable.sol\":1675:1715  OwnershipTransferred(_owner, address(0)) */\n      0x8be0079c531659141344cd1fd0a4f28419497f9722a3daafe3b4186f6b6457e0\n      swap1\n        /* \"contracts/dependencies/openzeppelin/contracts/Ownable.sol\":1712:1713  0 */\n      dup4\n      swap1\n        /* \"contracts/dependencies/openzeppelin/contracts/Ownable.sol\":1675:1715  OwnershipTransferred(_owner, address(0)) */\n      log3\n        /* \"contracts/dependencies/openzeppelin/contracts/Ownable.sol\":1738:1739  0 */\n      0x00\n        /* \"contracts/dependencies/openzeppelin/contracts/Ownable.sol\":1721:1740  _owner = address(0) */\n      dup1\n      sload\n      not(sub(shl(0xa0, 0x01), 0x01))\n      and\n      swap1\n      sstore\n        /* \"contracts/dependencies/openzeppelin/contracts/Ownable.sol\":1610:1745  function renounceOwnership() public virtual onlyOwner {... */\n      jump\t// out\n        /* \"contracts/dependencies/openzeppelin/contracts/Ownable.sol\":1027:1098  function owner() public view returns (address) {... */\n    tag_22:\n        /* \"contracts/dependencies/openzeppelin/contracts/Ownable.sol\":1065:1072  address */\n      0x00\n        /* \"contracts/dependencies/openzeppelin/contracts/Ownable.sol\":1087:1093  _owner */\n      sload\n      sub(shl(0xa0, 0x01), 0x01)\n      and\n        /* \"contracts/dependencies/openzeppelin/contracts/Ownable.sol\":1027:1098  function owner() public view returns (address) {... */\n      swap1\n      jump\t// out\n        /* \"contracts/protocol/configuration/LendingPoolAddressesProviderRegistry.sol\":2719:2902  function getAddressesProviderIdByAddress(address addressesProvider)... */\n    tag_25:\n      sub(shl(0xa0, 0x01), 0x01)\n        /* \"contracts/protocol/configuration/LendingPoolAddressesProviderRegistry.sol\":2859:2897  _addressesProviders[addressesProvider] */\n      and\n        /* \"contracts/protocol/configuration/LendingPoolAddressesProviderRegistry.sol\":2835:2842  uint256 */\n      0x00\n        /* \"contracts/protocol/configuration/LendingPoolAddressesProviderRegistry.sol\":2859:2897  _addressesProviders[addressesProvider] */\n      swap1\n      dup2\n      mstore\n        /* \"contracts/protocol/configuration/LendingPoolAddressesProviderRegistry.sol\":2859:2878  _addressesProviders */\n      0x01\n        /* \"contracts/protocol/configuration/LendingPoolAddressesProviderRegistry.sol\":2859:2897  _addressesProviders[addressesProvider] */\n      0x20\n      mstore\n      0x40\n      swap1\n      keccak256\n      sload\n      swap1\n        /* \"contracts/protocol/configuration/LendingPoolAddressesProviderRegistry.sol\":2719:2902  function getAddressesProviderIdByAddress(address addressesProvider)... */\n      jump\t// out\n        /* \"contracts/protocol/configuration/LendingPoolAddressesProviderRegistry.sol\":1819:2116  function registerAddressesProvider(address provider, uint256 id) external override onlyOwner {... */\n    tag_28:\n        /* \"contracts/dependencies/openzeppelin/contracts/Ownable.sol\":1223:1235  _msgSender() */\n      tag_61\n        /* \"contracts/dependencies/openzeppelin/contracts/Ownable.sol\":1223:1233  _msgSender */\n      tag_34\n        /* \"contracts/dependencies/openzeppelin/contracts/Ownable.sol\":1223:1235  _msgSender() */\n      jump\t// in\n    tag_61:\n        /* \"contracts/dependencies/openzeppelin/contracts/Ownable.sol\":1213:1219  _owner */\n      sload(0x00)\n      sub(shl(0xa0, 0x01), 0x01)\n      swap1\n      dup2\n      and\n        /* \"contracts/dependencies/openzeppelin/contracts/Ownable.sol\":1213:1235  _owner == _msgSender() */\n      swap2\n      and\n      eq\n        /* \"contracts/dependencies/openzeppelin/contracts/Ownable.sol\":1205:1272  require(_owner == _msgSender(), 'Ownable: caller is not the owner') */\n      tag_62\n      jumpi\n      0x40\n      dup1\n      mload\n      shl(0xe5, 0x461bcd)\n      dup2\n      mstore\n      0x20\n      0x04\n      dup3\n      add\n      dup2\n      swap1\n      mstore\n      0x24\n      dup3\n      add\n      mstore\n      0x00\n      dup1\n      mload\n      0x20\n      data_9924ebdf1add33d25d4ef888e16131f0a5687b0580a36c21b5c301a6c462effe\n      dup4\n      codecopy\n      dup2\n      mload\n      swap2\n      mstore\n      0x44\n      dup3\n      add\n      mstore\n      swap1\n      mload\n      swap1\n      dup2\n      swap1\n      sub\n      0x64\n      add\n      swap1\n      revert\n    tag_62:\n        /* \"contracts/protocol/configuration/LendingPoolAddressesProviderRegistry.sol\":1935:1977  Errors.LPAPR_INVALID_ADDRESSES_PROVIDER_ID */\n      0x40\n      dup1\n      mload\n      dup1\n      dup3\n      add\n      swap1\n      swap2\n      mstore\n      0x02\n      dup2\n      mstore\n      shl(0xf1, 0x1b99)\n      0x20\n      dup3\n      add\n      mstore\n        /* \"contracts/protocol/configuration/LendingPoolAddressesProviderRegistry.sol\":1926:1933  id != 0 */\n      dup2\n        /* \"contracts/protocol/configuration/LendingPoolAddressesProviderRegistry.sol\":1918:1978  require(id != 0, Errors.LPAPR_INVALID_ADDRESSES_PROVIDER_ID) */\n      tag_64\n      jumpi\n      mload(0x40)\n      shl(0xe5, 0x461bcd)\n      dup2\n      mstore\n      0x20\n      0x04\n      dup3\n      add\n      dup2\n      dup2\n      mstore\n      dup4\n      mload\n      0x24\n      dup5\n      add\n      mstore\n      dup4\n      mload\n      swap1\n      swap3\n      dup4\n      swap3\n      0x44\n      swap1\n      swap2\n      add\n      swap2\n      swap1\n      dup6\n      add\n      swap1\n      dup1\n      dup4\n      dup4\n      0x00\n      dup4\n      iszero\n      tag_40\n      jumpi\n      dup2\n      dup2\n      add\n      mload\n      dup4\n      dup3\n      add\n      mstore\n      0x20\n      add\n      jump(tag_38)\n    tag_64:\n      pop\n      sub(shl(0xa0, 0x01), 0x01)\n        /* \"contracts/protocol/configuration/LendingPoolAddressesProviderRegistry.sol\":1985:2014  _addressesProviders[provider] */\n      dup3\n      and\n      0x00\n      swap1\n      dup2\n      mstore\n        /* \"contracts/protocol/configuration/LendingPoolAddressesProviderRegistry.sol\":1985:2004  _addressesProviders */\n      0x01\n        /* \"contracts/protocol/configuration/LendingPoolAddressesProviderRegistry.sol\":1985:2014  _addressesProviders[provider] */\n      0x20\n      mstore\n      0x40\n      swap1\n      keccak256\n        /* \"contracts/protocol/configuration/LendingPoolAddressesProviderRegistry.sol\":1985:2019  _addressesProviders[provider] = id */\n      dup2\n      swap1\n      sstore\n        /* \"contracts/protocol/configuration/LendingPoolAddressesProviderRegistry.sol\":2025:2063  _addToAddressesProvidersList(provider) */\n      tag_69\n        /* \"contracts/protocol/configuration/LendingPoolAddressesProviderRegistry.sol\":2005:2013  provider */\n      dup3\n        /* \"contracts/protocol/configuration/LendingPoolAddressesProviderRegistry.sol\":2025:2053  _addToAddressesProvidersList */\n      tag_70\n        /* \"contracts/protocol/configuration/LendingPoolAddressesProviderRegistry.sol\":2025:2063  _addToAddressesProvidersList(provider) */\n      jump\t// in\n    tag_69:\n        /* \"contracts/protocol/configuration/LendingPoolAddressesProviderRegistry.sol\":2074:2111  AddressesProviderRegistered(provider) */\n      mload(0x40)\n      sub(shl(0xa0, 0x01), 0x01)\n      dup4\n      and\n      swap1\n      0x2db38786c10176b033a1608361716b0ca992e3af55dc05b6dc710969790beeda\n      swap1\n      0x00\n      swap1\n      log2\n        /* \"contracts/protocol/configuration/LendingPoolAddressesProviderRegistry.sol\":1819:2116  function registerAddressesProvider(address provider, uint256 id) external override onlyOwner {... */\n      pop\n      pop\n      jump\t// out\n        /* \"contracts/dependencies/openzeppelin/contracts/Ownable.sol\":1884:2110  function transferOwnership(address newOwner) public virtual onlyOwner {... */\n    tag_31:\n        /* \"contracts/dependencies/openzeppelin/contracts/Ownable.sol\":1223:1235  _msgSender() */\n      tag_72\n        /* \"contracts/dependencies/openzeppelin/contracts/Ownable.sol\":1223:1233  _msgSender */\n      tag_34\n        /* \"contracts/dependencies/openzeppelin/contracts/Ownable.sol\":1223:1235  _msgSender() */\n      jump\t// in\n    tag_72:\n        /* \"contracts/dependencies/openzeppelin/contracts/Ownable.sol\":1213:1219  _owner */\n      sload(0x00)\n      sub(shl(0xa0, 0x01), 0x01)\n      swap1\n      dup2\n      and\n        /* \"contracts/dependencies/openzeppelin/contracts/Ownable.sol\":1213:1235  _owner == _msgSender() */\n      swap2\n      and\n      eq\n        /* \"contracts/dependencies/openzeppelin/contracts/Ownable.sol\":1205:1272  require(_owner == _msgSender(), 'Ownable: caller is not the owner') */\n      tag_73\n      jumpi\n      0x40\n      dup1\n      mload\n      shl(0xe5, 0x461bcd)\n      dup2\n      mstore\n      0x20\n      0x04\n      dup3\n      add\n      dup2\n      swap1\n      mstore\n      0x24\n      dup3\n      add\n      mstore\n      0x00\n      dup1\n      mload\n      0x20\n      data_9924ebdf1add33d25d4ef888e16131f0a5687b0580a36c21b5c301a6c462effe\n      dup4\n      codecopy\n      dup2\n      mload\n      swap2\n      mstore\n      0x44\n      dup3\n      add\n      mstore\n      swap1\n      mload\n      swap1\n      dup2\n      swap1\n      sub\n      0x64\n      add\n      swap1\n      revert\n    tag_73:\n      sub(shl(0xa0, 0x01), 0x01)\n        /* \"contracts/dependencies/openzeppelin/contracts/Ownable.sol\":1968:1990  newOwner != address(0) */\n      dup2\n      and\n        /* \"contracts/dependencies/openzeppelin/contracts/Ownable.sol\":1960:2033  require(newOwner != address(0), 'Ownable: new owner is the zero address') */\n      tag_75\n      jumpi\n      mload(0x40)\n      shl(0xe5, 0x461bcd)\n      dup2\n      mstore\n      0x04\n      add\n      dup1\n      dup1\n      0x20\n      add\n      dup3\n      dup2\n      sub\n      dup3\n      mstore\n      0x26\n      dup2\n      mstore\n      0x20\n      add\n      dup1\n      data_245f15ff17f551913a7a18385165551503906a406f905ac1c2437281a7cd0cfe\n      0x26\n      swap2\n      codecopy\n      0x40\n      add\n      swap2\n      pop\n      pop\n      mload(0x40)\n      dup1\n      swap2\n      sub\n      swap1\n      revert\n    tag_75:\n        /* \"contracts/dependencies/openzeppelin/contracts/Ownable.sol\":2065:2071  _owner */\n      0x00\n      dup1\n      sload\n        /* \"contracts/dependencies/openzeppelin/contracts/Ownable.sol\":2044:2082  OwnershipTransferred(_owner, newOwner) */\n      mload(0x40)\n      sub(shl(0xa0, 0x01), 0x01)\n      dup1\n      dup6\n      and\n      swap4\n        /* \"contracts/dependencies/openzeppelin/contracts/Ownable.sol\":2065:2071  _owner */\n      swap3\n      and\n      swap2\n        /* \"contracts/dependencies/openzeppelin/contracts/Ownable.sol\":2044:2082  OwnershipTransferred(_owner, newOwner) */\n      0x8be0079c531659141344cd1fd0a4f28419497f9722a3daafe3b4186f6b6457e0\n      swap2\n      log3\n        /* \"contracts/dependencies/openzeppelin/contracts/Ownable.sol\":2088:2094  _owner */\n      0x00\n        /* \"contracts/dependencies/openzeppelin/contracts/Ownable.sol\":2088:2105  _owner = newOwner */\n      dup1\n      sload\n      not(sub(shl(0xa0, 0x01), 0x01))\n      and\n      sub(shl(0xa0, 0x01), 0x01)\n      swap3\n      swap1\n      swap3\n      and\n      swap2\n      swap1\n      swap2\n      or\n      swap1\n      sstore\n        /* \"contracts/dependencies/openzeppelin/contracts/Ownable.sol\":1884:2110  function transferOwnership(address newOwner) public virtual onlyOwner {... */\n      jump\t// out\n        /* \"contracts/dependencies/openzeppelin/contracts/Context.sol\":587:685  function _msgSender() internal view virtual returns (address payable) {... */\n    tag_34:\n        /* \"contracts/dependencies/openzeppelin/contracts/Context.sol\":670:680  msg.sender */\n      caller\n        /* \"contracts/dependencies/openzeppelin/contracts/Context.sol\":587:685  function _msgSender() internal view virtual returns (address payable) {... */\n      swap1\n      jump\t// out\n        /* \"contracts/protocol/configuration/LendingPoolAddressesProviderRegistry.sol\":2906:3216  function _addToAddressesProvidersList(address provider) internal {... */\n    tag_70:\n        /* \"contracts/protocol/configuration/LendingPoolAddressesProviderRegistry.sol\":3002:3025  _addressesProvidersList */\n      0x02\n        /* \"contracts/protocol/configuration/LendingPoolAddressesProviderRegistry.sol\":3002:3032  _addressesProvidersList.length */\n      sload\n        /* \"contracts/protocol/configuration/LendingPoolAddressesProviderRegistry.sol\":2977:2999  uint256 providersCount */\n      0x00\n        /* \"contracts/protocol/configuration/LendingPoolAddressesProviderRegistry.sol\":3039:3167  for (uint256 i = 0; i < providersCount; i++) {... */\n    tag_78:\n        /* \"contracts/protocol/configuration/LendingPoolAddressesProviderRegistry.sol\":3063:3077  providersCount */\n      dup2\n        /* \"contracts/protocol/configuration/LendingPoolAddressesProviderRegistry.sol\":3059:3060  i */\n      dup2\n        /* \"contracts/protocol/configuration/LendingPoolAddressesProviderRegistry.sol\":3059:3077  i < providersCount */\n      lt\n        /* \"contracts/protocol/configuration/LendingPoolAddressesProviderRegistry.sol\":3039:3167  for (uint256 i = 0; i < providersCount; i++) {... */\n      iszero\n      tag_79\n      jumpi\n        /* \"contracts/protocol/configuration/LendingPoolAddressesProviderRegistry.sol\":3126:3134  provider */\n      dup3\n      sub(shl(0xa0, 0x01), 0x01)\n        /* \"contracts/protocol/configuration/LendingPoolAddressesProviderRegistry.sol\":3096:3134  _addressesProvidersList[i] == provider */\n      and\n        /* \"contracts/protocol/configuration/LendingPoolAddressesProviderRegistry.sol\":3096:3119  _addressesProvidersList */\n      0x02\n        /* \"contracts/protocol/configuration/LendingPoolAddressesProviderRegistry.sol\":3120:3121  i */\n      dup3\n        /* \"contracts/protocol/configuration/LendingPoolAddressesProviderRegistry.sol\":3096:3122  _addressesProvidersList[i] */\n      dup2\n      sload\n      dup2\n      lt\n      tag_81\n      jumpi\n      invalid\n    tag_81:\n      0x00\n      swap2\n      dup3\n      mstore\n      0x20\n      swap1\n      swap2\n      keccak256\n      add\n      sload\n      sub(shl(0xa0, 0x01), 0x01)\n      and\n        /* \"contracts/protocol/configuration/LendingPoolAddressesProviderRegistry.sol\":3096:3134  _addressesProvidersList[i] == provider */\n      eq\n        /* \"contracts/protocol/configuration/LendingPoolAddressesProviderRegistry.sol\":3092:3161  if (_addressesProvidersList[i] == provider) {... */\n      iszero\n      tag_83\n      jumpi\n        /* \"contracts/protocol/configuration/LendingPoolAddressesProviderRegistry.sol\":3146:3153  return; */\n      pop\n      pop\n      jump(tag_77)\n        /* \"contracts/protocol/configuration/LendingPoolAddressesProviderRegistry.sol\":3092:3161  if (_addressesProvidersList[i] == provider) {... */\n    tag_83:\n        /* \"contracts/protocol/configuration/LendingPoolAddressesProviderRegistry.sol\":3079:3082  i++ */\n      0x01\n      add\n        /* \"contracts/protocol/configuration/LendingPoolAddressesProviderRegistry.sol\":3039:3167  for (uint256 i = 0; i < providersCount; i++) {... */\n      jump(tag_78)\n    tag_79:\n      pop\n      pop\n        /* \"contracts/protocol/configuration/LendingPoolAddressesProviderRegistry.sol\":3173:3196  _addressesProvidersList */\n      0x02\n        /* \"contracts/protocol/configuration/LendingPoolAddressesProviderRegistry.sol\":3173:3211  _addressesProvidersList.push(provider) */\n      dup1\n      sload\n      0x01\n      dup2\n      add\n      dup3\n      sstore\n      0x00\n      swap2\n      swap1\n      swap2\n      mstore\n      0x405787fa12a823e0f2b7631cc41b3ba8828b3321ca811111fa75cd3aa3bb5ace\n      add\n      dup1\n      sload\n      not(sub(shl(0xa0, 0x01), 0x01))\n      and\n      sub(shl(0xa0, 0x01), 0x01)\n      dup4\n      and\n      or\n      swap1\n      sstore\n        /* \"contracts/protocol/configuration/LendingPoolAddressesProviderRegistry.sol\":2906:3216  function _addToAddressesProvidersList(address provider) internal {... */\n    tag_77:\n      pop\n      jump\t// out\n    stop\n    data_245f15ff17f551913a7a18385165551503906a406f905ac1c2437281a7cd0cfe 4f776e61626c653a206e6577206f776e657220697320746865207a65726f2061646472657373\n    data_9924ebdf1add33d25d4ef888e16131f0a5687b0580a36c21b5c301a6c462effe 4f776e61626c653a2063616c6c6572206973206e6f7420746865206f776e6572\n\n    auxdata: 0xa264697066735822122028449229e270c38757cefd266a37ac596d145eb7cb558ecc94f768be6eafe61f64736f6c634300060c0033\n}\n",
				"bytecode": {
					"linkReferences": {},
					"object": "608060405234801561001057600080fd5b50600061001b61006a565b600080546001600160a01b0319166001600160a01b0383169081178255604051929350917f8be0079c531659141344cd1fd0a4f28419497f9722a3daafe3b4186f6b6457e0908290a35061006e565b3390565b6108698061007d6000396000f3fe608060405234801561001057600080fd5b506004361061007d5760003560e01c80638da5cb5b1161005b5780638da5cb5b1461010a578063d0267be71461012e578063d258191e14610166578063f2fde38b146101925761007d565b80630de2670714610082578063365ccbbf146100aa578063715018a614610102575b600080fd5b6100a86004803603602081101561009857600080fd5b50356001600160a01b03166101b8565b005b6100b2610322565b60408051602080825283518183015283519192839290830191858101910280838360005b838110156100ee5781810151838201526020016100d6565b505050509050019250505060405180910390f35b6100a861046b565b61011261050d565b604080516001600160a01b039092168252519081900360200190f35b6101546004803603602081101561014457600080fd5b50356001600160a01b031661051c565b60408051918252519081900360200190f35b6100a86004803603604081101561017c57600080fd5b506001600160a01b038135169060200135610537565b6100a8600480360360208110156101a857600080fd5b50356001600160a01b0316610651565b6101c0610749565b6000546001600160a01b03908116911614610210576040805162461bcd60e51b81526020600482018190526024820152600080516020610814833981519152604482015290519081900360640190fd5b600060016000836001600160a01b03166001600160a01b03168152602001908152602001600020541160405180604001604052806002815260200161343160f01b815250906102dd5760405162461bcd60e51b81526004018080602001828103825283818151815260200191508051906020019080838360005b838110156102a257818101518382015260200161028a565b50505050905090810190601f1680156102cf5780820380516001836020036101000a031916815260200191505b509250505060405180910390fd5b506001600160a01b038116600081815260016020526040808220829055517f851e5971c053e6b76e3a1e0b8ffa81430df738007fad86e195c409a757faccd29190a250565b606080600280548060200260200160405190810160405280929190818152602001828054801561037b57602002820191906000526020600020905b81546001600160a01b0316815260019091019060200180831161035d575b5050505050905060008151905060608167ffffffffffffffff811180156103a157600080fd5b506040519080825280602002602001820160405280156103cb578160200160208202803683370190505b50905060005b82811015610463576000600160008684815181106103eb57fe5b60200260200101516001600160a01b03166001600160a01b0316815260200190815260200160002054111561045b5783818151811061042657fe5b602002602001015182828151811061043a57fe5b60200260200101906001600160a01b031690816001600160a01b0316815250505b6001016103d1565b509250505090565b610473610749565b6000546001600160a01b039081169116146104c3576040805162461bcd60e51b81526020600482018190526024820152600080516020610814833981519152604482015290519081900360640190fd5b600080546040516001600160a01b03909116907f8be0079c531659141344cd1fd0a4f28419497f9722a3daafe3b4186f6b6457e0908390a3600080546001600160a01b0319169055565b6000546001600160a01b031690565b6001600160a01b031660009081526001602052604090205490565b61053f610749565b6000546001600160a01b0390811691161461058f576040805162461bcd60e51b81526020600482018190526024820152600080516020610814833981519152604482015290519081900360640190fd5b6040805180820190915260028152611b9960f11b6020820152816105f45760405162461bcd60e51b81526020600482018181528351602484015283519092839260449091019190850190808383600083156102a257818101518382015260200161028a565b506001600160a01b03821660009081526001602052604090208190556106198261074d565b6040516001600160a01b038316907f2db38786c10176b033a1608361716b0ca992e3af55dc05b6dc710969790beeda90600090a25050565b610659610749565b6000546001600160a01b039081169116146106a9576040805162461bcd60e51b81526020600482018190526024820152600080516020610814833981519152604482015290519081900360640190fd5b6001600160a01b0381166106ee5760405162461bcd60e51b81526004018080602001828103825260268152602001806107ee6026913960400191505060405180910390fd5b600080546040516001600160a01b03808516939216917f8be0079c531659141344cd1fd0a4f28419497f9722a3daafe3b4186f6b6457e091a3600080546001600160a01b0319166001600160a01b0392909216919091179055565b3390565b60025460005b8181101561079c57826001600160a01b03166002828154811061077257fe5b6000918252602090912001546001600160a01b031614156107945750506107ea565b600101610753565b5050600280546001810182556000919091527f405787fa12a823e0f2b7631cc41b3ba8828b3321ca811111fa75cd3aa3bb5ace0180546001600160a01b0319166001600160a01b0383161790555b5056fe4f776e61626c653a206e6577206f776e657220697320746865207a65726f20616464726573734f776e61626c653a2063616c6c6572206973206e6f7420746865206f776e6572a264697066735822122028449229e270c38757cefd266a37ac596d145eb7cb558ecc94f768be6eafe61f64736f6c634300060c0033",
					"opcodes": "PUSH1 0x80 PUSH1 0x40 MSTORE CALLVALUE DUP1 ISZERO PUSH2 0x10 JUMPI PUSH1 0x0 DUP1 REVERT JUMPDEST POP PUSH1 0x0 PUSH2 0x1B PUSH2 0x6A JUMP JUMPDEST PUSH1 0x0 DUP1 SLOAD PUSH1 0x1 PUSH1 0x1 PUSH1 0xA0 SHL SUB NOT AND PUSH1 0x1 PUSH1 0x1 PUSH1 0xA0 SHL SUB DUP4 AND SWAP1 DUP2 OR DUP3 SSTORE PUSH1 0x40 MLOAD SWAP3 SWAP4 POP SWAP2 PUSH32 0x8BE0079C531659141344CD1FD0A4F28419497F9722A3DAAFE3B4186F6B6457E0 SWAP1 DUP3 SWAP1 LOG3 POP PUSH2 0x6E JUMP JUMPDEST CALLER SWAP1 JUMP JUMPDEST PUSH2 0x869 DUP1 PUSH2 0x7D PUSH1 0x0 CODECOPY PUSH1 0x0 RETURN INVALID PUSH1 0x80 PUSH1 0x40 MSTORE CALLVALUE DUP1 ISZERO PUSH2 0x10 JUMPI PUSH1 0x0 DUP1 REVERT JUMPDEST POP PUSH1 0x4 CALLDATASIZE LT PUSH2 0x7D JUMPI PUSH1 0x0 CALLDATALOAD PUSH1 0xE0 SHR DUP1 PUSH4 0x8DA5CB5B GT PUSH2 0x5B JUMPI DUP1 PUSH4 0x8DA5CB5B EQ PUSH2 0x10A JUMPI DUP1 PUSH4 0xD0267BE7 EQ PUSH2 0x12E JUMPI DUP1 PUSH4 0xD258191E EQ PUSH2 0x166 JUMPI DUP1 PUSH4 0xF2FDE38B EQ PUSH2 0x192 JUMPI PUSH2 0x7D JUMP JUMPDEST DUP1 PUSH4 0xDE26707 EQ PUSH2 0x82 JUMPI DUP1 PUSH4 0x365CCBBF EQ PUSH2 0xAA JUMPI DUP1 PUSH4 0x715018A6 EQ PUSH2 0x102 JUMPI JUMPDEST PUSH1 0x0 DUP1 REVERT JUMPDEST PUSH2 0xA8 PUSH1 0x4 DUP1 CALLDATASIZE SUB PUSH1 0x20 DUP2 LT ISZERO PUSH2 0x98 JUMPI PUSH1 0x0 DUP1 REVERT JUMPDEST POP CALLDATALOAD PUSH1 0x1 PUSH1 0x1 PUSH1 0xA0 SHL SUB AND PUSH2 0x1B8 JUMP JUMPDEST STOP JUMPDEST PUSH2 0xB2 PUSH2 0x322 JUMP JUMPDEST PUSH1 0x40 DUP1 MLOAD PUSH1 0x20 DUP1 DUP3 MSTORE DUP4 MLOAD DUP2 DUP4 ADD MSTORE DUP4 MLOAD SWAP2 SWAP3 DUP4 SWAP3 SWAP1 DUP4 ADD SWAP2 DUP6 DUP2 ADD SWAP2 MUL DUP1 DUP4 DUP4 PUSH1 0x0 JUMPDEST DUP4 DUP2 LT ISZERO PUSH2 0xEE JUMPI DUP2 DUP2 ADD MLOAD DUP4 DUP3 ADD MSTORE PUSH1 0x20 ADD PUSH2 0xD6 JUMP JUMPDEST POP POP POP POP SWAP1 POP ADD SWAP3 POP POP POP PUSH1 0x40 MLOAD DUP1 SWAP2 SUB SWAP1 RETURN JUMPDEST PUSH2 0xA8 PUSH2 0x46B JUMP JUMPDEST PUSH2 0x112 PUSH2 0x50D JUMP JUMPDEST PUSH1 0x40 DUP1 MLOAD PUSH1 0x1 PUSH1 0x1 PUSH1 0xA0 SHL SUB SWAP1 SWAP3 AND DUP3 MSTORE MLOAD SWAP1 DUP2 SWAP1 SUB PUSH1 0x20 ADD SWAP1 RETURN JUMPDEST PUSH2 0x154 PUSH1 0x4 DUP1 CALLDATASIZE SUB PUSH1 0x20 DUP2 LT ISZERO PUSH2 0x144 JUMPI PUSH1 0x0 DUP1 REVERT JUMPDEST POP CALLDATALOAD PUSH1 0x1 PUSH1 0x1 PUSH1 0xA0 SHL SUB AND PUSH2 0x51C JUMP JUMPDEST PUSH1 0x40 DUP1 MLOAD SWAP2 DUP3 MSTORE MLOAD SWAP1 DUP2 SWAP1 SUB PUSH1 0x20 ADD SWAP1 RETURN JUMPDEST PUSH2 0xA8 PUSH1 0x4 DUP1 CALLDATASIZE SUB PUSH1 0x40 DUP2 LT ISZERO PUSH2 0x17C JUMPI PUSH1 0x0 DUP1 REVERT JUMPDEST POP PUSH1 0x1 PUSH1 0x1 PUSH1 0xA0 SHL SUB DUP2 CALLDATALOAD AND SWAP1 PUSH1 0x20 ADD CALLDATALOAD PUSH2 0x537 JUMP JUMPDEST PUSH2 0xA8 PUSH1 0x4 DUP1 CALLDATASIZE SUB PUSH1 0x20 DUP2 LT ISZERO PUSH2 0x1A8 JUMPI PUSH1 0x0 DUP1 REVERT JUMPDEST POP CALLDATALOAD PUSH1 0x1 PUSH1 0x1 PUSH1 0xA0 SHL SUB AND PUSH2 0x651 JUMP JUMPDEST PUSH2 0x1C0 PUSH2 0x749 JUMP JUMPDEST PUSH1 0x0 SLOAD PUSH1 0x1 PUSH1 0x1 PUSH1 0xA0 SHL SUB SWAP1 DUP2 AND SWAP2 AND EQ PUSH2 0x210 JUMPI PUSH1 0x40 DUP1 MLOAD PUSH3 0x461BCD PUSH1 0xE5 SHL DUP2 MSTORE PUSH1 0x20 PUSH1 0x4 DUP3 ADD DUP2 SWAP1 MSTORE PUSH1 0x24 DUP3 ADD MSTORE PUSH1 0x0 DUP1 MLOAD PUSH1 0x20 PUSH2 0x814 DUP4 CODECOPY DUP2 MLOAD SWAP2 MSTORE PUSH1 0x44 DUP3 ADD MSTORE SWAP1 MLOAD SWAP1 DUP2 SWAP1 SUB PUSH1 0x64 ADD SWAP1 REVERT JUMPDEST PUSH1 0x0 PUSH1 0x1 PUSH1 0x0 DUP4 PUSH1 0x1 PUSH1 0x1 PUSH1 0xA0 SHL SUB AND PUSH1 0x1 PUSH1 0x1 PUSH1 0xA0 SHL SUB AND DUP2 MSTORE PUSH1 0x20 ADD SWAP1 DUP2 MSTORE PUSH1 0x20 ADD PUSH1 0x0 KECCAK256 SLOAD GT PUSH1 0x40 MLOAD DUP1 PUSH1 0x40 ADD PUSH1 0x40 MSTORE DUP1 PUSH1 0x2 DUP2 MSTORE PUSH1 0x20 ADD PUSH2 0x3431 PUSH1 0xF0 SHL DUP2 MSTORE POP SWAP1 PUSH2 0x2DD JUMPI PUSH1 0x40 MLOAD PUSH3 0x461BCD PUSH1 0xE5 SHL DUP2 MSTORE PUSH1 0x4 ADD DUP1 DUP1 PUSH1 0x20 ADD DUP3 DUP2 SUB DUP3 MSTORE DUP4 DUP2 DUP2 MLOAD DUP2 MSTORE PUSH1 0x20 ADD SWAP2 POP DUP1 MLOAD SWAP1 PUSH1 0x20 ADD SWAP1 DUP1 DUP4 DUP4 PUSH1 0x0 JUMPDEST DUP4 DUP2 LT ISZERO PUSH2 0x2A2 JUMPI DUP2 DUP2 ADD MLOAD DUP4 DUP3 ADD MSTORE PUSH1 0x20 ADD PUSH2 0x28A JUMP JUMPDEST POP POP POP POP SWAP1 POP SWAP1 DUP2 ADD SWAP1 PUSH1 0x1F AND DUP1 ISZERO PUSH2 0x2CF JUMPI DUP1 DUP3 SUB DUP1 MLOAD PUSH1 0x1 DUP4 PUSH1 0x20 SUB PUSH2 0x100 EXP SUB NOT AND DUP2 MSTORE PUSH1 0x20 ADD SWAP2 POP JUMPDEST POP SWAP3 POP POP POP PUSH1 0x40 MLOAD DUP1 SWAP2 SUB SWAP1 REVERT JUMPDEST POP PUSH1 0x1 PUSH1 0x1 PUSH1 0xA0 SHL SUB DUP2 AND PUSH1 0x0 DUP2 DUP2 MSTORE PUSH1 0x1 PUSH1 0x20 MSTORE PUSH1 0x40 DUP1 DUP3 KECCAK256 DUP3 SWAP1 SSTORE MLOAD PUSH32 0x851E5971C053E6B76E3A1E0B8FFA81430DF738007FAD86E195C409A757FACCD2 SWAP2 SWAP1 LOG2 POP JUMP JUMPDEST PUSH1 0x60 DUP1 PUSH1 0x2 DUP1 SLOAD DUP1 PUSH1 0x20 MUL PUSH1 0x20 ADD PUSH1 0x40 MLOAD SWAP1 DUP2 ADD PUSH1 0x40 MSTORE DUP1 SWAP3 SWAP2 SWAP1 DUP2 DUP2 MSTORE PUSH1 0x20 ADD DUP3 DUP1 SLOAD DUP1 ISZERO PUSH2 0x37B JUMPI PUSH1 0x20 MUL DUP3 ADD SWAP2 SWAP1 PUSH1 0x0 MSTORE PUSH1 0x20 PUSH1 0x0 KECCAK256 SWAP1 JUMPDEST DUP2 SLOAD PUSH1 0x1 PUSH1 0x1 PUSH1 0xA0 SHL SUB AND DUP2 MSTORE PUSH1 0x1 SWAP1 SWAP2 ADD SWAP1 PUSH1 0x20 ADD DUP1 DUP4 GT PUSH2 0x35D JUMPI JUMPDEST POP POP POP POP POP SWAP1 POP PUSH1 0x0 DUP2 MLOAD SWAP1 POP PUSH1 0x60 DUP2 PUSH8 0xFFFFFFFFFFFFFFFF DUP2 GT DUP1 ISZERO PUSH2 0x3A1 JUMPI PUSH1 0x0 DUP1 REVERT JUMPDEST POP PUSH1 0x40 MLOAD SWAP1 DUP1 DUP3 MSTORE DUP1 PUSH1 0x20 MUL PUSH1 0x20 ADD DUP3 ADD PUSH1 0x40 MSTORE DUP1 ISZERO PUSH2 0x3CB JUMPI DUP2 PUSH1 0x20 ADD PUSH1 0x20 DUP3 MUL DUP1 CALLDATASIZE DUP4 CALLDATACOPY ADD SWAP1 POP JUMPDEST POP SWAP1 POP PUSH1 0x0 JUMPDEST DUP3 DUP2 LT ISZERO PUSH2 0x463 JUMPI PUSH1 0x0 PUSH1 0x1 PUSH1 0x0 DUP7 DUP5 DUP2 MLOAD DUP2 LT PUSH2 0x3EB JUMPI INVALID JUMPDEST PUSH1 0x20 MUL PUSH1 0x20 ADD ADD MLOAD PUSH1 0x1 PUSH1 0x1 PUSH1 0xA0 SHL SUB AND PUSH1 0x1 PUSH1 0x1 PUSH1 0xA0 SHL SUB AND DUP2 MSTORE PUSH1 0x20 ADD SWAP1 DUP2 MSTORE PUSH1 0x20 ADD PUSH1 0x0 KECCAK256 SLOAD GT ISZERO PUSH2 0x45B JUMPI DUP4 DUP2 DUP2 MLOAD DUP2 LT PUSH2 0x426 JUMPI INVALID JUMPDEST PUSH1 0x20 MUL PUSH1 0x20 ADD ADD MLOAD DUP3 DUP3 DUP2 MLOAD DUP2 LT PUSH2 0x43A JUMPI INVALID JUMPDEST PUSH1 0x20 MUL PUSH1 0x20 ADD ADD SWAP1 PUSH1 0x1 PUSH1 0x1 PUSH1 0xA0 SHL SUB AND SWAP1 DUP2 PUSH1 0x1 PUSH1 0x1 PUSH1 0xA0 SHL SUB AND DUP2 MSTORE POP POP JUMPDEST PUSH1 0x1 ADD PUSH2 0x3D1 JUMP JUMPDEST POP SWAP3 POP POP POP SWAP1 JUMP JUMPDEST PUSH2 0x473 PUSH2 0x749 JUMP JUMPDEST PUSH1 0x0 SLOAD PUSH1 0x1 PUSH1 0x1 PUSH1 0xA0 SHL SUB SWAP1 DUP2 AND SWAP2 AND EQ PUSH2 0x4C3 JUMPI PUSH1 0x40 DUP1 MLOAD PUSH3 0x461BCD PUSH1 0xE5 SHL DUP2 MSTORE PUSH1 0x20 PUSH1 0x4 DUP3 ADD DUP2 SWAP1 MSTORE PUSH1 0x24 DUP3 ADD MSTORE PUSH1 0x0 DUP1 MLOAD PUSH1 0x20 PUSH2 0x814 DUP4 CODECOPY DUP2 MLOAD SWAP2 MSTORE PUSH1 0x44 DUP3 ADD MSTORE SWAP1 MLOAD SWAP1 DUP2 SWAP1 SUB PUSH1 0x64 ADD SWAP1 REVERT JUMPDEST PUSH1 0x0 DUP1 SLOAD PUSH1 0x40 MLOAD PUSH1 0x1 PUSH1 0x1 PUSH1 0xA0 SHL SUB SWAP1 SWAP2 AND SWAP1 PUSH32 0x8BE0079C531659141344CD1FD0A4F28419497F9722A3DAAFE3B4186F6B6457E0 SWAP1 DUP4 SWAP1 LOG3 PUSH1 0x0 DUP1 SLOAD PUSH1 0x1 PUSH1 0x1 PUSH1 0xA0 SHL SUB NOT AND SWAP1 SSTORE JUMP JUMPDEST PUSH1 0x0 SLOAD PUSH1 0x1 PUSH1 0x1 PUSH1 0xA0 SHL SUB AND SWAP1 JUMP JUMPDEST PUSH1 0x1 PUSH1 0x1 PUSH1 0xA0 SHL SUB AND PUSH1 0x0 SWAP1 DUP2 MSTORE PUSH1 0x1 PUSH1 0x20 MSTORE PUSH1 0x40 SWAP1 KECCAK256 SLOAD SWAP1 JUMP JUMPDEST PUSH2 0x53F PUSH2 0x749 JUMP JUMPDEST PUSH1 0x0 SLOAD PUSH1 0x1 PUSH1 0x1 PUSH1 0xA0 SHL SUB SWAP1 DUP2 AND SWAP2 AND EQ PUSH2 0x58F JUMPI PUSH1 0x40 DUP1 MLOAD PUSH3 0x461BCD PUSH1 0xE5 SHL DUP2 MSTORE PUSH1 0x20 PUSH1 0x4 DUP3 ADD DUP2 SWAP1 MSTORE PUSH1 0x24 DUP3 ADD MSTORE PUSH1 0x0 DUP1 MLOAD PUSH1 0x20 PUSH2 0x814 DUP4 CODECOPY DUP2 MLOAD SWAP2 MSTORE PUSH1 0x44 DUP3 ADD MSTORE SWAP1 MLOAD SWAP1 DUP2 SWAP1 SUB PUSH1 0x64 ADD SWAP1 REVERT JUMPDEST PUSH1 0x40 DUP1 MLOAD DUP1 DUP3 ADD SWAP1 SWAP2 MSTORE PUSH1 0x2 DUP2 MSTORE PUSH2 0x1B99 PUSH1 0xF1 SHL PUSH1 0x20 DUP3 ADD MSTORE DUP2 PUSH2 0x5F4 JUMPI PUSH1 0x40 MLOAD PUSH3 0x461BCD PUSH1 0xE5 SHL DUP2 MSTORE PUSH1 0x20 PUSH1 0x4 DUP3 ADD DUP2 DUP2 MSTORE DUP4 MLOAD PUSH1 0x24 DUP5 ADD MSTORE DUP4 MLOAD SWAP1 SWAP3 DUP4 SWAP3 PUSH1 0x44 SWAP1 SWAP2 ADD SWAP2 SWAP1 DUP6 ADD SWAP1 DUP1 DUP4 DUP4 PUSH1 0x0 DUP4 ISZERO PUSH2 0x2A2 JUMPI DUP2 DUP2 ADD MLOAD DUP4 DUP3 ADD MSTORE PUSH1 0x20 ADD PUSH2 0x28A JUMP JUMPDEST POP PUSH1 0x1 PUSH1 0x1 PUSH1 0xA0 SHL SUB DUP3 AND PUSH1 0x0 SWAP1 DUP2 MSTORE PUSH1 0x1 PUSH1 0x20 MSTORE PUSH1 0x40 SWAP1 KECCAK256 DUP2 SWAP1 SSTORE PUSH2 0x619 DUP3 PUSH2 0x74D JUMP JUMPDEST PUSH1 0x40 MLOAD PUSH1 0x1 PUSH1 0x1 PUSH1 0xA0 SHL SUB DUP4 AND SWAP1 PUSH32 0x2DB38786C10176B033A1608361716B0CA992E3AF55DC05B6DC710969790BEEDA SWAP1 PUSH1 0x0 SWAP1 LOG2 POP POP JUMP JUMPDEST PUSH2 0x659 PUSH2 0x749 JUMP JUMPDEST PUSH1 0x0 SLOAD PUSH1 0x1 PUSH1 0x1 PUSH1 0xA0 SHL SUB SWAP1 DUP2 AND SWAP2 AND EQ PUSH2 0x6A9 JUMPI PUSH1 0x40 DUP1 MLOAD PUSH3 0x461BCD PUSH1 0xE5 SHL DUP2 MSTORE PUSH1 0x20 PUSH1 0x4 DUP3 ADD DUP2 SWAP1 MSTORE PUSH1 0x24 DUP3 ADD MSTORE PUSH1 0x0 DUP1 MLOAD PUSH1 0x20 PUSH2 0x814 DUP4 CODECOPY DUP2 MLOAD SWAP2 MSTORE PUSH1 0x44 DUP3 ADD MSTORE SWAP1 MLOAD SWAP1 DUP2 SWAP1 SUB PUSH1 0x64 ADD SWAP1 REVERT JUMPDEST PUSH1 0x1 PUSH1 0x1 PUSH1 0xA0 SHL SUB DUP2 AND PUSH2 0x6EE JUMPI PUSH1 0x40 MLOAD PUSH3 0x461BCD PUSH1 0xE5 SHL DUP2 MSTORE PUSH1 0x4 ADD DUP1 DUP1 PUSH1 0x20 ADD DUP3 DUP2 SUB DUP3 MSTORE PUSH1 0x26 DUP2 MSTORE PUSH1 0x20 ADD DUP1 PUSH2 0x7EE PUSH1 0x26 SWAP2 CODECOPY PUSH1 0x40 ADD SWAP2 POP POP PUSH1 0x40 MLOAD DUP1 SWAP2 SUB SWAP1 REVERT JUMPDEST PUSH1 0x0 DUP1 SLOAD PUSH1 0x40 MLOAD PUSH1 0x1 PUSH1 0x1 PUSH1 0xA0 SHL SUB DUP1 DUP6 AND SWAP4 SWAP3 AND SWAP2 PUSH32 0x8BE0079C531659141344CD1FD0A4F28419497F9722A3DAAFE3B4186F6B6457E0 SWAP2 LOG3 PUSH1 0x0 DUP1 SLOAD PUSH1 0x1 PUSH1 0x1 PUSH1 0xA0 SHL SUB NOT AND PUSH1 0x1 PUSH1 0x1 PUSH1 0xA0 SHL SUB SWAP3 SWAP1 SWAP3 AND SWAP2 SWAP1 SWAP2 OR SWAP1 SSTORE JUMP JUMPDEST CALLER SWAP1 JUMP JUMPDEST PUSH1 0x2 SLOAD PUSH1 0x0 JUMPDEST DUP2 DUP2 LT ISZERO PUSH2 0x79C JUMPI DUP3 PUSH1 0x1 PUSH1 0x1 PUSH1 0xA0 SHL SUB AND PUSH1 0x2 DUP3 DUP2 SLOAD DUP2 LT PUSH2 0x772 JUMPI INVALID JUMPDEST PUSH1 0x0 SWAP2 DUP3 MSTORE PUSH1 0x20 SWAP1 SWAP2 KECCAK256 ADD SLOAD PUSH1 0x1 PUSH1 0x1 PUSH1 0xA0 SHL SUB AND EQ ISZERO PUSH2 0x794 JUMPI POP POP PUSH2 0x7EA JUMP JUMPDEST PUSH1 0x1 ADD PUSH2 0x753 JUMP JUMPDEST POP POP PUSH1 0x2 DUP1 SLOAD PUSH1 0x1 DUP2 ADD DUP3 SSTORE PUSH1 0x0 SWAP2 SWAP1 SWAP2 MSTORE PUSH32 0x405787FA12A823E0F2B7631CC41B3BA8828B3321CA811111FA75CD3AA3BB5ACE ADD DUP1 SLOAD PUSH1 0x1 PUSH1 0x1 PUSH1 0xA0 SHL SUB NOT AND PUSH1 0x1 PUSH1 0x1 PUSH1 0xA0 SHL SUB DUP4 AND OR SWAP1 SSTORE JUMPDEST POP JUMP INVALID 0x4F PUSH24 0x6E61626C653A206E6577206F776E65722069732074686520 PUSH27 0x65726F20616464726573734F776E61626C653A2063616C6C657220 PUSH10 0x73206E6F742074686520 PUSH16 0x776E6572A26469706673582212202844 SWAP3 0x29 0xE2 PUSH17 0xC38757CEFD266A37AC596D145EB7CB558E 0xCC SWAP5 0xF7 PUSH9 0xBE6EAFE61F64736F6C PUSH4 0x4300060C STOP CALLER "
				},
				"gasEstimates": {
					"creation": {
						"codeDepositCost": "430600",
						"executionCost": "22903",
						"totalCost": "453503"
					},
					"external": {
						"getAddressesProviderIdByAddress(address)": "1164",
						"getAddressesProvidersList()": "infinite",
						"owner()": "1037",
						"registerAddressesProvider(address,uint256)": "infinite",
						"renounceOwnership()": "infinite",
						"transferOwnership(address)": "infinite",
						"unregisterAddressesProvider(address)": "infinite"
					},
					"internal": {
						"_addToAddressesProvidersList(address)": "infinite"
					}
				},
				"methodIdentifiers": {
					"getAddressesProviderIdByAddress(address)": "d0267be7",
					"getAddressesProvidersList()": "365ccbbf",
					"owner()": "8da5cb5b",
					"registerAddressesProvider(address,uint256)": "d258191e",
					"renounceOwnership()": "715018a6",
					"transferOwnership(address)": "f2fde38b",
					"unregisterAddressesProvider(address)": "0de26707"
				}
			},
			"storageLayout": {
				"storage": [
					{
						"astId": 30,
						"contract": "contracts/protocol/configuration/LendingPoolAddressesProviderRegistry.sol:LendingPoolAddressesProviderRegistry",
						"label": "_owner",
						"offset": 0,
						"slot": "0",
						"type": "t_address"
					},
					{
						"astId": 185,
						"contract": "contracts/protocol/configuration/LendingPoolAddressesProviderRegistry.sol:LendingPoolAddressesProviderRegistry",
						"label": "_addressesProviders",
						"offset": 0,
						"slot": "1",
						"type": "t_mapping(t_address,t_uint256)"
					},
					{
						"astId": 188,
						"contract": "contracts/protocol/configuration/LendingPoolAddressesProviderRegistry.sol:LendingPoolAddressesProviderRegistry",
						"label": "_addressesProvidersList",
						"offset": 0,
						"slot": "2",
						"type": "t_array(t_address)dyn_storage"
					}
				],
				"types": {
					"t_address": {
						"encoding": "inplace",
						"label": "address",
						"numberOfBytes": "20"
					},
					"t_array(t_address)dyn_storage": {
						"base": "t_address",
						"encoding": "dynamic_array",
						"label": "address[]",
						"numberOfBytes": "32"
					},
					"t_mapping(t_address,t_uint256)": {
						"encoding": "mapping",
						"key": "t_address",
						"label": "mapping(address => uint256)",
						"numberOfBytes": "32",
						"value": "t_uint256"
					},
					"t_uint256": {
						"encoding": "inplace",
						"label": "uint256",
						"numberOfBytes": "32"
					}
				}
			},
			"userdoc": {
				"kind": "user",
				"methods": {},
				"version": 1
			}
		}
	}
}