{
  "abi": [
    {
      "inputs": [
        {
          "internalType": "address payable",
          "name": "to",
          "type": "address"
        }
      ],
      "name": "destroyAndTransfer",
      "outputs": [],
      "stateMutability": "payable",
      "type": "function"
    }
  ],
  "bytecode": {
    "object": "0x6080604052348015600f57600080fd5b5060888061001e6000396000f3fe608060405260043610601c5760003560e01c8063785e07b3146021575b600080fd5b604460048036036020811015603557600080fd5b50356001600160a01b03166046565b005b806001600160a01b0316fffea264697066735822122095f2dc9614d1b688260d5ca72d6d89143c78409583eca7fcbd93b432aba90c4664736f6c634300060c0033",
    "linkReferences": {}
  },
  "methodIdentifiers": {
    "destroyAndTransfer(address)": "785e07b3"
  },
  "id": 58
}