{
  "abi": [
    {
      "inputs": [
        {
          "internalType": "address",
          "name": "weth",
          "type": "address"
        },
        {
          "internalType": "address",
          "name": "pool",
          "type": "address"
        }
      ],
      "stateMutability": "nonpayable",
      "type": "constructor"
    },
    {
      "anonymous": false,
      "inputs": [
        {
          "indexed": true,
          "internalType": "address",
          "name": "previousOwner",
          "type": "address"
        },
        {
          "indexed": true,
          "internalType": "address",
          "name": "newOwner",
          "type": "address"
        }
      ],
      "name": "OwnershipTransferred",
      "type": "event"
    },
    {
      "stateMutability": "payable",
      "type": "fallback"
    },
    {
      "inputs": [
        {
          "internalType": "uint256",
          "name": "amount",
          "type": "uint256"
        },
        {
          "internalType": "uint256",
          "name": "interesRateMode",
          "type": "uint256"
        },
        {
          "internalType": "uint16",
          "name": "referralCode",
          "type": "uint16"
        }
      ],
      "name": "borrowETH",
      "outputs": [],
      "stateMutability": "nonpayable",
      "type": "function"
    },
    {
      "inputs": [
        {
          "internalType": "address",
          "name": "onBehalfOf",
          "type": "address"
        },
        {
          "internalType": "uint16",
          "name": "referralCode",
          "type": "uint16"
        }
      ],
      "name": "depositETH",
      "outputs": [],
      "stateMutability": "payable",
      "type": "function"
    },
    {
      "inputs": [
        {
          "internalType": "address",
          "name": "to",
          "type": "address"
        },
        {
          "internalType": "uint256",
          "name": "amount",
          "type": "uint256"
        }
      ],
      "name": "emergencyEtherTransfer",
      "outputs": [],
      "stateMutability": "nonpayable",
      "type": "function"
    },
    {
      "inputs": [
        {
          "internalType": "address",
          "name": "token",
          "type": "address"
        },
        {
          "internalType": "address",
          "name": "to",
          "type": "address"
        },
        {
          "internalType": "uint256",
          "name": "amount",
          "type": "uint256"
        }
      ],
      "name": "emergencyTokenTransfer",
      "outputs": [],
      "stateMutability": "nonpayable",
      "type": "function"
    },
    {
      "inputs": [],
      "name": "getAWETHAddress",
      "outputs": [
        {
          "internalType": "address",
          "name": "",
          "type": "address"
        }
      ],
      "stateMutability": "view",
      "type": "function"
    },
    {
      "inputs": [],
      "name": "getLendingPoolAddress",
      "outputs": [
        {
          "internalType": "address",
          "name": "",
          "type": "address"
        }
      ],
      "stateMutability": "view",
      "type": "function"
    },
    {
      "inputs": [],
      "name": "getWETHAddress",
      "outputs": [
        {
          "internalType": "address",
          "name": "",
          "type": "address"
        }
      ],
      "stateMutability": "view",
      "type": "function"
    },
    {
      "inputs": [],
      "name": "owner",
      "outputs": [
        {
          "internalType": "address",
          "name": "",
          "type": "address"
        }
      ],
      "stateMutability": "view",
      "type": "function"
    },
    {
      "inputs": [],
      "name": "renounceOwnership",
      "outputs": [],
      "stateMutability": "nonpayable",
      "type": "function"
    },
    {
      "inputs": [
        {
          "internalType": "uint256",
          "name": "amount",
          "type": "uint256"
        },
        {
          "internalType": "uint256",
          "name": "rateMode",
          "type": "uint256"
        },
        {
          "internalType": "address",
          "name": "onBehalfOf",
          "type": "address"
        }
      ],
      "name": "repayETH",
      "outputs": [],
      "stateMutability": "payable",
      "type": "function"
    },
    {
      "inputs": [
        {
          "internalType": "address",
          "name": "newOwner",
          "type": "address"
        }
      ],
      "name": "transferOwnership",
      "outputs": [],
      "stateMutability": "nonpayable",
      "type": "function"
    },
    {
      "inputs": [
        {
          "internalType": "uint256",
          "name": "amount",
          "type": "uint256"
        },
        {
          "internalType": "address",
          "name": "to",
          "type": "address"
        }
      ],
      "name": "withdrawETH",
      "outputs": [],
      "stateMutability": "nonpayable",
      "type": "function"
    },
    {
      "stateMutability": "payable",
      "type": "receive"
    }
  ],
  "bytecode": {
    "object": "0x60e06040523480156200001157600080fd5b5060405162001bc838038062001bc883398101604081905262000034916200036f565b600062000040620001cf565b600080546001600160a01b0319166001600160a01b0383169081178255604051929350917f8be0079c531659141344cd1fd0a4f28419497f9722a3daafe3b4186f6b6457e0908290a3506001600160601b0319606083811b821660805282901b1660a0526040516335ea6a7560e01b815281906001600160a01b038216906335ea6a7590620000d490869060040162000410565b6101806040518083038186803b158015620000ee57600080fd5b505afa15801562000103573d6000803e3d6000fd5b505050506040513d601f19601f82011682018060405250810190620001299190620003d3565b60e0015160601b6001600160601b03191660c05260405163095ea7b360e01b81526001600160a01b0384169063095ea7b3906200016f9085906000199060040162000420565b602060405180830381600087803b1580156200018a57600080fd5b505af11580156200019f573d6000803e3d6000fd5b505050506040513d601f19601f82011682018060405250810190620001c59190620003ac565b50505050620004f4565b3390565b8051620001e081620004a3565b92915050565b8051620001e081620004bd565b60006020828403121562000205578081fd5b6200021160206200043f565b9050600062000221848462000348565b9082015292915050565b600061018082840312156200023e578081fd5b6200024b6101806200043f565b905060006200025b8484620001f3565b9082015260206200026f848483016200033b565b90820152604062000283848483016200033b565b90820152606062000297848483016200033b565b908201526080620002ab848483016200033b565b9082015260a0620002bf848483016200033b565b9082015260c0620002d38484830162000355565b9082015260e0620002e784848301620001d3565b90820152610100620002fc84848301620001d3565b908201526101206200031184848301620001d3565b908201526101406200032684848301620001d3565b90820152610160620002218484830162000362565b8051620001e081620004c8565b8051620001e081620004d3565b8051620001e081620004de565b8051620001e081620004e9565b6000806040838503121562000382578182fd5b6200039084838501620001d3565b91506020620003a285828601620001d3565b9150509250929050565b600060208284031215620003be578081fd5b620003cc83828401620001e6565b9392505050565b60006101808284031215620003e6578081fd5b620003cc838284016200022b565b620003ff8162000466565b82525050565b620003ff8162000490565b60208101620001e08284620003f4565b60408101620004308285620003f4565b620003cc602083018462000405565b6040518181016001600160401b03811182821017156200045e57600080fd5b604052919050565b6000620001e08262000484565b151590565b6001600160801b031690565b6001600160a01b031690565b90565b64ffffffffff1690565b60ff1690565b620004ae8162000466565b8114620004ba57600080fd5b50565b620004ae8162000473565b620004ae8162000478565b620004ae8162000490565b620004ae8162000493565b620004ae816200049d565b60805160601c60a05160601c60c05160601c61164a6200057e6000398061027a528061032652806105055250806103c952806105af528061064552806106fd5280610a035280610ba552508060bb52806103f6528061048c528061052952806105df528061072a52806107a152806108df5280610a325280610b1f5280610bd5525061164a6000f3fe6080604052600436106100ab5760003560e01c80638da5cb5b116100645780638da5cb5b146101c3578063a3d5b255146101d8578063affa8817146101f8578063eed88b8d1461020d578063f2fde38b1461022d578063f538ba511461024d57610103565b806336118b521461011b5780633a21afac1461013b57806358c22be7146101665780635f36a74214610179578063715018a61461018e5780637d5155fd146101a357610103565b3661010357336001600160a01b037f000000000000000000000000000000000000000000000000000000000000000016146101015760405162461bcd60e51b81526004016100f8906114b8565b60405180910390fd5b005b60405162461bcd60e51b81526004016100f890611498565b34801561012757600080fd5b506101016101363660046110c5565b610260565b34801561014757600080fd5b50610150610503565b60405161015d919061134a565b60405180910390f35b610101610174366004611007565b610527565b34801561018557600080fd5b50610150610643565b34801561019a57600080fd5b50610101610667565b3480156101af57600080fd5b506101016101be366004611134565b6106e6565b3480156101cf57600080fd5b50610150610819565b3480156101e457600080fd5b506101016101f3366004610fbc565b610828565b34801561020457600080fd5b506101506108dd565b34801561021957600080fd5b5061010161022836600461103f565b610901565b34801561023957600080fd5b50610101610248366004610f98565b610944565b61010161025b3660046110f3565b6109fa565b6040516370a0823160e01b81526000906001600160a01b037f000000000000000000000000000000000000000000000000000000000000000016906370a08231906102af903390600401611358565b60206040518083038186803b1580156102c757600080fd5b505afa1580156102db573d6000803e3d6000fd5b505050506040513d601f19601f820116820180604052508101906102ff91906110a8565b90508260001981141561030f5750805b6040516323b872dd60e01b81526001600160a01b037f000000000000000000000000000000000000000000000000000000000000000016906323b872dd9061035f90339030908690600401611366565b602060405180830381600087803b15801561037957600080fd5b505af115801561038d573d6000803e3d6000fd5b505050506040513d601f19601f820116820180604052508101906103b1919061106d565b50604051631a4ca37b60e21b81526001600160a01b037f000000000000000000000000000000000000000000000000000000000000000016906369328dec90610422907f000000000000000000000000000000000000000000000000000000000000000090859030906004016113b1565b602060405180830381600087803b15801561043c57600080fd5b505af1158015610450573d6000803e3d6000fd5b505050506040513d601f19601f8201168201806040525081019061047491906110a8565b50604051632e1a7d4d60e01b81526001600160a01b037f00000000000000000000000000000000000000000000000000000000000000001690632e1a7d4d906104c19084906004016114f8565b600060405180830381600087803b1580156104db57600080fd5b505af11580156104ef573d6000803e3d6000fd5b505050506104fd8382610c66565b50505050565b7f000000000000000000000000000000000000000000000000000000000000000090565b7f00000000000000000000000000000000000000000000000000000000000000006001600160a01b031663d0e30db0346040518263ffffffff1660e01b81526004016000604051808303818588803b15801561058257600080fd5b505af1158015610596573d6000803e3d6000fd5b505060405163e8eda9df60e01b81526001600160a01b037f000000000000000000000000000000000000000000000000000000000000000016935063e8eda9df925061060d91507f0000000000000000000000000000000000000000000000000000000000000000903490879087906004016113d9565b600060405180830381600087803b15801561062757600080fd5b505af115801561063b573d6000803e3d6000fd5b505050505050565b7f000000000000000000000000000000000000000000000000000000000000000090565b61066f610cf3565b6000546001600160a01b0390811691161461069c5760405162461bcd60e51b81526004016100f8906114c8565b600080546040516001600160a01b03909116907f8be0079c531659141344cd1fd0a4f28419497f9722a3daafe3b4186f6b6457e0908390a3600080546001600160a01b0319169055565b60405163a415bcad60e01b81526001600160a01b037f0000000000000000000000000000000000000000000000000000000000000000169063a415bcad9061075a907f000000000000000000000000000000000000000000000000000000000000000090879087908790339060040161144c565b600060405180830381600087803b15801561077457600080fd5b505af1158015610788573d6000803e3d6000fd5b5050604051632e1a7d4d60e01b81526001600160a01b037f0000000000000000000000000000000000000000000000000000000000000000169250632e1a7d4d91506107d89086906004016114f8565b600060405180830381600087803b1580156107f257600080fd5b505af1158015610806573d6000803e3d6000fd5b505050506108143384610c66565b505050565b6000546001600160a01b031690565b610830610cf3565b6000546001600160a01b0390811691161461085d5760405162461bcd60e51b81526004016100f8906114c8565b60405163a9059cbb60e01b81526001600160a01b0384169063a9059cbb9061088b9085908590600401611396565b602060405180830381600087803b1580156108a557600080fd5b505af11580156108b9573d6000803e3d6000fd5b505050506040513d601f19601f820116820180604052508101906104fd919061106d565b7f000000000000000000000000000000000000000000000000000000000000000090565b610909610cf3565b6000546001600160a01b039081169116146109365760405162461bcd60e51b81526004016100f8906114c8565b6109408282610c66565b5050565b61094c610cf3565b6000546001600160a01b039081169116146109795760405162461bcd60e51b81526004016100f8906114c8565b6001600160a01b03811661099f5760405162461bcd60e51b81526004016100f8906114a8565b600080546040516001600160a01b03808516939216917f8be0079c531659141344cd1fd0a4f28419497f9722a3daafe3b4186f6b6457e091a3600080546001600160a01b0319166001600160a01b0392909216919091179055565b600080610ac3837f00000000000000000000000000000000000000000000000000000000000000006001600160a01b03166335ea6a757f00000000000000000000000000000000000000000000000000000000000000006040518263ffffffff1660e01b8152600401610a6d919061134a565b6101806040518083038186803b158015610a8657600080fd5b505afa158015610a9a573d6000803e3d6000fd5b505050506040513d601f19601f82011682018060405250810190610abe919061108a565b610cf7565b909250905060006001856002811115610ad857fe5b6002811115610ae357fe5b14610aee5781610af0565b825b905080861015610afd5750845b80341015610b1d5760405162461bcd60e51b81526004016100f8906114e8565b7f00000000000000000000000000000000000000000000000000000000000000006001600160a01b031663d0e30db0826040518263ffffffff1660e01b81526004016000604051808303818588803b158015610b7857600080fd5b505af1158015610b8c573d6000803e3d6000fd5b505060405163573ade8160e01b81526001600160a01b037f000000000000000000000000000000000000000000000000000000000000000016935063573ade819250610c0391507f00000000000000000000000000000000000000000000000000000000000000009034908a908a90600401611417565b602060405180830381600087803b158015610c1d57600080fd5b505af1158015610c31573d6000803e3d6000fd5b505050506040513d601f19601f82011682018060405250810190610c5591906110a8565b508034111561063b5761063b338234035b604080516000808252602082019092526001600160a01b038416908390604051610c90919061133e565b60006040518083038185875af1925050503d8060008114610ccd576040519150601f19603f3d011682016040523d82523d6000602084013e610cd2565b606091505b50509050806108145760405162461bcd60e51b81526004016100f8906114d8565b3390565b6000808261010001516001600160a01b03166370a08231856040518263ffffffff1660e01b8152600401610d2b919061134a565b60206040518083038186803b158015610d4357600080fd5b505afa158015610d57573d6000803e3d6000fd5b505050506040513d601f19601f82011682018060405250810190610d7b91906110a8565b8361012001516001600160a01b03166370a08231866040518263ffffffff1660e01b8152600401610dac919061134a565b60206040518083038186803b158015610dc457600080fd5b505afa158015610dd8573d6000803e3d6000fd5b505050506040513d601f19601f82011682018060405250810190610dfc91906110a8565b915091509250929050565b8035610e12816115c7565b92915050565b8051610e12816115c7565b8051610e12816115de565b600060208284031215610e3f578081fd5b610e496020611506565b90506000610e578484610f77565b9082015292915050565b60006101808284031215610e73578081fd5b610e7e610180611506565b90506000610e8c8484610e2e565b908201526020610e9e84848301610f56565b908201526040610eb084848301610f56565b908201526060610ec284848301610f56565b908201526080610ed484848301610f56565b9082015260a0610ee684848301610f56565b9082015260c0610ef884848301610f82565b9082015260e0610f0a84848301610e18565b90820152610100610f1d84848301610e18565b90820152610120610f3084848301610e18565b90820152610140610f4384848301610e18565b90820152610160610e5784848301610f8d565b8051610e12816115e7565b8035610e12816115f0565b8035610e12816115f9565b8051610e12816115f9565b8051610e1281611602565b8051610e128161160b565b600060208284031215610fa9578081fd5b610fb583828401610e07565b9392505050565b600080600060608486031215610fd0578182fd5b610fdc85838601610e07565b92506020610fec86828701610e07565b9250506040610ffd86828701610f6c565b9150509250925092565b60008060408385031215611019578182fd5b61102584838501610e07565b9150602061103585828601610f61565b9150509250929050565b60008060408385031215611051578182fd5b61105d84838501610e07565b9150602061103585828601610f6c565b60006020828403121561107e578081fd5b610fb583828401610e23565b6000610180828403121561109c578081fd5b610fb583828401610e61565b6000602082840312156110b9578081fd5b610fb583828401610f77565b600080604083850312156110d7578182fd5b6110e384838501610f6c565b9150602061103585828601610e07565b600080600060608486031215611107578283fd5b61111385848601610f6c565b9250602061112386828701610f6c565b9250506040610ffd86828701610e07565b600080600060608486031215611148578283fd5b61115485848601610f6c565b9250602061116486828701610f6c565b9250506040610ffd86828701610f61565b61117e8161158a565b82525050565b61117e8161153f565b60006111988261152d565b6111a28185611531565b93506111b281856020860161159b565b9290920192915050565b60006111c9601483611536565b7311985b1b189858dac81b9bdd08185b1b1bddd95960621b91810191909152602001919050565b60006111fd602683611536565b7f4f776e61626c653a206e6577206f776e657220697320746865207a65726f2061918101919091526564647265737360d01b6020820152604001919050565b6000611249601383611536565b72149958d95a5d99481b9bdd08185b1b1bddd959606a1b91810191909152602001919050565b600061127c602083611536565b7f4f776e61626c653a2063616c6c6572206973206e6f7420746865206f776e657291810191909152602001919050565b60006112b9601383611536565b7211551217d514905394d1915497d19052531151606a1b91810191909152602001919050565b60006112ec602783611536565b7f6d73672e76616c7565206973206c657373207468616e2072657061796d656e74918101919091526608185b5bdd5b9d60ca1b6020820152604001919050565b61117e81611564565b61117e81611577565b6000610fb5828461118d565b60208101610e128284611184565b60208101610e128284611175565b606081016113748286611175565b6113816020830185611175565b61138e6040830184611335565b949350505050565b604081016113a48285611184565b610fb56020830184611335565b606081016113bf8286611184565b6113cc6020830185611335565b61138e6040830184611175565b608081016113e78287611184565b6113f46020830186611335565b6114016040830185611184565b61140e606083018461132c565b95945050505050565b608081016114258287611184565b6114326020830186611335565b61143f6040830185611335565b61140e6060830184611184565b60a0810161145a8288611184565b6114676020830187611335565b6114746040830186611335565b611481606083018561132c565b61148e6080830184611175565b9695505050505050565b60208082528101610e12816111bc565b60208082528101610e12816111f0565b60208082528101610e128161123c565b60208082528101610e128161126f565b60208082528101610e12816112ac565b60208082528101610e12816112df565b60208101610e128284611335565b60405181810167ffffffffffffffff8111828210171561152557600080fd5b604052919050565b5190565b919050565b90815260200190565b6000610e128261156b565b151590565b6fffffffffffffffffffffffffffffffff1690565b61ffff1690565b6001600160a01b031690565b90565b64ffffffffff1690565b60ff1690565b6000610e12826000610e128261153f565b60005b838110156115b657818101518382015260200161159e565b838111156104fd5750506000910152565b6115d08161153f565b81146115db57600080fd5b50565b6115d08161154a565b6115d08161154f565b6115d081611564565b6115d081611577565b6115d08161157a565b6115d08161158456fea26469706673582212206d468f94162c6ff453f0cdf59472fb9c72f33d2c8e8ea47876f052e29fbe7ff564736f6c634300060c0033",
    "linkReferences": {}
  },
  "methodIdentifiers": {
    "borrowETH(uint256,uint256,uint16)": "7d5155fd",
    "depositETH(address,uint16)": "58c22be7",
    "emergencyEtherTransfer(address,uint256)": "eed88b8d",
    "emergencyTokenTransfer(address,address,uint256)": "a3d5b255",
    "getAWETHAddress()": "3a21afac",
    "getLendingPoolAddress()": "5f36a742",
    "getWETHAddress()": "affa8817",
    "owner()": "8da5cb5b",
    "renounceOwnership()": "715018a6",
    "repayETH(uint256,uint256,address)": "f538ba51",
    "transferOwnership(address)": "f2fde38b",
    "withdrawETH(uint256,address)": "36118b52"
  },
  "id": 43
}